:100000000C940D020C9435020C9435020C943502BC
:100010000C9435020C9435020C9435020C94350284
:100020000C9435020C9435020C94AC1B0C94401AC1
:100030000C9435020C9435020C9435020C94350264
:100040000C9435020C9435020C9435020C94350254
:100050000C9499060C9435020C9435020C94671C90
:100060000C9435020C9435020C9435020C94350234
:100070000C9435020C9435020C9435020C94350224
:100080000C9435020C9435020C9435020C94350214
:100090000C9435020C9435020C9435020C94350204
:1000A0000C9435020C9435020C943502260D2B0D60
:1000B000350D3D0D450D500D550D5A0D640D1F0D9F
:1000C000210D14001A0008001500170000001C0084
:1000D00018000C00120013000400160007000900AD
:1000E0000A0000000B000D000E000F0033001D0081
:1000F0001B00060019000500E0001100100036008A
:100100003700380029002B00E300E1002A00E2005C
:100110002C002B442D00340028001E081F0852001C
:100120002F08300800004B00240025002600250879
:100130002008500051004F00210800004E0021000F
:10014000220023002E082F0030002608270824084C
:10015000E00035001E001F0020003100024449006D
:10016000E300E1002A00E2002C00FFFF3700270037
:100170002E0049004A0052004D004B000000520082
:1001800040004100420043004C00500051004F002D
:100190004E00000051003D003E003F0044000000C2
:1001A000E95C000000000060FFFF00003A003B0037
:1001B0003C0045000000EA5CFFFFFFFFFFFFFFFF80
:1001C000FFFF016046004700CD586D617000726FFF
:1001D0004C6179657273006B65796D61702E006B8F
:1001E00065796D61702E6D61700A6B65796D6170F6
:1001F0002E726F4C617965727300656570726F6DF8
:100200002E6672656500656570726F6D2E636F6E28
:1002100074656E747300656570726F6D2E636F6EBA
:1002200074656E74730A656570726F6D2E667265A3
:1002300065002F006372630076657273696F6E00EC
:1002400076616C69643F0064656661756C744C61CD
:100250007965720073657474696E67732E007365D7
:100260007474696E67732E64656661756C744C6135
:100270007965720A73657474696E67732E76616C42
:1002800069643F0A73657474696E67732E7665726C
:1002900073696F6E0A73657474696E67732E637227
:1002A000630066616C736500747275650068656CE7
:1002B000700068656C70000D0A2E0005010906A12A
:1002C00001050719E029E715002501750195088149
:1002D0000295017508810195057501050819012927
:1002E0000591029501750391019506750815002584
:1002F000FF0507190029FF8100C0050C0901A101B4
:100300008504150026FF0319002AFF0395047510C4
:100310008100C005010906A1018508050719E0292A
:10032000E7150025017501950881020508190129C5
:100330000895087501910205077504950181011959
:100340000429DD15002501750195D98102750395F4
:10035000018101C005010980A1018505150026FF65
:1003600000190029FF950175088100C005010902E7
:10037000A101050919012908150025019508750134
:10038000810205010930093116000026FF7F751032
:100390009502810209381581257F7508950181062E
:1003A000C0080B0002020201000904000001020261
:1003B00000000524001001052401010104240206A7
:1003C000052406000107058103100040090401000F
:1003D000020A000000070502024000000705830230
:1003E00040000012010002EF0201400912E5A100E5
:1003F0000101020301546563686E6F6D616E63797C
:10040000004174726575730004030904480C72108E
:10041000E310D31167122313901511241FBECFEFE1
:10042000DAE0DEBFCDBF11E0A0E0B1E0E6E2FCE340
:1004300002C005900D92A837B107D9F723E0A8E7CD
:10044000B1E001C01D92A03EB207E1F712E0CDE09D
:10045000D2E004C02197FE010E94B71DC630D1072B
:10046000C9F70E94541C0C94111E0C94000085E5E1
:1004700092E00E94650A8CE492E00E94100980E0FC
:1004800090E0089585E592E00E941E0B80E090E0E8
:1004900008950F93022F242F462FBC018FE792E07F
:1004A0000E94750D0F910895CF93DF93EC01BC016D
:1004B0008CE492E00E94A009019719F481E090E099
:1004C0001AC0BE018EE592E00E94620C0197B1F362
:1004D000BE0183E592E00E949F0B019779F3BE0174
:1004E00084E592E00E94270B31E020E0019709F0BB
:1004F00030E0832F922FDF91CF91089580E090E03C
:1005000008958EE592E00E94860C8FE792E00C94AD
:100510009F0D8FE792E00C949A0D882331F0813083
:1005200051F480E00E94980806C0809119019091D2
:100530001A010E94A80680E090E0089588E791E003
:100540000E94AB0261E070E085E00C94280988E726
:1005500091E00C94D902CF93DF9340E855E260E03C
:1005600070E080E793E00E948A150E9437028EE7D0
:1005700091E00E94F1020E94D60D0E94E30E0E94BB
:10058000ED0E20E04FEF6FEF80E090E00E94DA0682
:100590000E94E007C0E0D0E06D2F8C2F0E94810701
:1005A000DF5FDB30C9F7CF5FC430A9F7DF91CF91B0
:1005B00008950E94B11C6093790170937A01809331
:1005C0007B0190937C010E9442028EE791E00E94A1
:1005D00058060E9481020E94A40E0E94550E0C949F
:1005E0008902CF93DF930FB6F894A89580916000AD
:1005F000886180936000109260000FBEABE1B1E0B3
:1006000046E251E061E070E08D91E82FF0E024E0F7
:10061000F595E7952A95E1F721A18F70EB0102C0CE
:10062000CC0FDD1F8A95E2F7CE019C2F9095922387
:1006300091A392A1892B82A34A175B0729F7A6E20F
:10064000B1E04AE251E061E070E08D91E82FF0E026
:1006500094E0F595E7959A95E1F721A18F70EB016C
:1006600002C0CC0FDD1F8A95E2F7CE01922F982BA6
:1006700091A392A1892B82A34A175B0731F780E1EE
:10068000809381001092800080E295E39093870030
:100690008093860081E18093810081E080936F00E8
:1006A000DF91CF9108952F923F924F925F926F9278
:1006B0007F928F929F92AF92BF92CF92DF92EF92F2
:1006C000FF920F931F93CF93DF93CDB7DEB766975B
:1006D0000FB6F894DEBF0FBECDBFEFE7F1E043EBFE
:1006E00051E05C8B4B8B86E291E09D878C875F8726
:1006F0004E87598B488B19828081882309F47EC1EB
:100700008150808382E090E040E030E0218122232C
:1007100021F021502183842F932F2281211173C135
:1007200084602381211175C188602481211177C1E2
:1007300080612581211179C18062268121117BC1CF
:100740008064278121117DC18068208521117FC1AE
:1007500091602185211181C192602285211183C17F
:100760009460AC85BD852D91BD87AC87A22FB0E08C
:10077000AD0155954795559547955595479555958F
:1007800047955E8B4D8BDA0192963C9192972F7034
:1007900088248394912C01C0880C2A95EAF7382587
:1007A00092963C93000049B10000C6B00000D3B05F
:1007B0000000E3B00000FCB0000009B1000013B17C
:1007C0000000BFB1BA8B00002FB1000099B000004B
:1007D00063B1A889B989AD90BD90B98BA88B30E081
:1007E000220F232F221F330BB1E02B27322F22277A
:1007F00070E0660F672F661F770B51E06527762F35
:100800006627770F770F262B372B50E0440F452FA5
:10081000441F550B61E04627242B352BC6FA66246E
:1008200060F8712CA301A1E04A27440F551F242B27
:10083000352BD5FA442440F8512CA201B1E04B27C6
:10084000440F551F440F551F242B352BE4FA222447
:1008500020F8312CA10161E04627440F551F440FB9
:10086000551F440F551F242B352BF6FAFF24F0F8A3
:10087000FA821B824A815B81A1E04A274295529508
:10088000507F5427407F5427242B352B029501702D
:100890000C831D824C815D81B1E04B27440F551FB5
:1008A00042955295507F5427407F5427422B532B1B
:1008B00016FB112710F91E831F826E817F8121E0B4
:1008C0006227002476956795079476956795079437
:1008D000762F602D462B572B6A8966FB662760F9B9
:1008E0006887198668857985A1E06A277695762FCD
:1008F000662777956795462B572B96FA992490F89B
:100900009A861B866A857B85B1E06B27762F6627E2
:10091000770F642B752B6A257B25682379236A253D
:100920007B25AD89BE8992968C9192978826929666
:100930008C92AE85BF858D919D91BF87AE878627AE
:10094000972780FF03C020910101208381FF03C00E
:1009500020910101218382FF03C0209101012283A4
:1009600083FF03C020910101238384FF03C02091F2
:100970000101248385FF03C020910101258386FFA7
:1009800003C020910101268387FF03C0209101014C
:10099000278390FF03C020910101208791FF03C0AE
:1009A00020910101218792FF03C08091010182877C
:1009B000AB89BC896D937D93BC8BAB8BB981BF5FD9
:1009C000B9833B96B43009F097CE66960FB6F8948B
:1009D000DEBF0FBECDBFDF91CF911F910F91FF9072
:1009E000EF90DF90CF90BF90AF909F908F907F90CF
:1009F0006F905F904F903F902F90089583E090E02C
:100A000041E030E083CE215022832381222309F468
:100A10008BCE215023832481222309F489CE2150B7
:100A200024832581222309F487CE21502583268122
:100A3000222309F485CE215026832781222309F41D
:100A400083CE215027832085222309F481CE215093
:100A500020872185222309F47FCE215021872285FA
:100A6000222309F47DCE215022877BCEFF920F9363
:100A70001F93CF93DF9303EB11E0CBEBD1E0F12C8D
:100A800038814981F80180819181282F2170220FBE
:100A9000532F5170252B09F0FFC0BC017695679547
:100AA0006170660F31FB222720F9262B09F0E8C080
:100AB000BC0176956795769567956170660F32FBF8
:100AC000222720F9262B09F0CFC0BC017695679527
:100AD00076956795769567956170660F33FB22274B
:100AE00020F9262B09F0B4C0BC01729562956F7095
:100AF00067277F7067276170660F34FB222720F914
:100B0000262B09F099C0BC01769567957295629580
:100B10006F7067277F7067276170660F35FB22272C
:100B200020F9262B09F07CC0BC010024660F771F3A
:100B3000001C660F771F001C672F702D6170660FF9
:100B400036FB222720F9262B09F05EC0BC01660F78
:100B5000672F661F770B71956170660F37FB222731
:100B600020F9262B09F045C0292F2170220F342FA0
:100B70003170232B99F541FB222720F9392F327050
:100B8000232B09F592FB222720F9220F42FB442751
:100B900040F9242B71F489939993F3940E5F1F4FBE
:100BA000F4E0FF126DCFDF91CF911F910F91FF9075
:100BB00008954AE06F2D80E090E00E94DA06F80187
:100BC00080819181E8CF49E06F2D80E090E00E9424
:100BD000DA064981F80180819181D4CF48E06F2DF8
:100BE00080E090E00E94DA064981F80180819181DD
:100BF000C2CF47E06F2D80E090E00E94DA06498185
:100C0000F80180819181B0CF46E06F2D80E090E0C7
:100C10000E94DA0638814981F8018081918196CF5E
:100C200045E06F2D80E090E00E94DA06388149812E
:100C3000F8018081918178CF44E06F2D80E090E0D1
:100C40000E94DA0638814981F801808191815BCF69
:100C500043E06F2D80E090E00E94DA063881498100
:100C6000F8018081918140CF42E06F2D80E090E0DB
:100C70000E94DA0638814981F8018081918125CF6F
:100C800041E06F2D80E090E00E94DA0638814981D2
:100C9000F801808191810CCF40E06F2D80E090E0E1
:100CA0000E94DA0638814981F80180819181F5CE70
:100CB00080917D01882331F010927D018EE791E0D3
:100CC0000E9453038EE791E00C9436056430D8F40B
:100CD0004B30C8F4E62FF0E0EE0FFF1FE555FE4F56
:100CE00081E090E0A0E0B0E004C0880F991FAA1F47
:100CF000BB1F4A95D2F78095909520813181822340
:100D00009323918380830895643088F44B3078F482
:100D1000E62FF0E0EE0FFF1FE555FE4F8081918139
:100D200002C0969587954A95E2F78170089580E014
:100D300008951F920F920FB60F9211248F9381E0A6
:100D400080937D018F910F900FBE0F901F9018958B
:100D5000F89481E08093E00080E28093D800E9EC91
:100D6000F0E010828FE19EE40197F1F700C00000EF
:100D70001DBA109268001CBC10BE1FBA10927A00F7
:100D800010926E0010926F0010927100109272001B
:100D90001082ECEBF0E0108214B817B81AB81DB846
:100DA00010BA108215B818B81BB81EB811BA0C9436
:100DB000003F0895EF92FF920F931F93CF93DF931D
:100DC00000D0CDB7DEB79A838983062FF42E122F79
:100DD000643090F58AE0841778F1822F8270E82ED3
:100DE00021FF06C020FD04C0642F802F0E948107D0
:100DF0004F2D602F8EE791E00E948406882351F0EA
:100E000010FF63C0E11061C04F2D602F8EE791E0AD
:100E10000E94660689819A81892B71F48BE0089F74
:100E2000F0011124EF0DF11DEE0FFF1FE151FE4FF8
:100E3000808191819A838983212F4F2D602FCE014C
:100E400001960E944902892B09F03FC0212F4F2DA6
:100E5000602F89819A810E94EF089A838983892B68
:100E6000A1F1F9800A8106FF1AC007FD2EC003FF19
:100E700007C011FF2AC08F2D902F0E94E70E25C0BA
:100E800000FF23C011FD21C010FF1FC08F2D902F28
:100E90000E94F10E8F2D902F0E94F60E16C0812F0A
:100EA000817011FF0AC0811102C061E001C060E0E1
:100EB0008F2D902F0E94130E08C0882331F017FF4A
:100EC00004C08F2D902F0E94650E0F900F90DF9120
:100ED000CF911F910F91FF90EF9008952CE2829F88
:100EE000C0011124FC012BE0629FE00DF11D1124D3
:100EF000E40FF11DEE0FFF1FEE53FF4F859194910C
:100F00000895CF93DF93462F262F30E09BE0899FF3
:100F1000F0011124EF01C20FD31FCC0FDD1FC1510F
:100F2000DE4FED53FE4FDF01A20FB31FE091020130
:100F3000F0910301682F8C91099599838883DF9143
:100F4000CF9108950F931F9380910001815040919C
:100F500048025091490260914A0270914B028823E5
:100F600089F08A019B01082E04C0369527951795B4
:100F700007950A94D2F700FF03C08093470204C08C
:100F80008150EDCF109247021F910F9108950F935A
:100F90001F93409148025091490260914A0270911A
:100FA0004B028A019B0104C036952795179507953A
:100FB0008A95D2F7D901C80181701F910F910895C8
:100FC000DF92EF92FF920F931F93CF93DF938CE208
:100FD000E3ECF1E0DF011D928A95E9F77F01D0E0B3
:100FE00000E010E0D02EC09147021C16B4F48C2F04
:100FF0000E94C707882379F0E0910201F091030174
:101000004D2D6D2F8C2F0995019629F0F701E00FDA
:10101000F11FC08302C0C150E8CF0F5F1F4F0B30DC
:10102000110501F7DF5F2BE0E20EF11CD430C1F6B1
:10103000DF91CF911F910F91FF90EF90DF90089576
:101040000F931F93009148021091490220914A0288
:1010500030914B02B901A801082E04C0769567951E
:10106000579547950A94D2F740FF28C041E050E0D9
:1010700060E070E0082E04C0440F551F661F771F04
:101080000A94D2F74095509560957095402351236E
:1010900062237323409348025093490260934A02AB
:1010A00070934B0290914702891302C00E94A207DD
:1010B0000E94E0071F910F910C947E021F910F91E7
:1010C0000895CF9390910001891780F5C82F0E9451
:1010D000C70781112BC081E090E0A0E0B0E00C2EAA
:1010E00004C0880F991FAA1FBB1F0A94D2F7409112
:1010F00048025091490260914A0270914B02842B40
:10110000952BA62BB72B8093480290934902A0936E
:101110004A02B0934B02809147028C1710F40E9450
:10112000A2070E94E007CF910C947E02CF91089510
:10113000109248021092490210924A0210924B02F9
:101140000C946108809147028F5F0C946108809134
:1011500047020C942008CF93C82F862F8270CA3282
:1011600048F1CA52C13289F0C232C9F46170882391
:1011700029F0611103C0CF910C94A208662369F194
:1011800081112BC0CF910C94A7086170882311F0B6
:101190006623C1F3662309F181111FC0ECCF8823B8
:1011A00031F08C2F0E94C707811117C012C060FD5B
:1011B0000CC013C0882389F060FD0FC08C2F0E94E3
:1011C000C707882331F0CC2321F08C2FCF910C94CA
:1011D00020088C2FCF910C946108CF9108959434FE
:1011E00029F4622F0E94AB0880E090E00895FF92FE
:1011F0000F931F93CF93DF93EC01F62E0881198193
:10120000C8010E94FB1DF81621F06F2DC8010E9435
:10121000031ECE01DF91CF911F910F91FF90089592
:1012200085E592E00E94650A8091000180934D025D
:1012300080E090E0089580934E0228E5829FC001EF
:1012400011240E948A0A9093500280934F020895BD
:101250006130710559F490914D02980F90930001FF
:1012600026E639E030930301209302017093520285
:10127000609351020C941B090F931F93CF9390918D
:101280004E02891718F080E090E01CC09BE0699F37
:10129000B00111249CE2899F600D711D1124640F1F
:1012A000711D660F771F00914F0210915002060FBB
:1012B000171FC8010E94FB1DC82FC80101960E947C
:1012C000FB1D9C2FCF911F910F91089590914D027E
:1012D000891718F40E946E070895891B0E943C0923
:1012E0000895FF920F931F93CF93DF9300D0CDB754
:1012F000DEB7F62E672F8C01000F111F80914F0271
:1013000090915002800F911F9A838983CE0101969C
:101310000E94F70880914F02909150020196080FA9
:10132000191F1A8309836F2DCE0101960E94F708B9
:101330000F900F90DF91CF911F910F91FF90089523
:101340008F929F92AF92BF92EF92FF920F931F9353
:10135000CF93DF93EB014FED51E08EE592E00E94D9
:101360004D0C811172C047E050E067ED71E0CE0195
:101370000E94E01D892B09F068C027966EEC71E091
:10138000CE010E94D71D892BA9F480915102909122
:101390005202019709F059C04AE050E060914D02B5
:1013A00080E793E00E94311760E280E793E00E94BB
:1013B000BE1613C06AEC71E0CE010E94D71D892BC6
:1013C00009F043C080E793E00E949B140A9731F52F
:1013D000C0E080910001C81718F081E090E05EC085
:1013E000D0E010E0E0910201F0910301412F6D2F58
:1013F0008C2F09954AE050E0BC0180E793E00E9401
:10140000381760E280E793E00E94BE161F5F1B3032
:1014100049F7DF5FD43029F7CF5FDBCFC091000100
:10142000C111C1503CE2C39FE001112400E010E073
:101430008CE2E82EF12C80E793E00E949B140A973F
:1014400061F2C017D10721F4C8CF80E090E026C038
:1014500041E060E070E080E793E00E94AE174B014E
:101460005C018091510290915202019781F4209188
:101470004D02C801B7010E94811D621760F034ED72
:101480003203C0011124B401800F911F02C0B401C6
:10149000C8010E9471090F5F1F4FCDCFDF91CF911F
:1014A0001F910F91FF90EF90BF90AF909F908F9002
:1014B00008954AE050E0682F80E793E00E943117DA
:1014C00060E280E793E00C94BE160F931F93CF93D6
:1014D000DF9308E512E0C0E0D0E0CE010E94FB1DE2
:1014E000F80181938F012196C430D105B1F780E0D6
:1014F00090E0DF91CF911F910F9108958091560256
:10150000882329F080915A0290915B02089580E02F
:1015100090E008950F931F93CF93DF9300D0CDB742
:10152000DEB79A83898380915602811116C000919B
:1015300004011091050189819A81800F911F909378
:1015400005018093040142E0BE016F5F7F4F8CE58F
:1015500092E00E94230CC80102C080E090E00F904E
:101560000F90DF91CF911F910F910895EF92FF920D
:101570000F931F93CF93DF9300D0CDB7DEB7809149
:101580005C0290915D0290935B0280935A0288E521
:10159000E82E82E0F82E00E010E0F70161917F0173
:1015A0001A830983CE0101960E94F7080F5F1F4F2F
:1015B0000430110591F781E0809357020F900F904E
:1015C000DF91CF911F910F91FF90EF900895CF93EE
:1015D000C82F80910001C81728F48C2F0E9498080A
:1015E000C0935802CF3F11F4C09358020E94B60A2C
:1015F00080915802CF91089581E08093560260E176
:101600008CE592E00E940A0C809158028F3F11F005
:101610000E949808809159028F3F11F40C94B60AE9
:1016200020915A0230915B0280915C0290915D02A0
:101630002817390711F01092570208958091560229
:10164000811102C00E94FC0A80E090E00895CF93CF
:10165000DF93EB014EE552E08EE592E00E944D0CE7
:10166000811128C049E050E064E572E0CE010E949B
:10167000E01D892BF9F4299667E472E0CE010E94FF
:10168000D71D892BA9F160E472E0CE010E94D71D1D
:10169000892B09F441C068E372E0CE010E94D71D96
:1016A000892B09F443C064E372E0CE010E94D71D88
:1016B000892B19F080E090E03FC00E947E0AEC0187
:1016C00060915C0270915D024AE050E080E793E037
:1016D0000E94381762E372E080E793E00E949A1656
:1016E0004AE050E0BE0180E793E00E94381722C034
:1016F00080E793E00E949B140A9719F480915802A6
:1017000017C041E060E070E080E793E00E94AE1710
:10171000862F0E94E70A0EC0809157020E94690C32
:1017200060E280E793E00E94BE1604C080915902F7
:101730000E94590A81E090E0DF91CF9108950F93C4
:101740001F93CF93DF9300D0CDB7DEB78B0146E177
:1017500052E08EE592E00E944D0C81110EC066E0D1
:1017600072E0C8010E94D71D892BF1F06AEF71E089
:10177000C8010E94D71D892B19F080E090E043C07A
:10178000809104019091050160E074E0681B790B81
:101790004AE050E080E793E00E94381760E280E77B
:1017A00093E00E94BE162DC080E793E00E949B1438
:1017B00000E010E00A97F9F4C8010E94FB1D0E94A6
:1017C000590A0F5F1F4F011584E01807A9F719C0C8
:1017D00041E060E070E080E793E00E94AE171A837A
:1017E0000983CE0101960E94F7080F5F1F4F011574
:1017F00084E0180731F080E793E00E949B140A9779
:1018000039F781E090E00F900F90DF91CF911F9119
:101810000F910895FC01208131812170332781E0EF
:10182000861770F4408151815695479551834083C6
:10183000220F331F41705527242B352B8F5FF0CF9C
:10184000318320830895DC01FB01415000F1519167
:1018500068E070E081E02D913C911197952F9823DD
:1018600011F4932F02C0932F9095991F9927991FD8
:10187000220F331F992319F095E02927305811962C
:101880003C932E93880F6150710929F7DECF08959C
:1018900010925D0210925C020895CF93DF93CB010A
:1018A000EA0162EB72E00E94D71D892B39F4BE0178
:1018B00080E793E00E94C91681E001C080E0DF91DB
:1018C000CF9108954DEA52E00E944D0C80E090E0E7
:1018D0000895811103C062EA72E002C068EA72E012
:1018E00080E793E00C949A1680E793E00E94B4148A
:1018F000892B59F080E793E00E949B140A9729F006
:1019000080E793E00E94C414F5CF0895EF92FF9210
:101910000F931F93CF9380E793E00E94B414892B19
:10192000D9F10FE512E0C0E0CF5F80E793E00E94BD
:10193000C4147801F801808380E793E00E949B142F
:101940000A9741F00F5F1F4FF7018081803211F03D
:10195000C03251F78C2F90E0FC01E25AFD4F2081FC
:10196000203219F0FC01E15AFD4F10828FE592E020
:101970000E94540267EB72E080E793E00E94C91670
:101980000E94740C80E793E00E949B140A9721F454
:1019900080E793E00E94C41480E090E0CF911F9113
:1019A0000F91FF90EF900895CF93C42F262F2068BA
:1019B0004FEF6FEF0E94DA06C11105C00E94A40E1E
:1019C000CF910C94FA0ECF9108950F931F93CF935C
:1019D000DF93C62F042F122FFC01D49141FF06C0C4
:1019E000422F62E08D2F9C2F0E94D40C00FF06C076
:1019F000412F61E08D2F9C2F0E94D40CDF91CF915D
:101A00001F910F910895EF92FF920F931F93CF9321
:101A1000DF93CB01009709F461C0F12CE12C8C011C
:101A20000F5F1F4FFC01449150E0FA013197EB30FA
:101A3000F10508F053C0EA5AFF4F0C94B71DF12C82
:101A400045C00E94A40E0E94FA0E40C00296F80102
:101A5000E4908C013BC0EC012296F801649170E0A7
:101A600080E090E00E94E21C2DC0F80164918C019E
:101A70000D5F1F4F2F2D42E00FC0F80164918C01C4
:101A80000D5F1F4F2F2D41E007C0F80164918C01BD
:101A90000D5F1F4F20E043E002960E94E50C16C048
:101AA000EC0122962F2D42E009C0EC0122962F2D49
:101AB00041E004C0EC01229620E043E060E0C80170
:101AC0000E94E50C8E0102C0FF24F3946E2D70E09D
:101AD00080E090E00E94E21CC801A1CFDF91CF918D
:101AE0001F910F91FF90EF9008950F93FB0181815B
:101AF0008036C9F4809182028830C0F49081E82F4A
:101B0000F0E0BF01660F771FE60FF71FED57FD4F9F
:101B100090839BE0499F200D1124218302838F5FD6
:101B20008093820203C080E090E002C081E090E0F8
:101B30000F9108951092820280E090E00895CF9373
:101B4000DF93C0E0DBE080918202C81750F52C2FB4
:101B500030E0F901EE0FFF1FDF01A20FB31FAD57F9
:101B6000BD4F11968C918F3F29F480938102809311
:101B7000800207C06D2F0E94751D80938102909393
:101B800080022E0F3F1FF901ED57FD4F62818081CA
:101B90000E948D02BC018FE792E00E94030DCF5F8F
:101BA000D2CF80E090E0DF91CF91089581EE92E076
:101BB0000E94D1118EE992E00C946210CF93C82F4D
:101BC0008EE992E00E94CB0F6C2F811105C08EE947
:101BD00092E0CF910C94FC0F81EE92E0CF910C94A7
:101BE0007111CF93C82F83FF04C081EE90E00E9453
:101BF000DE0DC0FF04C080EE90E00E94DE0DC1FF4C
:101C000004C082EE90E00E94DE0DC2FF04C086EEAA
:101C100090E00E94DE0DC4FF04C083EE90E00E94BD
:101C2000DE0DCF910895CF93DF93D82FC92F907CED
:101C3000662399F080919B02811102C010929D024F
:101C400080919D028C2B80939D02911104C080E2B3
:101C50008D0F883020F0D0939B02911108C080E254
:101C60008D0F883020F48C2F0E94F10D05C08091DB
:101C70009C028C2B80939C028D2F9C2FDF91CF9107
:101C80000C94DE0DCF93C82F8EE992E00E94CB0F0B
:101C90006C2F811105C08EE992E0CF910C94241035
:101CA00081EE92E0CF910C9498118EE992E00E941F
:101CB0005B1010929B0210929C0281EE92E00E94B7
:101CC000C11183EC92E00C94A810CF93DF93D82F2E
:101CD000C92F80919D02892780939D02892F807C46
:101CE00021F480E28D0F883058F080919B028D1393
:101CF00002C010929B0280919C028C2780939C02D0
:101D0000C3FF04C081EE90E00E94420EC0FF04C0F9
:101D100080EE90E00E94420EC1FF04C082EE90E08F
:101D20000E94420EC2FF04C086EE90E00E94420E66
:101D3000C4FF04C083EE90E00E94420E8D2F9C2FC2
:101D4000DF91CF910C94420E90919C0280919D0264
:101D500089230E94F10D8EE992E00E94CB0F6091E1
:101D60009B02811116C0662381F08EE992E00E94E9
:101D700024108EE992E00E94CE0F60919B028EE9C2
:101D800092E00E94FC0F10929B028EE992E00C946C
:101D9000CE0F662381F081EE92E00E94981181EED1
:101DA00092E00E94111160919B0281EE92E00E94EC
:101DB000711110929B0281EE92E00E94111183EC4E
:101DC00092E00C94BB1083EC92E00C94E110BC0107
:101DD000737083EC92E00C94931088E393E00C947E
:101DE0004D12682F88E393E00C944F1288E393E040
:101DF0000C944B1288E293E00C94E411FC01828174
:101E00008F5BFB01808381E00895CF93DF93CDB793
:101E1000DEB769970FB6F894DEBF0FBECDBFFC01E9
:101E2000DB019C919F5F9C93BE016F5F7F4F89E1B7
:101E3000DB011D928A95E9F729E0298384E08A83F2
:101E400091E09D8383E08E839F8398872A8721E298
:101E50002B879C879D879F8722E2288B2FE3298BE6
:101E600027E02B8B25E02C8B8E8B20E430E0388F05
:101E70002F8B998F82818B83838180688D8B49E141
:101E800050E080E00E94EE1969960FB6F894DEBF2C
:101E90000FBECDBFDF91CF910895FC01DB018281A0
:101EA00090E014962D913C91159782179307E1F5D8
:101EB00011968C9111979C91913A61F4813091F136
:101EC000833011F4848D03C0823071F5858D809349
:101ED000F10028C0913241F58B3021F412968C919B
:101EE000848F20C08A3011F4158E1CC08930E1F433
:101EF000CF0116962D913C91179713964C91423035
:101F000039F42130310581F461E070E04E9608C06B
:101F1000413051F42830310539F468E070E00B9617
:101F20000E94151A81E0089580E00895FC01DB010C
:101F30008C918138B9F413968C911397823291F475
:101F4000828190E014962D913C91159728173907BE
:101F500049F48285848F4FE350E06BEB72E080E8B8
:101F60000C94EE1980E090E00895FC0181E08483F8
:101F700085839F01255E3F4F378326831186108618
:101F80002EE231E0318320838287848F858F168E05
:101F900081EC838F0895FC01848D0895EF92FF9268
:101FA0000F931F93CF93DF938C01EC012B967C0151
:101FB00083E1E80EF11C48E050E0BE01C7010E9439
:101FC000EE1D892B81F0F801838148E050E0BE01CD
:101FD00080640E943F1928E0FE01D70101900D9214
:101FE0002A95E1F702C08FEF9FEFDF91CF911F910C
:101FF0000F91FF90EF90089520E2260F283058F4BB
:1020000041E050E001C0440F2A95EAF7FC01238526
:10201000422B438716C0FC013D9620E030E0419101
:10202000641779F0411105C0FC01E20FF31F6587C9
:1020300008C02F5F3F4F2630310589F780E090E0E0
:10204000089581E090E0089520E2260F283068F49A
:10205000622F21E030E001C0220F6A95EAF7209557
:10206000FC0133852323238723C0FC01AC014A5F95
:102070005F4FDC011D962C911D97621303C01D96C6
:102080001C921D9711964A175B07A1F720E0358532
:10209000332351F0DC01A20FB11D1D966C911D97E9
:1020A0001D963C9365872F5F3196E417F50779F706
:1020B00081E090E008950B9628E0FC0111922A95AA
:1020C000E9F70895CF93DF93EC010E947116BE01EA
:1020D0000E942A16CE010E945B10CE01DF91CF91A3
:1020E0000C94CE0F8EE992E00C94B50F8091D30240
:1020F000811113C01092BE021092BD028AEF92E0CD
:102100009093C0028093BF0289E190E09093C20255
:102110008093C10281E08093D3020E9477146DEB1B
:1021200072E00C940414DC0120E030E04D915D91EC
:10213000452B41F4220F331FFC01E20FF31F718383
:10214000608308952F5F3F4F2430310579F708955C
:1021500028E0FC0111922A95E9F70895CF93DF93C7
:10216000EC010E94771428E030E0AE0164E0DF91DA
:10217000CF910C9421140F931F93CF93DF93EC0115
:102180008C01085F1F4F48E050E0BC01C8010E946D
:10219000EE1D892B51F0CE010E94AE1088E0FE01A9
:1021A000D80101900D928A95E1F7DF91CF911F91AF
:1021B0000F91089528E0FC0111922A95E9F70C94FB
:1021C000BB100C94DA1083EC92E00C9476108091A2
:1021D0001B03811113C01092DC021092DB0283E119
:1021E00093E09093DE028093DD0281E490E090938F
:1021F000E0028093DF0281E080931B030E9477144A
:102200006BED72E00C940414CF93DF93EC010E9409
:1022100077142DE130E0AE0168E0DF91CF910C94AE
:102220002114EF92FF920F931F93CF93DF93EC0152
:102230007C018DE1E80EF11C4DE150E0BE01C701CB
:102240000E94EE1D892B09F443C00D8D1881802F4B
:1022500080958123B1F04CE150E0BE016F5F7F4F6C
:10226000CE014E960E94EE1D892B59F01D8F0E94C3
:1022700077142DE130E0A70168E00E9421140D8F52
:1022800019C0812F80958023A9F04CE150E0BE0158
:102290006F5F7F4FCE014E960E94EE1D892B51F04D
:1022A00008830E9477142DE130E0AE0168E00E94BF
:1022B00021141883CE010E9404111816190654F433
:1022C0002DE1FE01D70101900D922A95E1F702C0A0
:1022D0008FEF9FEFDF91CF911F910F91FF90EF90C4
:1022E00008956E3D90F4262F269526952695FC019F
:1022F000E20FF11D677081E090E001C0880F6A95E0
:10230000EAF79181892B81830DC0605E683068F4A3
:1023100021E030E001C0220F6A95EAF7FC0130812C
:10232000232B208381E090E0089580E090E00895E1
:102330006E3D98F4262F269526952695FC01E20FF2
:10234000F11D677081E090E001C0880F6A95EAF79F
:1023500080959181892381830EC0605E683070F41E
:1023600021E030E001C0220F6A95EAF72095FC01D8
:1023700030812323208381E090E0089580E090E085
:1023800008952DE1FC0111922A95E9F70895CF9364
:10239000DF93EC010E94C111CE01DF91CF910C942B
:1023A00004110C94C71181EE92E00C94E710CF93C6
:1023B000DF93EC010E94771425E030E0AE0161E08C
:1023C000DF91CF910C9421140F931F93CF93DF9340
:1023D000EC018C010B5F1F4F45E050E0BC01C801D0
:1023E0000E94EE1D892B49F445E050E063E273E062
:1023F000CE010E94EE1D892B51F0CE010E94D71113
:1024000085E0FE01D80101900D928A95E1F7DF91F8
:10241000CF911F910F91089580913903811113C0BD
:10242000109233031092320384E593E090933503C6
:102430008093340388E190E09093370380933603D0
:1024400081E0809339030E94771462E373E00C9477
:1024500004140F931F93CF93DF93EB018A010E9423
:1024600077149801AE0165E0DF91CF911F910F9134
:102470000C942114CF93DF931F92CDB7DEB719824E
:1024800041E050E0BE016F5F7F4F0E9429120F9024
:10249000DF91CF9108950C943A120C943A12CF9395
:1024A000DF931F92CDB7DEB76983633829F48DECD3
:1024B00093E00E94371C07C041E050E0BE016F5F0F
:1024C0007F4F0E9429120F90DF91CF91089588E3EA
:1024D00093E00C940C12CF93DF93CDB7DEB76997DE
:1024E0000FB6F894DEBF0FBECDBFFC01DB019C919F
:1024F0009F5F9C93BE016F5F7F4F89E1DB011D925F
:102500008A95E9F729E0298384E08A8391E09D8315
:1025100083E08E832A8721E22B879C879D879F8774
:1025200022E2288B25E3298B27E02B8B25E02C8BBF
:102530008E8B20E430E0388F2F8B998F82818B83B4
:10254000838180688D8B49E150E080E00E94EE1924
:1025500069960FB6F894DEBF0FBECDBFDF91CF9165
:102560000895FC01838180640C943F190A970C94B0
:10257000B112FB0120812138B9F423812232A1F468
:10258000DC0112962C91129730E04481558142175C
:10259000530751F421E052962C9345E350E06CE64A
:1025A00073E080E80C94EE1980E090E00895DC017F
:1025B000FB0112968C91129790E02481358182174D
:1025C0009307D1F491818081813A31F481E0913097
:1025D00091F0933089F411C0813271F49B3021F471
:1025E000828152968C9305C09A3031F48281539641
:1025F0008C9381E00895089580E00895CF93DF9350
:10260000EC0181E08C838D839E012F5E3F4F3F83E1
:102610002E83198618861D861C861F861E86188A9C
:102620002AE331E03983288328E431E03B872A8795
:102630008A8B8B8B81EC898B0E947116BE01DF9196
:10264000CF910C942A1681E493E00C94FE12FB01C6
:102650008BE6808382E6818389E682838FE68383AB
:1026600080E3848381E3858386E00895CF93DF93BD
:10267000CDB7DEB769970FB6F894DEBF0FBECDBFFA
:10268000FC01DB018C918F5F8C93BE016F5F7F4FEC
:1026900089E1DB011D928A95E9F729E0298384E02D
:1026A0008A8391E09D8383E08E832A8721E22B87B2
:1026B0009C879D879F8722E2288B27E02B8B25E034
:1026C0002C8B8E8B20E430E0388F2F8B998F82817A
:1026D0008B8395858685998B8A8B838180688D8B8A
:1026E00049E150E080E00E94EE1969960FB6F89437
:1026F000DEBF0FBECDBFDF91CF910895CF93DF93A3
:10270000FC01DB01828190E014962D913C9115979C
:1027100082179307A9F511969C9111978C91813A94
:1027200031F481E0913069F1933051F52AC0813262
:1027300039F59B3021F412968C91878705C09A3029
:1027400029F412968C91808B81E01BC09930C1F4E2
:10275000EF0116968D919C9117978230910539F46F
:1027600062E070E0CF0141960E94151A09C00197FE
:1027700039F461E070E0CF0142960E94151A198A7F
:1027800080E0DF91CF910895EF92FF920F931F9316
:10279000CF93DF93FB012081213851F52381223231
:1027A00039F5DC0112962C9130E0448155814217B5
:1027B0005307F1F4EC010B851C85E12CF12C01157C
:1027C000110591F0F801448155816281738180E89F
:1027D0000E94EE198F3FFFEF9F0769F0E80EF91E88
:1027E000D8010D911C91EBCF81E08F87C70105C007
:1027F00080E090E002C08FEF9FEFDF91CF911F91BB
:102800000F91FF90EF900895FC01A385B485109778
:1028100019F47487638709C08D919C911197009773
:1028200011F0DC01F9CF6D937C9325853685DB01B2
:1028300014968D919C911597820F931F968785878B
:102840000895AF92BF92CF92DF92EF92FF920F93D3
:102850001F93CF93DF931F92CDB7DEB77C016983BF
:102860006A01590141E050E0BE016F5F7F4FFC01FA
:1028700083810E943F198C0197FD0BC0F701838172
:10288000A501B60180640E943F1997FD02C0800F28
:10289000911F0F90DF91CF911F910F91FF90EF90BB
:1028A000DF90CF90BF90AF900895CF93DF93EC016E
:1028B00081E08C838D839E01265F3F4F3F832E8373
:1028C000198618862EE431E0398328831C861B86FE
:1028D0001E861D868F87888B198A1A8A81EC8A87C3
:1028E0000E947116BE01DF91CF910C942A1680913F
:1028F0006803811107C085E593E00E94551481E0CB
:102900008093680385E593E00895CF93DF931F924A
:10291000CDB7DEB76983DC01ED91FC910280F381D4
:10292000E02D41E050E0BE016F5F7F4F09950F90B1
:10293000DF91CF910895CF93DF93EC018C859D8536
:1029400097FF05C082E00E940E199D878C878C85B9
:102950009D85DF91CF91089583E00E94251990E035
:10296000089583E00C94A21BFC018485958597FD56
:1029700006C082E00E94BA1890E00196089582E0B5
:102980000E94BA1890E00895FC018485958597FD12
:1029900005C02FEF3FEF35872487089582E00C9420
:1029A0000E19CF93DF93EC0180911101882331F050
:1029B00083E00E943F191816190634F081E090E078
:1029C0009B838A8380E090E0DF91CF910895EEEFC2
:1029D000FFE72591349181E02B3F3C4D09F080E0E9
:1029E0000895FC0190819E5F908342E450E061EA8B
:1029F00073E080E80C94EE19FC0181819081913A9A
:102A000059F4813209F065C047E050E06AE071E0B6
:102A100080E00E94EE195BC0913209F05AC0833207
:102A200069F482819381A0E0B0E0809306019093E5
:102A30000701A0930801B093090149C0803239F41D
:102A400067E070E08AE091E00E94151A40C082328F
:102A500009F03DC08281809311010E94E714882310
:102A600019F0EEEFFAE002C0E0E0F8E080910A0130
:102A700090910B01A0910C01B0910D01803B94400D
:102A8000A105B10541F58091110180FD24C0EE3F03
:102A90008AE0F80751F080819181873727E7920714
:102AA00021F09093FF0A8093FE0A87E797E79183CE
:102AB0008083809160008093C0039BE088E10FB623
:102AC000F894A895809360000FBE9093600081E019
:102AD000089580E008958081918187379747B9F7FD
:102AE000A895809160008861809360008091C00308
:102AF00080936000EE3F8AE0F80739F08091FE0A8B
:102B00009091FF0A91838083E2CF1092FF0A109286
:102B1000FE0ADDCF2FEF3FEFFC01358724870895B4
:102B2000E0E7F3E01382128288EE93E0A0E0B0E0E9
:102B300084839583A683B7838AE591E0918380831C
:102B40008FEF9FEF958784870895EF92FF920F9301
:102B50001F93CF93DF937B01FC01C281D38100E0FF
:102B600010E0209781F0E881F9810280F381E02D67
:102B7000B701CE01099597FD08C0080F191F0884F9
:102B8000D985C02DEECFC80102C08FEF9FEFDF9136
:102B9000CF911F910F91FF90EF9008950F931F9386
:102BA000CF93DF938B01FC01C281D381209771F019
:102BB000E881F9810480F581E02DB801CE01099505
:102BC000009731F40884D985C02DF0CF80E090E0E3
:102BD000DF91CF911F910F9108950F931F93CF9382
:102BE000DF938B01FC01C281D381209771F0E881D2
:102BF000F9810680F781E02DB801CE010995080F13
:102C0000111D0884D985C02DF0CFF8011082DF9105
:102C1000CF911F910F9108950F931F93CF93DF933F
:102C20008B01FC01C281D381209771F0E881F98189
:102C30000190F081E02DB801CE010995811105C008
:102C40000884D985C02DF0CF80E0DF91CF911F910E
:102C50000F910895CF93DF93FC01DB01218114963E
:102C60008C91149790E0820F911D0897A4F5C28172
:102C7000D381209719F47383628308C0888599856E
:102C8000009711F0EC01FACFB987A88780811296DE
:102C90008C931297818113968C931397908115963C
:102CA0008C911597890F808380E014969C911497DE
:102CB000891798F41696CD91DC911797C80FD11DFE
:102CC0009881C181D0E0CE5EDE4F988391819F5F75
:102CD00091838F5FEACF80E001C081E0DF91CF91E7
:102CE00008958091C50381110DC082E08093C103D6
:102CF00084E08093C2031092C4031092C30381E066
:102D00008093C50381EC93E008956115710579F016
:102D1000FB0101900020E9F73197AF01461B570BEB
:102D2000DC01ED91FC910280F381E02D099480E0BB
:102D300090E00895EF92FF920F931F93CF93DF934C
:102D40008C017B01C0E0D0E0F701EC0FFD1F649126
:102D5000662361F0D801ED91FC910190F081E02DA6
:102D6000C8010995892B11F02196EECFCE01DF9194
:102D7000CF911F910F91FF90EF900895DC01ED919D
:102D8000FC910190F081E02D099468E671E00C94CB
:102D900085160F931F93CF93DF93EC010E949A1631
:102DA0008C01CE010E94C516800F911FDF91CF913B
:102DB0001F910F9108958F929F92AF92BF92EF92C1
:102DC000FF920F931F93CF93DF93CDB7DEB7A197F9
:102DD0000FB6F894DEBF0FBECDBF7C01FA01CB0168
:102DE00019A2223008F42AE08E010F5D1F4F822EB7
:102DF000912CA12CB12CBF01A50194010E94951D1D
:102E0000F901CA01015011096A3014F4605D01C072
:102E1000695CD8016C93232B242B252B61F7B80117
:102E2000C7010E948516A1960FB6F894DEBF0FBEAB
:102E3000CDBFDF91CF911F910F91FF90EF90BF9089
:102E4000AF909F908F9008952115310541F4DC01DA
:102E5000ED91FC910190F081E02D642F09940C9488
:102E6000DB169A01462F50E060E070E00C942417C6
:102E70009A01AB0160E070E00C9424170F931F934C
:102E8000CF93DF93EC010E94B11C688779878A8712
:102E90009B87E881F9810484F585E02DCE010995B1
:102EA00097FF17C00E94B11C088519852A853B85AC
:102EB000DC01CB01801B910BA20BB30B0C811D819C
:102EC0002E813F8180179107A207B30710F38FEF80
:102ED0009FEFDF91CF911F910F910895FF920F9374
:102EE0001F93CF93DF93EC018B01F42ECE010E9450
:102EF0003E1797FD2DC08D32910519F19C0120538D
:102F000031092A30310520F1FF2019F08E32910568
:102F1000D1F001301105D1F00230110551F48D309E
:102F2000910539F024F40997029718F00FC08097A3
:102F300069F4E881F9810284F385E02DCE010995D9
:102F4000D5CF8DE201C08EE290E002C08FEF9FEFFF
:102F5000DF91CF911F910F91FF900895BF92CF9273
:102F6000DF92EF92FF920F931F93CF93DF938C0129
:102F7000C42F40E00E946E17FC0197FD47C0C12C92
:102F8000D12C7601B12C0C2E000CDD0BEC17FD07BB
:102F900009F1ED32F105E1F0CF01C0970A97D0F4C5
:102FA000AAE0B0E0A70196010E94BD1D6F01FF0FCE
:102FB000EE08FF08DC01CB018C0D9D1DAE1DBF1D71
:102FC0006C017D0120E3C21AD108E108F10802C0BA
:102FD000BB24B394D801ED91FC910284F385E02DDC
:102FE000C8010995C8010E943E17FC01C0970A97C5
:102FF00068F2CE17DF0751F2BB2061F06627772712
:10300000CB016C197D098E099F0906C060E070E054
:10301000CB0102C0C701B601DF91CF911F910F9183
:10302000FF90EF90DF90CF90BF9008954091D00334
:103030005091D1032091CE033091CF034217530713
:10304000B4F49091E8009570E1F39091E80092FD5E
:1030500019C08093F1008091D0039091D103019623
:103060008F739927892B19F48EEF8093E800809154
:10307000D0039091D10301969093D1038093D00314
:1030800081E0089580E00895DF92EF92FF920F9320
:103090001F93CF93DF93D82EF92EE42E062F10E046
:1030A000C8010196880F0E94161883E00E94161826
:1030B000CD2DDF2D0C0F1D1FC017D10789F0E7FEA6
:1030C00003C0FE01849101C088810E941618F82E69
:1030D00080E00E9416188F2121968111EDCF01C04A
:1030E00081E0DF91CF911F910F91FF90EF90DF90E2
:1030F00008958091D70081608093D70080EA809303
:10310000D80089B5806189BD89B5826089BD09B45F
:1031100000FEFDCF61E070E080E090E00E94E21CE4
:103120008091D8008F7C80618093D8008091E000EE
:10313000807F8093E0000895CF93DF931F92CDB7F7
:10314000DEB71982CE0101960E94F1140E94711619
:10315000BE016F5F7F4F0E94A51589810F90DF919F
:10316000CF9108952FB7FC012083F8946770609386
:10317000E9000895CF93DF931F92CDB7DEB7682F94
:10318000CE0101960E94B2188091F20099819FBFF2
:103190000F90DF91CF910895EF92FF920F931F93BD
:1031A000CF93DF931F92CDB7DEB79091D4039923CD
:1031B00011F057FF03C08FEF9FEF28C08A017B01FA
:1031C000682FCE0101960E94B2182091F20030E0E3
:1031D000021713070CF49801822FF70194E681502F
:1031E00030F09093D5034091F1004193F8CF211531
:1031F000310521F08091F200882321F089818FBF71
:10320000C90104C08BE68093E800F8CF0F90DF91EE
:10321000CF911F910F91FF90EF900895CF93DF937F
:103220001F92CDB7DEB741E050E0BE016F5F7F4F28
:103230000E94CC18019719F4898190E002C08FEFA9
:103240009FEF0F90DF91CF910895CF93DF931F925F
:10325000CDB7DEB7682FCE0101960E94B2189091CB
:10326000E800892F807295FF04C09091F20080E4FD
:10327000891B99819FBF0F90DF91CF9108955F9235
:103280006F927F928F929F92AF92BF92CF92DF9276
:10329000EF92FF920F931F93CF93DF931F92CDB7BF
:1032A000DEB7982E6B01B42E052F8091D4038111C7
:1032B00003C08FEF9FEF76C08091D20380FF05C0DF
:1032C0008091E00082608093E000EB2CF02EA12C36
:1032D0008AEF882E892D8072682E892D8074582E51
:1032E0009AE3792EE114F10419F4AA2009F455C0E7
:1032F000892D0E942519182F81110AC08A948820CF
:10330000C1F261E070E080E090E00E94E21CEACF50
:1033100090E0E816F9060CF41E2D692DCE010196F9
:103320000E94B2188091E80085FF34C0812F90E0A0
:10333000E81AF90A662029F01150A0F01092F10065
:10334000FBCFF60197FE0AC0115050F02491209354
:10335000F1003196F9CF21912093F1001150D8F767
:10336000C80ED91EAA2019F07092E8000BC08091F7
:10337000E80085FD09C07092E800AA24A394E11436
:10338000F10441F0A12C06C0E114F10419F451102C
:103390007092E80089818FBFA5CF84E68093D60321
:1033A0008B2D902F0F90DF91CF911F910F91FF9058
:1033B000EF90DF90CF90BF90AF909F908F907F90D5
:1033C0006F905F9008951092E9001092D1031092CF
:1033D000D0039093CF038093CE030895DF92EF92B2
:1033E000FF920F931F93CF93DF93D82E8A017B0117
:1033F000E40EF51EEB01CE15DF0571F0D7FE03C01C
:10340000FE01849101C088810E94161821968111C5
:10341000F2CF8FEF9FEF01C0C801DF91CF911F91D5
:103420000F91FF90EF90DF900895CF93DF93EC0121
:103430009B01B4E6ABEF21153105F1F0A901213470
:10344000310514F040E450E08091E80082FFFCCFA9
:10345000942FFB01E21BF30BEC0FFD1F915028F0A2
:103460008091F10080833196F9CFB093D503A0937A
:10347000E800241B350BDFCFCB01DF91CF910895FE
:103480001F920F920FB60F921124CF92DF92EF92FC
:10349000FF920F931F932F933F934F935F936F93DD
:1034A0007F938F939F93AF93BF93EF93FF93CF93AC
:1034B000DF93CDB7DEB76C97DEBFCDBF1092E900CA
:1034C0008091E80083FF1FC189E0FE017596FE2E02
:1034D0000F2F815029F09091F10090833196F9CF10
:1034E00084E68093D50382EF8093E8008D8987FF7F
:1034F00005C09091E80090FFFCCF03C09EEF909331
:10350000E800982F907609F0D7C09E894F89588D92
:103510002F89188D91110CC0803829F48091D30324
:103520008093F10002C01092F1001092F100E4C00B
:10353000913051F48111E0C04130510509F0DCC0F7
:103540008091D3038D7F0BC0933061F48111D4C07F
:103550004130510509F0D0C08091D303826080933F
:10356000D303CAC0953049F48091E80080FFFCCFB6
:10357000822F80688093E300BFC0963009F06FC04F
:10358000CB8CDC8C123069F580E090E00E94E3196E
:103590000E949C1899E09E012F5F3F4F7901F9012D
:1035A000292F11922A95E9F799831A8391E09E8336
:1035B00090EA98879AEF99872091D0033091D103B0
:1035C000275F3F4F3C832B838D83C6010E94E31905
:1035D00049E050E0B70180E00E94EE190E949C187B
:1035E0008BC0C6010E94E3190E9471166F2D702FC7
:1035F0000E94CE15009719F00CF07EC081C01130EA
:1036000009F46FC0133009F07BC08F89882309F457
:103610006BC0823029F440E866E081E094E006C0A7
:10362000813039F440E86BE085EF93E00E94441864
:1036300055C0833009F064C00E9471168E010F5F7F
:103640001F4FB8010E94ED15F80101900020E9F725
:103650003197BF01601B710B40E0C801E7CF973085
:1036600009F44EC0983021F481E08093F10044C009
:10367000993009F041C0837009F042C0E3E1F1E004
:1036800081E031E096E32081211109C08EE780932B
:10369000EA001092EA008F898093D4032DC08093B2
:1036A000E9003093EB0021912093EC009093ED0022
:1036B0008F5F873041F7EACF8B8D9C8D0E94E31995
:1036C000898D811105C08F2D902F0E94FC1406C09A
:1036D0000E9471166F2D702F0E940C16882381F0A6
:1036E0000BC063EE73E002C068E074E0FB0144913C
:1036F00050E080E80E94EE198EEF8093E80003C04E
:1037000081E28093EB006C960FB6F894DEBF0FBE9B
:10371000CDBFDF91CF91FF91EF91BF91AF919F917D
:103720008F917F916F915F914F913F912F911F9159
:103730000F91FF90EF90DF90CF900F900FBE0F9002
:103740001F9018958093E9008091F200882319F06A
:103750008AE38093E80008951F920F920FB60F92AC
:1037600011242F933F934F935F936F937F938F9386
:103770009F93AF93BF93CF93EF93FF93C091E100DB
:103780008091E100837F8093E100C3FF0FC010921E
:10379000E90081E08093EB001092EC0082E38093DB
:1037A000ED001092D40388E08093F000C2FF15C0B2
:1037B00083E00E94A21B8091D603882329F0809188
:1037C000D60381508093D6038091D503882329F0B6
:1037D0008091D50381508093D503C4FF10C08091A0
:1037E000E2008E7E81608093E2008091E1008F7E16
:1037F0008093E1008091D2038E7E806111C0C0FF72
:1038000011C08091E2008E7E80618093E200809101
:10381000E1008E7E8093E1008091D2038E7E8160F4
:103820008093D203FF91EF91CF91BF91AF919F9180
:103830008F917F916F915F914F913F912F910F9059
:103840000FBE0F901F9018951092D4031092D303BF
:103850001092D2030E947918E1EEF0E080818E7E12
:1038600080838DE08093E200559A209A089580919C
:10387000E0008D7F8093E0008091E00081FD08C032
:103880008091D20380FF04C08091D30381FD02C0E8
:1038900080E008950E9479188091E0008260809312
:1038A000E00081E0089508950E941E1D0E94531CAF
:1038B0008DEC93E00E94241C0E949E02C0E0D0E0A8
:1038C0000E94A7022097E1F30E940000F9CF1F9207
:1038D0000F920FB60F9211242F933F938F939F93C4
:1038E000AF93BF938091D8039091D903A091DA034D
:1038F000B091DB033091D70323E0230F2D3720F461
:103900000196A11DB11D05C026E8230F0296A11D39
:10391000B11D2093D7038093D8039093D903A0932C
:10392000DA03B093DB038091DC039091DD03A09177
:10393000DE03B091DF030196A11DB11D8093DC036E
:103940009093DD03A093DE03B093DF03BF91AF91AB
:103950009F918F913F912F910F900FBE0F901F90CD
:1039600018952FB7F8946091D8037091D90380917E
:10397000DA039091DB032FBF08953FB7F89480914D
:10398000DC039091DD03A091DE03B091DF0326B547
:10399000A89B05C02F3F19F00196A11DB11D3FBF87
:1039A000BA2FA92F982F8827820F911DA11DB11D15
:1039B000BC01CD0142E0660F771F881F991F4A9511
:1039C000D1F708958F929F92AF92BF92CF92DF92DC
:1039D000EF92FF926B017C010E94BD1C4B015C01C8
:1039E000C114D104E104F10401F10E94741D0E948C
:1039F000BD1CDC01CB0188199909AA09BB09883EC5
:103A00009340A105B10560F321E0C21AD108E10895
:103A1000F10888EE880E83E0981EA11CB11CC11429
:103A2000D104E104F10419F7DBCFFF90EF90DF90B0
:103A3000CF90BF90AF909F908F900895789484B569
:103A4000826084BD84B5816084BD85B5826085BD9A
:103A500085B5816085BDEEE6F0E080818160808380
:103A6000E1E8F0E010828081826080838081816063
:103A70008083E0E8F0E0808181608083E1E9F0E02C
:103A8000808182608083808181608083E0E9F0E0D2
:103A9000808181608083E1ECF0E0808184608083BC
:103AA000808182608083808181608083E3ECF0E0AC
:103AB000808181608083E0ECF0E08081826080839F
:103AC000E2ECF0E0808181608083EAE7F0E08081D1
:103AD0008460808380818260808380818160808334
:103AE00080818068808308950895991B79E004C0DF
:103AF000991F961708F0961B881F7A95C9F780952D
:103B00000895AA1BBB1B51E107C0AA1FBB1FA61724
:103B1000B70710F0A61BB70B881F991F5A95A9F776
:103B200080959095BC01CD010895A1E21A2EAA1BA3
:103B3000BB1BFD010DC0AA1FBB1FEE1FFF1FA2175D
:103B4000B307E407F50720F0A21BB30BE40BF50B5A
:103B5000661F771F881F991F1A9469F760957095E3
:103B6000809590959B01AC01BD01CF010895EE0FAA
:103B7000FF1F0590F491E02D09940E94C81DA59F98
:103B8000900DB49F900DA49F800D911D1124089558
:103B9000A29FB001B39FC001A39F700D811D11248E
:103BA000911DB29F700D811D1124911D0895FB017F
:103BB000DC018D91059080190110D9F3990B0895BE
:103BC000FB01DC014150504030F08D91059080198F
:103BD00019F40020B9F7881B990B0895FB01DC014B
:103BE00004C08D910190801921F441505040C8F7D4
:103BF000881B990B0895F999FECF92BD81BDF89A63
:103C0000992780B50895262FF999FECF1FBA92BD46
:103C100081BD20BD0FB6F894FA9AF99A0FBE0196AD
:063C20000895F894FFCFA7
:103C260003036E070400FFFFFFFF00E10000000032
:103C3600000000C180810000007E0197663534C611
:103C46009436F6F7963790919392000000004D0F48
:103C5600050F960FFE0E00000000D7126B12B91268
:103C6600FE0EB112F6FF0000B612000000007E1331
:103C76003613C4132713000000008514D114AC14A6
:103C8600B114B414C4149B140D0A006E616E00695D
:083C96006E66006F7666000007
:00000001FF
