:100000000C941E020C9446020C9446020C94460278
:100010000C9446020C9446020C9446020C94460240
:100020000C9446020C9446020C94441B0C94D81970
:100030000C9446020C9446020C9446020C94460220
:100040000C9446020C9446020C9446020C94460210
:100050000C94FE050C9446020C9446020C94FF1B73
:100060000C9446020C9446020C9446020C944602F0
:100070000C9446020C9446020C9446020C944602E0
:100080000C9446020C9446020C9446020C944602D0
:100090000C9446020C9446020C9446020C944602C0
:1000A0000C9446020C9446020C944602BE0CC30CFF
:1000B000CD0CD50CDD0CE80CED0CF20CFC0CB70CE7
:1000C000B90C14001A0008001500170000001C00ED
:1000D00018000C00120013000400160007000900AD
:1000E0000A0000000B000D000E000F0033001D0081
:1000F0001B00060019000500E0001100100036008A
:100100003700380029002B00E300E1002A00E2005C
:100110002C002B442D00340028001E081F0852001C
:100120002F08300800004B00240025002600250879
:100130002008500051004F00210800004E0021000F
:10014000220023002E082F0030002608270824084C
:10015000E00035001E001F0020003100024449006D
:10016000E300E1002A00E2002C00FFFF3700270037
:100170002E0049004A0052004D004B000000520082
:1001800040004100420043004C00500051004F002D
:100190004E00000051003D003E003F0044000000C2
:1001A000E95C000000000060FFFF00003A003B0037
:1001B0003C0045000000EA5CFFFFFFFFFFFFFFFF80
:1001C000FFFF016046004700CD58637573746F6D83
:1001D0000064656661756C74006F6E6C794375734D
:1001E000746F6D006B65796D61702E006B65796D54
:1001F00061702E637573746F6D0A6B65796D6170D4
:100200002E64656661756C740A6B65796D61702E1C
:100210006F6E6C79437573746F6D00656570726F86
:100220006D2E6672656500656570726F6D2E636F09
:100230006E74656E747300656570726F6D2E636F9A
:100240006E74656E74730A656570726F6D2E66727A
:100250006565002F006372630076657273696F6E67
:100260000076616C69643F0064656661756C744C0E
:10027000617965720073657474696E67732E0073BB
:10028000657474696E67732E64656661756C744C11
:10029000617965720A73657474696E67732E76612D
:1002A0006C69643F0A73657474696E67732E766552
:1002B0007273696F6E0A73657474696E67732E6307
:1002C00072630066616C73650074727565006865C1
:1002D0006C700068656C70000D0A2E00050109063F
:1002E000A101050719E029E7150025017501950809
:1002F00081029501750881019505750105081901AF
:10030000290591029501750391019506750815005F
:1003100025FF0507190029FF8100C0050C0901A16F
:10032000018504150026FF0319002AFF03950475B3
:10033000108100C005010906A1018508050719E023
:1003400029E71500250175019508810205081901A5
:100350002908950875019102050775049501810129
:10036000190429DD15002501750195D98102750350
:1003700095018101C005010980A1018505150026AF
:10038000FF00190029FF950175088100C0050109CA
:1003900002A1010509190129081500250195087513
:1003A00001810205010930093116000026FF7F7521
:1003B000109502810209381581257F750895018104
:1003C00006C0080B0002020201000904000001023D
:1003D000020000052400100105240101010424028B
:1003E00006052406000107058103100040090401E9
:1003F00000020A0000000705020240000007058312
:100400000240000012010002EF0201400912E5A1C2
:10041000000101020301546563686E6F6D616E63D4
:100420007900417472657573000403090400E00BE0
:100430000A107B106B11FF11BB12281511241FBE6F
:10044000CFEFDAE0DEBFCDBF11E0A0E0B1E0EEE239
:10045000FBE302C005900D92A837B107D9F723E05E
:10046000A8E7B1E001C01D92AE3DB207E1F712E08E
:10047000CEE1D2E004C02197FE010E943B1DC731AE
:10048000D107C9F70E94EC1B0C94951D0C94000039
:1004900083E592E00E94E0098CE492E00E94B008BB
:1004A00080E090E0089583E592E00E94B50A80E044
:1004B00090E008950F93022F242F462FBC018DE763
:1004C00092E00E940D0D0F910895CF93DF93EC0100
:1004D000BC018CE492E00E943A09019719F481E092
:1004E00090E01AC0BE018CE592E00E94FA0B0197E1
:1004F000B1F3BE0181E592E00E94370B019779F3D9
:10050000BE0182E592E00E94BE0A31E020E0019740
:1005100009F030E0832F922FDF91CF91089580E092
:1005200090E008958CE592E00E941E0C8DE792E029
:100530000C94370D8DE792E00C94320D882331F046
:10054000813051F480E00E94030806C080911901B7
:1005500090911A010E940D0680E090E0089588E7CE
:1005600091E00E94BA0285E00C94C80888E791E007
:100570000C94E802CF93DF9340E855E260E070E02E
:100580008EE693E00E9422150E9448028EE791E0D9
:100590000E9400030E946E0D0E947B0E0E94850E39
:1005A00020E04FEF6FEF80E090E00E943F060E9456
:1005B0004B07C0E0D0E06D2F8C2F0E94EC06DF5F70
:1005C000DB30C9F7CF5FC430A9F7DF91CF91089531
:1005D0000E94491C6093790170937A0180937B019A
:1005E00090937C010E9453028EE791E00E94F005F7
:1005F0000E9492020E943C0E0E94ED0D0C949A0201
:10060000CF93DF930FB6F894A8958091600088612E
:1006100080936000109260000FBEABE1B1E046E253
:1006200051E061E070E08D91E82FF0E024E0F59575
:10063000E7952A95E1F721A18F70EB0102C0CC0F5D
:10064000DD1F8A95E2F7CE019C2F9095922391A30E
:1006500092A1892B82A34A175B0729F7A6E2B1E092
:100660004AE251E061E070E08D91E82FF0E094E023
:10067000F595E7959A95E1F721A18F70EB0102C0FE
:10068000CC0FDD1F8A95E2F7CE01922F982B91A314
:1006900092A1892B82A34A175B0731F780E18093EF
:1006A00081001092800080E295E390938700809310
:1006B000860081E18093810081E080936F00DF916B
:1006C000CF910895FF920F931F93CF93DF9303EB86
:1006D00011E0CBEBD1E0F12C38814981F801808128
:1006E0009181282F2170220F532F5170252B09F053
:1006F000FFC0BC01769567956170660F31FB2227BC
:1007000020F9262B09F0E8C0BC017695679576950F
:1007100067956170660F32FB222720F9262B09F0BE
:10072000CFC0BC0176956795769567957695679568
:100730006170660F33FB222720F9262B09F0B4C025
:10074000BC01729562956F7067277F706727617033
:10075000660F34FB222720F9262B09F099C0BC0133
:1007600076956795729562956F7067277F7067279A
:100770006170660F35FB222720F9262B09F07CC01B
:10078000BC010024660F771F001C660F771F001C3A
:10079000672F702D6170660F36FB222720F9262BFC
:1007A00009F05EC0BC01660F672F661F770B71955D
:1007B0006170660F37FB222720F9262B09F045C010
:1007C000292F2170220F342F3170232B99F541FBF3
:1007D000222720F9392F3270232B09F592FB22278B
:1007E00020F9220F42FB442740F9242B71F489930E
:1007F0009993F3940E5F1F4FF4E0FF126DCFDF91DA
:10080000CF911F910F91FF9008954AE06F2D80E0E6
:1008100090E00E943F06F80180819181E8CF49E095
:100820006F2D80E090E00E943F064981F8018081B1
:100830009181D4CF48E06F2D80E090E00E943F0688
:100840004981F80180819181C2CF47E06F2D80E01E
:1008500090E00E943F064981F80180819181B0CFEC
:1008600046E06F2D80E090E00E943F06388149818C
:10087000F8018081918196CF45E06F2D80E090E076
:100880000E943F0638814981F8018081918178CFAB
:1008900044E06F2D80E090E00E943F06388149815E
:1008A000F801808191815BCF43E06F2D80E090E083
:1008B0000E943F0638814981F8018081918140CFB3
:1008C00042E06F2D80E090E00E943F063881498130
:1008D000F8018081918125CF41E06F2D80E090E08B
:1008E0000E943F0638814981F801808191810CCFB7
:1008F00040E06F2D80E090E00E943F063881498102
:10090000F80180819181F5CE6430D8F44B30C8F481
:10091000E62FF0E0EE0FFF1FE555FE4F81E090E07F
:10092000A0E0B0E004C0880F991FAA1FBB1F4A9522
:10093000D2F78095909520813181822393239183F2
:1009400080830895643088F44B3078F4E62FF0E02B
:10095000EE0FFF1FE555FE4F8081918102C09695F5
:1009600087954A95E2F78170089580E00895EBE15C
:10097000F1E040E050E060E070E000009191A92FCC
:10098000B0E084E0B595A7958A95E1F790962C9113
:1009900030E09F7002C0359527959A95E2F7217057
:1009A000332781E02827042E02C0220F331F0A9428
:1009B000E2F7622B732B4F5F5F4F4B305105E9F627
:1009C000CB0108953F924F925F926F927F928F92E8
:1009D0009F92AF92BF92CF92DF92EF92FF920F93CE
:1009E0001F93CF93DF93CFE7D1E033EBE32E31E0DA
:1009F000F32E46E2A42E41E0B42E67013701312CDC
:100A00008881882309F4B5C08150888302E010E012
:100A100020E090E08981882321F081508983022F92
:100A2000192F8A818111A9C004608B818111ABC00B
:100A300008608C818111ADC000618D818111AFC0D2
:100A400000628E818111B1C000648F818111B3C0B9
:100A5000006888858111B5C0116089858111B7C092
:100A600012608A858111B9C01460F50181915F011E
:100A7000882E912C95948794959487949594879437
:100A800095948794F40192A18F7044244394512C3F
:100A900001C0440C8A95EAF7892F842582A38EE74A
:100AA00091E00E94B704F601219131916F018227F4
:100AB00093270823192302271327F40182A148262C
:100AC00042A2F701219131917F012027312720FF98
:100AD00003C080910101888321FF03C0809101013F
:100AE000898322FF03C0809101018A8323FF03C011
:100AF000809101018B8324FF03C0809101018C83CD
:100B000025FF03C0809101018D8326FF03C08091E2
:100B100001018E8327FF03C0809101018F8330FF85
:100B200003C080910101888731FF03C080910101DA
:100B3000898732FF03C0809101018A87F301019305
:100B400011933F0133942B96F4E03F1259CFDF917C
:100B5000CF911F910F91FF90EF90DF90CF90BF90BA
:100B6000AF909F908F907F906F905F904F903F904D
:100B7000089503E010E021E04CCF81508A838B81FF
:100B8000882309F455CF81508B838C81882309F405
:100B900053CF81508C838D81882309F451CF8150AC
:100BA0008D838E81882309F44FCF81508E838F816E
:100BB000882309F44DCF81508F838885882309F4D9
:100BC0004BCF815088878985882309F449CF81508C
:100BD00089878A85882309F447CF81508A8745CF42
:100BE00080917D01882331F010927D018EE791E0A4
:100BF0000E94E2048EE791E00C9462031F920F9230
:100C00000FB60F9211248F9381E080937D018F9115
:100C10000F900FBE0F901F901895F89481E080936D
:100C2000E00080E28093D800E9ECF0E010828FE1F0
:100C30009EE40197F1F700C000001DBA1092680011
:100C40001CBC10BE1FBA10927A0010926E00109257
:100C50006F0010927100109272001082ECEBF0E0C5
:100C6000108214B817B81AB81DB810BA108215B887
:100C700018B81BB81EB811BA0C94003F0895EF9233
:100C8000FF920F931F93CF93DF9300D0CDB7DEB7C2
:100C90009A838983062FF42E122F6430A8F58AE0F8
:100CA000841790F1822F8270E82E21FF06C020FD6C
:100CB00004C0642F802F0E94EC064F2D602F8EE71A
:100CC00091E00E94A204882351F010FF69C0E11056
:100CD00067C04F2D602F8EE791E00E948404298128
:100CE0003A8180E090E02817390771F48BE0089F83
:100CF000F0011124EF0DF11DEE0FFF1FE151FE4F2A
:100D0000808191819A838983212F4F2D602FCE017D
:100D100001960E945A02892B09F042C0212F4F2DC3
:100D2000602F89819A810E945A089A83898320E0E2
:100D300030E082179307A1F1F9800A8106FF1AC0FB
:100D400007FD2EC003FF07C011FF2AC08F2D902F73
:100D50000E947F0E25C000FF23C011FD21C010FF9F
:100D60001FC08F2D902F0E94890E8F2D902F0E94D3
:100D70008E0E16C0812F817011FF0AC0811102C032
:100D800061E001C060E08F2D902F0E94AB0D08C084
:100D9000882331F017FF04C08F2D902F0E94FD0D86
:100DA0000F900F90DF91CF911F910F91FF90EF90D7
:100DB00008952CE2829FC0011124FC012BE0629F68
:100DC000E00DF11D1124E40FF11DEE0FFF1FEE5396
:100DD000FF4F859194910895CF93DF93462F262F4F
:100DE00030E09BE0899FF0011124EF01C20FD31F77
:100DF000CC0FDD1FC151DE4FED53FE4FDF01A20FBF
:100E0000B31FE0910201F0910301682F8C910995C5
:100E100099838883DF91CF9108950F931F938091D9
:100E200000018150409148025091490260914A026C
:100E300070914B02882389F08A019B01082E04C01F
:100E400036952795179507950A94D2F700FF03C0AA
:100E50008093470204C08150EDCF109247021F914A
:100E60000F9108950F931F934091480250914902AA
:100E700060914A0270914B028A019B0104C0369531
:100E80002795179507958A95D2F7D901C8018170E2
:100E90001F910F910895DF92EF92FF920F931F938E
:100EA000CF93DF938CE2E3ECF1E0DF011D928A95B2
:100EB000E9F77F01D0E000E010E0D02EC0914702BA
:100EC0001C16B4F48C2F0E943207882379F0E0912D
:100ED0000201F09103014D2D6D2F8C2F0995019684
:100EE00029F0F701E00FF11FC08302C0C150E8CF25
:100EF0000F5F1F4F0B30110501F7DF5F2BE0E20E94
:100F0000F11CD430C1F6DF91CF911F910F91FF906A
:100F1000EF90DF9008950F931F9300914802109176
:100F2000490220914A0230914B02B901A801082ED2
:100F300004C076956795579547950A94D2F740FF78
:100F400028C041E050E060E070E0082E04C0440F8B
:100F5000551F661F771F0A94D2F7409550956095EC
:100F6000709540235123622373234093480250938A
:100F7000490260934A0270934B0290914702891391
:100F800002C00E940D070E944B071F910F910C9405
:100F90008F021F910F910895CF93909100018917AF
:100FA00080F5C82F0E94320781112BC081E090E0AC
:100FB000A0E0B0E00C2E04C0880F991FAA1FBB1F31
:100FC0000A94D2F7409148025091490260914A0236
:100FD00070914B02842B952BA62BB72B8093480244
:100FE00090934902A0934A02B0934B02809147022A
:100FF0008C1710F40E940D070E944B07CF910C94A0
:101000008F02CF91089510924802109249021092D7
:101010004A0210924B020C94CC07809147028F5FDA
:101020000C94CC07809147020C948B07CF93C82F68
:10103000862F8270CA3248F1CA52C13289F0C23258
:10104000C9F46170882329F0611103C0CF910C9419
:101050000D08662369F181112BC0CF910C94120801
:101060006170882311F06623C1F3662309F18111B1
:101070001FC0ECCF882331F08C2F0E9432078111E2
:1010800017C012C060FD0CC013C0882389F060FD3A
:101090000FC08C2F0E943207882331F0CC2321F01F
:1010A0008C2FCF910C948B078C2FCF910C94CC0765
:1010B000CF910895943429F4622F0E94160880E09D
:1010C00090E008950F931F93CF9390914E0289174C
:1010D00018F080E090E01CC09BE0699FB0011124F3
:1010E0009CE2899F600D711D1124640F711D660FB4
:1010F000771F00914F0210915002060F171FC80171
:101100000E947F1DC82FC80101960E947F1D9C2F41
:10111000CF911F910F91089590914D02891718F466
:101120000E94D9060895891B0E9462080895FF92C3
:101130000F931F93CF93DF93EC01F62E0881198153
:10114000C8010E947F1DF81621F06F2DC8010E9472
:10115000871DCE01DF91CF911F910F91FF900895D0
:1011600083E592E00E94E0098091000180934D02A6
:1011700080E090E0089580934E0228E5829FC001B0
:1011800011240E94050A9093500280934F02089503
:10119000809300019091560297FF03C022E638E049
:1011A00007C090914D02980F909300012CE838E011
:1011B00030930301209302010C94BB08FF920F931C
:1011C0001F93CF93DF9300D0CDB7DEB7F62E672FF6
:1011D0008C01000F111F80914F0290915002800FDF
:1011E000911F9A838983CE0101960E94970880916E
:1011F0004F02909150020196080F191F1A8309831C
:101200006F2DCE0101960E9497080F900F90DF91ED
:10121000CF911F910F91FF900895EF92FF920F933E
:101220001F93CF93DF93082F7B01C0E0C017D9F045
:10123000D0E010E0412F6D2F8C2FF70109954AE087
:1012400050E0BC018EE693E00E94D01660E28EE68C
:1012500093E00E9456161F5F1B3061F7DF5FD430AA
:1012600041F7CF5FE3CFDF91CF911F910F91FF90B7
:10127000EF900895CF93DF93EB014CEE51E08CE5B6
:1012800092E00E94E50B811187C047E050E064EED8
:1012900071E0CE010E94641D892B09F07DC0279664
:1012A00069ED71E0CE010E945B1D892BB9F58EE6D8
:1012B00093E00E9433140A9789F46091560267FB09
:1012C000662760F94AE050E08EE693E00E94C91676
:1012D00060E28EE693E00E94561661C041E060E055
:1012E00070E08EE693E00E944617C62F862F0E947C
:1012F000820A80914E0280930001CC2319F082E68D
:1013000098E007C090914D02890F809300018CE80E
:1013100098E0909303018093020141C061ED71E078
:10132000CE010E945B1D892B29F469ED76E0809146
:101330004D0214C06AEC71E0CE010E945B1D892B46
:1013400059F58EE693E00E9433140A9719F0C0E035
:10135000D0E01BC062E678E080914E020E940D0949
:101360001EC080914E022CE2829FC0011124C8173A
:10137000D907A8F441E060E070E08EE693E00E94B7
:101380004617CE010E94DE0821968EE693E00E9469
:1013900033140A9721F0E5CF80E090E002C081E0AD
:1013A00090E0DF91CF9108954AE050E0682F8EE6FB
:1013B00093E00E94C91660E28EE693E00C94561604
:1013C0000F931F93CF93DF9306E512E0C0E0D0E0C8
:1013D000CE010E947F1DF80181938F012196C430B8
:1013E000D105B1F780E090E0DF91CF911F910F918F
:1013F000089580915402882329F080915802909199
:101400005902089580E090E008950F931F93CF93C1
:10141000DF9300D0CDB7DEB79A83898380915402E1
:10142000811116C0009104011091050189819A81F2
:10143000800F911F909305018093040142E0BE014B
:101440006F5F7F4F8AE592E00E94BB0BC80102C02C
:1014500080E090E00F900F90DF91CF911F910F915E
:101460000895EF92FF920F931F93CF93DF9300D0D5
:10147000CDB7DEB780915A0290915B0290935902EA
:101480008093580286E5E82E82E0F82E00E010E016
:10149000F70161917F011A830983CE0101960E94B1
:1014A00097080F5F1F4F0430110591F781E080937B
:1014B00055020F900F90DF91CF911F910F91FF90E8
:1014C000EF900895CF93C82F80910001C81758F46A
:1014D0008C2F0E9403088091560280789C2F9F7762
:1014E000892B80935602CE7731F080915602807816
:1014F0008E67809356020E94310A809156028F7740
:10150000CF9108959091560280FB97F990935602DF
:10151000892F8E7721F090789E67909356020C94D5
:10152000310A81E08093540260E18AE592E00E94F2
:10153000A20B90915602892F8F779E7711F40E940B
:101540000308809157028F3F11F40C94310A2091C7
:1015500058023091590280915A0290915B022817EB
:10156000390711F0109255020895809154028111AB
:1015700002C00E94910A80E090E00895CF93DF932B
:10158000EB014FE752E08CE592E00E94E50B811100
:1015900028C049E050E065E772E0CE010E94641D7A
:1015A000892BF9F4299668E672E0CE010E945B1D52
:1015B000892BA9F161E672E0CE010E945B1D892BA7
:1015C00009F442C069E572E0CE010E945B1D892BDF
:1015D00009F444C065E572E0CE010E945B1D892BD1
:1015E00019F080E090E040C00E94F909EC016091A0
:1015F0005A0270915B024AE050E08EE693E00E944E
:10160000D01663E572E08EE693E00E9432164AE05F
:1016100050E0BE018EE693E00E94D01623C08EE615
:1016200093E00E9433140A9721F4809156028F7739
:1016300017C041E060E070E08EE693E00E9446173C
:10164000862F0E94620A0EC0809155020E94010CF2
:1016500060E28EE693E00E94561604C08091570225
:101660000E94D40981E090E0DF91CF9108950F931B
:101670001F93CF93DF9300D0CDB7DEB78B0147E345
:1016800052E08CE592E00E94E50B81110EC067E20A
:1016900072E0C8010E945B1D892BF1F06BE172E0E2
:1016A000C8010E945B1D892B19F080E090E043C0C7
:1016B000809104019091050160E074E0681B790B52
:1016C0004AE050E08EE693E00E94D01660E28EE69B
:1016D00093E00E9456162DC08EE693E00E943314CC
:1016E00000E010E00A97F9F4C8010E947F1D0E94F3
:1016F000D4090F5F1F4F011584E01807A9F719C01F
:1017000041E060E070E08EE693E00E9446171A83A5
:101710000983CE0101960E9497080F5F1F4F0115A4
:1017200084E0180731F08EE693E00E9433140A97A4
:1017300039F781E090E00F900F90DF91CF911F91EA
:101740000F910895FC01208131812170332781E0C0
:10175000861770F440815181569547955183408397
:10176000220F331F41705527242B352B8F5FF0CF6D
:10177000318320830895DC01FB01415000F1519138
:1017800068E070E081E02D913C911197952F9823AE
:1017900011F4932F02C0932F9095991F9927991FA9
:1017A000220F331F992319F095E0292730581196FD
:1017B0003C932E93880F6150710929F7DECF08956D
:1017C00010925B0210925A020895CF93DF93CB01DF
:1017D000EA0163ED72E00E945B1D892B39F4BE01C2
:1017E0008EE693E00E94611681E001C080E0DF9107
:1017F000CF9108954EEC52E00E94E50B80E090E01E
:101800000895811103C063EC72E002C069EC72E0DC
:101810008EE693E00C9432168EE693E00E944C1410
:10182000892B59F08EE693E00E9433140A9729F031
:101830008EE693E00E945C14F5CF0895EF92FF923C
:101840000F931F93CF938EE693E00E944C14892B45
:10185000D9F10DE512E0C0E0CF5F8EE693E00E9483
:101860005C147801F80180838EE693E00E943314C3
:101870000A9741F00F5F1F4FF7018081803211F00E
:10188000C03251F78C2F90E0FC01E45AFD4F2081CB
:10189000203219F0FC01E35AFD4F10828DE592E0F1
:1018A0000E94650268ED72E08EE693E00E94611688
:1018B0000E940C0C8EE693E00E9433140A9721F4E8
:1018C0008EE693E00E945C1480E090E0CF911F913F
:1018D0000F91FF90EF900895CF93C42F262F20688B
:1018E0004FEF6FEF0E943F06C11105C00E943C0EF2
:1018F000CF910C94920ECF9108950F931F93CF9395
:10190000DF93C62F042F122FFC01D49141FF06C094
:10191000422F62E08D2F9C2F0E946C0C00FF06C0AE
:10192000412F61E08D2F9C2F0E946C0CDF91CF9195
:101930001F910F910895EF92FF920F931F93CF93F2
:10194000DF93CB01009709F461C0F12CE12C8C01ED
:101950000F5F1F4FFC01449150E0FA013197EB30CB
:10196000F10508F053C0EA5AFF4F0C943B1DF12CCF
:1019700045C00E943C0E0E94920E40C00296F801A3
:10198000E4908C013BC0EC012296F801649170E078
:1019900080E090E00E947A1C2DC0F80164918C01D7
:1019A0000D5F1F4F2F2D42E00FC0F80164918C0195
:1019B0000D5F1F4F2F2D41E007C0F80164918C018E
:1019C0000D5F1F4F20E043E002960E947D0C16C081
:1019D000EC0122962F2D42E009C0EC0122962F2D1A
:1019E00041E004C0EC01229620E043E060E0C80141
:1019F0000E947D0C8E0102C0FF24F3946E2D70E0D6
:101A000080E090E00E947A1CC801A1CFDF91CF91C5
:101A10001F910F91FF90EF9008950F93FB0181812B
:101A20008036C9F4809180028830C0F49081E82F1C
:101A3000F0E0BF01660F771FE60FF71FEF57FD4F6E
:101A400090839BE0499F200D1124218302838F5FA7
:101A50008093800203C080E090E002C081E090E0CB
:101A60000F9108951092800280E090E00895CF9346
:101A7000DF93C0E0DBE080918002C81750F52C2F87
:101A800030E0F901EE0FFF1FDF01A20FB31FAF57C8
:101A9000BD4F11968C918F3F29F480937F028093E4
:101AA0007E0207C06D2F0E940D1D80937F029093D0
:101AB0007E022E0F3F1FF901EF57FD4F628180819B
:101AC0000E949E02BC018DE792E00E949B0CCF5FBA
:101AD000D2CF80E090E0DF91CF9108958FED92E03A
:101AE0000E9469118CE992E00C94FA0FCF93C82FF1
:101AF0008CE992E00E94630F6C2F811105C08CE984
:101B000092E0CF910C94940F8FED92E0CF910C94D2
:101B10000911CF93C82F83FF04C081EE90E00E948B
:101B2000760DC0FF04C080EE90E00E94760DC1FFEC
:101B300004C082EE90E00E94760DC2FF04C086EEE3
:101B400090E00E94760DC4FF04C083EE90E00E94F6
:101B5000760DCF910895CF93DF93D82FC92F907C26
:101B6000662399F080919902811102C010929B0224
:101B700080919B028C2B80939B02911104C080E288
:101B80008D0F883020F0D0939902911108C080E227
:101B90008D0F883020F48C2F0E94890D05C0809114
:101BA0009A028C2B80939A028D2F9C2FDF91CF91DC
:101BB0000C94760DCF93C82F8CE992E00E94630FAE
:101BC0006C2F811105C08CE992E0CF910C94BC0F71
:101BD0008FED92E0CF910C9430118CE992E00E944D
:101BE000F30F1092990210929A028FED92E00E94E8
:101BF000591181EC92E00C944010CF93DF93D82FD1
:101C0000C92F80919B02892780939B02892F807C1A
:101C100021F480E28D0F883058F0809199028D1365
:101C200002C01092990280919A028C2780939A02A6
:101C3000C3FF04C081EE90E00E94DA0DC0FF04C033
:101C400080EE90E00E94DA0DC1FF04C082EE90E0C9
:101C50000E94DA0DC2FF04C086EE90E00E94DA0D09
:101C6000C4FF04C083EE90E00E94DA0D8D2F9C2FFC
:101C7000DF91CF910C94DA0D90919A0280919B02A2
:101C800089230E94890D8CE992E00E94630F609184
:101C90009902811116C0662381F08CE992E00E94BE
:101CA000BC0F8CE992E00E94660F609199028CE96A
:101CB00092E00E94940F109299028CE992E00C94A9
:101CC000660F662381F08FED92E00E9430118FED58
:101CD00092E00E94A910609199028FED92E00E941B
:101CE0000911109299028FED92E00E94A91081ECE7
:101CF00092E00C94531081EC92E00C947910BC01AA
:101D0000737081EC92E00C942B1086E393E00C94BA
:101D1000E511682F86E393E00C94E71186E393E0E6
:101D20000C94E31186E293E00C947C11FC01828117
:101D30008F5BFB01808381E00895CF93DF93CDB764
:101D4000DEB769970FB6F894DEBF0FBECDBFFC01BA
:101D5000DB019C919F5F9C93BE016F5F7F4F89E188
:101D6000DB011D928A95E9F729E0298384E08A83C3
:101D700091E09D8383E08E839F8398872A8721E269
:101D80002B879C879D879F8722E2288B2FE3298BB7
:101D900027E02B8B25E02C8B8E8B20E430E0388FD6
:101DA0002F8B998F82818B83838180688D8B49E112
:101DB00050E080E00E94861969960FB6F894DEBF65
:101DC0000FBECDBFDF91CF910895FC01DB01828171
:101DD00090E014962D913C91159782179307E1F5A9
:101DE00011968C9111979C91913A61F4813091F107
:101DF000833011F4848D03C0823071F5858D80931A
:101E0000F10028C0913241F58B3021F412968C916B
:101E1000848F20C08A3011F4158E1CC08930E1F403
:101E2000CF0116962D913C91179713964C91423005
:101E300039F42130310581F461E070E04E9608C03C
:101E4000413051F42830310539F468E070E00B96E8
:101E50000E94AD1981E0089580E00895FC01DB0146
:101E60008C918138B9F413968C911397823291F446
:101E7000828190E014962D913C911597281739078F
:101E800049F48285848F4FE350E06CED72E080E886
:101E90000C94861980E090E00895FC0181E0848331
:101EA00085839F01255E3F4F3783268311861086E9
:101EB0002EE231E0318320838287848F858F168ED6
:101EC00081EC838F0895FC01848D0895EF92FF9239
:101ED0000F931F93CF93DF938C01EC012B967C0122
:101EE00083E1E80EF11C48E050E0BE01C7010E940A
:101EF000721D892B81F0F801838148E050E0BE011A
:101F000080640E94D71828E0FE01D70101900D924D
:101F10002A95E1F702C08FEF9FEFDF91CF911F91DC
:101F20000F91FF90EF90089520E2260F283058F48B
:101F300041E050E001C0440F2A95EAF7FC012385F7
:101F4000422B438716C0FC013D9620E030E04191D2
:101F5000641779F0411105C0FC01E20FF31F65879A
:101F600008C02F5F3F4F2630310589F780E090E0B1
:101F7000089581E090E0089520E2260F283068F46B
:101F8000622F21E030E001C0220F6A95EAF7209528
:101F9000FC0133852323238723C0FC01AC014A5F66
:101FA0005F4FDC011D962C911D97621303C01D9697
:101FB0001C921D9711964A175B07A1F720E0358503
:101FC000332351F0DC01A20FB11D1D966C911D97BA
:101FD0001D963C9365872F5F3196E417F50779F7D7
:101FE00081E090E008950B9628E0FC0111922A957B
:101FF000E9F70895CF93DF93EC010E940916BE0123
:102000000E94C215CE010E94F30FCE01DF91CF9145
:102010000C94660F8CE992E00C944D0F8091D102E4
:10202000811113C01092BC021092BB028BE193E0AD
:102030009093BE028093BD0289E190E09093C0022C
:102040008093BF0281E08093D1020E940F146BEB5A
:1020500072E00C949C13DC0120E030E04D915D9126
:10206000452B41F4220F331FFC01E20FF31F718354
:10207000608308952F5F3F4F2430310579F708952D
:1020800028E0FC0111922A95E9F70895CF93DF9398
:10209000EC010E940F1428E030E0AE0164E0DF9113
:1020A000CF910C94B9130F931F93CF93DF93EC014F
:1020B0008C01085F1F4F48E050E0BC01C8010E943E
:1020C000721D892B51F0CE010E94461088E0FE015E
:1020D000D80101900D928A95E1F7DF91CF911F9180
:1020E0000F91089528E0FC0111922A95E9F70C94CC
:1020F00053100C94721081EC92E00C940E108091AD
:102100001903811113C01092DA021092D90284E3EC
:1021100093E09093DC028093DB0281E490E0909363
:10212000DE028093DD0281E0809319030E940F1488
:1021300069ED72E00C949C13CF93DF93EC010E9445
:102140000F142DE130E0AE0168E0DF91CF910C94E7
:10215000B913EF92FF920F931F93CF93DF93EC018C
:102160007C018DE1E80EF11C4DE150E0BE01C7019C
:102170000E94721D892B09F443C00D8D1881802F98
:1021800080958123B1F04CE150E0BE016F5F7F4F3D
:10219000CE014E960E94721D892B59F01D8F0E9410
:1021A0000F142DE130E0A70168E00E94B9130D8FF4
:1021B00019C0812F80958023A9F04CE150E0BE0129
:1021C0006F5F7F4FCE014E960E94721D892B51F09A
:1021D00008830E940F142DE130E0AE0168E00E94F8
:1021E000B9131883CE010E949C101816190654F4D6
:1021F0002DE1FE01D70101900D922A95E1F702C071
:102200008FEF9FEFDF91CF911F910F91FF90EF9094
:1022100008956E3D90F4262F269526952695FC016F
:10222000E20FF11D677081E090E001C0880F6A95B0
:10223000EAF79181892B81830DC0605E683068F474
:1022400021E030E001C0220F6A95EAF7FC013081FD
:10225000232B208381E090E0089580E090E00895B2
:102260006E3D98F4262F269526952695FC01E20FC3
:10227000F11D677081E090E001C0880F6A95EAF770
:1022800080959181892381830EC0605E683070F4EF
:1022900021E030E001C0220F6A95EAF72095FC01A9
:1022A00030812323208381E090E0089580E090E056
:1022B00008952DE1FC0111922A95E9F70895CF9335
:1022C000DF93EC010E945911CE01DF91CF910C9464
:1022D0009C100C945F118FED92E00C947F10CF93C3
:1022E000DF93EC010E940F1425E030E0AE0161E0C5
:1022F000DF91CF910C94B9130F931F93CF93DF937A
:10230000EC018C010B5F1F4F45E050E0BC01C801A0
:102310000E94721D892B49F445E050E061E273E0B0
:10232000CE010E94721D892B51F0CE010E946F11C7
:1023300085E0FE01D80101900D928A95E1F7DF91C9
:10234000CF911F910F91089580913703811113C090
:10235000109231031092300385E793E0909333039A
:102360008093320388E190E09093350380933403A7
:1023700081E0809337030E940F1460E373E00C94B4
:102380009C130F931F93CF93DF93EB018A010E945D
:102390000F149801AE0165E0DF91CF911F910F916D
:1023A0000C94B913CF93DF931F92CDB7DEB7198288
:1023B00041E050E0BE016F5F7F4F0E94C1110F905E
:1023C000DF91CF9108950C94D2110C94D211CF9338
:1023D000DF931F92CDB7DEB76983633829F48BECA6
:1023E00093E00E94CF1B07C041E050E0BE016F5F49
:1023F0007F4F0E94C1110F90DF91CF91089586E326
:1024000093E00C94A411CF93DF93CDB7DEB7699717
:102410000FB6F894DEBF0FBECDBFFC01DB019C916F
:102420009F5F9C93BE016F5F7F4F89E1DB011D922F
:102430008A95E9F729E0298384E08A8391E09D83E6
:1024400083E08E832A8721E22B879C879D879F8745
:1024500022E2288B25E3298B27E02B8B25E02C8B90
:102460008E8B20E430E0388F2F8B998F82818B8385
:10247000838180688D8B49E150E080E00E9486195D
:1024800069960FB6F894DEBF0FBECDBFDF91CF9136
:102490000895FC01838180640C94D7180A970C94EA
:1024A0004912FB0120812138B9F423812232A1F4A1
:1024B000DC0112962C91129730E04481558142172D
:1024C000530751F421E052962C9345E350E06DE818
:1024D00073E080E80C94861980E090E00895DC01B8
:1024E000FB0112968C91129790E02481358182171E
:1024F0009307D1F491818081813A31F481E0913068
:1025000091F0933089F411C0813271F49B3021F441
:10251000828152968C9305C09A3031F48281539611
:102520008C9381E00895089580E00895CF93DF9320
:10253000EC0181E08C838D839E012F5E3F4F3F83B2
:102540002E83198618861D861C861F861E86188A6D
:102550002AE331E03983288328E431E03B872A8766
:102560008A8B8B8B81EC898B0E940916BE01DF91CF
:10257000CF910C94C2158FE393E00C949612FB015B
:102580008BE6808382E6818389E682838FE683837C
:1025900080E3848381E3858386E00895CF93DF938E
:1025A000CDB7DEB769970FB6F894DEBF0FBECDBFCB
:1025B000FC01DB018C918F5F8C93BE016F5F7F4FBD
:1025C00089E1DB011D928A95E9F729E0298384E0FE
:1025D0008A8391E09D8383E08E832A8721E22B8783
:1025E0009C879D879F8722E2288B27E02B8B25E005
:1025F0002C8B8E8B20E430E0388F2F8B998F82814B
:102600008B8395858685998B8A8B838180688D8B5A
:1026100049E150E080E00E94861969960FB6F8946F
:10262000DEBF0FBECDBFDF91CF910895CF93DF9373
:10263000FC01DB01828190E014962D913C9115976D
:1026400082179307A9F511969C9111978C91813A65
:1026500031F481E0913069F1933051F52AC0813233
:1026600039F59B3021F412968C91878705C09A30FA
:1026700029F412968C91808B81E01BC09930C1F4B3
:10268000EF0116968D919C9117978230910539F440
:1026900062E070E0CF0141960E94AD1909C0019738
:1026A00039F461E070E0CF0142960E94AD19198AB9
:1026B00080E0DF91CF910895EF92FF920F931F93E7
:1026C000CF93DF93FB012081213851F52381223202
:1026D00039F5DC0112962C9130E044815581421786
:1026E0005307F1F4EC010B851C85E12CF12C01154D
:1026F000110591F0F801448155816281738180E870
:102700000E9486198F3FFFEF9F0769F0E80EF91EC0
:10271000D8010D911C91EBCF81E08F87C70105C0D7
:1027200080E090E002C08FEF9FEFDF91CF911F918B
:102730000F91FF90EF900895FC01A385B485109749
:1027400019F47487638709C08D919C911197009744
:1027500011F0DC01F9CF6D937C9325853685DB0183
:1027600014968D919C911597820F931F968785875C
:102770000895AF92BF92CF92DF92EF92FF920F93A4
:102780001F93CF93DF931F92CDB7DEB77C01698390
:102790006A01590141E050E0BE016F5F7F4FFC01CB
:1027A00083810E94D7188C0197FD0BC0F7018381AC
:1027B000A501B60180640E94D71897FD02C0800F62
:1027C000911F0F90DF91CF911F910F91FF90EF908C
:1027D000DF90CF90BF90AF900895CF93DF93EC013F
:1027E00081E08C838D839E01265F3F4F3F832E8344
:1027F000198618862EE431E0398328831C861B86CF
:102800001E861D868F87888B198A1A8A81EC8A8793
:102810000E940916BE01DF91CF910C94C2158091E0
:102820006603811107C083E593E00E94ED1381E008
:102830008093660383E593E00895CF93DF931F921F
:10284000CDB7DEB76983DC01ED91FC910280F381A5
:10285000E02D41E050E0BE016F5F7F4F09950F9082
:10286000DF91CF910895CF93DF93EC018C859D8507
:1028700097FF05C082E00E94A6189D878C878C85F3
:102880009D85DF91CF91089583E00E94BD1890E06F
:10289000089583E00C943A1BFC018485958597FD8F
:1028A00006C082E00E94521890E00196089582E0EE
:1028B0000E94521890E00895FC018485958597FD4B
:1028C00005C02FEF3FEF35872487089582E00C94F1
:1028D000A618CF93DF93EC0180911101882331F08A
:1028E00083E00E94D7181816190634F081E090E0B2
:1028F0009B838A8380E090E0DF91CF910895EEEF93
:10290000FFE72591349181E02B3F3C4D09F080E0B9
:102910000895FC0190819E5F908342E450E062EC58
:1029200073E080E80C948619FC0181819081913AD2
:1029300059F4813209F065C047E050E06AE071E087
:1029400080E00E9486195BC0913209F05AC0833240
:1029500069F482819381A0E0B0E0809306019093B6
:102960000701A0930801B093090149C0803239F4EE
:1029700067E070E08AE091E00E94AD1940C08232C9
:1029800009F03DC08281809311010E947F14882349
:1029900019F0EEEFFAE002C0E0E0F8E080910A0101
:1029A00090910B01A0910C01B0910D01803B9440DE
:1029B000A105B10541F58091110180FD24C0EE3FD4
:1029C0008AE0F80751F080819181873727E79207E5
:1029D00021F09093FF0A8093FE0A87E797E791839F
:1029E0008083809160008093BE039BE088E10FB6F6
:1029F000F894A895809360000FBE9093600081E0EA
:102A0000089580E008958081918187379747B9F7CD
:102A1000A895809160008861809360008091BE03DA
:102A200080936000EE3F8AE0F80739F08091FE0A5B
:102A30009091FF0A91838083E2CF1092FF0A109257
:102A4000FE0ADDCF2FEF3FEFFC0135872487089585
:102A5000EEE6F3E01382128288EE93E0A0E0B0E0AD
:102A600084839583A683B7838AE591E091838083ED
:102A70008FEF9FEF958784870895EF92FF920F93D2
:102A80001F93CF93DF937B01FC01C281D38100E0D0
:102A900010E0209781F0E881F9810280F381E02D38
:102AA000B701CE01099597FD08C0080F191F0884CA
:102AB000D985C02DEECFC80102C08FEF9FEFDF9107
:102AC000CF911F910F91FF90EF9008950F931F9357
:102AD000CF93DF938B01FC01C281D381209771F0EA
:102AE000E881F9810480F581E02DB801CE010995D6
:102AF000009731F40884D985C02DF0CF80E090E0B4
:102B0000DF91CF911F910F9108950F931F93CF9352
:102B1000DF938B01FC01C281D381209771F0E881A2
:102B2000F9810680F781E02DB801CE010995080FE3
:102B3000111D0884D985C02DF0CFF8011082DF91D6
:102B4000CF911F910F9108950F931F93CF93DF9310
:102B50008B01FC01C281D381209771F0E881F9815A
:102B60000190F081E02DB801CE010995811105C0D9
:102B70000884D985C02DF0CF80E0DF91CF911F91DF
:102B80000F910895CF93DF93FC01DB01218114960F
:102B90008C91149790E0820F911D0897A4F5C28143
:102BA000D381209719F47383628308C0888599853F
:102BB000009711F0EC01FACFB987A88780811296AF
:102BC0008C931297818113968C931397908115960D
:102BD0008C911597890F808380E014969C911497AF
:102BE000891798F41696CD91DC911797C80FD11DCF
:102BF0009881C181D0E0CE5EDE4F988391819F5F46
:102C000091838F5FEACF80E001C081E0DF91CF91B7
:102C100008958091C30381110DC082E08093BF03AA
:102C200084E08093C0031092C2031092C10381E03C
:102C30008093C3038FEB93E008956115710579F0DC
:102C4000FB0101900020E9F73197AF01461B570BBC
:102C5000DC01ED91FC910280F381E02D099480E08C
:102C600090E00895EF92FF920F931F93CF93DF931D
:102C70008C017B01C0E0D0E0F701EC0FFD1F6491F7
:102C8000662361F0D801ED91FC910190F081E02D77
:102C9000C8010995892B11F02196EECFCE01DF9165
:102CA000CF911F910F91FF90EF900895DC01ED916E
:102CB000FC910190F081E02D099468E671E00C949C
:102CC0001D160F931F93CF93DF93EC010E943216D2
:102CD0008C01CE010E945D16800F911FDF91CF9174
:102CE0001F910F9108958F929F92AF92BF92EF9292
:102CF000FF920F931F93CF93DF93CDB7DEB7A197CA
:102D00000FB6F894DEBF0FBECDBF7C01FA01CB0138
:102D100019A2223008F42AE08E010F5D1F4F822E87
:102D2000912CA12CB12CBF01A50194010E94191D69
:102D3000F901CA01015011096A3014F4605D01C043
:102D4000695CD8016C93232B242B252B61F7B801E8
:102D5000C7010E941D16A1960FB6F894DEBF0FBEE4
:102D6000CDBFDF91CF911F910F91FF90EF90BF905A
:102D7000AF909F908F9008952115310541F4DC01AB
:102D8000ED91FC910190F081E02D642F09940C9459
:102D900073169A01462F50E060E070E00C94BC1668
:102DA0009A01AB0160E070E00C94BC160F931F9386
:102DB000CF93DF93EC010E94491C688779878A874B
:102DC0009B87E881F9810484F585E02DCE01099582
:102DD00097FF17C00E94491C088519852A853B85E5
:102DE000DC01CB01801B910BA20BB30B0C811D816D
:102DF0002E813F8180179107A207B30710F38FEF51
:102E00009FEFDF91CF911F910F910895FF920F9344
:102E10001F93CF93DF93EC018B01F42ECE010E9420
:102E2000D61697FD2DC08D32910519F19C012053C6
:102E300031092A30310520F1FF2019F08E32910539
:102E4000D1F001301105D1F00230110551F48D306F
:102E5000910539F024F40997029718F00FC0809774
:102E600069F4E881F9810284F385E02DCE010995AA
:102E7000D5CF8DE201C08EE290E002C08FEF9FEFD0
:102E8000DF91CF911F910F91FF900895BF92CF9244
:102E9000DF92EF92FF920F931F93CF93DF938C01FA
:102EA000C42F40E00E940617FC0197FD47C0C12CCB
:102EB000D12C7601B12C0C2E000CDD0BEC17FD078C
:102EC00009F1ED32F105E1F0CF01C0970A97D0F496
:102ED000AAE0B0E0A70196010E94411D6F01FF0F1B
:102EE000EE08FF08DC01CB018C0D9D1DAE1DBF1D42
:102EF0006C017D0120E3C21AD108E108F10802C08B
:102F0000BB24B394D801ED91FC910284F385E02DAC
:102F1000C8010995C8010E94D616FC01C0970A97FE
:102F200068F2CE17DF0751F2BB2061F066277727E2
:102F3000CB016C197D098E099F0906C060E070E025
:102F4000CB0102C0C701B601DF91CF911F910F9154
:102F5000FF90EF90DF90CF90BF9008954091CE0307
:102F60005091CF032091CC033091CD0342175307EA
:102F7000B4F49091E8009570E1F39091E80092FD2F
:102F800019C08093F1008091CE039091CF030196F8
:102F90008F739927892B19F48EEF8093E800809125
:102FA000CE039091CF0301969093CF038093CE03ED
:102FB00081E0089580E00895DF92EF92FF920F93F1
:102FC0001F93CF93DF93D82EF92EE42E062F10E017
:102FD000C8010196880F0E94AE1783E00E94AE17C9
:102FE000CD2DDF2D0C0F1D1FC017D10789F0E7FE77
:102FF00003C0FE01849101C088810E94AE17F82EA3
:1030000080E00E94AE178F2121968111EDCF01C083
:1030100081E0DF91CF911F910F91FF90EF90DF90B2
:1030200008958091D70081608093D70080EA8093D3
:10303000D80089B5806189BD89B5826089BD09B430
:1030400000FEFDCF61E070E080E090E00E947A1C1D
:103050008091D8008F7C80618093D8008091E000BF
:10306000807F8093E0000895CF93DF931F92CDB7C8
:10307000DEB71982CE0101960E9489140E940916BA
:10308000BE016F5F7F4F0E943D1589810F90DF91D8
:10309000CF9108952FB7FC012083F8946770609357
:1030A000E9000895CF93DF931F92CDB7DEB7682F65
:1030B000CE0101960E944A188091F20099819FBF2B
:1030C0000F90DF91CF910895EF92FF920F931F938E
:1030D000CF93DF931F92CDB7DEB79091D2039923A0
:1030E00011F057FF03C08FEF9FEF28C08A017B01CB
:1030F000682FCE0101960E944A182091F20030E01C
:10310000021713070CF49801822FF70194E68150FF
:1031100030F09093D3034091F1004193F8CF211503
:10312000310521F08091F200882321F089818FBF41
:10313000C90104C08BE68093E800F8CF0F90DF91BF
:10314000CF911F910F91FF90EF900895CF93DF9350
:103150001F92CDB7DEB741E050E0BE016F5F7F4FF9
:103160000E946418019719F4898190E002C08FEFE2
:103170009FEF0F90DF91CF910895CF93DF931F9230
:10318000CDB7DEB7682FCE0101960E944A18909104
:10319000E800892F807295FF04C09091F20080E4CE
:1031A000891B99819FBF0F90DF91CF9108955F9206
:1031B0006F927F928F929F92AF92BF92CF92DF9247
:1031C000EF92FF920F931F93CF93DF931F92CDB790
:1031D000DEB7982E6B01B42E052F8091D20381119A
:1031E00003C08FEF9FEF76C08091D00380FF05C0B2
:1031F0008091E00082608093E000EB2CF02EA12C07
:103200008AEF882E892D8072682E892D8074582E21
:103210009AE3792EE114F10419F4AA2009F455C0B7
:10322000892D0E94BD18182F81110AC08A94882008
:10323000C1F261E070E080E090E00E947A1CEACF89
:1032400090E0E816F9060CF41E2D692DCE010196CA
:103250000E944A188091E80085FF34C0812F90E0D9
:10326000E81AF90A662029F01150A0F01092F10036
:10327000FBCFF60197FE0AC0115050F02491209325
:10328000F1003196F9CF21912093F1001150D8F738
:10329000C80ED91EAA2019F07092E8000BC08091C8
:1032A000E80085FD09C07092E800AA24A394E11407
:1032B000F10441F0A12C06C0E114F10419F45110FD
:1032C0007092E80089818FBFA5CF84E68093D403F4
:1032D0008B2D902F0F90DF91CF911F910F91FF9029
:1032E000EF90DF90CF90BF90AF909F908F907F90A6
:1032F0006F905F9008951092E9001092CF031092A2
:10330000CE039093CD038093CC030895DF92EF9288
:10331000FF920F931F93CF93DF93D82E8A017B01E7
:10332000E40EF51EEB01CE15DF0571F0D7FE03C0EC
:10333000FE01849101C088810E94AE1721968111FF
:10334000F2CF8FEF9FEF01C0C801DF91CF911F91A6
:103350000F91FF90EF90DF900895CF93DF93EC01F2
:103360009B01B4E6ABEF21153105F1F0A901213441
:10337000310514F040E450E08091E80082FFFCCF7A
:10338000942FFB01E21BF30BEC0FFD1F915028F073
:103390008091F10080833196F9CFB093D303A0934D
:1033A000E800241B350BDFCFCB01DF91CF910895CF
:1033B0001F920F920FB60F921124CF92DF92EF92CD
:1033C000FF920F931F932F933F934F935F936F93AE
:1033D0007F938F939F93AF93BF93EF93FF93CF937D
:1033E000DF93CDB7DEB76C97DEBFCDBF1092E9009B
:1033F0008091E80083FF1FC189E0FE017596FE2ED3
:103400000F2F815029F09091F10090833196F9CFE0
:1034100084E68093D30382EF8093E8008D8987FF51
:1034200005C09091E80090FFFCCF03C09EEF909301
:10343000E800982F907609F0D7C09E894F89588D63
:103440002F89188D91110CC0803829F48091D103F7
:103450008093F10002C01092F1001092F100E4C0DC
:10346000913051F48111E0C04130510509F0DCC0C8
:103470008091D1038D7F0BC0933061F48111D4C052
:103480004130510509F0D0C08091D1038260809312
:10349000D103CAC0953049F48091E80080FFFCCF89
:1034A000822F80688093E300BFC0963009F06FC020
:1034B000CB8CDC8C123069F580E090E00E947B19A7
:1034C0000E94341899E09E012F5F3F4F7901F90166
:1034D000292F11922A95E9F799831A8391E09E8307
:1034E00090EA98879AEF99872091CE033091CF0385
:1034F000275F3F4F3C832B838D83C6010E947B193E
:1035000049E050E0B70180E00E9486190E9434181B
:103510008BC0C6010E947B190E9409166F2D702F67
:103520000E946615009719F00CF07EC081C0113022
:1035300009F46FC0133009F07BC08F89882309F428
:103540006BC0823029F440E866E082E294E006C075
:10355000813039F440E86BE086E194E00E94DC17AA
:1035600055C0833009F064C00E9409168E010F5FB8
:103570001F4FB8010E948515F80101900020E9F75E
:103580003197BF01601B710B40E0C801E7CF973056
:1035900009F44EC0983021F481E08093F10044C0DA
:1035A000993009F041C0837009F042C0E3E1F1E0D5
:1035B00081E031E096E32081211109C08EE78093FC
:1035C000EA001092EA008F898093D2032DC0809385
:1035D000E9003093EB0021912093EC009093ED00F3
:1035E0008F5F873041F7EACF8B8D9C8D0E947B19CE
:1035F000898D811105C08F2D902F0E94941406C0D3
:103600000E9409166F2D702F0E94A415882381F047
:103610000BC064E074E002C069E274E0FB01449115
:1036200050E080E80E9486198EEF8093E80003C086
:1036300081E28093EB006C960FB6F894DEBF0FBE6C
:10364000CDBFDF91CF91FF91EF91BF91AF919F914E
:103650008F917F916F915F914F913F912F911F912A
:103660000F91FF90EF90DF90CF900F900FBE0F90D3
:103670001F9018958093E9008091F200882319F03B
:103680008AE38093E80008951F920F920FB60F927D
:1036900011242F933F934F935F936F937F938F9357
:1036A0009F93AF93BF93CF93EF93FF93C091E100AC
:1036B0008091E100837F8093E100C3FF0FC01092EF
:1036C000E90081E08093EB001092EC0082E38093AC
:1036D000ED001092D20388E08093F000C2FF15C085
:1036E00083E00E943A1B8091D403882329F08091C3
:1036F000D40381508093D4038091D303882329F08D
:103700008091D30381508093D303C4FF10C0809174
:10371000E2008E7E81608093E2008091E1008F7EE6
:103720008093E1008091D0038E7E806111C0C0FF44
:1037300011C08091E2008E7E80618093E2008091D2
:10374000E1008E7E8093E1008091D0038E7E8160C7
:103750008093D003FF91EF91CF91BF91AF919F9153
:103760008F917F916F915F914F913F912F910F902A
:103770000FBE0F901F9018951092D2031092D10394
:103780001092D0030E941118E1EEF0E080818E7E4D
:1037900080838DE08093E200559A209A089580916D
:1037A000E0008D7F8093E0008091E00081FD08C003
:1037B0008091D00380FF04C08091D10381FD02C0BD
:1037C00080E008950E9411188091E000826080934B
:1037D000E00081E0089508950E94B61C0E94EB1B52
:1037E0008BEC93E00E94BC1B0E94AF02C0E0D0E0D3
:1037F0000E94B6022097E1F30E940000F9CF1F92C9
:103800000F920FB60F9211242F933F938F939F9394
:10381000AF93BF938091D6039091D703A091D80323
:10382000B091D9033091D50323E0230F2D3720F435
:103830000196A11DB11D05C026E8230F0296A11D0A
:10384000B11D2093D5038093D6039093D703A09303
:10385000D803B093D9038091DA039091DB03A09150
:10386000DC03B091DD030196A11DB11D8093DA0345
:103870009093DB03A093DC03B093DD03BF91AF9182
:103880009F918F913F912F910F900FBE0F901F909E
:1038900018952FB7F8946091D6037091D703809153
:1038A000D8039091D9032FBF08953FB7F894809122
:1038B000DA039091DB03A091DC03B091DD0326B520
:1038C000A89B05C02F3F19F00196A11DB11D3FBF58
:1038D000BA2FA92F982F8827820F911DA11DB11DE6
:1038E000BC01CD0142E0660F771F881F991F4A95E2
:1038F000D1F708958F929F92AF92BF92CF92DF92AD
:10390000EF92FF926B017C010E94551C4B015C0100
:10391000C114D104E104F10401F10E940C1D0E94C4
:10392000551CDC01CB0188199909AA09BB09883EFD
:103930009340A105B10560F321E0C21AD108E10866
:10394000F10888EE880E83E0981EA11CB11CC114FA
:10395000D104E104F10419F7DBCFFF90EF90DF9081
:10396000CF90BF90AF909F908F900895789484B53A
:10397000826084BD84B5816084BD85B5826085BD6B
:1039800085B5816085BDEEE6F0E080818160808351
:10399000E1E8F0E010828081826080838081816034
:1039A0008083E0E8F0E0808181608083E1E9F0E0FD
:1039B000808182608083808181608083E0E9F0E0A3
:1039C000808181608083E1ECF0E08081846080838D
:1039D000808182608083808181608083E3ECF0E07D
:1039E000808181608083E0ECF0E080818260808370
:1039F000E2ECF0E0808181608083EAE7F0E08081A2
:103A00008460808380818260808380818160808304
:103A100080818068808308950895991B79E004C0AF
:103A2000991F961708F0961B881F7A95C9F78095FD
:103A30000895A1E21A2EAA1BBB1BFD010DC0AA1FEF
:103A4000BB1FEE1FFF1FA217B307E407F50720F007
:103A5000A21BB30BE40BF50B661F771F881F991F82
:103A60001A9469F760957095809590959B01AC01CB
:103A7000BD01CF010895EE0FFF1F0590F491E02DD9
:103A800009940E944C1DA59F900DB49F900DA49F7A
:103A9000800D911D11240895A29FB001B39FC00114
:103AA000A39F700D811D1124911DB29F700D811D6A
:103AB0001124911D0895FB01DC018D910590801961
:103AC0000110D9F3990B0895FB01DC0141505040DE
:103AD00030F08D910590801919F40020B9F7881BFA
:103AE000990B0895FB01DC0104C08D9101908019B0
:103AF00021F441505040C8F7881B990B0895F9995B
:103B0000FECF92BD81BDF89A992780B50895262FE2
:103B1000F999FECF1FBA92BD81BD20BD0FB6F894B2
:0E3B2000FA9AF99A0FBE01960895F894FFCF15
:103B2E000303D9060400FFFFFFFF00E100000000C1
:103B3E00000000C180810000007E0197663534C60A
:103B4E009436F6F796379091939200000000E50EAA
:103B5E009D0E2E0F960E000000006F1203125112D2
:103B6E00960E4912F6FF00004E12000000001613CA
:103B7E00CE125C13BF12000000001D146914441411
:103B8E0049144C145C1433140D0A006E616E0069F6
:083B9E006E66006F7666000000
:00000001FF
