:100000000C943C020C9464020C9464020C94640200
:100010000C9464020C9464020C9464020C946402C8
:100020000C9464020C9464020C9478270C940C26B3
:100030000C9464020C9464020C9464020C946402A8
:100040000C9464020C9464020C9464020C94640298
:100050000C94BE060C9464020C9464020C94332835
:100060000C9464020C9464020C9464020C94640278
:100070000C9464020C9464020C9464020C94640268
:100080000C9464020C9464020C9464020C94640258
:100090000C9464020C9464020C9464020C94640248
:1000A0000C9464020C9464020C946402970D9C0DF1
:1000B000A60DAE0DB60DC10DC60DCB0DD50D900D17
:1000C000920D14001A0008001500170000001C0013
:1000D00018000C00120013000400160007000900AD
:1000E0000A0000000B000D000E000F0033001D0081
:1000F0001B00060019000500E0001100100036008A
:100100003700380029002B00E300E1002A00E2005C
:100110002C002B442D00340028001E081F0852001C
:100120002F08300800004B00240025002600250879
:100130002008500051004F00210800004E0021000F
:10014000220023002E082F0030002608270824084C
:10015000E00035001E001F0020003100024449006D
:10016000E300E1002A00E2002C00FFFF3700270037
:100170002E0049004A0052004D004B000000520082
:1001800040004100420043004C00500051004F002D
:100190004E00000051003D003E003F0044000000C2
:1001A000E95C000000000060FFFF00003A003B0037
:1001B0003C0045000000EA5CFFFFFFFFFFFFFFFF80
:1001C000FFFF016046004700CD58637573746F6D83
:1001D0000064656661756C74006F6E6C794375734D
:1001E000746F6D006B65796D61702E006B65796D54
:1001F00061702E637573746F6D0A6B65796D6170D4
:100200002E64656661756C740A6B65796D61702E1C
:100210006F6E6C79437573746F6D00656570726F86
:100220006D2E6672656500656570726F6D2E636F09
:100230006E74656E747300656570726F6D2E636F9A
:100240006E74656E74730A656570726F6D2E66727A
:100250006565002F006372630076657273696F6E67
:100260000076616C69643F0064656661756C744C0E
:10027000617965720073657474696E67732E0073BB
:10028000657474696E67732E64656661756C744C11
:10029000617965720A73657474696E67732E76612D
:1002A0006C69643F0A73657474696E67732E766552
:1002B0007273696F6E0A73657474696E67732E6307
:1002C00072630066616C73650074727565006865C1
:1002D0006C700068656C70000D0A2E00050109063F
:1002E000A101050719E029E7150025017501950809
:1002F00081029501750881019505750105081901AF
:10030000290591029501750391019506750815005F
:1003100025FF0507190029FF8100C0050C0901A16F
:10032000018504150026FF0319002AFF03950475B3
:10033000108100C005010906A1018508050719E023
:1003400029E71500250175019508810205081901A5
:100350002908950875019102050775049501810129
:10036000190429DD15002501750195D98102750350
:1003700095018101C005010902A101850105091945
:10038000012908150025019508750181020501095B
:1003900030093109381581257F75089503810605D7
:1003A0000C0A38021581257F750895018106C00564
:1003B000010980A1018505150026FF00190029FF0C
:1003C000950175088100C005010902A101050919FF
:1003D000012908150025019508750181020501090B
:1003E00030093116000026FF7F7510950281020941
:1003F000381581257F750895018106C0080B00021C
:1004000002020100090400000102020000052400AC
:10041000100105240101010424020605240600013F
:100420000705810310004009040100020A000000D2
:100430000705020240000007058302400000120188
:100440000002EF0201400912E5A1000101020301CF
:10045000546563686E6F6D616E6379004174726597
:100460007573000403090400B90CBF18F61B671C60
:10047000571D331EEF1E5C2111241FBECFEFDAE0A3
:10048000DEBFCDBF11E0A0E0B1E0E6EEF3E502C0D3
:1004900005900D92A039B107D9F724E0A0E9B1E0A9
:1004A00001C01D92AF38B207E1F712E0CCE3D2E011
:1004B00004C02197FE010E949729C433D107C9F7D0
:1004C0000E9420280C94F1290C9400008BE692E005
:1004D0000E94C80A84E692E00E94700981EB92E0D3
:1004E0000E94EC0F8AEE92E00C9438178BE692E0B3
:1004F0000E948E0B80E090E00895CF93DF93EC0193
:10050000BC0184E692E00E94FA09019719F481E0A7
:1005100090E01AC0BE0184E792E00E94D30C0197DC
:10052000B1F3BE0189E692E00E94100C019779F3C5
:10053000BE018AE692E00E94970B31E020E001972D
:1005400009F030E0832F922FDF91CF91089580E062
:1005500090E0089584E792E00E94F70C8BEC92E023
:100560000E94561381EB92E00E949A0E85E992E078
:100570000E94100E8AEE92E00C94F1168BEC92E041
:100580000E94781381EB92E00E94910E85E992E03F
:100590000E940B0E80E090E00895882331F08130B6
:1005A00051F480E00E94C30806C08091320190910E
:1005B00033010E94CD0680E090E0089580E991E04B
:1005C0000E945E0385E00E9488090C949D1780E9D3
:1005D00091E00C948C03AF92BF92CF92DF92EF9296
:1005E000FF920F93CF93DF93EC017B016A015901D6
:1005F000F9010081FA012081FB014081BC018BECF3
:1006000092E00E94BC11019719F481E090E032C0A1
:10061000F5010081F6012081F7014081BE0180E3F0
:1006200093E00E94A117019781F3F5010081F60183
:100630002081F7014081BE0181EB92E00E942B0FE7
:10064000019719F3F5010081F6012081F70140813E
:10065000BE0185E992E00E94E60D0197B1F2F50135
:100660000081F6012081F7014081BE018AEE92E00F
:100670000E944016DF91CF910F91FF90EF90DF9095
:10068000CF90BF90AF900895CF93DF9300D01F928B
:10069000CDB7DEB769834A832B839E012D5F3F4F21
:1006A000AE014E5F5F4FBE016F5F7F4F0E94EB0256
:1006B0000F900F900F90DF91CF910895CF93DF931C
:1006C00040E855E260E070E08FE194E00E9456213E
:1006D0000E94660286E991E00E94A4030E94F0183D
:1006E0000E94FD190E94071A20E04FEF6FEF80E093
:1006F00090E00E94FF060E940B08C0E0D0E06D2F42
:100700008C2F0E94AC07DF5FDB30C9F7CF5FC430AE
:10071000A9F7DF91CF9108950E947D286093910100
:100720007093920180939301909394010E947602BA
:1007300086E991E00E94B0060E94AA020E94BE19BA
:100740000E946F190C94BE02CF93DF930FB6F894FA
:10075000A89580916000886180936000109260008D
:100760000FBEA4E3B1E04FE351E061E070E08D9192
:10077000E82FF0E024E0F595E7952A95E1F721A12F
:100780008F70EB0102C0CC0FDD1F8A95E2F7CE011E
:100790009C2F9095922391A392A1892B82A34A1713
:1007A0005B0729F7AFE3B1E043E451E061E070E0BB
:1007B0008D91E82FF0E094E0F595E7959A95E1F7B3
:1007C00021A18F70EB0102C0CC0FDD1F8A95E2F7EB
:1007D000CE01922F982B91A392A1892B82A34A1725
:1007E0005B0731F780E1809381001092800080E206
:1007F00095E3909387008093860081E18093810048
:1008000081E080936F00DF91CF910895FF920F9365
:100810001F93CF93DF930BEC11E0C3EDD1E0F12CEC
:1008200038814981F80180819181282F2170220F20
:10083000532F5170252B09F0FFC0BC0176956795A9
:100840006170660F31FB222720F9262B09F0E8C0E2
:10085000BC0176956795769567956170660F32FB5A
:10086000222720F9262B09F0CFC0BC017695679589
:1008700076956795769567956170660F33FB2227AD
:1008800020F9262B09F0B4C0BC01729562956F70F7
:1008900067277F7067276170660F34FB222720F976
:1008A000262B09F099C0BC017695679572956295E3
:1008B0006F7067277F7067276170660F35FB22278F
:1008C00020F9262B09F07CC0BC010024660F771F9D
:1008D000001C660F771F001C672F702D6170660F5C
:1008E00036FB222720F9262B09F05EC0BC01660FDB
:1008F000672F661F770B71956170660F37FB222794
:1009000020F9262B09F045C0292F2170220F342F02
:100910003170232B99F541FB222720F9392F3270B2
:10092000232B09F592FB222720F9220F42FB4427B3
:1009300040F9242B71F489939993F3940E5F1F4F20
:10094000F4E0FF126DCFDF91CF911F910F91FF90D7
:1009500008954AE06F2D80E090E00E94FF06F801C4
:1009600080819181E8CF49E06F2D80E090E00E9486
:10097000FF064981F80180819181D4CF48E06F2D35
:1009800080E090E00E94FF064981F801808191811A
:10099000C2CF47E06F2D80E090E00E94FF064981C2
:1009A000F80180819181B0CF46E06F2D80E090E02A
:1009B0000E94FF0638814981F8018081918196CF9C
:1009C00045E06F2D80E090E00E94FF06388149816C
:1009D000F8018081918178CF44E06F2D80E090E034
:1009E0000E94FF0638814981F801808191815BCFA7
:1009F00043E06F2D80E090E00E94FF06388149813E
:100A0000F8018081918140CF42E06F2D80E090E03D
:100A10000E94FF0638814981F8018081918125CFAC
:100A200041E06F2D80E090E00E94FF06388149810F
:100A3000F801808191810CCF40E06F2D80E090E043
:100A40000E94FF0638814981F80180819181F5CEAD
:100A50006430C8F44B30B8F4E62FF0E0EE0FFF1F1F
:100A6000ED53FE4F81E090E0A0E0B0E004C0880FBD
:100A7000991FAA1FBB1F4A95D2F720813181822B73
:100A8000932B9183808308956430D8F44B30C8F45D
:100A9000E62FF0E0EE0FFF1FED53FE4F81E090E0F8
:100AA000A0E0B0E004C0880F991FAA1FBB1F4A95A1
:100AB000D2F7809590952081318182239323918371
:100AC00080830895643088F44B3078F4E62FF0E0AA
:100AD000EE0FFF1FED53FE4F8081918102C096956E
:100AE00087954A95E2F78170089580E00895E4E3E0
:100AF000F1E040E050E060E070E000009191A92F4B
:100B0000B0E084E0B595A7958A95E1F790962C9191
:100B100030E09F7002C0359527959A95E2F72170D5
:100B2000332781E02827042E02C0220F331F0A94A6
:100B3000E2F7622B732B4F5F5F4F4B305105E9F6A5
:100B4000CB0108953F924F925F926F927F928F9266
:100B50009F92AF92BF92CF92DF92EF92FF920F934C
:100B60001F93CF93DF93C7E9D1E03BECE32E31E055
:100B7000F32E4FE3A42E41E0B42E67013701312C50
:100B80008881882309F4B5C08150888302E010E091
:100B900020E090E08981882321F081508983022F11
:100BA000192F8A818111A9C004608B818111ABC08A
:100BB00008608C818111ADC000618D818111AFC051
:100BC00000628E818111B1C000648F818111B3C038
:100BD000006888858111B5C0116089858111B7C011
:100BE00012608A858111B9C01460F50181915F019D
:100BF000882E912C959487949594879495948794B6
:100C000095948794F40192A18F7044244394512CBD
:100C100001C0440C8A95EAF7892F842582A386E9CE
:100C200091E00E947705F601219131916F018227B1
:100C300093270823192302271327F40182A14826AA
:100C400042A2F701219131917F012027312720FF16
:100C500003C080910101888321FF03C080910101BD
:100C6000898322FF03C0809101018A8323FF03C08F
:100C7000809101018B8324FF03C0809101018C834B
:100C800025FF03C0809101018D8326FF03C0809161
:100C900001018E8327FF03C0809101018F8330FF04
:100CA00003C080910101888731FF03C08091010159
:100CB000898732FF03C0809101018A87F301019384
:100CC00011933F0133942B96F4E03F1259CFDF91FB
:100CD000CF911F910F91FF90EF90DF90CF90BF9039
:100CE000AF909F908F907F906F905F904F903F90CC
:100CF000089503E010E021E04CCF81508A838B817E
:100D0000882309F455CF81508B838C81882309F483
:100D100053CF81508C838D81882309F451CF81502A
:100D20008D838E81882309F44FCF81508E838F81EC
:100D3000882309F44DCF81508F838885882309F457
:100D40004BCF815088878985882309F449CF81500A
:100D500089878A85882309F447CF81508A8745CFC0
:100D600080919501882331F01092950186E991E0F8
:100D70000E94A20586E991E00C9406041F920F924E
:100D80000FB60F9211248F9381E0809395018F917C
:100D90000F900FBE0F901F901895F89481E08093EC
:100DA000E00080E28093D800E9ECF0E010828FE16F
:100DB0009EE40197F1F700C000001DBA1092680090
:100DC0001CBC10BE1FBA10927A0010926E001092D6
:100DD0006F0010927100109272001082ECEBF0E044
:100DE000108214B817B81AB81DB810BA108215B806
:100DF00018B81BB81EB811BA0C94003F0895EF92B2
:100E0000FF920F931F93CF93DF9300D0CDB7DEB740
:100E10009A838983062FF42E122F6430A8F58AE076
:100E2000841790F1822F8270E82E21FF06C020FDEA
:100E300004C0642F802F0E94AC074F2D602F86E9DD
:100E400091E00E946205882351F010FF69C0E11013
:100E500067C04F2D602F86E991E00E9444052981EB
:100E60003A8180E090E02817390771F48BE0089F01
:100E7000F0011124EF0DF11DEE0FFF1FE95FFD4F93
:100E8000808191819A838983212F4F2D602FCE01FC
:100E900001960E944403892B09F042C0212F4F2D57
:100EA000602F89819A810E941A099A83898320E0A0
:100EB00030E082179307A1F1F9800A8106FF1AC07A
:100EC00007FD2EC003FF07C011FF2AC08F2D902FF2
:100ED0000E94011A25C000FF23C011FD21C010FF90
:100EE0001FC08F2D902F0E940B1A8F2D902F0E94C4
:100EF000101A16C0812F817011FF0AC0811102C023
:100F000061E001C060E08F2D902F0E942D1908C074
:100F1000882331F017FF04C08F2D902F0E947F1976
:100F20000F900F90DF91CF911F910F91FF90EF9055
:100F300008952CE2829FC0011124FC012BE0629FE6
:100F4000E00DF11D1124E40FF11DEE0FFF1FEE5314
:100F5000FF4F859194910895CF93DF93462F262FCD
:100F600030E09BE0899FF0011124EF01C20FD31FF5
:100F7000CC0FDD1FC95FDD4FE552FE4FDF01A20F31
:100F8000B31FE0910201F0910301682F8C91099544
:100F900099838883DF91CF9108950F931F93809158
:100FA00000018150409160025091610260916202A3
:100FB00070916302882389F08A019B01082E04C086
:100FC00036952795179507950A94D2F700FF03C029
:100FD00080935F0204C08150EDCF10925F021F9199
:100FE0000F9108950F931F934091600250916102F9
:100FF00060916202709163028A019B0104C0369580
:101000002795179507958A95D2F7D901C801817060
:101010001F910F910895DF92EF92FF920F931F930C
:10102000CF93DF938CE2EBEDF1E0DF011D928A9527
:10103000E9F77F01D0E000E010E0D02EC0915F0220
:101040001C16B4F48C2F0E94F207882379F0E091EB
:101050000201F09103014D2D6D2F8C2F0995019602
:1010600029F0F701E00FF11FC08302C0C150E8CFA3
:101070000F5F1F4F0B30110501F7DF5F2BE0E20E12
:10108000F11CD430C1F6DF91CF911F910F91FF90E9
:10109000EF90DF9008950F931F93009160021091DD
:1010A00061022091620230916302B901A801082E09
:1010B00004C076956795579547950A94D2F740FFF7
:1010C00028C041E050E060E070E0082E04C0440F0A
:1010D000551F661F771F0A94D2F74095509560956B
:1010E00070954023512362237323409360025093F1
:1010F0006102609362027093630290915F028913B0
:1011000002C00E94CD070E940B081F910F910C9402
:10111000A7021F910F910895CF9390910001891715
:1011200080F5C82F0E94F20781112BC081E090E06A
:10113000A0E0B0E00C2E04C0880F991FAA1FBB1FAF
:101140000A94D2F74091600250916102609162026C
:1011500070916302842B952BA62BB72B8093600292
:1011600090936102A0936202B093630280915F0248
:101170008C1710F40E94CD070E940B08CF910C949D
:10118000A702CF910895109260021092610210920E
:101190006202109263020C948C0880915F028F5F50
:1011A0000C948C0880915F020C944B08CF93C82F4D
:1011B000862F8270CA3248F1CA52C13289F0C232D7
:1011C000C9F46170882329F0611103C0CF910C9498
:1011D000CD08662369F181112BC0CF910C94D20800
:1011E0006170882311F06623C1F3662309F1811130
:1011F0001FC0ECCF882331F08C2F0E94F2078111A1
:1012000017C012C060FD0CC013C0882389F060FDB8
:101210000FC08C2F0E94F207882331F0CC2321F0DD
:101220008C2FCF910C944B088C2FCF910C948C0861
:10123000CF910895943429F4622F0E94D60880E05B
:1012400090E008950F931F93CF93909166028917B2
:1012500018F080E090E01CC09BE0699FB001112471
:101260009CE2899F600D711D1124640F711D660F32
:10127000771F0091670210916802060F171FC801BF
:101280000E94DB29C82FC80101960E94DB299C2FF0
:10129000CF911F910F91089590916502891718F4CD
:1012A0000E9499070895891B0E9422090895FF92C0
:1012B0000F931F93CF93DF93EC01F62E08811981D2
:1012C000C8010E94DB29F81621F06F2DC8010E9489
:1012D000E329CE01DF91CF911F910F91FF900895E7
:1012E0008BE692E00E94C80A80910001809365021B
:1012F00080E090E008958093660228E5829FC00117
:1013000011240E94FF0A9093680280936702089557
:101310008093000190916E0297FF03C022E239E0B2
:1013200007C090916502980F909300012CE439E07A
:1013300030930301209302010C947B09FF920F93D9
:101340001F93CF93DF9300D0CDB7DEB7F62E672F74
:101350008C01000F111F8091670290916802800F2D
:10136000911F9A838983CE0101960E94570980912B
:101370006702909168020196080F191F1A8309836A
:101380006F2DCE0101960E9457090F900F90DF91AB
:10139000CF911F910F91FF900895EF92FF920F93BD
:1013A0001F93CF93DF93082F7B01C0E0C017D9F0C4
:1013B000D0E010E0412F6D2F8C2FF70109954AE006
:1013C00050E0BC018FE194E00E94042360E28FE1D1
:1013D00094E00E948A221F5F1B3061F7DF5FD430E8
:1013E00041F7CF5FE3CFDF91CF911F910F91FF9036
:1013F000EF900895CF93DF93EB014CEE51E084E73B
:1014000092E00E94BE0C811187C047E050E064EE7C
:1014100071E0CE010E94C029892B09F07DC027967A
:1014200069ED71E0CE010E94B729892BB9F58FE1F2
:1014300094E00E9467200A9789F460916E0267FB2E
:10144000662760F94AE050E08FE194E00E94FD22B7
:1014500060E28FE194E00E948A2261C041E060E096
:1014600070E08FE194E00E947A23C62F862F0E94BD
:10147000510B8091660280930001CC2319F082E227
:1014800099E007C090916502890F809300018CE478
:1014900099E0909303018093020141C061ED71E0F6
:1014A000CE010E94B729892B29F469E977E0809160
:1014B000650214C06AEC71E0CE010E94B729892B45
:1014C00059F58FE194E00E9467200A9719F0C0E077
:1014D000D0E01BC062E279E0809166020E94CD09F3
:1014E0001EC0809166022CE2829FC0011124C817A1
:1014F000D907A8F441E060E070E08FE194E00E9439
:101500007A23CE010E949E0921968FE194E00E94E9
:1015100067200A9721F0E5CF80E090E002C081E0EB
:1015200090E0DF91CF9108954AE050E0682F8FE17D
:1015300094E00E94FD2260E28FE194E00C948A2204
:10154000EF92FF920F931F93CF93DF9300D0CDB70D
:10155000DEB78EE6E82E82E0F82E00E010E0F7011C
:1015600061917F011A830983CE0101960E94570978
:101570000F5F1F4F0430110591F78EE692E00F9038
:101580000F90DF91CF911F910F91FF90EF900895F1
:101590000F931F93CF93DF930EE612E0C0E0D0E0ED
:1015A000CE010E94DB29F80181938F012196C4307E
:1015B000D105B1F780916F028F3F71F480916E0277
:1015C000982F9F779F3719F487FD10926E0281E064
:1015D00080936F020E94A00A80E090E0DF91CF919B
:1015E0001F910F91089580916C02882329F08091BA
:1015F000700290917102089580E090E008950F9339
:101600001F93CF93DF9300D0CDB7DEB79A83898342
:1016100080916C02811116C00091040110910501A6
:1016200089819A81800F911F909305018093040115
:1016300042E0BE016F5F7F4F82E792E00E94940C10
:10164000C80102C080E090E00F900F90DF91CF9131
:101650001F910F9108950E94A00A81E080936D026E
:101660000895CF93C82F80910001C81758F48C2F8C
:101670000E94C30880916E0280789C2F9F77892BEF
:1016800080936E02CE7731F080916E0280788E6703
:1016900080936E020E942B0B80916E028F77CF9108
:1016A000089590916E0280FB97F990936E02892FB6
:1016B0008E7721F090789E6790936E020C942B0B9E
:1016C00081E080936C0260E182E792E00E947B0CF3
:1016D00080916F02813019F010926D02089520916F
:1016E00070023091710280917202909173022F3FCB
:1016F0004FEF340739F490937102809370020E9487
:101700002B0B03C02817390741F490916E02892FE3
:101710008F779E7711F40C94C308089580916C0222
:10172000811102C00E94600B80E090E00895CF9389
:10173000DF93EB014FE752E084E792E00E94BE0C9A
:10174000811128C049E050E065E772E0CE010E94B7
:10175000C029892BF9F4299668E672E0CE010E942F
:10176000B729892BA9F161E672E0CE010E94B72961
:10177000892B09F442C069E572E0CE010E94B729C5
:10178000892B09F444C065E572E0CE010E94B729B7
:10179000892B19F080E090E040C00E94F30AEC0130
:1017A00060917202709173024AE050E08FE194E020
:1017B0000E94042363E572E08FE194E00E946622B8
:1017C0004AE050E0BE018FE194E00E94042323C070
:1017D0008FE194E00E9467200A9721F480916E02C5
:1017E0008F7717C041E060E070E08FE194E00E94E5
:1017F0007A23862F0E94310B0EC080916D020E94C9
:10180000DA0C60E28FE194E00E948A2204C08091A9
:101810006F020E94940A81E090E0DF91CF910895D9
:101820000F931F93CF93DF9300D0CDB7DEB78B011B
:1018300047E352E084E792E00E94BE0C81110EC0A3
:1018400067E272E0C8010E94B729892BF1F06BE1D1
:1018500072E0C8010E94B729892B19F080E090E05E
:1018600043C0809104019091050160E074E0681B21
:10187000790B4AE050E08FE194E00E94042360E29B
:101880008FE194E00E948A222DC08FE194E00E94B3
:10189000672000E010E00A97F9F4C8010E94DB29F4
:1018A0000E94940A0F5F1F4F011584E01807A9F7E3
:1018B00019C041E060E070E08FE194E00E947A237B
:1018C0001A830983CE0101960E9457090F5F1F4FAB
:1018D000011584E0180731F08FE194E00E94672041
:1018E0000A9739F781E090E00F900F90DF91CF9148
:1018F0001F910F910895FC012081318121703327C0
:1019000081E0861770F44081518156954795518347
:101910004083220F331F41705527242B352B8F5FB7
:10192000F0CF318320830895DC01FB01415000F1A9
:10193000519168E070E081E02D913C911197952FD5
:10194000982311F4932F02C0932F9095991F9927F4
:10195000991F220F331F992319F095E0292730583A
:1019600011963C932E93880F6150710929F7DECFB1
:10197000089510927302109272020895CF93DF932C
:10198000CB01EA0163ED72E00E94B729892B39F49B
:10199000BE018FE194E00E94952281E001C080E0C9
:1019A000DF91CF9108954EEC52E00E94BE0C80E092
:1019B00090E00895811103C063EC72E002C069EC0D
:1019C00072E08FE194E00C9466228FE194E00E9433
:1019D0008020892B59F08FE194E00E9467200A97BC
:1019E00029F08FE194E00E949020F5CF0895EF92C6
:1019F000FF920F931F93CF938FE194E00E9480207A
:101A0000892BD9F105E712E0C0E0CF5F8FE194E0C8
:101A10000E9490207801F80180838FE194E00E9479
:101A200067200A9741F00F5F1F4FF70180818032D6
:101A300011F0C03251F78C2F90E0FC01EC58FD4FB3
:101A40002081203219F0FC01EB58FD4F108285E710
:101A500092E00E947D0268ED72E08FE194E00E94C6
:101A600095220E94E50C8FE194E00E9467200A977E
:101A700021F48FE194E00E94902080E090E0CF91EB
:101A80001F910F91FF90EF900895CF93C42F262FB1
:101A900020684FEF6FEF0E94FF06C11105C00E9442
:101AA000BE19CF910C946B1ACF9108950F931F9389
:101AB000CF93DF93C62F042F122FFC01D49141FF47
:101AC00006C0422F62E08D2F9C2F0E94450D00FF23
:101AD00006C0412F61E08D2F9C2F0E94450DDF91A4
:101AE000CF911F910F910895EF92FF920F931F9343
:101AF000CF93DF93CB01009709F461C0F12CE12C67
:101B00008C010F5F1F4FFC01449150E0FA013197A7
:101B1000EB30F10508F053C0EA5AFF4F0C949729B7
:101B2000F12C45C00E94BE190E946B1A40C002965B
:101B3000F801E4908C013BC0EC012296F80164911D
:101B400070E080E090E00E94AE282DC0F801649122
:101B50008C010D5F1F4F2F2D42E00FC0F8016491E3
:101B60008C010D5F1F4F2F2D41E007C0F8016491DC
:101B70008C010D5F1F4F20E043E002960E94560D3E
:101B800016C0EC0122962F2D42E009C0EC012296EE
:101B90002F2D41E004C0EC01229620E043E060E0FC
:101BA000C8010E94560D8E0102C0FF24F3946E2DD1
:101BB00070E080E090E00E94AE28C801A1CFDF91E4
:101BC000CF911F910F91FF90EF9008950F93FB011C
:101BD00081818036C9F4809198028830C0F4908168
:101BE000E82FF0E0BF01660F771FE60FF71FE756FB
:101BF000FD4F90839BE0499F200D11242183028398
:101C00008F5F8093980203C080E090E002C081E083
:101C100090E00F9108951092980280E090E008956E
:101C2000CF93DF93C0E0DBE080919802C81750F5B6
:101C30002C2F30E0F901EE0FFF1FDF01A20FB31FC1
:101C4000A756BD4F11968C918F3F29F48093970230
:101C50008093960207C06D2F0E94412980939702BE
:101C6000909396022E0F3F1FF901E756FD4F6281B8
:101C700080810E94CD02BC0185E992E00E94740D32
:101C8000CF5FD2CF80E090E0DF91CF9108950F93A6
:101C90001F93CF93C82F0E947D280091B20210910C
:101CA000B3022091B4023091B50260177107820728
:101CB000930798F10E947D28209106013091070139
:101CC000DC01CB01820F931FA11DB11D8093B202D5
:101CD0009093B302A093B402B093B502C0FF04C0C6
:101CE00020E04091080112C0C1FF05C040910801E9
:101CF000419520E00BC0C2FF04C02091080121954E
:101D000004C0C3FF0AC02091080140E060E080E009
:101D1000CF911F910F910C94181ACF911F910F9191
:101D200008950E946B1A0E94671A1092BE0280E00A
:101D300090E008950F931F938091BE02811113C00C
:101D40001092C1021092B6021092B7021092B8021D
:101D50001092B9021092BA021092BB021092BC0209
:101D60001092BD0273C00E947D280091B6021091AE
:101D7000B7022091B8023091B9026017710782074B
:101D8000930708F463C00E947D2820910C013091D4
:101D90000D01DC01CB01820F931FA11DB11D8093AA
:101DA000B6029093B702A093B802B093B9020E9412
:101DB0007D280091BA021091BB022091BC023091A3
:101DC000BD02601771078207930720F19091C1024D
:101DD00080910B01492F50E02FEF30E0281B310993
:101DE000421753071CF4890F8093C1020E947D287B
:101DF0002091090130910A01DC01CB01820F931F70
:101E0000A11DB11D8093BA029093BB02A093BC02A6
:101E1000B093BD028091BE0280FF04C060910E01AC
:101E2000619506C081FF03C060910E0101C060E0B2
:101E300082FF04C080910E01819506C083FF03C01C
:101E400080910E0101C080E00E94C31080E090E00C
:101E50001F910F9108950F93CF93DF93FB01818121
:101E6000803509F07DC0EB019081292F2072802FF1
:101E70008270392F307496FF16C0211114C0C92FFB
:101E8000CF7B0170882341F0011102C00E941D1018
:101E90008C2F0E94F50F93C0002309F490C08C2F63
:101EA0000E94F70F8CC0211137C00170882309F4FC
:101EB0005AC001117FC00E947D2820910C013091F1
:101EC0000D01DC01CB01820F931FA11DB11D809379
:101ED000B6029093B702A093B802B093B9020E94E1
:101EE0007D282091090130910A01DC01CB01820F8C
:101EF000931FA11DB11D8093BA029093BB02A093C2
:101F0000BC02B093BD021092B2021092B3021092C2
:101F1000B4021092B5024EC0882309F450C000FDEF
:101F20004EC090FD02C080E001C082E021E031118E
:101F300001C020E0822B91FD02C020E001C024E01E
:101F4000822B92FD02C020E001C028E0822B93FD8D
:101F500002C090E001C090E1892B0E9423102FC0A5
:101F600080E090E035C0002351F190958091BE0251
:101F700098239093BE028881982F937031F020E0CF
:101F800084FD0DC040E061E011C0982F9C7049F0C5
:101F900084FD09C020E040E060E081E008C041E04D
:101FA00004C020E001C021E040E060E080E00E9449
:101FB000231A05C0888184FF05C00E94470E81E076
:101FC00090E006C09091BE02892B8093BE02F7CFAD
:101FD000DF91CF910F9108950E94F10F80E090E082
:101FE00008950E94141A0C946F1A0C945D1A0E94A2
:101FF000621A1092C202089556954795640F751F94
:102000003695279540E0820F931F0C947B1A10920F
:10201000C4021092C3021092C6021092C5028FEF42
:102020009FE79093CA028093C9029093C80280935D
:10203000C70281E08093C20208958091C20281119B
:102040000C94071008950F931F93CF93C82F80917E
:10205000C202811102C00E940710C0FF06C0109288
:10206000C202CF911F910F910895E09111010E2F9F
:1020700010E08091C9029091CA02B8010E944D29D6
:102080009B017093CA026093C9028091C70290912C
:10209000C802B8010E944D29AB017093C802609339
:1020A000C7027C2F74708091C3029091C402E091AA
:1020B000C502F091C6026C2F6670663071F4820F13
:1020C000931F9093C4028093C302BA016E0F7F1FC7
:1020D0007093C6026093C50234C0772361F0D801C3
:1020E0001197A49FB001A59F700DB49F700D11248E
:1020F000E60FF71F04C0C1FD06C0E40FF51FF09303
:10210000C602E093C502C4FF0CC0F8013197E29FFC
:10211000B001E39F700DF29F700D1124860F971F81
:1021200004C0C3FD06C0820F931F9093C402809326
:10213000C3026091C5027091C6028091C302909162
:10214000C402CF911F910F910C94FC0F889F9001B6
:102150001124232F3327829FA001839F500D112428
:10216000452F5527440F551FC901880F991F820F0E
:10217000931F0196841B950B8F3F910519F010F06A
:102180008FEF90E00895EF92FF920F931F93CF93FC
:10219000DF93182F062F80911001E82EF12C1123C8
:1021A00009F44CC0662381F123E6829FC00111240B
:1021B0006CE870E00E9461296115710509F07B01EE
:1021C000212F012E000C330B43E61402C001112411
:1021D0006CE870E00E9461296115710509F09B01AE
:1021E000122F202F002E000C330B43E60402C001F7
:1021F00011246CE870E00E9461296115710509F0F5
:102200009B01022F1123D1F08091C1020E94A610E0
:102210009091C002282F1203E0011124C90FD11D93
:1022200097FDDA95EC16FD0664F0882799278E193C
:102230009F09C817D90734F4EC0104C0C0E0D0E00E
:1022400001C0E7010023D9F08091C1020E94A610CD
:102250002091BF02382F0303C0011124820F911D6A
:1022600027FD9A95E816F90664F0222733272E19E0
:102270003F097C018217930724F4790102C0E12C05
:10228000F12C1092C20220910F0130E0C701B90178
:102290000E946129E62FCE01B9010E946129862F93
:1022A00020E040E06E2F0E94181A20910F0130E0CC
:1022B000CE01B9010E9461298093C002C701B90112
:1022C0000E9461298093BF02DF91CF911F910F91EE
:1022D000FF90EF9008959C012150304C80911201A5
:1022E0009091130102C0969587952A95E2F7817027
:1022F0000895CF93DF93262F883018F4C0E0D0EEF6
:1023000002C0C4E4D2E2D80FE82FF0E0E453FD4F5E
:102310003081832F6BE00E944129492F2068832F51
:1023200090E0841B91096BE070E00E9461298D2F81
:102330009C2F0E94FF06DF91CF91089562E00C94DC
:10234000791141E050E060E070E0082E04C0440FD5
:10235000551F661F771F0A94D2F74095509520911C
:10236000E4023091E502422353235093E502409367
:10237000E40261E00C9479118F929F92AF92BF9228
:10238000CF92DF92EF92FF920F931F93CF93DF9341
:10239000FB0180819181CFEFC80F07FD19C1D22FBA
:1023A000142F7B014091E4025091E5029C012150E1
:1023B000304C452B09F05DC02031310508F008C1D3
:1023C000802F8270902F917000FF1AC0811118C069
:1023D00081E090E0A0E0B0E004C0880F991FAA1F40
:1023E000BB1FCA95D2F7809590952091E00230915D
:1023F000E102822393239093E1028093E00211C1D2
:10240000882309F40EC191110CC10E947D286093AC
:10241000E6027093E7028093E8029093E902EC2FC2
:10242000F0E0E453FD4F2BE0129FD00D1124D08338
:1024300081E090E0A0E0B0E00C2E04C0880F991F6E
:10244000AA1FBB1F0A94D2F72091E0023091E1024B
:10245000282B392B3093E1022093E0022091E402F3
:102460003091E502822B932B9093E5028093E40256
:10247000CEC0402F42702031310508F092C020912B
:10248000E2023091E302CC2ED12CB9010C2E02C015
:10249000769567950A94E2F760FF1EC0442309F41D
:1024A000C0C000FDBEC09093DF028093DE0281E0D9
:1024B00090E0A0E0B0E00C2E04C0880F991FAA1F86
:1024C000BB1F0A94D2F78095909582239323909313
:1024D000E3028093E20238C000FF3CC04111A1C07A
:1024E00081E090E0A0E0B0E00C2E04C0880F991FBE
:1024F000AA1FBB1F0A94D2F7809590952091E00205
:102500003091E102822393239093E1028093E002D1
:102510000E947D280091E6021091E7022091E802D6
:102520003091E902AB01BC01401B510B620B730BF4
:102530008091160190911701A0E0B0E0481759076B
:102540006A077B0708F46DC08C2F0E94A1111092BE
:10255000DD0267C0442309F464C0812C912C54012E
:1025600083940C2E04C0880C991CAA1CBB1C0A94D2
:10257000D2F78091E0029091E10288299929909305
:10258000E1028093E002808191812091DE0230910E
:10259000DF0282179307F9F40E946B11811144C086
:1025A0001AC04423A9F09093DF028093DE02FB015E
:1025B00080819181803E910540F4F70181818434CE
:1025C00039F081E08093DD0203C0883E9105A8F7D1
:1025D00080E090E05EC00E947D286093E6027093E8
:1025E000E7028093E8029093E902F601E453FD4F7D
:1025F0002BE0129FD00D1124D0838091E4029091A2
:10260000E502882A992A9092E5028092E402F70175
:10261000808191819093DF028093DE028C2F0E9453
:102620009E1181E090E035C00E947D280091E60275
:102630001091E7022091E8023091E902AB01BC0160
:10264000401B510B620B730B80911401909115018B
:102650008F3FFFEF9F0721F480911801909119019E
:10266000A0E0B0E084179507A607B707D0F28091E5
:10267000E2029091E302882A992A9092E3028092E2
:10268000E202F701808191819093DF028093DE0264
:10269000C8CFDF91CF911F910F91FF90EF90DF9006
:1026A000CF90BF90AF909F908F900895CF93DF937E
:1026B0008091E4029091E502892BA9F0C0E0D0E07E
:1026C0008091E4029091E5020C2E02C096958795C8
:1026D0000A94E2F780FF03C08C2F0E949E1121967E
:1026E000C830D10569F780E090E0DF91CF9108957F
:1026F000CF92DF92EF92FF920F931F93CF93DF93CE
:102700008091E4029091E502892B09F486C00E9431
:102710007D280091E6021091E7022091E8023091B5
:10272000E902AB01BC01401B510B620B730B8091A2
:10273000180190911901A0E0B0E0481759076A0705
:102740007B0728F081E08093DD021092DC02C0E07C
:10275000D0E020E0C12CD12C7601C3948091DD0221
:10276000882309F44FC08091E2029091E302AC010A
:102770000C2E02C0569547950A94E2F740FF26C0FA
:102780004091DC024423F1F1B701A6010C2E04C0F4
:10279000440F551F661F771F0A94D2F78A019B01C9
:1027A00000951095802391239093E3028093E20299
:1027B0008C2F0E94A1118091E0029091E1020823E8
:1027C00019231093E1020093E0021BC08091E40200
:1027D0009091E5020C2E02C0969587950A94E2F737
:1027E00080FF10C08091E0029091E1020C2E02C0A7
:1027F000969587950A94E2F780FD04C08C2F0E947D
:10280000A11121E02196C032D10509F0A7CF2223E2
:1028100021F01092DD021092DC0280E090E0DF9166
:10282000CF911F910F91FF90EF90DF90CF9008957F
:10283000E82FE695E695E695F0E0E451FD4F20811E
:1028400030E08770A90102C0559547958A95E2F757
:10285000CA0181700895E82FE695E695E695282F40
:102860002770F0E0E451FD4F81E090E0A0E0B0E09F
:1028700004C0880F991FAA1FBB1F2A95D2F7662391
:1028800019F02081822B03C0809590818923808359
:1028900008959C01AC014151504C413068E056070D
:1028A00010F4842F07C02251384C213048E03407FF
:1028B00010F4822F90E008959C01AC014151504CDE
:1028C000413068E0560730F4252F332720523F4F20
:1028D000C90108952251384C213048E0340718F4DA
:1028E0008AE2830F94E408951F93CF93DF93182F08
:1028F0008F3F91F140910C0350E0C0910D03D091B6
:102900000E033BE0632F0E94412920E0389FF00135
:102910001124E552FE4FE90FF11DA22F022E000CEB
:10292000BB0BA417B507C4F4AA0FBB1FAA0FBB1F8C
:10293000AC0FBD1F11968C91119718130BC08C9181
:102940008F3F61F0082E000C990B608170E08617B4
:10295000970721F02F5FE1CF8FEF01C0822FDF912A
:10296000CF911F9108954091F20250E090E0292FFD
:10297000092E000C330B241735076CF4F901EE0F08
:10298000FF1F2E0F3F1FF901ED50FD4F208128172B
:1029900021F09F5FECCF8FEF0895892F08958F92DC
:1029A0009F92AF92BF92CF92DF92EF92FF920F93DE
:1029B0001F93CF93DF93CDB7DEB76D970FB6F89423
:1029C000DEBF0FBECDBFF82EB62E8091F3021BE006
:1029D000612F0E944129492F682F86E991E00E94CA
:1029E00044050091F302802F0E947414C82E802F9A
:1029F000612F0E944129E82ED92E189FF001112441
:102A0000E90FF11DEE0FFF1FE95FFD4F8080918000
:102A100081E1881A80EC980A10E0A12C9FEFC9127E
:102A200005C082E0881680E1980648F5F11009C0DB
:102A3000802F0E941814882321F080910B038111AC
:102A400074C06F2D802F0E942B14FF20C1F092E0E4
:102A5000891690E1990638F480E090E00E945C14B9
:102A6000182FA92E0CC0E0910D03F0910E038C2DB0
:102A700094E08902E00DF11D11241281A38081E010
:102A80008093EB028DE1E2E8F3E0DE011196019024
:102A90000D928A95E1F78DE1EFE9F3E0A2E8B3E06A
:102AA00001900D928A95E1F722E04D2D6E2D812F38
:102AB0009A2D0E94FF060E94BE198DE1FE013196FB
:102AC000A2E8B3E001900D928A95E1F7B1FE07C04C
:102AD00023E04D2D6E2D812F9A2D0E94FF0610921E
:102AE000EB0220E08091F2022817D0F4822F90E0D0
:102AF000DC01AA0FBB1FA80FB91FAD50BD4F019637
:102B0000FC01EE0FFF1F8E0F9F1FFC01ED50FD4FCC
:102B1000C080D180E280CD92DD92EC922F5FE2CF37
:102B200081508093F20281E00DC08091F2028230E8
:102B300008F487CF0E947D28705F7093F502609340
:102B4000F40280E06D960FB6F894DEBF0FBECDBFE5
:102B5000DF91CF911F910F91FF90EF90DF90CF9079
:102B6000BF90AF909F908F900895382F2BE0622FE9
:102B70000E944129289FF0011124E90FF11DEE0F59
:102B8000FF1FE95FFD4F808191818151904C823020
:102B9000904140F0832F0E94741491E08F3F19F40C
:102BA00090E001C091E0892F0895CF93DF938F3F8C
:102BB000E1F0C82FD0E0DC1754F48091F2028823B2
:102BC000A1F063E081E00E94CF14DF5FF4CF809139
:102BD000F3020E94B515882311F063E001C061E0A3
:102BE00080E0DF91CF910C94CF14DF91CF910895C5
:102BF0008091F202882359F08091F3020E94B5156A
:102C0000811105C063E00E94CF148111F1CF0895B6
:102C10001F93CF93DF93182F8091F202883059F4DD
:102C200060E08091F3020E942B1463E080E00E9438
:102C3000CF140E94F81561E0812F0E942B14C091DF
:102C4000F202D0E0CE01880F991FC80FD91FCD50D6
:102C5000DD4F18830E947D287A8369838091F20278
:102C60008F5F8093F202812F6BE00E944129492FF0
:102C7000682F86E991E0DF91CF911F910C94280590
:102C8000DF92EF92FF920F931F93CF93DF93443025
:102C900008F09DC02B3008F09AC007FD98C0F02EB8
:102CA000EB0180911C01882309F448C0122F8BE0AE
:102CB000489F100D1124812F0E947414082F8091B9
:102CC000EB02882349F0888199818151904C8230B0
:102CD000904108F07CC068C08F2D8170E82E9F2D38
:102CE0009270D92EF1FC03C0811113C027C081114D
:102CF00010C08091F202811108C0888199818151B0
:102D0000904C8230904108F043C0812F0E940816F9
:102D10003DC0812F0E94B314EE20A9F0D11013C042
:102D20008F3F41F4888199818151904C823090414C
:102D300098F53AC00E94D5150E94F81588819981AE
:102D40000E94491442C00F3F71F4288139812151FA
:102D5000304C2230304138F021E090E08F3F09F4D0
:102D600020E0822F36C08F3F89F4812F0E941814F3
:102D7000882321F3888199818151904C8230904140
:102D8000C8F4888199810E945C141FC081E020C032
:102D90000F3F09F0BACF1BC00F3FC9F0812F0E942F
:102DA00018148823A1F006C0812F0E9418148111E5
:102DB000E8CFC4CFE0910D03F0910E0384E0080248
:102DC000E00DF11D1124828193819983888380E035
:102DD00090E0DF91CF911F910F91FF90EF90DF90E6
:102DE0000895CF93DF930E947D28EB0140910B0360
:102DF0004423A9F12091F2022223A9F12091F402A7
:102E00003091F502C901861B970B181619063CF57F
:102E100020E030E1241B31098217930724F560E09C
:102E20008091F3020E942B1461E080E00E94CF1495
:102E30000E94F81518C08091F4029091F5029E014D
:102E4000281B390B80911A0190911B01821793075F
:102E500050F463E081E00E94CF140E94F815809145
:102E6000F2028111E8CF80E090E0DF91CF910895E8
:102E7000E3EFF2E08FEF808312821182339693E0CA
:102E8000EB30F907C1F71092F20280E090E008956C
:102E90008091310381114AC01092140310921303E0
:102EA0001092150310921603109217031092180334
:102EB0001092190381EE80930F031092100386E2A3
:102EC0008093110388E08093120310921F031092E5
:102ED0001E031092200310922103109222031092DD
:102EE00023031092240395EE90931A0310921B0370
:102EF00097E290931C0380931D0310922A03109273
:102F0000290310922B0310922C0310922D03109280
:102F10002E0310922F031092250310922603109275
:102F200027031092280381E0809331038FE093E020
:102F300090933B0380933A03089581E08093390393
:102F400008952F923F924F925F926F927F928F924D
:102F50009F92AF92BF92CF92DF92EF92FF920F9328
:102F60001F93CF93DF93EB0188819981EC01C855C2
:102F7000D14D229770F401FF21C000FD1FC088359C
:102F8000914D19F41092390319C081E080933903EF
:102F900015C03091390331113EC007FD3CC0009788
:102FA000D1F1302F3270B32EC02FC170AC2E037010
:102FB00091F134C0FF2079F1A110B9C081E090E017
:102FC000CBC02E81222319F0ED2CCC24C39484177E
:102FD000950711F4FF24F394D39420913A03309190
:102FE0003B03E9014BE0D49EC00DD11D1124488163
:102FF0005981A0E0B0E04A175B0719F76A817B812D
:10300000E0E0F0E06E177F07E1F66C817D81672BD1
:10301000C1F6C1105BC080E090E09EC0022F142F6B
:103020001B01332309F44DC0A1104BC0612C712C3E
:1030300055245394DBE06D9E40011124A0903A0387
:10304000B0903B03E501C80DD91D88819981C12C41
:10305000D12C8C159D0559F42A813B81E12CF12C52
:103060002E153F0521F42C813D81232B39F1F101EF
:10307000208131818217930751F45E820E947D285E
:103080006F83788789879A877724739415C08E8198
:10309000882339F022E8402F612F888199810E948E
:1030A000FF06E0913A03F0913B03E80DF91D16820B
:1030B00017821086118612866394BCCF872D90E00C
:1030C0004BC0D12CE12CF12CC12C87CF8BE0E89E9A
:1030D000E0011124F901EC0FFD1FC480D580C1145B
:1030E000D10421F4C0901D01D0901E010E947D28C2
:1030F000E0913A03F0913B03EC0FFD1F47805084B1
:1031000061847284AB01BC014419550966097709D1
:10311000C601A0E0B0E0481759076A077B0708F42A
:1031200049CF1682178210861186128674CFB1108D
:1031300045CF22E8402F612F828193810E94FF06B4
:1031400080913A0390913B03C80FD91F1E821F82C2
:10315000188619861A8632CFDF91CF911F910F9171
:10316000FF90EF90DF90CF90BF90AF909F908F90A7
:103170007F906F905F904F903F902F90089580E3E5
:1031800093E00C944817CF93DF9300D000D000D089
:10319000CDB7DEB7DC0113967C936E93129715962C
:1031A0005C934E93149716963C91169739837B83C4
:1031B0006A835D834C832E83ED91FC910190F081B5
:1031C000E02D46E050E0BE016F5F7F4F09952696E7
:1031D0000FB6F894DEBF0FBECDBFDF91CF9108953B
:1031E00082E893E00E94551D8FE393E00C94E61B68
:1031F000CF93C82F8FE393E00E944F1B6C2F811158
:1032000005C08FE393E0CF910C94801B82E893E09C
:10321000CF910C94F51CCF93C82F83FF04C081EE8F
:1032200090E00E94F818C0FF04C080EE90E00E9479
:10323000F818C1FF04C082EE90E00E94F818C2FFA7
:1032400004C086EE90E00E94F818C4FF04C083EE2C
:1032500090E00E94F818CF910895CF93DF93D82F74
:10326000C92F907C662399F080913C03811102C0A4
:1032700010923E0380913E038C2B80933E0391116C
:1032800004C080E28D0F883020F0D0933C03911170
:1032900008C080E28D0F883020F48C2F0E940B191B
:1032A00005C080913D038C2B80933D038D2F9C2F77
:1032B000DF91CF910C94F818CF93C82F8FE393E050
:1032C0000E944F1B6C2F811105C08FE393E0CF91BB
:1032D0000C94A81B82E893E0CF910C941C1D8FE303
:1032E00093E00E94DF1B10923C0310923D0382E8A2
:1032F00093E00E94451D84E693E00C942C1CCF9330
:10330000DF93D82FC92F80913E03892780933E03F6
:10331000892F807C21F480E28D0F883058F08091D5
:103320003C038D1302C010923C0380913D038C2717
:1033300080933D03C3FF04C081EE90E00E945C19BE
:10334000C0FF04C080EE90E00E945C19C1FF04C081
:1033500082EE90E00E945C19C2FF04C086EE90E00D
:103360000E945C19C4FF04C083EE90E00E945C19C7
:103370008D2F9C2FDF91CF910C945C1990913D0380
:1033800080913E0389230E940B198FE393E00E94F2
:103390004F1B60913C03811116C0662381F08FE3BF
:1033A00093E00E94A81B8FE393E00E94521B609160
:1033B0003C038FE393E00E94801B10923C038FE359
:1033C00093E00C94521B662381F082E893E00E9404
:1033D0001C1D82E893E00E94951C60913C0382E8EA
:1033E00093E00E94F51C10923C0382E893E00E9457
:1033F000951C84E693E00C943F1C84E693E00C94C7
:10340000651CBC01737084E693E00C94171C87EE76
:1034100093E00C94191E682F87EE93E00C941B1E0A
:1034200087EE93E00C94171E8FEC93E00C94B31D81
:103430000F93022F242F462F682F8FEC93E00E94CA
:103440005B1D0F910895FF920F931F93CF93DF930E
:1034500000D000D01F92CDB7DEB7F62E142F722FFA
:1034600095E0EFECF3E0DE01119601900D929A9554
:10347000E1F79A813B815C810D81882311F060E046
:1034800001C0692FFF2011F040E001C0432F11233C
:1034900011F020E001C0252F711100E08FEC93E0C6
:1034A0000E945B1D0F900F900F900F900F90DF9177
:1034B000CF911F910F91FF900895682F8FEC93E0AB
:1034C0000C94691D682F8FEC93E00C946E1D8FECAB
:1034D00093E00C94631D8FEC93E00C94811DE0EF5E
:1034E000F3E0108A468557856485758520E08AEF6C
:1034F00093E00C94C318242FAB01BC018AEF93E036
:103500000C94C318FC0182818F5BFB01808381E0F6
:103510000895CF93DF93CDB7DEB769970FB6F894D0
:10352000DEBF0FBECDBFFC01DB019C919F5F9C9372
:10353000BE016F5F7F4F89E1DB011D928A95E9F73C
:1035400029E0298384E08A8391E09D8383E08E8350
:103550009F8398872A8721E22B879C879D879F8757
:1035600022E2288B2FE3298B27E02B8B25E02C8B65
:103570008E8B20E430E0388F2F8B998F82818B8364
:10358000838180688D8B49E150E080E00E94BA25FC
:1035900069960FB6F894DEBF0FBECDBFDF91CF9115
:1035A0000895FC01DB01828190E014962D913C91FD
:1035B000159782179307E1F511968C9111979C91BD
:1035C000913A61F4813091F1833011F4848D03C01C
:1035D000823071F5858D8093F10028C0913241F5DC
:1035E0008B3021F412968C91848F20C08A3011F494
:1035F000158E1CC08930E1F4CF0116962D913C91B7
:10360000179713964C91423039F42130310581F4EB
:1036100061E070E04E9608C0413051F42830310529
:1036200039F468E070E00B960E94E12581E008958E
:1036300080E00895FC01DB018C918138B9F4139688
:103640008C911397823291F4828190E014962D919F
:103650003C9115972817390749F48285848F4FE3E9
:1036600050E06CED72E080E80C94BA2580E090E0C8
:103670000895FC0181E0848385839F01255E3F4F8F
:10368000378326831186108627E431E03183208337
:103690008287848F858F168E81EC838F0895FC013D
:1036A000848D0895EF92FF920F931F93CF93DF9332
:1036B0008C01EC012B967C0183E1E80EF11C48E0C3
:1036C00050E0BE01C7010E94CE29892B81F0F8018C
:1036D000838148E050E0BE0180640E940B2528E011
:1036E000FE01D70101900D922A95E1F702C08FEFFC
:1036F0009FEFDF91CF911F910F91FF90EF90089571
:1037000020E2260F283058F441E050E001C0440F79
:103710002A95EAF7FC012385422B438716C0FC015A
:103720003D9620E030E04191641779F0411105C0E9
:10373000FC01E20FF31F658708C02F5F3F4F263063
:10374000310589F780E090E0089581E090E00895E8
:1037500020E2260F283068F4622F21E030E001C01B
:10376000220F6A95EAF72095FC01338523232387EE
:1037700023C0FC01AC014A5F5F4FDC011D962C9118
:103780001D97621303C01D961C921D9711964A1730
:103790005B07A1F720E03585332351F0DC01A20F50
:1037A000B11D1D966C911D971D963C9365872F5FEB
:1037B0003196E417F50779F781E090E008950B96CC
:1037C00028E0FC0111922A95E9F70895CF93DF9341
:1037D000EC010E943D22BE010E94F621CE010E9412
:1037E000DF1BCE01DF91CF910C94521B8FE393E04E
:1037F0000C94391B80917403811113C010925F03E4
:1038000010925E038BE193E09093610380936003D9
:1038100089E190E0909363038093620381E0809359
:1038200074030E9443206EE573E00C94D01FDC010A
:1038300020E030E04D915D91452B41F4220F331F84
:10384000FC01E20FF31F7183608308952F5F3F4FE8
:103850002430310579F7089528E0FC0111922A956A
:10386000E9F70895CF93DF93EC010E94432028E00D
:1038700030E0AE0164E0DF91CF910C94ED1F0F9327
:103880001F93CF93DF93EC018C01085F1F4F48E03B
:1038900050E0BC01C8010E94CE29892B51F0CE0115
:1038A0000E94321C88E0FE01D80101900D928A9599
:1038B000E1F7DF91CF911F910F91089528E0FC016E
:1038C00011922A95E9F70C943F1C0C945E1C84E637
:1038D00093E00C94FA1B8091BC03811113C01092E9
:1038E0007D0310927C0384E393E090937F038093A5
:1038F0007E0381E490E0909381038093800381E0D4
:103900008093BC030E9443206CE773E00C94D01FAB
:10391000CF93DF93EC010E9443202DE130E0AE0114
:1039200068E0DF91CF910C94ED1FEF92FF920F931F
:103930001F93CF93DF93EC017C018DE1E80EF11C26
:103940004DE150E0BE01C7010E94CE29892B09F448
:1039500043C00D8D1881802F80958123B1F04CE1FB
:1039600050E0BE016F5F7F4FCE014E960E94CE2980
:10397000892B59F01D8F0E9443202DE130E0A701D3
:1039800068E00E94ED1F0D8F19C0812F8095802364
:10399000A9F04CE150E0BE016F5F7F4FCE014E9623
:1039A0000E94CE29892B51F008830E9443202DE1EB
:1039B00030E0AE0168E00E94ED1F1883CE010E9446
:1039C000881C1816190654F42DE1FE01D701019048
:1039D0000D922A95E1F702C08FEF9FEFDF91CF9113
:1039E0001F910F91FF90EF9008956E3D90F4262F58
:1039F000269526952695FC01E20FF11D677081E062
:103A000090E001C0880F6A95EAF79181892B818344
:103A10000DC0605E683068F421E030E001C0220F24
:103A20006A95EAF7FC013081232B208381E090E046
:103A3000089580E090E008956E3D98F4262F269535
:103A400026952695FC01E20FF11D677081E090E05C
:103A500001C0880F6A95EAF7809591818923818357
:103A60000EC0605E683070F421E030E001C0220FCB
:103A70006A95EAF72095FC0130812323208381E0B9
:103A800090E0089580E090E008952DE1FC0111920E
:103A90002A95E9F70895CF93DF93EC010E94451D25
:103AA000CE01DF91CF910C94881C0C944B1D82E8C1
:103AB00093E00C946B1C0F93FC016183428323837E
:103AC00004830F91089525E0FC0111922A95E9F7EE
:103AD0000895FC012081622B608308956095FC01AC
:103AE0002081622360830895CF93DF93EC010E94CD
:103AF000432025E030E0AE0161E0DF91CF910C94EE
:103B0000ED1F0F931F93CF93DF93EC018C010B5F9D
:103B10001F4F45E050E0BC01C8010E94CE29892B0F
:103B200049F445E050E064EC73E0CE010E94CE29F8
:103B3000892B51F0CE010E94741D85E0FE01D80151
:103B400001900D928A95E1F7DF91CF911F910F912E
:103B50000895CF93DF93EC010E94631DCE01DF91A6
:103B6000CF910C94811DCF93DF93EC018091D90309
:103B7000811113C01092CA031092C90385E793E024
:103B80009093CC038093CB038AE390E09093CE0391
:103B90008093CD0381E08093D9030E94432069EC98
:103BA00073E00E94D01FCE01DF91CF910C94A91D2C
:103BB0008091E803811113C01092E2031092E10397
:103BC0008FEA93E09093E4038093E30388E190E02D
:103BD0009093E6038093E50381E08093E8030E94DD
:103BE000432061EE73E00C94D01F0F931F93CF938B
:103BF000DF93EB018A010E9443209801AE0165E04A
:103C0000DF91CF911F910F910C94ED1FCF93DF9314
:103C10001F92CDB7DEB7198241E050E0BE016F5F61
:103C20007F4F0E94F51D0F90DF91CF9108950C9466
:103C3000061E0C94061ECF93DF931F92CDB7DEB7FE
:103C40006983633829F48CE794E00E94032807C055
:103C500041E050E0BE016F5F7F4F0E94F51D0F9065
:103C6000DF91CF91089587EE93E00C94D81DCF9308
:103C7000DF93CDB7DEB769970FB6F894DEBF0FBEFE
:103C8000CDBFFC01DB019C919F5F9C93BE016F5FE8
:103C90007F4F89E1DB011D928A95E9F729E02983AD
:103CA00084E08A8391E09D8383E08E832A8721E2EA
:103CB0002B879C879D879F8722E2288B25E3298B72
:103CC00027E02B8B25E02C8B8E8B20E430E0388F87
:103CD0002F8B998F82818B83838180688D8B49E1C3
:103CE00050E080E00E94BA2569960FB6F894DEBFD6
:103CF0000FBECDBFDF91CF910895FC018381806419
:103D00000C940B250A970C947D1EFB012081213811
:103D1000B9F423812232A1F4DC0112962C9112977E
:103D200030E0448155814217530751F421E0529607
:103D30002C9345E350E067EC73E080E80C94BA25DF
:103D400080E090E00895DC01FB0112968C911297BF
:103D500090E02481358182179307D1F4918180818D
:103D6000813A31F481E0913091F0933089F411C0BF
:103D7000813271F49B3021F4828152968C9305C07C
:103D80009A3031F4828153968C9381E0089508959E
:103D900080E00895CF93DF93EC0181E08C838D83E5
:103DA0009E012F5E3F4F3F832E83198618861D8606
:103DB0001C861F861E86188A23E531E039832883F6
:103DC00021E631E03B872A878A8B8B8B81EC898BBC
:103DD0000E943D22BE01DF91CF910C94F62180EF2D
:103DE00093E00C94CA1EFB018BE6808382E68183FC
:103DF00089E682838FE6838380E3848381E38583FE
:103E000086E00895CF93DF93CDB7DEB769970FB6FD
:103E1000F894DEBF0FBECDBFFC01DB018C918F5F3C
:103E20008C93BE016F5F7F4F89E1DB011D928A9504
:103E3000E9F729E0298384E08A8391E09D8383E088
:103E40008E832A8721E22B879C879D879F8722E28A
:103E5000288B27E02B8B25E02C8B8E8B20E430E009
:103E6000388F2F8B998F82818B8395858685998B4F
:103E70008A8B838180688D8B49E150E080E00E94CD
:103E8000BA2569960FB6F894DEBF0FBECDBFDF919D
:103E9000CF910895CF93DF93FC01DB01828190E005
:103EA00014962D913C91159782179307A9F51196B9
:103EB0009C9111978C91813A31F481E0913069F1B4
:103EC000933051F52AC0813239F59B3021F4129696
:103ED0008C91878705C09A3029F412968C91808B3B
:103EE00081E01BC09930C1F4EF0116968D919C9131
:103EF00017978230910539F462E070E0CF01419666
:103F00000E94E12509C0019739F461E070E0CF011A
:103F100042960E94E125198A80E0DF91CF910895B1
:103F2000EF92FF920F931F93CF93DF93FB012081BA
:103F3000213851F52381223239F5DC0112962C917A
:103F400030E04481558142175307F1F4EC010B85B1
:103F50001C85E12CF12C0115110591F0F80144812B
:103F600055816281738180E80E94BA258F3FFFEFFF
:103F70009F0769F0E80EF91ED8010D911C91EBCF57
:103F800081E08F87C70105C080E090E002C08FEF1D
:103F90009FEFDF91CF911F910F91FF90EF900895C8
:103FA000FC01A385B485109719F47487638709C051
:103FB0008D919C911197009711F0DC01F9CF6D93D1
:103FC0007C9325853685DB0114968D919C91159700
:103FD000820F931F968785870895AF92BF92CF92E5
:103FE000DF92EF92FF920F931F93CF93DF931F9275
:103FF000CDB7DEB77C0169836A01590141E050E029
:10400000BE016F5F7F4FFC0183810E940B258C01F5
:1040100097FD0BC0F7018381A501B60180640E9462
:104020000B2597FD02C0800F911F0F90DF91CF915C
:104030001F910F91FF90EF90DF90CF90BF90AF90C6
:104040000895CF93DF93EC0181E08C838D839E01F3
:10405000265F3F4F3F832E831986188627E631E07F
:10406000398328831C861B861E861D868F87888B36
:10407000198A1A8A81EC8A870E943D22BE01DF914B
:10408000CF910C94F62180911704811107C084E030
:1040900094E00E94212081E08093170484E094E062
:1040A0000895CF93DF931F92CDB7DEB76983DC010C
:1040B000ED91FC910280F381E02D41E050E0BE01E2
:1040C0006F5F7F4F09950F90DF91CF910895CF9348
:1040D000DF93EC018C859D8597FF05C082E00E94EF
:1040E000DA249D878C878C859D85DF91CF910895FB
:1040F00083E00E94F12490E0089583E00C946E2701
:10410000FC018485958597FD06C082E00E94862487
:1041100090E00196089582E00E94862490E0089540
:10412000FC018485958597FD05C02FEF3FEF35870E
:104130002487089582E00C94DA24CF93DF93EC0176
:1041400080912A01882331F083E00E940B25181604
:10415000190634F081E090E09B838A8380E090E050
:10416000DF91CF910895EEEFFFE72591349181E043
:104170002B3F3C4D09F080E00895FC0190819E5F4B
:10418000908342E450E06CEF73E080E80C94BA2531
:10419000FC0181819081913A59F4813209F065C026
:1041A00047E050E063E271E080E00E94BA255BC026
:1041B000913209F05AC0833269F482819381A0E080
:1041C000B0E080931F0190932001A0932101B09350
:1041D000220149C0803239F467E070E083E291E067
:1041E0000E94E12540C0823209F03DC08281809367
:1041F0002A010E94B320882319F0EEEFFAE002C0F2
:10420000E0E0F8E08091230190912401A091250144
:10421000B0912601803B9440A105B10541F5809104
:104220002A0180FD24C0EE3F8AE0F80751F080812A
:104230009181873727E7920721F09093FF0A8093B7
:10424000FE0A87E797E791838083809160008093DF
:104250006F049BE088E10FB6F894A8958093600006
:104260000FBE9093600081E0089580E00895808102
:10427000918187379747B9F7A89580916000886149
:104280008093600080916F0480936000EE3F8AE02D
:10429000F80739F08091FE0A9091FF0A918380839C
:1042A000E2CF1092FF0A1092FE0ADDCF2FEF3FEF10
:1042B000FC01358724870895EFE1F4E01382128230
:1042C00088EE93E0A0E0B0E084839583A683B78373
:1042D00083E791E0918380838FEF9FEF95878487B9
:1042E0000895EF92FF920F931F93CF93DF937B017B
:1042F000FC01C281D38100E010E0209781F0E881C9
:10430000F9810280F381E02DB701CE01099597FD77
:1043100008C0080F191F0884D985C02DEECFC80129
:1043200002C08FEF9FEFDF91CF911F910F91FF9010
:10433000EF9008950F931F93CF93DF938B01FC01B0
:10434000C281D381209771F0E881F9810480F581E1
:10435000E02DB801CE010995009731F40884D98584
:10436000C02DF0CF80E090E0DF91CF911F910F91B1
:1043700008950F931F93CF93DF938B01FC01C281AC
:10438000D381209771F0E881F9810680F781E02DD3
:10439000B801CE010995080F111D0884D985C02DDB
:1043A000F0CFF8011082DF91CF911F910F91089506
:1043B0000F931F93CF93DF938B01FC01C281D381B5
:1043C000209771F0E881F9810190F081E02DB8012A
:1043D000CE010995811105C00884D985C02DF0CF83
:1043E00080E0DF91CF911F910F910895CF93DF93DC
:1043F000FC01DB01218114968C91149790E0820FCF
:10440000911D0897A4F5C281D381209719F4738375
:10441000628308C088859985009711F0EC01FACF76
:10442000B987A887808112968C9312978181139601
:104430008C931397908115968C911597890F808393
:1044400080E014969C911497891798F41696CD9154
:10445000DC911797C80FD11D9881C181D0E0C55D4F
:10446000DE4F988391819F5F91838F5FEACF80E0D9
:1044700001C081E0DF91CF91089580917404811192
:104480000DC082E08093700484E0809371041092E8
:1044900073041092720481E08093740480E794E0C6
:1044A00008956115710579F0FB0101900020E9F78D
:1044B0003197AF01461B570BDC01ED91FC91028057
:1044C000F381E02D099480E090E00895EF92FF924F
:1044D0000F931F93CF93DF938C017B01C0E0D0E05B
:1044E000F701EC0FFD1F6491662361F0D801ED9197
:1044F000FC910190F081E02DC8010995892B11F004
:104500002196EECFCE01DF91CF911F910F91FF90B9
:10451000EF900895DC01ED91FC910190F081E02D88
:10452000099461E871E00C9451220F931F93CF938B
:10453000DF93EC010E9466228C01CE010E94912241
:10454000800F911FDF91CF911F910F9108958F924E
:104550009F92AF92BF92EF92FF920F931F93CF93D0
:10456000DF93CDB7DEB7A1970FB6F894DEBF0FBECD
:10457000CDBF7C01FA01CB0119A2223008F42AE058
:104580008E010F5D1F4F822E912CA12CB12CBF01EB
:10459000A50194010E947529F901CA010150110970
:1045A0006A3014F4605D01C0695CD8016C93232B00
:1045B000242B252B61F7B801C7010E945122A19637
:1045C0000FB6F894DEBF0FBECDBFDF91CF911F9124
:1045D0000F91FF90EF90BF90AF909F908F900895B4
:1045E0002115310541F4DC01ED91FC910190F08140
:1045F000E02D642F09940C94A7229A01462F50E0D5
:1046000060E070E00C94F0229A01AB0160E070E091
:104610000C94F0220F931F93CF93DF93EC010E9431
:104620007D28688779878A879B87E881F981048458
:10463000F585E02DCE01099597FF17C00E947D28D2
:10464000088519852A853B85DC01CB01801B910BF0
:10465000A20BB30B0C811D812E813F818017910726
:10466000A207B30710F38FEF9FEFDF91CF911F9158
:104670000F910895FF920F931F93CF93DF93EC0157
:104680008B01F42ECE010E940A2397FD2DC08D329E
:10469000910519F19C01205331092A30310520F18F
:1046A000FF2019F08E329105D1F001301105D1F0C3
:1046B0000230110551F48D30910539F024F4099739
:1046C000029718F00FC0809769F4E881F98102849D
:1046D000F385E02DCE010995D5CF8DE201C08EE2A4
:1046E00090E002C08FEF9FEFDF91CF911F910F916C
:1046F000FF900895BF92CF92DF92EF92FF920F93B7
:104700001F93CF93DF938C01C42F40E00E943A2384
:10471000FC0197FD47C0C12CD12C7601B12C0C2E89
:10472000000CDD0BEC17FD0709F1ED32F105E1F0AE
:10473000CF01C0970A97D0F4AAE0B0E0A701960194
:104740000E949D296F01FF0FEE08FF08DC01CB01DD
:104750008C0D9D1DAE1DBF1D6C017D0120E3C21A95
:10476000D108E108F10802C0BB24B394D801ED914F
:10477000FC910284F385E02DC8010995C8010E94CF
:104780000A23FC01C0970A9768F2CE17DF0751F29F
:10479000BB2061F066277727CB016C197D098E0954
:1047A0009F0906C060E070E0CB0102C0C701B601FE
:1047B000DF91CF911F910F91FF90EF90DF90CF90FD
:1047C000BF90089540917F045091800420917D0412
:1047D00030917E0442175307B4F49091E80095702D
:1047E000E1F39091E80092FD19C08093F10080916F
:1047F0007F049091800401968F739927892B19F477
:104800008EEF8093E80080917F0490918004019660
:104810009093800480937F0481E0089580E0089560
:10482000DF92EF92FF920F931F93CF93DF93D82ED7
:10483000F92EE42E062F10E0C8010196880F0E9481
:10484000E22383E00E94E223CD2DDF2D0C0F1D1FFC
:10485000C017D10789F0E7FE03C0FE01849101C0B3
:1048600088810E94E223F82E80E00E94E2238F21BB
:1048700021968111EDCF01C081E0DF91CF911F9191
:104880000F91FF90EF90DF9008958091D7008160A5
:104890008093D70080EA8093D80089B5806189BD74
:1048A00089B5826089BD09B400FEFDCF61E070E08A
:1048B00080E090E00E94AE288091D8008F7C8061DB
:1048C0008093D8008091E000807F8093E00008957D
:1048D000CF93DF931F92CDB7DEB71982CE01019639
:1048E0000E94BD200E943D22BE016F5F7F4F0E944B
:1048F000712189810F90DF91CF9108952FB7FC012D
:104900002083F89467706093E9000895CF93DF9354
:104910001F92CDB7DEB7682FCE0101960E947E248C
:104920008091F20099819FBF0F90DF91CF91089500
:10493000EF92FF920F931F93CF93DF931F92CDB708
:10494000DEB790918304992311F057FF03C08FEFD6
:104950009FEF28C08A017B01682FCE0101960E943B
:104960007E242091F20030E0021713070CF4980126
:10497000822FF70194E6815030F0909384044091A7
:10498000F1004193F8CF2115310521F08091F2001B
:10499000882321F089818FBFC90104C08BE68093F1
:1049A000E800F8CF0F90DF91CF911F910F91FF900A
:1049B000EF900895CF93DF931F92CDB7DEB741E01C
:1049C00050E0BE016F5F7F4F0E949824019719F459
:1049D000898190E002C08FEF9FEF0F90DF91CF9120
:1049E0000895CF93DF931F92CDB7DEB7682FCE0126
:1049F00001960E947E249091E800892F807295FF95
:104A000004C09091F20080E4891B99819FBF0F90B0
:104A1000DF91CF9108955F926F927F928F929F92D4
:104A2000AF92BF92CF92DF92EF92FF920F931F93BC
:104A3000CF93DF931F92CDB7DEB7982E6B01B42EC4
:104A4000052F80918304811103C08FEF9FEF76C003
:104A50008091810480FF05C08091E0008260809396
:104A6000E000EB2CF02EA12C8AEF882E892D80728D
:104A7000682E892D8074582E9AE3792EE114F10462
:104A800019F4AA2009F455C0892D0E94F124182F89
:104A900081110AC08A948820C1F261E070E080E050
:104AA00090E00E94AE28EACF90E0E816F9060CF4F8
:104AB0001E2D692DCE0101960E947E248091E80072
:104AC00085FF34C0812F90E0E81AF90A662029F0AA
:104AD0001150A0F01092F100FBCFF60197FE0AC032
:104AE000115050F024912093F1003196F9CF21918B
:104AF0002093F1001150D8F7C80ED91EAA2019F042
:104B00007092E8000BC08091E80085FD09C07092AA
:104B1000E800AA24A394E114F10441F0A12C06C0FA
:104B2000E114F10419F451107092E80089818FBFEB
:104B3000A5CF84E6809385048B2D902F0F90DF9175
:104B4000CF911F910F91FF90EF90DF90CF90BF908A
:104B5000AF909F908F907F906F905F90089510928C
:104B6000E9001092800410927F0490937E04809359
:104B70007D040895DF92EF92FF920F931F93CF93DE
:104B8000DF93D82E8A017B01E40EF51EEB01CE15D2
:104B9000DF0571F0D7FE03C0FE01849101C088815A
:104BA0000E94E22321968111F2CF8FEF9FEF01C087
:104BB000C801DF91CF911F910F91FF90EF90DF908F
:104BC0000895CF93DF93EC019B01B4E6ABEF211581
:104BD0003105F1F0A9012134310514F040E450E031
:104BE0008091E80082FFFCCF942FFB01E21BF30BC6
:104BF000EC0FFD1F915028F08091F10080833196D9
:104C0000F9CFB0938404A093E800241B350BDFCFC9
:104C1000CB01DF91CF9108951F920F920FB60F92A3
:104C20001124CF92DF92EF92FF920F931F932F9355
:104C30003F934F935F936F937F938F939F93AF9324
:104C4000BF93EF93FF93CF93DF93CDB7DEB76C970E
:104C5000DEBFCDBF1092E9008091E80083FF1FC145
:104C600089E0FE017596FE2E0F2F815029F090915C
:104C7000F10090833196F9CF84E68093840482EF2B
:104C80008093E8008D8987FF05C09091E80090FF30
:104C9000FCCF03C09EEF9093E800982F907609F028
:104CA000D7C09E894F89588D2F89188D91110CC0BE
:104CB000803829F4809182048093F10002C0109220
:104CC000F1001092F100E4C0913051F48111E0C084
:104CD0004130510509F0DCC0809182048D7F0BC00A
:104CE000933061F48111D4C04130510509F0D0C036
:104CF00080918204826080938204CAC0953049F416
:104D00008091E80080FFFCCF822F80688093E300D1
:104D1000BFC0963009F06FC0CB8CDC8C123069F5C7
:104D200080E090E00E94AF250E94682499E09E01F7
:104D30002F5F3F4F7901F901292F11922A95E9F749
:104D400099831A8391E09E8390EA98879AEF9987D6
:104D500020917F0430918004275F3F4F3C832B8359
:104D60008D83C6010E94AF2549E050E0B70180E085
:104D70000E94BA250E9468248BC0C6010E94AF25FC
:104D80000E943D226F2D702F0E949A21009719F0EA
:104D90000CF07EC081C0113009F46FC0133009F0EF
:104DA0007BC08F89882309F46BC0823029F440E8E6
:104DB00066E08CE594E006C0813039F440E86BE0B1
:104DC00080E594E00E94102455C0833009F064C04F
:104DD0000E943D228E010F5F1F4FB8010E94B92132
:104DE000F80101900020E9F73197BF01601B710BBA
:104DF00040E0C801E7CF973009F44EC0983021F465
:104E000081E08093F10044C0993009F041C0837083
:104E100009F042C0ECE2F1E081E031E096E320816C
:104E2000211109C08EE78093EA001092EA008F8971
:104E3000809383042DC08093E9003093EB0021918F
:104E40002093EC009093ED008F5F873041F7EACF1D
:104E50008B8D9C8D0E94AF25898D811105C08F2D72
:104E6000902F0E94C82006C00E943D226F2D702FF7
:104E70000E94D821882381F00BC06EE374E002C049
:104E800063E674E0FB01449150E080E80E94BA259B
:104E90008EEF8093E80003C081E28093EB006C9674
:104EA0000FB6F894DEBF0FBECDBFDF91CF91FF915B
:104EB000EF91BF91AF919F918F917F916F915F9192
:104EC0004F913F912F911F910F91FF90EF90DF90A5
:104ED000CF900F900FBE0F901F9018958093E90010
:104EE0008091F200882319F08AE38093E800089506
:104EF0001F920F920FB60F9211242F933F934F934F
:104F00005F936F937F938F939F93AF93BF93CF9351
:104F1000EF93FF93C091E1008091E100837F809344
:104F2000E100C3FF0FC01092E90081E08093EB0025
:104F30001092EC0082E38093ED001092830488E0ED
:104F40008093F000C2FF15C083E00E946E2780911D
:104F50008504882329F080918504815080938504FD
:104F600080918404882329F0809184048150809367
:104F70008404C4FF10C08091E2008E7E8160809323
:104F8000E2008091E1008F7E8093E10080918104B6
:104F90008E7E806111C0C0FF11C08091E2008E7EC4
:104FA00080618093E2008091E1008E7E8093E10039
:104FB000809181048E7E816080938104FF91EF91C6
:104FC000CF91BF91AF919F918F917F916F915F91A1
:104FD0004F913F912F910F900FBE0F901F901895FA
:104FE0001092830410928204109281040E9445243E
:104FF000E1EEF0E080818E7E80838DE08093E200A0
:10500000559A209A08958091E0008D7F8093E0006A
:105010008091E00081FD08C08091810480FF04C080
:105020008091820481FD02C080E008950E944524A1
:105030008091E00082608093E00081E0089508950F
:105040000E94EA280E941F288CE794E00E94F02723
:105050000E94DE02C0E0D0E00E94E7022097E1F368
:105060000E940000F9CF1F920F920FB60F921124E9
:105070002F933F938F939F93AF93BF938091870418
:1050800090918804A0918904B0918A04309186049B
:1050900023E0230F2D3720F40196A11DB11D05C07B
:1050A00026E8230F0296A11DB11D2093860480934C
:1050B000870490938804A0938904B0938A04809114
:1050C0008B0490918C04A0918D04B0918E04019674
:1050D000A11DB11D80938B0490938C04A0938D042B
:1050E000B0938E04BF91AF919F918F913F912F917B
:1050F0000F900FBE0F901F9018952FB7F8946091E6
:105100008704709188048091890490918A042FBF4C
:1051100008953FB7F89480918B0490918C04A091EE
:105120008D04B0918E0426B5A89B05C02F3F19F0C1
:105130000196A11DB11D3FBFBA2FA92F982F882717
:10514000820F911DA11DB11DBC01CD0142E0660F72
:10515000771F881F991F4A95D1F708958F929F92C4
:10516000AF92BF92CF92DF92EF92FF926B017C01E0
:105170000E9489284B015C01C114D104E104F104AF
:1051800001F10E9440290E948928DC01CB01881985
:105190009909AA09BB09883E9340A105B10560F3AE
:1051A00021E0C21AD108E108F10888EE880E83E0F8
:1051B000981EA11CB11CC114D104E104F10419F71B
:1051C000DBCFFF90EF90DF90CF90BF90AF909F909C
:1051D0008F900895789484B5826084BD84B5816091
:1051E00084BD85B5826085BD85B5816085BDEEE6EF
:1051F000F0E0808181608083E1E8F0E010828081CE
:1052000082608083808181608083E0E8F0E080813B
:1052100081608083E1E9F0E0808182608083808129
:1052200081608083E0E9F0E0808181608083E1EC4F
:10523000F0E08081846080838081826080838081CF
:1052400081608083E3ECF0E0808181608083E0EC2A
:10525000F0E0808182608083E2ECF0E08081816018
:105260008083EAE7F0E080818460808380818260CF
:1052700080838081816080838081806880830895BD
:105280000895991B79E004C0991F961708F0961BA2
:10529000881F7A95C9F780950895AA1BBB1B51E119
:1052A00007C0AA1FBB1FA617B70710F0A61BB70B96
:1052B000881F991F5A95A9F780959095BC01CD013B
:1052C000089597FB072E16F4009407D077FD09D0B8
:1052D0000E944D2907FC05D03EF4909581959F4F83
:1052E0000895709561957F4F0895A1E21A2EAA1B2B
:1052F000BB1BFD010DC0AA1FBB1FEE1FFF1FA21786
:10530000B307E407F50720F0A21BB30BE40BF50B82
:10531000661F771F881F991F1A9469F7609570950B
:10532000809590959B01AC01BD01CF010895EE0FD2
:10533000FF1F0590F491E02D09940E94A829A59FD4
:10534000900DB49F900DA49F800D911D1124089580
:10535000A29FB001B39FC001A39F700D811D1124B6
:10536000911DB29F700D811D1124911D0895FB01A7
:10537000DC018D91059080190110D9F3990B0895E6
:10538000FB01DC014150504030F08D9105908019B7
:1053900019F40020B9F7881B990B0895FB01DC0173
:1053A00004C08D910190801921F441505040C8F7FC
:1053B000881B990B0895F999FECF92BD81BDF89A8B
:1053C000992780B50895262FF999FECF1FBA92BD6F
:1053D00081BD20BD0FB6F894FA9AF99A0FBE0196D6
:0653E0000895F894FFCFD0
:1053E6000303990704003200014000010100011087
:1053F6007F02FFFFFFFFFA00C409FA0001E803FF7E
:10540600FFFFFF00E100000000000000C1808100F6
:105416000000960197663534C69436F6F7963790AF
:1054260091939200000000D11A891A1A1B821A0061
:10543600000000A31E371E851E821A7D1EF6FF0081
:1054460000821E000000004A1F021F901FF31E006C
:1054560000000051209D2078207D2080209020672C
:10546600200D0A006E616E00696E66006F7666003A
:00000001FF
