:100000000C9401030C9444030C9444030C94440397
:100010000C9444030C9444030C9444030C94440344
:100020000C9444030C9444030C94B42B0C94572A62
:100030000C9444030C9444030C9444030C94440324
:100040000C9444030C9444030C9444030C94440314
:100050000C94C20C0C9444030C9444030C945A0367
:100060000C9444030C9444030C9444030C944403F4
:100070000C9444030C9444030C9444030C944403E4
:100080000C9444030C9444030C9444030C944403D4
:100090000C9444030C9444030C9444030C944403C4
:1000A0000C9444030C9444030C944403290014005E
:1000B0001A000800150017001C0018000C001200A0
:1000C00013002A00E20004001600070009000A00DD
:1000D0000B000D000E000F0033002800E1001D0092
:1000E0001B00060019000500110010003600370043
:1000F0003800E30000000000000000002C442B4406
:100100002C00E000000000000000000035001E0090
:100110001F002000210022002300240025002600CB
:1001200027000000E200B748B648CD48B548E94886
:100130000000000000002F0030003400E1001D012D
:100140001B01E0011901EA48E248000000002D000F
:100150002E00E30000000000000000002D44FFFF1F
:100160004C00E000000000000000000005443A00E0
:100170003B003C003D000000650046004700480091
:1001800000000000E2003E003F004000410000008F
:10019000000049004A004B0000000000E10042005E
:1001A000430044004500000000004C004D004E009C
:1001B0003100E3000000000000000000FFFF2D44BC
:1001C0002B00E000000000000000000004440000DC
:1001D000000000000000470054005F006000610064
:1001E0002D000000E2004A0052004D004B00390093
:1001F00055005C005D005E0057002800E1005000E3
:1002000051004F004E000000620059005A005B0090
:100210000000E3000000000000000000FFFFFFFFFF
:100220000000E00000000000000000002ED12FD1EF
:1002300030D131D132D133D150D151D152D153D12A
:1002400054D155D1C0D134D136D138D13AD13ED1A3
:1002500043D147D149D14BD14DD14FD1C1D135D166
:1002600037D139D13BD13FD144D148D14AD14CD1FA
:100270004ED156D100000000000000003CD13DD11D
:1002800045D146D100000000000000001E001E0005
:100290001E001E001E001E001E001E001E001E006E
:1002A0001E001E00C0D114001A000800150017001F
:1002B0001C0018000C00120013002F00C1D1040014
:1002C0001600070009000A000B000D000E000F00C9
:1002D0003300340000000000000000000600190098
:1002E000110010000000000000000000302E393125
:1002F0002E302B36380076657273696F6E000501FB
:100300000906A101050719E029E715002501750176
:10031000950881029501750881019505750105080B
:10032000190129059102950175039101950675083A
:10033000150025FF0507190029FF8100C0050C09DC
:1003400001A1018504150026FF0319002AFF03956A
:100350000475108100C005010906A1018508050783
:1003600019E029E7150025017501950881020508A6
:100370001901290895087501910205077504950171
:100380008101190429DD15002501750195D9810226
:10039000750395018101C005010980A1018505153D
:1003A0000026FF00190029FF950175088100C0652E
:1003B00073636170655F6F6E6573686F742E6361E0
:1003C0006E63656C5F6B6579004573636170654F43
:1003D0006E6553686F74006D6163726F732E747213
:1003E0006967676572006D6163726F732E6D61700E
:1003F0000044796E616D69634D6163726F7300656E
:100400006570726F6D2E65726173650065657072DF
:100410006F6D2E6672656500656570726F6D2E6317
:100420006F6E74656E7473002F0073657474696EFB
:1004300067732E6372630073657474696E67732EDD
:1004400076657273696F6E0073657474696E677335
:100450002E76616C69643F0073657474696E6773AE
:100460002E64656661756C744C61796572006B65AC
:10047000796D61702E6F6E6C79437573746F6D005A
:100480006B65796D61702E64656661756C74006B67
:1004900065796D61702E637573746F6D004545509D
:1004A000524F4D4B65796D61700068656C700066E8
:1004B000616C7365007472756500706C7567696E48
:1004C00073006465766963652E7265736574006890
:1004D000656C70000D0A2E004D6F7573654B657964
:1004E00073004F6E6553686F740051756B65797357
:1004F00000537061636543616465740047656D69AD
:100500006E69505200080B0002020200000904004C
:100510000001020200000524001001052401010170
:10052000042402060524060001070581031000408B
:1005300009040100020A0000000705020240000051
:100540000705830240000012010002EF020140EDA6
:10055000FE6060000101020301534F46542F4852D0
:1005600055460053706C69746F67726170687900EA
:100570000403090405010902A10185010509190106
:10058000290815002501950875018102050109302A
:10059000093109381581257F750895038106050CF9
:1005A0000A38021581257F750895018106C005016D
:1005B0000902A1010509190129081500250195085D
:1005C0007501810205010930093116000026FF7FFF
:1005D00075109502810209381581257F75089501EE
:1005E0008106C000CE05930C6C0EFD0EE80F461080
:1005F0001A174A191C1C3F224F24C2255C2C542E6A
:10060000282F11241FBECFEFDAE0DEBFCDBF04B626
:1006100003FE18C08091E0049091E104A091E204EF
:10062000B091E3048730904BA740B04B59F410923F
:10063000E0041092E1041092E2041092E304E0E07E
:10064000F8E3099511E0A0E0B1E0E2EFFFE502C0B8
:1006500005900D92AC3AB107D9F724E0ACEAB1E0CD
:1006600001C01D92A03EB207E1F712E0C1E0D3E065
:1006700004C02197FE010E946F2FC23FD107C9F726
:100680000E9447030C94F72F0C94000008950E94D9
:1006900019040E94460380E394E00E942C2C0E94DF
:1006A000B105C0E0D0E00E94C8052097E1F30E94A8
:1006B0000000F9CF1F920F920FB60F9211242F93C3
:1006C0003F938F939F93AF93BF938091AD01909190
:1006D000AE01A091AF01B091B0013091AC0123E027
:1006E000230F2D3758F50196A11DB11D2093AC01A4
:1006F0008093AD019093AE01A093AF01B093B00190
:100700008091B1019091B201A091B301B091B40177
:100710000196A11DB11D8093B1019093B201A093E8
:10072000B301B093B401BF91AF919F918F913F916D
:100730002F910F900FBE0F901F90189526E8230F52
:100740000296A11DB11DD2CF2FB7F8946091AD01D3
:100750007091AE018091AF019091B0012FBF0895CB
:100760003FB7F8948091B1019091B201A091B3018B
:10077000B091B40126B5A89B05C02F3F19F0019692
:10078000A11DB11D3FBFBA2FA92F982F8827BC01EB
:10079000CD01620F711D811D911D42E0660F771F13
:1007A000881F991F4A95D1F708958F929F92AF9213
:1007B000BF92CF92DF92EF92FF926B017C010E9479
:1007C000B0034B015C01C114D104E104F104E9F070
:1007D0000E945B2C0E94B003681979098A099B0961
:1007E000683E73408105910570F321E0C21AD1087B
:1007F000E108F10888EE880E83E0981EA11CB11C68
:10080000C114D104E104F10429F7FF90EF90DF90C7
:10081000CF90BF90AF909F908F90089582309105B8
:1008200038F0880F991F880F991F05970197F1F7E6
:100830000895789484B5826084BD84B5816084BD58
:1008400085B5826085BD85B5816085BDEEE6F0E049
:10085000808181608083E1E8F0E0108280818260A5
:100860008083808181608083E0E8F0E08081816026
:100870008083E1E9F0E08081826080838081816013
:100880008083E0E9F0E0808181608083E1ECF0E04A
:1008900080818460808380818260808380818160A8
:1008A0008083E3ECF0E0808181608083E0ECF0E025
:1008B000808182608083E2ECF0E0808181608083CF
:1008C000EAE7F0E0808184608083808182608083B9
:1008D000808181608083808180688083089508950D
:1008E0008CE0ECE4F1E0DB0101900D928A95E1F7F8
:1008F0008CE008958BEC93E00E94532482E393E014
:100900000E949C1782E693E00E94FE1E88E993E015
:100910000E94B82284E191E00E94861D87E091E068
:100920000E94D5198FEC92E00E94AE1081ED92E00A
:100930000E94F51280E0089588E293E00E94CF14AF
:1009400082E393E00E94921787E091E00E94E91908
:100950008FEC92E00E946E1080E0089588E293E0B0
:100960000E94CC1580E00895CF93DF93EC01BC0189
:1009700082E693E00E949021811107C0BE0188E9C0
:1009800093E0DF91CF910C94D723DF91CF9108951D
:10099000CF93DF93EC01BC0185E091E00E941D1133
:1009A00081112CC0BE018BEC93E00E946724811161
:1009B00025C02B81822F90E0982F88272A81280F2D
:1009C000392F311DC901805C914D0297F8F449819E
:1009D0003091B501205C81E090E001C0880F2A953C
:1009E000EAF741FF0EC040FD0CC0832B8093B50198
:1009F000833019F480E00E94900B81E0DF91CF9169
:100A00000895809583238093B501F7CFBE0184E1DB
:100A100091E00E943B1E8111F1CFBE0187E091E081
:100A20000E94331A8111EACFBE0181ED92E0DF917D
:100A3000CF910C94D212BC0187E091E00C94EB1999
:100A40000F931F93CF938C01BC0187E393E00E9427
:100A50000219C82F811139C0B80182E393E00E94C6
:100A60002E18C82F811131C0B80186E293E00E9490
:100A70007716C82F811129C0B80187E293E00E9440
:100A8000D415C82F811121C0B8018FEC92E00E94CB
:100A9000C210C82F811119C0B80181ED92E00E94E7
:100AA0000513C82F811111C0B80187E393E00E949C
:100AB000F718882379F066EF72E083ED93E00E94E7
:100AC000F12684E690E00E940E048C2FCF911F91B6
:100AD0000F91089546EF52E0B80187E393E00E943A
:100AE0004019882391F36CEE72E083ED93E00E944D
:100AF000C22684E690E00E940E0460E283ED93E05B
:100B00000E94E626DECF80E00895BC0186E193E0F6
:100B10000C948314CF93DF93EC01BC0184E191E04A
:100B20000E94291EBE0187E091E00E94271B80E001
:100B3000DF91CF91089587E393E00E94811982E6C7
:100B400093E00E94012288E993E00E94792384E1E6
:100B500091E00E949A1D87E091E00E94021B80E0D4
:100B600008958091590190915A010E94730A86E07C
:100B70000E94BB1781E08093980360E071E081EDF3
:100B800092E00E94A11380912C038F770C94900B1C
:100B90008091590190915A010C942C0B1092B5013F
:100BA000089589E392E00E94B90D88E792E00E94DF
:100BB0001E0F8AE592E00E94B50E80EC92E00C9444
:100BC0000910EBE5F1E050E040E070E060E000008B
:100BD0009191A92FB0E084E0B595A7958A95E1F7AA
:100BE00090962C9130E09F7002C0359527959A958C
:100BF000E2F72095309521703327042E02C0220F92
:100C0000331F0A94E2F7622B732B4F5F5F4F4C3018
:100C10005105E9F6CB0108951F93CF93DF93C9E007
:100C2000D2E010E0288139818A819B81482F440FCE
:100C30004270522F5170452B09F005C1AC015695F9
:100C40004795440F427021FB552750F9452B09F079
:100C5000EFC0AC015695479556954795440F4270A5
:100C600022FB552750F9452B09F0D7C0AC0156950A
:100C700047955695479556954795440F427023FBE7
:100C8000552750F9452B09F0BDC0AC01529542954E
:100C90004F7045275F704527440F427024FB55274E
:100CA00050F9452B09F0A3C0AC01569547955295D4
:100CB00042954F7045275F704527440F427025FBD2
:100CC000552750F9452B09F087C0AC010024440F8B
:100CD000551F001C440F551F001C452F502D440F5D
:100CE000427026FB552750F9452B09F06AC0AC012C
:100CF000440F452F441F550B5195440F427027FB5D
:100D0000222720F9422B09F052C0492F440F42708C
:100D1000232F2170422B09F040C031FB222720F9FC
:100D2000492F4270422B79F5492F4695427032FB8C
:100D3000222720F9422BE9F4292F269526952270A7
:100D400033FB442740F9422B59F4998388832A9630
:100D5000145F103309F066CFDF91CF911F91089592
:100D60006BE0610F80E090E00E94960C8A819B818D
:100D7000ECCF6AE0610F80E090E00E94960C398130
:100D80008A819B81D9CF69E0610F80E090E00E9469
:100D9000960C39818A819B81C7CF68E0610F80E022
:100DA00090E00E94960C39818A819B81B6CF67E0E2
:100DB000610F80E090E00E94960C39818A819B81CE
:100DC000A4CF66E0610F80E090E00E94960C28813D
:100DD00039818A819B818BCF65E0610F80E090E053
:100DE0000E94960C288139818A819B816ECF64E0B4
:100DF000610F80E090E00E94960C288139818A8101
:100E00009B8152CF63E0610F80E090E00E94960CDE
:100E1000288139818A819B8138CF62E0610F80E02F
:100E200090E00E94960C288139818A819B811ECF97
:100E300061E0610F80E090E00E94960C288139818A
:100E40008A819B8106CF612F80E090E00E94960C02
:100E5000288139818A819B81F1CE89E392E00E94C9
:100E6000BA0D811104C089E392E00C94BD0D88E7AE
:100E700092E00E942E0F8AE592E00C94DE0E89E348
:100E800092E00E94BA0D811104C089E392E00C94B3
:100E9000580E88E792E00E94E20F8AE592E00C94F7
:100EA000CB0ECF93C82F89E392E00E94BA0D6C2F2E
:100EB000811105C089E392E0CF910C94F90D88E788
:100EC00092E0CF910C94920FCF93C82F83FF03C071
:100ED00081EE0E945107C0FF03C080EE0E945107BF
:100EE000C1FF03C082EE0E945107C2FF03C086EE1D
:100EF0000E945107C4FF04C083EECF910C945107A8
:100F0000CF910895CF93C82F892F0E9464078C2F0B
:100F1000CF910C945107CF93C82F89E392E00E94A0
:100F2000BA0D6C2F811105C089E392E0CF910C942A
:100F3000200E88E792E0CF910C94B90FFC019081CC
:100F4000DB018C91981305C081E0218111969C9161
:100F5000291380E008951F93CF93DF9300D000D032
:100F6000CDB7DEB7182F803368F5E82FF0E0EE0F2D
:100F7000FF1FE55CFB4F808191819C838B838FEF0A
:100F800089838A83BE016F5F7F4FCE0103960E94E3
:100F90009E07882369F0A12FB0E0A454BE4FE091D2
:100FA0000201F0910301612F8C9109958B839C8341
:100FB0008B819C810F900F900F900F90DF91CF91BC
:100FC0001F91089510929B0410929C04EBE9F4E0A9
:100FD000D2CFCF93DF93EB01CB010E941B05823070
:100FE00019F1D63419F4C770C052D0E08D2F807C2F
:100FF00051F480E28C0F883008F0D0E0CE01DF9110
:10100000CF910C9482078D2F887C883469F46D2FE2
:1010100070E0762F66276C0F711D73708AE592E081
:10102000DF91CF910C94B60EDF91CF9108958F92FE
:101030009F92BF92CF92DF92EF92FF920F931F93F6
:10104000CF93DF9300D000D000D0CDB7DEB77C01C6
:101050006B010E943F0710E000E0BB24BA9400330C
:10106000110599F1F6019081901729F1003330F5BF
:10107000F801EE0FFF1FE55CFB4F808091809E82A0
:101080008D82BB82BC82BE016D5F7F4FCE01059613
:101090000E949E0781110FC019821A82BE016F5FE4
:1010A0007F4FCE0105960E949E07811104C0B401B6
:1010B000C7010E94E9070F5F1F4FD1CF10929B0419
:1010C00010929C04EBE9F4E0D8CF26960FB6F89482
:1010D000DEBF0FBECDBFDF91CF911F910F91FF906B
:1010E000EF90DF90CF90BF909F908F900895EF92F8
:1010F000FF920F931F93CF93DF938C01EB018981B4
:1011000081FF43C080FD41C08B81807CF1F58881E7
:1011100080930101FA8089E392E00E94BA0D6F2D5D
:1011200081112EC089E392E00E945F0E882301F1B5
:10113000FB80EA80F3FE03C081EE0E948B07F0FE85
:1011400003C080EE0E948B07F1FE03C082EE0E9476
:101150008B07F2FE03C086EE0E948B07F4FE03C0ED
:1011600083EE0E948B078E2D0E948B070E942D0715
:101170008B81882379F00E9464070E942D070AC0A2
:1011800088E792E00E947C0FD1CFE0910101888135
:10119000E81317C0898181FF07C080FD05C06A81FF
:1011A0007B81C8010E94E907CE010E94850582303B
:1011B000E9F0DF91CF911F910F91FF90EF900C9488
:1011C0002D07E03360F4F0E0EE0FFF1FE55CFB4F0E
:1011D0008181982F907CF1F60E946407DBCF1092FA
:1011E0009B0410929C04EBE9F4E0F2CFDF91CF91E5
:1011F0001F910F91FF90EF900895FF920F931F930F
:10120000CF93DF93CDB7DEB72D970FB6F894DEBF3F
:101210000FBECDBF8C0129873A874B875C876D87CE
:10122000203348F430FF75C031FD73C089850E94BA
:10123000AB079C878B87CE0109960E94C804823039
:1012400009F45BC0E985E03368F49A85F0E0EE0FBD
:10125000FF1FE55CFB4F90FF69C091FD67C09FEFEA
:1012600090839183811149C01F821886BE01695FF6
:101270007F4FCE010B960E949E0781113EC01D82BA
:101280001E82BE016B5F7F4FCE010B960E949E07B0
:10129000811133C0FF24FA94FB82FC82BE016D5F92
:1012A0007F4FCE010B960E949E07811126C0F982C6
:1012B000FA82BE016F5F7F4FCE010B960E949E07A0
:1012C00081111BC08C858D7F843421F4CE01099659
:1012D0000E94070C8C85843481F08F7C813499F5D1
:1012E0008A851B8581FF26C080FD24C0612F80EC8C
:1012F00092E00E942E10109301022D960FB6F894E2
:10130000DEBF0FBECDBFDF91CF911F910F91FF9038
:1013100008958FEF89838A83BE016F5F7F4FCE016F
:101320000B960E949E07811181CF85CF9C852B85CE
:10133000208397CF809101028113DFCF80EC92E070
:101340000E942C10DACFBE01675F7F4FC8010E9458
:101350001708BE01675F7F4FC8010E947708CE0162
:1013600009960E948A05C9CFEF92FF920F931F93AF
:10137000CF93DF9300D000D000D01F92CDB7DEB75F
:10138000022F2B833C834D835E836F83203308F0D1
:1013900042C07C01832F817031FF22C081113BC08C
:1013A0008FEF89838A83BE016F5F7F4FCE010596E1
:1013B0000E949E07882329F0802F0E94AB079E83FE
:1013C0008D83CE0103960E94B404811124C02B8129
:1013D0003C814D815E816F81C7010E94FD081BC069
:1013E0008823C9F010E0000F111F055C1B4FF801A6
:1013F000808191819E838D8319821A82BE016F5FE5
:101400007F4FCE0105960E949E078823D1F28FEF71
:10141000F8018083818327960FB6F894DEBF0FBE54
:10142000CDBFDF91CF911F910F91FF90EF90089565
:10143000CF930FB6F894A89580916000886180934F
:101440006000109260000FBEABE5B1E047E651E0EE
:1014500061E070E08D91E82FF0E024E0F595E795EC
:101460002A95E1F7C1A18F709B0101C0220F8A95D7
:10147000EAF7922F90959C2391A382A1822B82A3BD
:101480004A175B0739F7A7E6B1E04BE651E061E0A8
:1014900070E08D91E82FF0E094E0F595E7959A954E
:1014A000E1F791A18F709B0101C0220F8A95EAF7A5
:1014B000922B91A382A1822B82A34A175B0749F743
:1014C00080E1809381001092800080EE9EE29093F4
:1014D00087008093860081E18093810081E0809382
:1014E0006F00CF91089585B7806885BF85B7806804
:1014F00085BF0E94D10584E092E00E94180A40E86E
:1015000055E260E070E083ED93E00E94BC250E940C
:101510006F040E949C04EBE3F4E081E39FEF8150B1
:1015200021F0908391833296FACF8BEB91E00C946B
:101530008E0B6F927F928F929F92AF92BF92CF92BB
:10154000DF92EF92FF920F931F93CF93DF9327E6E3
:10155000E22E21E0F22EC9E0D2E03BE6632E31E03C
:10156000732E912C812CAA24A394B12CF701819184
:101570007F01082F10E0159507951595079515958E
:10158000079515950795F80192A18F70650101C027
:10159000CC0C8A95EAF7892F8C2582A30E94E1055D
:1015A000F80122A1C226C2A2488559858427952721
:1015B0006C817D812E813F8126273727282339237F
:1015C0003F832E83FB01E095F095E823F923FD830B
:1015D000EC838623972320953095822393234827F5
:1015E000592759874887882A992A8114910401F13B
:1015F000809111029091120290930C0280930B0241
:1016000080911B0290911C02909316028093150208
:1016100080912502909126029093200280931F02D0
:1016200080912F029091300290932A028093290298
:101630002A966E147F0409F099CFDF91CF911F9104
:101640000F91FF90EF90DF90CF90BF90AF909F9061
:101650008F907F906F9008950E94A4036093B701CC
:101660007093B8018093B9019093BA010E94AE04BF
:1016700080910402882331F01092040284E092E009
:101680000E94990A0E940C060C949B0570E090E35E
:10169000899F600D711D1124660F771FFB01E455B2
:1016A000FF4F8491FB01E355FF4F94910895EF9212
:1016B000FF920F931F93CF93DF93ECEBF1E080E366
:1016C000DF011D928A95E9F77F0100E00033F9F010
:1016D000C0910401D0E0C451DE4FB1E0CC3EDB0745
:1016E00089F01A911A3208F01A52E0910201F09131
:1016F0000301602F812F09958F3F11F49F3F69F3FC
:10170000F70110830F5FFFEFEF1AFF0ADFCFDF91C2
:10171000CF911F910F91FF90EF9008950C94570B6C
:1017200090910001891748F491E09093040180930F
:10173000EC010E94570B0C9483050895CF93C09140
:10174000040190E0BC016F5F7F4F4C2F50E0461BBF
:10175000570B64517E4F84519E4F0E94CF2FC15032
:10176000C0930401CF9108954091040150E090E0AE
:10177000682F70E0292F092E000C330B2417350732
:1017800064F424513E4FF9012081022E000C330BEA
:101790002617370719F09F5FEDCF9FEF892F089528
:1017A000CF9396ED980F8A3208F4982F209100017C
:1017B0009217C8F4C82F0E94B40B87FF0E949E0B9B
:1017C000E0910401E03110F080E0F8CF81E08E0F6D
:1017D00080930401F0E0E451FE4FC0830E94570B58
:1017E000CF910C948305CF9108950E94B40B87FD8F
:1017F0000DC090910401923018F480E00C94900B8D
:101800000E949E0B0E94570B0C94830508950F9322
:101810001F93CF938C01DC011296CC9112971196F5
:101820008C911197982F927013962C91263459F51C
:10183000C695C695C695C65D26ED2C0F35EB3C0FBB
:10184000323008F061C09923D1F080FD18C0E091DA
:101850000401F0E0E551FE4F80812232D1F58F5F27
:10186000909100018917B8F1D801EC91E03338F478
:10187000F0E0EE0FFF1FE55CFB4F10821182CF916D
:101880001F910F910895C43558F09923C1F380FD3D
:10189000F6CF8CEA8C0FCF911F910F910C94900B87
:1018A000CA3250F6992359F380FDE9CF8C2F0E945C
:1018B000B40B082E000C990B209104012150330B1E
:1018C0008217930751F58C2FCF911F910F910C9494
:1018D000F50B8150C5CFCAE2C80F8C2F0E94D00BE8
:1018E000D801EC91E03348F4F0E0EE0FFF1FE55C27
:1018F000FB4FC08384E48183C2CF10929B0410927B
:101900009C04EBE9F4E0F5CF9923E9F280FDDBCF0D
:101910008C2F0E94B40B87FFB2CF8C2FCF911F91D9
:101920000F910C94D00B109201020895CF93DF9386
:1019300000D000D01F92CDB7DEB7262F342F842FD2
:10194000817041FF15C0811115C080913A0461E09A
:10195000680F60933A044FEF5FEF86EB91E00F90D2
:101960000F900F900F900F90DF91CF910C94B409CE
:101970008111EBCF0F900F900F900F900F90DF9190
:10198000CF9108951F920F920FB60F9211248F934B
:1019900081E0809304028F910F900FBE0F901F90F3
:1019A0001895FC0182818F5BFB01808381E00895A3
:1019B000CF93DF93CDB7DEB769970FB6F894DEBF4C
:1019C0000FBECDBFFC01DB019C919F5F9C939E01EC
:1019D0002D5F3F4F81E1D9011D928A95E9F729E0FA
:1019E000298384E08A8391E09D8383E08E839F83B3
:1019F00098872A8721E22B879C879D879F8722E2F1
:101A0000288B2FE3298B27E02B8B25E02C8B8E8BCB
:101A100020E430E0388F2F8B998F82818B838381F4
:101A200080688D8B49E150E0BE016F5F7F4F80E0A1
:101A30000E94062A69960FB6F894DEBF0FBECDBF8E
:101A4000DF91CF910895FC01DB018C918138A9F4DD
:101A500013968C911397823281F4228114968D9182
:101A60009C912817190649F48285848F4FE350E032
:101A70006EEF72E080E80C94062A90E080E0089512
:101A80000F931F93CF93DF9300D0CDB7DEB7FC0148
:101A9000DB01228114968D919C91159728171906C8
:101AA00009F047C011968C9111979C91913A99F445
:101AB000813029F0833059F4848D8093F10081E0E6
:101AC0000F900F90DF91CF911F910F910895823069
:101AD00081F5858DF2CF913261F58B3021F412962C
:101AE0008C91848FECCF8A3011F4158EE8CF893039
:101AF00001F58F0116968D919C91179713962C9155
:101B0000223061F40197A9F461E070E0CE01019602
:101B10000E942C2A8981F801868FD1CF213049F487
:101B2000089739F468E070E0CF010B960E942C2AE8
:101B3000C6CF80E0C5CFCF93DF93EC0181E08C83EB
:101B40008D839E01255E3F4F3F832E831986188625
:101B50002FE631E0398328836A876C8F8D8F1E8E44
:101B600081EC8B8F0E949F26BE01DF91CF910C9458
:101B70005B260895FC01848D0895EF92FF920F93E8
:101B80001F93CF93DF938C01EC012B967C0183E1B3
:101B9000E80EF11C48E050E0BE01C7010E94B92FD9
:101BA000892B21F1F801838148E050E0BE01806477
:101BB0000E9455298C01E0915802F091590230970A
:101BC00031F09C0148E050E0BE0182E0099588E0D8
:101BD000FE01D70101900D928A95E1F7C801DF91CE
:101BE000CF911F910F91FF90EF9008950FEF1FEF8E
:101BF000F5CFFC0180E2860F883070F4605E770BD1
:101C000021E030E001C0220F6A95EAF78385822B3C
:101C1000838781E090E00895DF011D9690E080E0E9
:101C20002D912617B1F3211104C0E80FF91F658724
:101C3000F0CF01968630910599F790E080E0089505
:101C4000CF93DF9320E2260F283090F4605E770B6D
:101C500021E030E001C0220F6A95EAF72095FC01EF
:101C600033852323238781E090E0DF91CF9108958E
:101C7000DC011D969C012D5E3F4FFD0141914613F5
:101C800003C0EF0121971882E217F307B9F720E0AC
:101C90003D91332349F0EC01C20FD11D4D853D87A5
:101CA000ED01219748832F5FAE17BF0789F7DBCF80
:101CB0000B9628E0FC0111922A95E9F70895FC01A2
:101CC0003D9643962191261729F0E817F907D1F799
:101CD00080E0089581E00895209131023091320230
:101CE0004091330250913402609135027091360276
:101CF0008091370290913802A1E00E948F2F2093AB
:101D00003102309332024093330250933402609395
:101D100035027093360280933702909338020E9406
:101D20009B2F29F461E089E392E00C949B0D0895C8
:101D300080916A02811113C0109273021092720294
:101D40008DE393E0909375028093740289E190E0B3
:101D5000909377028093760281E080936A020E94DA
:101D6000EC2D62E772E00C94592D0895FC0130E0EF
:101D700020E041915191452B41F4220F331F280F50
:101D8000391FF9017183608308952F5F3F4F24301D
:101D9000310579F7089528E0FC0111922A95E9F7B9
:101DA0000895CF93DF93EC010E94EC2D28E030E002
:101DB000AE0164E0DF91CF910C94A92D0F931F9396
:101DC000CF93DF93EC018C01085F1F4F48E050E098
:101DD000BC01C8010E94B92F892B51F0CE010E948D
:101DE000D10E88E0FE01D80101900D928A95E1F7AD
:101DF000DF91CF911F910F9108958AE592E00C94A5
:101E0000980E8091B202811113C01092BB02109201
:101E1000BA0286E593E09093BD028093BC0281E410
:101E200090E09093BF028093BE0281E08093B20263
:101E30000E94EC2D6AEB72E00C94592D0895CF931B
:101E4000DF93EC010E94EC2DAE01435E5F4F2DE16C
:101E500030E068E0DF91CF910C94A92DEF92FF92D2
:101E60000F931F93CF93DF93EC01F8808D8D8E013C
:101E70000F5F1F4F8F15D9F0F801AE01435E5F4F22
:101E800020E0858D30813196932F9095982319F01D
:101E90008323848F21E0E417F50799F7222319F0B3
:101EA000CE010E941F0FFD8ECE010E941F0F7E01EA
:101EB0008EE1E80EF11C4CE150E0B801C7010E9430
:101EC000B92F892B81F08CE1F801D70101900D9297
:101ED0008A95E1F7CE01DF91CF911F910F91FF908D
:101EE000EF900C941F0F8FEF9FEFDF91CF911F9119
:101EF0000F91FF90EF9008956E3D90F4E62FE695D8
:101F0000E695E695E80FF92FF11D677021E030E0C6
:101F100001C0220F6A95EAF79181922381E009F4CA
:101F200080E008956E3DA0F4E62FE695E695E695EF
:101F3000E80FF92FF11D677021E030E001C0220F9A
:101F40006A95EAF78181822B818381E090E0089590
:101F5000605E683058F441E050E001C0440F6A957B
:101F6000EAF7FC012081242B2083EFCF90E080E072
:101F700008956E3DA8F4E62FE695E695E695E80F00
:101F8000F92FF11D677021E030E001C0220F6A9542
:101F9000EAF7209581812823218381E090E008954C
:101FA000605E683060F421E030E001C0220F6A9585
:101FB000EAF72095FC01308123232083EECF90E0C7
:101FC00080E008952DE1FC0111922A95E9F708952A
:101FD00088E792E00C94010F8091C102811113C037
:101FE0001092CA021092C90287E993E09093CC0242
:101FF0008093CB0288E190E09093CE028093CD0253
:1020000081E08093C1020E94EC2D69EC72E00C9497
:10201000592D08950F931F93CF93DF93EB018A01FE
:102020000E94EC2D9801AE0165E0DF91CF911F91E8
:102030000F910C94A92DCF93DF931F92CDB7DEB7EC
:10204000198241E050E0BE016F5F7F4F0E940A108D
:102050000F90DF91CF9108950C941B10CF93DF93D5
:102060001F92CDB7DEB76983633841F480E394E013
:102070000E943F2C0F90DF91CF91089541E050E0F6
:10208000BE016F5F7F4F0E940A10F4CF80EC92E098
:102090000C94EC0FFF920F931F93CF93DF93EC01FF
:1020A0008B01FB01F0800E94E12FF81621F06F2DCB
:1020B000CE010E94E92FF801F1802196CE010E9405
:1020C000E12FF81621F06F2DCE010E94E92FC801F3
:1020D000DF91CF911F910F91FF900895CF92DF92E2
:1020E000EF92FF920F931F93CF93DF937C0162E0F7
:1020F00070E088E293E00E941D15EC01F7019183E6
:1021000080838C016C01F2E0CF0ED11C0C151D05F3
:1021100040F4C8010E94E12F8F3F41F40F5F1F4F31
:10212000F5CF65E071E0CE010E944A10F701C08151
:10213000D181CE010E94E12F80930501CE0101964D
:102140000E94E12F8093060180E0DF91CF911F91E3
:102150000F91FF90EF90DF90CF90089569EC73E0BE
:1021600083ED93E00E94C22684E690E00E940E0474
:1021700083ED93E00E94ED2684E690E00E940E0439
:1021800080E008950F931F93CF93DF93EC018B01B1
:1021900087E393E00E94F718882361F06FEA73E009
:1021A00083ED93E00E94F12684E690E00E940E0405
:1021B00080E032C04FEA53E0B80187E393E00E9429
:1021C00040198823A9F387E393E00E944D198823DF
:1021D00041F16091060170E0762F6627809105013C
:1021E000680F711D4AE050E083ED93E00E94632781
:1021F00084E690E00E940E0460E283ED93E00E948A
:10220000E62684E690E00E940E0465E071E0888195
:1022100099810E944A1081E0DF91CF911F910F9127
:10222000089541E070E060E083ED93E00E94D127E3
:102230006093050170930601E8CFCF93DF93DC0133
:10224000EB019A818C91981305C02B8111968C918A
:10225000281749F09E3721F080E0DF91CF91089553
:102260008B81813DC9F7898181FFF6CF80FDF4CF55
:1022700087FDF2CF84E191E00E94911C882361F3F5
:1022800061E084E191E00E94F81C1A821B8281E0E7
:10229000E4CF84E690E00C940E040C94E12F8F922E
:1022A0009F92AF92BF92CF92DF92EF92FF920F93E5
:1022B0001F93CF93DF938C01FC01E080F1801582A6
:1022C0001482C280D380CE0CDF1C4701B12C8C1449
:1022D0009D0408F04BC0E4012196C4010E944D11F9
:1022E0008E3008F043C0E82FF0E0E758FE4E0C9423
:1022F0006F2FA811871187118B118B118B118711EB
:10230000871187118911891189118E119D11E4019D
:1023100022964E01DCCFE4012396FBCF4E01CE0185
:102320000E944D11A82E2296C40101960E944D11C3
:10233000A110F4CF8111F2CFECCF2C2F9D2F21963D
:10234000822F0E944D112C2F9D2F8111F8CFE1CFAC
:10235000B394EB2DF0E03296EE0FFF1FE00FF11F6C
:10236000CE018E199F0991838083D3CF8B2DDF916E
:10237000CF911F910F91FF90EF90DF90CF90BF9082
:10238000AF909F908F9008958F929F92AF92BF923F
:10239000CF92DF92EF92FF920F931F93CF93DF9331
:1023A000FC01EC5BFF4F2081621708F0DFC07C016D
:1023B000E62FF0E03296EE0FFF1FEE0DFF1DD70166
:1023C0000D911C9180819181080F191FD12CF7016B
:1023D0008081918122813381820F931F0817190711
:1023E00008F0C4C0E8012196C8010E944D11815037
:1023F0008D3008F0BBC0E82FF0E0EF5FFD4E0C948D
:102400006F2F2D123C12481259126A127B1287123A
:1024100093123412341234120E129F128D2C912CFE
:10242000B12CA12CCE010E944D11C82E8E010E5F41
:102430001F4FCE0101960E944D11811102C0CC2088
:1024400091F0682F7C2D86E193E00E945E14C50117
:10245000B4010E94D503E801E5CF0E5F1F4FCE0106
:102460000E944D11D82EE8016D2D70E090E080E0C3
:102470000E94D5038E01ABCF0E5F1F4FCE010E948D
:102480004D11682F70E090E080E00E94D503EBCF03
:10249000CE010E944D11C82EE8012396C801029674
:1024A0000E944D11682F7C2D86E193E00E94BA13A3
:1024B000DBCFCE010E944D11C82EE8012396C80142
:1024C00002960E944D11682F7C2D86E193E00E94B8
:1024D000F513CACFCE010E944D11C82EE8012396F4
:1024E000C80102960E944D11682F7C2D86E193E071
:1024F0000E945E14B9CF0E5F1F4FCE010E944D1196
:10250000682F70E086E193E00E94BA13ACCF0E5FB3
:102510001F4FCE010E944D11682F70E086E193E0BD
:102520000E94F513A0CF0E5F1F4FCE010E944D11E8
:10253000682F70E086E193E00E945E1494CFCE0194
:102540008D2C912CB12CA12C21960E944D11882309
:1025500009F48ACF682F70E086E193E00E945E1450
:10256000C501B4010E94D503CE01EECFDF91CF911A
:102570001F910F91FF90EF90DF90CF90BF90AF90A1
:102580009F908F900895292F30E0322F222790E0DE
:102590008C55914D280F391F81E02032310508F00C
:1025A00080E008950F931F93CF93DF938C01EB018D
:1025B0008A819B810E94C3128823A9F0898181FFAF
:1025C0000DC080FD0BC06A816C55C8010E94C4110A
:1025D00081E0DF91CF911F910F91089586E193E003
:1025E0000E941D14F5CF80E0F4CF61EF73E083ED1E
:1025F00093E00E94C2260E94491183ED93E00E945D
:10260000ED260E94491180E00895CF92DF92FF925B
:102610000F931F93CF93DF93EC018B0187E393E03C
:102620000E94F718882391F066EE73E083ED93E043
:102630000E94F1260E94491167ED73E083ED93E05B
:102640000E94F1260E94491180E05EC046EE53E0F0
:10265000B80187E393E00E944019882309F45CC025
:1026600087E393E00E944D1910E000E08823F9F021
:102670008A819B810817190708F045C088819981D4
:10268000800F911F0E944D114AE050E0682F83EDAA
:1026900093E00E945C270E94491160E283ED93E081
:1026A0000E94E6260E9449110F5F1F4FE1CF87E38A
:1026B00093E00E944D19811120C08A819B810817E7
:1026C0001907D8F441E070E060E083ED93E00E94E8
:1026D000D127F62E68018FEFC81AD80A8881998110
:1026E000080F191FC8010E94E12FF81621F06F2D65
:1026F000C8010E94E92F8601DACFCE010E944F1156
:10270000CC5BDF4F888381E0DF91CF911F910F91E8
:10271000FF90DF90CF90089547ED53E0B80187E335
:1027200093E00E944019882309F48ECF41E070E0C5
:1027300060E083ED93E00E94D127CE010E94C41196
:10274000E2CF0F931F93CF93DF93EC018B0188E2CD
:1027500093E00E941D15998388831B830A83CE0111
:102760000E944F11CC5BDF4F8883DF91CF911F9187
:102770000F910895EF92FF920F931F93CF93DF93E2
:1027800000D000D01F92CDB7DEB78C01F62EE72E19
:1027900060913A048FEF898382E88A83FB827C838D
:1027A0006D832FEF32E84F2D572F86EB91E00E947B
:1027B000FD08C8014096F801E817F90741F02081AB
:1027C000211111C0218121110EC0F082E1820F90F0
:1027D0000F900F900F900F90DF91CF911F910F915D
:1027E000FF90EF9008953296E7CFCF93DF9300D01C
:1027F00000D01F92CDB7DEB7AB019C01205F3F4FE9
:10280000FC012E173F0751F08081841305C08181A0
:10281000851302C0108211823296F3CF60913A0480
:102820002FEF31E886EB91E00F900F900F900F9013
:102830000F90DF91CF910C94FD08CF92DF92EF9231
:10284000FF920F931F93CF93DF9300D000D01F927E
:10285000CDB7DEB77C0120E1E20EF11C8C01DD2456
:10286000DA9481E8C82EE016F106D1F0F801408133
:102870005181411102C0552381F060913A04D982FF
:10288000CA824B835C836D832FEF31E886EB91E046
:102890000E94FD08F801108211820E5F1F4FE3CFE6
:1028A0000F900F900F900F900F90DF91CF911F918D
:1028B0000F91FF90EF90DF90CF9008950F931F93AB
:1028C000CF93DF9300D000D01F92CDB7DEB78B013E
:1028D00060913A042FEF32E8A80186EB91E00E9464
:1028E000FD0860913A042FEF31E8A80186EB91E0F2
:1028F0000F900F900F900F900F90DF91CF911F913D
:102900000F910C94FD080F931F93CF93DF938C01CD
:10291000005F1F4FEC010C171D0771F06881798172
:1029200089819881911102C0882321F086EB91E082
:102930000E94E9072296EFCF80E0DF91CF911F91AF
:102940000F91089584E690E00C940E044AE050E064
:10295000682F83ED93E00E945C270E94A21460E23E
:1029600083ED93E00E94E6260C94A214FF920F934D
:102970001F93CF93DF93EC01F62E08811981C801D4
:102980000E94E12FF81621F06F2DC8010E94E92F57
:10299000CE01DF91CF911F910F91FF900895AF92DB
:1029A000BF92CF92DF92EF92FF920F931F93CF933C
:1029B000DF9300D0CDB7DEB78C016C0184E0C80E88
:1029C000D11C5601F12CE12CC7010E94E12FF50129
:1029D00081935F01FFEFEF1AFF0A84E0E816F1042C
:1029E00099F7F80185818F3FD1F48481982F9F77E3
:1029F0009F3711F487FD148281E0F801858310E090
:102A000000E01A830983F60161916F01CE010196FE
:102A10000E94B6140F5F1F4F0430110591F780E03C
:102A20000F900F90DF91CF911F910F91FF90EF903A
:102A3000DF90CF90BF90AF9008950F931F93CF93E7
:102A4000DF9300D0CDB7DEB77A836983FC012381A1
:102A500010E000E021110FC000811181CB01800F37
:102A6000911F9183808342E0BE016F5F7F4F80E3BF
:102A700093E00E943A17C8010F900F90DF91CF9119
:102A80001F910F910895CF92DF92EF92FF920F93D3
:102A90001F93CF93DF9300D0CDB7DEB77C016C01DD
:102AA00084E0C80ED11C10E000E01A830983F6010F
:102AB00061916F01CE0101960E94B6140F5F1F4F06
:102AC0000430110591F781E0F70182830F900F9098
:102AD000DF91CF911F910F91FF90EF90DF90CF90FA
:102AE00008951F93CF93DF93EC01162F809100017F
:102AF000681748F4862F0E94900B8C818078912F64
:102B00009F77892B8C831E3720F08C8180788E678D
:102B10008C83CE010E9443158C818F77DF91CF91FA
:102B20001F910895FC01948160FB97F99483892F8C
:102B30008F778F3719F490789E679483CF010C9428
:102B40004315CF93DF93EC0181E08B8360E180E359
:102B500093E00E9421178D81813021F01A82DF914C
:102B6000CF9108952E813F81809130039091310360
:102B70002F3F320769F49F838E83CE010E94431555
:102B80008C818F778E3758F7DF91CF910C94900B13
:102B90002817390721F7F4CFFC012381211102C046
:102BA0000E94A11580E00895CF93DF93EB0187E3A6
:102BB00093E00E94F718882311F168E574E083ED33
:102BC00093E00E94F1260E94A21468E474E083ED71
:102BD00093E00E94F1260E94A21467E374E083ED63
:102BE00093E00E94F1260E94A2146AE274E083ED51
:102BF00093E00E94F1260E94A21480E061C048E5A3
:102C000054E0BE0187E393E00E944019882391F0CD
:102C100087E393E00E944D19811165C041E070E0A7
:102C200060E083ED93E00E94D12788E293E00E9468
:102C3000711545C048E454E0BE0187E393E00E946B
:102C40004019811140C047E354E0BE0187E393E09F
:102C50000E94401981112FC04AE254E0BE0187E36F
:102C600093E00E944019882341F280912B03D0E029
:102C7000C0E0882321F0C0912E03D0912F036091F2
:102C80003003709131034AE050E083ED93E00E94FD
:102C900063270E94A21468E274E083ED93E00E942F
:102CA000C2260E94A2144AE050E0BE0183ED93E0E8
:102CB0000E94632715C080912D030E94A61481E015
:102CC000DF91CF91089560912A0387E393E00E94FA
:102CD000EC180E94A21460E283ED93E00E94E626C5
:102CE0000E94A214ECCF80912C038F77E6CF0F9334
:102CF0001F93CF93DF9300D0CDB7DEB78B0187E36F
:102D000093E00E94F718882301F168E174E083EDF5
:102D100093E00E94F1260E94A2146CE074E083ED1F
:102D200093E00E94F1260E94A2146FEF73E083EDFE
:102D300093E00E94F1260E94A21480E00F900F9071
:102D4000DF91CF911F910F91089548E154E0B801B0
:102D500087E393E00E944019882311F187E393E011
:102D60000E944D1910E000E0811158C087E393E004
:102D70000E944D19811150C041E070E060E083ED88
:102D800093E00E94D1271A830983CE0101960E9405
:102D9000B6140F5F1F4F011584E0180739F73CC0C8
:102DA0004CE054E0B80187E393E00E9440198111A0
:102DB0001CC04FEF53E0B80187E393E00E94401935
:102DC00010E000E0882309F4B9CF1A8309836FEF7C
:102DD000CE0101960E94B6140F5F1F4F011584E0CB
:102DE000180799F70E94612C17C0809128039091D1
:102DF000290360E074E0681B790B4AE050E083ED42
:102E000093E00E9463270E94A21460E283ED93E0A6
:102E10000E94E6260E94A21481E090CFC8010E9481
:102E2000E12F0E94A6140F5F1F4F011584E01807C1
:102E3000A9F7F2CF84E090E09093290380932803D0
:102E40000895FC01208131812170332781E08617AC
:102E500070F4408151815695479551834083220FEC
:102E6000331F41705527242B352B8F5FF0CF3183D3
:102E700020830895DC01FB01415000F181912D91E7
:102E80003C91119768E070E051E0982F952399F4F8
:102E9000932F991F9927991F220F331F992319F0F8
:102EA00095E029273058550F6150710971F7119637
:102EB0003C932E93E1CF932F9095EBCF089584E62A
:102EC00090E00C940E041F93CF93DF939091340302
:102ED000891730F080E090E0DF91CF911F91089545
:102EE000C62FD0E090E3899FC00DD11D1124CC0FD7
:102EF000DD1F6091350370913603C60FD71FCE01D9
:102F00000E94E12F182FCE0101960E94E12F912FF0
:102F1000E3CF90913303891710F40C94460B891B6F
:102F20000C94631788E293E00E94CF148091000113
:102F30008093330380E008956DE974E083ED93E0BE
:102F40000E94C2260E945F1783ED93E00E94ED2647
:102F50000E945F1780E008958093340390E6899F74
:102F6000B001112488E293E00E941D15909336036E
:102F70008093350308958093000190912C0323E6FC
:102F800037E197FD07C090913303980F90930001AC
:102F900029E837E130930301209302010C94AC1728
:102FA000FF920F931F93CF93DF9300D0CDB7DEB77F
:102FB000F62E672F8C01000F111F80913503909121
:102FC0003603800F911F9A838983CE0101960E9458
:102FD000B61480913503909136030196800F911FAE
:102FE0009A8389836F2DCE0101960E94B6140F90AB
:102FF0000F90DF91CF911F910F91FF900895FF9255
:103000000F931F93CF93DF93F82E8B01C0E0CF1562
:10301000F9F0D0E06D2F8C2FF8010995692F70E041
:10302000762F6627680F711D4AE050E083ED93E02C
:103030000E9463270E945F1760E283ED93E00E9485
:10304000E6260E945F17DF5FD03321F7CF5FDFCF27
:10305000DF91CF911F910F91FF900895FF920F93F1
:103060001F93CF93DF931F92CDB7DEB78B0187E31A
:1030700093E00E94F718882301F16FE874E083ED74
:1030800093E00E94F1260E945F1760E874E083EDF0
:1030900093E00E94F1260E945F176EE674E083EDD4
:1030A00093E00E94F1260E945F1780E00F90DF916D
:1030B000CF911F910F91FF9008954EE654E0B80113
:1030C00087E393E00E9440198823F1F187E393E0BE
:1030D0000E944D198823B1F060912C0367FB66278D
:1030E00060F94AE050E083ED93E00E945C270E9483
:1030F0005F1760E283ED93E00E94E6260E945F176F
:1031000081E0D4CF41E070E060E083ED93E00E9485
:10311000D127162F698388E293E00E94921590913F
:10312000340390930001112339F083E697E19093E3
:10313000030180930201E4CF80913303890F8093D0
:10314000000189E897E1F3CF40E854E0B80187E354
:1031500093E00E944019882339F066E47BE0809177
:1031600033030E94FF17CCCF4FE854E0B80187E348
:1031700093E00E944019882309F497CF87E393E0F6
:103180000E944D1910E000E090E3F92E882329F009
:1031900063E677E180913403E4CF87E393E00E9414
:1031A0004D198111ADCF809134038F9DC001112441
:1031B0000817190708F0A4CF41E070E060E083ED44
:1031C00093E00E94D127272F3327722FC8010E9436
:1031D000D0170F5F1F4FE1CF611106C06FEA74E097
:1031E00083ED93E00C94C22665EB74E0F9CFCB013C
:1031F0006AEA74E00E94B02F21E0892B09F020E0F8
:10320000822F0895CF93DF93EB010E94F718882354
:1032100001F16FEC74E083ED93E00E94F12684E607
:1032200090E00E940E0462EC74E083ED93E00E9453
:10323000F12684E690E00E940E046AEB74E083EDD0
:1032400093E00E94F12684E690E00E940E0480E064
:103250000AC062EC74E0CE010E94B02F892B31F4D9
:103260000E94612C81E0DF91CF9108956AEB74E0B8
:10327000CE010E94B02F892B51F70E947A04F2CF21
:10328000CB01BA010E94B02F21E0892B09F020E088
:10329000822F08951092570308958F929F92AF92B4
:1032A000BF92CF92DF92EF92FF92C090D703D0905F
:1032B000D803E090D903F090DA030E94A4034B01F5
:1032C0005C0183ED93E00E94CE248A30910569F081
:1032D00097FF15C00E94A403681979098A099B0900
:1032E0006C157D058E059F0560F381E0FF90EF90E2
:1032F000DF90CF90BF90AF909F908F90089580E027
:10330000F5CFCF93DF93EC0183ED93E00E94E424AB
:1033100083ED93E00E94E724892B09F442C083EDFA
:1033200093E00E94CE240A9799F183ED93E00E94E6
:10333000F72480329105E1F4CE010E94200583ED4F
:1033400093E00E94E724892B31F083ED93E00E9403
:10335000F7240A97A1F764ED74E083ED93E00E94EF
:10336000F12618A280E2FE0111928A95E9F719C0B0
:10337000E8A191E09E0F98A3EC0FFD2FF11D808333
:103380009F3130F483ED93E00E94E724892B39F6D6
:1033900083ED93E00E94CE240A9771F288A18F31C9
:1033A00058F680E0DF91CF91089568ED74E083EDE9
:1033B00093E00E94C22684E690E00E940E0483ED12
:1033C00093E00E94ED2684E690E00E940E0480E0E7
:1033D000089580E00895FC01703579F4862F807699
:1033E000803429F49485862F8F7B892B8487862FC0
:1033F000807729F48385682B638780E00895803186
:10340000E1F780E1689FB0011124F4CFCF93DF93FF
:10341000EC0188EB94E00E94212E6C8588EB94E00F
:103420000E94272E88EB94E0DF91CF910C94392EE7
:10343000FB01828186FB992790F960E080FD62E0C4
:10344000692B90E081FD94E0692B90E082FD98E08B
:10345000692B83FD06C080E0682B89E593E00C941E
:10346000AA1B80E1F9CFFB0123812035A9F4DC01FF
:103470001B961C921B9722812076203411F41C96F7
:103480001C92218121FF08C020FD06C0BF012281BE
:1034900025FF04C00E94181A80E0089589E593E092
:1034A0000E94A71BF9CF6091B7017091B801FC0190
:1034B00026813781621B730B2381348126173707DE
:1034C00060F090E080E0982F872F762F662750E0FD
:1034D00040E00E944D2F822F08958FEF0895482FCE
:1034E00050E087FD0AC0889FC0011124880F892FF2
:1034F000881F990B91958F5F089520E031E0241B80
:10350000350B229FC001239F900D900D1124880F31
:10351000892F881F990B919580950895CF93DF93FC
:10352000EC010E94531A0E946F1A29819A81921B02
:1035300030E0322F2227989F200D311D112454E0B6
:10354000369527955A95E1F7220F331F220F331F27
:103550008091580390E0805C9F4F280F391F209383
:103560005803832FDF91CF9108950F93CF93FC01E0
:10357000C2852C2F2F70D1F00E948E1A682F619572
:10358000C2FF60E0C3FD680F482F4195C0FF40E0D7
:10359000C1FD480F00E020E088EB94E00E94192E66
:1035A00088EB94E0CF910F910C94392ECF910F912D
:1035B00008950F93FC01828590E054E095958795DE
:1035C0005A95E1F70097E1F09C01369527953695DD
:1035D00027952170022F019583FF02C001E0021B95
:1035E0009C012170332781FD215040E060E088EB91
:1035F00094E00E94192E88EB94E00F910C94392EE0
:103600000F910895CF93DF93FC0122852223D9F0F7
:10361000EC018091B7019085891B843030F0CF0197
:103620000E94B51A88858C5F88878091B70199853B
:10363000891B9881891738F0CE010E94D91A898593
:103640009881890F898780E0DF91CF9108950F934A
:103650001F93CF93DF93FB012381203521F58B014D
:10366000EC0182818076803419F4CE010E94061A22
:103670008A858F7031F48091B7019091B8019F8352
:103680008E838B858A871B86F801818181FF0BC021
:1036900080FD09C08281807761F4CE010E94B51A55
:1036A0008091B701888780E0DF91CF911F910F91C2
:1036B00008958031C1F7CE010E94D91A8091B701D7
:1036C0008987F1CF0F931F93CF93DF9300D000D062
:1036D00000D0CDB7DEB716950795600F711F3695F0
:1036E0002795420F531FECECF4E0758764875787EA
:1036F0004687808989837B836A835D834C831E82AE
:103700000284F385E02D0190F081E02D46E050E049
:10371000BE016F5F7F4F86ED94E0099526960FB648
:10372000F894DEBF0FBECDBFDF91CF911F910F91F7
:103730000895FC0117821682158214828FEF9FE78D
:10374000918380839383828381E080870895FC0145
:1037500010860895FF920F931F93CF93DF93EC0190
:10376000F62E8885811103C0CE010E94991BF0FEC0
:1037700007C01886DF91CF911F910F91FF90089598
:1037800060910C0170E0888199810E94392F8B0132
:103790007983688360910C0170E08A819B810E942B
:1037A000392F9B017B836A836F2D64704C815D810F
:1037B0008E819F817F2D7670763069F4B801680F15
:1037C000791F7F836E83420F531F5D834C83CE012D
:1037D0000E94621BCFCF662329F1E0910C01E150DA
:1037E000FF0BE29FB001E39F700DF29F700D11245B
:1037F000460F571F5D834C83F4FE19C040910C01A6
:103800004150550B409FB001419F700D509F700D6E
:103810001124860F971F9F838E834C815D816E815B
:103820007F81D5CFF1FCE8CF420F531FE3CFF3FCEC
:10383000F4CF800F911FEFCF109261030895FC0128
:103840008281DB019C91891730F5A081B181A80F9D
:10385000B11D2C9130E0938102C0359527959A9542
:10386000E2F724834481442391F0242F30E09381B4
:1038700040FF07C0880F880F880F890F858381E07C
:1038800008953595279524839F5F9383EBCF8F5FB2
:1038900082831382D5CF80E00895262F2695269522
:1038A0002695820F911DFC01808190E0677002C017
:1038B000959587956A95E2F781700895E62FE695CC
:1038C000E695E695E80FF92FF11D677081E090E02D
:1038D000A0E0B0E004C0880F991FAA1FBB1F6A9523
:1038E000D2F72081822B80830895E62FE695E69516
:1038F000E695E80FF92FF11D862F877041E050E023
:1039000060E070E004C0440F551F661F771F8A9562
:10391000D2F74095509560957095808148234083FB
:103920000895EF92FF920F931F93CF93DF93CDB73C
:10393000DEB72C970FB6F894DEBF0FBECDBF8C015B
:103940000A9698878F8319861A86FF24FA94FC8634
:103950009A83898386E0E82EEB821C82FE82BE0178
:103960006D5F7F4FCE0107960E941F1C811113C00F
:10397000005F1F4F18870F8319861A86FC861A83EB
:103980000983EB821C82FE82BE016D5F7F4FCE01F8
:1039900007960E941F1C2C960FB6F894DEBF0FBE30
:1039A000CDBFDF91CF911F910F91FF90EF900895C0
:1039B000272F207C69F4605E683080F4FC018681EA
:1039C000978102C0969587956A95E2F78170089570
:1039D000743431F426ED260F2A3220F081E0089568
:1039E0007634E1F7625260314CF3F8CF0C94D81C76
:1039F000AF92BF92DF92EF92FF920F931F93CF93FC
:103A0000DF93CDB7DEB761970FB6F894DEBF0FBE78
:103A1000CDBF8C010A967C01662381F1580190E1AB
:103A2000A90EB11CB886AF8219861A868FEF8C87D3
:103A3000BA82A98296E09B831C828E83BE016D5F51
:103A40007F4FCE0107960E941F1C8823B9F0DC84AB
:103A50006D2DC5010E94751C6D2DC7010E94751C3E
:103A600060913A042D2D31E84FEF5FEF86EB91E046
:103A70000E94FD088A858F5F8A87E0CFF886EF82F3
:103A800019861A868FEF8C87FA82E98296E09B83EB
:103A90001C828E83005F1F4FBE016D5F7F4FCE0182
:103AA00007960E941F1C882309F1DC846D2DC80134
:103AB0000E944D1C6D2D8823A9F0C8010E94751C21
:103AC0006D2DC7010E94751C60913A042D2D31E8BF
:103AD0004FEF5FEF86EB91E00E94FD088A858F5FD4
:103AE0008A87DACFC7010E94751CF8CF61960FB69E
:103AF000F894DEBF0FBECDBFDF91CF911F910F9124
:103B0000FF90EF90DF90BF90AF90089562EE74E069
:103B100083ED93E00E94C22684E690E00E940E04AA
:103B200083ED93E00E94ED2684E690E00E940E046F
:103B300080E008954F925F926F927F928F929F9252
:103B4000AF92BF92CF92DF92EF92FF920F931F93AB
:103B5000CF93DF93CDB7DEB761970FB6F894DEBF92
:103B60000FBECDBF8C01FC0160807180C090B70199
:103B7000D090B80186899789C81AD90A8280938023
:103B80007801FAE0EF0EF11CF886EF8219861A86AA
:103B90008FEF8C87FA82E98296E09B831C828E836A
:103BA000512C580180E1A80EB11CBE016D5F7F4F02
:103BB000CE0107960E941F1C482E882349F15C8481
:103BC000652DC5010E944D1C8823D1F0C614D70471
:103BD00090F0652DC5010E94751C652DC7010E94DE
:103BE000751C60913A04252D31E84FEF5FEF86EBAD
:103BF00091E00E94FD088A858F5F8A87542CD5CF7B
:103C0000C814D904C0F3652DC7010E94751CF3CFF9
:103C1000511007C08091B7019091B801F801978BBE
:103C2000868B80E061960FB6F894DEBF0FBECDBFE5
:103C3000DF91CF911F910F91FF90EF90DF90CF9088
:103C4000BF90AF909F908F907F906F905F904F90BC
:103C500008950C949A1D872F90E0982F8827860F3F
:103C6000911D2FEF280F283018F4815290E008950D
:103C70008F5D94E40895AF92BF92CF92DF92EF925E
:103C8000FF920F931F93CF93DF93FB01B180B7FC9B
:103C90005BC0EB018C016C01FAE0CF0ED11C688196
:103CA000C6010E944D1CA82E780180E1E80EF11C8F
:103CB0006881C7010E944D1CB1FE96C0B0FC94C043
:103CC000A11057C081118BC08A819B81292F30E0C0
:103CD000322F2227482F50E04150504C240F351FDF
:103CE0002031310598F46A817B81C8010E942B1E26
:103CF0009B838A836881C6010E945E1C8091B70104
:103D00009091B801F801978B868B1BC0F801208534
:103D1000222339F0292F207C21F420E2280F28309B
:103D200048F3F8012185222331F0943479F426ED0B
:103D3000280F2A32F8F2292F207C59F4805E88302F
:103D400068F48881F801808F80E03EC0963499F74E
:103D5000D1CF943459F48A528A3298F3F801868983
:103D6000978920813181821B930BCDCF963449F303
:103D7000F5CF882331F36881C6010E94751C9881B4
:103D8000F801808D981729F06881C7010E94751C81
:103D9000D8CF6A817B81C8010E94F61C8823A1F3D9
:103DA000F8018481958197FF02C0808191812091E3
:103DB000B7013091B801F80146895789241B350BAA
:103DC0002817390708F782E0DF91CF911F910F91F3
:103DD000FF90EF90DF90CF90BF90AF9008956881F3
:103DE000C6010E94751CD0CFA11003C0882309F41E
:103DF000ABCF6881C7010E945E1CE5CF6AEE74E01C
:103E000083ED93E00E94C22684E690E00E940E04B7
:103E100083ED93E00E94ED2684E690E00E940E047C
:103E200080E00895FC01872F90E0982F8827680F85
:103E3000792F711D613180EC7807E0F0623188ECF8
:103E4000780750F46151704C66A717A611AA80EE4E
:103E5000870F80AB81E00895633180ED780750F4DF
:103E60006251784C66A717A68AE2870F80AB84E47C
:103E700081ABF0CF80E008958F929F92AF92BF9276
:103E8000CF92DF92EF92FF920F931F93CF93DF9326
:103E900000D000D0CDB7DEB78C01F62E2FE226176A
:103EA00008F469C0E62FF0E0EE0FFF1FE55CFB4F62
:103EB000D080E1808FEFD8120FC0E8120DC0AF2D77
:103EC000B0E0A454BE4FE0910201F09103016F2DC8
:103ED0008C910995D82EE92E6D2D7E2DC8010E945A
:103EE000121FB82E811135C0EF2DF0E0E454FE4FC3
:103EF0008080C12CAA24AA94912CF8018281C81632
:103F000008F042C0F4E0CF9EC0011124F8016081A6
:103F10007181680F791FAA8244E050E0CE010196BA
:103F20000E94A72F89819A813B812C81F9122AC096
:103F3000482F082E000C550B4815590511F08F3FDE
:103F400009F5F801D6A6E7A6C90190AB21ABBB24C1
:103F5000B3948B2D0F900F900F900F90DF91CF9116
:103F60001F910F91FF90EF90DF90CF90BF90AF9097
:103F70009F908F90089510929B0410929C04EBE9FF
:103F8000F4E096CFC394B9CFD6A6E7A68FEF80AB67
:103F900081ABDFCFCF93DF93FC01EB019A01261BAE
:103FA000370BA4E6B0E00E94752F26A130E050E068
:103FB00040E00E944D2F8091B7019091B801BC0163
:103FC0006C1B7D0B81E06217730708F080E0DF91C6
:103FD000CF910895292F207C29F4805E883058F4F1
:103FE00081E00CC0943439F496ED980F81E09A3258
:103FF00028F080E0089581E09634D9F70895CF93B2
:10400000DF93EC018881681780F5882371F1815076
:104010008883E62FF0E0DF011196AC0FBD1FEE0F95
:10402000FF1F7196EC0FFD1F962F981780F41196C5
:104030002C9111972D9318962C91189717962C93D5
:10404000179722813381219331939F5FEECF2FEF1A
:1040500030E001C0220F6A95EAF789A1922F90956E
:10406000982386958223892B89A3DF91CF91089588
:10407000CF93DF9300D000D01F92CDB7DEB7FC0105
:10408000348584A1982F917080FD28C082E024811E
:1040900039838A836B837C832D8391110AC0872F98
:1040A00090E0982F8827680F792F711D6430710573
:1040B000F0F460E0CF0103960E94FF1F29813A814E
:1040C0004B815C816D8186EB91E00F900F900F909A
:1040D0000F900F90DF91CF910C94B40981E0D7CF6E
:1040E0006D32710530F36933710518F703C068321A
:1040F0007105B0F78489958994A783A7DACFCF9308
:10410000DF93FC017381DC011D9681E090E060E0AB
:104110008717F0F452A94D9124A130E0082E02C077
:10412000359527950A94E2F720FD0DC0541721F02C
:1041300080E0DF91CF9108952489358934AB23AB9A
:10414000682F0196E5CF5413FCCF8FEF82ABF0CFF1
:104150008091B7019091B80123A934A9821B930BD8
:1041600025A92817190609F068F48FEF82AB66239A
:10417000F9F2EF012396CE010E94FF1F60E0CE010D
:104180000E94FF1F81E0D5CF7F928F929F92AF92C6
:10419000BF92CF92DF92EF92FF920F931F93CF9334
:1041A000DF93EC019B81911110C0F12C8F2DDF91D9
:1041B000CF911F910F91FF90EF90DF90CF90BF9024
:1041C000AF909F908F907F9008959C848CA180FFEA
:1041D00013C0983041F460E070E0CE010E943820B6
:1041E000FF24F394E3CF8AA99812F5CFCE010E9461
:1041F0007F208111DACFEFCF692DCE010E943C1FC5
:10420000882309F470C0FDA0FF2009F46CC00EA53E
:104210001FA5C8010E94EA1F882E8091B7019091C6
:10422000B8012BA53CA5821B930B2AA528171906BC
:1042300009F010F57B80A090B701B090B8016E0135
:1042400001E010E0E12C202F071508F065C08CA1DB
:1042500090E0002E02C0959587950A94E2F780FDC4
:1042600012C0811040C0EE2009F454C07FEFC71A7D
:10427000D70A0F5F1F4FE7CF8110DCCFB801CE0107
:104280000E943820D7CFF6019585FE013D9681E04A
:1042900099122DC0EE2019F08EA1811110C0882036
:1042A00059F068A979A99AAA8C899D899CAB8BAB96
:1042B000CE010E9438207ACF6EA57FA5F4CFF801F9
:1042C000EE0FFF1FEC0FFD1F44895589EE2DF0E026
:1042D000EE0FFF1FEC0FFD1F64897589CE010E9450
:1042E000CA1F8111C3CF6EA57FA577CF8F5F8217BD
:1042F00008F0BCCF31913913F9CF4C895D89B501F4
:10430000641B750B39A53617170609F078F768A9ED
:1043100079A9CECFE02EAACF88E0781246CFE3CF9E
:104320000F931F93CF93DF93EC01FB0124818DA5A5
:10433000922F981B19162CF08B8181111CC080E0E4
:1043400025C02DA780818033D0F7818187FDF7CFED
:104350008B018DA181111FC062817381CE010E94EA
:10436000121F882361F38EA59FA5D80113969C93F5
:104370008E931297E4CF022E000C330B8C81281BF6
:10438000310987FD339537FDDACF82E0DF91CF9198
:104390001F910F9108952B81822F90E03481FE01AF
:1043A000E80FF91F3483DB013C913487880F991F94
:1043B000FE01E80FF91F8091B7019091B801958B2C
:1043C000848B11964C913CA181E090E0A0E0B0E09C
:1043D000022E04C0880F991FAA1FBB1F0A94D2F790
:1043E00040FF0CC041FD0AC0832B8CA32F5F2B83A1
:1043F000CE010E94C4208111FBCFC7CF80958323BB
:10440000F4CF0F931F93CF93DF93EC012091B7016B
:104410003091B8018AA590E04BA55CA5B901641B59
:10442000750B6817790738F0A90141505109481BED
:10443000590B5CA74BA78B818823D9F08C899D8968
:10444000281B390B8FA198A52817390768F00EA5EE
:104450001FA5C8010E94EA1FB801811102C068A906
:1044600079A9CE010E943820CE010E94C42081117A
:10447000FBCF80E0DF91CF911F910F910895CF93F3
:10448000DF93C2E6D3E0198218821A821B8288E089
:10449000E0E4F1E0AEE6B3E001900D928A95E1F739
:1044A00081E08DA380E58EA38AEF90E098A78FA38B
:1044B00082E389A78BE48AA780E091E09CA78BA781
:1044C0008FEF8DA78EA78FA788AB89AB8AAB88ECBF
:1044D0008DABDF91CF910895FC0188EC90E0928341
:1044E0008183148213828FEF858316824091480165
:1044F0005091490160914A0170914B014387548763
:1045000065877687808F8091B10381112CC081EE01
:104510008093B9031092BA0386E28093BB0388E0CC
:104520008093BC031092BE031092BD0395EE90934E
:10453000BF031092C00397E29093C1038093C2031C
:104540001092C4031092C3031092C5031092C603C5
:104550001092C7031092C8031092CA031092C903A5
:1045600081E08093B10389EB93E094838383089582
:1045700061EF74E083ED93E00E94C22684E690E050
:104580000E940E0483ED93E00E94ED2684E690E005
:104590000E940E0480E00895DC0190E086E013960E
:1045A000ED91FC911497989FE00DF11D112420814D
:1045B00021110FC0318131110CC03281311109C07C
:1045C0003381311106C044815581452B11F48FEFA1
:1045D0000895261303C02181271711F09F5FDFCFB5
:1045E000892F08950F931F93CF93DF93CDB7DEB735
:1045F0002A970FB6F894DEBF0FBECDBF8C01DC0149
:1046000057968C9180FD49C082E0F80123859781FF
:104610002E838F838FEF888789879A87662329F176
:10462000908D97FD22C09081923079F460913A0488
:10463000298391E09A838B838C836D8331E04FEFE4
:104640005FEF86EB91E00E94FD08D80158968C91AF
:1046500058971396ED91FC91B6E08B02E00DF11D99
:1046600011248281938199878887F8018681882324
:10467000F9F0815086833796D8011F9690E09817FD
:1046800070F4218121932481238312962D913C91F2
:1046900013972D933D939F5FF2CF81E0B6CFD80162
:1046A00057968C91579790E09595879557968C9350
:1046B0002E813F81488559856A8586EB91E02A964F
:1046C0000FB6F894DEBF0FBECDBFDF91CF911F9123
:1046D0000F910C94FD08CF93DF93EC018E8188231A
:1046E00029F060E0CE010E94F222F8CFDF91CF9155
:1046F0000895FC0186818823F1F021813281808D2B
:10470000A381B48196E08902A00DB11D11241496F5
:104710008D919C91009709F09C018091B701909137
:10472000B80147855089841B950B8217930718F0B1
:10473000CF010E946B2380E00895CF93DF93FC01AB
:10474000EB012081822F90E03C81DF01A80FB91F8F
:1047500011963C931197388115963C93880F991FB9
:10476000DF01A80FB91F8091B7019091B8011A9687
:104770009C938E9319979981818941E050E060E084
:1047800070E0022E04C0440F551F661F771F0A9465
:10479000D2F790FF09C091FD07C0482B418B2F5FD6
:1047A0002083DF91CF91089540954823F7CF0F9351
:1047B0001F93CF93DF93EC01FB0184819D81282F10
:1047C000291B12164CF09E8191111CC080E0DF91D4
:1047D000CF911F910F9108958D8320812033B0F7E1
:1047E000818187FDF3CF382F327081FF1FC080FD9C
:1047F0001DC09281983591F49381913DB9F418824E
:1048000081E0E5CF082E000C990B2F81821B9109C6
:1048100027FD939597FDDACF82E0D9CF993531F412
:104820009381913D19F481E08883D1CF98819130B3
:1048300069F28F019E81992371F080FF09C03111C7
:1048400007C08B85821323C061E0CE010E94F22253
:10485000CE010E946B23F801818181FFB7CF80FDDB
:10486000B5CF62817381CE010E94CC22888F87FDF3
:10487000ADCF8881823069F4F80120813181428195
:104880005381648186EB91E00E94FD0802C0943060
:10489000F9F2B801CE0106960E949D23BDCF88E9AA
:1048A00093E00C946C226CEF74E083ED93E00E9433
:1048B000C22684E690E00E940E0483ED93E00E94FD
:1048C000ED2684E690E00E940E0480E00895FB014E
:1048D0002381822F90E0982F88272281280F392F5B
:1048E000311DC9018D52914D8A9708F03FC08181D9
:1048F0009091D20381FF1FC080FD1DC083ED820F08
:104900009F5F9093D20367E00E942D2FE82FF0E085
:10491000E453FC4F26E030E0291B310981E090E0B0
:10492000AC0102C0440F551F2A95E2F78081842B09
:10493000808381E008958FEF890F8093D2038111E6
:10494000F8CF8091CC0380688093CC0346E050E0A0
:104950006CEC73E083ED93E00E940425ECECF3E053
:1049600086E0DF011D928A95E9F7E3CF80E00895A4
:10497000CF93DF931F92CDB7DEB76983DC01ED9152
:10498000FC910280F381E02D41E050E0BE016F5FB9
:104990007F4F09950F90DF91CF910895CF93DF93CB
:1049A000EC018C859D8597FF05C082E00E9424293B
:1049B0009D878C878C859D85DF91CF91089583E0BD
:1049C0000E943B2990E0089583E00C94AA2BFC01FF
:1049D0008485958597FD06C082E00E94D42890E0EA
:1049E0000196089582E00E94D42890E00895FC0189
:1049F0008485958597FD05C02FEF3FEF3587248788
:104A0000089582E00C942429CF93DF93EC018091E8
:104A10003801882331F083E00E94552918161906C1
:104A200034F081E090E09B838A8380E090E0DF9126
:104A3000CF910895EEEFFFE72591349181E02B3F70
:104A40003C4D09F080E00895FC0190819E5F9083C9
:104A500042E450E065E075E080E80C94062AFC0131
:104A600081819081913A61F4813209F083C047E0FD
:104A700050E061E371E080E00E94062A81E0089541
:104A8000913209F077C0833269F482819381B0E07A
:104A9000A0E080932D0190932E01A0932F01B0935D
:104AA0003001ECCF803239F467E070E081E391E0CF
:104AB0000E942C2AE3CF823209F782818093380149
:104AC0000E941A25E0E0F8E0882311F0EEEFFAE00A
:104AD0008091310190913201A0913301B091340164
:104AE000803B9440A105B105D9F48091380180FD47
:104AF00017C0EE3F8AE0F80771F587E797E79183E3
:104B00008083809160008093230488E19BE00FB64E
:104B1000F894A895809360000FBE90936000AECF8C
:104B2000808191818737974709F0A8CFA895809118
:104B3000600088618093600080912304809360000E
:104B4000EE3F8AE0F80789F08091FE0A9091FF0A13
:104B50009183808393CF808191818737980769F211
:104B60009093FF0A8093FE0AC8CF1092FF0A10921A
:104B7000FE0A84CF80E008952FEF3FEFFC013587D8
:104B800024870895E3EDF3E01382128288EE93E028
:104B9000A0E0B0E084839583A683B7838BE791E0A0
:104BA000918380838FEF9FEF958784870895EF929D
:104BB000FF920F931F93CF93DF937B01FC01C28180
:104BC000D38110E000E0209791F0E881F981028024
:104BD000F381E02DB701CE01099597FD06C0080FBE
:104BE000191F0884D985C02DEECF0FEF1FEFC80124
:104BF000DF91CF911F910F91FF90EF9008950F9348
:104C00001F93CF93DF938B01FC01C281D381209747
:104C100071F0E881F9810480F581E02DB801CE01C1
:104C20000995009731F40884D985C02DF0CF90E024
:104C300080E0DF91CF911F910F9108950F931F9303
:104C4000CF93DF938B01FC01C281D381209771F058
:104C5000E881F9810680F781E02DB801CE01099540
:104C6000080F111D0884D985C02DF0CFF8011082DE
:104C7000DF91CF911F910F9108950F931F93CF93C1
:104C8000DF938B01FC01C281D381209771F0E88111
:104C9000F9810190F081E02DB801CE0109958111D3
:104CA00005C00884D985C02DF0CF80E0DF91CF9179
:104CB0001F910F910895CF93DF93FC01DB012181B8
:104CC00014968C911497820F9927991F08978CF549
:104CD000C281D381209731F57383628390811296CC
:104CE0009C93129713962C93139715968C91159766
:104CF000890F808380E014969C9114978917E8F4BB
:104D00001696CD91DC911797C80FD11D9881C1815E
:104D1000D0E0C75CDE4F988391819F5F91838F5F66
:104D2000EACFEC01888599850097D9F7B987A887DC
:104D3000D5CF80E0DF91CF91089581E0FBCF8091C6
:104D4000240481110DC082E080932C0484E08093C0
:104D50002D0410922F0410922E0481E080932404DD
:104D60008CE294E00895FB0101900020E9F731976F
:104D7000AF01461B570BDC01ED91FC910280F381E2
:104D8000E02D0994EF92FF920F931F93CF93DF933F
:104D90008C017B01D0E0C0E0F701EC0FFD1F6491B6
:104DA000662361F0D801ED91FC910190F081E02D36
:104DB000C8010995892B11F02196EECFCE01DF9124
:104DC000CF911F910F91FF90EF900895DC01ED912D
:104DD000FC910190F081E02D099469E871E00C9458
:104DE000B3260F931F93CF93DF93EC010E94C2264B
:104DF0008C01CE010E94ED26800F911FDF91CF9193
:104E00001F910F9108958F929F92AF92BF92EF9250
:104E1000FF920F931F93CF93DF93CDB7DEB7A19788
:104E20000FB6F894DEBF0FBECDBF7C01FA01CB01F7
:104E300019A2223008F42AE08E010F5D1F4F822E46
:104E4000912CB12CA12CBF01A50194010E944D2FE2
:104E5000F901CA016A300CF5605DD8016E938D01CD
:104E6000232B242B252B79F790E080E0109721F05D
:104E7000BD01C7010E94B326A1960FB6F894DEBF0C
:104E80000FBECDBFDF91CF911F910F91FF90EF909B
:104E9000BF90AF909F908F900895695CDECF2115F1
:104EA000310541F4DC01ED91FC910190F081E02DA0
:104EB000642F09940C9403279A01462F50E070E068
:104EC00060E00C944F279A01AB0170E060E00C9415
:104ED0004F270F931F93CF93DF93EC010E94A403FE
:104EE000688779878A879B87E881F9810484F585BB
:104EF000E02DCE01099597FF15C00E94A4030885F7
:104F000019852A853B85601B710B820B930B0C81E5
:104F10001D812E813F81601771078207930720F35F
:104F20008FEF9FEFDF91CF911F910F910895FF9227
:104F30000F931F93CF93DF93EC018B01F42ECE01DF
:104F40000E94692797FD1DC08D329105D1F09C010B
:104F5000205331092A303105A0F0FF2019F08E329C
:104F6000910579F00130110551F00230110589F4F5
:104F70008D30910571F05CF40997029750F08FEF36
:104F80009FEFDF91CF911F910F91FF900895809730
:104F9000B1F7E881F9810284F385E02DCE0109950E
:104FA000CECFBF92CF92DF92EF92FF920F931F93DB
:104FB000CF93DF938C01C42F40E00E949727FC0120
:104FC000C12CD12C760197FD3EC0B12C0C2E000CCB
:104FD000DD0BCE17DF07D9F0ED32F10509F43FC044
:104FE000CF01C0970A9798F4AAE0B0E0A701960114
:104FF0000E94842F6F01FF0FEE08FF08C60ED71E18
:10500000E81EF91E80E3C81AD108E108F108D801AA
:10501000ED91FC910284F385E02DC8010995C8014A
:105020000E946927FC01C0970A9798F2CE17DF0704
:1050300081F2BB2041F0F094E094D094C094C11C64
:10504000D11CE11CF11CC701B601DF91CF911F916A
:105050000F91FF90EF90DF90CF90BF900895BB2409
:10506000B394D5CF4091330450913404209131044E
:105070003091320442175307B4F49091E8009570D0
:10508000E1F39091E80092FD19C08093F1008091C6
:1050900033049091340401968F739927892B19F466
:1050A0008EEF8093E8008091330490913404019650
:1050B000909334048093330481E0089580E0089550
:1050C000EF92FF920F931F93CF93DF93F82E192F38
:1050D000E62E042F81E0860F880F0E94322883E09D
:1050E0000E943228CF2DD12FEC0EFD2EF11CCE15B3
:1050F000DF05B9F007FF13C0FE0184910E9432283A
:10510000182F80E00E943228812321968111EFCF51
:10511000DF91CF911F910F91FF90EF9008958881BB
:10512000EDCF81E0F5CF8091D70081608093D700EB
:1051300080EA8093D80089B5806189BD89B5826095
:1051400089BD09B400FEFDCF61E070E080E090E031
:105150000E94D5038091D8008F7C80618093D80015
:105160008091E000807F8093E0000895CF93DF93EB
:105170001F92CDB7DEB71982CE0101960E94242579
:105180000E949F26BE016F5F7F4F0E94D7258981B5
:105190000F90DF91CF9108952FB7FC012083F894F1
:1051A00067706093E9000895CF93DF931F92CDB7A6
:1051B000DEB7682FCE0101960E94CC288091F200C4
:1051C00099819FBF0F90DF91CF910895EF92FF9249
:1051D0000F931F93CF93DF931F92CDB7DEB79091BC
:1051E0003704992371F157FD2CC08A017B01682F88
:1051F000CE0101960E94CC288091F20090E0081721
:1052000019070CF4C801282FF70144E6215030F0AB
:10521000409338043091F1003193F8CF009739F082
:105220002091F200211103C02BE62093E800298190
:105230002FBF0F90DF91CF911F910F91FF90EF90B3
:1052400008958FEF9FEFF5CFCF93DF931F92CDB7E8
:10525000DEB741E050E0BE016F5F7F4F0E94E6285D
:10526000019731F4898190E00F90DF91CF910895FB
:105270008FEF9FEFF9CFCF93DF931F92CDB7DEB7BC
:10528000682FCE0101960E94CC289091E800892FCA
:10529000807295FF04C09091F20080E4891B99818F
:1052A0009FBF0F90DF91CF9108955F926F927F9291
:1052B0008F929F92AF92BF92CF92DF92EF92FF9226
:1052C0000F931F93CF93DF931F92CDB7DEB7982E26
:1052D0006B01B42E052F80913704811113C08FEF1D
:1052E0009FEF0F90DF91CF911F910F91FF90EF9063
:1052F000DF90CF90BF90AF909F908F907F906F90F6
:105300005F9008958091350480FF05C08091E00092
:1053100082608093E000EB2CF02EA12C8AEF882E87
:10532000892D8072682E892D8074582E9AE3792EEB
:10533000E114F10419F4AA2009F457C0892D0E9440
:105340003B29182F81110AC08A94882041F261E01C
:1053500070E080E090E00E94D503EACF8E151F0434
:1053600011F00CF01E2D692DCE0101960E94CC2863
:105370008091E80085FD03C089818FBFD9CF812F3F
:1053800090E0E81AF90A662029F01150A0F0109276
:10539000F100FBCFF60197FC0AC0115050F02191AB
:1053A0002093F100FACF24912093F100319611500F
:1053B000D0F7C80ED91EAA2021F07092E800A12CC7
:1053C000DBCF8091E80085FD08C07092E800AA2438
:1053D000A394E114F10481F2F2CFE114F10461F637
:1053E000552051F27092E800C7CF84E680933904CB
:1053F0008B2D902F76CF1092E900109234041092EA
:10540000330490933204809331040895DF92EF9235
:10541000FF920F931F93CF93DF93D82E8A01EB0156
:105420007B01E40EF51ECE15DF0559F0D7FE12C044
:10543000FE0184910E94322821968111F4CF0FEF52
:105440001FEFC801DF91CF911F910F91FF90EF9057
:10545000DF9008958881EECFCF93DF93EC019B011D
:10546000B4E6ABEF21153105F1F0A9012134310586
:1054700014F040E450E08091E80082FFFCCF942FCC
:10548000FB01E21BF30BEC0FFD1F915028F0809104
:10549000F10080833196F9CFB0933804A093E800EF
:1054A000241B350BDFCFCB01DF91CF9108951F92E5
:1054B0000F920FB60F921124CF92DF92FF920F93AB
:1054C0001F932F933F934F935F936F937F938F938C
:1054D0009F93AF93BF93EF93FF93CF93DF93CDB79A
:1054E000DEB76C97DEBFCDBF1092E9008091E80077
:1054F00083FF2FC089E0FE017596FE2E0F2F81508D
:1055000029F09091F10090833196F9CF84E6809351
:10551000380482EF8093E8008D8987FF38C090912E
:10552000E80090FFFCCF982F907609F000C19E898B
:105530004F89588D2F89188D911130C0803859F5B9
:10554000809136048093F1001092F1008EEF8093E9
:10555000E8006C960FB6F894DEBF0FBECDBFDF91AA
:10556000CF91FF91EF91BF91AF919F918F917F91DB
:105570006F915F914F913F912F911F910F91FF90EC
:10558000DF90CF900F900FBE0F901F9018959EEF59
:105590009093E800C8CF1092F100D6CF913059F423
:1055A0008111D4CF4130510589F6809136048D7F29
:1055B00080933604CBCF933049F48111C7CF41306B
:1055C000510521F6809136048260F2CF953041F486
:1055D0008091E80080FFFCCF20682093E300B6CFE5
:1055E000963009F076C0CB8CDC8C123039F590E027
:1055F00080E00E94FB290E94B6281F8299E09983CF
:105600001A8391E09E8390EA98879AEF9987209178
:10561000330430913404275F3F4F3C832B838D83C9
:10562000C6010E94FB2949E050E0BE016F5F7F4F39
:1056300080E00E94062A0E94B62888CFC6010E94F8
:10564000FB290E949F266F2D702F0E94FF25009737
:1056500031F00CF07BCF81E28093EB007ACF1130F8
:1056600061F11330C1F78F89882381F1823049F4C9
:1056700040E86CE083E695E00E946028882359F3B7
:1056800065CF813029F440E869E089E595E0F4CF01
:10569000833009F70E949F268E010F5F1F4FB801CC
:1056A0000E941E26F80101900020E9F73197BF0102
:1056B000601B710B40E0C801DFCF67E475E0FB01C0
:1056C000449150E080E80E94062A40CF60E775E0F0
:1056D000F6CF973009F4BFCF983021F481E0809362
:1056E000F10034CF993009F031CF837009F0B3CF96
:1056F000EAE3F1E081E031E096E32191222371F0C9
:105700008093E9003093EB00DF0111972C912093F7
:10571000EC009093ED008F5F873079F78EE78093F0
:10572000EA001092EA008F89809337040FCF8B8DA7
:105730009C8D0E94FB29898D811105C08F2D902F92
:105740000E942F259BCF0E949F266F2D702F0E94B5
:105750003D2694CF8093E9008091F200882319F0D0
:105760008AE38093E80008951F920F920FB60F927C
:1057700011242F933F934F935F936F937F938F9356
:105780009F93AF93BF93CF93EF93FF93C091E100AB
:105790008091E100837F8093E100C3FF0FC01092EE
:1057A000E90081E08093EB001092EC0082E38093AB
:1057B000ED001092370488E08093F000C2FF15C01E
:1057C00083E00E94AA2B80913904882329F08091DC
:1057D000390481508093390480913804882329F05A
:1057E00080913804815080933804C4FF23C0809195
:1057F000E2008E7E81608093E2008091E1008F7EE6
:105800008093E100809135048E7E80618093350421
:10581000FF91EF91CF91BF91AF919F918F917F9128
:105820006F915F914F913F912F910F900FBE0F900D
:105830001F901895C0FFECCF8091E2008E7E8061B2
:105840008093E2008091E1008E7E8093E100809160
:1058500035048E7E8160DACF1092370410923604C0
:10586000109235040E949328E1EEF0E080818E7E54
:1058700080838DE08093E200559A209A089580916C
:10588000E0008D7F8093E0008091E00081FD11C0F9
:105890008091350480FF0DC08091360481FF09C0DE
:1058A0000E9493288091E00082608093E00081E074
:1058B000089580E00895089510929B0410929C042E
:1058C000089587E090EBDC018093E0049093E1047D
:1058D000A093E204B093E30488E19CE00FB6F8944F
:1058E000A895809360000FBE90936000FFCFCF9388
:1058F000DF93CDB7DEB769970FB6F894DEBF0FBE62
:10590000CDBFFC01DB018C918F5F8C939E012D5FDD
:105910003F4F8DE0D9011D928A95E9F729E029834F
:1059200084E08A8391E09D8383E08E832A8721E24D
:105930002B879C879D879F8722E2288B27E02B8BD4
:1059400025E02C8B8E8B20E430E0388F2F8B998FC5
:1059500082818B8395858685998B8A8B83818068EC
:105960008D8B49E150E0BE016F5F7F4F80E00E9468
:10597000062A69960FB6F894DEBF0FBECDBFDF9141
:10598000CF910895EF92FF920F931F93CF93DF93E0
:10599000FB0120812138A1F52381223289F5DC0128
:1059A00012964C91248135814217130649F5EC017A
:1059B00081E00E942C2F0B851C85F12CE12C011518
:1059C000110589F0F801448155816281738180E875
:1059D0000E94062A8F3F980761F0E80EF91ED80151
:1059E0000D911C91ECCF81E08F8780E00E942C2FDD
:1059F000C701DF91CF911F910F91FF90EF90089514
:105A000090E080E0F6CF0F931F93CF93DF9300D009
:105A10001F92CDB7DEB7FC01DB01228114968D9178
:105A20009C9115972817190659F411968C91119786
:105A30009C91913A39F4982F9D7F81E0913051F0FB
:105A400080E008C09132E1F78B3061F412968C91BE
:105A5000878781E00F900F900F90DF91CF911F917A
:105A60000F9108958A3021F413968C91808BF1CF99
:105A7000893031F78F0116968D919C918230910576
:105A800061F462E070E0CE0101960E942C2A8981C7
:105A9000F801818B8A81828BDCCF0197D1F661E09E
:105AA00070E0CE0101960E942C2AF801118A8981AA
:105AB000F2CFFC01A385B485109771F474876387D6
:105AC00085859685DB0114962D913C91820F931F5D
:105AD000968785870895DC018D919C911197009799
