:020000022000DC
:107000000000022061850600898506008B85060048
:107010008D8506008F850600918506000000000022
:107020000000000000000000000000009385060042
:1070300095850600000000009785060099850600EA
:10704000456304009B85060081CE04006185040031
:10705000416C04009B8506009B8506009B8506000D
:107060009B8506009B8506009B8506009B85060088
:107070009B8506009B8506009B8506009B85060078
:107080009B8506001DC603009B8506009B850600A8
:107090009B8506009B850600514204009B850600E7
:1070A0009B8506009B8506009B85060041730400B6
:1070B0009B8506009B850600000000000000000084
:1070C0009B8506009B8506009B850600596C040085
:1070D0009B8506009B8506009B85060029C304004E
:1070E0009B8506000000000000000000000000007A
:1070F000000000009B850600000000009B85060044
:10710000000000000000000000000000000000007F
:10711000000000000000000000000000000000006F
:10712000000000000000000000000000000000005F
:10713000000000000000000000000000000000004F
:10714000000000000000000000000000000000003F
:10715000000000000000000000000000000000002F
:10716000000000000000000000000000000000001F
:10717000000000000000000000000000000000000F
:1071800000000000000000000000000000000000FF
:1071900000000000000000000000000000000000EF
:1071A00000000000000000000000000000000000DF
:1071B00000000000000000000000000000000000CF
:1071C00000000000000000000000000000000000BF
:1071D00000000000000000000000000000000000AF
:1071E000000000000000000000000000000000009F
:1071F000000000000000000000000000000000008F
:107200000348044B834202D0034B03B11847704735
:10721000FC5E0020FC5E00200000000005480649DE
:107220000B1AD90F01EBA301491002D0034B03B194
:1072300018477047FC5E0020FC5E00200000000044
:1072400010B5064C237843B9FFF7DAFF044B13B1AE
:107250000448AFF300800123237010BD406000207C
:10726000000000007831070008B5044B1BB1044949
:107270000448AFF30080BDE80840CFE700000000FD
:107280004460002078310700A3F5803A704700BFC2
:10729000154B002B08BF114B9D46FFF7F5FF002152
:1072A0008B460F461148124A121A00F079F80C4B1F
:1072B000002B00D098470B4B002B00D098470020A4
:1072C000002104000D000B4800F016F800F044F80F
:1072D0002000290026F002FE00F014F8000008004B
:1072E00000000000000000000000022040600020BC
:1072F000D41901202D730200002301461A461846B6
:1073000000F0A0B808B5074B044613B1002100F007
:10731000EFF8054B1868836A03B19847204600F0E0
:107320004BF900BFF17402003CAB060038B5084BC6
:10733000084D5B1B9C1007D0043B1D44013C55F8D5
:1073400004399847002CF9D1BDE8384043F0F0BB30
:10735000FC5E0020F85E002070B50D4E0D4D761BD2
:10736000B61006D0002455F8043B01349847A642D5
:10737000F9D1094E094D761B43F0D4FBB61006D067
:10738000002455F8043B01349847A642F9D170BD5A
:107390005C5E00205C5E0020F85E00205C5E0020E9
:1073A000830730B548D0541E002A3FD0CAB20346E6
:1073B00001E0013C3AD303F8012B9D07F9D1032CDE
:1073C0002DD9CDB245EA05250F2C45EA054536D91C
:1073D000A4F1100222F00F0C03F1200EE6444FEA54
:1073E000121C03F1100242E9045542E90255103221
:1073F0007245F8D10CF1010214F00C0F03EB0212EC
:1074000004F00F0C13D0ACF1040323F00303043396
:10741000134442F8045B9342FBD10CF003042CB1FB
:10742000CAB21C4403F8012B9C42FBD130BD644618
:107430001346002CF4D1F9E703461446BFE71A4679
:10744000A446E0E7F0B5264C256885B0064605B3AE
:107450006C681F2C41DCA6B1D5F8880048B3D0F881
:10746000007140F824204FF0010C0CFA04FC00EBF2
:1074700084024CEA0707022EC0F80071C2F880307F
:1074800010D0A31C01346C6045F82310002005B017
:10749000F0BD1448144D25600028D9D00068C5F807
:1074A0008800D5E7D0F8043143EA0C03C0F8043172
:1074B000E7E70E480191CDE9022370B14FF48470E3
:1074C00041F034FF48B10027C0E94077DDE90223ED
:1074D0006C680199C5F88800C3E74FF0FF30D6E724
:1074E000E8600020000000005C6000202D93060092
:1074F0002DE9F84FDFF8BCA0DAF800702DED028B13
:10750000E7B108EE100A89467D68D7F888806C1EBE
:1075100014D407EB8506043608EB8505B9F1000F96
:1075200010D0B8F1000F02D0EB6F4B450AD0013CF0
:10753000631CA5F10405A6F10406EFD1BDEC028B96
:10754000BDE8F88F7B683268013BA34216BF002379
:107550007C603360002AEAD0D7F804B0B8F1000F9D
:107560001AD0D8F80001012303FA04F1014213D024
:10757000D8F80401014218D155F8041C18EE100A7D
:1075800090477A685A450BD1DAF80030BB42CED02A
:107590001F46002FB8D1D1E790477A685A45F3D0FB
:1075A000DAF80070002FAFD1C8E755F8040C904707
:1075B000E7E700BFE8600020FEE700BF80B400AF4F
:1075C000BFF34F8F00BF064BDB6803F4E062044952
:1075D000044B1343CB60BFF34F8F00BF00BFFDE7E9
:1075E00000ED00E00400FA0580B483B000AF124B58
:1075F0001B687B60114B1B683B607B680D2B14D1B3
:107600003B68022B0DD03B68022B0CD83B68002B4B
:1076100003D03B68012B02D005E0012306E00123E3
:1076200004E0012302E0012300E0002318460C37A8
:10763000BD465DF8047B7047300100103401001036
:1076400080B483B000AF124B1B687B60114B1B688A
:107650003B607B680D2B14D13B68022B0DD03B683F
:10766000022B0CD83B68002B03D03B68012B02D0C7
:1076700005E0012306E0012304E0012302E00123E9
:1076800000E0002318460C37BD465DF8047B7047C8
:10769000300100103401001080B483B000AF124BF1
:1076A0001B687B60114B1B683B607B680D2B14D102
:1076B0003B68022B0DD03B68022B0CD83B68002B9B
:1076C00003D03B68012B02D005E0012306E0012333
:1076D00004E0012302E0012300E0002318460C37F8
:1076E000BD465DF8047B7047300100103401001086
:1076F00080B483B000AF124B1B687B60114B1B68DA
:107700003B607B680D2B14D13B68022B0DD03B688E
:10771000022B0CD83B68002B03D03B68012B02D016
:1077200005E0002306E0002304E0012302E001233A
:1077300000E0002318460C37BD465DF8047B704717
:10774000300100103401001080B500AFFFF7D0FF0A
:107750000346002B07D04FF010234FF08042D3F8A0
:107760000832C2F8583500BF80BD000080B400AFB9
:1077700000BF054BD3F80034002BFAD000BF00BF88
:10778000BD465DF8047B704700E0014080B582B0E3
:1077900000AF7860044A7B68C2F80435FFF7E6FF63
:1077A00000BF0837BD4680BD00E0014080B400AF97
:1077B000034B044A1A6000BFBD465DF8047B704766
:1077C000E05900200090D00380B500AFFFF70CFF18
:1077D0000346002B0ED04FF080430022C3F80C214B
:1077E0004FF080430022C3F810214FF08043002265
:1077F000C3F83825FFF724FF0346002B76D04FF05F
:1078000080535C4AD3F80434C2F820354FF08053DB
:10781000584AD3F80834C2F824354FF08053554AFB
:10782000D3F80C34C2F828354FF08053514AD3F8BE
:107830001034C2F82C354FF080534E4AD3F814342C
:10784000C2F830354FF080534A4AD3F81834C2F8A2
:1078500034354FF08053474AD3F81C34C2F84035D2
:107860004FF08053434AD3F82034C2F844354FF0E8
:107870008053404AD3F82434C2F848354FF080533F
:107880003C4AD3F82834C2F84C354FF08053394A7B
:10789000D3F82C34C2F850354FF08053354AD3F822
:1078A0003034C2F854354FF08053324AD3F8343470
:1078B000C2F860354FF080532E4AD3F83834C2F8FE
:1078C00064354FF080532B4AD3F83C34C2F8683506
:1078D0004FF08053274AD3F84034C2F86C354FF04C
:1078E0008053244AD3F84434C2F87035FFF7D4FEED
:1078F0000346002B0DD04FF08043D3F8003403F043
:107900000103002B05D04FF080436FF00102C3F854
:107910000024194BD3F88830174A43F47003C2F897
:107920008830BFF34F8F00BFBFF36F8F00BFFFF7EB
:107930000BFF4FF01023D3F80C3203F00103012B9F
:1079400013D10120FFF722FF4FF01023D3F80C32A0
:107950004FF0102223F00103C2F80C32FFF706FFAC
:107960000020FFF713FFFFF729FEFFF71FFF00BFFF
:1079700080BD00BF00C0004000ED00E076DF704732
:1079800000BF184678DF704700BF18467ADF70479F
:1079900000BF18467CDF704700BF18468FDF704776
:1079A00000BF184680B400AFBFF34F8F00BF064B37
:1079B000DB6803F4E0620449044B1343CB60BFF37C
:1079C0004F8F00BF00BFFDE700ED00E00400FA05A7
:1079D00033DF704700BF184680B500AFFFF7E2FF06
:1079E00080B500AF00F012F800F026F800F05CF867
:1079F00000F076F800F0CCF800F0E4F800F0F6FAC9
:107A000000F00CFD00F04EFD00BF80BD80B582B0DF
:107A100000AF13F0BDFB78607B683B603B68002BD8
:107A200004D0044A502138681BF03CFF00BF0837DF
:107A3000BD4680BD40AB060080B586B000AF1CF0EF
:107A400019FB78617B693B613B69002B04D0154AC7
:107A50005D2138691BF026FF00237B603B1D194622
:107A600001201CF047FC78617B69FB60FB68002B00
:107A700004D00C4A6321F8681BF014FF3B1D184624
:107A80001CF0B2FC78617B69BB60BB68002B04D042
:107A9000044A6721B8681BF005FF00BF1837BD46D0
:107AA00080BD00BF40AB060080B582B000AF0A4A7F
:107AB0000A21082013F074FC78607B683B603B6807
:107AC000002B04D0054A722138681BF0EBFE00BF82
:107AD0000837BD4680BD00BF8465002040AB06006E
:107AE00080B588B000AF3B79012262F303033B719C
:107AF0003B79012262F307133B71234842F060FA9D
:107B000003469AB23B1D20491846FFF743FFF86130
:107B1000FB69BB61BB69002B04D01C4A8621B86994
:107B20001BF0C0FE40F2C130FFF72CFFF861FB698B
:107B30007B617B69002B04D0144A892178691BF092
:107B4000B1FE07F10803082200211846FFF728FCC0
:107B500006233B8118237B810623BB812B23FB81DA
:107B600007F108031846FFF711FFF861FB693B6155
:107B70003B69002B04D0054A932138691BF092FE23
:107B800000BF2037BD4680BD78AB060040AB060085
:107B900080B582B000AF0021084807F0E1FD7860B1
:107BA0007B683B603B68002B04D0054A9C21386809
:107BB0001BF078FE00BF0837BD4680BD3061002055
:107BC00040AB060080B5AEB000AF3B46AC22002112
:107BD0001846FFF7E5FB062387F8B73002233B7012
:107BE0000123BB7097F8B730FB7001233B82234B16
:107BF0007B61012387F87930012387F87A300023ED
:107C000087F87B300023C7F880300023C7F8843022
:107C1000012387F87C302823C7F888300023C7F871
:107C20008C30012387F87D304FF44863C7F89030DB
:107C30000023C7F89430124BC7F8A430114BC7F893
:107C4000A8303B461946104803F02CFAC7F8B0009C
:107C5000D7F8B030C7F8AC30D7F8AC30002B05D02F
:107C60000A4AC221D7F8AC001BF01CFE01210648CD
:107C700003F008FA00BFB837BD4680BDE8590020C0
:107C8000917C0200617F02005061002040AB060041
:107C900080B5BAB002AF0346FB71FB79082B00F246
:107CA000188101A252F823F0997D0200CD7C0200D8
:107CB000EF7C0200117D0200337D0200557D020041
:107CC000777D0200C97D02004F7E02008B4B5B88EE
:107CD000022B40F200818A4A8A4BD31ADB081B042C
:107CE00043F003038849184612F062FBF3E0834B2C
:107CF0005B88022B40F2F180814A824BD31ADB0869
:107D00001B0443F003038149184612F051FBE4E0E1
:107D10007A4B5B88022B40F2E280794A794BD31A86
:107D2000DB081B0443F003037949184612F040FBBB
:107D3000D5E0724B5B88022B40F2D380704A714BC6
:107D4000D31ADB081B0443F003037249184612F0F0
:107D50002FFBC6E0694B5B88022B40F2C480684A67
:107D6000684BD31ADB081B0443F003036A49184627
:107D700012F01EFBB7E0614B5B88022B40F2B5802E
:107D80005F4A604BD31ADB081B0443F003036349CB
:107D9000184612F00DFBA8E0584B5B88022B0AD95D
:107DA000574A584BD31ADB081B0443F003035C49C2
:107DB000184612F0FDFA00BF12F092FB0346002BAA
:107DC000FAD100F0B5F895E00823C7F8C4300823CD
:107DD000C7F8C03007F1C00307F1400207F1C40142
:107DE00007F108000BF09EFCC7F8DC00D7F8DC3088
:107DF000C7F8CC30D7F8CC30002B06D0494A40F237
:107E00001111D7F8CC001BF04DFD022000F0B8F89E
:107E1000D7F8C420D7F8C03007F1400007F10801B7
:107E200000930346404803F083FBC7F8DC00D7F813
:107E3000DC30C7F8C830D7F8C830002B57D0394AE3
:107E40004FF49071D7F8C8001BF02CFD4FE0374B72
:107E50001B884FF6FF7293424BD0344B1B8807F1BF
:107E60004002114618460BF043FEC7F8DC00D7F875
:107E7000DC30052B3DD0D7F8DC30C7F8D830D7F848
:107E8000D830002B06D0274A40F22F11D7F8D8005F
:107E90001BF008FD062000F073F807F140031133D2
:107EA000C7F8D430D7F8D4101F4803F021FBC7F827
:107EB000DC00D7F8DC30C7F8D030D7F8D030002B52
:107EC00017D0184A4FF49B71D7F8D0001BF0EAFC8A
:107ED0000FE000BF0EE000BF0CE000BF0AE000BFF3
:107EE00008E000BF06E000BF04E000BF02E000BF02
:107EF00000E000BF00BFE037BD4680BD445F00200A
:107F0000443207000432070098AB0600B8AB060005
:107F1000D0AB0600E4AB0600F8AB06001CAC0600D4
:107F200040AC060040AB060050610020F06000202D
:107F300080B582B000AFFFF74BFD78607B683B6097
:107F40003B68002B05D0054A40F2511138681BF000
:107F5000A9FC00BF0837BD4680BD00BF40AB06008E
:107F600080B582B000AF7860044A4FF4AD71786894
:107F70001BF098FC00BF0837BD4680BD40AB060033
:107F800080B58AB000AF0346FB710823BB60FB7964
:107F900007F1080107F10C004FF6FF720BF06CFCC3
:107FA00078627B6A3B623B6A002B05D00E4A4FF435
:107FB000B471386A1BF076FCBA6807F10C031146FD
:107FC00018460BF0E1FB78627B6AFB61FB69002BD2
:107FD00005D0054A40F26B11F8691BF063FC00BF45
:107FE0002837BD4680BD00BF40AB060080B500AF5E
:107FF00000F008F800F038F800F06EF800F09CF897
:1080000000BF80BD80B584B000AF00237B600B4B08
:108010007B603B1D19460A4807F09EFCF860FB6830
:10802000BB60BB68002B05D0064A40F28511B868DA
:108030001BF038FC00BF1037BD4680BD49800200F0
:108040004461002040AB060080B582B000AF78608C
:10805000044A4FF4C87178681BF024FC00BF08374D
:10806000BD4680BD40AB060080B594B000AF022392
:108070003B7042F691037B8047F22413BB800123BF
:10808000FB8007F10803402200211846FFF788F91A
:1080900007F108030E49184606F04CFE3B463B64C8
:1080A000022387F8443007F10803184603F010FD57
:1080B000F864FB6CBB64BB6C002B05D0054A4FF425
:1080C000D471B86C1BF0EEFB00BF5037BD4680BDCD
:1080D00054AC060040AB060080B586B000AF3B460E
:1080E000102200211846FFF75BF900233B600123B3
:1080F0003B710023BB6064233B7302237B73022329
:10810000BB730223FB733B461946094803F052FB3D
:1081100078617B693B613B69002B05D0054A4FF4D0
:10812000DF7138691BF0BEFB00BF1837BD4680BD4C
:108130001C61002040AB060080B598B000AF202243
:1081400000217448FFF72CF9082200217248FFF73C
:1081500027F9082200217148FFF722F96D4BFB65D2
:10816000FB6D08221A80FB6D01229A70FB6D0122C3
:10817000DA70FB6D02229A71FB6D02225A71FB6D5F
:1081800002221A71644BBB65BB6D01221A80BB6D64
:1081900001229A70BB6D0222DA70BB6D02225A7105
:1081A000BB6D02221A715D4B7B657B6D02221A80CA
:1081B0007B6D00229A707B6D0322DA707B6D022248
:1081C0001A717B6D02225A71554BFB65FB6D0322C0
:1081D0001A80FB6D02229A70FB6D0122DA70FB6D32
:1081E00002229A71FB6D02225A71FB6D02221A71F2
:1081F0004C4BFB65FB6D03221A80FB6D03229A70CA
:10820000FB6D0122DA70FB6D02229A71FB6D022276
:108210005A71FB6D02221A71434BFB65FB6D012203
:108220001A80FB6D04229A70FB6D0122DA70FB6DDF
:1082300002229A71FB6D02225A71FB6D02221A71A1
:10824000032387F853303B46482200211846FFF7A6
:10825000A7F8364B3B60364B7B6001233B72012312
:108260007B720423BB722B4BFB6001233B742A4BB4
:108270007B6101233B76294BFB61D623BB842D4BCD
:108280003B6240F201133B86002387F8323097F8B7
:10829000533087F83330002387F836300023BB6330
:1082A000022387F82C30022387F83430022387F822
:1082B0004430022387F84230022387F845300223F6
:1082C00087F84630022387F84130022387F8403090
:1082D000022387F83F30022387F83C30022387F8D7
:1082E0003D30022387F83E303B461946124804F0E1
:1082F00003FEF864FB6CBB64BB6C002B05D00F4A1B
:1083000040F2BA21B86C1BF0CDFA00BF6037BD4611
:1083100080BD00BF34660020546600205C660020EB
:108320003C660020446600204C6600204183020029
:10833000FD8302007C5B0020F459002040AB060066
:1083400080B582B000AF786039603B681B78023B33
:10835000042B19D801A252F823F000BF8983020030
:108360008983020081830200718302007983020005
:10837000084B01221A7008E0064B00221A7004E034
:10838000386800F009F800E000BF00BF0837BD46BC
:1083900080BD00BFEE60002080B588B002AF78607D
:1083A0007B689B79022B1CD17B68DB79FB75FB7D9D
:1083B000002B16D10D4B1B88F97D0D4A01920093BD
:1083C000002301220B4805F025F838613B69FB606A
:1083D000FB68002B05D0084A40F20331F8681BF017
:1083E00061FA00BF1837BD4680BD00BFE4590020C8
:1083F000EC600020F459002040AB060080B582B04C
:1084000000AF7860044A40F2163178681BF04AFAEF
:1084100000BF0837BD4680BD40AB060080B58AB0BE
:1084200000AF3B1D1C2200211846FEF7B9FF0023B8
:108430007B604FF4A033BB604FF4F023FB60032359
:108440003B7400237B8200233B750023BB610B4BF5
:10845000FB613B1D184605F079FF78627B6A3B6241
:108460003B6A002B05D0064A40F22D31386A1BF0DA
:1084700019FA00BF2837BD4680BD00BF85840200C1
:1084800040AB060080B582B000AF7860044A40F28D
:10849000363178681BF006FA00BF0837BD4680BD4C
:1084A00040AB060080B586B000AF0AF0D9FF786116
:1084B0007B693B613B69002B05D02E4A40F243317A
:1084C00038691BF0EFF93B46052200211846FEF7FC
:1084D00067FF3B7843F001033B703B786FF3410348
:1084E0003B703B786FF382033B703B786FF3C303C1
:1084F0003B703B78032262F306133B703B786FF3CB
:10850000C7133B7007237B701023BB70FB7843F0CD
:108510000103FB70FB7843F00203FB703B7943F0EF
:1085200001033B713B7943F002033B713B46184624
:108530000BF0A2F878617B69FB60FB68002B05D02B
:108540000C4A40F25631F8681BF0ACF90A480BF0BF
:1085500065F878617B69BB60BB68002B05D0054A74
:1085600040F25931B8681BF09DF900BF1837BD467D
:1085700080BD00BF40AB06007D85020080B582B0A3
:1085800000AF786078680BF0A1FD78680CF0BCF95A
:1085900078680BF007FE7B681B78033B0A2B5BD8DF
:1085A00001A252F823F000BFD585020059860200CF
:1085B0005986020059860200598602005986020037
:1085C0001D86020059860200DF85020059860200DE
:1085D000F18502007B689A88234B1A803FE000BF38
:1085E00011F07EFF0346002BFAD1FFF7F5F936E0D4
:1085F0001E4B5B88022B0AD91D4A1E4BD31ADB087F
:108600001B0443F003031C49184611F0D1FE00BFC0
:1086100011F066FF0346002BFAD120E07B681B7C3B
:1086200003F00103DBB2002B18D07B681B7A072B09
:1086300014D10E4B5B88022B0AD90D4A0D4BD31A6D
:10864000DB081B0443F003030C49184611F0B0FE8D
:10865000012000F015F801E000BF00E000BF00BFFE
:108660000837BD4680BD00BFF0600020445F002099
:10867000443207000432070060AC060074AC060008
:1086800080B58AB000AF0346FB710823BB60FB795D
:1086900007F1080107F10C004FF6FF720BF0ECF840
:1086A00078627B6A3B623B6A002B05D00E4A40F23F
:1086B000A231386A1BF0F6F8BA6807F10C031146CC
:1086C00018460BF015F878627B6AFB61FB69002B9A
:1086D00005D0054A40F2A931F8691BF0E3F800BF64
:1086E0002837BD4680BD00BF40AB060080B584B0D2
:1086F00000AF0346FB71FB79002B02D000F01CF8A1
:1087000012E00120FFF7BCFF0321094802F0AEFD93
:10871000F860FB68BB60BB68002B05D0054A40F2DF
:10872000BB31B8681BF0BEF800BF1037BD4680BD36
:108730005061002040AB060080B582B000AF104B06
:108740005B88022B0AD90F4A0F4BD31ADB081B0494
:1087500043F003030D49184611F02AFE0BF0F6F919
:1087600078607B683B603B68002B05D0084A40F28C
:10877000C93138681BF096F800BF0837BD4680BD88
:10878000445F00204432070004320700A8AC060012
:1087900040AB060080B500AF12F0B8FE11F0A0FEAD
:1087A000034683F00103DBB2002B01D012F008FD79
:1087B00000BF80BD80B588B000AF786039607B684D
:1087C0001B88572B00F0C580572B00F3C480562B15
:1087D00000F09D80562B00F3BE803B2B75D03B2BC9
:1087E00000F3B980212B48D0212B00F3B480102B4B
:1087F00002D0112B2AD0AEE05D4B5B88022B0AD948
:108800005C4A5D4BD31ADB081B0443F003035B494E
:10881000184611F0CDFD5A4B01221A707B689A88D8
:10882000584B1A80574B1B881946574807F0BBF81E
:10883000F861FB69FB60FB68002B00F08E80534AF7
:1088400040F2EF31F8681BF02DF886E0484B5B886A
:10885000022B0AD9474A484BD31ADB081B0443F0C2
:1088600003034B49184611F0A3FD454B00221A7033
:10887000444B4FF6FF721A8076E03D4B5B88032B2A
:108880000AD93C4A3C4BD31ADB081B0443F00403CF
:108890004049184611F08CFD00233B7200237B7287
:1088A0007B689B8807F1080211461846FFF776F8A7
:1088B000F861FB693B613B69002B50D0334A40F2C1
:1088C000094138691AF0EEFF49E0294B5B88032B18
:1088D0000AD9284A284BD31ADB081B0443F00403A7
:1088E0002D49184611F064FD7B689B8813211846BA
:1088F000FFF744F8F861FB697B617B69002B30D09E
:10890000224A40F2194178691AF0CCFF29E0184B4D
:108910005B88032B0AD9174A174BD31ADB081B04B1
:1089200043F004031D49184611F042FD7B689B8803
:1089300013211846FFF722F8F861FB69BB61BB6998
:10894000002B10D0114A40F22441B8691AF0AAFF56
:1089500009E000BF08E000BF06E000BF04E000BF80
:1089600002E000BF00E000BF00BF2037BD4680BD71
:10897000445F00204432070004320700D4AC0600F4
:10898000ED600020E45900204461002040AB060067
:10899000E4AC0600F8AC06000CAD060024AD060001
:1089A00080B400AF034B1B781846BD465DF8047BCE
:1089B000704700BFED60002080B586B002AF7860E0
:1089C000114B1B7883F00103DBB2002B0AD00F4B55
:1089D0001B8800937B68082200210D4804F082FB6D
:1089E000F86007E0094B1B887A680821084804F002
:1089F00015FCF860FB68002B01D1012300E0002387
:108A000018461037BD4680BDEE600020E4590020B6
:108A1000F459002080B588B004AF03460A46FB80B5
:108A20001346BB80294B1B7883F00103DBB2002B7C
:108A300030D0B7F90630B3F5805F02DB40F6FF7344
:108A4000FB80B7F90430B3F5805F02DB40F6FF73BB
:108A5000BB80FB88DBB23B72BB881B015AB2FB8830
:108A60001B125BB203F00F035BB213435BB2DBB2CA
:108A70007B72BB881B11DBB2BB72154B1B8807F1E5
:108A800008020093134603220221124804F02AFB35
:108A9000F86010E0FB885AB2BB8859B20C4B1B88B7
:108AA000029300230193002300930B460021094801
:108AB00004F01AFCF860FB68002B01D1012300E0F0
:108AC000002318461037BD4680BD00BFEE60002071
:108AD000E4590020F459002080B588B004AF034663
:108AE000FB710B46BB7113467B71194B1B7883F0EE
:108AF0000103DBB2002B12D0FB793B72BB797B7296
:108B00007B79BB72134B1B8807F108020093134655
:108B100003220121104804F0E5FAF8600DE00D4B46
:108B20001B88F9790293002301930023009300230B
:108B30000022094804F0D8FBF860FB68002B01D143
:108B4000012300E0002318461037BD4680BD00BF5A
:108B5000EE600020E4590020F459002080B485B074
:108B600000AFF860B9607A6000BF1437BD465DF8A9
:108B7000047B704780B483B000AF78607B68184690
:108B80000C37BD465DF8047B704780B483B000AFFE
:108B900078607B6818460C37BD465DF8047B7047EB
:108BA00080B400AF4FF08043D3F838341846BD4648
:108BB0005DF8047B704780B500AFFFF7F1FF034617
:108BC00003F00103002B14BF01230023DBB218467E
:108BD00080BD000080B586B000AF0123FB7516F0A4
:108BE00011FA3B4814F028FA38613B69FB60FB68D6
:108BF000002B04D0374A5721F8681AF053FE364844
:108C0000FFF7C3FF0346354A1360344B1B68184611
:108C100014F084FE38613B69BB60BB68002B04D054
:108C20002C4A6021B8681AF03DFE2D48FFF7A2FFDC
:108C300003462C4A13602B4B1B68184614F06EFE3B
:108C400038613B697B607B68002B04D0214A692135
:108C500078681AF027FE00F011FC0346FB75FB7DD7
:108C6000002B05D0204A71211A48FFF777FFFEE755
:108C700014F08CFA38613B693B603B68002B04D0F0
:108C8000144A782138681AF00DFEFFF794FF034666
:108C9000002B18D0154B5B88022B0AD9144A154BB0
:108CA000D31ADB081B0443F003031349184611F0E1
:108CB0007FFB00BF11F014FC0346002BFAD114F027
:108CC0008FFA14F0A9FA00BF1837BD4680BD00BF67
:108CD00054AF06003CAE060004AE0600C466002099
:108CE00090AD06006466002074AE0600445F00206C
:108CF000443207000432070088AE060080B582B017
:108D000000AF0346FB71FB79023B0C2B00F2D680CF
:108D100001A252F823F000BF798D0200AF8D02004E
:108D2000BD8E0200BD8E0200BD8E0200BD8E02000F
:108D3000178E0200878E0200578E0200BD8E020041
:108D4000BD8E02004D8D0200E78D02005F4B5B88F7
:108D5000022B0AD95E4A5F4BD31ADB081B0443F08F
:108D600003035D49184611F023FB00BF11F0B8FB67
:108D70000346002BFAD1A4E0544B5B88022B0AD99E
:108D8000534A544BD31ADB081B0443F003035349E3
:108D9000184611F00DFB00BF11F0A2FB0346002B9B
:108DA000FAD114F06EFA4E4B01221A7089E0474B4B
:108DB0005B88022B0AD9464A464BD31ADB081B04B0
:108DC00043F003034749184611F0F2FA00BF11F0CF
:108DD00087FB0346002BFAD1434B01221A70404B0C
:108DE00000221A706DE0394B5B88022B0AD9384A91
:108DF000384BD31ADB081B0443F003033B491846E6
:108E000011F0D6FA00BF11F06BFB0346002BFAD12C
:108E100014F0ECF955E02D4B5B88022B0AD92C4A53
:108E20002C4BD31ADB081B0443F0030330491846CC
:108E300011F0BEFA00BF11F053FB0346002BFAD12C
:108E400023F06AFC034683F00103DBB2002B37D02A
:108E500014F0C6F934E01D4B5B88022B0AD91C4A7A
:108E60001C4BD31ADB081B0443F0030321491846AB
:108E700011F09EFA00BF11F033FB0346002BFAD12C
:108E800014F0CAF91DE0114B5B88022B0AD9104A75
:108E9000104BD31ADB081B0443F003031649184692
:108EA00011F086FA00BF11F01BFB0346002BFAD12C
:108EB00014F0DAF90C4B00221A7002E000BF00E057
:108EC00000BF00BF0837BD4680BD00BF445F002023
:108ED0004432070004320700BCAE0600C8AE0600EC
:108EE0002E8E0020D8AE06002D8E0020E4AE0600A7
:108EF000F0AE060004AF060010AF060080B400AF6D
:108F0000034B1B781846BD465DF8047B704700BFD5
:108F10002D8E002080B400AF034B1B781846BD4651
:108F20005DF8047B704700BF2E8E002080B500AF37
:108F300014F076FC00F03EF900BF80BD80B582B031
:108F400000AF78600B46FB70FB78032B2ED801A294
:108F500052F823F06D8F0200A58F0200AD8F020042
:108F6000658F0200144B00221A7020E0786818F018
:108F7000D1F8124B5B88022B0AD9114A114BD31A34
:108F8000DB081B0443F003030F49184611F010FAE5
:108F900000BF11F0A5FA0346002BFAD10B4B0122BA
:108FA0001A7004E0786818F0B5F800E000BF00BF60
:108FB0000837BD4680BD00BF69660020445F0020C1
:108FC000443207000432070024AF06006866002020
:108FD00080B400AF034B1B781846BD465DF8047B98
:108FE000704700BF6866002080B400AF034B1B7859
:108FF0001846BD465DF8047B704700BF69660020D7
:1090000080B400AF034B01221A7000BFBD465DF86B
:10901000047B70476966002080B582B000AF78603D
:109020000B46FB70FB78032B1CD801A252F823F0EF
:10903000559002005D900200419002004D900200A8
:109040000B494FF4E5701AF022FE0CE0094B0022A8
:109050001A7008E0786819F0A5F904E0786819F04A
:10906000A1F900E000BF00BF0837BD4680BD00BFCA
:109070003CAE0600C866002080B582B000AF034653
:109080000A46FB711346BB71BA79FB79194603484E
:1090900019F09CF800BF0837BD4680BD04AE06003D
:1090A00080B582B000AF0346FB71064B01221A70F7
:1090B00097F907301946044818F09AFF00BF08379F
:1090C000BD4680BDC866002004AE060080B582B0F3
:1090D00000AF0346FB71064B01221A7097F9073067
:1090E0001946044818F0D3FF00BF0837BD4680BDBD
:1090F000C866002004AE060080B582B000AF03460B
:10910000FB7197F907301946034819F00FF800BFB3
:109110000837BD4680BD00BF04AE060080B500AF75
:10912000044B01221A70044B1B68184619F03AF9D7
:1091300000BF80BDC8660020C466002080B582B034
:1091400000AF00F06FFC0346BB80174B1B6842F278
:109150000F72934207DC144B1B689BB2C3F51C5380
:1091600010339BB200E000237B80BB88FB807A88B1
:10917000FB889A4205D87B88013BFB800B4B012280
:109180001A70094B1B680A4A1344FA88114618469C
:1091900000F052FCFA88044B1B681344024A136027
:1091A00000BF0837BD4680BD288E00202C8E0020D1
:1091B0001867002080B500AF00F03AFDFFF7BEFF52
:1091C00000BF80BD80B400AF064B1B78002B02D0DF
:1091D00042F20F7301E0044B1B681846BD465DF870
:1091E000047B70472C8E0020288E002080B400AFB6
:1091F000024B1846BD465DF8047B70471867002097
:1092000080B400AF054B00221A60054B00221A7093
:1092100000BFBD465DF8047B704700BF288E00206C
:109220002C8E002080B586B000AF786039600123B5
:10923000FB753B681B68002B01D1002320E000F088
:10924000CDFC03463B613B69002B01D1012317E0B4
:109250003B681B683A69934228BF1346FB60FB6872
:109260009BB21946786800F0C3FC0346FB75FB7D92
:10927000002B03D13B68FA681A6000E000BFFB7D59
:1092800018461837BD4680BD80B584B000AF786001
:1092900039603B68BB6007F1080319467868FFF73F
:1092A000C1FF0346FB73FB7B002B08D1BB687A68C8
:1092B00013447B60BB683A68D31A3B6001E0FFF758
:1092C00035FE3B68002BE4D100BF00BF1037BD4620
:1092D00080BD80B483B000AF78607B6818460C37DF
:1092E000BD465DF8047B704780B483B000AF786002
:1092F0007B6818460C37BD465DF8047B704780B527
:1093000082B000AF7860786800F00EFE00BF0837CA
:10931000BD4680BD80B582B000AF7860786800F04F
:109320000EFE034618460837BD4680BD80B582B0A4
:1093300000AF7860786800F00EFE00BF0837BD46C9
:1093400080BD80B586B000AF78600123FB757B6877
:109350009B7E002B01D0002337E001233B720023CA
:10936000FB6080233B827B68083307F108021146CB
:10937000184601F06BFB0346FB75FB7D012B20D0EB
:1093800002233B720023FB6080233B827B680C330B
:1093900007F108021146184601F058FB0346FB7519
:1093A000FB7D012B0FD07B6810331846FFF7A7FF1A
:1093B0007B6814331846FFF7A2FF7B6801229A7678
:1093C00002E000BF00E000BFFB7D18461837BD4635
:1093D00080BD000080B584B000AF78600123FB73CE
:1093E0000023FB731048FFF774FF02467B681A6086
:1093F0007B681B681846FFF777FF02467B685A6058
:109400007B681B68184614F089FAB860BB68002BAB
:1094100003D00123FB73FB7B012B00BFFB7B1846B2
:109420001037BD4680BD00BF60AF060080B584B078
:1094300000AF78600123FB737868FFF782FF034673
:10944000FB73FB7B012B13D07B6800221A837B68A4
:109450000022DA767B6800221A777B6800225A772E
:109460007868FFF7B7FF0346FB73FB7B012B00E037
:1094700000BFFB7B18461037BD4680BD80B582B06B
:1094800000AF0123FB710648FFF7D0FF0346FB71D5
:10949000FB79012B00BFFB7918460837BD4680BD1C
:1094A000B88E002080B582B000AF78607B68012262
:1094B000DA76786800F0EDF900BF0837BD4680BD68
:1094C00080B582B000AF78607B680022DA767B6876
:1094D0009B68184601F0EFFA7B68DB68184601F0DC
:1094E000EAFA7B6800221A837B6800221A777B687D
:1094F00000225A7700BF0837BD4680BD80B584B0D2
:1095000000AF78607B6800221A777B68DB681846BA
:1095100001F0C5FAF8607B681B8B1BB21946F8682E
:1095200000F0E2FE786800F0D8F900BF1037BD46C1
:1095300080BD80B584B000AF78607B6800225A7728
:109540007B689B68184601F0AAFAF8607B685B6844
:10955000184617F0AEFA03467B81B7F90A30194670
:10956000F86800F027FF786800F093F900BF103723
:10957000BD4680BD80B584B000AFF860B9601346C9
:10958000FB71FB681B68BA689A4206D0154A40F224
:109590004B111548FFF7E2FAFEE7FB79032B1BD8C6
:1095A00001A252F823F000BFD1950200C995020034
:1095B000B9950200C1950200F868FFF773FF0CE04F
:1095C000F868FFF77DFF08E0F868FFF797FF04E011
:1095D000F868FFF7AEFF00E000BF00BF1037BD46E0
:1095E00080BD00BF84AF0600A8AF060080B582B082
:1095F00000AF78600B46FB70FB781A467968034829
:10960000FFF7B8FF00BF0837BD4680BDB88E002009
:1096100080B586B000AF78607B685B7F002B7DD122
:109620007B689B68184601F03AFA3861386900F0A7
:109630004FFE0346002B73D07B685B68184617F01B
:1096400046FA0346BB822DE0386901F0B0F8F860B5
:10965000386901F0DFF80346FB82FB8A002B25D036
:10966000FA8ABB8A9A4201D9BB8AFB827B685B6813
:10967000FA8AF968184617F039FAB860BB68002B07
:1096800006D02B4A40F2A7112A48FFF767FAFEE7F7
:10969000B7F916301946386900F08CFEBA8AFB8A91
:1096A000D31ABB82BB8A002BCED100E000BFBB8A9D
:1096B000002B37D1386900F00BFE0346002B31D068
:1096C000386901F074F8F860386901F0A3F80346CE
:1096D000FB82FB8A002B27D07B6801225A777B68AC
:1096E0005B681B680022C3F884207B685B68FA8A89
:1096F000F968184617F0FAF9B860BB68002B06D174
:109700000D4A4FF4E6710B48FFF728FAFEE7BB68F5
:10971000922B0AD07B6800225A7706E000BF04E053
:1097200000BF02E000BF00E000BF1837BD4680BDAB
:10973000E4AF0600A8AF060010B0060080B586B002
:1097400000AF78607B681B7F002B2ED17B68DB68C5
:10975000184601F0A4F97861786900F0ADFD034680
:10976000002B24D00021786901F009F8386100212C
:10977000786901F02BF80346FB817B68FA891A832C
:109780007B6801221A777B685B68FA893969184619
:1097900017F040F9B860BB68002B09D07B68002245
:1097A0001A837B6800221A7702E000BF00E000BF46
:1097B0001837BD4680BD80B582B000AF78607B6849
:1097C0001B691846FFF7A6FD034618460837BD4635
:1097D00080BD80B582B000AF78607B681B69184699
:1097E000FFF7A4FD00BF0837BD4680BD80B582B03D
:1097F00000AF78607B685B691846FFF78BFD034616
:1098000018460837BD4680BD80B582B000AF78608D
:109810007B685B691846FFF789FD00BF0837BD46C6
:1098200080BD80B582B000AF78607868FFF7C3FF75
:10983000034683F00103DBB2002B01D0022308E0D2
:109840007B689B68184601F090F97868FFF7C1FFC4
:10985000002318460837BD4680BD80B582B000AFF2
:1098600078607868FFF7C2FF034683F00103DBB23C
:10987000002B01D0022308E07B68DB68184601F06A
:1098800074F97868FFF7C0FF002318460837BD4613
:1098900080BD80B584B000AF78607868FFF7C1FF05
:1098A0000346FB73FB7B002B11D17868FFF783FF26
:1098B000034683F00103DBB2002B01D0022308E052
:1098C0007868FFF7A5FE7868FFF783FF00E000BF28
:1098D000FB7B18461037BD4680BD80B584B000AF15
:1098E00078607868FFF7B9FF0346FB73FB7B002BBA
:1098F00011D17868FFF77AFF034683F00103DBB2EA
:10990000002B01D0022308E07868FFF717FF786882
:10991000FFF77AFF00E000BFFB7B18461037BD461B
:1099200080BD000080B586B000AF78607B68002BFA
:1099300006D1134A40F27A211248FFF70FF9FEE7E9
:109940007868FFF76EFF0346FB75FB7D012B06D1A0
:109950000D4A40F27D210B48FFF700F9FEE77B68D6
:109960009B68184601F08FF83861386900F0A4FC54
:109970000346FB81FB8918461837BD4680BD00BFF2
:1099800038B00600A8AF060058B0060080B586B013
:1099900000AFF860B9601346FB800123FB7501231B
:1099A000BB75FB68002B06D11B4A40F29B211B486C
:1099B000FFF7D4F8FEE7F868FFF733FFFB689B6812
:1099C000184601F060F83861FB881A46B9683869B2
:1099D00000F0C2FE0346FB75FB7D012B06D0B7F9F4
:1099E00006301946386900F07FFC00E000BFF868D7
:1099F000FFF74FFF0346BB75BB7D012B06D1084A1D
:109A00004FF42B710548FFF7A9F8FEE7FB7D1846D8
:109A10001837BD4680BD00BF38B00600A8AF0600AD
:109A200080B0060080B500AF0248FFF77BFF034619
:109A3000184680BDB88E002080B582B000AF786037
:109A40000B467B807B881A4679680448FFF79EFFA7
:109A5000034618460837BD4680BD00BFB88E0020BB
:109A600080B586B000AF78607B68002B06D1174ABE
:109A700040F2F6211648FFF771F8FEE77B68DB7EBF
:109A800083F00103DBB2002B01D000231AE07868D9
:109A9000FFF7E3FE0346FB75FB7D012B06D10D4A64
:109AA00040F2FE210A48FFF759F8FEE77B68DB68C1
:109AB000184600F0E8FF3861386900F009FC0346F9
:109AC000FB81FB8918461837BD4680BD38B00600BB
:109AD000A8AF0600CCB0060080B586B000AFF86035
:109AE000B9601346FB800123FB750123BB75FB683E
:109AF000002B06D11E4A40F222311E48FFF72EF8F5
:109B0000FEE7FB68DB7E83F00103DBB2002B01D0B4
:109B1000012328E0FB88002B01D1002323E0F86813
:109B2000FFF79BFEFB68DB68184600F0ACFF38616E
:109B3000FB881A46B968386900F08BFD0346FB754F
:109B4000FB7D012B00BFF868FFF7C7FE0346BB751E
:109B5000BB7D012B06D1084A40F23A310548FEF799
:109B6000FDFFFEE7FB7D18461837BD4680BD00BFF0
:109B700038B00600A8AF0600F4B0060080B584B087
:109B800000AF78600123FB737B68002B06D1104A7D
:109B900040F26A310F48FEF7E1FFFEE77B68DB7EAB
:109BA00083F00103DBB2002B0ED17868FFF795FE3E
:109BB0000346FB73FB7B012B07D1074A40F273314D
:109BC0000448FEF7CBFFFEE700BF1037BD4680BD5F
:109BD00038B00600A8AF0600F4B0060080B500AFAC
:109BE0000248FFF73DFF0346184680BDB88E0020AF
:109BF00080B582B000AF78600B467B807B881A46C8
:109C000079680448FFF768FF034618460837BD46E1
:109C100080BD00BFB88E002080B582B000AF7860F4
:109C20007868FFF7ABFF00BF0837BD4680BD000076
:109C300080B500AF0248FFF7EFFF00BF80BD00BF57
:109C4000B88E002080B582B000AF0123FB7100F018
:109C500071F80346FB71FB79012B00BFFB791846B5
:109C60000837BD4680BD80B582B000AF0123FB71CF
:109C700000F046F900F04EF90346FB71FB79012B29
:109C800000BFFB7918460837BD4680BD80B483B05D
:109C900000AF78607B6801221A607B6810225A60EE
:109CA0007B6800229A607B680022DA6000BF0C3774
:109CB000BD465DF8047B704790B585B000AF786015
:109CC0007B685B68184600F08CF80346FB73FB7BEF
:109CD000002B09D17B685A687B6803F1080413469E
:109CE0000FCB84E80F0004E07B6808331846FFF7C9
:109CF000CDFF002318461437BD4690BD80B584B013
:109D000000AF78600123FB737B684FF4FE225A603A
:109D10007868FFF7D1FF0346FB73FB7B012B03D071
:109D20007B6801221A7000E000BFFB7B18461037E9
:109D3000BD4680BD80B582B000AF0123FB710648EF
:109D4000FFF7DCFF0346FB71FB79012B00BFFB79BA
:109D500018460837BD4680BDDC8E002080B483B035
:109D600000AF78607B681B68012B03D17B685B6860
:109D7000102B01D0012300E0002318460C37BD460C
:109D80005DF8047B704790B589B000AF78607B6860
:109D900007F10C040FCB84E80F0000237B6107F16F
:109DA0000C03102219464FF0FF3000F0F5FEF86169
:109DB000FB6918462437BD4690BD80B584B000AF1E
:109DC00078607868FFF7DFFFF8607B689B68FA6867
:109DD0009A4214BF01230023DBB218461037BD4658
:109DE00080BD80B584B000AF78600123FB737B68D1
:109DF0001846FFF7B3FF0346FB73FB7B012B07D02D
:109E00007868FFF7DAFF0346FB73FB7B012B00E06A
:109E100000BFFB7B18461037BD4680BD80B582B0C1
:109E200000AF78607B685B68184623F0BFF800BF1E
:109E30000837BD4680BD80B582B000AF78607B68D2
:109E400058687B680833102219463FF0D1FA034660
:109E5000002B0CBF01230023DBB218460837BD4698
:109E600080BD80B582B000AF78607868FFF7E3FF0F
:109E70000346002B01D000231FE07868FFF7CEFFD8
:109E80007B6808331846FFF77EFF02467B681A613D
:109E90007B685B6818467B6808330422194623F008
:109EA000A9F87868FFF7C7FF034683F00103DBB228
:109EB000002B01D0012300E0002318460837BD46DF
:109EC00080BD000080B582B000AF78600B46FB70AB
:109ED0007B681B7883F00103DBB2002B05D0064AB8
:109EE000CA210648FEF73AFEFEE7FA787B685A6117
:109EF00000BF0837BD4680BD20B106004CB106004A
:109F000080B500AF01210248FFF7DCFF00BF80BD34
:109F1000DC8E002080B500AF0248FFF7A2FF0346A9
:109F2000184680BDDC8E002080B582B000AF78601E
:109F3000786800F07FF800BF0837BD4680BD80B567
:109F400082B000AF7860786800F087F80346184662
:109F50000837BD4680BD80B582B000AF78607868B4
:109F600000F088F800BF0837BD4680BD80B582B0DC
:109F700000AF78607B68002B03D10749722019F08D
:109F800086FE7B6800221A60BFF35F8F00BF00BFB0
:109F90000837BD4680BD00BF98B1060080B584B0CB
:109FA00000AF78607B68002B03D10B49852019F046
:109FB0006EFE012178680CF0E5F9F860BFF35F8F61
:109FC00000BFFB68002B0CBF01230023DBB2184647
:109FD0001037BD4680BD00BF98B1060080B582B085
:109FE00000AF78607B68002B03D10B49922019F0F9
:109FF0004EFE7B681B68012B03D00749932019F0A4
:10A0000046FEBFF35F8F00BF7B6800221A6000BF6F
:10A010000837BD4680BD00BF98B1060080B582B04C
:10A0200000AF78607B681846FFF7A0FF00BF0837D5
:10A03000BD4680BD80B582B000AF7860042000F0DE
:10A0400089FC02467B681A607B681B681846FFF72C
:10A05000E5FF00BF0837BD4680BD80B582B000AFC8
:10A0600078607B681846FFF799FF03461846083763
:10A07000BD4680BD80B582B000AF78607B68184671
:10A08000FFF7ACFF00BF0837BD4680BD80B586B086
:10A0900000AF786039600023FB753A6807F10C0364
:10A0A00092E8030083E80300FB68002B08D13B8A99
:10A0B000002B05D03B8A184600F04CFC0346FB60A1
:10A0C00007F10C031946786800F02CF80346FB757D
:10A0D000FB7D012B03D07B6800221A7000E000BFDB
:10A0E000FB7D18461837BD4680BD80B584B000AFF3
:10A0F000786039600123FB73142000F02BFC0246CA
:10A100007B681A607B681B6839681846FFF7BEFFDA
:10A110000346FB73FB7B012B00BFFB7B184610370C
:10A12000BD4680BD80B584B000AF78603960002343
:10A13000FB733B689B881BB2002B05DA0C4A61213C
:10A140000C48FEF70BFDFEE73B681A687B685A6017
:10A150003B689A887B681A81786800F00DF8786807
:10A1600000F062F8FB7B18461037BD4680BD00BF8B
:10A1700004B206002CB2060080B483B000AF786051
:10A180007B6800225A817B6800229A817B680022CA
:10A19000DA817B685A8A7B681A8200BF0C37BD4619
:10A1A0005DF8047B7047000080B582B000AF786036
:10A1B0000B467B807A887B681B89002B03D07B68E9
:10A1C0001B89013B01E07B681B89934205DA134A36
:10A1D00094211348FEF7C2FCFEE77B685B8A7A880D
:10A1E0009A4216D07B68DB897A889A4205D20D4A5A
:10A1F0009C210B48FEF7B2FCFEE77B687A885A8206
:10A200007B685A8A7B68DB89D31A9AB27B681A8288
:10A2100000E000BF0837BD4680BD00BF24B3060084
:10A220002CB2060074B3060080B582B000AF78602F
:10A230007B681B89002B04D07B681B89013B9BB288
:10A2400001E07B681B8919467868FFF7ADFF00BF06
:10A250000837BD4680BD80B485B000AF78603960F6
:10A260003B685B68BB603B681B89BB817B681A46A7
:10A2700007F1080393E8030082E8030078681437C5
:10A28000BD465DF8047B704780B483B000AF786052
:10A290007B685B8918460C37BD465DF8047B7047C8
:10A2A00080B483B000AF78607B689B8918460C3718
:10A2B000BD465DF8047B704780B483B000AF786022
:10A2C0007B68DB8918460C37BD465DF8047B704718
:10A2D00080B483B000AF78607B681B8A18460C3767
:10A2E000BD465DF8047B704780B582B000AF7860F2
:10A2F0000B467B80B7F90230002B50D0B7F9023003
:10A30000002B13DDB7F902307A68D289934205DD5C
:10A31000254AD8212548FEF721FCFEE77B685A89AB
:10A320007B8813449AB27B685A811BE0B7F90230EC
:10A33000002B17DAB7F902305B427A68128A93422F
:10A3400005DD1B4ADE211948FEF708FCFEE77B68A5
:10A350005A897B681B8913449AB27B8813449AB24A
:10A360007B685A817B685A897B681B899A4207D32C
:10A370007B685A897B681B89D31A9AB27B685A8199
:10A380007B68DA897B88D31A9AB27B68DA817B682A
:10A390001A8A7B8813449AB27B681A8200E000BF55
:10A3A0000837BD4680BD00BFC8B306002CB206000A
:10A3B00028B4060080B582B000AF78600B467B8081
:10A3C000B7F90230002B50D0B7F90230002B13DD63
:10A3D000B7F902307A68128A934205DD254AF421E2
:10A3E0002548FEF7BBFBFEE77B689A897B88134410
:10A3F0009AB27B689A811BE0B7F90230002B17DA1A
:10A40000B7F902305B427A68D289934205DD1B4A74
:10A41000FA211948FEF7A2FBFEE77B689A897B6860
:10A420001B8913449AB27B8813449AB27B689A8141
:10A430007B689A897B681B899A4207D37B689A89D3
:10A440007B681B89D31A9AB27B689A817B68DA8908
:10A450007B8813449AB27B68DA817B681A8A7B888E
:10A46000D31A9AB27B681A8200E000BF0837BD4653
:10A4700080BD00BF88B406002CB20600E8B4060018
:10A4800080B483B000AF0346FB800B46BB8013460D
:10A490007B807A88BB889A4204D37A88BB88D31A97
:10A4A0009BB206E0FA887B8813449AB2BB88D31A21
:10A4B0009BB218460C37BD465DF8047B704780B5EB
:10A4C00082B000AF78600B467B807B6818897B6820
:10A4D0005B897A881946FFF7D3FF03461846083789
:10A4E000BD4680BD80B582B000AF78600B467B80F2
:10A4F0007B6818897B689B897A881946FFF7C0FFBB
:10A50000034618460837BD4680BD000080B584B0BC
:10A5100000AF78600B467B807B685B897A889A42C3
:10A5200019D07B681B897A889A4206D30C4A40F27C
:10A5300029110C48FEF712FBFEE77B881946786864
:10A54000FFF7BDFF0346FB81B7F90E301946786867
:10A55000FFF7CAFE00E000BF1037BD4680BD00BF58
:10A5600048B506002CB2060080B584B000AF786014
:10A570000B467B807B689B897A889A4219D07B68DE
:10A580001B897A889A4206D30C4A40F23B110C4848
:10A59000FEF7E4FAFEE77B8819467868FFF7A2FF2A
:10A5A0000346FB81B7F90E3019467868FFF702FFC2
:10A5B00000E000BF1037BD4680BD00BF8CB506006F
:10A5C0002CB2060080B586B000AFF860B9601146C5
:10A5D0001A460B46FB801346BB80BB88012B07D174
:10A5E000FB685A68FB881344BA6812781A702CE02A
:10A5F000BB88002B29D0FA88BB881344FA681289DB
:10A60000934219DDFB681A89FB88D31AFB82FB6829
:10A610005A68FB881344FA8AB96818463EF01AFF54
:10A62000FB685868FB8ABA68D118BA88FB8AD31AC3
:10A630001A463EF00FFF08E0FB685A68FB88134497
:10A64000BA88B96818463EF005FF00BF1837BD4606
:10A6500080BD80B584B000AFF860B9601346FB8060
:10A66000FB681B8AFA889A4201D901230DE0FB6836
:10A670009A89FB88B968F868FFF7A4FFB7F9063034
:10A680001946F868FFF796FE002318461037BD46B6
:10A6900080BD000080B584B000AFF8607A601A46D3
:10A6A0000B467B8113463B817B68002B06D1284AF1
:10A6B0004FF4EA712748FEF751FAFEE7FB68DB89A1
:10A6C0003A899A4201D901233EE03B89012B07D107
:10A6D000FB685A687B8913441A787B681A7032E0E9
:10A6E0003B89002B2FD07A893B891344FA68128961
:10A6F00093421FDDFB685A687B89D118FB681B8970
:10A700001A467B89D31A1A4678683EF0A3FEFB6886
:10A710001B891A467B89D31A7A68D018FB68596856
:10A720003B89FA6812899A1A7B8913441A463EF0CB
:10A7300091FE08E0FB685A687B8913443A89194600
:10A7400078683EF087FE002318461037BD4680BD6E
:10A750001CB606002CB2060080B584B000AFF860CD
:10A76000B9601346FB80FB685989FB88BA68F868B2
:10A77000FFF790FF034618461037BD4680BD80B5F1
:10A7800084B000AF78600B467B807B685B89B7F94B
:10A7900002201946786800F069F80346FB817B685F
:10A7A0005A68FB89134418461037BD4680BD80B4F3
:10A7B00083B000AF78607B685B687A6892891344E5
:10A7C00018460C37BD465DF8047B704780B584B0F1
:10A7D00000AF78600B467B807B685B89B7F902200D
:10A7E0001946786800F042F80346FB817B689B8934
:10A7F000FA899A4205D87B689A89FB89D31A9BB259
:10A8000004E07B681A89FB89D31A9BB2184610377B
:10A81000BD4680BD80B483B000AF78607B685A8944
:10A820007B689B899A4208D97B685A897B689B8997
:10A83000D31A9BB2013B9BB212E07B685B89002B71
:10A8400008D17B681A897B689B89D31A9BB2013B2C
:10A850009BB205E07B681A897B689B89D31A9BB2FF
:10A8600018460C37BD465DF8047B704780B584B050
:10A8700000AF78600B467B8013463B80B7F9003011
:10A88000002B01D17B883AE0B7F90030002B11DDB5
:10A89000B7F900307A681289934206DB1A4A40F20F
:10A8A0003F211A48FEF75AF9FEE73A887B8813449D
:10A8B000FB8119E0B7F90030002B15DAB7F9003049
:10A8C0005B427A681289934206DB114A40F24521C5
:10A8D0000E48FEF743F9FEE77B681A897B8813442C
:10A8E0009AB23B881344FB817B681B89FA899A42A0
:10A8F00004D37B681B89FA89D31AFB81FB8918462C
:10A900001037BD4680BD00BF38B606002CB2060029
:10A9100088B6060080B483B000AF786039607B6889
:10A920003A68B3FBF2F2396801FB02F29B1A002B82
:10A9300009D07A683B681A443B68B2FBF3F33A6883
:10A9400002FB03F300E07B6818460C37BD465DF858
:10A95000047B704780B584B000AF78600023FB6053
:10A96000104B1B68104A9B1A1A467B681344B3F5B8
:10A97000005F05D90D4A11210D48FEF7EFF8FEE7FB
:10A98000084B1B68FB6004217868FFF7C3FF024691
:10A99000044B1B681344034A1360FB6818461037C6
:10A9A000BD4680BD645C0020F48E0020DCB606004D
:10A9B000F8B6060080B588B000AFF860B960012332
:10A9C000FB77BB681B78012B09D0BB681B78022B77
:10A9D00005D01C4A13211C48FEF7C0F8FEE7BB68EF
:10A9E0001A78FB681A70FB681A1DBB680433194695
:10A9F0001046FFF77AFB0346FB77FB7F012B1AD04B
:10AA0000FB685A683B4611461846FFF724FC07F1DD
:10AA100014033A4692E8030083E80300FB68083316
:10AA200007F1140211461846FFF75FFB0346FB7758
:10AA3000FB7F012B00E000BFFB7F18462037BD469F
:10AA400080BD00BF30B7060050B7060080B584B0A7
:10AA500000AF786039600123FB730C20FFF77AFFA9
:10AA600002467B681A607B681B6839681846FFF7E6
:10AA7000A1FF0346FB73FB7B012B00BFFB7B18464A
:10AA80001037BD4680BD80B483B000AF78607B686E
:10AA90005B6818460C37BD465DF8047B704780B490
:10AAA00083B000AF78607B689B6818460C37BD4662
:10AAB0005DF8047B704780B582B000AF78607B683A
:10AAC0005B681846FFF758FB7B689B681846FFF7E2
:10AAD00053FB00BF0837BD4680BD80B584B000AFD2
:10AAE00078607B685B681846FFF7CEFB0346FB8106
:10AAF0007B689B681846FFF7D3FB0346BB817B68E6
:10AB00009B68FA8911461846FFF700FD7B685B6871
:10AB1000BA8911461846FFF727FD00BF1037BD461A
:10AB200080BD80B584B000AF78607B685B681846F4
:10AB3000FFF7B6FB0346FB817B689B681846FFF76F
:10AB4000A3FB0346BB817B689B68FA8911461846C4
:10AB5000FFF70AFD7B685B68BA8911461846FFF764
:10AB6000D5FC00BF1037BD4680BD80B582B000AFB8
:10AB700078607B681B78012B02D0022B04D007E0A1
:10AB80007868FFF7AAFF03E07868FFF7CAFF00BF05
:10AB900000BF0837BD4680BD80B485B000AFF86007
:10ABA000B9607A6012E0BB681B781A46FB685340B4
:10ABB000DBB20C4A52F82320FB681B0A5340FB60AF
:10ABC0007B68013B7B60BB680133BB607B68002B0B
:10ABD000E9D1FB68DB4318461437BD465DF8047BBA
:10ABE000704700BF8CB7060072DF704700BF184681
:10ABF00073DF704700BF184680B483B000AF786041
:10AC00007B6893F8303418460C37BD465DF8047BFA
:10AC1000704780B485B000AF78600023FB600AE025
:10AC20007A68FB6813441B78002B01D0012306E0EF
:10AC3000FB680133FB60FB68052BF1D90023184644
:10AC40001437BD465DF8047B7047000080B483B0C4
:10AC500000AF0346FB71FB795A1C084B83FB0213C0
:10AC60005910D317C91A0B469B000B44D11ACBB20B
:10AC700018460C37BD465DF8047B7047676666660C
:10AC800080B483B000AF786039603B68DB7B012B18
:10AC900004D13B689A887B68A3F8242400BF0C3752
:10ACA000BD465DF8047B704780B584B000AF786026
:10ACB00039607B68002283F82E243B689A887B6881
:10ACC000B3F824349A4216D17B681B7983F00103D0
:10ACD000DBB2002B0FD00121786800F0C7FAF860D2
:10ACE000FB68002B07D07B689B6B002B03D07B6835
:10ACF0009B6BF868984700BF1037BD4680BD80B594
:10AD000084B000AF786039603B681B88262B1ED169
:10AD10003B681B7A012B03D03B681B7A022B17D1AF
:10AD20007B689B781846FFF791FF034619467868C1
:10AD300000F09CFAF860FB68002B09D07B689B6BE5
:10AD4000002B05D07B689B6BF868984700E000BF3C
:10AD50001037BD4680BD000080B584B000AF78607C
:10AD60000B46FB707B6803F227431846FFF751FF41
:10AD70000346FB73FB78013B032B31D801A252F849
:10AD800023F000BF95AD0200B7AD0200C9AD0200CF
:10AD9000D5AD02007B689B79002B0CD07B6893F8C3
:10ADA000243083F00103DBB2002B04D0FB7B002BAB
:10ADB00001D0012315E07B68DB79002B04D0FB7BFD
:10ADC000002B01D002230CE07B681B7A002B01D002
:10ADD000032306E07B685B7A002B01D0042300E0AC
:10ADE000002318461037BD4680BD00BF80B483B035
:10ADF00000AF786039607B68012283F831207B687E
:10AE00000022C3F820247B6803F226423B685A6084
:10AE10003B6800229A603B6802221A703B688022DD
:10AE20009A81002318460C37BD465DF8047B7047B5
:10AE300080B483B000AF786039607B68022283F809
:10AE400031207B6893F82430002B03D03B68072225
:10AE50001A7002E03B6803221A707B681B699AB281
:10AE60003B689A817B680022C3F820247B6803F248
:10AE700026423B685A607B68DA683B689A60002328
:10AE800018460C37BD465DF8047B704780B582B02C
:10AE900000AF78607B685B79002B0FD07B6893F8FC
:10AEA0002E3483F00103DBB2002B07D07868FFF764
:10AEB000A3FE0346002B01D0012300E0002303F092
:10AEC0000103DBB218460837BD4680BD80B584B0AB
:10AED00000AF78600B46FB707B68D3F810047B688A
:10AEE000B3F814340122194603F0C3F8F860FB6884
:10AEF000002B02D0FB68FA781A707B6803F15400CB
:10AF00007B6803F582617B683C331A46FFF76CFE71
:10AF1000034618461037BD4680BD80B584B000AFEB
:10AF2000786039607B685A693B689A607B689B6986
:10AF30009AB23B689A817B6893F82430002B04D046
:10AF40007B68062283F83C2003E07B68012283F8BB
:10AF50003C207868FFF79AFF0346002B13D03B682C
:10AF600002221A7504217868FFF7B0FFF860FB68C9
:10AF7000BB60BB68002B01D0BB680FE07B6805227B
:10AF800083F8312003E07B68032283F831207B685B
:10AF900003F582627B68C3F820240023184610372B
:10AFA000BD4680BD80B584B000AF786039607B68F5
:10AFB000DA693B689A607B681B6A9AB23B689A813F
:10AFC0007B6893F82430002B04D07B68062283F83A
:10AFD0003C2003E07B68012283F83C207868FFF77F
:10AFE00055FF0346002B13D03B6802221A7504213B
:10AFF0007868FFF76BFFF860FB68BB60BB68002BED
:10B0000001D0BB680FE07B68062283F8312003E0A3
:10B010007B68042283F831207B6803F582627B68B9
:10B02000C3F82024002318461037BD4680BD80B4E5
:10B0300083B000AF78607B689B78002B06D07B687C
:10B0400093F82030002B01D0002300E001231846A4
:10B050000C37BD465DF8047B704780B485B000AF07
:10B0600078607B6893F82430002B02D0EE23FB81BC
:10B0700001E01F23FB81FB8918461437BD465DF8AC
:10B08000047B704780B483B000AF78600B46FB70E0
:10B090007B68FA7883F8302000BF0C37BD465DF836
:10B0A000047B7047B0B586B000AF786039603B680C
:10B0B000002B02D07B68002B01D10E23B8E03B6847
:10B0C00078331846FFF7B3FF034683F00103DBB282
:10B0D000002B01D00723ABE07B6800229A707A68CE
:10B0E0003B68141D03F178050FCD0FC40FCD0FC4BD
:10B0F00095E8070084E807007B68002283F8302089
:10B100003B68D3F8A4207B685A633B68D3F8A82037
:10B110007B689A637B684FF6FF72A3F824247B68F0
:10B1200003F582627B68C3F820247B6803F2264320
:10B13000072200211846FCF733F97B681B7883F05F
:10B140000103DBB2002B03D07B68FF2283F854207D
:10B150007B6803F155027B68C3F810247868FFF719
:10B160007CFF03461A467B68A3F8142438687B6882
:10B1700003F155017B6803F214431A4602F01AFEEC
:10B1800078617B693B613B69002B01D03B694FE0F3
:10B190007B6803F231227B68C3F818247868FFF7D4
:10B1A0005CFF03461A467B68A3F81C243B6803F146
:10B1B0003C007B68D3F818147B6803F21C431A46E2
:10B1C00002F0F8FD78617B69FB60FB68002B01D021
:10B1D000FB682DE07B68012283F851207B689B6926
:10B1E0009AB27B68A3F848207B68012283F83C2050
:10B1F0007B6800221A647B68002283F850207B68F9
:10B200005A697B685A647B6803F154007B683C335D
:10B210001A460021FFF7E8FC78617B69BB60BB68D8
:10B22000002B01D0BB6803E07B6801221A707B69A8
:10B2300018461837BD46B0BD80B483B000AF786003
:10B240007B681B68012B07D07B681B68022B03D02F
:10B250007B681B68042B01D1012300E00023184602
:10B260000C37BD465DF8047B7047000080B584B0A4
:10B2700000AF78600B46FB707B681B7883F001039E
:10B28000DBB2002B01D0082307E17B68FA789A70C3
:10B290007B6803F22643072200211846FCF780F85A
:10B2A0007B689B79002B03D07B689B78012B0FD0A8
:10B2B0007B68DB79002B03D07B689B78012B07D060
:10B2C0007B68DB79002B14D07B689B78022B10D134
:10B2D0007B685B6B002B08D07B68012283F82D24F0
:10B2E0007B685B6B0820984703E07B68002283F84B
:10B2F0002D24FB7819467868FFF72EFD03461A4681
:10B300007B689A707B685B6B002B20D07B689B7896
:10B31000032B03D07B689B78042B18D17B685B7967
:10B32000002B14D07B6893F82E3483F00103DBB23A
:10B33000002B0CD07B68002283F830247B6801222C
:10B3400083F82F247B685B6B0720984703E07B68BA
:10B35000002283F82F247B683C33182200211846F2
:10B36000FCF71EF87B68012283F83C207B682C33B5
:10B370001846FFF761FF0346002B06D07B68DB6AA7
:10B38000DAB27B6883F8512003E07B68012283F8FE
:10B3900051207B6893F82430002B12D07B6828332F
:10B3A0001846FFF749FF0346002B06D07B689B6ACF
:10B3B000DAB27B6883F8522003E07B68012283F8CD
:10B3C00052207B68002283F850207B689B78042BF6
:10B3D00031D801A252F823F02DB40200EDB30200DF
:10B3E000FDB302000DB402001DB402007B683C33C3
:10B3F00019467868FFF7FAFCF8601DE07B683C337B
:10B4000019467868FFF714FDF86015E07B683C3357
:10B4100019467868FFF781FDF8600DE07B683C33E2
:10B4200019467868FFF7BEFDF86005E07B680022EA
:10B4300083F8312000E000BF7B689B78002B20D090
:10B440007B6803F154007B68D3F820147B683C339D
:10B450001A46FFF7C9FBF860FB68002B01D0FB68B8
:10B460001BE07B6893F854207B6893F830301946D2
:10B470001046FFF7BDFBF860FB68002B01D0FB68AE
:10B480000BE07B685B6B002B06D07B685B6B7A689C
:10B4900092F8312010469847002318461037BD46D1
:10B4A00080BD00BF80B584B000AF786039603B6874
:10B4B000FB607B681B88262B10D0262B13DC102BFF
:10B4C00002D0112B05D00EE07968F868FFF7D8FBA1
:10B4D0000AE07968F868FFF7E7FB05E07968F86843
:10B4E000FFF70DFC00E000BF00BF1037BD4680BD78
:10B4F00080B582B000AF786039607B6893F82D34F6
:10B5000083F00103DBB2002B01D008230CE07B6841
:10B51000002283F82D247B6803F226430722396832
:10B5200018463DF097FF002318460837BD4680BDFA
:10B5300080B485B000AFF860B9607A603B60FB68AA
:10B5400093F82F3483F00103DBB2002B01D00823E2
:10B5500013E0FB68002283F82F247B68002B02D1C4
:10B56000BB69002B01D0012300E0002303F001039D
:10B57000DAB2FB6883F83024002318461437BD463E
:10B580005DF8047B704780B586B000AFF8600B466D
:10B590007A607B817B68002B01D10E2333E07B68CE
:10B5A00000221A60FB68002B01D10E232BE0FB6800
:10B5B0001B68002B01D10E2325E0FB68DB8803F01C
:10B5C00003039BB2002B01D007231CE07B891846A4
:10B5D00003F07CFA0346FB75FB7D142B01D1052398
:10B5E00011E0FB681B79FA7D9A4201D304230AE03B
:10B5F000FB681B68FA7DF968C98801FB02F21A44EE
:10B600007B681A60002318461837BD4680BDA8DF46
:10B61000704700BF184680B584B000AF78603960CD
:10B620007B685B7C83F00103DBB2002B28D13B6895
:10B630000633FB60FB681A887B685B899A4222D1DB
:10B64000FB685B89022B1ED17B681B68002B19D01D
:10B65000FB680C33184603F028FB0346002B02D08E
:10B6600000233B7201E001233B723B689B887B8196
:10B670007B681B6807F1080211467868984702E06A
:10B6800000BF00E000BF1037BD4680BD80B584B06C
:10B6900000AF786039603B68002B0DD07B68002BD1
:10B6A0000AD03B68FB607B681B88502B06D1796809
:10B6B000F868FFF7B0FF02E000BF00E000BF1037FE
:10B6C000BD4680BD80B592B000AF786039603B6800
:10B6D0001B7BFB7207F12003202200211846FBF799
:10B6E0005FFE42F619233B840123BB840123FB84C4
:10B6F00007F10B03BB627B685A7C97F82D3062F32D
:10B70000041387F82D3097F82D3043F0020387F8A3
:10B710002D303B689B7B87F833303B685B7B87F839
:10B7200031307B6898887B689A1D07F120031946A1
:10B7300003F08AFB78647B6C002B01D07B6C35E0D6
:10B740003B689B68002B2DD03B689A6807F1080383
:10B750001146184603F0BEFA034687F8433007F156
:10B760000C03142200211846FBF71AFE42F60813B8
:10B77000BB813B68DB7BBB7497F843309BB2FB8299
:10B78000FB8A7B8307F10803FB617B68D8887B68B1
:10B7900003F10E0207F10C03194603F059FC78641B
:10B7A0007B6C03E07B680022DA810023184648376F
:10B7B000BD4680BD80B586B000AF786039607B68DB
:10B7C000002B02D03B68002B01D10E2325E03B6803
:10B7D0001A687B681A603B681A797B685A747B68C0
:10B7E000FF221A740123BB7341F60F03BB817B68F0
:10B7F0001A1D07F10C0319460120FFF708FF7861B5
:10B800007B693B613B69002B01D03B6905E03968EE
:10B810007868FFF757FF78617B6918461837BD468F
:10B8200080BD80B483B000AF03463960FB80FB88E5
:10B83000DAB23B681A70FB881B0A9AB23B68013384
:10B84000D2B21A70022318460C37BD465DF8047B4D
:10B850007047A8DF704700BF1846000080B584B06D
:10B8600000AF786039603B68002B14BF01230023D0
:10B87000DBB2FB60FB68002B04D1364A4D2100206F
:10B8800018F010F87B68002B14BF01230023DBB2F3
:10B89000BB60BB68002B04D12E4A4E21002018F05B
:10B8A00001F83B68D3E90023D2B27B681A703B6889
:10B8B000D3E900014FF000024FF00003020A42EA10
:10B8C00001620B0A79680131D3B20B703B68D3E98E
:10B8D00000014FF000024FF00003020C42EA014267
:10B8E0000B0C79680231D3B20B703B68D3E90001CD
:10B8F0004FF000024FF00003020E42EA01220B0E4D
:10B9000079680331D3B20B703B68D3E900014FF083
:10B9100000024FF000030A00002379680431D3B21B
:10B920000B703B689A687B680533D2B21A703B682B
:10B930009B681A0A7B680633D2B21A703B689B6810
:10B940001A0C7B680733D2B21A7000BF1037BD469D
:10B9500080BD00BF94BB060080B586B000AF7860A4
:10B9600039600023FB753B68002B14BF01230023C3
:10B97000DBB23B613B69002B04D12B4A65210020DF
:10B9800017F090FF7B68002B14BF01230023DBB26C
:10B99000FB60FB68002B04D1234A6621002017F0CE
:10B9A00081FFFB7D5A1CFA751A467B6813443A687E
:10B9B00012781A703B685888FB7D7A6813441946E0
:10B9C000FFF72FFF03461A46FB7D1344FB753B68C8
:10B9D0009888FB7D7A6813441946FFF722FF0346D7
:10B9E0001A46FB7D1344FB753B68D888FB7D7A685B
:10B9F00013441946FFF715FF03461A46FB7D13440F
:10BA0000FB75FB7D072B0CBF01230023DBB2BB6062
:10BA1000BB68002B04D1044A6E21002017F042FFBE
:10BA200000BF1837BD4680BD94BB060080B58EB000
:10BA300000AFB96011461A460346FB810B46BB8135
:10BA40001346FB71BB68002B14BF01230023DBB23C
:10BA50007B637B6B002B04D11B4A8421002017F0F1
:10BA600021FFBB89002B14BF01230023DBB23B6302
:10BA70003B6B002B04D1144A8521002017F012FFE4
:10BA800007F11003202200211846FBF789FCFB89EF
:10BA90003B82BB89BB82BB89FB82BB68BB617B7F6E
:10BAA00043F002037B77FB7987F82130074B1B8833
:10BAB00007F110013A6C184603F0C6F90346184620
:10BAC0003837BD4680BD00BF94BB0600F4AE0020F1
:10BAD00080B58AB002AF78600123BB7641F60A03D5
:10BAE0003B8307F11803784A19460120FFF7B1FE9E
:10BAF000F861FB69002B01D0FB69E0E07B681B88E3
:10BB0000002B12D07B6859687B681A887B6893F891
:10BB10003C306E48009042F62920FFF787FFF8611D
:10BB2000FB69002B01D0FB69C9E07B681B89002BF6
:10BB300012D07B68D9687B681A897B6893F83C309F
:10BB40006348009042F62420FFF770FFF861FB691C
:10BB5000002B01D0FB69B2E07B681B8A002B12D05E
:10BB60007B6859697B681A8A7B6893F83C3059482E
:10BB7000009042F62520FFF759FFF861FB69002B82
:10BB800001D0FB699BE07B681B8B002B12D07B688C
:10BB9000D9697B681A8B7B6893F83C304E480090DB
:10BBA00042F62720FFF742FFF861FB69002B01D026
:10BBB000FB6984E07B681B8C002B12D07B68596A80
:10BBC0007B681A8C7B6893F83C304448009042F6BE
:10BBD0002620FFF72BFFF861FB69002B01D0FB69E2
:10BBE0006DE07B681B8D002B12D07B68D96A7B6867
:10BBF0001A8D7B6893F83C303948009042F6282033
:10BC0000FFF714FFF861FB69002B01D0FB6956E0D8
:10BC10007B681B6B002B19D07B681A6B07F1100334
:10BC200011461846FFF71AFE7B6893F83C3007F17F
:10BC300010012C4A0092082242F62320FFF7F6FE5C
:10BC4000F861FB69002B01D0FB6938E07B685B6B16
:10BC5000002B15D07B685B6B19687B685B6B1B796D
:10BC60009AB27B6893F83C301F48009042F62A2035
:10BC7000FFF7DCFEF861FB69002B01D0FB691EE0D9
:10BC80007B689B6B002B19D07B689A6B07F10803CC
:10BC900011461846FFF760FE7B6893F83C3007F1C9
:10BCA0000801124A0092072242F65020FFF7BEFE1A
:10BCB000F861FB69002B01D0FB6900E00023184606
:10BCC0002037BD4680BD00BFF4AE0020F8AE002096
:10BCD00000AF002008AF002010AF002018AF0020F8
:10BCE00020AF002028AF002030AF002038AF002068
:10BCF00080B483B000AF03463960FB80FB88DAB2C2
:10BD00003B681A70FB881B0A9AB23B680133D2B2B7
:10BD10001A70022318460C37BD465DF8047B704745
:10BD2000A8DF704700BF1846A9DF704700BF18465C
:10BD3000ACDF704700BF1846AEDF704700BF184643
:10BD4000B0DF704700BF184664DF704700BF184679
:10BD500080B487B000AF786013237B617B68D3F831
:10BD60007C31002B16D000233B610DE07B68D3F8BB
:10BD70007C213B69DB0013441B881A467B69134412
:10BD80007B613B6901333B617B689B7C1A463B6965
:10BD90009342EBD37B68D3F88031002B17D000237C
:10BDA000FB600DE07B68D3F88021FB68DB00134467
:10BDB0001B881A467B6913447B61FB680133FB6077
:10BDC0007B6893F878301A46FB689342EAD37B6825
:10BDD000D3F88431002B17D00023BB600DE07B68C3
:10BDE000D3F88421BB68DB0013441B881A467B69A7
:10BDF00013447B61BB680133BB607B6893F8DE3022
:10BE00001A46BB689342EAD37B6918461C37BD4685
:10BE10005DF8047B704780B485B000AF0346FB80BB
:10BE20000B467B7113463B710023BB60FB883B8153
:10BE30007B79BB723B79FB72BB68FB600023BA89DC
:10BE400062F30F03FA8962F31F4318461437BD46A5
:10BE50005DF8047B704790B587B000AF78603960BB
:10BE60000023BB607B68D3F878013B689B8807F1AF
:10BE700008021946FFF787FB78617B69002B07D022
:10BE80007B685B68002B03D07B685B6878699847A8
:10BE9000BB68002B33D0BC687868FFF759FF0346B6
:10BEA0001A4600212046FBF77BFA7B685B89002B52
:10BEB00026D0BB6801221A7007F10C03082200216A
:10BEC0001846FBF76DFA0123BB810023FB81BB6899
:10BED0003B613B6898887B685B8907F10C021946D7
:10BEE000FFF726FF78617B69002B09D07B685B68D0
:10BEF000002B05D07B685B687869984700E000BF3D
:10BF00001C37BD4690BD80B58AB000AF78603960FF
:10BF10003B6806337B627B68D3F878013B689B887B
:10BF200007F11C021946FFF72EFB38623B6A002B13
:10BF300007D07B685B68002B03D07B685B68386A3E
:10BF40009847FB69002B22D07B6A5B89012B1FD1AC
:10BF50007B6A1B7B002B02D0012B03D018E000234F
:10BF60003B7202E001233B7200BFFB697A6A127BDD
:10BF70005A707B681B68002B0AD03B68BB617B68EA
:10BF80001B6807F1080211467868984700E000BF77
:10BF90002837BD4680BD80B58AB000AF7860396073
:10BFA0003B6806337B627B68D3F878013B689B88EB
:10BFB00007F11C021946FFF7E6FA38623B6A002BCC
:10BFC00007D07B685B68002B03D07B685B68386AAE
:10BFD0009847FB69002B22D07B6A5B89012B1FD11C
:10BFE0007B6A1B7B002B02D0012B03D018E00523BA
:10BFF0003B7202E006233B7200BFFB697A6A127B48
:10C000001A707B681B68002B0AD03B68BB617B6899
:10C010001B6807F1080211467868984700E000BFE6
:10C020002837BD4680BD80B58AB000AF78603960E2
:10C030003B6806337B627B68D3F878013B689B885A
:10C0400007F10C021946FFF79EFA38623B6A002B93
:10C0500007D07B685B68002B03D07B685B68386A1D
:10C060009847FB68002B29D007F11003102200210C
:10C070001846FBF795F901233B740023BB827B6ACA
:10C080001B893B8301237B83FB68FB61BB7D43F002
:10C090000103BB753B689B8807F1100211461846E7
:10C0A000FFF74EFE38623B6A002B07D07B685B6867
:10C0B000002B03D07B685B68386A984700BF28373D
:10C0C000BD4680BD80B58AB000AFF860B9607A60C7
:10C0D0007B6806337B627B6A5B89022B1ED1FB681F
:10C0E0001B68002B1AD07B6A0C33184602F0DDFD6A
:10C0F0000346002B02D002233B7401E003233B7470
:10C10000BA6807F11403106818607B683B62FB682B
:10C110001B6807F110021146F868984700BF2837DE
:10C12000BD4680BD80B58EB000AFF860B9607A6062
:10C130007B80BB6806337B63FB68D3F87801BB6800
:10C140009B8807F128021946FFF71DFA38633B6BFD
:10C15000002B07D0FB685B68002B03D0FB685B6893
:10C16000386B9847BB6A002B34D07B6B5B891A46CF
:10C170007B6B1B891A44B7F840309A422ADCBA6AB2
:10C180007B881344FB627B6B03F10C017B6B5B8947
:10C190001A46F86A3DF05EF9FB681B68002B1AD05E
:10C1A00004233B757A6807F1180310681860BB68B0
:10C1B000DB89BB83BB681B8AFB83BB6812333B6292
:10C1C000BB687B62FB681B6807F114021146F868C4
:10C1D000984700E000BF3837BD4680BD80B592B0BB
:10C1E00000AFF860B9607A607B8000237B64FB68F5
:10C1F000D3F878017B689B8807F128021946FFF77E
:10C20000C2F978647B6C002B07D0FB685B68002B5D
:10C2100003D0FB685B68786C9847BB6A002B51D0F1
:10C220007B68DB89A7F84230BA6A7B881344FB63DA
:10C2300007F12C03102200211846FBF7B1F8012367
:10C2400087F82C3000233B86B7F84230BB86B7F81E
:10C250005020B7F84230D31A9BB2FB86B7F8423071
:10C26000FA6B1344BB6397F8323043F0010387F84D
:10C2700032307B689B8807F12C0211461846FFF785
:10C280005FFD78647B6C002B07D0FB685B68002B3C
:10C2900003D0FB685B68786C9847FB681B68002BD1
:10C2A00011D007233B75BA6807F1180310681860AE
:10C2B0007B687B62FB681B6807F114021146F86813
:10C2C000984700E000BF4837BD4680BD80B586B0C6
:10C2D00000AFF8600B467A607B810023FB751EE09F
:10C2E000FA7DF96813469B0013445B000B44183336
:10C2F0001B887A899A420FD1FB7D1A46012142F6AA
:10C300004D20FFF788FD02467B6811461980C2F375
:10C310000F425A80012308E0FB7D0133FB75FB6867
:10C320009B7CFA7D9A42DBD3002318461837BD4622
:10C3300080BD80B586B000AFF8607A603B600B4688
:10C340007B813B6813221A80FB68D3F87C31002B79
:10C350003CD00023FB7534E0FA7DF96813469B005E
:10C3600013445B000B4414331B887A899A4218D11A
:10C37000FB7D1A46012142F64D20FFF74CFD024697
:10C380007B6811461980C2F30F425A80FB68D3F8CC
:10C390007C21FB7DDB0013441A883B6A1A80012351
:10C3A0009BE03B681A88FB68D3F87C11FB7DDB00BF
:10C3B0000B441B8813449AB23B681A80FB7D0133FF
:10C3C000FB75FB689B7CFA7D9A42C5D3FB68D3F86A
:10C3D0008031002B3DD00023FB7534E0FA7DF968F5
:10C3E00013469B0013445B000B447A331B887A8905
:10C3F0009A4218D1FB7D1A46022142F64D20FFF7E2
:10C400000AFD02467B6811461980C2F30F425A802A
:10C41000FB68D3F88021FB7DDB0013441A883B6A5C
:10C420001A80012359E03B681A88FB68D3F8801111
:10C43000FB7DDB000B441B8813449AB23B681A80D7
:10C44000FB7D0133FB75FB6893F87830FA7D9A42E7
:10C45000C4D3FB68D3F88431002B3DD00023FB7597
:10C4600034E0FA7DF96813469B0013445B000B44EB
:10C47000E0331B887A899A4218D1FB7D1A46032142
:10C4800042F64D20FFF7C7FC02467B681146198033
:10C49000C2F30F425A80FB68D3F88421FB7DDB0096
:10C4A00013441A883B6A1A80012316E03B681A88F5
:10C4B000FB68D3F88411FB7DDB000B441B8813441D
:10C4C0009AB23B681A80FB7D0133FB75FB6893F8D9
:10C4D000DE30FA7D9A42C4D3002318461837BD4691
:10C4E00080BD80B588B002AF786039603B680633A4
:10C4F0007B610223FB810023BB817B691A887B68F7
:10C50000B3F86E319A4204D139687868FFF7FBFCC2
:10C51000C1E07B691A887B685B899A4204D13968DB
:10C520007868FFF738FDB6E07B691A887B68B3F856
:10C5300052319A420FD10022002142F62220FFF709
:10C540006AFC03463B6107F110033A6819467868B4
:10C55000FFF7B8FD9FE07B691A887B68B3F84E311E
:10C560009A4214D10022002142F62220FFF753FC08
:10C5700003463B610823BB81F989BB8907F110029F
:10C5800000930B4639687868FFF7CCFD83E07B6940
:10C590001A887B68B3F856319A4218D100220021DC
:10C5A00042F63220FFF737FC03463B61FB89083334
:10C5B0009BB2FB810123BB81F989BB8907F1100282
:10C5C00000930B4639687868FFF7ACFD63E07B6940
:10C5D0001A887B68B3F862319A420FD10022002199
:10C5E00042F63320FFF717FC03463B6107F11003C7
:10C5F0003A6819467868FFF765FD4CE07B691A8850
:10C600007B68B3F85E319A4218D10022002142F6CD
:10C610003320FFF700FC03463B61FB8909339BB2E3
:10C62000FB810823BB81F989BB8907F110020093C4
:10C630000B4639687868FFF775FD2CE07B691B882D
:10C6400007F1100219467868FFF740FE0346002BF9
:10C6500007D007F110033A6819467868FFF732FDF2
:10C6600019E07B69198807F10E0007F1100207F144
:10C670000C03009303467868FFF75BFE0346002B2C
:10C6800009D0F989BB8907F1100200930B4639687C
:10C690007868FFF747FD00BF1837BD4680BD80B5FD
:10C6A00088B002AF786039603B6806337B61022353
:10C6B000FB810023BB817B691B78012B40F08280CA
:10C6C0007B695A887B685B899A4204D139687868AB
:10C6D000FFF7A9FC77E07B695A887B68B3F84E3195
:10C6E0009A4214D10022002142F62220FFF793FB48
:10C6F00003463B610823BB81FA89BB8907F110011E
:10C70000009313463A687868FFF768FD5BE07B6941
:10C710005A887B68B3F856319A4218D1002200211A
:10C7200042F63220FFF777FB03463B61FB89083373
:10C730009BB2FB810123BB81FA89BB8907F1100100
:10C74000009313463A687868FFF748FD3BE07B6941
:10C750005A887B68B3F85E319A4218D100220021D2
:10C7600042F63320FFF757FB03463B61FB89093351
:10C770009BB2FB810823BB81FA89BB8907F11001B9
:10C78000009313463A687868FFF728FD1BE07B6941
:10C79000598807F10E0007F1100207F10C0300930E
:10C7A00003467868FFF7C5FD0346002B0BD0FA89D6
:10C7B000BB8907F11001009313463A687868FFF7C8
:10C7C0000DFD00E000BF1837BD4680BD80B584B0C8
:10C7D00000AF786039603B68FB607B681B88512B39
:10C7E00010D0512B13DC102B02D0502B05D00EE0B3
:10C7F0007968F868FFF72FFB0AE07968F868FFF7B7
:10C8000070FE05E07968F868FFF749FF00E000BFB7
:10C8100000BF1037BD4680BD80B58CB000AF7860DA
:10C820000B46FB701346BB700123FB7307F110032B
:10C83000202200211846FAF7B3FD42F64E233B8230
:10C840000123BB820123FB8207F10F03BB617B7FC6
:10C8500043F002037B777B7F43F004037B77FB7815
:10C8600087F82130BB7887F822300123FB777B687B
:10C8700018897B6803F10A0207F11003194602F0D8
:10C88000E3FA034618463037BD4680BD80B594B004
:10C8900000AFF860B9603B601346FB8007F12C03E2
:10C8A000202200211846FAF77BFD42F64D23BB8576
:10C8B000FB883B86BB681B7887F83930BB6D1B78DB
:10C8C00087F83D30BB6D5B7887F83E30BB6D9B7859
:10C8D00087F83F30012387F83830012387F83B3051
:10C8E000FB681B89FA6D07F12C01184602F0ACFABF
:10C8F000F864FB6C002B01D0FB6C28E007F11803F7
:10C90000142200211846FAF74BFD42F608133B8328
:10C91000BB6D1B78BB77BB6D5B78FB7707F11403AE
:10C920003968184602F0D6F903469BB27B847B8CAB
:10C93000FB8407F11403BB62FB6D1888FB6D03F1E8
:10C94000080207F11803194602F082FB0346184655
:10C950005037BD4680BD80B596B000AF7860396075
:10C9600007F13003202200211846FAF719FD42F69C
:10C970004B233B863B689B8CBB863B689B8CFB8632
:10C980003B681B6ABB6397F83D3043F0020387F8AE
:10C990003D303B6893F82C3087F84130012387F80D
:10C9A0003C307B6818897B6803F5A27207F130037D
:10C9B000194602F049FA38653B6D002B01D03B6DFA
:10C9C00052E03B6893F82630002B05D03B689B6A09
:10C9D000002B01D1072347E000237B653CE03B6847
:10C9E0009A6A7B6D9B00134407F10C0207F10B015F
:10C9F0001846FFF7A9F938653B6D002B01D03B6D58
:10CA000032E007F11C03142200211846FAF7C8FC93
:10CA100042F60713BB833B6893F82C3087F822302B
:10CA2000FB7A9BB2FB84FB8C7B8507F10C03FB62DA
:10CA30007B68B3F844017B6803F5A67207F11C0319
:10CA4000194602F005FB38653B6D002B01D03B6DAC
:10CA50000AE07B6D01337B653B6893F826301A460C
:10CA60007B6D9342BBDB002318465837BD4680BD23
:10CA700080B58CB000AFF8607B600B467B811346BD
:10CA80003B8107F11003202200211846FAF788FCA9
:10CA90007B893B823B89BB827B7F43F002037B77B0
:10CAA0007B685B78002B14BF01230023DAB27B7F05
:10CAB00062F3C3037B777B7F43F010037B777B6854
:10CAC0001B7887F821307B685B7887F822307B6899
:10CAD0009B7887F823300123FB77FB681B8907F1DC
