:10200000008000209D9100008591000085910000D6
:1020100000000000000000000000000000000000C0
:10202000000000000000000000000000859100009A
:10203000000000000000000085910000F191000008
:102040008591000085910000859100008591000038
:102050008591000085910000859100008991000024
:1020600085910000D19000008591000085910000CD
:10207000A990000085910000E1900000859100008A
:1020800085910000859100008591000085910000F8
:1020900000000000859100008591000085910000FE
:1020A00085910000859100008591000085910000D8
:1020B0000000000010B5064C2378002B07D1054B1B
:1020C000002B02D0044800E000BF0123237010BDA4
:1020D0001003002000000000683A0100044B10B516
:1020E000002B03D00349044800E000BF10BDC046E8
:1020F0000000000014030020683A010010B50088B9
:1021000003F07CF910BD000010B5012003F076F952
:10211000044B01001880044806F02AF80022034B03
:102120001A7010BD2E030020A909002030030020E2
:1021300010B50D4C2378002B0FD103F007FC9F2323
:102140009B01984203D19620800003F041FC0020BF
:1021500003F0DCFF237801332370044B22781988C5
:10216000034806F025F810BD300300202E030020A0
:10217000A909002070B5154E154832000D00002445
:1021800003F022FBA04216D1310028000BF0ECFF37
:10219000A04210D10F4D280007F012FF0E4E020092
:1021A0000A280AD13178280007F021FC20212800D4
:1021B00007F0B2FB0124200070BD0122210028009D
:1021C00007F0AEFE3070FFF7B3FFF3E780F80000D2
:1021D000C0080020B43100203003002073B51D4C2E
:1021E00023784F2B1DD81C4D280006F05CFA0028E0
:1021F00019D1280006F054FA0223184005006B1E7E
:102200009D41164EEDB2002811D13378002B07D036
:10221000134B21781868002802D00368DB689847C0
:102220003570002076BD06F07DF9407FE4E70D4B68
:1022300000221878FF2105F0A1FC01AB1870020400
:102240000002120E000E98705A700199207803F067
:10225000F9FEE5E700000020EC2900203203002011
:102260000409002033030020FF230A4930B50B7016
:1022700000230948DCB2502B08D05A0012185578B8
:102280001278392A04D1002D02D10C70002030BD03
:102290000133EFE7000000201F04002010B5FFF716
:1022A000E3FF10BD10B5FFF7DFFF10BD002802D01F
:1022B000024B416003600A707047C046A40B0100E6
:1022C000002807D0044B4160036080235B028360D9
:1022D000FF2303737047C046140E0100002807D087
:1022E000044B4160036080235B028360FF23037320
:1022F0007047C046FC0D010010B5044805F0A6FB70
:10230000034B1A68034B1A6010BDC04682090020B7
:10231000A40300203C03002070B504000D0016004B
:10232000002801D003F008FE2E70200070BD10B50B
:102330000368C9B21B68984710BD704710B50524E3
:102340000800220002490BF096F9200010BDC0469B
:1023500069F9000010B5002802D0022803D010BD92
:1023600003F088FFFBE703F063FFF8E710B5FFF722
:10237000F1FF10BD10B50E4803F06EF80D4802F0E5
:1023800007FF0D48FFF78AFF0C4803F05DFF0C487C
:1023900004F0A8FF0B48FFF7B1FE0B4803F038FB31
:1023A0000A4805F053FA0A4804F0B8FB002010BDB3
:1023B000B5080020AF0800203103002002090020EA
:1023C0004A09002034030020E908002050090020B9
:1023D0001609002010B5054803F0E4F8044803F09E
:1023E000BFFA044803F070FA10BDC046B5080020DB
:1023F000E9080020E108002010B50448FFF752FF6B
:10240000034801F033FE002010BDC0463103002018
:102410001107002010B5024804F07CFF002010BD19
:102420004A09002010B50D4804F088F90C48FFF760
:10243000D5FE0C4803F0AAFE0B4805F0ABF90B489B
:1024400002F0CCFB0A4803F0FFF90A4804F064FAF2
:10245000094804F0D1FD002010BDC046130900203A
:102460003103002002090020500900209A070020B3
:10247000C0080020160900202209002010B50448D9
:1024800004F03AFA034804F0C9FD002010BDC0462C
:1024900016090020220900200420704710B50C0006
:1024A0000349C0000918082220000BF0E4F810BD11
:1024B00048F9000070470000962170B5890128484E
:1024C00007F0EAFD274A284B28491A600A004B7892
:1024D000DB09FCD1264B274919605378DB09FCD175
:1024E000254B264919805378DB09FCD10922244B5E
:1024F0001A70244B1900DA79D209FCD102321A7011
:10250000CB79DB09FCD101261F4B186800F0BCFB1E
:102510000A2002F05BFE0A211C4801F097FDFF2112
:102520001B4804F031F8FF211A4804F02FF81A4D27
:102530001A4C2B68334203D1200003F023FD2E6098
:102540008021174BC90000201C6002F01BF980207D
:10255000000101F033FEFFF7D7FDFFF7E9FD70BD85
:10256000B431002002040000080C0040000C0040C0
:10257000040C004002031300020C00400342000060
:102580000110004000100040B806010011070020B3
:102590000E09002010090020380300209C030020B1
:1025A000F808002007B51E4BDB79DB0902D1A52214
:1025B0001C4B1A601C4B186800F0E8FB1B4B1C4AB4
:1025C00019681268521A1B498A4201D900221A60FE
:1025D0001B68002B23D0184806F065F8002800D0AF
:1025E00078200022FF2105F0C9FA01AB187002041F
:1025F0000002120E000E98705A700199402003F0EC
:1026000021FD0199302003F01DFD0199422003F0C6
:1026100019FD0199062003F015FD03F03FFD07BDEC
:102620000010004008100040B80601003C030020E4
:10263000A403002010270000EC29002070B504003E
:102640000D00160013780A780100284800F0FEFA01
:10265000012801D1012070BD33782A782100244857
:1026600003F018FE0128F5D033782A78210021489C
:1026700003F072FC0128EDD033782A7821001E483F
:1026800003F090F90128E5D033782A7821001B481F
:1026900005F014F80128DDD033782A782100184895
:1026A00002F04CFB0128D5D033782A782100154858
:1026B00001F0A8FE0128CDD033782A7821001248F5
:1026C00004F082F90128C5D033782A7821000F4818
:1026D00004F008FD0128BDD033782A7821000C4889
:1026E00003F042F8013843425841B4E7A103002007
:1026F00002090020F4080020E90800205009002009
:102700009A07002016070020160900202209002041
:10271000BE08002007B501AB197011006A460732E8
:1027200011701900FFF78AFF0EBD00000822014B4F
:102730001A80704734030020F0B5394B85B00193FF
:10274000002303900093374D0399280006F059FBAE
:102750000121280006F0B2FBFF21019B28001C8804
:102760002140FFF7E4FD21122800FFF7E0FD2800DB
:1027700006F001FC0700012006F04EFD002F4CD1B1
:10278000284C0399200006F03CFB2000022106F0B3
:1027900095FB254CFEB21037BE421ADA234B009A45
:1027A0009B199B5C1F481900029306F087FB029B54
:1027B0001F4A5C4008230120611020408CB2002891
:1027C00001D051408CB2013B002BF4D10136F6B25E
:1027D000E2E7FF2128002140FFF7A9FD2112280090
:1027E000FFF7A5FD00212800FFF7A1FD280006F056
:1027F000C2FB032811D1023806F00EFD402FBFD1D5
:10280000019B02330193009B40330093B823009A4D
:102810001B019A4297D1012000E0002005B0F0BDD5
:102820005A060100E02A0020FFFF0000DAFA00004B
:1028300001A0FFFFF7B52B4C07000E0001002000A0
:102840001500019306F0DDFA0621200006F036FBA4
:10285000FF2120002940FFF76AFD29122000FFF721
:1028600066FDFF23019920001940FFF760FD019BE1
:1028700020001912FFF75BFD0021200006F043FB4A
:10288000051E11D1642006F0C7FC03223900200088
:1028900006F00FFB200006F073FB3070200006F0FE
:1028A00043FA002802D1FF252800FEBD200006F0D3
:1028B00067FB0700200006F037FA0028F3D020005D
:1028C00006F05EFB0190200006F02EFA002803D0EF
:1028D000200006F055FBF6E7019BFFB21B021F43E9
:1028E0007780E1E7E02A002073B5114C0600010073
:1028F0000322200006F0DDFA200006F015FA002879
:1029000003D0200006F03CFBF6E70A4D01AC29009D
:10291000094B30000422FFF78DFF2900042220001C
:102920000AF0A9FE638820881B04184376BDC046C0
:10293000E02A0020020000207C0B0000F0B55A4A7B
:1029400085B0060059480C0002F03EFF0023050048
:10295000984222D10922564920000BF01EFC2B0080
:1029600000281AD10934534920000BF0FDFB002840
:1029700016D0514920000BF0F7FB002849D04F49F1
:1029800020000BF0F1FB002845D020004C490BF053
:10299000EBFB51242B0000283ED0180005B0F0BD01
:1029A00050242F00474800F027FF2000002F6DD152
:1029B000FFF79AFF0390C0B2FF285ED002ABDA881F
:1029C000414B9A4259D0414F2100380006F019FA84
:1029D0000421380006F072FA380006F0CCFA0190B3
:1029E000FA20800006F018FC019B002B45D0310036
:1029F0002000FFF7A1FE00283FD0354B042203A999
:102A00002000FFF717FF002808D0642006F004FC20
:102A1000F3E75124C5E750240127C3E7012104222D
:102A20008C46294B08262B49895C4B40604659103F
:102A300018408BB2002802D0274B59408BB2013E80
:102A4000002EF3D1B821013209018A42EAD102AA4B
:102A5000D2889A4211D12100380006F0D2F9032120
:102A6000380006F02BFA31003800FFF760FC380020
:102A700006F081FA43425841C5B2280002F0C0FE78
:102A80002021164806F048FF012386E7FFF72CFFB8
:102A90000390C0B2FF28F0D002ABD888104BC0180A
:102AA000431E9841E8E7C04695F80000C0080020A2
:102AB000FDF8000007F9000017F9000028F90000F0
:102AC000EBF80000A7090020FFFF0000E02A00202B
:102AD0007C0B0000DAFA000001A0FFFFB4310020F7
:102AE0000100FFFF10B501680400344800F08EF8C3
:102AF000012801D1012010BD2168314802F0C2FB3C
:102B00000128F7D021682F4802F058FD0128F1D0A4
:102B100021682D4802F0CCFD0128EBD021682B481C
:102B200003F0F2FB0128E5D02168294803F0A2F860
:102B30000128DFD02168274801F0A8FA0128D9D060
:102B40002168254802F08CFF0128D3D02168234852
:102B500000F066FF0128CDD02168214804F0E8FE8E
:102B60000128C7D021681F4802F0A4F90128C1D06C
:102B700021681D4801F060FC0128BBD021681B487A
:102B8000FFF7DCFE0128B5D02168194802F030FEBD
:102B90000128AFD02168174804F082F80128A9D095
:102BA0002168154803F01AFD0128A3D021681348B5
:102BB000FFF7E0FA0138434258419CE7A0030020A8
:102BC000AF080020B7080020B60800200109002047
:102BD000F108002011070020E9080020100700205C
:102BE000500900209A070020160700203603002015
:102BF000C008002016090020120900202C03002024
:102C000007B5019001A8FFF76DFF0EBD70B50B4E23
:102C10000B4832000D00002402F0D6FDA0420AD17C
:102C2000310028000BF0A0FAA04204D10549064863
:102C300006F063FE0134200070BDC046AFFA00000C
:102C4000C0080020B7FA0000B431002010B50248D7
:102C500002F0A8FE10BDC046E908002070B5084D7E
:102C60000400280005F01FFD2100002803D12800E2
:102C700005F04CFD70BD034805F072FEFAE7C04652
:102C8000EC290020382A0020962110B58901064839
:102C900007F002FAFFF751FBFFF76CFB00F02AFE8A
:102CA000024800F043F910BDB4310020A803002011
:102CB00070B58379457904001D402B0702D5E120CA
:102CC000FFF7CCFFEB0702D5E020FFF7C7FFAB070C
:102CD00002D5E220FFF7C2FF6B0702D5E620FFF71F
:102CE000BDFFEB0602D5E320FFF7B8FF164D280025
:102CF00005F0D9FCE179061E10D100290AD0280080
:102D000005F021FD280005F0D5FCE179280005F04B
:102D1000FDFCE671280005F0CDFC70BD0B4D0029CF
:102D20000BD0280005F037FE280005F0C9FDE17939
:102D3000280005F015FE0023E371280005F0C0FD12
:102D4000034805F07BFDE8E7EC290020382A002045
:102D5000182A0020002310B5094CC371837120008C
:102D600005F0A1FC002803D1200005F015FD10BDE1
:102D7000044805F02CFE044805F050FDF7E7C04676
:102D8000EC290020382A0020182A002010B506F06F
:102D90003DFA094B1860FFF71DFB00F02BFCFFF715
:102DA00041FB064C2000FFF783FF2000FFF7D2FF16
:102DB000FFF764FB10BDC046A40300209809002063
:102DC00050235843C9B241180648490009180878E9
:102DD0004A78AF33184013401B0282B0184302B048
:102DE0007047C0466FF9000070B5084AC3B25D0075
:102DF000011CD05C064B074C1B68984700B2285555
:102E000000046419000E607070BDC046CF0300203E
:102E1000080000201F0400200300034A1068D84067
:102E2000012318407047C046AC030020F0B5164F90
:102E300085B05022002138000AF039FC0025EBB2A1
:102E40000193502D1ED00024104B1C5763B2002B51
:102E500016DD0F4B013C1E5D3000FFF7DDFF002843
:102E6000F4D06A460B4B11791B683000984703ABCE
:102E70001880C0B2FF2802D15B78FF2BE6D07E55C8
:102E80000135DCE705B0F0BDCF03002007000020CE
:102E9000B00300200800002010B5094B094A1B7838
:102EA00098429B4118400123190081401160064A55
:102EB0001370064B1870FFF7B9FFFFF79DFA10BDAE
:102EC00006000020AC03002007000020B003002013
:102ED000134970B50B6801221C00C44014421DD078
:102EE0008240104D93432C780B6023000E4E321914
:102EF000002B07D000215156013A884202D0013BF5
:102F0000DBB2F5E7591CE21A7118F018013C0AF01F
:102F1000BBFB2C70FFF78AFFFFF76EFA70BDC0464F
:102F2000AC03002007000020B00300200123084A62
:102F300010B5116800240B431360FFF777FF201CC6
:102F40000134E4B2FFF750FF502CF8D110BDC04659
:102F5000AC03002010B50D4B04001B78834213D93D
:102F6000FFF75AFF00280FD10123A340084A116838
:102F70000B431360074A1378591C1170064AD45446
:102F8000FFF754FFFFF738FA10BDC04606000020D7
:102F9000AC03002007000020B003002010B5054B53
:102FA0001A78054B9B18013B18780130C0B2FFF727
:102FB000D1FF10BD07000020B003002010B5044B66
:102FC0001A78044B9B18013B1878FFF781FF10BD5E
:102FD00007000020B003002013B5C4B201AB188075
:102FE000532C09D903231940022904D12000543855
:102FF000C0B2FFF751FF13BD292C2BD92A3CE4B2F4
:10300000212C0DD0222C12D103231940022902D1E8
:10301000FFF7C4FFEFE70129EDD1FFF7CFFFEAE7A4
:10302000032319400229F8D00129E4D1F0E78B07E6
:1030300008D52000FFF7F0FE0028DCD12000FFF7C4
:1030400089FFD8E7032319400129D4D12000FFF7D5
:103050003FFFD0E7032319400229CCD12000FFF71E
:10306000DBFE0028EAD0002CE8D0EFE730B585B0D1
:1030700001AD030428801B0E03AC442B07D083B2A0
:103080002380637820781B02184305B030BD1100FF
:103090000198FFF7A1FF0023F2E7000070B5074E8B
:1030A0000D0004000100300005F062F8611C28707A
:1030B000300005F05DF86870280070BDA909002097
:1030C00010B504000100012006F062FB014B1C70EA
:1030D00010BDC046BF040020C3430A49DBB2D9314A
:1030E00010B50B700849094CD9310B70084B020020
:1030F0001870084B2000198805F05AF8200005F0D8
:103100005BF810BDC8040020C0050020A9090020FC
:103110000E000020C204002010B504000B4B0C4A26
:103120000C490D481B681268096800688EB002904F
:10313000019100922121094A05A80AF0E3FF05A99F
:10314000200008F085FA20000EB010BD0CA0800011
:1031500040A0800044A0800048A08000BC06010080
:1031600073B5204D204C2978200000F085FD29788A
:103170001E4D280000F080FD1D4B22001B78D93227
:10318000DB43DBB213702A00D9321370200000F049
:10319000D3FD06002800F6B200F0CEFD154B012E3F
:1031A00003D0C0B20022012800D101221A702200EF
:1031B00000233932137022003A3213700E4A3B3426
:1031C000127823709A420CD001AA13809370019850
:1031D00002F07CFF094B1868002802D003685B6886
:1031E000984773BD0C000020C8040020C0050020D3
:1031F0000E000020C4040020230000200409002049
:1032000010B5FFF769FF00230122044804491A544E
:103210005A540133092BFAD110BDC046B80600201C
:10322000C1060020014B18787047C0460E000020F0
:1032300070B580240D4E0E4D33786400E95C032098
:10324000611A0902013906F06DF973780520E95C0D
:10325000611A0902013906F065F9B3780420E95CC6
:10326000611A0902013906F05DF970BDCB06002034
:103270002308010070B50024104DE6B2635D002BF9
:1032800005D031000E4800F093FD002363550D4D2D
:10329000635D002B05D031000B4800F089FD002351
:1032A00063550134092CE7D1084C2378002B03D057
:1032B000FFF7BEFF0023237070BDC046B806002094
:1032C000C8040020C1060020C0050020CA06002056
:1032D000F7B501AB0191832818D81C7859789A78F2
:1032E000832814D12C4801230578A54207D14578BD
:1032F0008D4204D183789B1A5D1EAB41DBB2274D12
:1033000004702E78417033432B708270F7BD244BCC
:103310001D7885235D43234B5B191B5C472B1BD812
:1033200003255D432048214E2D182878DB0884466C
:103330006F78A8782C706970AA70F55C00950125EB
:10334000644505D1B94203D1121A501E8241D5B24B
:10335000009A1543F554D9E78F2BD7D80320483B63
:103360005843134DDB10401905784778AC46114D92
:103370008678047041708270E85C0090012064459A
:1033800005D1B94203D1921B561EB241D0B2009A68
:103390001043E854BAE7C046CB060020CA06002016
:1033A000C4040020C9060100C8040020B80600209B
:1033B000C0050020C106002013B501AC83280AD93E
:1033C00000232380A37062782078A37812021B0464
:1033D0001043184316BD0C4B1A7885235A430B4BE8
:1033E0009B18195C472907D803225143084B5918E9
:1033F00020000AF040F9E6E78F29E1D80322483996
:103400005143044BF3E7C046C4040020C906010041
:10341000C8040020C0050020012110B5080006F0F6
:103420006BF90020FFF74CFE102006F043F8FFF781
:10343000FFFE0A2005F0F0FE0120FFF741FEFA2012
:10344000400005F0E9FE10BDF7B5394F08223900FC
:1034500038480AF010F9384C0822210037480AF0A1
:103460000AF9374E300000F06CFC002812D0310011
:10347000684600F095FC0822694638000AF0FBF81F
:10348000304B1B78012B05D1FA7802331A4201D058
:103490005340FB702C4D280000F053FC002816D040
:1034A0002900684600F07CFC0822694620000AF0EA
:1034B000E2F8244B1B78012B09D16278A178100027
:1034C0004840184203D05A404B406270A37033000A
:1034D000D8331B78002B03D01C4B1B78002B08D053
:1034E0002B00D8331B78002B05D0194B1B78002BF1
:1034F00001D1FFF735FED8363278002A07D1134BB9
:103500001B78002B03D00020002138607960D8356B
:103510002B78002B07D10E490978002903D0002011
:1035200000212060616009490A70094A1370F7BDE3
:10353000D806002000070020F00600200807002021
:10354000C8040020C4040020C0050020E8060020B4
:10355000F8060020F0B5002685B000257300DBB228
:103560000193204B77193A001868596808F036FA29
:10357000022344001C401C4B3A001868596808F0AC
:103580002DFA01220240224307D0002302A90B801A
:10359000019B0298591904F0FDFC144B3A0018687D
:1035A000596808F01BFA022344001C40104B3A00F3
:1035B0001868596808F012FA01220240224308D024
:1035C000002103AB1980019903980F31491B04F0C6
:1035D000E1FC0135082DC4D10836282EBDD105B037
:1035E000F0BDC046D806002000070020F0060020ED
:1035F0000807002010B5FFF727FFFFF7ABFF10BD4E
:10360000C0B210B54F280CD80F2201230240000988
:10361000072A07D91021054C8A1A9340225C9A4345
:10362000225410BD024C0821F6E7C046E0060020F7
:10363000D0060020C3B200204F2B0BD819000F2258
:103640001B091140072906D90548C05C521A1041D0
:10365000012318407047034AD05C0722F6E7C046B2
:10366000E0060020D0060020C0B202000F230009AF
:103670001A40072A06D905499B1A085C18410123FC
:1036800018407047024B185C1041F8E7F006002024
:10369000D806002010B5074B1868596808F0E8F9FB
:1036A000054B04001868596808F0E2F92018C0B208
:1036B00010BDC046D8060020F006002070B50024DA
:1036C000064B0121E55C0134280006F015F80021C5
:1036D000280006F05DF8262CF2D170BD2309010008
:1036E000014B18787047C046BF040020481E814136
:1036F00010B5C8B2FFF7E4FC10BD000010B50248D9
:1037000000F00BFBC0B210BDC804002010B5024889
:1037100000F003FBC0B210BDC0050020014BE43334
:1037200018787047C8040020014BE43318787047BC
:10373000C005002010B5024800F0F4FAC0B210BD78
:10374000C804002010B5024800F0ECFAC0B210BD69
:10375000C005002010B5024800F0E9FAC0B210BD63
:10376000C804002010B5024800F0E1FAC0B210BD54
:10377000C005002010B50C00034800F087FA2100B6
:10378000024800F083FA10BDC0050020C8040020E4
:10379000024B18780138434258417047C404002056
:1037A00010B5024800F07DFAC0B210BDC00500207F
:1037B000014B18887047C0460C00002010B504006B
:1037C000FFF7AAFC200010BD0022002310B5074916
:1037D000074C0A604B60074920000A604B60FFF706
:1037E000B9FA2000FFF764FA10BDC046D8060020E1
:1037F00098090020F006002010B5134C200005F0B9
:10380000FBFA0020FFF75CFC0121152005F074FF96
:103810000121142005F070FF0021152005F0B8FFEC
:103820000021142005F0B4FFFFF7CEFF0120FFF7C1
:1038300047FC200005F0B2FA0449200005F0CEFA5A
:10384000642005F0E9FC10BDE02A0020A0860100FC
:1038500070B5150006000C00127804F0A9FC3000C9
:103860006A78611C04F0A4FC280070BDF7B5022042
:1038700001F0C4FD194E3080012001F0BFFD6B4600
:10388000174D9C1D288021003088FFF707FC2288F7
:10389000144B154F154C9A4207D131883A0020003D
:1038A000FFF7D6FF200004F087FC30883900FFF7CF
:1038B000F5FB2988200004F05BFC0D4EFF2807D1A2
:1038C00020003278298804F073FC200004F074FC96
:1038D0002988200004F04CFC3070F7BDC0040020A3
:1038E000C2040020FFFF00000C000020A9090020F6
:1038F0000E00002010B5FFF7B9FFFFF7DFFEFFF75E
:103900008BFD054C200005F049FA0449200005F024
:1039100065FAFFF725FC10BDE02A0020400D0300EA
:1039200070B50400C5B22900094800F0A5F92900C6
:10393000084800F0A1F9084A084B1480084C19887F
:103940002000FFF785FF200004F036FC70BDC04664
:10395000C8040020C00500200C000020C004002086
:10396000A909002010B50800FFF7DAFF10BD00001C
:10397000154B00221900D83110B50A701900D93141
:103980000A701900DC310A6019005820E031086023
:103990001900E4310A70B221F033C90119800B4BD0
:1039A00001241800D83002701800D93002701800B5
:1039B000DC30046018005834E03004601800F03344
:1039C000E4300270198010BDC8040020C00500203A
:1039D00010B5012204000021024806F0A1FA20706F
:1039E00010BDC046B431002010B5054C01002000C8
:1039F00005F08EFF2021200005F08EFF10BDC0468F
:103A0000B431002010B5054C01000A22200005F059
:103A1000EEFF2021200005F07FFF10BDB431002013
:103A20007FB57E4A7E480D00002401F0CDFEA04205
:103A300011D109227B4928000AF0AFFBA0420AD12C
:103A40000935794928000AF08FFBA04206D1774852
:103A5000FFF7CAFF0124200004B070BD744928009C
:103A60000AF082FB002801D17248F1E77249280070
:103A70000AF07AFB002810D101A87049FFF79EFEDA
:103A80006F4C01A9200005F03CFF2021200005F02B
:103A900043FF01A807F094FDDCE76A4928000AF01B
:103AA00063FB002814D1664806F08AFA664C0A289F
:103AB00005D12000FFF714FEFFF7A4FFCAE701AD10
:103AC0002800FFF785FF29782000FFF70FFEC1E7E8
:103AD0005E4928000AF048FB00280FD15C48FFF738
:103AE00083FF594C2000FFF709FEFFF78BFF594871
:103AF000FFF77AFF2000FFF709FEDDE756492800AF
:103B00000AF032FB00280FD15148FFF76DFF4E4CF1
:103B10002000FFF703FEFFF775FF4E48FFF764FF35
:103B20002000FFF701FEC7E74C4928000AF01CFB04
:103B300000280FD14648FFF757FF434C2000FFF7FE
:103B4000F9FDFFF75FFF4348FFF74EFF2000FFF747
:103B5000F9FDB1E7424928000AF006FB00281DD113
:103B6000374806F02DFA384C0A280ED13848FFF7AE
:103B70003BFF2000FFF7EEFDFFF744FF3548FFF75E
:103B800033FF2000FFF7EEFD96E701AD2800FFF7B9
:103B90001FFF29782000FFF7EDFD5BE73149280082
:103BA0000AF0E2FA002808D12448FFF7F1FD2E4B75
:103BB000012800D02D4B18004AE72D4928000AF0B3
:103BC000D3FA002803D11D48FFF7EAFD74E729491D
:103BD00028000AF0C9FA0024A04200D03BE7184CA4
:103BE000200006F0EDF9154D06000A280CD128003A
:103BF000FFF7DEFD32000100200005F0E8FE202185
:103C0000200005F089FE25E701AC2000FFF7E0FE6B
:103C100021782800FFF7A6FE1CE7C04652090100E4
:103C2000C0080020FDF80000AFFA0000180A0100EB
:103C3000240A01002D0A0100100A0100A809002031
:103C4000B4310020370A0100A7090020420A010010
:103C50004B0A0100510A0100590A0100640A0100DF
:103C60006D0A01007A0A0100490901004E090100AC
:103C7000810A0100870A010007B5022201AB5970D1
:103C8000E03019001A7000F01DF90EBD07B50D22C5
:103C900001AB1A705970E0300B3A190000F012F9BC
:103CA0000EBD37B50B236A46E0301370694601221A
:103CB000040000F007F9002802D0012040423EBD78
:103CC000A0239B00013BFDD101AD02222900200071
:103CD00000F03AF90228F0D168782B780002C01879
:103CE000EDE737B56B46E0301970012269460400F4
:103CF00000F0E8F8002802D0012040423EBDA02399
:103D00009B00013BFDD101AD01222900200000F004
:103D10001BF90028F0D02878F0E710B50121FFF753
:103D2000E0FF10BD10B50821FFF7DBFF10BD10B597
:103D30000D21FFF7D6FF10BD10B50C21FFF7D1FF05
:103D400010BD13B5040006220021684609F0AFFC3F
:103D500020000622E030694600F0F6F8831F5A4240
:103D600053412200D83213700023062816D16A4628
:103D70001278012A12D1694623004978E833197074
:103D800069468978EC3459706946C97899706946F2
:103D90000979D9706B465B7923701300180016BD42
:103DA00010B50400E831082209F065FC200010BDC0
:103DB0000B00F0B58DB0803B05AE33700300D933F6
:103DC0001B780500019318234B4302930300012441
:103DD000F1330393029B0199E318013BEB5C002252
:103DE000994201D25B1ADAB20D4B03219F5C20008D
:103DF000375507F0EDFD012906D1039B6331187893
:103E0000784307F0FFFC30550134192CE2D128002B
:103E100022003100E03000F055F80DB0F0BDC04692
:103E20008F0A0100F7B5264E0190300004F0E4FF40
:103E30000121142005F060FC0121142005F0A8FCEC
:103E40000121152005F058FC0A24152750250121D1
:103E5000380005F09DFC2B00013BFDD1002138000E
:103E600005F096FC2B00013BFDD1013C002CEED16E
:103E70002100142005F08CFC013DFDD120250121FD
:103E8000152005F085FC2B00013BFDD101211420FC
:103E900005F07EFC013DFDD11420210005F02CFC35
:103EA0002100152005F028FC300004F077FFFA21EE
:103EB000019B8900DB883000594304F08FFFF7BD78
:103EC000E02A0020F7B51E4C0E0001682000C9B2A0
:103ED000170004F096FF00211A4B0A00FF25181264
:103EE0002A40974210D9725C01315A4052B2D3B283
:103EF0001B015A40D2B213119C466546D3001202F0
:103F00006B4010434340E8E701AD28703A003100B0
:103F100020006B7004F0E8FE002801D10120FEBDF6
:103F200002222900200004F0DFFE0028F6D0012143
:103F3000200004F0E8FF431E9841C0B2EFE7C046FE
:103F4000E02A0020FFFF0000F7B50368244E01912E
:103F50000092D9B2050002320123300004F069FF5B
:103F600000270400B84204D12800FFF75BFF2000BF
:103F7000FEBDFF23009A3B403000934205D204F07F
:103F8000FFFF019BD8550137F3E704F0F9FF040068
:103F9000300004F0F5FFFF26002124022018114A0A
:103FA00087B20B0000983340984210D9019B5B5CAC
:103FB000013153405BB2D8B200014340DBB21C1167
:103FC000D80012121B0260401A434240E9E76B46D8
:103FD0001C78BA42CBD02B79002401332B71C6E771
:103FE000E02A0020FFFF00007047704710B5084B23
:103FF0001A78084B9B18013B1978074B1970074B2F
:104000001B788B4203D3064B188801F0EFFD10BDDF
:1040100007000020B0030020120700201307002033
:104020001407002010B50A1C054B06491B780978B7
:10403000994204D304490888190001F0F1FD10BD2C
:1040400012070020130700201407002010B5054CAC
:104050002388002B05D1044B0800197001F060FD86
:10406000208010BD140700201307002010B5054B59
:1040700002781B789A4203D1034B1868FFF7B6FF0A
:10408000002010BD220000200409002007B5054AC9
:10409000054B12781B8805480092054A01F05EFE28
:1040A0000EBDC0461307002014070020F1080020B1
:1040B0008F0B0100FF22014B1A707047110700207F
:1040C00010B50100014804F053F810BDA909002003
:1040D000FA21F8B58900050007F00AFBFA2184B23D
:1040E0008900280007F08AFBFA27A5268DB2BF00B9
:1040F0002800002C00D0380005F08EF8044B013C5D
:10410000DB79DB0901D1034B1E60631CF0D1F8BDE4
:104110000010004008100040F7B50024244F254B44
:104120003E881C800194244A3B8812889B189E423A
:104130003DDA751C3000ADB2FFF7C2FF0D280BD879
:1041400007F0C2FA2807070C0C0C07070709090932
:104150000E1E0236B5B200242E00E4E70336F9E75E
:104160002800FFF7ADFF6C1CA4B206002000FFF78B
:10417000A7FF06430235F4B2ADB2002CF0D1EBE755
:104180002800FFF79DFF0135ADB204002800002C88
:10419000F7D1E1E7019B07490133DBB25A000193F4
:1041A0003B88EB1A8B52002C01D10134D4E7F7BDC8
:1041B000180700201C0700201A07002010B5040073
:1041C00001F01CF9034B1880034B1C80FFF7A4FF80
:1041D00010BDC046180700201A0700207FB501ACAB
:1041E00020800E0015008B0710D582B202AB1A801A
:1041F000104B82221978029803F0CCFE002D05D1D5
:104200000D48FEF755FD0D4804F012FCF30710D5DC
:10421000228803AB1A80074B81221978039803F098
:10422000B9FE002D05D10448FEF742FD034804F015
:10423000FFFB7FBDB40B010098090020842A0020F9
:1042400073B50E001D001400FFF73AFF01AB5E705E
:1042500018702A0021000198FFF7C0FF73BD00000D
:10426000F0B50026614B4900CC5A614B85B01888E7
:1042700001962418A4B2651C2000ADB2FFF720FF00
:104280000D2800D9ADE007F01FFAA11B2A3A4752CA
:104290005D676CAE0714728C0026019804F0BCFFB9
:1042A000544BDB79DB0902D1A522534B1A602C0059
:1042B000E1E75248FEF7FCFC514804F0B9FBECE79B
:1042C0002800FFF7FDFEE51C02340700A0B2FFF74F
:1042D000F7FE3F02384383B2ADB20193DDE7280019
:1042E000FFF7EEFEE51C02340700A0B2FFF7E8FE80
:1042F0003F02384380B2ADB2FFF7EAFECDE72800B7
:10430000FFF7DEFE33000222E51C02340100ADB2ED
:10431000A0B2FFF795FFC0E72800FFF7D1FEE51C2C
:1043200002340100ADB2A0B233000122F1E728004F
:10433000FFF7C6FEE51C02340100ADB2A0B20023B7
:104340000322E6E7330002220234A4B2002128004F
:10435000FFF776FF2500A0E70234A4B23300012264
:10436000F4E700230234A4B203221900EFE7280087
:10437000FFF7A6FE6F1CBFB204003800FFF7A0FED7
:10438000070003AB5C701870002203210398FFF74D
:1043900025FF02350198ADB2FFF79AFE3C43E6D106
:1043A0007BE72800FFF78CFE002203AB18705A70E1
:1043B0000321013504000398FFF710FFADB2019807
:1043C000FFF786FE2800002CECD166E702F070FEB5
:1043D000002806D002F0B6FD002802D1013002F01C
:1043E00069FF05B0F0BD012657E7C0461C07002055
:1043F0001807002000100040081000409809002015
:10440000842A002010B54A78097812028918094ACE
:1044100089B28A1892B200243F2A08D803220134B4
:104420001340022B03D15C39C9B2FFF719FF2000FA
:1044300010BDC046A42D0000F7B5304A01903048A9
:104440000D00002401F0C0F90600A04254D107225B
:104450002C49280009F0A1FE340000284CD1073572
:104460002949280009F080FE041E36D1274E30006D
:1044700005F0A6FD0A2814D1254B1B88A3422CD990
:10448000244B18880019FFF71BFE0A220100300098
:1044900005F0ADFA01342021300005F03DFAA4B258
:1044A000EAE7300005F08CFD1B4F0A2810D00122EE
:1044B0000021300005F034FD631C9BB20093154BC6
:1044C000C2B219883800091903F05EFE009CE8E7C3
:1044D000380003F071FEFFF71FFE1049280009F0B5
:1044E00043FE0124011E07D12200084805F018FDF3
:1044F000C1B20198FFF7B4FE2000FEBDB50B01006C
:10450000C0080020CF0B0100980B0100B43100203F
:104510001A07002018070020A9090020C70B010076
:1045200010B5054C01000A22200005F050FA2021A8
:10453000200005F0F1F910BDB431002010B502489B
:1045400003F03AFE10BDC046A909002070B5074E21
:104550000D0004000100300003F00AFE611C287009
:10456000300003F005FE6870280070BDA909002026
:1045700070B5074E0D0004000100300003F0F8FD97
:10458000611C2870300003F0F3FD6870280070BDD6
:10459000A909002070B50E000400064D0A7801003C
:1045A000280003F005FE28007278611C03F000FE6D
:1045B00070BDC046A909002010B5012204000021E9
:1045C000024805F0ADFC208010BDC046B43100208B
:1045D000F0B5504C85B020884F4A030008339BB299
:1045E0000193002313704D4A138002AB9D1C2900D8
:1045F000FFF7ACFF2A884A494A4B4B4D8A4200D903
:1046000061E01A80208803AE0230310080B2FFF7EB
:104610009DFF3288454E464BB2425AD01A802088C0
:1046200002AB9F1D043080B23900FFF78FFF3A883C
:10463000404BB24253D01A8021882800063189B2FB
:1046400003F096FD3C4BFA284FD8187021882800BB
:10465000073189B203F08CFD384BFA284BD818701B
:1046600000252C002B4E364A3388128808339B18BD
:10467000019A9A4225DA11002B4803F079FD019B3B
:1046800002339BB2019300283BD124486100338858
:10469000019A0F5AD21AD21B0E3A574257413A0189
:1046A00094461022274E01348F5DE4B29743624650
:1046B00017438F5501996200CB1A083B1352002D06
:1046C00021D005B0F0BD1A782188280003F05CFDE8
:1046D00098E71A782188280003F056FD9FE71A789A
:1046E0002188280003F050FDA6E71A7821882800C9
:1046F00003F04AFDAAE71A782188280003F044FD58
:10470000AEE70025AEE7044A0125137801331370A4
:10471000A8E7C046A0070020AA070020AE07002097
:10472000CF07000018000020A9090020FFFF0000AB
:1047300016000020100000201300002014000020AC
:10474000A20700202E080020094B0A4A1B78643378
:10475000DBB25B00D11848780621042801D806494D
:10476000095CD3185970054B1A68054B1A807047BD
:10477000A50700202E080020D70B0100A40300206D
:104780009C07002070B505000800083080B20C00BE
:1047900000F034FE044B1880044B1C80044B1D7049
:1047A000FFF716FF70BDC046A0070020A20700203B
:1047B000AE080020F0B585B01C0006000D1C01926B
:1047C0001300062A00D10423B94ABA481778013BDE
:1047D000F21B5100085A0132B6495B0052001B1807
:1047E000525A9BB200209A4223D9B34A1278D71961
:1047F000BE421EDCB14F02A93888013C08301818AF
:1048000080B2FFF7B5FE0120032C12D8200006F07D
:1048100065FF9600040004002B0102AB5C78187859
:1048200024022418A4B2012C2FD1019B042B02D006
:10483000012005B0F0BD9E4B9E4A1B7803A9F61AD5
:1048400076003B88905B0833C01880B2FFF790FE7B
:104850008222291C039803F09DFB994E3000FEF73D
:1048600027FA8122291C039803F094FB3000FEF7FD
:104870001FFA8222291C039803F08CFB3000FEF7FC
:1048800017FA8122291C039856E08E4B5438E218FF
:10489000C0B2092A66D98C4B9C4209D98B4B9C42E9
:1048A0000BD821005C39C9B28948FFF7D9FCBFE7B2
:1048B000FF2C02D9874B9C4208D98222291C0298DE
:1048C00003F068FB7E48FEF7F3F9B1E72412E30733
:1048D00007D5E02203AB1A80291C5E3A039803F047
:1048E00059FBA30707D5E22203AB1A80291C603AC3
:1048F000039803F04FFB630707D5E62203AB1A804A
:10490000291C643A039803F045FB230707D5E122ED
:1049100003AB1A80291C5F3A039803F03BFBE306C4
:1049200007D5E32203AB1A80291C613A039803F0F0
:1049300031FB82220298291C03F02CFB78E7664B9E
:104940001A88002A60D102AA517802AB1B780902AA
:10495000C918624A8CB2944207D9614A94420AD873
:10496000543BD8B2FEF798FA62E75E4A944248D9BF
:104970005D4A944239D9544B9C423ED8554B9C4297
:1049800039D82412E30707D5E02203AB1A80291C8B
:104990005D3A039803F0FEFAA30707D5E22203ABC2
:1049A0001A80291C5F3A039803F0F4FA630707D5CD
:1049B000E62203AB1A80291C633A039803F0EAFA53
:1049C000230707D5E12203AB1A80291C5E3A03981E
:1049D00003F0E0FAE3060ED5E32203AB1A80291CAC
:1049E000603A039803F0D6FA05E001243F4A2A3BD7
:1049F00014703F4A137083229CE7344B9C42FAD8D0
:104A00004FE7FF2CF7D9B9E73A4B1B689B1A3A4A94
:104A10009BB212889A42EED202AB5A781B781202ED
:104A20009B18304A9BB2934210D92F4A934200D828
:104A3000FEE6324A934202D0314A934206D1314BCC
:104A4000187804F0E9FB1E48FEF732F902AA02AB1F
:104A500012785B78013AFF3A1B029B182A4A9BB2F4
:104A6000934200D82EE7C6E702AB18785B781B02AA
:104A70001B189BB2012B00D1DAE6134A934208D9E6
:104A8000124A934200D8D3E60D48FEF711F981226D
:104A900050E7144A934239D9134A9342F4D82A383A
:104AA000C0B2FEF715FA0022104B1A70C0E6C046DD
:104AB000AE080020AE070020AA070020A0070020B3
:104AC00098090020ACBBFFFF5BD200009BD2000026
:104AD00016070020FF1E00009E0700205344000020
:104AE0005D4400002944000033440000A407002076
:104AF000AC070020A403002018000020E95C00009F
:104B0000EA5C000013000020FF1D0000FF2BBBD952
:104B10001C4A9342B8D88122291C029803F03AFA21
:104B200002AB5C78E30707D5E02203AB1A80291CAF
:104B30005F3A039803F02EFAA30707D5E22203ABEE
:104B40001A80291C613A039803F024FA630707D5F9
:104B5000E62203AB1A80291C653A039803F01AFA7F
:104B6000230707D5E12203AB1A80291C603A03987A
:104B700003F010FAE30600D45AE6E32203AB1A80EE
:104B8000623A7FE6FF1E0000104B70B51878104D9A
:104B90006430C0B24400625DD607F10F002E13D11D
:104BA00019705970130706D40A492B195A780978D5
:104BB0000323FFF7FFFD0022074B29191A802B5D05
:104BC0004A70F03213402B5570BDC046A507002037
:104BD0002E080020120000209C0700200B4B10B56F
:104BE0001A78002A02D15B78002B0DD0084B1A8866
:104BF000002A09D0074B1B689B1A074A9BB21288F0
:104C00009A4201D2FFF7C0FF002010BDA507002087
:104C10009C070020A403002016000020F8B50C4CCF
:104C20000C4D20780C496430C0B24600AF197A7838
:104C300004230978FFF7BEFDF0210023725D7B702D
:104C40000A407255054A237013806370F8BDC04650
:104C5000A50700202E080020120000209C0700203D
:104C6000F8B5134B134D1878134B6430C0B24100A4
:104C7000CA5C5F181607F60F05D07A7801232978E9
:104C8000FFF798FDF8BD0D4C26800A263243CA5422
:104C90007E780522062E01D8094A925D5B185A706B
:104CA00029780123FFF786FD064B1B682380E9E77F
:104CB000A5070020120000202E0800209E070020DB
:104CC000DC0B0100A4030020164A70B51078164DC5
:104CD0006430C0B24400635D144EDB070CD5144B46
:104CE00031881B685B1A13499BB20988994203D229
:104CF000FFF7B6FF002070BD0023137053702B5DCB
:104D00001B0706D40C492B195A7809780223FFF7A0
:104D100051FD00222B5D291932804A70F032134078
:104D20002B55E8E7A50700202E0800209C0700204F
:104D3000A40300201000002012000020F7B50F008F
:104D40006946CA715AB2002A01DA0020FEBD7A789B
:104D5000484E944661463A780D02AD184649ADB2C8
:104D60008D421FD945498D4226D803246435EDB2C2
:104D70001C40012C3ED142496800435CA34343548C
:104D80003378002B02D1717800293DD09A4203D1AB
:104D9000384B5B7863454DD0012C39D12800FFF7A3
:104DA0003DFF33E0E03D072D06D803221A40012ADB
:104DB0000DD10021334A11703278002A0CD170785D
:104DC000002809D1304B1A68304B1A80BEE7022AFE
:104DD000F2D12C4A0121EEE703242340022BB4D167
:104DE0006B46D879FFF770FF0028AED000203870EE
:104DF0007870ABE7022CC3D1214B6800C35C19006B
:104E000001230B431E49BAE7022C07D001209DE77E
:104E1000022CFBD06B46D879FFF756FF02223900EF
:104E2000300008F028FC6A46194BD2791A70FFF757
:104E30008BFCEBE7022CFAD0012C0DD1104B6A0051
:104E4000D35CDB0603D40F4B1B78002BDED06B4604
:104E5000D879FFF739FFA1E70B4B0E4A1B68128880
:104E60009B1A0D4A9BB212889A42CFD2FFF7F8FEE6
:104E7000CCE7C046A50700209BD20000DBD2000093
:104E80002E080020AB070020A4030020A807002064
:104E9000120000209C0700201000002010B50448DC
:104EA00005F08EF80A3843425841C0B210BDC046E2
:104EB000B4310020F0B5824A85B082480C0000254C
:104EC00000F082FC0600A84200D0A3E00A227E493E
:104ED000200009F062F93500002800D09AE00A3479
:104EE0007A49200009F040F9051E3ED1FFF7D6FFB0
:104EF000002816D0764B1B88AB4236D9754B03AED3
:104F0000188831000830281880B2FFF731FB737819
:104F100030781B02C01880B20235FFF701FBADB23A
:104F2000E8E70500FFF7BAFF011E1AD101226A481F
:104F300004F0F6FF0600674B684F1988C2B20831CB
:104F400069188BB219003800019303F031F9019B05
:104F50003612F2B2591C3800023503F029F9ADB20D
:104F6000E0E7FFF7EBFAFFF733FB5D49200009F0BC
:104F7000FBF8002807D1FFF791FF00284DD0594BCF
:104F80001888FFF7CDFA5849200009F0EDF80028FD
:104F900007D1FFF783FF00284ED0544B1888FFF746
:104FA000BFFA5349200009F0DFF8002807D1FFF7C6
:104FB00075FF002851D04F4B1888FFF7B1FA4E49C2
:104FC000200009F0D1F800280ED1FFF767FF424D0D
:104FD000011E53D0494B0A221978280004F007FD1E
:104FE0002021280004F098FC4549200009F0BCF875
:104FF000012500280ED1FFF751FF374C011E4ED07E
:10500000404B0A221978200004F0F1FC20212000F6
:1050100004F082FC280005B0F0BD03AD2880280014
:10502000FFF7CAFA2B4B29001888FFF7B3FAFFF7EE
:1050300085FAFFF7CDFAA6E703AD28802800FFF731
:10504000BBFA244B29001888023080B2FFF7A2FA7D
:10505000FFF774FAFFF7BCFAA3E703AD2880280036
:10506000FFF7AAFA1B4B29001888043080B2FFF71B
:1050700091FAFFF763FAFFF7ABFAA0E701222800E5
:1050800004F04EFF134BC2B219881448063189B29E
:1050900003F08EF8FFF752FAFFF79AFAA4E72A0016
:1050A000200004F03DFF0B4BC2B219880B480731BA
:1050B00089B203F07DF8FFF741FAFFF789FAA9E713
:1050C000E30B0100C00800204C0C0100980B01000C
:1050D000A2070020A0070020B4310020A909002069
:1050E000570C0100180000205F0C01001600002082
:1050F000670C010010000020710C0100130000205B
:10510000440C010014000020F0B5134B85B01B784F
:1051100003AD834207D800232B806B7828781B02CD
:10512000184305B0F0BD502444430C4FC9B2641875
:10513000640039880A4EA4B209190131300003F025
:1051400017F8398801900919300003F011F86B46FF
:105150001B7968702B70E0E7B0080020B2080020CF
:10516000A909002013B5094B01AC1B78834207D96C
:10517000FDF726FE2080637820781B02184316BDB9
:10518000C01AC0B2FFF7C0FFF4E7C046B408002061
:1051900010B5044800F060F9034B00201A78034B67
:1051A0001A7010BDB508002006000020B4080020C9
:1051B000044B10B51870A023584300F01FF9024BA0
:1051C000188010BDB0080020B2080020094B0A4921
:1051D0001B7810B5DB090870084A04D0084B13602F
:1051E000FFF7E6FF10BD074B1B78C3180B70064B8B
:1051F000F5E7C046BA08002006000020080000209D
:1052000009510000B408002065510000F7B50A4EAE
:1052100001AF3980094C0A04318845004919200042
:10522000120E02F0B1FF31883A784919013120009D
:1052300002F0AAFFF7BDC046B2080020A90900206D
:10524000F0B50F00002585B00190EBB20093019BF3
:10525000AB4213D00024211C0098B847084E81B2FD
:105260000A223000013404F0B2FBE4B22021300005
:1052700004F052FB502CEED10135E6E705B0F0BD4D
:10528000B431002073B5404A40480D00002400F0BE
:105290009BFAA04220D107223D49280008F07DFF5B
:1052A000A04219D107353B49280008F05DFF0600F0
:1052B000A0422ED1384C200004F082FE02000A28C1
:1052C0000CD1364B20001978C90904F090FB20213D
:1052D000200004F021FB0124200076BD01223100D2
:1052E000200004F01DFE01ABC4B21870200000F0D5
:1052F00015F92B4B2B491B782B4A0B70002C02D035
:105300002A4B1360E7E72A4800781B180B70294BDB
:10531000F7E72949280008F027FF002805D1244B8A
:1053200026491878FFF78CFFD5E72549280008F0B3
:105330001BFF0028D0D1184D5026280004F040FE55
:105340000A2803D1164B19491878EBE7280004F016
:1053500037FE0A2814D0124B1B7873439C420FDA95
:1053600001220021280004F0DBFD01AB02121870BD
:105370005A70200001990134FFF748FFA4B2E5E715
:10538000104802F019FFA6E7780C0100C0080020C1
:10539000A70C01009C0C0100B4310020BA080020C9
:1053A000B00800200600002008000020095100007D
:1053B000B408002065510000AF0C0100C12D0000B1
:1053C000B70C0100A909002010B5054C01000A2204
:1053D000200004F00CFB2021200004F09DFA10BDF9
:1053E000B43100200020034B1B78834201D0024BD4
:1053F00058887047B8080020BA08002013B56B46DB
:105400000024991D074B08801B78A34208D1064A47
:1054100083B214880548E3181380022202F03EFB91
:10542000200016BDB80800201A00002084090020C2
:10543000F7B507000D0016000C000B1D0193731B40
:105440001A5D2100380002F0B3FE019B01349C423A
:10545000F5D13000FEBD000070B50025114C2900CB
:10546000200002F085FE104A6E1C50553500042EB7
:10547000F4D15378FF2B12D11178803B0B40D8B276
:105480007F2803D1C90901D0834313700123002170
:1054900020005370FFF7CCFF200002F08DFE0020AB
:1054A00070BDC046A9090020BA08002010B5064CFE
:1054B000064A00212000FFF7BBFF200002F07CFE1F
:1054C0000122034B1A7010BDA9090020BA08002060
:1054D000B908002070B50F4B05001B780E4C8342B5
:1054E00008D9FDF7D9FC7F22290023781140934386
:1054F0000B4323707D2D06D97F22237893431A0016
:105500007E2313432370FFF7D1FF20784006400E1F
:1055100070BDC04606000020BA0800207F23094A5B
:10552000C101107810B5184008431070C0B2034094
:105530007F2B03D19843013B18431070FFF7B6FF50
:1055400010BDC046BA080020012270B5104D114BA5
:10555000102128001A7002F08DFA0F4C6378012B8D
:1055600003D000220D4B1A7070BD62880C492B8845
:105570008A420AD16380FFF799FF20784006400EE7
:105580007D28F1D8FDF788FCEEE79A42ECD1F4E7EC
:1055900084090020B8080020BA080020B9080020BB
:1055A000FFFF0000044B10B51B78002B01D1FFF763
:1055B000CBFF002010BDC046B808002070B5304AAF
:1055C00030480C00002500F0FFF8A8423FD1092226
:1055D0002D49200008F0E1FDA84238D109342B49BB
:1055E000200008F0C1FDA8420AD1294C200004F097
:1055F000E7FC0A283BD1274B18784006400E2AE0EA
:105600002549200008F0B0FD002827D023492000BC
:1056100008F0AAFD00281CD02149200008F0A4FDB4
:10562000002814D11F4B1E88FFF7DCFE0500184C24
:105630000A223100200004F0CAF91B49200004F0BE
:105640005CF90A222900200004F0C1F90125280094
:1056500070BD104B5878FFF7B7FEF7E7134B18787B
:1056600000F0CEF820210A4804F056F9EEE70122B6
:105670002900200004F054FCC0B2FFF72BFFE5E73F
:10568000EA0C0100C00800202E0D0100380D0100B9
:10569000B4310020BA080020450D0100AFFA000027
:1056A0002A0D0100840900204C0D0100B9080020DA
:1056B00070B5264A26480E00002500F085F8A8425D
:1056C00036D12449300008F04FFD0400A8421AD119
:1056D000214D280004F074FC0A282BD08026B60146
:1056E000280004F06DFC0A2821D0012200212800A6
:1056F00004F016FC2100C2B20134184802F044FD47
:10570000B442EDD113E01649300008F02DFD002819
:105710000ED18021134B104C1B888901C91A0A2213
:10572000200004F054F92021200004F0F5F80125B0
:10573000280070BD8025AD012100084802F018FD49
:105740000134FFF741FEAC42F6D1F0E7BE0C010098
:10575000C0080020DA0C0100B4310020A9090020A3
:10576000CE0C01001A00002070B51C000B780D0053
:10577000292B05D14B78002B02D163B2002B01DA23
:10578000002070BD01F094FC002815D101F0E8FB69
:105790000028F6D00B4B1A78002A02D000222A707B
:1057A0006A7003221440013C621E944101201C7067
:1057B00001F080FD0120E4E701F0C4FB0028E5D101
:1057C000E8E7C046BF08002010B5080006491400ED
:1057D00008F0CAFC0023984204D12100034804F0D9
:1057E000A9F80123180010BD4E0D0100B4310020AE
:1057F00010B5024AFFF7E8FF002010BD4E0D010072
:1058000010B50449002800D10349044804F075F894
:1058100010BDC046570D01005C0D0100B4310020E1
:1058200010B5084C200004F0B1FB002808D020007F
:1058300004F0C6FB0A2803D0200004F0CFFBF6E7F3
:1058400010BDC046B4310020F7B51C4C0126200025
:1058500004F09CFB00282CD0200004F0BFFB184D66
:10586000731EEB1818702000F7B2019304F0A8FB28
:105870000A2807D0019B1B78202B03D00136212E4C
:10588000EAD120277A1EA95C0023202913D1AB542A
:105890002800FDF7B5F90B49200004F04BF8FFF79D
:1058A000BFFF200004F08CFB0A2802D1200004F086
:1058B00095FB0020FEBDEB55EAE7C046B431002061
:1058C000C1080020530D0100F7B51A4E1A4D326879
:1058D0002B88D31A9BB2322B16D9184A184F138A29
:1058E000184C39889B045B0D20780192994210D1A5
:1058F000002807D1144A1378132B07D9FCF736FD7B
:105900000123237033682B800020FEBD0133137008
:10591000F8E7002804D00220FCF728FD00232370BC
:105920000022019B1B8A9B045B0D3B80064B1A7077
:10593000E8E7C046A4030020E6080020005000412C
:10594000E2080020E8080020E4080020FA2110B551
:10595000024B8900186805F0CBFE10BD1C0000202A
:105960000B4B10B51A68002A0FD00A4B1B78002B7E
:105970000BD0094B09491B6809685B1A9A4204D28B
:1059800000F078FC0122064B1A70002010BDC046C2
:105990001C00002023000020A4030020EC080020AD
:1059A000F008002010B5074C2378002B03D000F03E
:1059B0003FFC00232370044B00201A68034B1A603D
:1059C00010BDC046F0080020A4030020EC08002011
:1059D000FA2370B504009B0043430A4A0A4E136041
:1059E0000A4BC2B21D883000290002F0E1FB2204FC
:1059F000691C3000120E02F0DBFB300002F0DCFB11
:105A000070BDC0461C000020A9090020EA08002043
:105A100073B50220FFF7F2FC0D4B0E4E188001000B
:105A20000500300002F0A4FB6B469C1D2070691C31
:105A3000300002F09DFB60702288074B9A4202D131
:105A4000064B1B6823802088FFF7C2FF002076BD2D
:105A5000EA080020A9090020FFFF00001C00002028
:105A600070B5184E184832000D000024FFF7ACFE48
:105A7000A0421CD13100280008F076FBA04216D1CC
:105A8000124D280004F09CFA06000A2811D1FA21D0
:105A90000F4B8900186805F02BFE3200010028002A
:105AA00003F099FF2021280003F036FF0124200095
:105AB00070BD01222100280004F032FA80B2FFF705
:105AC00087FFF3E7620D0100C0080020B431002019
:105AD0001C00002010B5054C01000A22200003F034
:105AE00086FF2021200003F017FF10BDB4310020F5
:105AF000094B07B51B78002B0DD0002201AB1A8093
:105B00009A70019800F0E2FA044B1868002802D05D
:105B100003685B68984707BD230000200409002044
:105B200070B5074C05002388002B03D13020FFF708
:105B300065FC208042206843FFF760FC70BDC046D2
:105B4000F208002010B50C0049080918054802F0B9
:105B50000FFB02000011C0B2E30701D50F20104077
:105B600010BDC046A9090020F7B50324124B4443D9
:105B70001888124F2418A4B22100380002F0F8FA55
:105B8000611C0600380002F0F3FA0500A11C380081
:105B900002F0EEFAF6436B46ED431E705D701A8814
:105BA000FF231100120A1940120283431B040A4307
:105BB0001A431000FEBDC046F2080020A9090020CB
:105BC00007B5FFF7BFFFFFF7CFFFFF210300020A72
:105BD0000A4012020B401343000C034A0840000421
:105BE000134018430EBDC046FFFF00FF37B54225E6
:105BF00000244D434519ADB2A1B22800FFF7E0FFE4
:105C000001AB187002040002120E000E98705A7058
:105C1000E0B20199013400F009FA842CECD137BDCF
:105C2000422313B55943D3B24018141C80B2FF214C
:105C30004F2B01D8084AD15C89B2FFF7C1FF01ABF5
:105C4000187002040002120E000E98705A7001992A
:105C5000201C00F0F7F913BDD307010010B504486C
:105C600004F0AEF90A3843425841C0B210BDC046F4
:105C7000B4310020F0B5344E85B0320033480C000A
:105C8000FFF7A2FD05000020854220D12000310051
:105C900008F06AFA04002800002C18D1FFF7DEFF94
:105CA000002816D02000FFF75FFF06040502360E1D
:105CB000C0B2FFF70FFF2D0E30000134FFF70AFFCF
:105CC000E4B22800FFF706FF102CEBD1012005B04D
:105CD000F0BD0400FFF7C2FF1D4D061E2ED11D4F63
:105CE00001000122380004F01BF93100009001226C
:105CF000380004F015F9310001900122380004F059
:105D00000FF9154B07001E88009BA619DA43B6B29F
:105D1000D2B23100280002F04BFA019B711CDA4329
:105D20002800D2B202F044FAFA430334D2B2B11CD2
:105D30002800A4B202F03CFA302CCBD1280002F0AB
:105D40003BFAFFF7D5FEC1E7760D0100C008002041
:105D5000A9090020B4310020F2080020F0B585B078
:105D600002932F480AAB0C0017001E78FFF72CFD9A
:105D700005000020854251D12000390008F0F4F9D7
:105D800004002800002C49D1422373430193FFF7FC
:105D900065FF00281BD0F026019AA3B293423CD2A3
:105DA000029B2048191902F0E3F905000011C0B266
:105DB000FFF790FE29001C4FB1430A22380003F080
:105DC00006FE2021380003F0A7FD0134E4E70400BB
:105DD000FFF744FF134F061E1AD1019AA3B29A424D
:105DE00016D9114D01000122280004F099F8012272
:105DF00003903100280004F093F8039B1A01029BE2
:105E000012181919D2B2380002F0BEF90134DFE7D6
:105E1000380002F0D1F9FFF76BFE012005B0F0BDAC
:105E2000C0080020A9090020B43100207047704745
:105E300013B508780C00C043C3B21A00232099118F
:105E4000C9435A434042584352430012120E8A1A21
:105E50002330D2B2C0B2FF2101F04AFE6B466A463F
:105E6000187003041B0E537000022378000E90700C
:105E7000032B0ED8002323706B461A8899781000E4
:105E8000FF23120A184012020B401B041043184350
:105E900016BD043BEFE70000F0B5234F85B03B682B
:105EA0000500002B3DD0214E03893268D31A204AC9
:105EB0009BB212889A4234D20024E3B20093502C51
:105EC0002DD02B1902AA01939B7AD11C0B70002BA9
:105ED00010D0386803681B68984703AB1870020439
:105EE0000002000E120E98705A706B4603991878D3
:105EF00000F0A8F802AB03331B782A199372002B29
:105F00000BD10C4A5178137809020B43917809049C
:105F100019436B46187800F095F80134CDE73368E3
:105F20002B8105B0F0BDC046F8080020A403002076
:105F300020000020F508002010B541600021040079
:105F4000044B01810833036050220A3007F0AFFB95
:105F5000200010BD800D0100D2B24F2A0BD8074996
:105F600000780978884206D19B0704D5044B1B684A
:105F70009A18FF23937200207047C0462200002029
:105F800004090020014B083303607047980D01009D
:105F9000FF22014B1A707047F408002070B50A4DBB
:105FA000040001222800002103F0BAFF0122207022
:105FB0000021280003F0B4FF0122607000212800B6
:105FC00003F0AEFFA07070BDB431002010B5012207
:105FD00004000021024803F0A3FF207010BDC0465A
:105FE000B431002070B5084D0400280002F05BFBBE
:105FF0002100002803D1280002F0D5FB70BD034822
:1060000002F0A3FCFAE7C046EC290020382A002061
:1060100010B5054C01000A22200003F0E8FC202105
:10602000200003F079FC10BDB43100201FB50A1C1C
:1060300003AB090C1A8099700399FDF749F905B073
:1060400000BD00001FB50B000C1C1B0A090CC2B2DE
:10605000E4B2DBB2C9B2FF204F2A01D80448805C09
:1060600003AA1470537091700399FDF731F91FBDA5
:10607000D307010007B5FDF79FF9020401AB120E2B
:1060800018705A701B88FF211A00000C1B0A0A4066
:106090001B0208400004134318430EBD034B10B508
:1060A0001B78002B01D0FDF7E5F810BD2300002080
:1060B0000121044A044813680B4001D103701160A8
:1060C0007047C046FC0800200009002013B50024DA
:1060D0000190FFF7EDFF200001340199E4B2FFF7D2
:1060E000A5FF842CF7D113BD07B5002201AB1A80A0
:1060F0009A700198FFF7EAFF034B1868002802D056
:1061000003685B68984707BD0409002010B5094B78
:106110001B7883420DD9084B187001F0A1FE074B84
:106120001860074B1B78002B01D0FFF7DDFFFCF751
:1061300071F910BD08090020220000200409002088
:106140002300002010B5064B18780130C0B218703B
:10615000044B1B78834200D80020FFF7D7FF10BD07
:10616000220000200809002010B5064B1A78002AEA
:1061700001D1054A1278013A1A701878FFF7C6FF64
:1061800010BDC0462200002008090020224B70B537
:106190001B78002B32D0214C2378002B02D163785E
:1061A000002B14D0E120FFF71DFF002802D1E530BD
:1061B000FFF718FF2378002B22D16378432B24D1DB
:1061C000002822D1FFF7BEFF002323706370144B19
:1061D000144C154D22881B689B1A2A789BB29A4250
:1061E0000CD2FFF75BFF22882B789B1823800F4B84
:1061F0001868002802D003689B689847002070BD8B
:10620000012B02D16378432B02D0FFF7ADFFDBE710
:106210000028D7D1F9E7C046230000200909002053
:10622000A40300200C090020240000200409002001
:10623000012210B5034B1A70FFF756FFFDF71AF84D
:1062400010BDC0462300002013B5002401AB1C8004
:106250009C700198FFF73AFFFCF72CF9044B1B7870
:10626000FF2B02D12000FFF751FF002016BDC046D2
:106270002200002013B5002401AB1C809C70019803
:10628000FFF724FFFCF7F6FF014B1C7013BDC0465F
:10629000230000204A7810B50024432A17D1403A41
:1062A00013400134022B12D10B78002B0AD0A342E9
:1062B00008D0022B0BD1084B1B78002B09D0FFF71D
:1062C000D9FF04E00222054807F0D5F90124200097
:1062D00010BDFFF7ADFFFAE72300002009090020F9
:1062E00010B5FCF7D9F8014B187010BD0809002053
:1062F00010B5044803F064FE0A3843425841C0B266
:1063000010BDC046B431002073B55E4A5E480D0032
:106310000024FFF759FA0600A0426AD104225B4923
:10632000280007F03AFF3400002862D104355849AC
:10633000280007F019FF002811D16B46DD1C28004A
:10634000FFF744FEFFF7D4FF01AC002853D1200033
:10635000FFF724FE28780199FFF768FE48E04D49D1
:10636000280007F001FF00283CD04B49280007F027
:10637000FBFE00282DD04949280007F0F5FE061E37
:1063800011D04749280007F0EFFE002831D1FFF770
:10639000AFFF002844D101AC2000FFF717FE2078A2
:1063A000FCF72EFF24E0FFF7A3FF041E4DD1FFF7FB
:1063B0007FFEFFF79DFF00281AD101A8FFF7EEFD31
:1063C000200001340199E4B2FFF730FE842CF0D1B3
:1063D0000EE0344803F0F4FDC0B20A2823D1324B5A
:1063E00018781AE001A8FFF7D9FD0198FFF76EFEB3
:1063F0000124200076BD2878FFF73CFE0504030247
:106400001B0E2D0E2070A37065701C00C0B2FFF72C
:10641000FFFD2800FFF7FCFD2000FFF7F9FDE7E78F
:10642000FCF700FFF9E76E2802D1FFF78BFEDFE7EC
:10643000702802D1FFF798FEDAE701AC2000FFF7E1
:10644000C5FD2078FFF762FED2E7FFF731FE34008A
:106450002000FFF70FFE01AB060405021870360E90
:106460002D0EC0B25E709D700134FFF7D1FD30007B
:10647000FFF7CEFDE4B22800FFF7CAFD842CE7D178
:10648000B6E7C046A40D0100C0080020D80D0100E9
:10649000750C0100DD0D0100E40D0100D20D0100BD
:1064A000E90D0100B43100202200002013B5134B88
:1064B000C27A41681B6804009B1A0878DBB29842D4
:1064C00018D21218E2724A782089217B01F010FB61
:1064D00001AB187002040002120E000E5A70987080
:1064E000A37A22899B189BB2FE2B04D823810198A2
:1064F000FFF7ECFD13BDFF3BF8E7C046A403002007
:1065000037B54368C27A19781C4B04001B689B1A84
:10651000DBB299422FD252180121C272184A136875
:106520000B4002D117481160037000252089842D8B
:106530001BD0AB081B01C01880B2FE2801D9FF3860
:10654000FAE76368217B5A7801F0D2FA01AB187040
:1065500002040002120E000E98705A702800019971
:106560000135FFF763FDEDB2E0E7A37AC01880B212
:10657000FE2801D8208137BDFF38FBE7A4030020A7
:10658000FC080020000900204170704741707047EE
:1065900028213222034B19705A70034B19705A701C
:1065A0007047C0460E0900201009002010B50122D6
:1065B00004000021024803F0B3FC207010BDC04667
:1065C000B431002010B5044803F0FAFC0A38434205
:1065D0005841C0B210BDC046B431002037B54E4A54
:1065E0004E480C000025FFF7EFF8A84212D1062212
:1065F0004B49200007F0D1FDA8420BD10634494990
:10660000200007F0B1FDA8420FD1FFF7DBFFA84241
:1066100002D0012528003EBD6B46DC1D2000FFF79F
:10662000C5FF2078FCF796FCF3E73F49200007F010
:106630009BFD00280CD1FFF7C5FF0028E9D16B4670
:10664000DC1D2000FFF7B2FF2078FCF741FCE0E7FB
:106650003649200007F088FD002812D1FFF7B2FF6D
:106660000028D6D16B46DC1D2000FFF79FFF207865
:10667000FCF7D2FBFFF7C4F820212D4803F04CF9BA
:10668000C7E72C49200007F06FFD00280CD1FFF769
:1066900099FF0028BDD16B46DC1D2000FFF786FF67
:1066A0002078FCF7F9FBB4E72349200007F05CFDF4
:1066B000051EAED1FFF786FF041E12D02C0020006D
:1066C000FCF7AAFB1A4D01000A222800013403F04E
:1066D0007EF9E4B22021280003F01EF9202CEED12F
:1066E00097E7FCF7D9FB2000FCF7F2FBFFF76AFF06
:1066F000002800D08DE76B46DD1D2800FFF756FF10
:106700002B78002B02D02000FCF724FC0134E4B2EB
:10671000202CEBD17DE7C046240E0100C0080020EC
:106720006C0E0100750E0100730E01007E0E01005B
:10673000B4310020870E0100660E0100F7B5002479
:106740001C4B1B780193019BA34231D90C230025DC
:1067500063430093009B184AEB189B181879EFB21B
:10676000002823D00138FCF77FFF061E03D0013537
:10677000052DEFD12F00FCF78DFF874213D1002E9E
:1067800011D00E4E0E4D32682B88D31A0D4A9BB293
:1067900012889A4207D20C236343074A2000D35839
:1067A000984733682B800134E4B2CCE70126E2E756
:1067B0000020FEBD39F900003CF90000A4030020D0
:1067C000140900202600002010B501220400002139
:1067D000024803F0A5FB207010BDC046B431002074
:1067E00010B5054C01000A22200003F0F0F820212A
:1067F000200003F091F810BDB431002010B5054C15
:1068000001000A22200003F0F2F82021200003F00A
:1068100083F810BDB431002010B50A000100024811
:1068200001F0B2FC10BDC046A909002010B5024815
:1068300001F0C2FC10BDC046A909002010B50C0033
:106840000100034801F094FC2070200010BDC046F8
:10685000A909002070B5074E0D00040001003000AA
:1068600001F086FC611C2870300001F081FC68702A
:10687000280070BDA90900201A4B13B51A491A68DF
:106880001A4C0B8892B2D31A24889BB29C4220D215
:106890000A800121014006D00021154B1B785BB214
:1068A00000910A0012E00224044004D0104B1B782F
:1068B0005B425BB2F4E7042101400BD00C4B220099
:1068C0001B7821005B425BB200932300094802F071
:1068D0008DF813BD0307FCD5054B1B785BB2009305
:1068E0000B00DEE7A4030020200900202E0000207A
:1068F00030000020842A002010B5054C200002F052
:1069000097F8200002F07BF80020024B187010BDB1
:10691000842A00201A09002070B5224B1B78002B16
:1069200003D1214A1370002070BD204A204812680C
:106930000188204C92B2511A248889B28C42F2D23A
:106940001D4C028021881D48511A008889B2884256
:106950000AD21B48144D0678FF202978801B8142FB
:1069600001DA8919297022800021DA0703D5154A36
:106970001178494249B29A0703D5124A1278511840
:1069800049B200205A0703D50E4A1078404240B25F
:106990001B0703D50B4B1B78181840B201F0D4F934
:1069A000C1E7C0461A09002090090020A403002076
:1069B0001C0900202C0000201E09002028000020B7
:1069C0002A00002031000020F7B54A780020502A24
:1069D0003ED10A784026100020250324304015407F
:1069E0001C4000280ED0002D0ED1B24315009B078D
:1069F00025D4012C2BD11100414802F00AF801F0F6
:106A000025F924E0002D24D0022C20D10125431E9D
:106A1000984113002B40AB401440184323005C1EE8
:106A2000A3419B0003435007C00FC000034310075E
:106A3000C00F0001184301F019F9280008E0022CEA
:106A400001D101F009F929002D4801F0DEFF0120F4
:106A5000FEBD022C0BD12B4A2B48126892B2028049
:106A60002A4802802A480088121A2A4802800225F1
:106A70002B400AD00878C30602D5FFF7FDFEE6E7F3
:106A8000254B1A7810431870E1E7012CDFD103265B
:106A900021480D780278AA4302700A78164006D180
:106AA0000C25154009D12E00AC462C000BE010251A
:106AB00015401ED01D002600F6E7102515401BD0FE
:106AC0002500B446340001210D4804274156013CFD
:106AD0000222032321406446C7578256C356013D14
:106AE000013C013E2F4022403340009701F07EFFE1
:106AF000ADE72E00A446D8E72E00AC46E3E7C0463B
:106B0000842A0020A40300201C0900201E09002064
:106B10002E000020200900201A090020F0B54E4860
:106B200085B001F0A9FF00224C4B02AD988AD98AAA
:106B30001A761B692A701B686880A980AA712900CF
:106B40000832474898470A20FEF758FC454C6946EA
:106B50002080FFF773FE6B461A78434BFF2A51D013
:106B60001A70208801AE0130310080B2FFF772FE4A
:106B700032883E4E3E4BB24249D01A806B46208846
:106B80005F1C033080B23900FFF758FE3A78394B6A
:106B9000FF2A42D01A706B4620889F1D043080B2B5
:106BA0003900FFF757FE3A88334BB2423BD01A8088
:106BB0006B4620889F1C063080B23900FFF73EFEEE
:106BC0003A782E4BFF2A34D01A70208829000730DB
:106BD00080B2FFF73FFE2A88294BB2422FD01A809D
:106BE0006B462088DD1C093080B22900FFF726FEA5
:106BF0006B461A78234BFF2A27D02A781A70002078
:106C000005B0F0BD19782088FFF706FEA9E72088B7
:106C100019780130FFF700FEB0E7208819780330BB
:106C2000FFF7FAFDB7E7208819780430FFF7F4FD85
:106C3000BEE7208819780630FFF7EEFDC5E720880B
:106C400019780730FFF7E8FDCAE72088197809307E
:106C5000FFF7E2FDD3E7C046842A0020BC2A0020CB
:106C6000CC2A00201809002031000020FFFF00007E
:106C70002C0000202A0000202800002030000020E6
:106C80002E0000203800002010B5044803F098F9C9
:106C90000A3843425841C0B210BDC046B43100204A
:106CA00073B58D4A8D480C000025FEF78DFD06005A
:106CB000A84270D106228A49200007F06EFA3500FA
:106CC000002868D106348749200007F04DFA0028D3
:106CD00007D1FFF7D9FF844D00285ED02878FFF751
:106CE0008DFD8249200007F03FFA002807D1FFF709
:106CF000CBFF00285FD07E4B1888FFF771FD7D49E0
:106D0000200007F031FA002808D1FFF7BDFF7A4DC7
:106D1000002800D170E02878FFF770FD7749200047
:106D200007F022FA002808D1FFF7AEFF002800D1B3
:106D300071E0734B1888FFF753FD7249200007F08C
:106D400013FA002808D1FFF79FFF6F4D002800D1EC
:106D500082E02878FFF752FD6C49200007F004FA22
:106D6000002808D1FFF790FF002800D183E0684B8E
:106D70001888FFF735FD6749200007F0F5F9012570
:106D8000002808D1FFF780FF634C002800D193E072
:106D90002078FFF733FD280076BD6B46DE1D3000FE
:106DA000FFF712FD5D4B317818882970FFF734FD2D
:106DB000FFF73CFD95E76B469E1DDD1D307028708A
:106DC0003000FFF701FDFFF75FFF002801D1280029
:106DD000F7E73178514E2B783088454A1B020B4338
:106DE00001301380FFF718FD308829780230FFF753
:106DF00013FDFFF71BFD82E76B46DE1D3000FFF73A
:106E0000E3FC464B3178188829700330FFF704FD06
:106E1000FFF70CFD82E76B469E1DDD1D307028706C
:106E20003000FFF7D1FCFFF72FFF002801D1280029
:106E3000F7E73178394E2B783088314A1B020B4303
:106E400004301380FFF7E8FC308829780530FFF71D
:106E5000E3FCFFF7EBFC70E76B46DE1D3000FFF74D
:106E6000B3FC2E4B3178188829700630FFF7D4FC1C
:106E7000FFF7DCFC70E76B469E1DDD1D307028704F
:106E80003000FFF7A1FCFFF7FFFE002801D128002A
:106E9000F7E73178214E2B7830881D4A1B020B43CF
:106EA00007301380FFF7B8FC308829780830FFF7E7
:106EB000B3FCFFF7BBFC5EE76B46DE1D3000FFF75F
:106EC00083FC164B3178188821700930FFF7A4FC39
:106ED000FFF7ACFC5FE7C0468E0E0100C008002043
:106EE000000F0100070F0100310000200D0F01000D
:106EF0002C000020180F01002A000020230F0100A1
:106F0000280000202E0F010030000020390F010062
:106F10002E000020F50E0100380000201809002086
:106F2000054A064B10881B68054A1B1A10889BB23D
:106F3000984280414042704724090020A403002069
:106F4000360000200023054A5900885C8007C00FE6
:106F500002D10133102BF7D17047C0462809002019
:106F60000023054A5900885C0007C00F02D1013395
:106F7000102BF7D17047C04628090020FF22031CC0
:106F800012021040DBB21B18054A9BB29B18054A3F
:106F90005B00985C82B04007C00F02B07047C046EB
:106FA000FF3FFFFF2809002007B501AB07280BD8DA
:106FB0000022203818705A708022054B0A4301982D
:106FC000197800F0E7FF07BD223018704422F2E77D
:106FD000B40B010010B50221FFF7E6FF10BD000061
:106FE0000121044A10B54400A35C8B43A354FFF76E
:106FF000DBFF10BD2809002010B50024064B6200FD
:10700000D35CE0B2DB0701D5FFF7E4FF0134082CC5
:10701000F4D1002010BDC04628090020F8B5002397
:10702000204D5A00525DD20730D40133102BF8D1D5
:10703000002422001C4BE0B21B78002B11D066000C
:10704000AB5D190719D519490F78002F09D008220F
:107050009343AB55FFF7C4FF0222AB5D93433A0065
:10706000AB550134102CE5D1002A04D000230E4A80
:1070700013700E4A13700020F8BDDE07F60FF0D033
:107080009B07EED4FFF7ACFF3200EAE7FFF748FFBB
:107090000028CDD00122044B1A700022034B1A7035
:1070A000C6E7C0462809002026090020270900203D
:1070B000F8B500250A4E6F00BC5DE407E40F03D06D
:1070C000FFF72EFF002809D0F35D9C07E40F05D1E0
:1070D0001C07E40F02D10135102DECD12000F8BDC2
:1070E00028090020F0B587B00E00002069461C007A
:1070F0005BB2CA74834220DB7378029333780393C4
:10710000029B1F02039BFF18BFB27D1EEBB20193CF
:10711000FFF7CEFF5E4BFF18BFB2002829D10F2F1B
:107120000BD803222240012A09D1019B59495D0055
:107130006B5C023083436B54012007B0F0BD022A20
:10714000FAD16C46544BE47C1968544B1980019B6E
:10715000504958000B185C700124435C13432343CF
:10716000435431004E4806F086FA0198FFF732FF8B
:10717000E2E70F2F70D803206946019B454F5D0061
:107180000440E85D0307DA0F0A75002B11DA022CC0
:10719000D2D122003100424806F06DFA0822EB5DA0
:1071A00001989343EB55FFF71BFF00223D4B1A70EC
:1071B000C2E7012C13D10223384A9843364B128878
:1071C0001B68E8559B1A384A9BB212889A42B3D280
:1071D0000198FFF705FF6A46324B127DE7E7022C64
:1071E000AAD12F4A039913780443EC552B4C8B42B8
:1071F00023D1527802998A421FD170780002184335
:10720000FFF7BCFE002818D0284B00229A5E531CC2
:1072100020D1274B1A88204B21881B685B1A9BB210
:107220009A4200D288E708237A5D310013437B55E8
:1072300002221B4806F01FFA7EE7174B6A461B68BE
:10724000D27C238001247B195A707B5D0222234368
:107250007B5586E792B2DEE702220020144200D17D
:107260006BE731000E4806F006FA727833781102A7
:107270005B189BB2DF2B03D8442A04D100205CE7C3
:10728000E72BF9D8FAE70122064B1A70F6E7C04659
:10729000FF3F000028090020A4030020240900204B
:1072A0004809002026090020320000203400002078
:1072B000360000200122024B1A70024B18707047F2
:1072C000260900202709002010B5002304240449C2
:1072D0005800425C013322434254102BF8D110BDB8
:1072E0002809002010B50120FEF788F8064B0100A0
:1072F0001880064800F03CFF054B1870FF2801D1AC
:10730000FEF704FF002010BD4C090020A909002051
:107310004E09002010B5094B1A78094B1978914293
:1073200009D01A70074C084B2000198800F040FF64
:10733000200000F041FF002010BDC04622000020C8
:107340004E090020A90900204C09002010B5012297
:1073500004000021024802F0E3FD207010BDC04689
:10736000B4310020012273B501AC2180431CDB7FC6
:10737000C17913420BD16278237812029B189BB219
:10738000032B03D9272B13D8038A03850222050078
:107390008379C41D013BDBB283711035E3189C4235
:1073A0000BD0667826706E8801342E800235F6E7A1
:1073B0002C2BEBD9382BE9D8E6E7841DA37E2A30A5
:1073C0005B10A376012304000370019800F0E2FD36
:1073D0000023237073BD0000FF2212020A40C9B2CD
:1073E0008918164A89B282B0002391420FD9144AF3
:1073F00091420FD8134A8918020089B22B321170BA
:1074000009122D3020395370437001700133180078
:1074100002B070470C4A9142F9D80C4A8918020010
:107420002B325370030089B2117009122D332A31A7
:10743000197044232E300370433BE8E710C000006E
:1074400011C80000EF3F000012D00000EE3700002E
:10745000F7B5214B214FCEB204001B68B85D9847A9
:1074600001AB18806B46188000992000FFF7B4FF2D
:10747000051E1DD12A00B85D2179D3B299421DD9CC
:1074800027689300FB185F78B74215D10027DF57B4
:1074900087420FD1200002222B306946DD789E788A
:1074A00006F0E9F823002E342D331E7025700125D7
:1074B0002800FEBD0137EDD00132DEE720000222B8
:1074C0002B30694606F0D7F82200FF232D322E34E8
:1074D00013702370ECE7C04608000020CF030020A3
:1074E000531A642210B55A4304300C00C17F1000B7
:1074F00004F0FEF8044B196883B20020091B89B21E
:107500008B424041C0B210BDA4030020C9B2821812
:10751000904205D0013083798B42F9D10120704728
:107520000020FCE7031C0004020E3F21100082B083
:10753000DBB2884307D107222033DBB29A424041B5
:10754000C0B202B070470020442AFAD129309842D4
:1075500080414042F5E70000F0B583798DB004002A
:107560000126002B00D19BE08319DB7F334207D03B
:1075700000220BAB1A800B992000FFF7F3FE8FE07F
:10758000C37903936B46197BFFF762FF002800D194
:107590007CE0E31CDE7F002E78D028335D781A78FB
:1075A0002D0215432800FFF7BDFF434F238D3A6896
:1075B0000190D31A22000832D27F9BB29A421DD288
:1075C0000125A37904933B6800279BB206936319B6
:1075D0000893A31D0293EB1A0993049BE9B28B4213
:1075E00065D9089B0122DB7F2B4113420ED1019B01
:1075F000002B4BD1002F58D00135EEE7019B002B1B
:10760000DED129002000FFF7ADFED9E76319DA7952
:1076100005920598039A82421BD0E31D029A0793B4
:10762000099B9B18DBB29942E6D99378059883426F
:1076300039D1029B06985B89C31A07989BB2C07F19
:10764000984230D223002D3359781A780902114319
:1076500092E7002F03D0221DD27F002A0AD12100F9
:10766000019B2B31002B00D0023102220BA806F027
:1076700002F880E75B1902991A8A3B1D5B00CB1860
:1076800059882000FFF72CFF0028B5D123002B33A9
:1076900059781A78090211432000FFF763FE01268A
:1076A00030000DB0F0BD0132BAE70F00A4E7049B33
:1076B000082BEBD00026F3E7A4030020F7B50F005A
:1076C0006946CA71CA7904004F2A5FD859B20029A5
:1076D0005CDB01002A310978002957D1C11CCE7F1B
:1076E000002E0FD179783B7809021943FFF774FE19
:1076F00000284BD0210002222B31380005F0BBFFBF
:107700003000FEBD03261E40731E8579012B0ED965
:1077100003002D18AB4239D0191B013398799042E0
:10772000F8D10134E37F01260B419E43E8E7012EA7
:107730000CD1012D0AD1C379934207D078783B78D8
:1077400000021843FFF7EEFE00281FD06A46D279E8
:1077500063190F49DA712B1DA21D09685B00D3184C
:1077600059800123AB40917EDBB2012E0BD10B433C
:1077700093760135EDB2A5710126082DC0D1200008
:10778000FFF7EAFEBCE799439176F2E70026B7E7F8
:10779000A4030020F0B50400002685B0A379B3420D
:1077A0001FD9631CDB7F01223341134216D0A3197A
:1077B000DF793200391C2000FFF7A8FE051E0DD12D
:1077C000230001222A331A70019303AB188003228D
:1077D000391C039800F0DEFB019B1D700136F6B2E8
:1077E000DCE72200184D08322B68D17F228D9BB236
:1077F0009A1A92B28A4202D9013B5B1A2385200071
:10780000FFF7AAFE00281BD1228A2B689B1AA28CA4
:107810009BB29A4214D225002B3568782B7800024F
:107820001843FFF77FFE21002D31002800D02900EA
:10783000022203A805F01FFF03992000FFF792FD25
:10784000002005B0F0BDC046A4030020F0B5040040
:1078500085B00320FDF7D2FD6B460190184D9B8843
:10786000184E01002800338000F082FC019902AB21
:107870009871013128009F1D00F07AFC78703B88D8
:10788000114A93420DD8A38431882800023189B26D
:1078900000F06EFC043464280AD8E077002005B0BC
:1078A000F0BDA28C3188D2B2280000F06DFCEBE76D
:1078B0003188E27F0231280000F066FCEEE7C04626
:1078C000A90900208009002060EA000070B50025A9
:1078D000154C0822E61DA57130001449256025715C
:1078E00005F0C9FE0122E31CDA77231D4F32DA7757
:1078F000FA23A384C83BF3772300053A0833DA77E9
:1079000080235B002385230022002A331D70FF2380
:107910002B32137022002C32137022002E342D32A1
:107920001370237070BDC04650090020440F010041
:10793000F0B585B000903D4A3D480D000024FDF7AC
:1079400043FF0600A04237D107223A49280006F03B
:1079500024FC340000282FD1EB1D37491800019377
:1079600006F002FC071E0FD1344D280002F028FB60
:1079700002000A2823D1009B2800998C02F027F8E6
:107980002021280001F0C8FF2D49019806F0ECFBEA
:107990000124002810D1294D280002F011FB009E7F
:1079A000020004360A282FD1F17F280002F01FF8C8
:1079B0002021280001F0B0FF200005B0F0BD02AB8F
:1079C0009E1D3000DC1D37702770FFF7BFFC2800BC
:1079D00002F0F6FA0A2801D02000F6E72378327880
:1079E000184D0099184E1B0213438B8428003188D0
:1079F00000F0CAFB318828002278013100F0C4FB76
:107A0000280000F0D9FBBFE702ABDD1D2800FFF71F
:107A10009DFC0D4B2A7819880A4DF2772800023117
:107A200000F0B2FB280000F0C7FBC5E74C0F0100D7
:107A3000C0080020770F01007F0F0100B431002043
:107A4000660F0100A90900208009002010B5084C2C
:107A5000200000F028FE414241412000C9B22174BB
:107A600000F024FEFA20800001F0D6FB10BDC046D5
:107A7000EC290020012330B51D0002881A408B42FA
:107A800009D204885200641004802C402243013340
:107A900092B2DBB2F3E7028030BD0000F7B58B187D
:107AA0000F4F0193019B994219D0082501240B78AF
:107AB0009C46038866461AB234420ED15B00D20F50
:107AC0009BB2002A01D07B409BB26400013DE4B22E
:107AD000002DEFD103800131E4E7D243EEE7F7BD9B
