:10200000008000206D810000558100005581000096
:1020100000000000000000000000000000000000C0
:1020200000000000000000000000000055810000DA
:10203000000000000000000055810000C181000088
:102040005581000055810000558100005581000038
:102050005581000055810000558100005981000024
:1020600055810000A18000005581000055810000CD
:102070007980000055810000B1800000558100008A
:1020800055810000558100005581000055810000F8
:1020900000000000558100005581000055810000BE
:1020A00055810000558100005581000055810000D8
:1020B0000000000010B5064C2378002B07D1054B1B
:1020C000002B02D0044800E000BF0123237010BDA4
:1020D000A0010020000000008CE90000044B10B5B6
:1020E000002B03D00349044800E000BF10BDC046E8
:1020F00000000000A40100208CE9000010B5008859
:1021000002F074FB10BD000010B5012002F06EFB60
:10211000044B01001880044805F022F80022034B0C
:102120001A7010BDBE01002025070020C00100204C
:1021300010B50D4C2378002B0FD102F0BDFD9F236D
:102140009B01984203D19620800002F0F7FD002009
:1021500003F092F9237801332370044B2278198815
:10216000034805F01DF810BDC0010020BE0100208D
:102170002507002070B5154E154832000D000024CB
:1021800002F01AFDA04216D13100280008F0EAFC46
:10219000A04210D10F4D280006F0D4FE0E4E0200D2
:1021A0000A280AD13178280006F001FC20212800F5
:1021B00006F093FB0124200070BD012221002800BD
:1021C00006F070FE3070FFF7B3FFF3E7E0AB0000FE
:1021D00022060020302F0020C001002073B51D4CC6
:1021E00023784F2B1DD81C4D280005F054FA0028E9
:1021F00019D1280005F04CFA0223184005006B1E87
:102200009D41164EEDB2002811D13378002B07D036
:10221000134B21781868002802D00368DB689847C0
:102220003570002076BD05F075F9407FE4E70D4B71
:1022300000221878FF2104F099FC01AB1870020409
:102240000002120E000E98705A700199207803F067
:10225000AFF8E5E70000002068270020C201002059
:1022600060060020C3010020FF230A4930B50B702F
:1022700000230948DCB2502B08D05A0012185578B8
:102280001278392A04D1002D02D10C70002030BD03
:102290000133EFE700000020AF02002010B5FFF788
:1022A000E3FF10BD10B5FFF7DFFF10BD002802D01F
:1022B000024B416003600A707047C046D4BE000004
:1022C000002807D0044B4160036080235B028360D9
:1022D000FF2303737047C046BCC00000002807D02E
:1022E000044B4160036080235B028360FF23037320
:1022F0007047C046A4C0000010B5044804F09EFB1F
:10230000034B1A68034B1A6010BDC046FE0600203E
:1023100034020020CC01002070B504000D0016002E
:10232000002801D002F0BEFF2E70200070BD10B555
:102330000368C9B21B68984710BD704710B50524E3
:1023400008002200024908F02EFB200010BDC04604
:10235000C9AC000010B502F017F810BD10B50D485B
:1023600002F072FA0C4802F00BF90C48FFF796FFE6
:102370000B4803F01FF90B4803F032FF0A48FFF740
:10238000BDFE0A4802F0FAFC094803F02BFD0020CC
:1023900010BDC0461706002011060020C101002014
:1023A0005E060020A2060020C40100204306002093
:1023B0007206002010B5044802F0ECFA034802F05F
:1023C00085FC002010BDC0461706002043060020F3
:1023D00010B50448FFF766FF034801F059FD0020DF
:1023E00010BDC046C1010020A105002010B5024863
:1023F00003F00EFF002010BDA206002010B50B4810
:1024000003F052FB0A48FFF7E9FE0A4803F074F8AC
:10241000094802F011FC094803F0E2FB084803F008
:1024200069FD084804F028F9002010BD6F0600205F
:10243000C10100205E060020220600207206002056
:102440007A060020A806002010B5054804F0F8F927
:10245000044803F0B5FB044803F05EFD002010BD06
:10246000D8060020720600207A060020042070475B
:1024700010B50C000349C00009180822200008F01C
:1024800092FA10BDA8AC000070470000962170B50C
:102490000126204C8901204806F0C0FD206800F08C
:1024A000A7FB0A2002F08AF80A211C4801F0E0FC90
:1024B000FF211B4803F01EFAFF211A4803F01CFA03
:1024C000194D1A4C2B68334203D1200002F010FF43
:1024D0002E608021164BC90000201C6001F03EFFD9
:1024E0008020000101F058FDFFF70EFEFFF720FEEF
:1024F0001922104BB0201A700F4B183A1A800F4B4C
:102500004A321A700E4B4632FF321A8003F012FB29
:1025100070BDC0460CBA0000302F0020A10500207D
:102520006A0600206C060020C80100202C02002052
:102530005406002029000020240000202200002052
:10254000200000201B4B07B5186800F0D3FB1A4B86
:102550001A4A19681268521A19498A4201D9002286
:102560001A601B68002B23D0164805F094F8002849
:1025700000D078200022FF2104F0F8FA01AB187097
:1025800002040002120E000E98705A700199402049
:1025900002F00EFF0199302002F00AFF019942205B
:1025A00002F006FF0199062002F002FF02F02CFF64
:1025B00007BDC0460CBA0000CC0100203402002048
:1025C000102700006827002070B504000D001600D9
:1025D00013780A780100284800F0ECFA012801D1AC
:1025E000012070BD33782A782100244803F008F8D0
:1025F0000128F5D033782A782100214802F062FEC4
:102600000128EDD033782A7821001E4802F080FBA3
:102610000128E5D033782A7821001B4804F076F9A8
:102620000128DDD033782A782100184801F0CCFD4C
:102630000128D5D033782A782100154803F028FBEB
:102640000128CDD033782A782100124803F0C8FC45
:102650000128C5D033782A7821000F4802F07CFA8F
:102660000128BDD033782A7821000C4803F098FF68
:10267000013843425841B4E7310200205E06002091
:102680005006002043060020D8060020A6050020A2
:10269000720600207A06002020060020A8060020EE
:1026A00007B501AB197011006A46073211701900A5
:1026B000FFF78AFF0EBD00000822014B1A80704709
:1026C000C4010020F0B5394B85B00193002303907D
:1026D0000093374D0399280005F08BFB012128005A
:1026E00005F0D5FBFF21019B28001C882140FFF746
:1026F0001EFE21122800FFF71AFE280005F024FC18
:102700000700012005F070FD002F4CD1284C0399E3
:10271000200005F06EFB2000022105F0B8FB254CDF
:10272000FEB21037BE421ADA234B009A9B199B5C0B
:102730001F481900029305F0AAFB029B1F4A5C4048
:1027400008230120611020408CB2002801D05140A4
:102750008CB2013B002BF4D10136F6B2E2E7FF2147
:1027600028002140FFF7E3FD21122800FFF7DFFDDD
:1027700000212800FFF7DBFD280005F0E5FB03281A
:1027800011D1023805F030FD402FBFD1019B02333B
:102790000193009B40330093B823009A1B019A4297
:1027A00097D1012000E0002005B0F0BDB0B90000D5
:1027B0005C280020FFFF00002FAE000001A0FFFFFB
:1027C000F7B52B4C07000E00010020001500019307
:1027D00005F00FFB0621200005F059FBFF2120002A
:1027E0002940FFF7A4FD29122000FFF7A0FDFF23D9
:1027F000019920001940FFF79AFD019B2000191252
:10280000FFF795FD0021200005F066FB051E11D1A4
:10281000642005F0E9FC03223900200005F032FBBA
:10282000200005F096FB3070200005F075FA0028B6
:1028300002D1FF252800FEBD200005F08AFB07001D
:10284000200005F069FA0028F3D0200005F081FB94
:102850000190200005F060FA002803D0200005F068
:1028600078FBF6E7019BFFB21B021F437780E1E78D
:102870005C28002073B5114C0600010003222000E3
:1028800005F000FB200005F047FA002803D02000E7
:1028900005F05FFBF6E70A4D01AC2900094B30005B
:1028A0000422FFF78DFF29000422200008F07BF8A6
:1028B000638820881B04184376BDC0465C2800202E
:1028C000020000207C0B0000F0B55A4A85B00600DB
:1028D00059480C0002F070F900230500984222D1FB
:1028E00009225649200008F04EF92B0000281AD181
:1028F00009345349200008F035F9002816D0514911
:10290000200008F02FF9002849D04F49200008F096
:1029100029F9002845D020004C4908F023F951241A
:102920002B0000283ED0180005B0F0BD50242F0029
:10293000474800F0EBFE2000002F6DD1FFF79AFF13
:102940000390C0B2FF285ED002ABDA88414B9A42B6
:1029500059D0414F2100380005F04BFA04213800CE
:1029600005F095FA380005F0EFFA0190FA208000A2
:1029700005F03AFC019B002B45D031002000FFF709
:10298000A1FE00283FD0354B042203A92000FFF709
:1029900017FF002808D0642005F026FCF3E7512437
:1029A000C5E750240127C3E7012104228C46294BA7
:1029B00008262B49895C4B406046591018408BB261
:1029C000002802D0274B59408BB2013E002EF3D194
:1029D000B821013209018A42EAD102AAD2889A4278
:1029E00011D12100380005F004FA0321380005F068
:1029F0004EFA31003800FFF79AFC380005F0A4FACF
:102A000043425841C5B2280002F0F2F8202116488E
:102A100005F063FF012386E7FFF72CFF0390C0B2A8
:102A2000FF28F0D002ABD888104BC018431E984145
:102A3000E8E7C046F5AB0000220600205DAC0000D0
:102A400067AC000077AC000088AC00004BAC000025
:102A500023070020FFFF00005C2800207C0B000003
:102A60002FAE000001A0FFFF302F00200100FFFF6C
:102A700010B5016804002D4800F07CF8012801D150
:102A8000012010BD21682A4801F0F4FD0128F7D08B
:102A90002168284801F08AFF0128F1D021682648E2
:102AA00001F0FEFF0128EBD02168244802F0E2FD8E
:102AB0000128E5D02168224802F092FA0128DFD0EF
:102AC0002168204801F0F4F90128D9D021681E4876
:102AD00002F07CF90128D3D021681C4800F028FFBF
:102AE0000128CDD021681A4801F090FC0128C7D0F8
:102AF0002168184801F078FB0128C1D021681648E8
:102B0000FFF7E2FE0128BBD02168144802F068F804
:102B10000128B5D02168124802F016FF0128AFD075
:102B200021681048FFF726FBABE7C04630020020C3
:102B30001106002019060020180600205D0600205E
:102B40004D060020A105002043060020A00500201E
:102B5000EA050020A6050020C6010020220600206C
:102B60006E060020BC01002007B5019001A8FFF708
:102B70007FFF0EBD70B50B4E0B4832000D000024D8
:102B800002F01AF8A0420AD13100280007F0EAFF4B
:102B9000A04204D10549064805F097FE0134200003
:102BA00070BDC0460FAE00002206002017AE000028
:102BB000302F002010B5024802F0AAF810BDC04620
:102BC0004306002070B5084D0400280004F063FDA2
:102BD0002100002803D1280004F090FD70BD0348B7
:102BE00004F0B6FEFAE7C04668270020B4270020AC
:102BF000962110B58901064806F010FAFFF79DFBF3
:102C0000FFF7ACFB00F000FE024800F043F910BDF6
:102C1000302F00203802002070B5837945790400F8
:102C20001D402B0702D5E120FFF7CCFFEB0702D5B3
:102C3000E020FFF7C7FFAB0702D5E220FFF7C2FF96
:102C40006B0702D5E620FFF7BDFFEB0602D5E320B8
:102C5000FFF7B8FF164D280004F01DFDE179061EB0
:102C600010D100290AD0280004F065FD280004F0E6
:102C700019FDE179280004F041FDE671280004F017
:102C800011FD70BD0B4D00290BD0280004F07BFE18
:102C9000280004F00DFEE179280004F059FE00231D
:102CA000E371280004F004FE034804F0BFFDE8E7E8
:102CB00068270020B427002094270020002310B5A7
:102CC000094CC3718371200004F0E5FC002803D196
:102CD000200004F059FD10BD044804F070FE0448C3
:102CE00004F094FDF7E7C04668270020B4270020D1
:102CF0009427002010B505F071FA094B1860FFF712
:102D000059FB00F007FCFFF779FB064C2000FFF7AA
:102D100083FF2000FFF7D2FFFFF796FB10BDC046F0
:102D2000340200201407002050235843C9B2411830
:102D300006484900091808784A78AF33184013400C
:102D40001B0282B0184302B07047C046CFAC0000EF
:102D500070B5084AC3B25D00011CD05C064B074C3D
:102D60001B68984700B2285500046419000E607073
:102D700070BDC0465F02002008000020AF020020A6
:102D80000300034A1068D840012318407047C0462A
:102D90003C020020F0B5164F85B0502200213800CB
:102DA00007F01DFE0025EBB20193502D1ED000242C
:102DB000104B1C5763B2002B16DD0F4B013C1E5D00
:102DC0003000FFF7DDFF0028F4D06A460B4B117985
:102DD0001B683000984703AB1880C0B2FF2802D1AF
:102DE0005B78FF2BE6D07E550135DCE705B0F0BD02
:102DF0005F020020070000204002002008000020A1
:102E000010B5094B094A1B7898429B411840012391
:102E1000190081401160064A1370064B1870FFF7C5
:102E2000B9FFFFF7D5FA10BD060000203C020020D4
:102E30000700002040020020134970B50B680122F2
:102E40001C00C44014421DD08240104D93432C7886
:102E50000B6023000E4E3219002B07D00021515673
:102E6000013A884202D0013BDBB2F5E7591CE21A75
:102E70007118F018013C07F09FFD2C70FFF78AFFD6
:102E8000FFF7A6FA70BDC0463C02002007000020F4
:102E9000400200200123084A10B5116800240B43AA
:102EA0001360FFF777FF201C0134E4B2FFF750FFF7
:102EB000502CF8D110BDC0463C02002010B50D4B7F
:102EC00004001B78834213D9FFF75AFF00280FD163
:102ED0000123A340084A11680B431360074A137883
:102EE000591C1170064AD454FFF754FFFFF770FACB
:102EF00010BDC046060000203C0200200700002054
:102F00004002002010B5054B1A78054B9B18013B79
:102F100018780130C0B2FFF7D1FF10BD07000020C4
:102F20004002002010B5044B1A78044B9B18013B5B
:102F30001878FFF781FF10BD070000204002002035
:102F400013B5C4B201AB1880532C09D9032319401F
:102F5000022904D120005438C0B2FFF751FF13BD3D
:102F6000292C2BD92A3CE4B2212C0DD0222C12D1B1
:102F700003231940022902D1FFF7C4FFEFE701291B
:102F8000EDD1FFF7CFFFEAE7032319400229F8D07C
:102F90000129E4D1F0E78B0708D52000FFF7F0FE08
:102FA0000028DCD12000FFF789FFD8E70323194070
:102FB0000129D4D12000FFF73FFFD0E703231940B8
:102FC0000229CCD12000FFF7DBFE0028EAD0002C3C
:102FD000E8D0EFE730B585B001AD030428801B0EC3
:102FE00003AC442B07D083B22380637820781B0284
:102FF000184305B030BD11000198FFF7A1FF002371
:10300000F2E7000070B5074E0D000400010030002B
:1030100004F0A6F8611C2870300004F0A1F8687074
:10302000280070BD2507002010B504000100012014
:1030300005F096FB014B1C7010BDC0464F030020ED
:10304000C3430A49DBB2D93110B50B700849094CAA
:10305000D9310B70084B02001870084B20001988FA
:1030600004F09EF8200004F09FF810BD58030020E3
:1030700050040020250700200E00002052030020ED
:1030800073B5204D204C2978200000F065FD29788B
:103090001E4D280000F060FD1D4B22001B78D93228
:1030A000DB43DBB213702A00D9321370200000F02A
:1030B000B3FD06002800F6B200F0AEFD154B012E60
:1030C00003D0C0B20022012800D101221A702200D0
:1030D00000233932137022003A3213700E4A3B3407
:1030E000127823709A420CD001AA13809370019831
:1030F00002F0A2F9094B1868002802D003685B6847
:10310000984773BD0C000020580300205004002095
:103110000E000020540300201B0000206006002049
:1031200010B5FFF78DFF00230122044804491A540B
:103130005A540133092BFAD110BDC046480500206E
:1031400051050020014B18787047C0460E00002042
:1031500070B580240D4E0E4D33786400E95C032079
:10316000611A0902013905F0C5F973780520E95C97
:10317000611A0902013905F0BDF9B3780420E95C50
:10318000611A0902013905F0B5F970BD5B0500202F
:103190006ABB000070B50024104DE6B2635D002BE1
:1031A00005D031000E4800F073FD002363550D4D2E
:1031B000635D002B05D031000B4800F069FD002352
:1031C00063550134092CE7D1084C2378002B03D038
:1031D000FFF7BEFF0023237070BDC04648050020E6
:1031E0005803002051050020500400205A050020FB
:1031F000F7B501AB0191832818D81C7859789A78D3
:10320000832814D12C4801230578A54207D145789D
:103210008D4204D183789B1A5D1EAB41DBB2274DF2
:1032200004702E78417033432B708270F7BD244BAD
:103230001D7885235D43234B5B191B5C472B1BD8F3
:1032400003255D432048214E2D182878DB0884464D
:103250006F78A8782C706970AA70F55C00950125CC
:10326000644505D1B94203D1121A501E8241D5B22C
:10327000009A1543F554D9E78F2BD7D80320483B44
:103280005843134DDB10401905784778AC46114D73
:103290008678047041708270E85C0090012064457B
:1032A00005D1B94203D1921B561EB241D0B2009A49
:1032B0001043E854BAE7C0465B0500205A050020D9
:1032C0005403002010BA00005803002048050020D5
:1032D000500400205105002013B501AC83280AD901
:1032E00000232380A37062782078A37812021B0445
:1032F0001043184316BD0C4B1A7885235A430B4BC9
:103300009B18195C472907D803225143084B5918C9
:10331000200007F048FBE6E78F29E1D8032248396F
:103320005143044BF3E7C0465403002010BA000099
:103330005803002050040020012110B5080005F0BA
:10334000C3F90020FFF770FE102005F09BF8FFF78F
:10335000FFFE0A2004F048FF0120FFF765FEFA2077
:10336000400004F041FF10BDF7B5394F0822390085
:10337000384807F018FB384C08222100374807F07E
:1033800012FB374E300000F04CFC002812D0310008
:10339000684600F075FC08226946380007F003FB18
:1033A000304B1B78012B05D1FA7802331A4201D039
:1033B0005340FB702C4D280000F033FC002816D041
:1033C0002900684600F05CFC08226946200007F0EE
:1033D000EAFA244B1B78012B09D16278A1781000FE
:1033E0004840184203D05A404B406270A3703300EB
:1033F000D8331B78002B03D01C4B1B78002B08D034
:103400002B00D8331B78002B05D0194B1B78002BD1
:1034100001D1FFF735FED8363278002A07D1134B99
:103420001B78002B03D00020002138607960D8354C
:103430002B78002B07D10E490978002903D00020F2
:1034400000212060616009490A70094A1370F7BDC4
:1034500068050020900500208005002098050020C8
:103460005803002054030020500400207805002059
:1034700088050020F0B5002685B000257300DBB27A
:103480000193204B77193A001868596807F010FA31
:10349000022344001C401C4B3A001868596807F08E
:1034A00007FA01220240224307D0002302A90B8021
:1034B000019B0298591903F065FD144B3A001868F6
:1034C000596807F0F5F9022344001C40104B3A00FC
:1034D0001868596807F0ECF901220240224308D02D
:1034E000002103AB1980019903980F31491B03F0A8
:1034F00049FD0135082DC4D10836282EBDD105B0AF
:10350000F0BDC04668050020900500208005002021
:103510009805002010B5FFF727FFFFF7ABFF10BDA0
:10352000C0B210B54F280CD80F2201230240000969
:10353000072A07D91021054C8A1A9340225C9A4326
:10354000225410BD024C0821F6E7C0467005002049
:1035500060050020C3B200204F2B0BD819000F22AA
:103560001B091140072906D90548C05C521A1041B1
:10357000012318407047034AD05C0722F6E7C04693
:103580007005002060050020C0B202000F23000972
:103590001A40072A06D905499B1A085C18410123DD
:1035A00018407047024B185C1041F8E78005002076
:1035B0006805002010B5074B1868596807F084F9B2
:1035C000054B04001868596807F07EF92018C0B24E
:1035D00010BDC046680500208005002070B500249D
:1035E000064B0121E55C0134280005F06DF800214F
:1035F000280005F0B5F8262CF2D170BD6ABC000099
:10360000014B18787047C0464F030020481E814187
:1036100010B5C8B2FFF708FD10BD000010B5024894
:1036200000F0EBFAC0B210BD5803002010B50248FC
:1036300000F0E3FAC0B210BD50040020014BE433A7
:103640001878704758030020014BE433187870470E
:103650005004002010B5024800F0D4FAC0B210BDEA
:103660005803002010B5024800F0CCFAC0B210BDDB
:103670005004002010B5024800F0C9FAC0B210BDD5
:103680005803002010B5024800F0C1FAC0B210BDC6
:103690005004002010B50C00034800F067FA210028
:1036A000024800F063FA10BD5004002058030020C7
:1036B000024B1878013843425841704754030020A8
:1036C00010B5024800F05DFAC0B210BD50040020F1
:1036D000014B18887047C0460C00002000220023D0
:1036E00010B50749074C0A604B60074920000A6083
:1036F0004B60FFF7E3FA2000FFF78EFA10BDC046DB
:1037000068050020140700208005002010B5134C28
:10371000200004F069FB0020FFF786FC0121152042
:1037200004F0D2FF0121142004F0CEFF0021152067
:1037300005F016F80021142005F012F8FFF7CEFF6F
:103740000120FFF771FC200004F020FB0449200059
:1037500004F03CFB642004F047FD10BD5C28002011
:10376000A086010070B5150006000C00127803F069
:1037700017FD30006A78611C03F012FD280070BD4F
:10378000F7B5022001F032F8194E3080012001F027
:103790002DF86B46174D9C1D288021003088FFF7BF
:1037A00031FC2288144B154F154C9A4207D13188B1
:1037B0003A002000FFF7D6FF200003F0F5FC308828
:1037C0003900FFF71FFC2988200003F0C9FC0D4ECB
:1037D000FF2807D120003278298803F0E1FC20007F
:1037E00003F0E2FC2988200003F0BAFC3070F7BD3A
:1037F0005003002052030020FFFF00000C000020B7
:10380000250700200E00002010B5FFF7B9FFFFF7D5
:10381000E5FEFFF791FD054C200004F0B7FA0449DE
:10382000200004F0D3FAFFF72BFC10BD5C28002029
:10383000A086010070B50400C5B22900094800F057
:103840008BF92900084800F087F9084A084B1480D2
:10385000084C19882000FFF785FF200003F0A4FC26
:1038600070BDC04658030020500400200C0000200A
:10387000500300202507002010B50800FFF7DAFFED
:1038800010BD0000144A00231100D8310B70110044
:10389000D9310B701100DC310B6011005820E03180
:1038A00008601100F03213700C4AE4310B70110003
:1038B000D8310B701100D9310B7011005738DC3141
:1038C000086011005830E03108601100F032E43136
:1038D0000B7013707047C04658030020500400203E
:1038E00010B5012204000021024805F0DBFA207027
:1038F00010BDC046302F002010B5054C010020003F
:1039000004F0E7FF2021200004F0E7FF10BDC046CF
:10391000302F002010B5054C01000A22200005F0D0
:1039200046F82021200004F0D8FF10BD302F0020E1
:1039300073B5734A73480D00002401F03DF9A042AD
:1039400011D109227049280007F01DF9A0420AD1BF
:1039500009356E49280007F005F9A04205D16C48E9
:10396000FFF7CAFF0124200076BD6A49280007F04E
:10397000F9F8002801D16848F2E76849280007F003
:10398000F1F8002815D1664805F0DCFA654C0A28E4
:1039900005D12000FFF734FEFFF7BCFFE2E76B46DE
:1039A000DD1D2800FFF79CFF29782000FFF72EFE81
:1039B000D8E75D49280007F0D5F800280FD15B480B
:1039C000FFF79AFF574C2000FFF728FEFFF7A2FFF2
:1039D0005748FFF791FF2000FFF728FEDCE7554925
:1039E000280007F0BFF800280FD15048FFF784FFE8
:1039F0004C4C2000FFF722FEFFF78CFF4C48FFF7EE
:103A00007BFF2000FFF720FEC6E74B49280007F0A8
:103A1000A9F800280FD14548FFF76EFF414C200060
:103A2000FFF718FEFFF776FF4148FFF765FF20001C
:103A3000FFF718FEB0E74149280007F093F8002887
:103A40001ED1374805F07EFA364C0A280ED1374889
:103A5000FFF752FF2000FFF70DFEFFF75BFF344832
:103A6000FFF74AFF2000FFF70DFE95E76B46DD1DCF
:103A70002800FFF735FF29782000FFF70BFE71E7DC
:103A80002F49280007F06EF8002808D12D48FFF7CD
:103A90000FFE2D4B012800D02C4B180060E72C495D
:103AA000280007F05FF8002803D12648FFF708FE3A
:103AB00072E72849280007F055F80024A04200D0FA
:103AC00051E7174C200005F03DFA1E4D06000A286C
:103AD0000CD12800FFF7FCFD32000100200004F0AB
:103AE00056FF2021200004F0F8FE3BE76B46DC1D6A
:103AF0002000FFF7F5FE21782800FFF7BDFE31E733
:103B000099BC0000220600205DAC00000FAE000052
:103B10004EBD000045BD00005ABD000064BD000060
:103B2000302F0020230700206FBD000078BD00006B
:103B30007EBD000086BD000091BD00009ABD000062
:103B4000A7BD00002407002090BC000095BC000029
:103B5000AEBD0000B4BD000007B5022201AB597034
:103B6000E03019001A7000F0C7F80EBD07B50D223D
:103B700001AB1A705970E0300B3A190000F0BCF834
:103B80000EBD37B50B236A46E0301370694601223B
:103B9000040000F0B1F8002802D0012040423EBDF0
:103BA000A0239B00013BFDD101AD02222900200092
:103BB00000F0E4F80228F0D168782B780002C018F1
:103BC000EDE737B56B46E030197001226946040015
:103BD00000F092F8002802D0012040423EBDA02310
:103BE0009B00013BFDD101AD01222900200000F026
:103BF000C5F80028F0D02878F0E710B50121FFF7CC
:103C0000E0FF10BD10B50821FFF7DBFF10BD10B5B8
:103C10000D21FFF7D6FF10BD10B50C21FFF7D1FF26
:103C200010BD13B5040006220021684606F0D7FE39
:103C300020000622E030694600F0A0F8831F5A42B7
:103C400053412200D83213700023062816D16A4649
:103C50001278012A12D1694623004978E833197095
:103C600069468978EC3459706946C9789970694613
:103C70000979D9706B465B7923701300180016BD63
:103C800010B50400E831082206F08DFE200010BDBA
:103C90000B00F0B58BB0803B03AF3B700300D93312
:103CA0001B7805000093182301244B430193019BCB
:103CB0000099E318013BEB5C0022994201D25B1AA8
:103CC000DAB20C4B03219E5C20003E5506F0EAFD63
:103CD000012903D1192E01D91A3E3E550134192C60
:103CE000E5D1280022003900E03000F005F80BB0E3
:103CF000F0BDC046BCBD0000F7B51E4C0E0001680B
:103D00002000C9B2170004F074F800211A4B0A0011
:103D1000FF2518122A40974210D9725C01315A408F
:103D200052B2D3B21B015A40D2B213119C4665461F
:103D3000D30012026B4010434340E8E701AD287006
:103D40003A00310020006B7003F0C6FF002801D15B
:103D50000120FEBD02222900200003F0BDFF002843
:103D6000F6D00121200004F0B7F8431E9841C0B2FC
:103D7000EFE7C0465C280020FFFF0000F7B50368AE
:103D8000204D070001911400D9B20232012328000E
:103D900004F047F8002834D00026FF2328003340E1
:103DA000A34205D204F0D5F8019B98550136F4E7FB
:103DB00004F0CFF80600280004F0CBF836023018E3
:103DC00083B29C460021FF260F4A0B0033409C42E1
:103DD00010D9019B5B5C013153405BB2D8B200014A
:103DE0004340DBB21D11D80012121B0268401A4377
:103DF0004240EAE7E0B2624503D000203B7901335C
:103E00003B71FEBD5C280020FFFF0000704770473B
:103E100010B5084B1A78084B9B18013B1978074BD3
:103E20001970074B1B788B4203D3064B188801F09F
:103E300093F810BD0700002040020020A2050020DA
:103E4000A3050020A405002010B50A1C054B064957
:103E50001B780978994204D304490888190001F0B5
:103E600095F810BDA2050020A3050020A4050020A0
:103E700010B5054C2388002B05D1044B08001970A0
:103E800001F004F8208010BDA4050020A305002047
:103E900010B5054B02781B789A4203D1034B186882
:103EA000FFF7B6FF002010BD1A00002060060020BA
:103EB00007B5054A054B12781B8805480092054A4C
:103EC00001F002F90EBDC046A3050020A4050020A4
:103ED0004D060020BCBE0000FF22014B1A70704747
:103EE000A105002010B50100014803F039F910BD0B
:103EF00025070020F7B50024244F254B3E881C8061
:103F00000194244A3B8812889B189E423DDA751C16
:103F10003000ADB2FFF7E6FF0D280BD806F048FBE6
:103F20002807070C0C0C0707070909090E1E0236A3
:103F3000B5B200242E00E4E70336F9E72800FFF7C6
:103F4000D1FF6C1CA4B206002000FFF7CBFF064394
:103F50000235F4B2ADB2002CF0D1EBE72800FFF748
:103F6000C1FF0135ADB204002800002CF7D1E1E714
:103F7000019B07490133DBB25A0001933B88EB1ADE
:103F80008B52002C01D10134D4E7F7BDA8050020E5
:103F9000AC050020AA05002010B5040000F026FCA6
:103FA000034B1880034B1C80FFF7A4FF10BDC046D5
:103FB000A8050020AA0500207FB501AC20800E00D6
:103FC00015008B0710D582B202AB1A80104B8222EB
:103FD0001978029802F0D6FF002D05D10D48FEF7A2
:103FE0001BFE0D4803F01CFDF30710D5228803AB20
:103FF0001A80074B81221978039802F0C3FF002D25
:1040000005D10448FEF708FE034803F009FD7FBD13
:10401000E4BE0000140700200028002073B50E0045
:104020001D001400FFF75EFF01AB5E7018702A00E0
:1040300021000198FFF7C0FF73BD0000F0B5002616
:104040005D4B4900CC5A5D4B85B018880196241809
:10405000A4B2651C2000ADB2FFF744FF0D2800D9C3
:10406000A6E006F0A5FA9A142333404B566065A7E4
:10407000070D6B850026019804F0B6F82C00E8E7E0
:104080004F48FEF7C9FD4F4803F0CAFCF3E728008C
:10409000FFF728FFE51C02340700A0B2FFF722FF5C
:1040A0003F02384383B2ADB20193E4E72800FFF743
:1040B00019FFE51C02340700A0B2FFF713FF3F020F
:1040C000384380B2ADB204F08FF8D4E72800FFF790
:1040D00009FF33000222E51C02340100ADB2A0B298
:1040E000FFF79CFFC7E72800FFF7FCFEE51C023442
:1040F0000100ADB2A0B233000122F1E72800FFF7C2
:10410000F1FEE51C02340100ADB2A0B2002303228F
:10411000E6E7330002220234A4B200212800FFF7B0
:104120007DFF2500A7E70234A4B233000122F4E7A3
:1041300000230234A4B203221900EFE72800FFF79E
:10414000D1FE6C1CA4B207002000FFF7CBFE0400D8
:1041500003AB18705F70002203210398FFF72CFF58
:1041600002350198ADB204F03FF83C43E6D182E756
:104170002800FFF7B7FE002203AB18705A70032126
:10418000013504000398FFF717FFADB2019804F062
:104190002BF82800002CECD16DE701F007FF002878
:1041A00006D001F04DFE002802D1013002F000F8E7
:1041B00005B0F0BD01265EE7AC050020A805002093
:1041C000140700200028002010B54A780024602A37
:1041D00007D15D3A13400134022B02D10978FFF771
:1041E0002DFF200010BD0000F7B5304A0190304887
:1041F0000D00002400F0E0FC0600A04254D107228C
:104200002C49280006F0BFFC340000284CD10735AB
:104210002949280006F0A6FC041E36D1274E30009E
:1042200004F090FE0A2814D1254B1B88A3422CD9F8
:10423000244B18880019FFF755FE0A2201003000B0
:1042400004F0B5FB01342021300004F046FBA4B299
:10425000EAE7300004F076FE1B4F0A2810D0012256
:104260000021300004F01EFE631C9BB20093154B2E
:10427000C2B219883800091902F07EFF009CE8E7F5
:10428000380002F091FFFFF735FE1049280006F0D4
:1042900069FC0124011E07D12200084804F002FE37
:1042A000C1B20198FFF7CAFE2000FEBDE5BE0000C6
:1042B00022060020FFBE000010BF0000302F0020AB
:1042C000AA050020A805002025070020F7BE000051
:1042D00070B5074E0D0004000100300002F040FFF1
:1042E000611C2870300002F03BFF6870280070BD30
:1042F00025070020F8B500242600134B134F1C702F
:10430000134B3D881C80134A3B8812889B189D42A2
:1043100010DA2900104802F023FF0235ADB2002860
:1043200009D101363B88F6B209497200EB1A8B526B
:10433000002C02D0F8BD0024E5E7034B024A1B78AD
:10434000012401331370DEE7EB050020EC050020AB
:10435000F0050020EE0500202507002070B50500BF
:1043600008000C0000F042FA044B1880044B1C803B
:10437000044B1D70FFF7BEFF70BDC046EC0500206A
:10438000EE05002010060020F7B51C001A4B0D1C8E
:1043900019781A4F431A06005800C05B013A0133DE
:1043A0005B0052001218D85B92B20023904219D9D8
:1043B0001348007841188E4214DC124B01A918886A
:1043C000101880B2FFF784FF601E0123032809D86C
:1043D00006F0EEF80A02020C8222291C019802F073
:1043E000D1FD01231800FEBD8322F6E70648FEF743
:1043F00013FC8122F1E7C04610060020F0050020E2
:10440000EB050020EC05002014070020F0B5324A2F
:1044100085B032480C0000F0CFFB00230500984225
:104420000FD109222E49200006F0ADFB2B000028F9
:1044300007D120002B49093006F094FB041E03D05D
:104440000123180005B0F0BD274E300004F07AFDBE
:104450000A281BD1254B1B88A342F1D9244B03AD5D
:1044600018882900201880B2FFF732FF6B7829786E
:104470001B02C91889B20A22300004F088FA0234FB
:104480002021300004F029FAA4B2E3E7300004F060
:1044900059FD184F0A2819D001220021300004F0DC
:1044A00001FD0500124BC2B21988380061188BB2A9
:1044B0001900019302F074FE019B2D12EAB2591CFF
:1044C0003800023402F06CFEA4B2DFE7380002F0DC
:1044D0006BFEFFF70FFFB3E707BF000022060020C7
:1044E00014BF000010BF0000302F0020EE05002098
:1044F000EC05002025070020F0B5134B85B01B7894
:1045000003AD834207D800232B806B7828781B02E9
:10451000184305B0F0BD502444430C4FC9B2641891
:10452000640039880A4EA4B209190131300002F042
:1045300017FE398801900919300002F011FE6B4610
:104540001B7968702B70E0E712060020140600202B
:104550002507002013B5094B01AC1B78834207D90E
:10456000FEF7E2FB2080637820781B02184316BD1B
:10457000C01AC0B2FFF7C0FFF4E7C046160600201D
:1045800010B5044800F060F9034B00201A78034B83
:104590001A7010BD17060020060000201606002025
:1045A000044B10B51870A023584300F01FF9024BBC
:1045B000188010BD1206002014060020094B0A497D
:1045C0001B7810B5DB090870084A04D0084B13604B
:1045D000FFF7E6FF10BD074B1B78C3180B70064BA7
:1045E000F5E7C0461C060020060000200800002059
:1045F000F94400001606002055450000F7B50A4EA4
:1046000001AF3980094C0A0431884500491920005E
:10461000120E02F0B1FD31883A78491901312000BB
:1046200002F0AAFDF7BDC0461406002025070020B1
:10463000F0B50F00002585B00190EBB20093019B0F
:10464000AB4213D00024211C0098B847084E81B219
:104650000A223000013404F09AF9E4B2202130003B
:1046600004F03BF9502CEED10135E6E705B0F0BD82
:10467000302F002073B5404A40480D00002400F060
:104680009BFAA04220D107223D49280006F07BFA80
:10469000A04219D107353B49280006F063FA06000D
:1046A000A0422ED1384C200004F04CFC02000A2815
:1046B0000CD1364B20001978C90904F078F9202173
:1046C000200004F00AF90124200076BD0122310007
:1046D000200004F0E7FB01ABC4B21870200000F02A
:1046E00015F92B4B2B491B782B4A0B70002C02D051
:1046F0002A4B1360E7E72A4800781B180B70294BF8
:10470000F7E72949280006F02DFA002805D1244BA7
:1047100026491878FFF78CFFD5E72549280006F0D1
:1047200021FA0028D0D1184D5026280004F00AFCA8
:104730000A2803D1164B19491878EBE7280004F032
:1047400001FC0A2814D0124B1B7873439C420FDAE9
:1047500001220021280004F0A5FB01AB0212187011
:104760005A70200001990134FFF748FFA4B2E5E731
:10477000104802F019FDA6E71EBF00002206002027
:104780004DBF000042BF0000302F00201C0600205B
:10479000120600200600002008000020F944000056
:1047A000160600205545000055BF0000292D0000C9
:1047B0005DBF00002507002010B5054C01000A224E
:1047C000200004F0F4F82021200004F086F810BD49
:1047D000302F00200020034B1B78834201D0024B76
:1047E000588870471A0600201C06002013B56B4637
:1047F0000024991D074B08801B78A34208D1064A64
:1048000083B214880548E3181380022202F03EF9AF
:10481000200016BD1A06002010000020000700200E
:10482000F7B507000D0016000C000B1D0193731B5C
:104830001A5D2100380002F0B3FC019B01349C4258
:10484000F5D13000FEBD000070B50025114C2900E7
:10485000200002F085FC104A6E1C50553500042ED5
:10486000F4D15378FF2B12D11178803B0B40D8B292
:104870007F2803D1C90901D083431370012300218C
:1048800020005370FFF7CCFF200002F08DFC0020C9
:1048900070BDC046250700201C06002010B5064C40
:1048A000064A00212000FFF7BBFF200002F07CFC3D
:1048B0000122034B1A7010BD250700201C060020A2
:1048C0001B06002070B50F4B05001B780E4C834271
:1048D00008D9FEF795FA7F222900237811409343E7
:1048E0000B4323707D2D06D97F22237893431A0032
:1048F0007E2313432370FFF7D1FF20784006400E3C
:1049000070BDC046060000201C0600207F23094A17
:10491000C101107810B5184008431070C0B20340B0
:104920007F2B03D19843013B18431070FFF7B6FF6C
:1049300010BDC0461C060020012270B5104D114B61
:10494000102128001A7002F08DF80F4C6378012BAB
:1049500003D000220D4B1A7070BD62880C492B8861
:104960008A420AD16380FFF799FF20784006400E03
:104970007D28F1D8FEF744FAEEE79A42ECD1F4E74D
:10498000000700201A0600201C0600201B0600203D
:10499000FFFF0000044B10B51B78002B01D1FFF77F
:1049A000CBFF002010BDC0461A06002070B5304A6B
:1049B00030480C00002500F0FFF8A8423FD1092242
:1049C0002D49200006F0DFF8A84238D109342B49E0
:1049D000200006F0C7F8A8420AD1294C200004F0B4
:1049E000B1FA0A283BD1274B18784006400E2AE03E
:1049F0002549200006F0B6F8002827D023492000DA
:104A000006F0B0F800281CD02149200006F0AAF8D2
:104A1000002814D11F4B1E88FFF7DCFE0500184C40
:104A20000A223100200003F0B2FF1B49200003F0EE
:104A30004CFF0A222900200003F0A9FF01252800CD
:104A400070BD104B5878FFF7B7FEF7E7134B187897
:104A500000F0CEF820210A4803F03FFFEEE70122E4
:104A60002900200004F01EFAC0B2FFF72BFFE5E793
:104A700090BF000022060020D4BF0000DEBF00006F
:104A8000302F00201C060020EBBF00000FAE0000FE
:104A9000D0BF000000070020F2BF00001B0600206E
:104AA00070B5264A26480E00002500F085F8A84279
:104AB00036D12449300006F055F80400A8421AD136
:104AC000214D280004F03EFA0A282BD08026B6019A
:104AD000280004F037FA0A2821D0012200212800FA
:104AE00004F0E0F92100C2B20134184802F044FB9E
:104AF000B442EDD113E01649300006F033F8002837
:104B00000ED18021134B104C1B888901C91A0A222F
:104B1000200003F03CFF2021200003F0DEFE0125F1
:104B2000280070BD8025AD012100084802F018FB67
:104B30000134FFF741FEAC42F6D1F0E764BF00005C
:104B40002206002080BF0000302F00202507002013
:104B500074BF00001000002070B51C000B780D0021
:104B6000292B05D14B78002B02D163B2002B01DA3F
:104B7000002070BD01F01AFA002815D101F06EF97D
:104B80000028F6D00B4B1A78002A02D000222A7097
:104B90006A7003221440013C621E944101201C7083
:104BA00001F006FB0120E4E701F04AF90028E5D115
:104BB000E8E7C0462106002010B5080006491400A9
:104BC00005F0D0FF0023984204D12100034803F0F0
:104BD00091FE0123180010BDF4BF0000302F00200B
:104BE00010B5024AFFF7E8FF002010BDF4BF000037
:104BF00010B50449002800D10349044803F065FEBC
:104C000010BDC046FDBF000002C00000302F0020D4
:104C100010B5084C200004F07BF9002808D02000D3
:104C200004F090F90A2803D0200004F099F9F6E77F
:104C300010BDC046302F0020F7B51C4C01262000C7
:104C400004F066F900282CD0200004F089F9184DF2
:104C5000731EEB1818702000F7B2019304F072F97C
:104C60000A2807D0019B1B78202B03D00136212E68
:104C7000EAD120277A1EA95C0023202913D1AB5446
:104C80002800FDF771FF0B49200003F033FEFFF70A
:104C9000BFFF200004F056F90A2802D1200004F0DA
:104CA0005FF90020FEBDEB55EAE7C046302F00203B
:104CB00023060020F9BF0000FA2110B5024B89003D
:104CC000186805F07FFC10BD140000200B4B10B5D8
:104CD0001A68002A0FD00A4B1B78002B0BD0094B07
:104CE00009491B6809685B1A9A4204D200F078FCF3
:104CF0000122064B1A70002010BDC046140000208F
:104D00001B00002034020020480600204C06002032
:104D100010B5074C2378002B03D000F03FFC002394
:104D20002370044B00201A68034B1A6010BDC04664
:104D30004C0600203402002048060020FA2370B5FB
:104D400004009B0043430A4A0A4E13600A4BC2B256
:104D50001D883000290002F023FA2204691C30006B
:104D6000120E02F01DFA300002F01EFA70BDC046AD
:104D700014000020250700204406002073B50220FF
:104D8000FFF734FD0D4B0E4E18800100050030007A
:104D900002F0E6F96B469C1D2070691C300002F0A1
:104DA000DFF960702288074B9A4202D1064B1B68DC
:104DB00023802088FFF7C2FF002076BD4406002034
:104DC00025070020FFFF00001400002070B5184EDA
:104DD000184832000D000024FFF7EEFEA0421CD15F
:104DE0003100280005F0BEFEA04216D1124D280069
:104DF00004F0A8F806000A2811D1FA210F4B890007
:104E0000186805F0DFFB32000100280003F0C3FD45
:104E10002021280003F061FD0124200070BD012243
:104E20002100280004F03EF880B2FFF787FFF3E787
:104E300008C0000022060020302F002014000020AF
:104E400010B5054C01000A22200003F0B0FD20211E
:104E5000200003F042FD10BD302F0020094B07B5A4
:104E60001B78002B0DD0002201AB1A809A7001989C
:104E700000F0E2FA044B1868002802D003685B686F
:104E8000984707BD1B0000206006002070B5074C46
:104E900005002388002B03D13020FFF7A7FC2080DA
:104EA00042206843FFF7A2FC70BDC0464E060020BA
:104EB00010B50C0049080918054802F051F9020024
:104EC0000011C0B2E30701D50F20104010BDC0464D
:104ED00025070020F7B50324124B44431888124FCE
:104EE0002418A4B22100380002F03AF9611C06002F
:104EF000380002F035F90500A11C380002F030F945
:104F0000F6436B46ED431E705D701A88FF23110057
:104F1000120A1940120283431B040A431A43100069
:104F2000FEBDC0464E0600202507002007B5FFF74E
:104F3000BFFFFFF7CFFFFF210300020A0A40120262
:104F40000B401343000C034A08400004134018436D
:104F50000EBDC046FFFF00FF37B5422500244D437C
:104F60004519ADB2A1B22800FFF7E0FF01AB187000
:104F700002040002120E000E98705A70E0B20199FD
:104F8000013400F009FA842CECD137BD422313B56B
:104F90005943D3B24018141C80B2FF214F2B01D8C3
:104FA000084AD15C89B2FFF7C1FF01AB1870020457
:104FB0000002120E000E98705A700199201C00F029
:104FC000F7F913BD1ABB000010B5044803F0BAFF8F
:104FD0000A3843425841C0B210BDC046302F0020AD
:104FE000F0B5344E85B0320033480C00FFF7E4FDD5
:104FF00005000020854220D12000310005F0B2FDDF
:1050000004002800002C18D1FFF7DEFF002816D07E
:105010002000FFF75FFF06040502360EC0B2FFF75F
:105020000FFF2D0E30000134FFF70AFFE4B2280015
:10503000FFF706FF102CEBD1012005B0F0BD0400F6
:10504000FFF7C2FF1D4D061E2ED11D4F010001228C
:10505000380003F027FF310000900122380003F0F0
:1050600021FF310001900122380003F01BFF154B96
:1050700007001E88009BA619DA43B6B2D2B23100EF
:10508000280002F08DF8019B711CDA432800D2B28F
:1050900002F086F8FA430334D2B2B11C2800A4B25D
:1050A00002F07EF8302CCBD1280002F07DF8FFF71B
:1050B000D5FEC1E71CC00000220600202507002005
:1050C000302F00204E060020F0B585B002932F4807
:1050D0000AAB0C0017001E78FFF76EFD05000020DC
:1050E000854251D12000390005F03CFD0400280024
:1050F000002C49D1422373430193FFF765FF002839
:105100001BD0F026019AA3B293423CD2029B2048C6
:10511000191902F025F805000011C0B2FFF790FE42
:1051200029001C4FB1430A22380003F030FC202133
:10513000380003F0D2FB0134E4E70400FFF744FF3A
:10514000134F061E1AD1019AA3B29A4216D9114DD5
:1051500001000122280003F0A5FE01220390310086
:10516000280003F09FFE039B1A01029B12181919D5
:10517000D2B2380002F000F80134DFE7380002F064
:1051800013F8FFF76BFE012005B0F0BD22060020EA
:1051900025070020302F00207047704713B508788E
:1051A0000C00C043C3B21A0023209911C9435A43CB
:1051B0004042584352430012120E8A1A2330D2B290
:1051C000C0B2FF2101F08CFC6B466A4618700304E4
:1051D0001B0E537000022378000E9070032B0ED824
:1051E000002323706B461A8899781000FF23120A57
:1051F000184012020B401B041043184316BD043B19
:10520000EFE70000F0B5234F85B03B680500002BA9
:105210003DD0214E03893268D31A204A9BB21288AE
:105220009A4234D20024E3B20093502C2DD02B1993
:1052300002AA01939B7AD11C0B70002B10D0386806
:1052400003681B68984703AB187002040002000E45
:10525000120E98705A706B460399187800F0A8F8EF
:1052600002AB03331B782A199372002B0BD10C4A23
:105270005178137809020B439178090419436B465E
:10528000187800F095F80134CDE733682B8105B02C
:10529000F0BDC04654060020340200201800002053
:1052A0005106002010B5416000210400044B01812B
:1052B0000833036050220A3005F091FB200010BD36
:1052C00024C00000D2B24F2A0BD8074900780978D1
:1052D000884206D19B0704D5044B1B689A18FF230C
:1052E000937200207047C0461A000020600600201C
:1052F000014B0833036070473CC00000FF22014BA4
:105300001A7070475006002070B50A4D0400012243
:105310002800002103F0C6FD012220700021280092
:1053200003F0C0FD012260700021280003F0BAFDE7
:10533000A07070BD302F002010B5012204000021A4
:10534000024803F0AFFD207010BDC046302F002092
:1053500070B5084D0400280002F09DF921000028D6
:1053600003D1280002F017FA70BD034802F0E5FAF5
:10537000FAE7C04668270020B427002010B5054C86
:1053800001000A22200003F012FB2021200003F07C
:10539000A4FA10BD302F00201FB50A1C03AB090C66
:1053A0001A8099700399FDF723FF05B000BD000036
:1053B0001FB50B000C1C1B0A090CC2B2E4B2DBB215
:1053C000C9B2FF204F2A01D80448805C03AA147098
:1053D000537091700399FDF70BFF1FBD1ABB0000BE
:1053E00007B5FDF779FF020401AB120E18705A7071
:1053F0001B88FF211A00000C1B0A0A401B020840F0
:105400000004134318430EBD034B10B51B78002B4B
:1054100001D0FDF7BFFE10BD1B0000200121044A92
:10542000044813680B4001D1037011607047C046F7
:10543000580600205C06002013B500240190FFF7F9
:10544000EDFF200001340199E4B2FFF7A5FF842CA1
:10545000F7D113BD07B5002201AB1A809A700198ED
:10546000FFF7EAFF034B1868002802D003685B6867
:10547000984707BD6006002010B5094B1B78834292
:105480000DD9084B187001F0E3FC074B1860074B6F
:105490001B78002B01D0FFF7DDFFFCF7A7FF10BD45
:1054A000640600201A000020600600201B00002077
:1054B00010B5064B18780130C0B21870044B1B7839
:1054C000834200D80020FFF7D7FF10BD1A0000204C
:1054D0006406002010B5064B1A78002A01D1054A4F
:1054E0001278013A1A701878FFF7C6FF10BDC0464F
:1054F0001A00002064060020224B70B51B78002B98
:1055000032D0214C2378002B02D16378002B14D0A9
:10551000E120FFF71DFF002802D1E530FFF718FF5B
:105520002378002B22D16378432B24D1002822D169
:10553000FFF7BEFF002323706370144B144C154D0E
:1055400022881B689B1A2A789BB29A420CD2FFF7DA
:105550005BFF22882B789B1823800F4B186800284C
:1055600002D003689B689847002070BD012B02D1D0
:105570006378432B02D0FFF7ADFFDBE70028D7D1DC
:10558000F9E7C0461B000020650600203402002019
:10559000680600201C00002060060020012210B5D3
:1055A000034B1A70FFF756FFFDF7F4FD10BDC04620
:1055B0001B00002013B5002401AB1C809C700198D7
:1055C000FFF73AFFFCF760FF044B1B78FF2B02D17B
:1055D0002000FFF751FF002016BDC0461A00002032
:1055E00013B5002401AB1C809C700198FFF724FFC9
:1055F000FDF7D0FD014B1C7013BDC0461B00002001
:105600004A7810B50024432A17D1403A1340013498
:10561000022B12D10B78002B0AD0A34208D0022B08
:105620000BD1084B1B78002B09D0FFF7D9FF04E002
:105630000222054805F0B7F90124200010BDFFF74C
:10564000ADFFFAE71B0000206506002010B5FCF74F
:105650000DFF014B187010BD6406002010B5044802
:1056600003F070FC0A3843425841C0B210BDC04636
:10567000302F002073B55E4A5E480D000024FFF70E
:105680009BFA0600A0426AD104225B49280005F07B
:105690007AFA3400002862D104355849280005F010
:1056A00061FA002811D16B46DD1C2800FFF744FE8B
:1056B000FFF7D4FF01AC002853D12000FFF724FEF0
:1056C00028780199FFF768FE48E04D49280005F069
:1056D00049FA00283CD04B49280005F043FA00283D
:1056E0002DD04949280005F03DFA061E11D0474942
:1056F000280005F037FA002831D1FFF7AFFF002866
:1057000044D101AC2000FFF717FE2078FDF708FD1B
:1057100024E0FFF7A3FF041E4DD1FFF77FFEFFF744
:105720009DFF00281AD101A8FFF7EEFD20000134EB
:105730000199E4B2FFF730FE842CF0D10EE034483A
:1057400003F000FCC0B20A2823D1324B18781AE0CB
:1057500001A8FFF7D9FD0198FFF76EFE0124200094
:1057600076BD2878FFF73CFE050403021B0E2D0EC4
:105770002070A37065701C00C0B2FFF7FFFD280009
:10578000FFF7FCFD2000FFF7F9FDE7E7FDF7DAFC86
:10579000F9E76E2802D1FFF78BFEDFE7702802D110
:1057A000FFF798FEDAE701AC2000FFF7C5FD20788F
:1057B000FFF762FED2E7FFF731FE34002000FFF76B
:1057C0000FFE01AB060405021870360E2D0EC0B296
:1057D0005E709D700134FFF7D1FD3000FFF7CEFD04
:1057E000E4B22800FFF7CAFD842CE7D1B6E7C04633
:1057F00048C00000220600207CC0000081C00000DC
:1058000084C000008BC0000076C0000090C0000083
:10581000302F00201A00002013B5134BC27A4168C4
:105820001B6804009B1A0878DBB2984218D2121841
:10583000E2724A782089217B01F052F901AB18709D
:1058400002040002120E000E5A709870A37A228988
:105850009B189BB2FE2B04D823810198FFF7ECFD27
:1058600013BDFF3BF8E7C0463402002037B543685C
:10587000C27A19781C4B04001B689B1ADBB2994250
:105880002FD252180121C272184A13680B4002D15C
:1058900017481160037000252089842D1BD0AB08A8
:1058A0001B01C01880B2FE2801D9FF38FAE76368EF
:1058B000217B5A7801F014F901AB18700204000240
:1058C000120E000E98705A70280001990135FFF7EA
:1058D00063FDEDB2E0E7A37AC01880B2FE2801D8DC
:1058E000208137BDFF38FBE7340200205806002036
:1058F0005C060020417070474170704728213222B9
:10590000034B19705A70034B19705A707047C04698
:105910006A0600206C06002010B501220400002158
:10592000024803F0BFFA207010BDC046302F00209F
:1059300010B5044803F006FB0A3843425841C0B290
:1059400010BDC046302F002037B54E4A4E480C00DF
:105950000025FFF731F9A84212D106224B49200059
:1059600005F011F9A8420BD106344949200005F091
:10597000F9F8A8420FD1FFF7DBFFA84202D00125BA
:1059800028003EBD6B46DC1D2000FFF7C5FF2078D8
:10599000FDF794FAF3E73F49200005F0E3F800280B
:1059A0000CD1FFF7C5FF0028E9D16B46DC1D2000B4
:1059B000FFF7B2FF2078FDF73FFAE0E73649200015
:1059C00005F0D0F8002812D1FFF7B2FF0028D6D199
:1059D0006B46DC1D2000FFF79FFF2078FDF7D0F914
:1059E000FFF706F920212D4802F077FFC7E72C4981
:1059F000200005F0B7F800280CD1FFF799FF002828
:105A0000BDD16B46DC1D2000FFF786FF2078FDF737
:105A1000F7F9B4E72349200005F0A4F8051EAED13C
:105A2000FFF786FF041E12D02C002000FDF7A8F916
:105A30001A4D01000A222800013402F0A8FFE4B246
:105A40002021280002F049FF202CEED197E7FDF736
:105A5000D7F92000FDF7F0F9FFF76AFF002800D022
:105A60008DE76B46DD1D2800FFF756FF2B78002BD6
:105A700002D02000FDF722FA0134E4B2202CEBD151
:105A80007DE7C046CCC000002206002014C1000003
:105A90001DC100001BC1000026C10000302F0020E6
:105AA0002FC100000EC10000F7B500241C4B1B786D
:105AB0000193019BA34231D90C230025634300933A
:105AC000009B184AEB189B181879EFB2002823D0D6
:105AD0000138FDF759FD061E03D00135052DEFD124
:105AE0002F00FDF767FD874213D1002E11D00E4E17
:105AF0000E4D32682B88D31A0D4A9BB212889A42F7
:105B000007D20C236343074A2000D35898473368D1
:105B10002B800134E4B2CCE70126E2E70020FEBD91
:105B200099AC00009CAC00003402002070060020FC
:105B30001E000020014B18707047C0463400002042
:105B40001A4B13B51A491A681A4C0B8892B2D31A19
:105B500024889BB29C4220D20A800121014006D0B9
:105B60000021154B1B785BB200910A0012E0022461
:105B7000044004D0104B1B785B425BB2F4E7042175
:105B800001400BD00C4B22001B7821005B425BB222
:105B900000932300094801F021FF13BD0307FCD542
:105BA000054B1B785BB200930B00DEE7340200204C
:105BB0007806002026000020280000200028002071
:105BC00010B5054C200001F02BFF200001F00FFF65
:105BD0000020024B187010BD002800207306002022
:105BE00070B5224B1B78002B03D1214A1370002083
:105BF00070BD204A204812680188204C92B2511A88
:105C0000248889B28C42F2D21D4C028021881D4822
:105C1000511A008889B288420AD21B48144D06786E
:105C2000FF202978801B814201DA8919297022809E
:105C30000021DA0703D5154A1178494249B29A077B
:105C400003D5124A1278511849B200205A0703D5D9
:105C50000E4A1078404240B21B0703D50B4B1B780D
:105C6000181840B201F068F8C1E7C046730600207A
:105C70000C070020340200207406002024000020BD
:105C800076060020200000202200002029000020AD
:105C9000F7B54A780020502A3ED10A7840261000F5
:105CA00020250324304015401C4000280ED0002D34
:105CB0000ED1B24315009B0725D4012C2BD1110026
:105CC000414801F09EFE00F0B9FF24E0002D24D0F1
:105CD000022C20D10125431E984113002B40AB40DC
:105CE0001440184323005C1EA3419B00034350074C
:105CF000C00FC00003431007C00F0001184300F09D
:105D0000ADFF280008E0022C01D100F09DFF290022
:105D10002D4801F072FE0120FEBD022C0BD12B4A52
:105D20002B48126892B202802A4802802A480088D2
:105D3000121A2A48028002252B400AD00878C3068E
:105D400002D5FFF7FDFEE6E7254B1A7810431870E1
:105D5000E1E7012CDFD1032621480D780278AA4320
:105D600002700A78164006D10C25154009D12E0084
:105D7000AC462C000BE0102515401ED01D0026005F
:105D8000F6E7102515401BD02500B446340001214C
:105D90000D4804274156013C02220323214064465A
:105DA000C7578256C356013D013C013E2F40224059
:105DB0003340009701F012FEADE72E00A446D8E76D
:105DC0002E00AC46E3E7C046002800203402002045
:105DD00074060020760600202600002078060020A9
:105DE0007306002013B50024094801F03DFE684603
:105DF000084B998ADA8A1C761B690470418082807C
:105E0000847169461B68082203489847200016BD24
:105E1000002800203828002048280020054A064B8A
:105E200010881B68054A1B1A10889BB29842804153
:105E3000404270477C060020340200202E000020E3
:105E40000023054A5900885C8007C00F02D1013346
:105E5000102BF7D17047C046800600200023054A6A
:105E60005900885C0007C00F02D10133102BF7D115
:105E70007047C04680060020FF22031C120210401B
:105E8000DBB21B18054A9BB29B18054A5B00985C65
:105E900082B04007C00F02B07047C046FF3FFFFF0F
:105EA0008006002007B501AB07280BD80022203858
:105EB00018705A708022054B0A430198197801F036
:105EC00061F807BD223018704422F2E7E4BE0000FA
:105ED00010B50221FFF7E6FF10BD00000121044AC2
:105EE00010B54400A35C8B43A354FFF7DBFF10BD48
:105EF0008006002010B50024064B6200D35CE0B29F
:105F0000DB0701D5FFF7E4FF0134082CF4D10020B2
:105F100010BDC04680060020F8B50023204D5A0071
:105F2000525DD20730D40133102BF8D10024220067
:105F30001C4BE0B21B78002B11D06600AB5D19073B
:105F400019D519490F78002F09D008229343AB5572
:105F5000FFF7C4FF0222AB5D93433A00AB55013417
:105F6000102CE5D1002A04D000230E4A13700E4AEB
:105F700013700020F8BDDE07F60FF0D09B07EED4BB
:105F8000FFF7ACFF3200EAE7FFF748FF0028CDD06B
:105F90000122044B1A700022034B1A70C6E7C04658
:105FA000800600207E0600207F060020F8B5002530
:105FB0000A4E6F00BC5DE407E40F03D0FFF72EFF2D
:105FC000002809D0F35D9C07E40F05D11C07E40FFE
:105FD00002D10135102DECD12000F8BD8006002043
:105FE000F0B587B00E00002069461C005BB2CA7491
:105FF000834220DB7378029333780393029B1F0262
:10600000039BFF18BFB27D1EEBB20193FFF7CEFFDB
:106010005E4BFF18BFB2002829D10F2F0BD80322E7
:106020002240012A09D1019B59495D006B5C023075
:1060300083436B54012007B0F0BD022AFAD16C46AD
:10604000544BE47C1968544B1980019B504958000B
:106050000B185C700124435C134323434354310009
:106060004E4804F0A0FC0198FFF732FFE2E70F2F43
:1060700070D803206946019B454F5D000440E85DF0
:106080000307DA0F0A75002B11DA022CD2D1220095
:106090003100424804F087FC0822EB5D01989343ED
:1060A000EB55FFF71BFF00223D4B1A70C2E7012C96
:1060B00013D10223384A9843364B12881B68E8559F
:1060C0009B1A384A9BB212889A42B3D20198FFF7C2
:1060D00005FF6A46324B127DE7E7022CAAD12F4A10
:1060E000039913780443EC552B4C8B4223D15278FF
:1060F00002998A421FD1707800021843FFF7BCFE54
:10610000002818D0284B00229A5E531C20D1274B20
:106110001A88204B21881B685B1A9BB29A4200D2D6
:1061200088E708237A5D310013437B5502221B4820
:1061300004F039FC7EE7174B6A461B68D27C23804B
:1061400001247B195A707B5D022223437B5586E72D
:1061500092B2DEE702220020144200D16BE7310048
:106160000E4804F020FC7278337811025B189BB261
:10617000DF2B03D8442A04D100205CE7E72BF9D8B1
:10618000FAE70122064B1A70F6E7C046FF3F00000F
:1061900080060020340200207C060020A00600209B
:1061A0007E0600202A0000202C0000202E00002067
:1061B0000122024B1A70024B187070477E060020B5
:1061C0007F06002010B50023042404495800425CD7
:1061D000013322434254102BF8D110BD8006002019
:1061E00010B50120FEF702FB064B0100188006489F
:1061F00000F0B6FF054B1870FF2801D1FFF73CF9FE
:10620000002010BDA406002025070020A6060020BF
:1062100010B5094B1A78094B1978914209D01A70B8
:10622000074C084B2000198800F0BAFF200000F04E
:10623000BBFF002010BDC0461A000020A6060020AB
:1062400025070020A4060020012273B501AC21809F
:10625000431CDB7FC17913420BD162782378120291
:106260009B189BB2032B03D9272B13D8038A0385D2
:10627000022205008379C41D013BDBB28371103516
:10628000E3189C420BD0667826706E8801342E800D
:106290000235F6E72C2BEBD9382BE9D8E6E7841D3D
:1062A000A37E2A305B10A3760123040003700198BB
:1062B00000F068FE0023237073BD0000FF2212026D
:1062C0000A40C9B28918164A89B282B000239142A5
:1062D0000FD9144A91420FD8134A8918020089B283
:1062E0002B32117009122D30203953704370017018
:1062F0000133180002B070470C4A9142F9D80C4A99
:10630000891802002B325370030089B211700912F0
:106310002D332A31197044232E300370433BE8E7B4
:1063200010C0000011C80000EF3F000012D00000B4
:10633000EE370000F7B5214B214FCEB204001B68A9
:10634000B85D984701AB18806B4618800099200013
:10635000FFF7B4FF051E1DD12A00B85D2179D3B225
:1063600099421DD927689300FB185F78B74215D171
:106370000027DF5787420FD1200002222B306946C9
:10638000DD789E7804F00FFB23002E342D331E7031
:10639000257001252800FEBD0137EDD00132DEE772
:1063A000200002222B30694604F0FDFA2200FF2370
:1063B0002D322E3413702370ECE7C0460800002005
:1063C0005F020020531A642210B55A4304300C00B7
:1063D000C17F100004F0F6F8044B196883B2002066
:1063E000091B89B28B424041C0B210BD340200206B
:1063F000C9B28218904205D0013083798B42F9D11D
:10640000012070470020FCE7031C0004020E3F211E
:10641000100082B0DBB2884307D107222033DBB201
:106420009A424041C0B202B070470020442AFAD1DB
:106430002930984280414042F5E70000F0B5837969
:106440008DB004000126002B00D19BE08319DB7F77
:10645000334207D000220BAB1A800B992000FFF7C4
:10646000F3FE8FE0C37903936B46197BFFF762FF5E
:10647000002800D17CE0E31CDE7F002E78D028339A
:106480005D781A782D0215432800FFF7BDFF434FB2
:10649000238D3A680190D31A22000832D27F9BB232
:1064A0009A421DD20125A37904933B6800279BB231
:1064B000069363190893A31D0293EB1A0993049B97
:1064C000E9B28B4265D9089B0122DB7F2B41134245
:1064D0000ED1019B002B4BD1002F58D00135EEE798
:1064E000019B002BDED129002000FFF7ADFED9E78C
:1064F0006319DA7905920598039A82421BD0E31D4D
:10650000029A0793099B9B18DBB29942E6D99378CC
:106510000598834239D1029B06985B89C31A079874
:106520009BB2C07F984230D223002D3359781A781D
:106530000902114392E7002F03D0221DD27F002AC7
:106540000AD12100019B2B31002B00D00231022205
:106550000BA804F028FA80E75B1902991A8A3B1D00
:106560005B00CB1859882000FFF72CFF0028B5D11D
:1065700023002B3359781A78090211432000FFF7C2
:1065800063FE012630000DB0F0BD0132BAE70F0006
:10659000A4E7049B082BEBD00026F3E7340200208D
:1065A000F7B50F006946CA71CA7904004F2A5FD84F
:1065B00059B200295CDB01002A310978002957D142
:1065C000C11CCE7F002E0FD179783B780902194388
:1065D000FFF774FE00284BD0210002222B31380037
:1065E00004F0E1F93000FEBD03261E40731E8579DC
:1065F000012B0ED903002D18AB4239D0191B0133E2
:1066000098799042F8D10134E37F01260B419E43F3
:10661000E8E7012E0CD1012D0AD1C379934207D0AE
:1066200078783B7800021843FFF7EEFE00281FD071
:106630006A46D27963190F49DA712B1DA21D0968C8
:106640005B00D31859800123AB40917EDBB2012E51
:106650000BD10B4393760135EDB2A5710126082DC0
:10666000C0D12000FFF7EAFEBCE799439176F2E73C
:106670000026B7E734020020F0B50400002685B0FC
:10668000A379B3421FD9631CDB7F0122334113423C
:1066900016D0A319DF793200391C2000FFF7A8FEBD
:1066A000051E0DD1230001222A331A70019303AB7A
:1066B00018800322391C039800F064FC019B1D70B4
:1066C0000136F6B2DCE72200184D08322B68D17F84
:1066D000228D9BB29A1A92B28A4202D9013B5B1A6E
:1066E00023852000FFF7AAFE00281BD1228A2B68F1
:1066F0009B1AA28C9BB29A4214D225002B35687843
:106700002B7800021843FFF77FFE21002D3100286F
:1067100000D02900022203A804F045F903992000C3
:10672000FFF792FD002005B0F0BDC0463402002006
:1067300070B50025154C0822E61DA57130001449DE
:106740002560257104F02FF90122E31CDA77231D5F
:106750004F32DA77FA23A384C83BF3772300053A54
:106760000833DA7780235B002385230022002A3355
:106770001D70FF232B32137022002C321370220065
:106780002E342D321370237070BDC046A806002031
:1067900036C100000022064B064940001A705A70AC
:1067A000435CFC321A400423134343547047C046F1
:1067B000DC060020DE060020F8B50E4D0E4E2C78CB
:1067C0000E49133CE4B26700F3195A7809780323A1
:1067D0002000FBF7BFFD0223BA5D1343BB55DB0767
:1067E000DA0F002B04D12A706A702000FFF7D2FF65
:1067F000F8BDC046DC060020DE0600203000002088
:106800000A4B10B518780A4B1338C0B242009B18D7
:106810005A780132D2B25A70064B1968064B198069
:10682000064900230978FBF795FD10BDDC06002022
:10683000DE06002034020020DA06002030000020AE
:10684000F8B50024154D6600735DE0B25B070CD50A
:106850001349AF197A7804230978FBF77BFD0023ED
:1068600004227B70735D934373550134102CE9D17E
:106870000C4B1A78002A02D15B78002B0BD00A4B04
:106880000A4A1B6812889B1A094A9BB212889A42CC
:1068900001D2FFF791FF0020F8BDC046DE060020C0
:1068A00030000020DC06002034020020DA06002040
:1068B00032000020F8B5114F114D3C781149133CBE
:1068C000E4B26600AB195A78097802232000FBF77E
:1068D00041FD0223725D1343735500233B707B70AF
:1068E000094F3800FCF798F93800FCF7E7F9735DB9
:1068F000DB0702D42000FFF74DFFF8BDDC060020C7
:10690000DE0600203000002014070020F0B585B01E
:106910000F006946CA715AB2002A02DA002005B097
:10692000F0BD7A78414802923A78414E0392029A39
:106930001402039AA418A4B2201880B232780F2847
:1069400010D9002A02D170780028E8D003252B4006
:10695000022BE3D16B46D879FFF7ACFF00203870EB
:106960007870DCE70325133CE4B21D40012D06D10D
:1069700063009C4661462F481B5CAB430B54039B52
:106980009A4203D1737802998B4240D0002A02D1F7
:106990007378002B0BD0012D1ED1264B62009B1863
:1069A0005B78002B0AD02000FFF7F4FE06E0214BB5
:1069B0006200D35C9B0703D5012DF4D00120AEE724
:1069C00002223900300003F0EEFF6A461A4BD279FA
:1069D0001A70FFF715FFF1E7022DEFD16B46D8795A
:1069E000FFF768FF02223900300003F0DCFF6A463F
:1069F0000126114BD2791A700E4B6200D15C3143E3
:106A0000D154022D06D1FFF7FBFE300087E7012DA0
:106A1000E8D1D3E7D15C8907D0D569469B185A786D
:106A2000C97933002000FBF795FCEEE7ED2F00005D
:106A3000DC060020DE0600203000002010B5084CE7
:106A4000200000F028FE414241412000C9B22174DB
:106A500000F024FEFA20800001F0C6FB10BDC04605
:106A600068270020012330B51D0002881A408B42A0
:106A700009D204885200641004802C402243013360
:106A800092B2DBB2F3E7028030BD0000F7B58B189D
:106A90000F4F0193019B994219D0082501240B78CF
:106AA0009C46038866461AB234420ED15B00D20F70
:106AB0009BB2002A01D07B409BB26400013DE4B24E
:106AC000002DEFD103800131E4E7D243EEE7F7BDBB
:106AD0000580FFFF0022014B1A807047000700204D
:106AE000F7B5D4B201AE00290AD134707470B47015
:106AF00072783078B37812021B0410431843FEBD3D
:106B000006234343181205025B1BFF279BB21D009F
:106B1000FB1A4D434B432D121B12791A7D1BFB1A96
:106B2000554353434A432D1212121B12D2B2E9B2FB
:106B3000042806D803F03CFD03090D1216001100CD
:106B4000DAB234707270B170D2E711002200ECB288
:106B5000F7E7D9B2230014001A00F2E7210014006D
:106B6000EAB2EEE72100DCB2EBE70000164B1201BF
:106B70001B6813B59BB29A181211D3B2120601D535
:106B8000DB43DBB25B00DBB21A0003245A43121270
:106B9000534354431B125B00E31ADA0FD21852100E
:106BA0005032D2B289B280B2FFF79AFFFF210300C0
:106BB000020A0A400B4012021343000C034A084029
:106BC00013400004184316BD34020020FFFF00FFED
:106BD00013B56C465B08C018094B520889181A7E19
:106BE00080B22270002289B29882D9821B696080AB
:106BF000A180A27169461B6808320248984713BDFC
:106C000038280020482800200023064A1380064A1E
:106C10001380064B064A1380064A13800122064B56
:106C20001A7070470A07002008070020FF7F000045
:106C30000407002006070020020700200022014B65
:106C40001A70704702070020034B10B51B78002B09
:106C500001D0FFF7D9FF10BD02070020F7B5274C80
:106C600006002378002B01D1FFF7CEFFF30702D5F2
:106C700000232370F7BD224B224F1C783888210057
:106C800003F02AFD85B23D801F4F2100388803F0B4
:106C900023FD1E4982B20B883A80019306231C4FC4
:106CA00033403888062B0BD1019B1018EB189CB28F
:106CB0000C802B0081B220003980FFF789FFD9E7D3
:106CC000730710D5631E53439C4660443880F30617
:106CD0000DD5013C6C43019B1B190B803C88088837
:106CE0002B002100E9E7B307F1D41018EEE73307D2
:106CF000F4D4019B0548EB180380EFE7020700205E
:106D00003500002004070020060700200A070020A5
:106D10000807002082B240B2002804DB5243D011A1
:106D20000130C0B2704780204000801A404380B2DA
:106D3000C011C043F5E70000F0B500273D4B060049
:106D4000187885B00D0004B2BE4231D0B9421FD0D0
:106D5000633778438C2103F0BFFC002800D004B2D5
:106D600038008C21704303F0B7FC002859D133B2AE
:106D7000632003930C266B4668438C219E5703F0D7
:106D8000ABFC00284FD12DB2039F6DB2002F0FD066
:106D9000294B1878FFF7BEFF284B46431B785BB2A0
:106DA0009E1937B2A74240DC63429F4200DA1FB20D
:106DB0000026B5420FD0204B00261878FFF7AAFF17
:106DC0001F4B45439E57761936B2A6422FDC6442CC
:106DD000A64200DA26B200241A4B30001C701A4B6F
:106DE0001D78290003F078FC290043B23800039392
:106DF00003F072FC039A41B200942300134800F0A0
:106E0000EDFD114B38001C78210003F04BFD0B4BBE
:106E100030001970210003F045FD094B197005B0D1
:106E2000F0BD03B2A4E705B2AEE72700C0E7260035
:106E3000D1E7C046340000200C0700200D070020D9
:106E40000E07002002070020360000200028002046
:106E500037B50C4B05001A780B4C824201D12068E3
:106E60003EBD69461870FBF703FB019B002B02D166
:106E7000009B2360F3E72A000099044898472060AC
:106E8000EDE7C0463700002010070020D0010020A9
:106E90000022034B1A715A719A71DA717047C04619
:106EA0001407002070B5084D0400280000F0F3FB23
:106EB0002100002803D1280000F03DFC70BD0348EC
:106EC00000F061FDFAE7C04668270020B4270020E3
:106ED00070B5084D0400280000F0DDFB21000028FB
:106EE00003D1280000F00AFC70BD034800F030FD1B
:106EF000FAE7C04668270020B427002037B50C0405
:106F000001AB1980CDB2240E002A10D0C379002B1A
:106F100000D1437143792200234343713F239A43B5
:106F200004D12B002033DBB2072B04D9C5713F23DA
:106F300022009A4321D12B002033DBB2072B1CD82F
:106F4000230702D5E120FFF7C3FFE30702D5E020C6
:106F5000FFF7BEFFA30702D5E220FFF7B9FF6307E3
:106F600002D5E620FFF7B4FFE30602D5E320FFF7E2
:106F7000AFFF2800FFF7ACFF37BD83791C43847156
:106F8000F7E70000F0B585B001ACCEB220800F1C51
:106F900015004F2E25D8032313400093022B08D150
:106FA0002278002A47D16378002B44D1381CFBF7A4
:106FB000CFFE381CFCF7CEFA002805D0009B012B31
:106FC00037D1381CFCF7ACFA2378002B09D1637851
:106FD000002B06D14A4B7600F6187378327863702E
:106FE00022702A00391C2000FBF75AFB002820D110
:106FF0002A00391C0198FBF7EDFFC6B22080002E55
:1070000002D16378002B14D040222388647803A92E
:107010000B8022402FD063B2002B0ADB230713D54D
:10702000AB0706D5210289198905890D354800F07D
:10703000E1FB05B0F0BD6B06B8D431486178730050
:107040001B181A705970B4E7E307F2D503231D40EB
:10705000022D06D131002C4800F058FD2B4B1E713B
:10706000E7E7012DE5D1294B1B79B342E1D1264851
:1070700000F048FDDDE703232B40022B05D1012260
:1070800009682248FFF73AFFD3E7A807F8D4012B95
:10709000CFD16DB2002DCCDAE2431C4B20005979E0
:1070A000114059713F21884304D131002031C9B2C8
:1070B000072907D9D979B14201D10021D97199792C
:1070C0000A409A71230702D5E120FFF7EBFEE307A0
:1070D00002D5E020FFF7E6FEA30702D5E220FFF786
:1070E000E1FE630702D5E620FFF7DCFEE30602D5EA
:1070F000E320FFF7D7FE3000FFF7D4FE99E7C04644
:10710000AF0200209427002024280020140700202C
:1071100070B50F4C0F4EA54404000F4801AA4369F7
:107120000169651C00F0FEF8320001A9280003F097
:107130003AFCA35D002B05D18022FF21920128009B
:1071400003F04DFC01232370044B9D4470BDC046E9
:10715000F8DFFFFF012000002827002008200000A2
:1071600070B5037804000D00002B01D1FFF7D0FFAC
:107170006419607870BD0000037870B505000C00DC
:107180001600002B01D1FFF7C3FF2C196378B3421F
:1071900003D00122014BEA54667070BD022000004A
:1071A00010B5FFF7E9FF10BD10B5114C0378A544E9
:1071B0000400002B01D1FFF7ABFF0E4BE35C002B6B
:1071C00012D001230C4AE118A35401A803F0EBFBF1
:1071D0000A4C62692169200000F092F8636901AAF3
:1071E0002169200000F03CF8054B9D4410BDC046CD
:1071F000F8DFFFFF02200000012000002827002008
:107200000820000010B5054A0549064800F010F8AE
:107210000022054B05491A705A5410BD0120000088
:1072200000C20000282700202507002002200000BF
:1072300030B5094D094CAB685B035B0F9B001C59D3
:107240000460AB6801619BB243606343A400836048
:10725000C460426130BDC0460040004100E3000010
:10726000F7B580261A4D01916F6803333E439B08A2
:107270006E60002B2BD0174E2E802E7DF107FCD593
:107280001E000768991BBF088F4219D9002E17D01E
:10729000FF2117788C433C430F4957780C403F023D
:1072A0003C439778013E39040C4F2740D478BFB255
:1072B0000F43240601993C4310C101910432E0E7D9
:1072C000074B2B802B7DDB07FCD53300D1E7F7BDC7
:1072D0000040004144A5FFFFFF00FFFFFFFF00FF4C
:1072E00004A5FFFF044B054A4908D9611A801A7D9D
:1072F000D207FCD57047C0460040004102A5FFFF01
:1073000070B504000D001600E36829002000B342A8
:1073100005D2FFF7E7FFE368ED18F61AF4E7FFF789
:10732000E1FF70BD10B510001A0003F03CFB10BD6A
:1073300030B50B7889B001330B706B4605000D2218
:107340000021981D03F04BFB134B01AC2380134B22
:10735000134AA380092363721833A372203BE3729C
:10736000237323762B79E2810E4AA3702B8B6282E2
:10737000032223741B126374802362753D32E28200
:107380006A795B421343210019220020237500F023
:1073900091FC09B030BDC0460904000001030000A3
:1073A0000122000007050000F8B50B780700002453
:1073B000812B1ED1CB78222B1BD18A8803799A424C
:1073C00017D12600012000F07DFC7D69002D0AD038
:1073D0002A7A6968002000F06DFC0400431C08D084
:1073E00036182D68F2E701232800BB7600F06AFC0E
:1073F00034002000F8BD000070B502798B880400CD
:1074000000259A4209D10A784B78A12A07D19F3AE0
:107410009343013B5D425D41EDB2280070BD212ADE
:10742000FBD10B2B03D18B7883760125F5E70A2B53
:1074300002D18B78C376F8E7092BEED1CA88022AED
:1074400005D1010006481C3102F0A0FAE5E7012A47
:10745000E3D1010002481D3102F098FA2577DCE7FC
:10746000582F00204369002B06D14161038B0A8904
:107470009B180383704713001A68002AFBD1196018
:10748000F4E7000030B591B01C0005006B46080021
:10749000110018702200581C03F085FA631C6979EA
:1074A0006A46024802F026FB11B030BD582F00207A
:1074B000F7B51F0001911600FFF7E4FF054B04002C
:1074C0001D68002D04D003003A0031000198A84740
:1074D0002000FEBD642700200223FF3310B5C380C7
:1074E000030010338360094B8322083303600023B9
:1074F00004000261064AC36043618261838301F034
:1075000013FE210001F0E4FD200010BD20E3000087
:107510000000010170B50126054D064C2B68334271
:1075200003D12000FFF7D8FF2E60200070BDC046B9
:1075300040270020442700200379413301200B70AD
:107540007047000030B50B7889B001330B706B4683
:10755000050011220021981D03F041FA124B01ACE5
:107560002380124A124BE28102933F2209232274A4
:107570006372104A1833A372203BE3722373628252
:10758000237603222B796275A37080233D32E28239
:107590006A795B421343210019220020237500F011
:1075A00089FB09B030BDC04609040000012200007B
:1075B00001030101070500000A78030010B500204F
:1075C000812A0ED1CA78222A0BD189881A79914250
:1075D00007D11A001B7C2832137002493F2200F0A9
:1075E00069FB10BD38E3000070B504798A88030098
:1075F0000020944209D10C784A78A12C06D10223AC
:10760000013AD2B293424041C0B270BD212CFCD1AC
:107610000B2A04D18A7828331A700120F5E70A2A48
:1076200002D129331870F8E7092AEED1CD78CC8839
:10763000022D08D1012CE8D12A3319002200084874
:1076400002F0A4F9E9E7012DDFD1082CDDD11133D7
:1076500019002200024802F099F92800D5E7C04637
:10766000582F0020030024338360084B0221083385
:107670000360012303748233436203000022FF315D
:107680002A33C180C26001851A70704778E3000018
:107690002A30007870472830007870472830017011
:1076A00070470000F8B506000400193611340500D3
:1076B00008222100300003F067F9002816D069790C
:1076C000082322000B4802F015FA0B4B05001F6837
:1076D000002F04D00300082221000220B84708220E
:1076E0002100300003F05FF92800F8BD01256D424C
:1076F000FAE7C046582F0020642700200A002032F5
:10770000D2B210B50023072A08D801331A00E03995
:107710008A40417C0A43427401200BE0C218D47CA9
:107720008C42F9D0002C01D1D174F5E70133062B3E
:10773000F4D1002010BD0B002033DBB270B5072B55
:1077400007D80122E0398A40437C934343740120E7
:1077500070BD0200040013321300002519341E7896
:107760008E4200D11D700133A342F8D1002115785B
:10777000002D05D04418E67C0131E574C9B21670BD
:1077800001329A42F3D1E2E710B51130082200210C
:1077900003F025F910BD2031C9B2030000200729EC
:1077A00003D8587C012308411840704710B502489F
:1077B000FFF758FF10BDC0466827002001210A4A84
:1077C00070B5136805000B40084C05D12360084BC9
:1077D0001160636019232381FFF79CFE2100FFF7EE
:1077E00041FE280070BDC046A4270020A827002025
:1077F00090E30000002310B55A00845A002C01D1F8
:10780000115210BD0133042BF6D1FAE710B508224E
:10781000002103F0E4F810BD10B50400FFF77AFE74
:10782000082322000421FFF743FE10BD70B50500B8
:107830000835040001000822280003F0A5F80028FC
:1078400007D02000FFF7E8FF08222100280003F0FE
:10785000AAF870BD10B50248FFF7B0FF10BDC046D2
:107860009427002001210A4A70B5136805000B40D7
:10787000084C05D12360084B1160636041232381CC
:10788000FFF748FE2100FFF7EDFD280070BDC04660
:10789000F0270020F4270020A9E3000010B5040021
:1078A000FFF738FE1D2322000821FFF701FE10BD5F
:1078B000F8B507001D37040001001D22380003F051
:1078C00063F8002836D02578667F2B00B3431CD0A0
:1078D0002000611C1C221E3003F056F8002814D032
:1078E0006577FFF717FE1D233A000821FFF7E0FD3B
:1078F00066772000FFF7D2FF051E04DD1D22210060
:10790000380003F050F82800F8BD3300AB43F0D046
:107910002000611C1C221E3003F036F80028E8D03D
:107920002670FFF7F7FD1D2322000821FFF7C0FD99
:107930002570DEE701256D42E5E72031C9B203007D
:107940000020072903D81878012308411840704700
:107950000200DD290AD8CB08C318072201201140F4
:1079600002008A4059780A435A7070472031C9B2E0
:1079700000200729F9D80123180088401178014315
:1079800011701800F1E70200DD290BD8CB08C318ED
:1079900007220120114002008A4011005A788A43D0
:1079A0005A7070472031C9B200200729F9D8012345
:1079B000180088401178814311701800F1E710B564
:1079C0001D22002103F00BF810BD000010B5024885
:1079D000FFF748FF10BDC046B427002010B502AC29
:1079E0002478417064B28270C370047110BD10B508
:1079F0000522002102F0F3FF10BD03781943017046
:107A0000704703788B430370704710B50400FFF78D
:107A100081FD052322000121FFF74AFD10BD000072
:107A200070B5451D040001000522280002F0ACFFDE
:107A3000002806D105220749200002F0A5FF0028F2
:107A400007D02000FFF7E1FF05222100280002F007
:107A5000AAFF70BD1028002010B50400FFF7C7FF73
:107A60002000FFF7DDFF10BD01210B4A70B5136840
:107A700005000B40094C05D12360094B1160636080
:107A80003A232381FFF746FD2100FFF7EBFC280096
:107A9000FFF7E2FF70BDC0460C2800201828002028
:107AA000EAE3000001210A4A70B5136805000B40A3
:107AB000084C05D12360084B1160636018232381B3
:107AC000FFF728FD2100FFF7CDFC280070BDC04660
:107AD000282800202C28002024E4000070B5150080
