:1020000000800020F17F0000D97F0000D97F000010
:1020100000000000000000000000000000000000C0
:10202000000000000000000000000000D97F000058
:102030000000000000000000D97F00004580000083
:10204000D97F0000D97F0000D97F0000D97F000030
:10205000D97F0000D97F0000D97F0000DD7F00001C
:10206000D97F0000257F0000D97F0000D97F0000C4
:10207000FD7E0000D97F0000357F0000D97F000081
:10208000D97F0000D97F0000D97F0000D97F0000F0
:1020900000000000D97F0000D97F0000D97F000038
:1020A000D97F0000D97F0000D97F0000D97F0000D0
:1020B0000000000010B5064C2378002B07D1054B1B
:1020C000002B02D0044800E000BF0123237010BDA4
:1020D00090010020000000008CE70000044B10B5C8
:1020E000002B03D00349044800E000BF10BDC046E8
:1020F00000000000940100208CE7000010B500886B
:1021000002F0F6FA10BD000010B5012002F0F0FA5E
:10211000044B01001880044804F064FF0022034BC4
:102120001A7010BDAE010020F0060020B0010020A2
:1021300010B50D4C2378002B0FD102F03BFD9F23EF
:102140009B01984203D19620800002F075FD00208B
:1021500003F01EF9237801332370044B2278198889
:10216000034804F05FFF10BDB0010020AE01002065
:10217000F006002070B5154E154832000D00002401
:1021800002F098FCA04216D13100280008F022FC91
:10219000A04210D10F4D280006F016FE0E4E020090
:1021A0000A280AD13178280006F043FB20212800B4
:1021B00006F0D5FA0124200070BD0122210028007C
:1021C00006F0B2FD3070FFF7B3FFF3E750AA00004E
:1021D000F2050020FC2E0020B001002073B51D4C3C
:1021E00023784F2B1DD81C4D280005F096F90028A8
:1021F00019D1280005F08EF90223184005006B1E46
:102200009D41164EEDB2002811D13378002B07D036
:10221000134B21781868002802D00368DB689847C0
:102220003570002076BD05F0B7F8407FE4E70D4B30
:1022300000221878FF2104F0E5FB01AB18700204BE
:102240000002120E000E98705A700199207803F067
:102250003BF8E5E70000002034270020B201002011
:1022600030060020B3010020FF230A4930B50B706F
:1022700000230948DCB2502B08D05A0012185578B8
:102280001278392A04D1002D02D10C70002030BD03
:102290000133EFE7000000207D02002010B5FFF7BA
:1022A000E3FF10BD10B5FFF7DFFF10BD002802D01F
:1022B000024B416003600A707047C0464CBD00008D
:1022C000002807D0044B4160036080235B028360D9
:1022D000FF2303737047C04634BF0000002807D0B7
:1022E000044B4160036080235B028360FF23037320
:1022F0007047C0461CBF000010B5044804F0EAFA5D
:10230000034B1A68034B1A6010BDC046CA06002072
:1023100024020020BC01002070B504000D0016004E
:10232000002801D002F03CFF2E70200070BD10B5D7
:102330000368C9B21B68984710BD704710B50524E3
:1023400008002200024908F07AFA200010BDC046B9
:1023500039AB000010B501F099FF10BD10B50D4864
:1023600002F0F4F90C4802F08DF80C48FFF796FFE4
:102370000B4803F0B9F80B4803F0E6FE0A48FFF7F4
:10238000BDFE0A4802F078FC094803F0DFFC00209B
:1023900010BDC046E7050020E1050020B101002086
:1023A0002E06002072060020B40100201306002033
:1023B0004206002010B5044802F06EFA034802F00D
:1023C00003FC002010BDC046E705002013060020D6
:1023D00010B50448FFF766FF034801F0F1FC002048
:1023E00010BDC046B10100207105002010B50248A3
:1023F00003F0C2FE002010BD7206002010B50B488D
:1024000003F006FB0A48FFF7E9FE0A4803F000F86C
:10241000094802F08FFB094803F096FB084803F0D7
:102420001DFD084804F090F8002010BD3F06002074
:10243000B10100202E060020F205002042060020F7
:102440004A0600207806002010B5054804F044F93B
:10245000044803F069FB044803F012FD002010BD9E
:10246000A4060020420600204A06002004207047EF
:1024700010B50C000349C00009180822200008F01C
:10248000DEF910BD18AB000070470000962170B552
:102490000126204C8901204806F002FD206800F04A
:1024A000A7FB0A2002F00CF80A211C4801F078FC76
:1024B000FF211B4803F0D2F9FF211A4803F0D0F99D
:1024C000194D1A4C2B68334203D1200002F08EFEC6
:1024D0002E608021164BC90000201C6001F0C0FE58
:1024E0008020000101F0F0FCFFF70EFEFFF720FE58
:1024F0001922104BB0201A700F4B183A1A800F4B4C
:102500004A321A700E4B4632FF321A8003F0C6FA76
:1025100070BDC04684B80000FC2E0020710500206C
:102520003A0600203C060020B80100201C020020D2
:102530002406002025000020200000201E0000208E
:102540001C0000201B4B07B5186800F0D9FB1A4B84
:102550001A4A19681268521A19498A4201D9002286
:102560001A601B68002B23D0164804F0D6FF002801
:1025700000D078200022FF2104F044FA01AB18704B
:1025800002040002120E000E98705A700199402049
:1025900002F09AFE0199302002F096FE0199422045
:1025A00002F092FE0199062002F08EFE02F0B8FEC3
:1025B00007BDC04684B80000BC01002024020020F2
:1025C000102700003427002070B504000D0016000D
:1025D00013780A780100284800F0ECFA012801D1AC
:1025E000012070BD33782A782100244802F0A2FF30
:1025F0000128F5D033782A782100214802F0E0FD47
:102600000128EDD033782A7821001E4802F0FEFA26
:102610000128E5D033782A7821001B4804F0C2F85D
:102620000128DDD033782A782100184801F04EFDCA
:102630000128D5D033782A782100154803F0DCFA38
:102640000128CDD033782A782100124803F07CFC91
:102650000128C5D033782A7821000F4802F0FEF90E
:102660000128BDD033782A7821000C4803F014FFEC
:10267000013843425841B4E7210200202E060020D1
:102680002006002013060020A40600207605002066
:10269000420600204A060020F005002078060020AF
:1026A00007B501AB197011006A46073211701900A5
:1026B000FFF78AFF0EBD00000822014B1A80704709
:1026C000B4010020F0B5394B85B00193002303908D
:1026D0000093374D0399280005F0CDFA0121280019
:1026E00005F017FBFF21019B28001C882140FFF704
:1026F0001EFE21122800FFF71AFE280005F066FBD7
:102700000700012005F0B2FC002F4CD1284C0399A2
:10271000200005F0B0FA2000022105F0FAFA254C5D
:10272000FEB21037BE421ADA234B009A9B199B5C0B
:102730001F481900029305F0ECFA029B1F4A5C4007
:1027400008230120611020408CB2002801D05140A4
:102750008CB2013B002BF4D10136F6B2E2E7FF2147
:1027600028002140FFF7E3FD21122800FFF7DFFDDD
:1027700000212800FFF7DBFD280005F027FB0328D8
:1027800011D1023805F072FC402FBFD1019B0233FA
:102790000193009B40330093B823009A1B019A4297
:1027A00097D1012000E0002005B0F0BD26B8000060
:1027B00028280020FFFF0000A5AC000001A0FFFFBB
:1027C000F7B52B4C07000E00010020001500019307
:1027D00005F051FA0621200005F09BFAFF212000A8
:1027E0002940FFF7A4FD29122000FFF7A0FDFF23D9
:1027F000019920001940FFF79AFD019B2000191252
:10280000FFF795FD0021200005F0A8FA051E11D163
:10281000642005F02BFC03223900200005F074FA37
:10282000200005F0D8FA3070200005F0B7F9002834
:1028300002D1FF252800FEBD200005F0CCFA0700DC
:10284000200005F0ABF90028F3D0200005F0C3FA12
:102850000190200005F0A2F9002803D0200005F027
:10286000BAFAF6E7019BFFB21B021F437780E1E74C
:102870002828002073B5114C060001000322200017
:1028800005F042FA200005F089F9002803D0200065
:1028900005F0A1FAF6E70A4D01AC2900094B30001A
:1028A0000422FFF78DFF29000422200007F0C7FF54
:1028B000638820881B04184376BDC0462828002062
:1028C000020000207C0B0000F0B55A4A85B00600DB
:1028D00059480C0002F0EEF800230500984222D17E
:1028E00009225649200008F086F82B0000281AD14A
:1028F00009345349200008F06DF8002816D05149DA
:10290000200008F067F8002849D04F49200008F05F
:1029100061F8002845D020004C4908F05BF85124AC
:102920002B0000283ED0180005B0F0BD50242F0029
:10293000474800F097FE2000002F6DD1FFF79AFF67
:102940000390C0B2FF285ED002ABDA88414B9A42B6
:1029500059D0414F2100380005F08DF9042138008D
:1029600005F0D7F9380005F031FA0190FA2080001F
:1029700005F07CFB019B002B45D031002000FFF7C8
:10298000A1FE00283FD0354B042203A92000FFF709
:1029900017FF002808D0642005F068FBF3E75124F6
:1029A000C5E750240127C3E7012104228C46294BA7
:1029B00008262B49895C4B406046591018408BB261
:1029C000002802D0274B59408BB2013E002EF3D194
:1029D000B821013209018A42EAD102AAD2889A4278
:1029E00011D12100380005F046F90321380005F027
:1029F00090F931003800FFF79AFC380005F0E6F94D
:102A000043425841C5B2280002F070F82021164810
:102A100005F0A5FE012386E7FFF72CFF0390C0B267
:102A2000FF28F0D002ABD888104BC018431E984145
:102A3000E8E7C04665AA0000F2050020CDAA000024
:102A4000D7AA0000E7AA0000F8AA0000BBAA00006D
:102A5000EE060020FFFF0000282800207C0B00006D
:102A6000A5AC000001A0FFFFFC2E00200100FFFF2D
:102A700010B5016804002D4800F07CF8012801D150
:102A8000012010BD21682A4801F076FD0128F7D009
:102A90002168284801F00CFF0128F1D02168264860
:102AA00001F080FF0128EBD02168244802F096FD58
:102AB0000128E5D02168224802F010FA0128DFD071
:102AC0002168204801F08CF90128D9D021681E48DE
:102AD00002F0FAF80128D3D021681C4800F0C6FEA5
:102AE0000128CDD021681A4801F012FC0128C7D076
:102AF0002168184801F0FAFA0128C1D02168164867
:102B0000FFF7E2FE0128BBD02168144801F0E6FF80
:102B10000128B5D02168124802F0CAFE0128AFD0C2
:102B200021681048FFF726FBABE7C04620020020D3
:102B3000E1050020E9050020E80500202D06002021
:102B40001D060020710500201306002070050020DE
:102B5000BA05002076050020B6010020F20500200D
:102B60003E060020AC01002007B5019001A8FFF748
:102B70007FFF0EBD70B50B4E0B4832000D000024D8
:102B800001F098FFA0420AD13100280007F022FF8F
:102B9000A04204D10549064805F0D9FD01342000C2
:102BA00070BDC0467FAC0000F205002087AC00007D
:102BB000FC2E002010B5024802F028F810BDC046D7
:102BC0001306002070B5084D0400280004F0A5FC91
:102BD0002100002803D1280004F0D2FC70BD034876
:102BE00004F0F8FDFAE7C0463427002080270020D3
:102BF000962110B589010A4806F052F90024FFF722
:102C00009CFBFFF7ABFB00F09DFD00F0E5F8201CFE
:102C10000134E4B200F0A2F8502CF8D110BDC04647
:102C2000FC2E002070B54379057904001D402B0768
:102C300002D5E120FFF7C6FFEB0702D5E020FFF742
:102C4000C1FFAB0702D5E220FFF7BCFF6B0702D53F
:102C5000E620FFF7B7FFEB0602D5E320FFF7B2FF50
:102C6000164D280004F059FCA179061E10D1002948
:102C70000AD0280004F0A1FC280004F055FCA1793A
:102C8000280004F07DFCA671280004F04DFC70BD06
:102C90000B4D00290BD0280004F0B7FD280004F0EC
:102CA00049FDA179280004F095FD0023A3712800B7
:102CB00004F040FD034804F0FBFCE8E73427002063
:102CC0008027002060270020002310B5094C837165
:102CD0004371200004F021FC002803D1200004F0FF
:102CE00095FC10BD044804F0ACFD044804F0D0FC91
:102CF000F7E7C04634270020802700206027002007
:102D000010B505F0ADF9094B1860FFF753FB00F063
:102D1000ADFBFFF773FB064C2000FFF783FF20009D
:102D2000FFF7D2FFFFF790FB10BDC0462402002042
:102D3000E006002050235843C9B241180648490014
:102D4000091808784A78AF33184013401B0282B044
:102D5000184302B07047C0463FAB000070B5084A48
:102D6000C3B25D00011CD05C064B074C1B68984742
:102D700000B2285500046419000E607070BDC04692
:102D80002C020020080000207D020020012110B547
:102D9000094B1C68094B1B78013BDBB2DAB2002BF4
:102DA00007D02000D840013B0842F7D0044B1A70EE
:102DB00010BD034A1370FBE7280200200600002024
:102DC0007C0200200300034A1068D8400123184009
:102DD0007047C04628020020F7B5144E502200214B
:102DE000300007F035FD0025EFB2502D1DD0002436
:102DF0000F4B1C57002C13DDE4B22000FFF7E2FF5D
:102E000000280FD00B4B391C1B682000984701ABE2
:102E10001880C0B2FF2802D15B78FF2B02D0745516
:102E20000135E1E7013C64B2E4E7F7BD2C02002084
:102E30007C0200200800002010B5084B084A1B78CF
:102E400098429B411840012383401360FFF79EFF87
:102E5000FFF7C2FFFFF7BCFA10BDC0460600002016
:102E6000280200200A4910B50B6801221C00C4404A
:102E700014420CD0824093430B60064B1B78834274
:102E800001D1FFF783FFFFF7A7FFFFF7A1FA10BDFE
:102E9000280200207C02002010B50D4B04001B7896
:102EA000834213D9FFF78EFF00280FD10123A340DF
:102EB000084A11680B431360074B1B78A34201D2E9
:102EC000FFF764FFFFF788FFFFF782FA10BDC046E7
:102ED00006000020280200207C02002010B5034BD1
:102EE00018780130C0B2FFF7D7FF10BD7C02002078
:102EF00010B5024B1878FFF7B5FF10BD7C0200201B
:102F000013B5C4B201AB1880532C09D9032319405F
:102F1000022904D120005438C0B2FFF78DFF13BD41
:102F2000292C2BD92A3CE4B2212C0DD0222C12D1F1
:102F300003231940022902D1FFF7D0FFEFE701294F
:102F4000EDD1FFF7D5FFEAE7032319400229F8D0B6
:102F50000129E4D1F0E78B0708D52000FFF732FF05
:102F60000028DCD12000FFF797FFD8E703231940A2
:102F70000129D4D12000FFF775FFD0E703231940C2
:102F80000229CCD12000FFF71DFF0028EAD0002C39
:102F9000E8D0EFE730B585B001AD030428801B0E03
:102FA00003AC442B07D083B22380637820781B02C4
:102FB000184305B030BD11000198FFF7A1FF0023B1
:102FC000F2E7000010B504000100012005F00AFB43
:102FD000014B1C7010BDC0461D03002073B51B4D76
:102FE0001B4C2978200000F055FD1A4E297830003E
:102FF00000F050FD200000F0ADFD05003000EDB206
:1030000000F0A8FD144B012D03D0C0B2002201280E
:1030100000D101221A7022000023393213702200DD
:103020003A3213700D4A3B34127823709A420CD016
:1030300001AA13809370019802F08AF9084B18686E
:10304000002802D003685B68984773BD0C0000201D
:103050002803002020040020200300201700002067
:1030600030060020C043084BC0B2D9331870074B5C
:103070000122D93318700023054806491A545A54BE
:103080000133092BFAD170472803002020040020C7
:103090001805002021050020024BD9331878C043C1
:1030A000C0B270472803002070B580240D4E0E4D2D
:1030B00033786400E95C0320611A0902013905F0E4
:1030C0005BF973780520E95C611A0902013905F0A2
:1030D00053F9B3780420E95C611A0902013905F05B
:1030E0004BF970BD2B050020E2B9000070B500243B
:1030F000104DE6B2635D002B05D031000E4800F0A4
:1031000065FD002363550D4D635D002B05D0310037
:103110000B4800F05BFD002363550134092CE7D117
:10312000084C2378002B03D0FFF7BEFF0023237049
:1031300070BDC0461805002028030020210500208E
:10314000200400202A050020F7B501AB0191832857
:1031500018D81C7859789A78832814D12C480123E0
:103160000578A54207D145788D4204D183789B1A12
:103170005D1EAB41DBB2274D04702E7841703343A6
:103180002B708270F7BD244B1D7885235D43234B44
:103190005B191B5C472B1BD803255D432048214E40
:1031A0002D182878DB0884466F78A8782C70697011
:1031B000AA70F55C00950125644505D1B94203D19B
:1031C000121A501E8241D5B2009A1543F554D9E720
:1031D0008F2BD7D80320483B5843134DDB104019A1
:1031E00005784778AC46114D86780470417082703E
:1031F000E85C00900120644505D1B94203D1921BDF
:10320000561EB241D0B2009A1043E854BAE7C04605
:103210002B0500202A0500202003002088B800008C
:10322000280300201805002020040020210500208C
:1032300013B501AC83280AD900232380A3706278D8
:103240002078A37812021B041043184316BD0C4BC0
:103250001A7885235A430B4B9B18195C472907D8CA
:1032600003225143084B5918200007F0E8FAE6E71B
:103270008F29E1D8032248395143044BF3E7C04674
:103280002003002088B8000028030020200400202C
:10329000012110B5080005F059F90020FFF792FE52
:1032A000102005F031F8FFF7FFFE0A2004F0DEFEE3
:1032B0000120FFF787FEFA20400004F0D7FE10BD82
:1032C000F7B5394F08223900384807F0B8FA384CBA
:1032D00008222100374807F0B2FA374E300000F0DC
:1032E0003EFC002812D03100684600F067FC08223E
:1032F0006946380007F0A3FA304B1B78012B05D143
:10330000FA7802331A4201D05340FB702C4D28004A
:1033100000F025FC002816D02900684600F04EFC7D
:1033200008226946200007F08AFA244B1B78012BFB
:1033300009D16278A17810004840184203D05A4061
:103340004B406270A3703300D8331B78002B03D03E
:103350001C4B1B78002B08D02B00D8331B78002B7C
:1033600005D0194B1B78002B01D1FFF737FED8365B
:103370003278002A07D1134B1B78002B03D0002092
:10338000002138607960D8352B78002B07D10E49A1
:103390000978002903D000200021206061600949DC
:1033A0000A70094A1370F7BD380500206005002037
:1033B000500500206805002028030020200300207D
:1033C000200400204805002058050020F0B5002604
:1033D00085B000257300DBB20193204B77193A00CA
:1033E0001868596807F0B0F9022344001C401C4BD0
:1033F0003A001868596807F0A7F9012202402243F1
:1034000007D0002302A90B80019B0298591903F0F1
:1034100003FD144B3A001868596807F095F9022328
:1034200044001C40104B3A001868596807F08CF9AA
:1034300001220240224308D0002103AB19800199E8
:1034400003980F31491B03F0E7FC0135082DC4D167
:103450000836282EBDD105B0F0BDC0463805002085
:1034600060050020500500206805002010B5FFF71A
:1034700027FFFFF7ABFF10BDC0B210B54F280CD827
:103480000F22012302400009072A07D91021054C09
:103490008A1A9340225C9A43225410BD024C0821A0
:1034A000F6E7C0464005002030050020C3B20020EA
:1034B0004F2B0BD819000F221B091140072906D9E1
:1034C0000548C05C521A1041012318407047034A56
:1034D000D05C0722F6E7C0464005002030050020FA
:1034E000C0B202000F2300091A40072A06D9054975
:1034F0009B1A085C1841012318407047024B185C66
:103500001041F8E7500500203805002010B5074BA2
:103510001868596807F024F9054B040018685968C1
:1035200007F01EF92018C0B210BDC04638050020B3
:103530005005002070B50024064B0121E55C0134E4
:10354000280005F003F80021280005F04BF8262C90
:10355000F2D170BDE2BA0000014B18787047C04646
:103560001D030020481E814110B5C8B2FFF72AFD97
:1035700010BD000010B5024800F0DDFAC0B210BD69
:103580002803002010B5024800F0D5FAC0B210BDE3
:1035900020040020014BE4331878704728030020F2
:1035A000014BE433187870472004002010B502481E
:1035B00000F0C6FAC0B210BD2803002010B50248C2
:1035C00000F0BEFAC0B210BD2004002010B50248C1
:1035D00000F0BBFAC0B210BD2803002010B50248AD
:1035E00000F0B3FAC0B210BD2004002010B50C00EA
:1035F000034800F059FA2100024800F055FA10BDC6
:103600002004002028030020024B18780138434290
:10361000584170472003002010B5024800F04FFACF
:10362000C0B210BD20040020014B18887047C0466E
:103630000C0000200022002310B50749074C0A6047
:103640004B60074920000A604B60FFF73DFB2000FC
:10365000FFF7E8FA10BDC04638050020E00600205C
:103660005005002010B5134C200004F0FFFA002094
:10367000FFF7A8FC0121152004F068FF01211420A8
:1036800004F064FF0021152004F0ACFF0021142099
:1036900004F0A8FFFFF7CEFF0120FFF793FC200006
:1036A00004F0B6FA0449200004F0D2FA642004F0D1
:1036B000DDFC10BD28280020A086010070B5150093
:1036C00006000C00127803F0ADFC30006A78611C33
:1036D00003F0A8FC280070BDF7B5022001F008F83F
:1036E000144C154E010005003080200003F07AFCD8
:1036F0006B46691C987120009F1D03F073FC787065
:103700003A880E4B0E4F9A4207D131883A0020007A
:10371000FFF7D4FF200003F089FC35882000290042
:1037200003F060FC691C3870200003F05BFC7870CB
:10373000F7BDC046F00600201E030020FFFF00007A
:103740000C00002010B5FFF7C7FFFFF7F3FEFFF7EF
:103750009FFD054C200004F05BFA0449200004F0B2
:1037600077FAFFF73BFC10BD28280020A086010057
:1037700070B50400C5B22900094800F08BF9290092
:10378000084800F087F9084A084B1480084C19884B
:103790002000FFF793FF200003F048FC70BDC046F7
:1037A00028030020200400200C0000201E0300201D
:1037B000F006002010B50800FFF7DAFF10BD00008A
:1037C000144A00231100D8310B701100D9310B704D
:1037D0001100DC310B6011005820E031086011004D
:1037E000F03213700C4AE4310B701100D8310B70B9
:1037F0001100D9310B7011005738DC31086011000D
:103800005830E03108601100F032E4310B70137071
:103810007047C046280300202004002010B5012274
:1038200004000021024805F07FFA207010BDC04658
:10383000FC2E002010B5054C0100200004F08BFF89
:103840002021200004F08BFF10BDC046FC2E00207C
:1038500010B5054C01000A22200004F0EAFF2021E7
:10386000200004F07CFF10BDFC2E002073B5734ACD
:1038700073480D00002401F01DF9A04211D1092266
:103880007049280007F0B7F8A0420AD109356E49FF
:10389000280007F09FF8A04205D16C48FFF7CAFF47
:1038A0000124200076BD6A49280007F093F800281B
:1038B00001D16848F2E76849280007F08BF8002832
:1038C00015D1664805F080FA654C0A2805D120001C
:1038D000FFF742FEFFF7BCFFE2E76B46DD1D280065
:1038E000FFF79CFF29782000FFF73CFED8E75D49F1
:1038F000280007F06FF800280FD15B48FFF79AFF08
:10390000574C2000FFF736FEFFF7A2FF5748FFF79E
:1039100091FF2000FFF736FEDCE75549280007F04D
:1039200059F800280FD15048FFF784FF4C4C200075
:10393000FFF730FEFFF78CFF4C48FFF77BFF2000BE
:10394000FFF72EFEC6E74B49280007F043F8002892
:103950000FD14548FFF76EFF414C2000FFF726FED0
:10396000FFF776FF4148FFF765FF2000FFF726FECF
:10397000B0E74149280007F02DF800281ED137484C
:1039800005F022FA364C0A280ED13748FFF752FFCD
:103990002000FFF71BFEFFF75BFF3448FFF74AFFED
:1039A0002000FFF71BFE95E76B46DD1D2800FFF7A3
:1039B00035FF29782000FFF719FE71E72F4928000D
:1039C00007F008F8002808D12D48FFF71DFE2D4B01
:1039D000012800D02C4B180060E72C49280006F085
:1039E000F9FF002803D12648FFF716FE72E72849A1
:1039F000280006F0EFFF0024A04200D051E7174C4A
:103A0000200005F0E1F91E4D06000A280CD128001F
:103A1000FFF70AFE32000100200004F0FAFE202128
:103A2000200004F09CFE3BE76B46DC1D2000FFF706
:103A3000F5FE21782800FFF7BDFE31E711BB00003D
:103A4000F2050020CDAA00007FAC0000C6BB00003C
:103A5000BDBB0000D2BB0000DCBB0000FC2E002080
:103A6000EE060020E7BB0000F0BB0000F6BB000044
:103A7000FEBB000009BC000012BC00001FBC00001F
:103A8000EF06002008BB00000DBB000026BC0000B4
:103A90002CBC000007B5022201AB5970E0301900C0
:103AA0001A7000F0C7F80EBD07B50D2201AB1A70F1
:103AB0005970E0300B3A190000F0BCF80EBD37B574
:103AC0000B236A46E030137069460122040000F0BF
:103AD000B1F8002802D0012040423EBDA0239B0047
:103AE000013BFDD101AD02222900200000F0E4F8E5
:103AF0000228F0D168782B780002C018EDE737B5BE
:103B00006B46E030197001226946040000F092F81B
:103B1000002802D0012040423EBDA0239B00013B73
:103B2000FDD101AD01222900200000F0C5F80028D8
:103B3000F0D02878F0E710B50121FFF7E0FF10BDC5
:103B400010B50821FFF7DBFF10BD10B50D21FFF701
:103B5000D6FF10BD10B50C21FFF7D1FF10BD13B576
:103B6000040006220021684606F072FE20000622AC
:103B7000E030694600F0A0F8831F5A42534122000A
:103B8000D83213700023062816D16A461278012A0B
:103B900012D1694623004978E8331970694689785B
:103BA000EC3459706946C978997069460979D970B9
:103BB0006B465B7923701300180016BD10B5040026
:103BC000E831082206F03BFE200010BD0B00F0B5E6
:103BD0008BB0803B03AF3B700300D9331B780500EB
:103BE0000093182301244B430193019B0099E31890
:103BF000013BEB5C0022994201D25B1ADAB20C4B1A
:103C000003219E5C20003E5506F098FD012903D15A
:103C1000192E01D91A3E3E550134192CE5D1280040
:103C200022003900E03000F005F80BB0F0BDC046CE
:103C300034BC0000F7B51E4C0E0001682000C9B26C
:103C4000170004F018F800211A4B0A00FF2518127B
:103C50002A40974210D9725C01315A4052B2D3B215
:103C60001B015A40D2B213119C466546D300120282
:103C70006B4010434340E8E701AD28703A00310043
:103C800020006B7003F06AFF002801D10120FEBD07
:103C900002222900200003F061FF0028F6D0012154
:103CA000200004F05BF8431E9841C0B2EFE7C04625
:103CB00028280020FFFF0000F7B50368204D07000B
:103CC00001911400D9B202320123280003F0EBFF66
:103CD000002834D00026FF2328003340A34205D219
:103CE00004F079F8019B98550136F4E704F073F875
:103CF0000600280004F06FF83602301883B29C46A4
:103D00000021FF260F4A0B0033409C4210D9019B33
:103D10005B5C013153405BB2D8B200014340DBB27F
:103D20001D11D80012121B0268401A434240EAE7F4
:103D3000E0B2624503D000203B7901333B71FEBD08
:103D400028280020FFFF00007047704710B5064B81
:103D50001978064B1970064B1B788B4203D3054B21
:103D6000188801F077F810BD7C0200207205002051
:103D7000730500207405002010B50A1C054B064988
:103D80001B780978994204D304490888190001F086
:103D90007BF810BD7205002073050020740500201B
:103DA00010B5054C2388002B05D1044B0800197071
:103DB00000F0EAFF208010BD74050020730500208C
:103DC00010B5054B02781B789A4203D1034B186853
:103DD000FFF7BCFF002010BD1600002030060020B9
:103DE00007B5054A054B12781B8805480092054A1D
:103DF00001F0E8F80EBDC0467305002074050020F0
:103E00001D06002034BD0000FF22014B1A707047D0
:103E10007105002010B50100014803F0E3F810BD62
:103E2000F0060020F7B50024244F254B3E881C8067
:103E30000194244A3B8812889B189E423DDA751CE7
:103E40003000ADB2FFF7E6FF0D280BD806F0FCFA04
:103E50002807070C0C0C0707070909090E1E023674
:103E6000B5B200242E00E4E70336F9E72800FFF797
:103E7000D1FF6C1CA4B206002000FFF7CBFF064365
:103E80000235F4B2ADB2002CF0D1EBE72800FFF719
:103E9000C1FF0135ADB204002800002CF7D1E1E7E5
:103EA000019B07490133DBB25A0001933B88EB1AAF
:103EB0008B52002C01D10134D4E7F7BD78050020E6
:103EC0007C0500207A05002010B5040000F010FCED
:103ED000034B1880034B1C80FFF7A4FF10BDC046A6
:103EE000780500207A0500207FB501AC20800E0007
:103EF00015008B0710D582B202AB1A80104B8222BC
:103F00001978029802F088FF002D05D10D48FEF7C0
:103F100089FE0D4803F0C6FCF30710D5228803ABD9
:103F20001A80074B81221978039802F075FF002D43
:103F300005D10448FEF776FE034803F0B3FC7FBDCD
:103F40005CBD0000E0060020CC27002073B50E0009
:103F50001D001400FFF75EFF01AB5E7018702A00B1
:103F600021000198FFF7C0FF73BD0000F0B50025E8
:103F70002E00524B4900CF5A514B85B018883F183C
:103F8000BFB23800FFF746FF7C1C0138A4B20C28F2
:103F900000D990E006F058FA141C24313C475055E3
:103FA0008D070D5B78000025300004F05FF82700D6
:103FB000E7E74448FEF736FE434803F073FCF3E7B7
:103FC0002000FFF727FF06000237BFB23C00EBE7F7
:103FD00002372000BFB2FFF71DFF04F047F8F5E7F6
:103FE0002000FFF717FF2B000222FC1C0237010004
:103FF000A4B2B8B2FFF7AAFFD6E72000FFF70AFF86
:10400000FC1C02370100A4B2B8B22B000122F1E778
:104010002000FFF7FFFEFC1C02370100A4B2B8B27B
:1040200000230322E6E72B0002220237BFB2002161
:104030002000FFF78BFFC9E70237BFB22B00012238
:10404000F5E700230237BFB203221900F0E7200092
:10405000FFF7E0FE671CBFB201903800FFF7DAFE01
:104060006A460700127903AB5A70187000220321C8
:104070000398FFF739FF300003F0F8FF019B02348B
:10408000A4B23B43E3D18FE72000FFF7C3FE002239
:1040900003AB18705A700321013407000398FFF72F
:1040A00023FFA4B2300003F0E1FF2000002FECD189
:1040B0007AE7012578E705B0F0BDC0467C05002011
:1040C00078050020E0060020CC27002010B54A78B3
:1040D0000024602A07D15D3A13400134022B02D13B
:1040E0000978FFF743FF200010BD0000F7B5304A04
:1040F000019030480D00002400F0DCFC0600A042D6
:1041000054D107222C49280006F075FC3400002801
:104110004CD107352949280006F05CFC041E36D135
:10412000274E300004F050FE0A2814D1254B1B887E
:10413000A3422CD9244B18880019FFF76BFE0A22E2
:104140000100300004F075FB01342021300004F040
:1041500006FBA4B2EAE7300004F036FE1B4F0A2843
:1041600010D001220021300004F0DEFD631C9BB260
:104170000093154BC2B219883800091902F03EFFAE
:10418000009CE8E7380002F051FFFFF74BFE1049B2
:10419000280006F01FFC0124011E07D12200084858
:1041A00004F0C2FDC1B20198FFF7E0FE2000FEBDA1
:1041B0005DBD0000F205002077BD000088BD000055
:1041C000FC2E00207A05002078050020F006002053
:1041D0006FBD000070B5074E0D00040001003000F7
:1041E00002F000FF611C2870300002F0FBFE6870D6
:1041F000280070BDF0060020F8B500242600134BFF
:10420000134F1C70134B3D881C80134A3B88128847
:104210009B189D4210DA2900104802F0E3FE023597
:10422000ADB2002809D101363B88F6B209497200C7
:10423000EB1A8B52002C02D0F8BD0024E5E7034BAB
:10424000024A1B78012401331370DEE7BB0500200E
:10425000BC050020C0050020BE050020F00600209F
:1042600070B5050008000C0000F042FA044B1880FD
:10427000044B1C80044B1D70FFF7BEFF70BDC04691
:10428000BC050020BE050020E0050020F7B51C009D
:104290001A4B0D1C19781A4F431A06005800C05BC0
:1042A000013A01335B0052001218D85B92B200232E
:1042B000904219D91348007841188E4214DC124BF1
:1042C00001A91888101880B2FFF784FF601E01232F
:1042D000032809D806F0B8F80A02020C8222291C29
:1042E000019802F099FD01231800FEBD8322F6E734
:1042F0000648FEF797FC8122F1E7C046E005002062
:10430000C0050020BB050020BC050020E006002001
:10431000F0B5324A85B032480C0000F0CBFB0023E8
:10432000050098420FD109222E49200006F063FBB8
:104330002B00002807D120002B49093006F04AFB4A
:10434000041E03D00123180005B0F0BD274E300035
:1043500004F03AFD0A281BD1254B1B88A342F1D952
:10436000244B03AD18882900201880B2FFF732FFD4
:104370006B7829781B02C91889B20A22300004F030
:1043800048FA02342021300004F0E9F9A4B2E3E74E
:10439000300004F019FD184F0A2819D0012200211D
:1043A000300004F0C1FC0500124BC2B2198838007D
:1043B00061188BB21900019302F034FE019B2D129B
:1043C000EAB2591C3800023402F02CFEA4B2DFE736
:1043D000380002F02BFEFFF70FFFB3E77FBD0000B0
:1043E000F20500208CBD000088BD0000FC2E0020DE
:1043F000BE050020BC050020F0060020F0B5134BE0
:1044000085B01B7803AD834207D800232B806B78DF
:1044100028781B02184305B0F0BD502444430C4FCC
:10442000C9B26418640039880A4EA4B2091901316E
:10443000300002F0D7FD398801900919300002F0F0
:10444000D1FD6B461B7968702B70E0E7E205002018
:10445000E4050020F006002013B5094B01AC1B78E1
:10446000834207D9FEF766FC2080637820781B0220
:10447000184316BDC01AC0B2FFF7C0FFF4E7C0462C
:10448000E605002010B5044800F060F9034B002059
:104490001A78034B1A7010BDE705002006000020B3
:1044A000E6050020044B10B51870A023584300F017
:1044B0001FF9024B188010BDE2050020E405002022
:1044C000094B0A491B7810B5DB090870084A04D06B
:1044D000084B1360FFF7E6FF10BD074B1B78C318AE
:1044E0000B70064BF5E7C046EC05002006000020E7
:1044F00008000020FD430000E605002059440000AC
:10450000F7B50A4E01AF3980094C0A0431884500DD
:1045100049192000120E02F071FD31883A784919CC
:104520000131200002F06AFDF7BDC046E40500201D
:10453000F0060020F0B50F00002585B00190EBB229
:104540000093019BAB4213D00024211C0098B84774
:10455000084E81B20A223000013404F05AF9E4B264
:104560002021300004F0FBF8502CEED10135E6E7B5
:1045700005B0F0BDFC2E002073B5404A40480D0048
:10458000002400F097FAA04220D107223D492800DC
:1045900006F031FAA04219D107353B49280006F050
:1045A00019FA0600A0422ED1384C200004F00CFC71
:1045B00002000A280CD1364B20001978C90904F0F2
:1045C00038F92021200004F0CAF80124200076BD2B
:1045D00001223100200004F0A7FB01ABC4B2187027
:1045E000200000F015F92B4B2B491B782B4A0B7040
:1045F000002C02D02A4B1360E7E72A4800781B18EA
:104600000B70294BF7E72949280006F0E3F9002849
:1046100005D1244B26491878FFF78CFFD5E72549AB
:10462000280006F0D7F90028D0D1184D50262800D0
:1046300004F0CAFB0A2803D1164B19491878EBE796
:10464000280004F0C1FB0A2814D0124B1B787343D6
:104650009C420FDA01220021280004F065FB01AB27
:10466000021218705A70200001990134FFF748FFB8
:10467000A4B2E5E7104802F0D9FCA6E796BD000019
:10468000F2050020C5BD0000BABD0000FC2E0020D0
:10469000EC050020E20500200600002008000020B4
:1046A000FD430000E605002059440000CDBD000098
:1046B000352D0000D5BD0000F006002010B5054CDA
:1046C00001000A22200004F0B4F82021200004F0A8
:1046D00046F810BDFC2E00200020034B1B788342BF
:1046E00001D0024B58887047EA050020EC050020F5
:1046F00013B56B460024991D074B08801B78A34215
:1047000008D1064A83B214880548E31813800222B0
:1047100002F008F9200016BDEA0500200E00002076
:10472000CC060020F7B507000D0016000C000B1D8D
:104730000193731B1A5D2100380002F073FC019B8A
:1047400001349C42F5D13000FEBD000070B500255B
:10475000114C2900200002F045FC104A6E1C5055F7
:104760003500042EF4D15378FF2B12D11178803B01
:104770000B40D8B27F2803D1C90901D083431370FD
:104780000123002120005370FFF7CCFF200002F02E
:104790004DFC002070BDC046F0060020EC05002056
:1047A00010B5064C064A00212000FFF7BBFF200091
:1047B00002F03CFC0122034B1A7010BDF0060020F1
:1047C000EC050020EB05002070B50F4B05001B78B1
:1047D0000E4C834208D9FEF72FFB7F222900237855
:1047E000114093430B4323707D2D06D97F222378FC
:1047F00093431A007E2313432370FFF7D1FF2078E1
:104800004006400E70BDC04606000020EC050020AA
:104810007F23094AC101107810B518400843107071
:10482000C0B203407F2B03D19843013B1843107063
:10483000FFF7B6FF10BDC046EC050020012270B5A1
:10484000104D114B102128001A7002F057F80F4C30
:104850006378012B03D000220D4B1A7070BD628863
:104860000C492B888A420AD16380FFF799FF207890
:104870004006400E7D28F1D8FEF7DEFAEEE79A42B8
:10488000ECD1F4E7CC060020EA050020EC0500207E
:10489000EB050020FFFF0000044B10B51B78002B38
:1048A00001D1FFF7CBFF002010BDC046EA05002074
:1048B00070B5304A30480C00002500F0FBF8A842E3
:1048C0003FD109222D49200006F095F8A84238D1A1
:1048D00009342B49200006F07DF8A8420AD1294C62
:1048E000200004F071FA0A283BD1274B18784006C3
:1048F000400E2AE02549200006F06CF8002827D059
:104900002349200006F066F800281CD02149200029
:1049100006F060F8002814D11F4B1E88FFF7DCFE5C
:104920000500184C0A223100200003F072FF1B49D9
:10493000200003F00CFF0A222900200003F069FF89
:104940000125280070BD104B5878FFF7B7FEF7E738
:10495000134B187800F0CAF820210A4803F0FFFE34
:10496000EEE701222900200004F0DEF9C0B2FFF7D3
:104970002BFFE5E708BE0000F20500204CBE00005A
:1049800056BE0000FC2E0020EC05002063BE000097
:104990007FAC000048BE0000CC0600206ABE0000CC
:1049A000EB05002070B5264A26480E00002500F0D1
:1049B00081F8A84236D12449300006F00BF80400F3
:1049C000A8421AD1214D280004F0FEF90A282BD064
:1049D0008026B601280004F0F7F90A2821D0012228
:1049E0000021280004F0A0F92100C2B201341848C7
:1049F00002F004FBB442EDD113E01649300005F09B
:104A0000E9FF00280ED18021134B104C1B8889012F
:104A1000C91A0A22200003F0FCFE2021200003F026
:104A20009EFE0125280070BD8025AD0121000848AB
:104A300002F0D8FA0134FFF741FEAC42F6D1F0E7BC
:104A4000DCBD0000F2050020F8BD0000FC2E0020B7
:104A5000F0060020ECBD00000E0000200A7810B522
:104A6000292A05D14A78002A02D158B2002801DA51
:104A7000002010BD0E480478002C01D00A704A7046
:104A800003221340013B5A1E9341037001F042FA86
:104A9000002808D101F096F90028EAD0012001F0A1
:104AA0003BFB0120E5E701F07FF90028F2D1F5E7B3
:104AB000F105002010B508000649140005F08AFF32
:104AC0000023984204D12100034803F055FE01233E
:104AD000180010BD6CBE0000FC2E002010B5024A6C
:104AE000FFF7E8FF002010BD6CBE000010B50449C0
:104AF000002800D10349044803F029FE10BDC04638
:104B000075BE00007ABE0000FC2E002010B5084CD7
:104B1000200004F03FF9002808D0200004F054F9E8
:104B20000A2803D0200004F05DF9F6E710BDC04666
:104B3000FC2E0020F7B51C4C0126200004F02AF9B9
:104B400000282CD0200004F04DF9184D731EEB18EE
:104B500018702000F7B2019304F036F90A2807D044
:104B6000019B1B78202B03D00136212EEAD1202770
:104B70007A1EA95C0023202913D1AB542800FDF72D
:104B8000F3FF0B49200003F0F7FDFFF7BFFF200004
:104B900004F01AF90A2802D1200004F023F90020B9
:104BA000FEBDEB55EAE7C046FC2E0020F3050020D1
:104BB00071BE0000FA2110B5024B8900186805F09B
:104BC0004DFC10BD100000200B4B10B51A68002AD8
:104BD0000FD00A4B1B78002B0BD0094B09491B68DF
:104BE00009685B1A9A4204D200F094FC0122064B39
:104BF0001A70002010BDC0461000002017000020D1
:104C000024020020180600201C06002010B5074CC6
:104C10002378002B03D000F05BFC00232370044BAF
:104C200000201A68034B1A6010BDC0461C06002005
:104C30002402002018060020FA2370B504009B000F
:104C400043430A4A0A4E13600A4BC2B21D88300021
:104C5000290002F0E7F92204691C3000120E02F06C
:104C6000E1F9300002F0E2F970BDC046100000200A
:104C7000F00600201406002073B50220FFF738FD6F
:104C80000D4B0E4E188001000500300002F0AAF90D
:104C90006B469C1D2070691C300002F0A3F9607007
:104CA0002288074B9A4202D1064B1B68238020883A
:104CB000FFF7C2FF002076BD14060020F00600209A
:104CC000FFFF00001000002070B5184E1848320099
:104CD0000D000024FFF7EEFEA0421CD13100280099
:104CE00005F078FEA04216D1124D280004F06CF8B1
:104CF00006000A2811D1FA210F4B8900186805F027
:104D0000ADFB32000100280003F087FD20212800C0
:104D100003F025FD0124200070BD012221002800A0
:104D200004F002F880B2FFF787FFF3E780BE0000CF
:104D3000F2050020FC2E00201000002010B5054CCC
:104D400001000A22200003F074FD2021200003F05E
:104D500006FD10BDFC2E0020094B07B51B78002B6B
:104D60000DD0002201AB1A809A70019800F0F0FA81
:104D7000044B1868002802D003685B68984707BD99
:104D8000170000203006002070B5074C050023886E
:104D9000002B03D13020FFF7ABFC2080422068437A
:104DA000FFF7A6FC70BDC0461E06002010B50C0023
:104DB00049080918054802F015F902000011C0B2AF
:104DC000E30701D50F20104010BDC046F0060020BB
:104DD000F7B50324124B44431888124F2418A4B289
:104DE0002100380002F0FEF8611C0600380002F0D5
:104DF000F9F80500A11C380002F0F4F8F6436B4600
:104E0000ED431E705D701A88FF231100120A1940CD
:104E1000120283431B040A431A431000FEBDC0461E
:104E20001E060020F006002007B5FFF7BFFFFFF7C2
:104E3000CFFFFF210300020A0A4012020B40134376
:104E4000000C034A08400004134018430EBDC0463E
:104E5000FFFF00FF37B5422500244D434519ADB291
:104E6000A1B22800FFF7E0FF01AB187002040002B6
:104E7000120E000E98705A70E0B20199013400F0E1
:104E800017FA842CECD137BD422313B55943D3B262
:104E90004018141C80B2FF214F2B01D8084AD15C66
:104EA00089B2FFF7C1FF01AB187002040002120EB5
:104EB000000E98705A700199201C00F005FA13BD7D
:104EC00092B9000010B5044803F07EFF0A3843424F
:104ED0005841C0B210BDC046FC2E0020F0B5344E83
:104EE00085B0320033480C00FFF7E4FD05000020D8
:104EF000854220D12000310005F06CFD040028001F
:104F0000002C18D1FFF7DEFF002816D02000FFF795
:104F10005FFF06040502360EC0B2FFF70FFF2D0E2D
:104F200030000134FFF70AFFE4B22800FFF706FF64
:104F3000102CEBD1012005B0F0BD0400FFF7C2FF3B
:104F40001D4D061E2ED11D4F01000122380003F019
:104F5000EBFE310000900122380003F0E5FE310045
:104F600001900122380003F0DFFE154B07001E8878
:104F7000009BA619DA43B6B2D2B23100280002F083
:104F800051F8019B711CDA432800D2B202F04AF8B2
:104F9000FA430334D2B2B11C2800A4B202F042F8A2
:104FA000302CCBD1280002F041F8FFF7D5FEC1E745
:104FB00094BE0000F2050020F0060020FC2E002028
:104FC0001E060020F0B585B002932F480AAB0C00F6
:104FD00017001E78FFF76EFD05000020854251D1B5
:104FE0002000390005F0F6FC04002800002C49D10F
:104FF000422373430193FFF765FF00281BD0F0267F
:10500000019AA3B293423CD2029B2048191901F0A5
:10501000E9FF05000011C0B2FFF790FE29001C4F08
:10502000B1430A22380003F0F4FB2021380003F0DA
:1050300096FB0134E4E70400FFF744FF134F061E1C
:105040001AD1019AA3B29A4216D9114D0100012238
:10505000280003F069FE012203903100280003F0CC
:1050600063FE039B1A01029B12181919D2B2380071
:1050700001F0C4FF0134DFE7380001F0D7FFFFF78C
:105080006BFE012005B0F0BDF2050020F006002007
:10509000FC2E00207047704713B508780C00C04301
:1050A000C3B21A0023209911C9435A4340425843BE
:1050B00052430012120E8A1A2330D2B2C0B2FF211C
:1050C00001F05AFC6B466A46187003041B0E5370BD
:1050D00000022378000E9070032B0ED8002323705B
:1050E0006B461A8899781000FF23120A18401202A2
:1050F0000B401B041043184316BD043BEFE70000B0
:10510000F0B5234F85B03B680500002B3DD0214E04
:1051100003893268D31A204A9BB212889A4234D249
:105120000024E3B20093502C2DD02B1902AA019336
:105130009B7AD11C0B70002B10D0386803681B6859
:10514000984703AB187002040002000E120E98700C
:105150005A706B460399187800F0B6F802AB033327
:105160001B782A199372002B0BD10C4A51781378B3
:1051700009020B439178090419436B46187800F033
:10518000A3F80134CDE733682B8105B0F0BDC046EC
:105190002406002024020020140000202106002004
:1051A00010B5416000210400044B01810833036005
:1051B00050220A3005F04CFB200010BD9CBE0000C0
:1051C000D2B24F2A0BD8074900780978884206D115
:1051D0009B0704D5044B1B689A18FF239372002089
:1051E0007047C0461600002030060020014B0833EF
:1051F00003607047B4BE0000FF22014B1A70704775
:105200002006002070B50A4D04000122280000216C
:1052100003F08AFD012220700021280003F084FDA4
:10522000012260700021280003F07EFDA07070BD97
:10523000FC2E002010B5012204000021024803F0DA
:1052400073FD207010BDC046FC2E002070B5084DC7
:105250000400280002F061F92100002803D1280091
:1052600002F0DBF970BD034802F0A9FAFAE7C04684
:10527000342700208027002010B5054C01000A22A9
:10528000200003F0D6FA2021200003F068FA10BDB8
:10529000FC2E002010B50A7804780023944205D132
:1052A000437848781B1A58424341DBB2180010BDBE
:1052B0001FB50A1C03AB090C1A8099700399FDF7FE
:1052C00043FF05B000BD00001FB50B000C1C1B0AFE
:1052D000090CC2B2E4B2DBB2C9B2FF204F2A01D836
:1052E0000448805C03AA1470537091700399FDF711
:1052F0002BFF1FBD92B9000007B5FDF799FF02040F
:1053000001AB120E18705A701B88FF211A00000C96
:105310001B0A0A401B0208400004134318430EBD39
:10532000034B10B51B78002B01D0FDF7DFFE10BD3D
:10533000170000200121044A044813680B4001D1E2
:10534000037011607047C046280600202C0600201C
:1053500013B500240190FFF7EDFF200001340199FF
:10536000E4B2FFF7A5FF842CF7D113BD07B50022E7
:1053700001AB1A809A700198FFF7EAFF034B186897
:10538000002802D003685B68984707BD30060020FC
:1053900010B5094B1B7883420DD9084B187001F0EA
:1053A000A3FC074B1860074B1B78002B01D0FFF7BD
:1053B000DDFFFDF71BF810BD3406002016000020AD
:1053C000300600201700002010B5064B1878013079
:1053D000C0B21870044B1B78834200D80020FFF73E
:1053E000D7FF10BD160000203406002010B5064B74
:1053F0001A78002A01D1054A1278013A1A701878F1
:10540000FFF7C6FF10BDC04616000020340600207E
:10541000294B73B51B78002B3CD00023274D01ACE2
:105420002370637021002800FFF734FF00281AD191
:10543000E130FFF70BFF061E03D1E520FFF706FF63
:10544000060000236A4613704333537069462800F0
:10545000FFF720FF00281FD0002E1DD1FFF7B4FF5B
:1054600000232B706B70164B164C174D22881B684F
:105470009B1A2A789BB29A420CD2FFF751FF2288DE
:105480002B789B182380114B1868002802D00368E2
:105490009B689847002076BD0123237042336370D8
:1054A00021002800FFF7F6FE002801D0002ED5D1FC
:1054B000FFF79CFFD4E7C046170000203506002008
:1054C00024020020380600201800002030060020AA
:1054D000012210B5034B1A70FFF748FFFDF706FED7
:1054E00010BDC0461700002013B5002401AB1C807E
:1054F0009C700198FFF72CFFFCF7C6FF044B1B784C
:10550000FF2B02D12000FFF743FF002016BDC0464D
:105510001600002013B5002401AB1C809C7001987C
:10552000FFF716FFFDF7E2FD014B1C7013BDC046EF
:1055300017000020F0B54F7885B00D000020432FF4
:1055400005D1032213400193022B02D0012005B0A4
:10555000F0BD02AB18705F7019002800FFF79AFECB
:10556000002805D002222900104805F068F9EDE76F
:10557000012403AE3100280034707770FFF78AFEF3
:105580000028EFD16B461B79310028003370FFF7FC
:1055900081FE0028DAD0064B1B78002B03D0FFF7E2
:1055A000B9FF2000D3E7FFF793FFFAE735060020A5
:1055B0001700002010B5FCF759FF014B187010BD03
:1055C0003406002010B5044803F0FEFB0A384342BD
:1055D0005841C0B210BDC046FC2E002073B55E4AD3
:1055E0005E480D000024FFF765FA0600A0426AD16C
:1055F00004225B49280005F0FEF93400002862D13E
:1056000004355849280005F0E5F9002811D16B460A
:10561000DD1C2800FFF70EFEFFF7D4FF01AC0028C9
:1056200053D12000FFF7EEFD28780199FFF740FEE7
:1056300048E04D49280005F0CDF900283CD04B4901
:10564000280005F0C7F900282DD04949280005F0A9
:10565000C1F9061E11D04749280005F0BBF9002802
:1056600031D1FFF7AFFF002844D101AC2000FFF794
:10567000E1FD2078FDF7F6FC24E0FFF7A3FF041E10
:105680004DD1FFF757FEFFF79DFF00281AD101A863
:10569000FFF7B8FD200001340199E4B2FFF708FEDE
:1056A000842CF0D10EE0344803F08EFBC0B20A28FF
:1056B00023D1324B18781AE001A8FFF7A3FD019817
:1056C000FFF746FE0124200076BD2878FFF714FE80
:1056D000050403021B0E2D0E2070A37065701C00C4
:1056E000C0B2FFF7C9FD2800FFF7C6FD2000FFF795
:1056F000C3FDE7E7FDF7D0FCF9E76E2802D1FFF71D
:1057000063FEDFE7702802D1FFF770FEDAE701AC35
:105710002000FFF78FFD2078FFF73AFED2E7FFF772
:1057200009FE34002000FFF7E7FD01AB0604050287
:105730001870360E2D0EC0B25E709D700134FFF7EA
:105740009BFD3000FFF798FDE4B22800FFF794FDC1
:10575000842CE7D1B6E7C046C0BE0000F2050020A9
:10576000F4BE0000F9BE0000FCBE000003BF000054
:10577000EEBE000008BF0000FC2E00201600002036
:1057800013B5134BC27A41681B6804009B1A087852
:10579000DBB2984218D21218E2724A782089217B33
:1057A00001F0EAF801AB187002040002120E000EBC
:1057B0005A709870A37A22899B189BB2FE2B04D84A
:1057C00023810198FFF7C4FD13BDFF3BF8E7C046F6
:1057D0002402002037B54368C27A19781C4B0400B4
:1057E0001B689B1ADBB299422FD252180121C27258
:1057F000184A13680B4002D1174811600370002546
:105800002089842D1BD0AB081B01C01880B2FE2854
:1058100001D9FF38FAE76368217B5A7801F0ACF8C8
:1058200001AB187002040002120E000E98705A703C
:10583000280001990135FFF73BFDEDB2E0E7A37ABF
:10584000C01880B2FE2801D8208137BDFF38FBE7A1
:1058500024020020280600202C06002041707047FA
:105860004170704728213222034B19705A70034B44
:1058700019705A707047C0463A0600203C06002056
:1058800010B5012204000021024803F04DFA2070F7
:1058900010BDC046FC2E002010B5044803F094FA59
:1058A0000A3843425841C0B210BDC046FC2E002009
:1058B00037B54E4A4E480C000025FFF7FBF8A842CA
:1058C00012D106224B49200005F095F8A8420BD1D1
:1058D00006344949200005F07DF8A8420FD1FFF7B2
:1058E000DBFFA84202D0012528003EBD6B46DC1D2F
:1058F0002000FFF7C5FF2078FDF7CEFAF3E73F4918
:10590000200005F067F800280CD1FFF7C5FF00283C
:10591000E9D16B46DC1D2000FFF7B2FF2078FDF7D0
:10592000A1FAE0E73649200005F054F8002812D12A
:10593000FFF7B2FF0028D6D16B46DC1D2000FFF731
:105940009FFF2078FDF73EFAFFF7D0F820212D4881
:1059500002F005FFC7E72C49200005F03BF80028BE
:105960000CD1FFF799FF0028BDD16B46DC1D20004C
:10597000FFF786FF2078FDF75FFAB4E723492000A0
:1059800005F028F8051EAED1FFF786FF041E12D0E1
:105990002C002000FDF716FA1A4D01000A222800FB
:1059A000013402F036FFE4B22021280002F0D7FED5
:1059B000202CEED197E7FDF73FFA2000FDF752FAD1
:1059C000FFF76AFF002800D08DE76B46DD1D280039
:1059D000FFF756FF2B78002B02D02000FDF75CFA72
:1059E0000134E4B2202CEBD17DE7C04644BF000077
:1059F000F20500208CBF000095BF000093BF00009F
:105A00009EBF0000FC2E0020A7BF000086BF000044
:105A1000F7B500241C4B1B780193019BA34231D99D
:105A20000C23002563430093009B184AEB189B1836
:105A30001879EFB2002823D00138FDF751FD061E7A
:105A400003D00135052DEFD12F00FDF75FFD874213
:105A500013D1002E11D00E4E0E4D32682B88D31A62
:105A60000D4A9BB212889A4207D20C236343074A1D
:105A70002000D358984733682B800134E4B2CCE738
:105A80000126E2E70020FEBD09AB00000CAB0000E0
:105A900024020020400600201A000020014B18704C
:105AA0007047C046300000201A4B13B51A491A68D7
:105AB0001A4C0B8892B2D31A24889BB29C4220D2F3
:105AC0000A800121014006D00021154B1B785BB2F2
:105AD00000910A0012E00224044004D0104B1B780D
:105AE0005B425BB2F4E7042101400BD00C4B220077
:105AF0001B7821005B425BB200932300094801F050
:105B0000AFFE13BD0307FCD5054B1B785BB20093BA
:105B10000B00DEE7240200204806002022000020BF
:105B200024000020CC27002010B5054C200001F0F7
:105B3000B9FE200001F09DFE0020024B187010BD40
:105B4000CC2700204306002070B5224B1B78002B89
:105B500003D1214A1370002070BD204A20481268EA
:105B60000188204C92B2511A248889B28C42F2D218
:105B70001D4C028021881D48511A008889B2884234
:105B80000AD21B48144D0678FF202978801B8142D9
:105B900001DA8919297022800021DA0703D5154A14
:105BA0001178494249B29A0703D5124A127851181E
:105BB00049B200205A0703D50E4A1078404240B23D
:105BC0001B0703D50B4B1B78181840B201F000F8E7
:105BD000C1E7C04643060020D8060020240200206A
:105BE0004406002020000020460600201C00002063
:105BF0001E00002025000020F7B54A780020502A1A
:105C00003ED10A784026100020250324304015405C
:105C10001C4000280ED0002D0ED1B24315009B076A
:105C200025D4012C2BD11100414801F02CFE00F0AD
:105C300051FF24E0002D24D0022C20D10125431E49
:105C4000984113002B40AB401440184323005C1EC6
:105C5000A3419B0003435007C00FC000034310073C
:105C6000C00F0001184300F045FF280008E0022C97
:105C700001D100F035FF29002D4801F000FE012080
:105C8000FEBD022C0BD12B4A2B48126892B2028027
:105C90002A4802802A480088121A2A4802800225CF
:105CA0002B400AD00878C30602D5FFF7FDFEE6E7D1
:105CB000254B1A7810431870E1E7012CDFD1032639
:105CC00021480D780278AA4302700A78164006D15E
:105CD0000C25154009D12E00AC462C000BE01025F8
:105CE00015401ED01D002600F6E7102515401BD0DC
:105CF0002500B446340001210D4804274156013CDB
:105D00000222032321406446C7578256C356013DF1
:105D1000013C013E2F4022403340009701F0A0FD9E
:105D2000ADE72E00A446D8E72E00AC46E3E7C04618
:105D3000CC27002024020020440600204606002034
:105D400022000020480600204306002013B500244E
:105D5000094801F0CBFD6846084B998ADA8A1C761F
:105D60001B69047041808280847169461B68082227
:105D700003489847200016BDCC27002004280020A7
:105D800014280020054A064B10881B68054A1B1A78
:105D900010889BB298428041404270474C060020D8
:105DA000240200202A0000200023054A5900885CB4
:105DB0008007C00F02D10133102BF7D17047C046C6
:105DC000500600200023054A5900885C0007C00FD8
:105DD00002D10133102BF7D17047C0465006002086
:105DE000FF22031C12021040DBB21B18054A9BB2B3
:105DF0009B18054A5B00985C82B04007C00F02B058
:105E00007047C046FF3FFFFF5006002007B501ABBB
:105E100007280BD80022203818705A708022054BB2
:105E20000A430198197800F0F7FF07BD2230187077
:105E30004422F2E75CBD000010B50221FFF7E6FF47
:105E400010BD00000121044A10B54400A35C8B433F
:105E5000A354FFF7DBFF10BD5006002010B500244F
:105E6000064B6200D35CE0B2DB0701D5FFF7E4FF2D
:105E70000134082CF4D1002010BDC046500600208B
:105E8000F8B50023204D5A00525DD20730D40133BB
:105E9000102BF8D1002422001C4BE0B21B78002B01
:105EA00011D06600AB5D190719D519490F78002F7D
:105EB00009D008229343AB55FFF7C4FF0222AB5D24
:105EC00093433A00AB550134102CE5D1002A04D09D
:105ED00000230E4A13700E4A13700020F8BDDE072F
:105EE000F60FF0D09B07EED4FFF7ACFF3200EAE7E5
:105EF000FFF748FF0028CDD00122044B1A70002282
:105F0000034B1A70C6E7C046500600204E0600201C
:105F10004F060020F8B500250A4E6F00BC5DE4076F
:105F2000E40F03D0FFF72EFF002809D0F35D9C0794
:105F3000E40F05D11C07E40F02D10135102DECD17F
:105F40002000F8BD50060020F0B587B00E000020FC
:105F500069461C005BB2CA74834220DB73780293EB
:105F600033780393029B1F02039BFF18BFB27D1E71
:105F7000EBB20193FFF7CEFF5E4BFF18BFB20028D4
:105F800029D10F2F0BD803222240012A09D1019BCE
:105F900059495D006B5C023083436B54012007B0AC
:105FA000F0BD022AFAD16C46544BE47C1968544B7C
:105FB0001980019B504958000B185C700124435C08
:105FC00013432343435431004E4804F038FC0198F6
:105FD000FFF732FFE2E70F2F70D803206946019BDD
:105FE000454F5D000440E85D0307DA0F0A75002B9A
:105FF00011DA022CD2D122003100424804F01FFCF9
:106000000822EB5D01989343EB55FFF71BFF00223D
:106010003D4B1A70C2E7012C13D10223384A984332
:10602000364B12881B68E8559B1A384A9BB2128877
:106030009A42B3D20198FFF705FF6A46324B127DB0
:10604000E7E7022CAAD12F4A039913780443EC55B1
:106050002B4C8B4223D1527802998A421FD17078FF
:1060600000021843FFF7BCFE002818D0284B00227E
:106070009A5E531C20D1274B1A88204B21881B681D
:106080005B1A9BB29A4200D288E708237A5D3100FE
:1060900013437B5502221B4804F0D1FB7EE7174BCC
:1060A0006A461B68D27C238001247B195A707B5D71
:1060B000022223437B5586E792B2DEE702220020CC
:1060C000144200D16BE731000E4804F0B8FB72783F
:1060D000337811025B189BB2DF2B03D8442A04D11A
:1060E00000205CE7E72BF9D8FAE70122064B1A708B
:1060F000F6E7C046FF3F00005006002024020020C3
:106100004C060020700600204E06002026000020CD
:10611000280000202A0000200122024B1A70024BA6
:10612000187070474E0600204F06002010B500235F
:10613000042404495800425C013322434254102B8A
:10614000F8D110BD5006002010B50120FEF7D0FA9E
:10615000064B01001880064800F044FF054B1870FC
:10616000FF2801D1FFF714F9002010BD74060020AC
:10617000F00600207606002010B5094B1A78094B6E
:106180001978914209D01A70074C084B20001988E1
:1061900000F048FF200000F049FF002010BDC0467D
:1061A0001600002076060020F0060020740600206D
:1061B000F7B5012201AB1980431CDD7FC61D2A40C3
:1061C00053425A41070034008379C179013BDBB265
:1061D0008371F318013210370093009B9E4206D062
:1061E000737833707B8801363B800237F5E70123F3
:1061F0006D10063085760198E37700F00DFE0023E0
:10620000E377F7BDFF2212020A40C9B28918174A84
:1062100089B282B00023914210D9154A914210D818
:10622000144A8918020089B20832D177091229303C
:106230001F3220395370437001700133180002B0CF
:1062400070470D4A9142F9D80C4A8918020089B268
:106250000832D1771F3253700300091229332A31D3
:10626000197044232A300370433BE7E710C0000055
:1062700011C80000EF3F000012D00000EE37000010
:10628000F7B5214B214FCEB204001B68B85D98478B
:1062900001AB18806B46188000992000FFF7B2FF11
:1062A000051E1DD12A00B85D2179D3B299421DD9AE
:1062B00027689300FB185F78B74215D10027DF5796
:1062C00087420FD12000022227306946DD789E7870
:1062D00004F0B5FA23002A3429331E7025700125F5
:1062E0002800FEBD0137EDD00132DEE7200002229A
:1062F0002730694604F0A3FA2200FF2329322A340A
:1063000013702370ECE7C046080000202C02002028
:10631000531A642210B55A4304300C00C17F100098
:1063200004F09CF8044B196883B20020091B89B261
:106330008B424041C0B210BD24020020C9B2821875
:10634000904205D0013083798B42F9D1012070470A
:106350000020FCE7031C0004020E3F21100082B065
:10636000DBB2884307D107222033DBB29A42404197
:10637000C0B202B070470020442AFAD129309842B6
:1063800080414042F5E7F0B50126837989B00400E9
:106390003700002B66D08319DD7F0093354008D08D
:1063A000002207AB1A705A7007992000FFF700FF10
:1063B00058E0C37900936B461978FFF761FF002816
:1063C00046D0E31CDE7F002E42D0243358781A7862
:1063D00000021043FFF7BEFFA37902900193631CF4
:1063E0000493A31D0393231D0593019BFAB29342CB
:1063F0004DD9049B0121DB7F3B410B4206D1029B1F
:10640000002B25D1002D40D00137EEE7E319D979D3
:106410000098884229D1002D03D0059AD27F002A06
:106420000AD12100029B2731002B00D00231022229
:1064300007A804F004FAB7E7DB1903991A8A2B1DA1
:106440005B00CB1859882000FFF762FF0028DBD1E2
:106450002300273359781A78090211432000FFF7E7
:10646000A7FE0126300009B0F0BD0123D8B2824258
:10647000CAD903980133C05C8842F7D1230029337D
:1064800059781A78090211438FE71500BCE7019B80
:10649000082BDDD00026E5E770B50400D0B20E0071
:1064A0004F284DD859B200294ADBE11DC97F002988
:1064B00046D1E11CCD7F002D10D1717833780902CF
:1064C00019432000FFF79EFE002839D02100022248
:1064D0002731300004F0B3F9280070BD03210B40D0
:1064E000A1795E1E0D19012E0DD923009D4227D0E2
:1064F0001A1B013399798142F8D10134E37F0125D8
:1065000013419D43E8E7EA710E4D0A1DA01D2D6859
:1065100052008218558001228A40857ED2B2012B1A
:106520000BD12A4382760131C9B2A1710125082914
:10653000D2D12000FFF727FFCEE795438576F2E71B
:106540000025C9E724020020F7B504000026A3793E
:10655000B3421ED9631CDB7F01223341134215D0A5
:10656000A319DF793200391C2000FFF7E7FE051E72
:106570000CD10122E31DDA7701AB187058700322A9
:10658000391C019800F048FCE31DDD770136F6B2B6
:10659000DDE72000FFF7F7FE00281CD10F4B228A11
:1065A0001B689B1AA28C9BB29A4214D225002735F5
:1065B00068782B7800021843FFF7CCFE21002931C0
:1065C000002800D02900022201A804F038F901991E
:1065D0002000FFF7EDFD0020FEBDC0462402002094
:1065E00070B500250F4C0822E61DA57130000E493C
:1065F0002560257104F023F90122E31CDA77231DBD
:106600004F32DA77FA232200A38408320533D37796
:1066100022002832137022002A342932F5771370B1
:10662000237070BD78060020AEBF00000022064B2C
:10663000064940001A705A70435CFC321A40042329
:10664000134343547047C046A8060020AA06002002
:10665000F8B50E4D0E4E2C780E49133CE4B267008F
:10666000F3195A78097803232000FBF773FE0223FD
:10667000BA5D1343BB55DB07DA0F002B04D12A7038
:106680006A702000FFF7D2FFF8BDC046A8060020C0
:10669000AA0600202C0000200A4B10B518780A4BDF
:1066A0001338C0B242009B185A780132D2B25A70E5
:1066B000064B1968064B1980064900230978FBF739
:1066C00049FE10BDA8060020AA06002024020020D2
:1066D000A60600202C000020F8B50024154D660009
:1066E000735DE0B25B070CD51349AF197A780423C8
:1066F0000978FBF72FFE002304227B70735D934320
:1067000073550134102CE9D10C4B1A78002A02D1B0
:106710005B78002B0BD00A4B0A4A1B6812889B1A25
:10672000094A9BB212889A4201D2FFF791FF0020DA
:10673000F8BDC046AA0600202C000020A8060020B4
:1067400024020020A60600202E000020F8B5114FDC
:10675000114D3C781149133CE4B26600AB195A78EC
:10676000097802232000FBF7F5FD0223725D134335
:10677000735500233B707B70094F3800FCF752FAC9
:106780003800FCF7A1FA735DDB0702D42000FFF7A5
:106790004DFFF8BDA8060020AA0600202C0000200E
:1067A000E0060020F0B585B00F006946CA715AB204
:1067B000002A02DA002005B0F0BD7A784148029242
:1067C0003A78414E0392029A1402039AA418A4B292
:1067D000201880B232780F2810D9002A02D17078A0
:1067E0000028E8D003252B40022BE3D16B46D87953
:1067F000FFF7ACFF002038707870DCE70325133C0E
:10680000E4B21D40012D06D163009C4661462F482D
:106810001B5CAB430B54039B9A4203D173780299E0
:106820008B4240D0002A02D17378002B0BD0012D6F
:106830001ED1264B62009B185B78002B0AD02000EB
:10684000FFF7F4FE06E0214B6200D35C9B0703D503
:10685000012DF4D00120AEE702223900300003F010
:10686000EEFF6A461A4BD2791A70FFF715FFF1E76F
:10687000022DEFD16B46D879FFF768FF022239006D
:10688000300003F0DCFF6A460126114BD2791A7002
:106890000E4B6200D15C3143D154022D06D1FFF77B
:1068A000FBFE300087E7012DE8D1D3E7D15C8907F3
:1068B000D0D569469B185A78C97933002000FBF778
:1068C00049FDEEE7ED2F0000A8060020AA060020F3
:1068D0002C00002010B5084C200000F01EFE4142A4
:1068E00041412000C9B2217400F01AFEFA20800054
:1068F00001F0BCFB10BDC04634270020012330B599
:106900001D0002881A408B4209D20488520064108C
:1069100004802C402243013392B2DBB2F3E70280C1
:1069200030BD0000F7B58B180F4F0193019B9942C2
:1069300019D0082501240B789C46038866461AB2B4
:1069400034420ED15B00D20F9BB2002A01D07B40B3
:106950009BB26400013DE4B2002DEFD10380013110
:10696000E4E7D243EEE7F7BD0580FFFF0022014BCD
:106970001A807047CC060020F7B5D4B201AE0029CA
:106980000AD134707470B47072783078B3781202AF
:106990001B0410431843FEBD06234343181205028F
:1069A0005B1BFF279BB21D00FB1A4D434B432D126F
:1069B0001B12791A7D1BFB1A554353434A432D1270
:1069C00012121B12D2B2E9B2042806D803F03CFD21
:1069D00003090D1216001100DAB234707270B17032
:1069E000D2E711002200ECB2F7E7D9B2230014007D
:1069F0001A00F2E721001400EAB2EEE72100DCB24F
:106A0000EBE70000164B12011B6813B59BB29A18F6
:106A10001211D3B2120601D5DB43DBB25B00DBB24D
:106A20001A0003245A431212534354431B125B00AF
:106A3000E31ADA0FD21852105032D2B289B280B2B1
:106A4000FFF79AFFFF210300020A0A400B401202DF
:106A50001343000C034A084013400004184316BDBA
:106A600024020020FFFF00FF13B56C465B08C0182E
:106A7000094B520889181A7E80B22270002289B20E
:106A80009882D9821B696080A180A27169461B68C7
:106A900008320248984713BD04280020142800201B
:106AA0000023064A1380064A1380064B064A1380C9
:106AB000064A13800122064B1A707047D606002042
:106AC000D4060020FF7F0000D0060020D206002060
:106AD000CE0600200022014B1A707047CE0600201F
:106AE000034B10B51B78002B01D0FFF7D9FF10BD69
:106AF000CE060020F7B5274C06002378002B01D1E5
:106B0000FFF7CEFFF30702D500232370F7BD224B1A
:106B1000224F1C783888210003F02AFD85B23D8081
:106B20001F4F2100388803F023FD1E4982B20B88D5
:106B30003A80019306231C4F33403888062B0BD133
:106B4000019B1018EB189CB20C802B0081B2200026
:106B50003980FFF789FFD9E7730710D5631E5343C8
:106B60009C4660443880F3060DD5013C6C43019B84
:106B70001B190B803C8808882B002100E9E7B3072C
:106B8000F1D41018EEE73307F4D4019B0548EB1855
:106B90000380EFE7CE06002031000020D006002061
:106BA000D2060020D6060020D406002082B240B2D1
:106BB000002804DB5243D0110130C0B2704780205E
:106BC0004000801A404380B2C011C043F5E7000086
:106BD000F0B500273D4B0600187885B00D0004B2D3
:106BE000BE4231D0B9421FD0633778438C2103F0C5
:106BF000BFFC002800D004B238008C21704303F0A1
:106C0000B7FC002859D133B2632003930C266B469E
:106C100068438C219E5703F0ABFC00284FD12DB266
:106C2000039F6DB2002F0FD0294B1878FFF7BEFFDE
:106C3000284B46431B785BB29E1937B2A74240DC13
:106C400063429F4200DA1FB20026B5420FD0204BAC
:106C500000261878FFF7AAFF1F4B45439E57761969
:106C600036B2A6422FDC6442A64200DA26B20024E5
:106C70001A4B30001C701A4B1D78290003F078FC69
:106C8000290043B23800039303F072FC039A41B227
:106C900000942300134800F0E3FD114B38001C78EA
:106CA000210003F04BFD0B4B30001970210003F065
:106CB00045FD094B197005B0F0BD03B2A4E705B25C
:106CC000AEE72700C0E72600D1E7C046300000202D
:106CD000D8060020D9060020DA060020CE060020C3
:106CE00032000020CC27002037B50C4B05001A7865
:106CF0000B4C824201D120683EBD69461870FBF7FB
:106D0000B7FB019B002B02D1009B2360F3E72A0015
:106D10000099044898472060EDE7C0463300002002
:106D2000DC060020C00100200022024B1A715A71BB
:106D30009A717047E006002070B5084D04002800E5
:106D400000F0EBFB2100002803D1280000F035FC07
:106D500070BD034800F059FDFAE7C0463427002013
:106D60008027002070B5084D0400280000F0D5FBF6
:106D70002100002803D1280000F002FC70BD034868
:106D800000F028FDFAE7C0463427002080270020C5
:106D900037B50C0401AB1980CDB2240E002A10D0F7
:106DA0008379002B00D103710379220023430371FF
:106DB0003F239A4304D12B002033DBB2072B04D9A5
:106DC00085713F2322009A4321D12B002033DBB26F
:106DD000072B1CD8230702D5E120FFF7C3FFE307E9
:106DE00002D5E020FFF7BEFFA30702D5E220FFF7A0
:106DF000B9FF630702D5E620FFF7B4FFE30602D52B
:106E0000E320FFF7AFFF2800FFF7ACFF37BD437962
:106E10001C434471F7E70000F0B585B001ACCEB279
:106E200020800F1C15004F2E25D8032313400093FC
:106E3000022B08D12278002A47D16378002B44D155
:106E4000381CFBF78BFF381CFCF730FB002805D003
:106E5000009B012B37D1381CFCF70EFB2378002B4D
:106E600009D16378002B06D1464B7600F61873786B
:106E70003278637022702A00391C2000FBF710FC66
:106E8000002820D12A00391C0198FCF783F8C6B2EB
:106E90002080002E02D16378002B14D0402223885A
:106EA000647803A90B80224029D063B2002B0ADB4F
:106EB000230713D5AB0706D5210289198905890D4A
:106EC000314800F0D9FB05B0F0BD6B06B8D42D48B1
:106ED000617873001B181A705970B4E7E307F2D594
:106EE00003231D40022D04D13100284800F050FD3D
:106EF000E9E7012DE7D1254800F046FDE3E703234C
:106F00002B40022B05D1012209682148FFF740FFE1
:106F1000D9E7A807F8D4012BD5D16DB2002DD2DA6C
:106F20001B4B21001A7962401A713F22914304D110
:106F300032002032D2B2072A07D99A79B24201D15F
:106F400000229A715A7962405A71230702D5E120D2
:106F5000FFF7F2FEE30702D5E020FFF7EDFEA307FF
:106F600002D5E220FFF7E8FE630702D5E620FFF72F
:106F7000E3FEE30602D5E320FFF7DEFE3000FFF775
:106F8000DBFEA0E77D02002060270020F027002024
:106F9000E006002070B50F4C0F4EA54404000F48CA
:106FA00001AA43690169651C00F0FEF8320001A9DD
:106FB000280003F044FCA35D002B05D18022FF21B3
:106FC0009201280003F044FC01232370044B9D44EC
:106FD00070BDC046F8DFFFFF01200000F42600204E
:106FE0000820000070B5037804000D00002B01D1CB
:106FF000FFF7D0FF6419607870BD0000037870B5AA
:1070000005000C001600002B01D1FFF7C3FF2C195F
:107010006378B34203D00122014BEA54667070BD1D
:107020000220000010B5FFF7E9FF10BD10B5114CAC
:107030000378A5440400002B01D1FFF7ABFF0E4BF2
:10704000E35C002B12D001230C4AE118A35401A8E1
:1070500003F0F5FB0A4C62692169200000F092F808
:10706000636901AA2169200000F03CF8054B9D44AA
:1070700010BDC046F8DFFFFF022000000120000025
:10708000F42600200820000010B5054A05490648EE
:1070900000F010F80022054B05491A705A5410BD33
:1070A0000120000000C00000F4260020F0060020AF
:1070B0000220000030B5094D094CAB685B035B0F43
:1070C0009B001C590460AB6801619BB24360634341
:1070D000A4008360C460426130BDC04600400041EE
:1070E00000E10000F7B580261A4D01916F68033367
:1070F0003E439B086E60002B2BD0174E2E802E7DBA
:10710000F107FCD51E000768991BBF088F4219D9EB
:10711000002E17D0FF2117788C433C430F49577836
:107120000C403F023C439778013E39040C4F274006
:10713000D478BFB20F43240601993C4310C101919A
:107140000432E0E7074B2B802B7DDB07FCD53300B7
:10715000D1E7F7BD0040004144A5FFFFFF00FFFF5E
:10716000FFFF00FF04A5FFFF044B054A4908D96152
:107170001A801A7DD207FCD57047C04600400041F6
:1071800002A5FFFF70B504000D001600E36829009A
:107190002000B34205D2FFF7E7FFE368ED18F61AC7
:1071A000F4E7FFF7E1FF70BD10B510001A0003F01F
:1071B00046FB10BD30B50B7889B001330B706B46C0
:1071C00005000D220021981D03F042FB134B01AC7A
:1071D0002380134B134AA380092363721833A372CD
:1071E000203BE372237323762B79E2810E4AA3704E
:1071F0002B8B6282032223741B12637480236275BB
:107200003D32E2826A795B42134321001922002059
:10721000237500F091FC09B030BDC04609040000A0
:10722000010300000122000007050000F8B50B78FB
:1072300007000024812B1ED1CB78222B1BD18A88FA
:1072400003799A4217D12600012000F07DFC7D6968
:10725000002D0AD02A7A6968002000F06DFC040035
:10726000431C08D036182D68F2E701232800BB76AE
:1072700000F06AFC34002000F8BD000070B502790F
:107280008B88040000259A4209D10A784B78A12AFC
:1072900007D19F3A9343013B5D425D41EDB2280027
:1072A00070BD212AFBD10B2B03D18B78837601256E
:1072B000F5E70A2B02D18B78C376F8E7092BEED1DC
:1072C000CA88022A05D1010006481C3102F0AAFA38
:1072D000E5E7012AE3D1010002481D3102F0A2FADC
:1072E0002577DCE7242F00204369002B06D141617C
:1072F000038B0A899B180383704713001A68002ABE
:10730000FBD11960F4E7000030B591B01C00050016
:107310006B460800110018702200581C03F08FFA09
:10732000631C69796A46024802F030FB11B030BD37
:10733000242F0020F7B51F0001911600FFF7E4FF8E
:10734000054B04001D68002D04D003003A003100F5
:107350000198A8472000FEBD302700200223FF33FC
:1073600010B5C380030010338360094B83220833B8
:107370000360002304000261064AC3604361826126
:10738000838301F013FE210001F0E4FD200010BD15
:1073900020E100000000010170B50126054D064CFA
:1073A0002B68334203D12000FFF7D8FF2E60200066
:1073B00070BDC0460C270020102700200379413300
:1073C00001200B707047000030B50B7889B0013395
:1073D0000B706B46050011220021981D03F038FA4E
:1073E000124B01AC2380124A124BE28102933F22DE
:1073F000092322746372104A1833A372203BE3728C
:1074000023736282237603222B796275A370802313
:107410003D32E2826A795B42134321001922002047
:10742000237500F089FB09B030BDC0460904000097
:107430000122000001030101070500000A78030092
:1074400010B50020812A0ED1CA78222A0BD1898852
:107450001A79914207D11A001B7C28321370024915
:107460003F2200F069FB10BD38E1000070B50479DF
:107470008A8803000020944209D10C784A78A12C14
:1074800006D10223013AD2B293424041C0B270BD4C
:10749000212CFCD10B2A04D18A7828331A700120C0
:1074A000F5E70A2A02D129331870F8E7092AEED144
:1074B000CD78CC88022D08D1012CE8D12A331900CF
:1074C0002200084802F0AEF9E9E7012DDFD1082CCF
:1074D000DDD1113319002200024802F0A3F928007F
:1074E000D5E7C046242F0020030024338360084BD7
:1074F00002210833036001230374823343620300D3
:107500000022FF312A33C180C26001851A707047A2
:1075100078E100002A300078704728300078704702
:107520002830017070470000F8B5060004001936D5
:107530001134050008222100300003F071F9002801
:1075400016D06979082322000B4802F01FFA0B4B72
:1075500005001F68002F04D003000822210002202C
:10756000B84708222100300003F069F92800F8BD6F
:1075700001256D42FAE7C046242F00203027002065
:107580000A002032D2B210B50023072A08D80133EE
:107590001A00E0398A40417C0A43427401200BE022
:1075A000C218D47C8C42F9D0002C01D1D174F5E7FB
:1075B0000133062BF4D1002010BD0B002033DBB2C9
:1075C00070B5072B07D80122E0398A40437C9343EA
:1075D0004374012070BD0200040013321300002523
:1075E00019341E788E4200D11D700133A342F8D1A8
:1075F00000211578002D05D04418E67C0131E57492
:10760000C9B2167001329A42F3D1E2E710B51130D7
:107610000822002103F01CF910BD2031C9B203007B
:107620000020072903D8587C0123084118407047DF
:1076300010B50248FFF758FF10BDC04634270020A0
:1076400001210A4A70B5136805000B40084C05D1AA
:107650002360084B1160636019232381FFF79CFEB0
:107660002100FFF741FE280070BDC04670270020B2
:107670007427002090E10000002310B55A00845ABE
:10768000002C01D1115210BD0133042BF6D1FAE7C1
:1076900010B50822002103F0DBF810BD10B504007E
:1076A000FFF77AFE082322000421FFF743FE10BDF6
:1076B00070B505000835040001000822280003F019
:1076C000AFF8002807D02000FFF7E8FF08222100CC
:1076D000280003F0B4F870BD10B50248FFF7B0FF02
:1076E00010BDC0466027002001210A4A70B513680A
:1076F00005000B40084C05D12360084B1160636006
:1077000041232381FFF748FE2100FFF7EDFD28000C
:1077100070BDC046BC270020C0270020A9E10000A2
:1077200010B50400FFF738FE1D2322000821FFF7E3
:1077300001FE10BDF8B507001D37040001001D2231
:10774000380003F06DF8002836D02578667F2B00CE
:10775000B3431CD02000611C1C221E3003F060F8D3
:10776000002814D06577FFF717FE1D233A00082183
:10777000FFF7E0FD66772000FFF7D2FF051E04DD6E
:107780001D222100380003F05AF82800F8BD33000C
:10779000AB43F0D02000611C1C221E3003F040F8E7
:1077A0000028E8D02670FFF7F7FD1D2322000821EE
:1077B000FFF7C0FD2570DEE701256D42E5E72031CA
:1077C000C9B203000020072903D818780123084113
:1077D000184070470200DD290AD8CB08C3180722D9
:1077E0000120114002008A4059780A435A707047BC
:1077F0002031C9B200200729F9D801231800884098
:107800001178014311701800F1E70200DD290BD84F
:10781000CB08C31807220120114002008A40110042
:107820005A788A435A7070472031C9B2002007291C
:10783000F9D801231800884011788143117018008D
:10784000F1E710B51D22002103F002F810BD000081
:1078500010B50248FFF748FF10BDC0468027002042
:1078600010B502AC2478417064B28270C3700471A8
:1078700010BD10B50522002102F0EAFF10BD03780B
:1078800019430170704703788B430370704710B53C
:107890000400FFF781FD052322000121FFF74AFDC7
:1078A00010BD000070B5451D040001000522280030
:1078B00002F0B6FF002806D105220749200002F099
:1078C000AFFF002807D02000FFF7E1FF05222100CD
:1078D000280002F0B4FF70BDDC27002010B50400C2
:1078E000FFF7C7FF2000FFF7DDFF10BD01210B4AA6
:1078F00070B5136805000B40094C05D12360094B96
:10790000116063603A232381FFF746FD2100FFF7F2
:10791000EBFC2800FFF7E2FF70BDC046D82700202F
:10792000E4270020EAE1000001210A4A70B513684B
:1079300005000B40084C05D12360084B11606360C3
:1079400018232381FFF728FD2100FFF7CDFC280035
:1079500070BDC046F4270020F827002024E2000074
:1079600070B515000C00FFF717FD2B002200052154
:10797000FFF7E0FC70BD07B56B46D91D002301225F
:107980000B70FFF7EDFF07BD10B5FFF7F4FF10BD5B
:1079900007B56B4607331970832905D10223054AC1
:1079A00011890B43138107BD01221900FFF7D8FF8E
:1079B000F9E7C0460050004110B50248FFF7B4FF98
:1079C00010BDC046F027002030B50B7889B00133D8
:1079D0000B706B46050011220021981D02F038FF44
:1079E000124B01AC2380124A124BE281A380352254
:1079F000092322746372104A1833A372203BE37286
:107A000023736282237603222B796275A37080230D
:107A10003D32E2826A795B42134321001922002041
:107A2000237500F089F809B030BDC0460904000094
:107A300001220000010300000705000070B50D00E1
:107A400013004179160007482A0001F09FFF064AFB
:107A500003001468002C03D0320029000720A0473F
:107A600070BDC046242F00203027002008B4024BF0
:107A70009C46103808BC60473D7A000010B58B88E2
:107A80000479020000209C4209D10C784B78A12C8B
:107A900006D102229343013B58425841C0B210BD67
:107AA000212CFCD10B2B04D101328B780120D37710
:107AB000F5E70A2BF3D10232F7E700000A7803005A
:107AC00010B50020812A0DD1CA78222A0AD18988CE
:107AD0001A79914206D101220133DA770249343210
