:100000000C94D7020C94FF020C94FF020C94FF0294
:100010000C94FF020C94FF020C94FF020C94FF025C
:100020000C94FF020C94FF020C94042C0C94A72A4D
:100030000C94FF020C94FF020C94FF020C94FF023C
:100040000C94FF020C94FF020C94FF020C94FF022C
:100050000C945F0A0C94FF020C94FF020C9415039D
:100060000C94FF020C94FF020C94FF020C94FF020C
:100070000C94FF020C94FF020C94FF020C94FF02FC
:100080000C94FF020C94FF020C94FF020C94FF02EC
:100090000C94FF020C94FF020C94FF020C94FF02DC
:1000A0000C94FF020C94FF020C94FF022E004C00F3
:1000B0002A00E10047C900001E00140004001D00D2
:1000C00034004D001F001A0016001B00E1022A0038
:1000D000200008000700060050002C002100150039
:1000E000090019004F004A00220017000A0005000D
:1000F000000076C2500001440000E30B0000E30062
:100100004F0001440000E2090000E20023001C004F
:100110000B00110000003AC0240018000D00100070
:1001200052004B0025000C000E0036005100280044
:10013000260012000F0037002F002B0027001300AD
:1001400045CA380030004E002D00310045C3E5009F
:100150002B4400002900000000000000FFFF000009
:100160003A001E0820082208000000003B001F087B
:1001700021082308000000003C002F0826082F005B
:10018000000000003D00300827083000000000009B
:100190003E00310835003508000000000000FFFF78
:1001A00000000000000000000000FFFF0000000051
:1001B000000000003F005200510024080000000031
:1001C0004000240021001E00000000004100250026
:1001D00022001F00370000004200260023002000FC
:1001E0002700000043002508000031002E00000019
:1001F0004400450000000000FFFF00000000000078
:1002000000000000000000000000000000000000EE
:10021000000000000000000004500000000000008A
:10022000000001500250000041500000000000009A
:1002300008500000425000000000000000000000D4
:1002400000000000000000000000000000000000AE
:10025000000000000000000000000000000000009E
:10026000000000000000000000000000000000008E
:10027000E9480000000000000000B648EA4800001D
:10028000000000000000B548E24800000000000047
:10029000FFFF00000000000000000000CD4800004B
:1002A00000000000302E39302E362B3632007665B5
:1002B0007273696F6E0005010906A101050719E057
:1002C00029E715002501750195088102950175083A
:1002D000810195057501050819012905910295010E
:1002E0007503910195067508150025FF050719008E
:1002F00029FF8100C0050C0901A101850415002614
:10030000FF0319002AFF03950475108100C0050141
:100310000906A1018508050719E029E7150025014F
:1003200075019508810205081901290895087501CC
:1003300091020507750495018101190429DD150055
:100340002501750195D98102750395018101C005CB
:10035000010980A1018505150026FF00190029FF6C
:10036000950175088100C06D6163726F732E7472A0
:100370006967676572006D6163726F732E6D61707E
:100380000044796E616D69634D6163726F730065DE
:1003900073636170655F6F6E6573686F742E636100
:1003A0006E63656C5F6B6579004573636170654F63
:1003B0006E6553686F7400656570726F6D2E65723F
:1003C00061736500656570726F6D2E66726565009C
:1003D000656570726F6D2E636F6E74656E747300F9
:1003E0002F0073657474696E67732E637263007394
:1003F000657474696E67732E76657273696F6E00CB
:1004000073657474696E67732E76616C69643F00FE
:1004100073657474696E67732E64656661756C7458
:100420004C61796572006B65796D61702E6F6E6CD1
:1004300079437573746F6D006B65796D61702E64AF
:10044000656661756C74006B65796D61702E63759E
:1004500073746F6D00454550524F4D4B65796D611A
:10046000700068656C700066616C7365007472750D
:100470006500706C7567696E7300646576696365A5
:100480002E72657365740068656C70000D0A2E002D
:100490004D6F7573654B657973004F6E6553686F6B
:1004A000740051756B6579730053706163654361C6
:1004B00064657400080B00020202000009040000D9
:1004C00001020200000524001001052401010104BD
:1004D00024020605240600010705810310004009D7
:1004E000040100020A0000000705020240000007A4
:1004F00005830240000012010002EF020140EDFE00
:1005000007130001010203014572676F446F7820F1
:10051000455A004572676F446F7820455A000403BE
:10052000090405010902A10185010509190129082C
:100530001500250195087501810205010930093171
:1005400009381581257F750895038106050C0A3841
:10055000021581257F750895018106C005010902F4
:10056000A101050919012908150025019508750142
:10057000810205010930093116000026FF7F751040
:100580009502810209381581257F7508950181063C
:10059000C000F109080F990F8410E210AB16331A4E
:1005A000D11CF42204251226AC2C8E2E622F11248D
:1005B0001FBECFEFDAE0DEBFCDBF11E0A0E0B1E0BB
:1005C000EEE4F0E602C005900D92AC3AB107D9F71F
:1005D00025E0ACEAB1E001C01D92A939B207E1F70C
:1005E00012E0C7EDD2E004C02197FE010E949D2FCA
:1005F000C93CD107C9F70E9402030C9425300C9422
:10060000000008950E94D4030E94010381EA94E04F
:100610000E947C2C0E946A05C0E0D0E00E94830505
:100620002097E1F30E940000F9CF1F920F920FB6BE
:100630000F9211242F933F938F939F93AF93BF9368
:100640008091AD019091AE01A091AF01B091B00148
:100650003091AC0123E0230F2D3758F50196A11DF1
:10066000B11D2093AC018093AD019093AE01A09396
:10067000AF01B093B0018091B1019091B201A0910E
:10068000B301B091B4010196A11DB11D8093B101D8
:100690009093B201A093B301B093B401BF91AF9115
:1006A0009F918F913F912F910F900FBE0F901F90B0
:1006B000189526E8230F0296A11DB11DD2CF2FB7A2
:1006C000F8946091AD017091AE018091AF0190916D
:1006D000B0012FBF08953FB7F8948091B101909178
:1006E000B201A091B301B091B40126B5A89B05C099
:1006F0002F3F19F00196A11DB11D3FBFBA2FA92FA1
:10070000982F8827BC01CD01620F711D811D911D9D
:1007100042E0660F771F881F991F4A95D1F7089509
:100720008F929F92AF92BF92CF92DF92EF92FF9201
:100730006B017C010E946B034B015C01C114D1046D
:10074000E104F104E9F00E94AB2C0E946B036819EC
:1007500079098A099B09683E73408105910570F308
:1007600021E0C21AD108E108F10888EE880E83E082
:10077000981EA11CB11CC114D104E104F10429F795
:10078000FF90EF90DF90CF90BF90AF909F908F90B1
:1007900008958230910538F0880F991F880F991FAE
:1007A00005970197F1F70895789484B5826084BD28
:1007B00084B5816084BD85B5826085BD85B5816065
:1007C00085BDEEE6F0E0808181608083E1E8F0E0C5
:1007D0001082808182608083808181608083E0E8F4
:1007E000F0E0808181608083E1E9F0E080818260D7
:1007F0008083808181608083E0E9F0E08081816096
:100800008083E1ECF0E0808184608083808182607D
:100810008083808181608083E3ECF0E0808181606F
:100820008083E0ECF0E0808182608083E2ECF0E0A5
:10083000808181608083EAE7F0E08081846080834A
:1008400080818260808380818160808380818068F4
:100850008083089508958AE0E7E5F1E0DB010190E7
:100860000D928A95E1F78AE008958BEA93E00E9461
:100870007C188BED93E00E94B31F81E194E00E940D
:100880006D2385E191E00E943B1E8DE993E00E947B
:10089000A91488E493E00E94921288E091E00E94FB
:1008A0008A1A80E0089581EA93E00E94A6158BEAF7
:1008B00093E00E9472188DE993E00E94691488E029
:1008C00091E00E949E1A80E0089581EA93E00E94E0
:1008D000A31680E00895CF93DF93EC01BC018BED6C
:1008E00093E00E944522811107C0BE0181E194E09E
:1008F000DF91CF910C948C24DF91CF910895CF9309
:10090000DF93EC01BC0185E191E00E94F01E8111B2
:1009100015C0BE0186E091E00E941B1581110EC03A
:10092000BE0188E493E00E946F12811107C0BE01EE
:1009300088E091E0DF91CF910C94E81ADF91CF919C
:100940000895BC0188E091E00C94A01A0F931F93C6
:10095000CF938C01BC018BEA93E00E941D19C82F34
:10096000811139C0B80180EB93E00E94EB19C82FC8
:10097000811131C0B8018FE993E00E946217C82F3E
:10098000811129C0B80180EA93E00E94C116C82FE6
:10099000811121C0B8018DE993E00E94BD14C82FD8
:1009A000811119C0B80188E493E00E94BB12C82FDE
:1009B000811111C0B80180EB93E00E94E0198823F7
:1009C00079F06EEA72E084E494E00E94412784E6C4
:1009D00090E00E94C9038C2FCF911F910F91089531
:1009E0004EEA52E0B80180EB93E00E94291A882376
:1009F00091F364EA72E084E494E00E94122784E6B2
:100A000090E00E94C90360E284E494E00E943627EB
:100A1000DECF80E00895BC018DE893E00C942614AD
:100A2000CF93DF93EC01BC0185E191E00E94DE1ED3
:100A3000BE0188E091E00E94DC1B80E0DF91CF9155
:100A4000089580EB93E00E94361A8BED93E00E94AC
:100A5000B62281E194E00E942E2485E191E00E947B
:100A60004F1E88E091E00E94B71B80E00895CF936D
:100A7000C0E040E06C2F8FE192E00E94EE0BCF5F70
:100A8000C430B9F7C1E041E06C2F8FE192E00E94E1
:100A9000EE0B2FEF80E792E0215080409040E1F78D
:100AA00000C00000CF5FC43071F7C1E040E06C2FA0
:100AB0008FE192E00E94EE0B2FEF80E792E0215051
:100AC00080409040E1F700C00000CF5FC43071F774
:100AD000CF91089580916201909163010E94450633
:100AE00085E00E949B1881E08093110460E071E032
:100AF00088E493E00E94A2120E9437058091A5032A
:100B00008F770C94EE0880916201909163010C94B0
:100B1000630682EB92E00E94560E811104C082EBC4
:100B200092E00C94F40E81EF92E00E947E1083ED2F
:100B300092E00C94670F82EB92E00E94560E8111B6
:100B400004C082EB92E00C94590E81EF92E00E9477
:100B5000CA0F83ED92E00C947A0FCF93C82F82EBEB
:100B600092E00E94560E6C2F811105C082EB92E03C
:100B7000CF910C94950E81EF92E0CF910C942E10B2
:100B8000CF93C82F83FF03C081EE0E94AD05C0FF45
:100B900003C080EE0E94AD05C1FF03C082EE0E943B
:100BA000AD05C2FF03C086EE0E94AD05C4FF04C0C0
:100BB00083EECF910C94AD05CF910895CF93C82FBC
:100BC000892F0E94C0058C2FCF910C94AD05CF9337
:100BD000C82F82EB92E00E94560E6C2F811105C047
:100BE00082EB92E0CF910C94BC0E81EF92E0CF911A
:100BF0000C945510FC019081DB018C91981305C079
:100C000081E0218111969C91291380E008951F9322
:100C1000CF93DF9300D000D0CDB7DEB7182F843547
:100C200068F5E82FF0E0EE0FFF1FE455FB4F8081E1
:100C300091819C838B838FEF89838A83BE016F5F51
:100C40007F4FCE0103960E94FA05882369F0A12FF9
:100C5000B0E0A554BE4FE0910201F0910301612F75
:100C60008C9109958B839C838B819C810F900F9035
:100C70000F900F90DF91CF911F910895109254051E
:100C800010925505E4E5F5E0D2CF8FE192E00E94A5
:100C9000090A40E855E260E070E084E494E00E94D4
:100CA0000C260E942A040E945304ECEAF4E085E535
:100CB0009FEF815021F0908391833296FACF8AEB97
:100CC00091E00C94EC080E945F036093B60170936E
:100CD000B7018093B8019093B9010E9465048FE138
:100CE00092E00E94DD0B0C942105CF93DF93EB0182
:100CF000CB010E94A104823019F1D63419F4C770D7
:100D0000C052D0E08D2F807C51F480E28C0F88306F
:100D100008F0D0E0CE01DF91CF910C94DE058D2F4D
:100D2000887C883469F46D2F70E0762F66276C0F0D
:100D3000711D737083ED92E0DF91CF910C94520F8F
:100D4000DF91CF9108958F929F92BF92CF92DF92C1
:100D5000EF92FF920F931F93CF93DF9300D000D0B9
:100D600000D0CDB7DEB77C016B010E94890510E091
:100D700000E0BB24BA940435110599F1F601908185
:100D8000901729F1043530F5F801EE0FFF1FE455F7
:100D9000FB4F808091809E828D82BB82BC82BE018F
:100DA0006D5F7F4FCE0105960E94FA0581110FC03D
:100DB00019821A82BE016F5F7F4FCE0105960E9495
:100DC000FA05811104C0B401C7010E9475060F5FC6
:100DD0001F4FD1CF1092540510925505E4E5F5E070
:100DE000D8CF26960FB6F894DEBF0FBECDBFDF91E9
:100DF000CF911F910F91FF90EF90DF90CF90BF9018
:100E00009F908F900895EF92FF920F931F93CF932F
:100E1000DF938C01EB01898181FF43C080FD41C0DC
:100E20008B81807CF1F5888180930101FA8082EBCF
:100E300092E00E94560E6F2D81112EC082EB92E03F
:100E40000E94FB0E882301F1FB80EA80F3FE03C0C1
:100E500081EE0E94E705F0FE03C080EE0E94E705E8
:100E6000F1FE03C082EE0E94E705F2FE03C086EEAB
:100E70000E94E705F4FE03C083EE0E94E7058E2D75
:100E80000E94E7050E949B058B81882379F00E94D0
:100E9000C0050E949B050AC081EF92E00E941810D5
:100EA000D1CFE09101018881E81317C0898181FFCA
:100EB00007C080FD05C06A817B81C8010E9475065C
:100EC000CE010E940B058230E9F0DF91CF911F9196
:100ED0000F91FF90EF900C949B05E43560F4F0E0E7
:100EE000EE0FFF1FE455FB4F8181982F907CF1F6A8
:100EF0000E94C005DBCF1092540510925505E4E521
:100F0000F5E0F2CFDF91CF911F910F91FF90EF901D
:100F10000895FF920F931F93CF93DF93CDB7DEB762
:100F20002D970FB6F894DEBF0FBECDBF8C01298779
:100F30003A874B875C876D87243548F430FF75C04E
:100F400031FD73C089850E9407069C878B87CE017F
:100F500009960E947F04823009F45BC0E985E4357C
:100F600068F49A85F0E0EE0FFF1FE455FB4F90FF09
:100F700069C091FD67C09FEF90839183811149C043
:100F80001F821886BE01695F7F4FCE010B960E94BB
:100F9000FA0581113EC01D821E82BE016B5F7F4F2C
:100FA000CE010B960E94FA05811133C0FF24FA94FA
:100FB000FB82FC82BE016D5F7F4FCE010B960E94CB
:100FC000FA05811126C0F982FA82BE016F5F7F4F58
:100FD000CE010B960E94FA0581111BC08C858D7F76
:100FE000843421F4CE0109960E9465098C858434ED
:100FF00081F08F7C813499F58A851B8581FF26C01D
:1010000080FD24C0612F89E393E00E94CA101093F1
:1010100024022D960FB6F894DEBF0FBECDBFDF9130
:10102000CF911F910F91FF9008958FEF89838A834D
:10103000BE016F5F7F4FCE010B960E94FA058111B2
:1010400081CF85CF9C852B85208397CF80912402EB
:101050008113DFCF89E393E00E94C810DACFBE018D
:10106000675F7F4FC8010E94A306BE01675F7F4F85
:10107000C8010E940307CE0109960E941005C9CF3E
:10108000EF92FF920F931F93CF93DF9300D000D086
:1010900000D01F92CDB7DEB7022F2B833C834D8348
:1010A0005E836F83243508F042C07C01832F8170FA
:1010B00031FF22C081113BC08FEF89838A83BE013B
:1010C0006F5F7F4FCE0105960E94FA05882329F0B5
:1010D000802F0E9407069E838D83CE0103960E9477
:1010E0006B04811124C02B813C814D815E816F8115
:1010F000C7010E9489071BC08823C9F010E0000FB8
:10110000111F04551B4FF801808191819E838D83AF
:1011100019821A82BE016F5F7F4FCE0105960E9431
:10112000FA058823D1F28FEFF80180838183279617
:101130000FB6F894DEBF0FBECDBFDF91CF911F91E8
:101140000F91FF90EF90089570E094E5899F600DF6
:10115000711D1124660F771FFB01E455FF4F849129
:10116000FB01E355FF4F94910895EF92FF920F9387
:101170001F93CF93DF93EBEBF1E084E5DF011D924A
:101180008A95E9F77F0100E00435F9F0C091040188
:10119000D0E0C15FDD4FB2E0CF30DB0789F01A91BC
:1011A0001A3208F01A52E0910201F0910301602F07
:1011B000812F09958F3F11F49F3F69F3F701108349
:1011C0000F5FFFEFEF1AFF0ADFCFDF91CF911F9183
:1011D0000F91FF90EF9008950C94B5089091000145
:1011E000891748F491E09093040180930F020E94C4
:1011F000B5080C9409050895CF93C091040190E0BF
:10120000BC016F5F7F4F4C2F50E0461B570B615F57
:101210007D4F815F9D4F0E94FD2FC150C0930401FF
:10122000CF9108954091040150E090E0682F70E064
:10123000292F092E000C330B2417350764F4215F86
:101240003D4FF9012081022E000C330B2617370782
:1012500019F09F5FEDCF9FEF892F0895CF9396ED03
:10126000980F8A3208F4982F209100019217C8F441
:10127000C82F0E94120987FF0E94FC08E091040118
:10128000E03110F080E0F8CF81E08E0F8093040110
:10129000F0E0E15FFD4FC0830E94B508CF910C9450
:1012A0000905CF9108950E94120987FD0DC0909104
:1012B0000401923018F480E00C94EE080E94FC08BF
:1012C0000E94B5080C94090508950F931F93CF93BE
:1012D0008C01DC011296CC91129711968C9111978A
:1012E000982F927013962C91263459F5C695C69571
:1012F000C695C65D26ED2C0F35EB3C0F323008F05D
:1013000061C09923D1F080FD18C0E0910401F0E0A4
:10131000E25FFD4F80812232D1F58F5F9091000115
:101320008917B8F1D801EC91E43538F4F0E0EE0F0C
:10133000FF1FE455FB4F10821182CF911F910F9137
:101340000895C43558F09923C1F380FDF6CF8CEA97
:101350008C0FCF911F910F910C94EE08CA3250F66A
:10136000992359F380FDE9CF8C2F0E941209082E92
:10137000000C990B209104012150330B8217930725
:1013800051F58C2FCF911F910F910C9453098150DF
:10139000C5CFCAE2C80F8C2F0E942E09D801EC914C
:1013A000E43548F4F0E0EE0FFF1FE455FB4FC08337
:1013B00084E48183C2CF1092540510925505E4E570
:1013C000F5E0F5CF9923E9F280FDDBCF8C2F0E9469
:1013D000120987FFB2CF8C2FCF911F910F910C94E0
:1013E0002E09EFE1F2E0158285E0858780E28687AD
:1013F000089582EB92E00E94550E81EF92E00E94E8
:10140000BA0F83ED92E00E94510F89E393E00C94B0
:10141000A510EF92FF920F931F93CF93DF937C0160
:101420000FB6F894A8958091600088618093600061
:10143000109260000FBE64E670E080E090E00E94D1
:10144000900300E810E089EAF8018083C1E8D0E069
:1014500089E0888324982C983F988AB18F7C8AB938
:101460006E98479A8BB180638BB9769AC7010E96B6
:101470000E94430C8FE090E0909389008093880055
:1014800090938B0080938A0090938D0080938C00C2
:1014900080E18883F801108280E295E390938700D1
:1014A0008093860081E1888381E080936F00DF91E3
:1014B000CF911F910F91FF90EF900C94F9091F921B
:1014C0000F920FB60F9211248F9381E08093050144
:1014D0008F910F900FBE0F901F9018958F929F9233
:1014E000AF92BF92CF92DF92EF92FF920F931F9332
:1014F000CF93DF936C01109205015C018EE0A80E82
:10150000B11CC5010E94E30CE601AB964601EDE17A
:101510008E0E911CF12CE12CABC08150888312E01F
:1015200002E020E090E08981882321F081508983C6
:10153000122F092F8A818111C2C01460012F8B8163
:101540008111C3C01860012F8C818111B5C0106159
:10155000012F8D818111ADC01062012FB701C5012E
:101560000E94A30CF4019081109519238023812BF4
:10157000982790FF03C0F6012585288391FF03C0BB
:10158000F6012585298392FF03C0F60125852A836C
:1015900093FF03C0F60125852B8394FF03C0F6015A
:1015A00025852C8395FF03C0F60195859D83F40165
:1015B00081934F01B701695F7F4F8AA5882309F4A2
:1015C00073C081508AA712E002E020E090E08BA572
:1015D000882321F081508BA7122F092F8CA5811110
:1015E00060C01460012F8DA5811158C01860012FB3
:1015F0008EA5811150C01061012F8FA5811148C0A7
:101600001062012FC5010E94A30CF4019681109570
:1016100019238023812B982790FF03C0F60125858D
:101620002AA791FF03C0F60125852BA792FF03C0CF
:10163000F60125852CA793FF03C0F60125852DA76C
:1016400094FF03C0F60125852EA795FF03C0F60180
:1016500095859FA7F4018683B701C5010E94890C77
:10166000FFEFEF1AFF0A269687E0E816F10481F1F2
:10167000B701C5010E94600CB701C5010E94890C29
:10168000888181114ACF13E003E021E091E04BCF44
:1016900081508FA7B7CF81508EA7AFCF81508DA734
:1016A000A7CF81508CA79FCF13E003E021E091E00A
:1016B0008ECF81508D8352CF81508C834ACF815001
:1016C0008A838B81882309F43DCF81508B833CCF63
:1016D000DF91CF911F910F91FF90EF90DF90CF900E
:1016E000BF90AF909F908F900895CF92DF92EF922E
:1016F000FF920F931F93CF93DF9300D000D01F92E0
:10170000CDB7DEB70F967C01D12CCC24CA9410E063
:1017100000E0F70126851BC03230A1F46091AB04D4
:101720006F5F6093AB042D2D200F29833A83CB820A
:10173000CC826D834FEF5FEF85EB91E00E94400814
:10174000F70126850F5F1F4F0630110501F1F701E4
:10175000808190E0002E02C0959587950A94E2F76B
:10176000382F3170822F90E0002E02C0959587951A
:101770000A94E2F7880F991F8270382B8111CCCF21
:1017800030FDCCCF0F5F1F4F0630110501F7F70179
:1017900021937F01F6E0DF0E84E5D812B8CF0F90D9
:1017A0000F900F900F900F90DF91CF911F910F919D
:1017B000FF90EF90DF90CF900895CF93DF93EC01EF
:1017C00080910501882329F010920501CE010E9425
:1017D0006E0ACE01DF91CF910C94750B6C5F81E0A6
:1017E00090E001C0880F6A95EAF794B1442331F084
:1017F000982B94B995B1892B85B908958095982334
:1018000094B995B1892385B90895CF930E94220D8B
:1018100068EE73E080E090E00E94900380E40E9414
:10182000280DC82F81112AC080E00E94520DC82FB8
:10183000811124C080E00E94520DC82F81111EC06A
:101840008FE30E94520DC82F811118C00E944A0DCB
:1018500080E40E94280DC82F811110C08CE00E94E6
:10186000520DC82F81110AC080E00E94520DC82F6E
:10187000811104C08FE30E94520DC82F0E944A0DAF
:101880008C2FCF910895CF93DF93EC010E94050C2C
:10189000888380B38C7080BB81B3836F81BB84B13C
:1018A0008F6084B985B18F6085B98AB18C608AB93F
:1018B0008BB18C608BB93E9A469ADF91CF91089597
:1018C0001F93CF93DF93FC012081222321F0DF912E
:1018D000CF911F910895162FEC0180E40E94280DEE
:1018E0008883882329F0DF91CF911F910C944A0DB2
:1018F00082E10E94520D88838111F5CF81E090E052
:1019000001C0880F1A95EAF780950E94520D8883CE
:10191000EACFFB01EC59FE4F8081E82FF0E0F5950E
:10192000E795F595E795F595E795F595E79592A1F6
:101930008F7021E030E001C0220F8A95EAF7892FED
:10194000822782A308950F931F93CF936730710569
:1019500054F4FC01C081CC23A1F0C0E08C2FCF91C6
:101960001F910F9108958FB1CFB1C695C695CC73D5
:101970008370C82BC095CF738C2FCF911F910F917F
:1019800008958C0180E40E94280DF801808388234B
:1019900039F00E944A0D8C2FCF911F910F9108951D
:1019A00083E10E94520DF80180838111F2CF81E41E
:1019B0000E94280DF80180838111EBCF0E94630DF6
:1019C000C82FC095E6CF0F931F93CF93DF93EC0101
:1019D00080919E0281110DC00E945F036093A60258
:1019E0007093A7028093A8029093A90281E080934C
:1019F0009E028881882309F10E945F030091A6025C
:101A00001091A7022091A8023091A902601B710BCE
:101A1000820B930B683873418105910570F0CE01FC
:101A20000E94050C88830E945F036093A602709356
:101A3000A7028093A8029093A902DF91CF911F91F2
:101A40000F9108951092B9008AE08093B80008952C
:101A500094EA9093BC009091BC0097FFFCCF9091CA
:101A6000B900987F983021F0903111F081E008950D
:101A70008093BB0084E88093BC008091BC0087FF0A
:101A8000FCCF8091B900887F883111F0803471F7E4
:101A900080E0089584E98093BC008091BC0084FDBF
:101AA000FCCF08958093BB0084E88093BC008091B4
:101AB000BC0087FFFCCF9091B900987F81E09832FD
:101AC00009F480E0089584E88093BC008091BC0014
:101AD00087FFFCCF8091BB000895FC0182818F5B62
:101AE000FB01808381E00895CF93DF93CDB7DEB70C
:101AF00069970FB6F894DEBF0FBECDBFFC01DB01C6
:101B00009C919F5F9C939E012D5F3F4F81E1D90186
:101B10001D928A95E9F729E0298384E08A8391E080
:101B20009D8383E08E839F8398872A8721E22B877A
:101B30009C879D879F8722E2288B2FE3298B27E0B4
:101B40002B8B25E02C8B8E8B20E430E0388F2F8B75
:101B5000998F82818B83838180688D8B49E150E0EE
:101B6000BE016F5F7F4F80E00E94562A69960FB6D4
:101B7000F894DEBF0FBECDBFDF91CF910895FC0179
:101B8000DB018C918138A9F413968C9113978232E2
:101B900081F4228114968D919C912817190649F49D
:101BA0008285848F4FE350E066EB72E080E80C940E
:101BB000562A90E080E008950F931F93CF93DF9310
:101BC00000D0CDB7DEB7FC01DB01228114968D91E8
:101BD0009C9115972817190609F047C011968C910A
:101BE00011979C91913A99F4813029F0833059F4FE
:101BF000848D8093F10081E00F900F90DF91CF9161
:101C00001F910F910895823081F5858DF2CF913229
:101C100061F58B3021F412968C91848FECCF8A3051
:101C200011F4158EE8CF893001F58F0116968D914C
:101C30009C91179713962C91223061F40197A9F487
:101C400061E070E0CE0101960E947C2A8981F80152
:101C5000868FD1CF213049F4089739F468E070E0DD
:101C6000CF010B960E947C2AC6CF80E0C5CFCF93D0
:101C7000DF93EC0181E08C838D839E01255E3F4FD5
:101C80003F832E83198618862FE631E03983288317
:101C90006A876C8F8D8F1E8E81EC8B8F0E94EF2652
:101CA000BE01DF91CF910C94AB260895FC01848D89
:101CB0000895EF92FF920F931F93CF93DF938C01C0
:101CC000EC012B967C0183E1E80EF11C48E050E02A
:101CD000BE01C7010E94E72F892B21F1F801838102
:101CE00048E050E0BE0180640E94A5298C01E0918B
:101CF000D102F091D202309731F09C0148E050E0DF
:101D0000BE0182E0099588E0FE01D70101900D92A5
:101D10008A95E1F7C801DF91CF911F910F91FF9054
:101D2000EF9008950FEF1FEFF5CFFC0180E2860FD3
:101D3000883070F4605E770B21E030E001C0220F44
:101D40006A95EAF78385822B838781E090E0089586
:101D5000DF011D9690E080E02D912617B1F321114F
:101D600004C0E80FF91F6587F0CF01968630910512
:101D700099F790E080E00895CF93DF9320E2260F5B
:101D8000283090F4605E770B21E030E001C0220F34
:101D90006A95EAF72095FC0133852323238781E0A8
:101DA00090E0DF91CF910895DC011D969C012D5E9E
:101DB0003F4FFD014191461303C0EF012197188267
:101DC000E217F307B9F720E03D91332349F0EC0126
:101DD000C20FD11D4D853D87ED01219748832F5FAF
:101DE000AE17BF0789F7DBCF0B9628E0FC011192F5
:101DF0002A95E9F70895FC013D964396219126170F
:101E000029F0E817F907D1F780E0089581E00895F7
:101E10002091AA023091AB024091AC025091AD02E8
:101E20006091AE027091AF028091B0029091B102C8
:101E3000A1E00E94BD2F2093AA023093AB024093F1
:101E4000AC025093AD026093AE027093AF028093E8
:101E5000B0029093B1020E94C92F29F461E082EB95
:101E600092E00C94370E08958091E302811113C023
:101E70001092EC021092EB0285EF92E09093EE024A
:101E80008093ED0289E190E09093F0028093EF025D
:101E900081E08093E3020E94262E6BEE72E00C94A8
:101EA000932D0895FC0130E020E041915191452BA4
:101EB00041F4220F331F280F391FF901718360830A
:101EC00008952F5F3F4F2430310579F7089528E0BA
:101ED000FC0111922A95E9F70895CF93DF93EC0165
:101EE0000E94262E28E030E0AE0164E0DF91CF9121
:101EF0000C94E32D0F931F93CF93DF93EC018C0190
:101F0000085F1F4F48E050E0BC01C8010E94E72F66
:101F1000892B51F0CE010E946D0F88E0FE01D8019F
:101F200001900D928A95E1F7DF91CF911F910F916A
:101F3000089583ED92E00C94340F80912B0381116E
:101F400013C010923403109233038EE093E0909309
:101F500036038093350381E490E0909338038093B7
:101F6000370381E080932B030E94262E63E373E006
:101F70000C94932D0895CF93DF93EC010E94262EAD
:101F8000AE01435E5F4F2DE130E068E0DF91CF911D
:101F90000C94E32DEF92FF920F931F93CF93DF9357
:101FA000EC01F8808D8D8E010F5F1F4F8F15D9F0DA
:101FB000F801AE01435E5F4F20E0858D30813196A0
:101FC000932F9095982319F08323848F21E0E417B1
:101FD000F50799F7222319F0CE010E94BB0FFD8E61
:101FE000CE010E94BB0F7E018EE1E80EF11C4CE198
:101FF00050E0B801C7010E94E72F892B81F08CE1E6
:10200000F801D70101900D928A95E1F7CE01DF9199
:10201000CF911F910F91FF90EF900C94BB0F8FEF1A
:102020009FEFDF91CF911F910F91FF90EF90089557
:102030006E3D90F4E62FE695E695E695E80FF92FCC
:10204000F11D677021E030E001C0220F6A95EAF7C8
:102050009181922381E009F480E008956E3DA0F41F
:10206000E62FE695E695E695E80FF92FF11D6770E6
:1020700021E030E001C0220F6A95EAF78181822BCE
:10208000818381E090E00895605E683058F441E01B
:1020900050E001C0440F6A95EAF7FC012081242B2F
:1020A0002083EFCF90E080E008956E3DA8F4E62F06
:1020B000E695E695E695E80FF92FF11D677021E0AA
:1020C00030E001C0220F6A95EAF72095818128232C
:1020D000218381E090E00895605E683060F421E043
:1020E00030E001C0220F6A95EAF72095FC013081AB
:1020F00023232083EECF90E080E008952DE1FC01C2
:1021000011922A95E9F7089581EF92E00C949D0FC2
:1021100080913A03811113C010924303109242033D
:102120008FE493E0909345038093440388E190E02B
:10213000909347038093460381E080933A030E9483
:10214000262E62E473E00C94932D08950F931F9351
:10215000CF93DF93EB018A010E94262E9801AE01F6
:1021600065E0DF91CF911F910F910C94E32DCF93F8
:10217000DF931F92CDB7DEB7198241E050E0BE0178
:102180006F5F7F4F0E94A6100F90DF91CF9108954F
:102190000C94B710CF93DF931F92CDB7DEB769834E
:1021A000633841F481EA94E00E948F2C0F90DF9114
:1021B000CF91089541E050E0BE016F5F7F4F0E94D4
:1021C000A610F4CF89E393E00C94881084E690E0A5
:1021D0000C94C9030C940F308F929F92AF92BF92D0
:1021E000CF92DF92EF92FF920F931F93CF93DF93E3
:1021F0008C01FC01E080F18015821482C280D380C2
:10220000CE0CDF1C4701B12C8C149D0408F04BC090
:10221000E4012196C4010E94EA108E3008F043C008
:10222000E82FF0E0EA5EFE4E0C949D2F451124113C
:1022300024112811281128112411241124112611E8
:10224000261126112B113A11E40122964E01DCCF02
:10225000E4012396FBCF4E01CE010E94EA10A82E86
:102260002296C40101960E94EA10A110F4CF8111B8
:10227000F2CFECCF2C2F9D2F2196822F0E94EA10B7
:102280002C2F9D2F8111F8CFE1CFB394EB2DF0E0EF
:102290003296EE0FFF1FE00FF11FCE018E199F093E
:1022A00091838083D3CF8B2DDF91CF911F910F919D
:1022B000FF90EF90DF90CF90BF90AF909F908F9066
:1022C00008958F929F92AF92BF92CF92DF92EF923A
:1022D000FF920F931F93CF93DF93FC01EC5BFF4FB3
:1022E0002081621708F0DFC07C01E62FF0E0329613
:1022F000EE0FFF1FEE0DFF1DD7010D911C91808188
:102300009181080F191FD12CF701808191812281C1
:102310003381820F931F0817190708F0C4C0E80122
:102320002196C8010E94EA1081508D3008F0BBC090
:10233000E82FF0E0E256FE4E0C949D2FCA11D91101
:10234000E511F6110712181224123012D111D11111
:10235000D111AB113C128D2C912CB12CA12CCE01A2
:102360000E94EA10C82E8E010E5F1F4FCE0101960B
:102370000E94EA10811102C0CC2091F0682F7C2DC0
:102380008DE893E00E940114C501B4010E949003FE
:10239000E801E5CF0E5F1F4FCE010E94EA10D82E54
:1023A000E8016D2D70E090E080E00E9490038E01C6
:1023B000ABCF0E5F1F4FCE010E94EA10682F70E076
:1023C00090E080E00E949003EBCFCE010E94EA10E3
:1023D000C82EE8012396C80102960E94EA10682FD1
:1023E0007C2D8DE893E00E945D13DBCFCE010E942F
:1023F000EA10C82EE8012396C80102960E94EA104E
:10240000682F7C2D8DE893E00E949813CACFCE01EF
:102410000E94EA10C82EE8012396C80102960E9485
:10242000EA10682F7C2D8DE893E00E940114B9CF4B
:102430000E5F1F4FCE010E94EA10682F70E08DE8FA
:1024400093E00E945D13ACCF0E5F1F4FCE010E9440
:10245000EA10682F70E08DE893E00E949813A0CFF7
:102460000E5F1F4FCE010E94EA10682F70E08DE8CA
:1024700093E00E94011494CFCE018D2C912CB12CAD
:10248000A12C21960E94EA10882309F48ACF682F94
:1024900070E08DE893E00E940114C501B4010E9430
:1024A0009003CE01EECFDF91CF911F910F91FF905E
:1024B000EF90DF90CF90BF90AF909F908F90089556
:1024C000292F30E0322F222790E08C55914D280F94
:1024D000391F81E02032310508F080E008950F9324
:1024E0001F93CF93DF938C01EB018A819B810E9424
:1024F00060128823A9F0898181FF0DC080FD0BC087
:102500006A816C55C8010E94611181E0DF91CF9111
:102510001F910F9108958DE893E00E94C013F5CFAD
:1025200080E0F4CF61E873E084E494E00E94122735
:102530000E94E61084E494E00E943D270E94E61089
:1025400080E008950F931F93CF93DF93EC018B01ED
:1025500081EA93E00E94F415998388831B830A83A0
:10256000CE010E94EC10CC5BDF4F8883DF91CF91CE
:102570001F910F910895CF92DF92FF920F931F93B7
:10258000CF93DF93EC018B0180EB93E00E94E01985
:10259000882391F066E773E084E494E00E94412789
:1025A0000E94E61067E673E084E494E00E9441270D
:1025B0000E94E61080E064C046E753E0B80180EB7B
:1025C00093E00E94291A882309F462C084E494E00D
:1025D0000E941E2510E000E08A30910511F001965E
:1025E000F9F48A819B810817190708F048C088818F
:1025F0009981800F911F0E94EA104AE050E0682FF5
:1026000084E494E00E94AC270E94E61060E284E437
:1026100094E00E9436270E94E6100F5F1F4FE1CF23
:1026200084E494E00E941E258A30910511F1019600
:1026300001F18A819B8108171907D8F441E070E005
:1026400060E084E494E00E942128F62E68018FEF78
:10265000C81AD80A88819981080F191FC8010E94D9
:102660000F30F81621F06F2DC8010E941730860137
:10267000D7CFCE010E94EC10CC5BDF4F888381E086
:10268000DF91CF911F910F91FF90DF90CF90089530
:1026900047E653E0B80180EB93E00E94291A8823B3
:1026A00009F488CF41E070E060E084E494E00E94A7
:1026B0002128CE010E946111E2CFEF92FF920F9389
:1026C0001F93CF93DF9300D000D01F92CDB7DEB71A
:1026D0008C01F62EE72E6091AB048FEF898382E8A0
:1026E0008A83FB827C836D832FEF32E84F2D572F37
:1026F00085EB91E00E948907C8014096F801E81730
:10270000F90741F02081211111C0218121110EC052
:10271000F082E1820F900F900F900F900F90DF9159
:10272000CF911F910F91FF90EF9008953296E7CFD0
:10273000CF93DF9300D000D01F92CDB7DEB7AB01AF
:102740009C01205F3F4FFC012E173F0751F0808115
:10275000841305C08181851302C0108211823296D4
:10276000F3CF6091AB042FEF31E885EB91E00F9050
:102770000F900F900F900F90DF91CF910C948907DD
:10278000CF92DF92EF92FF920F931F93CF93DF933D
:1027900000D000D01F92CDB7DEB77C0120E1E20E61
:1027A000F11C8C01DD24DA9481E8C82EE016F106D4
:1027B000D1F0F80140815181411102C0552381F0CF
:1027C0006091AB04D982CA824B835C836D832FEF07
:1027D00031E885EB91E00E948907F80110821182AF
:1027E0000E5F1F4FE3CF0F900F900F900F900F9041
:1027F000DF91CF911F910F91FF90EF90DF90CF90DD
:1028000008950F931F93CF93DF9300D000D01F92B2
:10281000CDB7DEB78B016091AB042FEF32E8A80192
:1028200085EB91E00E9489076091AB042FEF31E8BE
:10283000A80185EB91E00F900F900F900F900F90F3
:10284000DF91CF911F910F910C9489070F931F93E4
:10285000CF93DF938C01005F1F4FEC010C171D0716
:1028600071F06881798189819881911102C08823F2
:1028700021F085EB91E00E9475062296EFCF80E073
:10288000DF91CF911F910F910895FF920F931F93A6
:10289000CF93DF93EC018B01FB01F0800E940F309E
:1028A000F81621F06F2DCE010E941730F801F1804B
:1028B0002196CE010E940F30F81621F06F2DCE0127
:1028C0000E941730C801DF91CF911F910F91FF90A7
:1028D0000895CF92DF92EF92FF920F931F93CF93C1
:1028E000DF937C0162E070E081EA93E00E94F415DE
:1028F000EC01F701918380838C016C01F2E0CF0E33
:10290000D11C0C151D0540F4C8010E940F308F3FEB
:1029100041F40F5F1F4FF5CF66E071E0CE010E94DA
:102920004514F701C081D181CE010E940F30809300
:102930000601CE0101960E940F308093070180E0CE
:10294000DF91CF911F910F91FF90EF90DF90CF908B
:10295000089569EA73E084E494E00E94122784E613
:1029600090E00E94C90384E494E00E943D2784E63D
:1029700090E00E94C90380E008950F931F93CF93C6
:10298000DF93EC018B0180EB93E00E94E019882338
:1029900061F06FE873E084E494E00E94412784E6EC
:1029A00090E00E94C90380E024C04FE853E0B801E2
:1029B00080EB93E00E94291A8823A9F384E494E031
:1029C0000E941E258A309105C9F00196B9F041E0B8
:1029D00070E060E084E494E00E94212860930601A6
:1029E0007093070166E071E0888199810E94451427
:1029F00081E0DF91CF911F910F91089560910701C0
:102A000070E0762F662780910601680F711D4AE0FD
:102A100050E084E494E00E94B32784E690E00E94B2
:102A2000C90360E284E494E00E94362784E690E0E3
:102A30000E94C903D7CFCF93DF93DC01EB019A81CA
:102A40008C91981305C02B8111968C91281749F011
:102A50009E3721F080E0DF91CF9108958B81813DF9
:102A6000C9F7898181FFF6CF80FDF4CF87FDF2CFD2
:102A700085E191E00E94461D882361F361E085E1D4
:102A800091E00E94AD1D1A821B8281E0E4CF84E6B2
:102A900090E00C94C9034AE050E0682F84E494E08D
:102AA0000E94AC270E94471560E284E494E00E94F3
:102AB00036270C944715FF920F931F93CF93DF9304
:102AC000EC01F62E08811981C8010E940F30F8161A
:102AD00021F06F2DC8010E941730CE01DF91CF91F8
:102AE0001F910F91FF900895F89481E08093E0008A
:102AF00080E28093D800E9ECF0E010828FE19EE460
:102B00000197F1F700C000001DBA109268001CBCCC
:102B100010BE1FBA10927A0010926E0010926F00D1
:102B200010927100109272001082ECEBF0E01082B3
:102B300014B817B81AB81DB810BA108215B818B85A
:102B40001BB81EB811BA0C94003F0895AF92BF9203
:102B5000CF92DF92EF92FF920F931F93CF93DF9369
:102B600000D0CDB7DEB78C016C0184E0C80ED11C5B
:102B70005601F12CE12CC7010E940F30F501819321
:102B80005F01FFEFEF1AFF0A84E0E816F10499F7FE
:102B9000F80185818F3FD1F48481982F9F779F37EB
:102BA00011F487FD148281E0F801858310E000E0D4
:102BB0001A830983F60161916F01CE0101960E948B
:102BC0005B150F5F1F4F0430110591F780E00F90E8
:102BD0000F90DF91CF911F910F91FF90EF90DF90B9
:102BE000CF90BF90AF9008950F931F93CF93DF9333
:102BF00000D0CDB7DEB77A836983FC01238110E072
:102C000000E021110FC000811181CB01800F911FC5
:102C10009183808342E0BE016F5F7F4F89EA93E03A
:102C20000E941A18C8010F900F90DF91CF911F9149
:102C30000F910895CF92DF92EF92FF920F931F931F
:102C4000CF93DF9300D0CDB7DEB77C016C0184E079
:102C5000C80ED11C10E000E01A830983F6016191CF
:102C60006F01CE0101960E945B150F5F1F4F04306C
:102C7000110591F781E0F70182830F900F90DF91AA
:102C8000CF911F910F91FF90EF90DF90CF9008951B
:102C90001F93CF93DF93EC01162F809100016817EB
:102CA00048F4862F0E94EE088C818078912F9F77C0
:102CB000892B8C831E3720F08C8180788E678C83E3
:102CC000CE010E941A168C818F77DF91CF911F91D0
:102CD0000895FC01948160FB97F99483892F8F7785
:102CE0008F3719F490789E679483CF010C941A164D
:102CF000CF93DF93EC0181E08B8360E189EA93E07D
:102D00000E9401188D81813021F01A82DF91CF91CC
:102D100008952E813F818091A9039091AA032F3FAE
:102D2000320769F49F838E83CE010E941A168C812C
:102D30008F778E3758F7DF91CF910C94EE082817D4
:102D4000390721F7F4CFFC012381211102C00E9431
:102D5000781680E0089584E090E09093A203809339
:102D6000A103089584E494E00E941E259C0181E063
:102D70002A30310529F02F3F3F4F11F080E00895B0
:102D80000895CF93DF93EB0180EB93E00E94E0196D
:102D9000882311F160E174E084E494E00E9441270B
:102DA0000E94471560E074E084E494E00E944127AB
:102DB0000E9447156FEE73E084E494E00E9441277F
:102DC0000E94471562EE73E084E494E00E9441277C
:102DD0000E94471580E05FC040E154E0BE0180EBF7
:102DE00093E00E94291A882381F00E94B216811173
:102DF00065C041E070E060E084E494E00E94212836
:102E000081EA93E00E94481645C040E054E0BE01CC
:102E100080EB93E00E94291A811140C04FEE53E0ED
:102E2000BE0180EB93E00E94291A81112FC042EE6F
:102E300053E0BE0180EB93E00E94291A882351F2EF
:102E40008091A403D0E0C0E0882321F0C091A703C3
:102E5000D091A8036091A9037091AA034AE050E0C1
:102E600084E494E00E94B3270E94471560EE73E06B
:102E700084E494E00E9412270E9447154AE050E043
:102E8000BE0184E494E00E94B32715C08091A6039C
:102E90000E944B1581E0DF91CF9108956091A303CB
:102EA00080EB93E00E94D5190E94471560E284E40C
:102EB00094E00E9436270E944715ECCF8091A5032D
:102EC0008F77E6CF0F931F93CF93DF9300D0CDB7CB
:102ED000DEB78B0180EB93E00E94E019882301F1BB
:102EE00060ED73E084E494E00E9441270E9447155E
:102EF00064EC73E084E494E00E9441270E9447154B
:102F000067EB73E084E494E00E9441270E94471538
:102F100080E00F900F90DF91CF911F910F91089556
:102F200040ED53E0B80180EB93E00E94291A88231A
:102F3000F1F00E94B21610E000E0811156C00E942C
:102F4000B216811150C041E070E060E084E494E08A
:102F50000E9421281A830983CE0101960E945B15E5
:102F60000F5F1F4F011584E0180749F73CC044EC80
:102F700053E0B80180EB93E00E94291A81111CC034
:102F800047EB53E0B80180EB93E00E94291A10E070
:102F900000E0882309F4BDCF1A8309836FEFCE01C7
:102FA00001960E945B150F5F1F4F011584E0180703
:102FB00099F70E94741517C08091A1039091A20304
:102FC00060E074E0681B790B4AE050E084E494E030
:102FD0000E94B3270E94471560E284E494E00E94B7
:102FE00036270E94471581E094CFC8010E940F3018
:102FF0000E944B150F5F1F4F011584E01807A9F7BA
:10300000F2CFFC01208131812170332781E08617C6
:1030100070F4408151815695479551834083220F2A
:10302000331F41705527242B352B8F5FF0CF318311
:1030300020830895DC01FB01415000F181912D9125
:103040003C91119768E070E051E0982F952399F436
:10305000932F991F9927991F220F331F992319F036
:1030600095E029273058550F6150710971F7119675
:103070003C932E93E1CF932F9095EBCF089584E668
:1030800090E00C94C9031F93CF93DF939091AD030D
:10309000891730F080E090E0DF91CF911F91089583
:1030A000C62FD0E094E5899FC00DD11D1124CC0F0F
:1030B000DD1F6091AE037091AF03C60FD71FCE0125
:1030C0000E940F30182FCE0101960E940F30912FD1
:1030D000E3CF9091AC03891710F40C94A408891BDA
:1030E0000C94431881EA93E00E94A6158091000198
:1030F0008093AC0380E0089565E574E084E494E097
:103100000E9412270E943F1884E494E00E943D2709
:103110000E943F1880E008958093AD0398EA899F4C
:10312000B001112481EA93E00E94F4159093AF035B
:103130008093AE030895809300019091A50323E44A
:1031400038E197FD07C09091AC03980F9093000170
:1031500029E638E130930301209302010C948C1886
:10316000FF920F931F93CF93DF9300D0CDB7DEB7BD
:10317000F62E672F8C01000F111F8091AE039091E6
:10318000AF03800F911F9A838983CE0101960E941D
:103190005B158091AE039091AF030196800F911F54
:1031A0009A8389836F2DCE0101960E945B150F9043
:1031B0000F90DF91CF911F910F91FF900895FF9293
:1031C0000F931F93CF93DF93F82E8B01C0E0CF15A1
:1031D000F9F0D0E06D2F8C2FF8010995692F70E080
:1031E000762F6627680F711D4AE050E084E494E072
:1031F0000E94B3270E943F1860E284E494E00E949A
:1032000036270E943F18DF5FD43521F7CF5FDFCF2D
:10321000DF91CF911F910F91FF90089584E494E086
:103220000E941E259C0181E02A30310529F02F3FA4
:103230003F4F11F080E008950895FF920F931F9380
:10324000CF93DF931F92CDB7DEB78B0180EB93E076
:103250000E94E019882301F167E474E084E494E0BB
:103260000E9441270E943F1868E374E084E494E0E0
:103270000E9441270E943F1866E274E084E494E0D3
:103280000E9441270E943F1880E00F90DF91CF916C
:103290001F910F91FF90089546E254E0B80180EB32
:1032A00093E00E94291A8823E1F10E940E198823D5
:1032B000B1F06091A50367FB662760F94AE050E032
:1032C00084E494E00E94AC270E943F1860E284E40A
:1032D00094E00E9436270E943F1881E0D6CF41E05B
:1032E00070E060E084E494E00E942128162F698356
:1032F00081EA93E00E9469169091AD0390930001DA
:10330000112339F083E498E1909303018093020143
:10331000E4CF8091AC03890F8093000189E698E1A6
:10332000F3CF48E354E0B80180EB93E00E94291A00
:10333000882339F064EA78E08091AC030E94DF18BA
:10334000CCCF47E454E0B80180EB93E00E94291A07
:10335000882309F499CF0E940E1910E000E094E54B
:10336000F92E882329F063E478E18091AD03E6CF5C
:103370000E940E198111B1CF8091AD038F9DC001C4
:1033800011240817190708F0A8CF41E070E060E0A9
:1033900084E494E00E942128272F3327722FC8014C
:1033A0000E94B0180F5F1F4FE3CF611106C067E6A0
:1033B00074E084E494E00C9412276DE674E0F9CF95
:1033C000CB0162E674E00E94DE2F21E0892B09F038
:1033D00020E0822F0895CF93DF93EB010E94E01944
:1033E000882301F167E874E084E494E00E944127B7
:1033F00084E690E00E94C9036AE774E084E494E004
:103400000E94412784E690E00E94C90362E774E0CD
:1034100084E494E00E94412784E690E00E94C9037E
:1034200080E00AC06AE774E0CE010E94DE2F892B9B
:1034300031F40E94741581E0DF91CF91089562E725
:1034400074E0CE010E94DE2F892B51F70E943504D3
:10345000F2CFCB01BA010E94DE2F21E0892B09F0C7
:1034600020E0822F08951092D0030895CF93DF9328
:10347000EC0184E494E00E94342584E494E00E940A
:103480003725892B09F442C084E494E00E941E256C
:103490000A9799F184E494E00E94472580329105CF
:1034A000E1F4CE010E94A60484E494E00E94372552
:1034B000892B31F084E494E00E9447250A97A1F714
:1034C0006CE874E084E494E00E94412718A280E252
:1034D000FE0111928A95E9F719C0E8A191E09E0FCB
:1034E00098A3EC0FFD2FF11D80839F3130F484E40D
:1034F00094E00E943725892B39F684E494E00E94F9
:103500001E250A9771F288A18F3158F680E0DF916D
:10351000CF91089560E974E084E494E00E9412275A
:1035200084E690E00E94C90384E494E00E943D2771
:1035300084E690E00E94C90380E0089580E0089549
:10354000FC01703579F4862F8076803429F49485D7
:10355000862F8F7B892B8487862F807729F483851C
:10356000682B638780E008958031E1F780E1689FF0
:10357000B0011124F4CFCF93DF93EC0181E795E004
:103580000E945B2E6C8581E795E00E94612E81E7A9
:1035900095E0DF91CF910C94732EFB01828186FB25
:1035A000992790F960E080FD62E0692B90E081FD51
:1035B00094E0692B90E082FD98E0692B83FD06C0C2
:1035C00080E0682B82ED93E00C945F1C80E1F9CFE2
:1035D000FB0123812035A9F4DC011B961C921B976B
:1035E00022812076203411F41C961C92218121FF27
:1035F00008C020FD06C0BF01228125FF04C00E9433
:10360000CD1A80E0089582ED93E00E945C1CF9CF12
:103610006091B6017091B701FC0126813781621B70
:10362000730B238134812617370760F090E080E028
:10363000982F872F762F662750E040E00E947B2F3F
:10364000822F08958FEF0895482F50E087FD0AC01C
:10365000889FC0011124880F892F881F990B91958D
:103660008F5F089520E031E0241B350B229FC001BD
:10367000239F900D900D1124880F892F881F990B7F
:10368000919580950895CF93DF93EC010E94081BDC
:103690000E94241B29819A81921B30E0322F22271D
:1036A000989F200D311D112454E0369527955A9589
:1036B000E1F7220F331F220F331F8091D10390E0D7
:1036C000805C9F4F280F391F2093D103832FDF91F8
:1036D000CF9108950F93CF93FC01C2852C2F2F70AB
:1036E000D1F00E94431B682F6195C2FF60E0C3FDCB
:1036F000680F482F4195C0FF40E0C1FD480F00E032
:1037000020E081E795E00E94532E81E795E0CF917C
:103710000F910C94732ECF910F9108950F93FC018C
:10372000828590E054E0959587955A95E1F700974A
:10373000E1F09C0136952795369527952170022F4B
:10374000019583FF02C001E0021B9C012170332719
:1037500081FD215040E060E081E795E00E94532E1A
:1037600081E795E00F910C94732E0F910895CF93FC
:10377000DF93FC0122852223D9F0EC018091B60170
:103780009085891B843030F0CF010E946A1B8885A8
:103790008C5F88878091B6019985891B98818917EC
:1037A00038F0CE010E948E1B89859881890F898708
:1037B00080E0DF91CF9108950F931F93CF93DF9314
:1037C000FB012381203521F58B01EC01828180767C
:1037D000803419F4CE010E94BB1A8A858F7031F4AF
:1037E0008091B6019091B7019F838E838B858A87E4
:1037F0001B86F801818181FF0BC080FD09C0828199
:10380000807761F4CE010E946A1B8091B60188879F
:1038100080E0DF91CF911F910F9108958031C1F722
:10382000CE010E948E1B8091B6018987F1CF0F9344
:103830001F93CF93DF9300D000D000D0CDB7DEB779
:1038400016950795600F711F36952795420F531FE8
:10385000E5E8F5E07587648757874687808989831F
:103860007B836A835D834C831E820284F385E02D13
:103870000190F081E02D46E050E0BE016F5F7F4F88
:103880008FE895E0099526960FB6F894DEBF0FBE37
:10389000CDBFDF91CF911F910F910895FC01178249
:1038A0001682158214828FEF9FE791838083938322
:1038B000828381E080870895FC0110860895FF923D
:1038C0000F931F93CF93DF93EC01F62E8885811120
:1038D00003C0CE010E944E1CF0FE07C01886DF9187
:1038E000CF911F910F91FF90089560910D0170E0AD
:1038F000888199810E94672F8B0179836883609109
:103900000D0170E08A819B810E94672F9B017B8360
:103910006A836F2D64704C815D818E819F817F2DC4
:103920007670763069F4B801680F791F7F836E83F3
:10393000420F531F5D834C83CE010E94171CCFCFD3
:10394000662329F1E0910D01E150FF0BE29FB001E8
:10395000E39F700DF29F700D1124460F571F5D837A
:103960004C83F4FE19C040910D014150550B409F0E
:10397000B001419F700D509F700D1124860F971F4D
:103980009F838E834C815D816E817F81D5CFF1FCD9
:10399000E8CF420F531FE3CFF3FCF4CF800F911F0A
:1039A000EFCF1092DA030895FC018281DB019C9134
:1039B000891730F5A081B181A80FB11D2C9130E09D
:1039C000938102C0359527959A95E2F72483448127
:1039D000442391F0242F30E0938140FF07C0880FEB
:1039E000880F880F890F858381E008953595279585
:1039F00024839F5F9383EBCF8F5F82831382D5CF26
:103A000080E00895262F269526952695820F911DF4
:103A1000FC01808190E0677002C0959587956A955A
:103A2000E2F781700895E62FE695E695E695E80FB2
:103A3000F92FF11D677081E090E0A0E0B0E004C0D4
:103A4000880F991FAA1FBB1F6A95D2F72081822B6E
:103A500080830895E62FE695E695E695E80FF92F21
:103A6000F11D862F877041E050E060E070E004C0F7
:103A7000440F551F661F771F8A95D2F740955095C2
:103A8000609570958081482340830895EF92FF925E
:103A90000F931F93CF93DF93CDB7DEB72C970FB65D
:103AA000F894DEBF0FBECDBF8C010A9698878F8336
:103AB00019861A86FF24FA94FC869A8389838BE000
:103AC000E82EEB821C82FE82BE016D5F7F4FCE012D
:103AD00007960E94D41C811113C00B5E1F4F1887DC
:103AE0000F8319861A86FC861A830983EB821C824F
:103AF000FE82BE016D5F7F4FCE0107960E94D41CEF
:103B00002C960FB6F894DEBF0FBECDBFDF91CF91DC
:103B10001F910F91FF90EF900895272F207C69F45B
:103B2000605E683080F4FC018681978102C09695C2
:103B300087956A95E2F781700895743431F426ED23
:103B4000260F2A3220F081E008957634E1F76252A0
:103B500060314CF3F8CF0C948D1DAF92BF92DF9281
:103B6000EF92FF920F931F93CF93DF93CDB7DEB702
:103B700061970FB6F894DEBF0FBECDBF8C010A96D9
:103B80007C01662381F1580195E1A90EB11CB8862C
:103B9000AF8219861A868FEF8C87BA82A9829BE042
:103BA0009B831C828E83BE016D5F7F4FCE01079683
:103BB0000E94D41C8823B9F0DC846D2DC5010E94BD
:103BC0002A1D6D2DC7010E942A1D6091AB042D2D69
:103BD00031E84FEF5FEF85EB91E00E9489078A851E
:103BE0008F5F8A87E0CFF886EF8219861A868FEF7B
:103BF0008C87FA82E9829BE09B831C828E830B5E1A
:103C00001F4FBE016D5F7F4FCE0107960E94D41CEF
:103C1000882309F1DC846D2DC8010E94021D6D2DE1
:103C20008823A9F0C8010E942A1D6D2DC7010E949A
:103C30002A1D6091AB042D2D31E84FEF5FEF85EB2E
:103C400091E00E9489078A858F5F8A87DACFC70152
:103C50000E942A1DF8CF61960FB6F894DEBF0FBE02
:103C6000CDBFDF91CF911F910F91FF90EF90DF902B
:103C7000BF90AF9008956AE974E084E494E00E94F4
:103C8000122784E690E00E94C90384E494E00E9435
:103C90003D2784E690E00E94C90380E008954F929A
:103CA0005F926F927F928F929F92AF92BF92CF92CC
:103CB000DF92EF92FF920F931F93CF93DF93CDB7D5
:103CC000DEB761970FB6F894DEBF0FBECDBF8C0193
:103CD000FC0160807180C090B601D090B70180A1D6
:103CE00091A1C81AD90A828093807801FAE0EF0E78
:103CF000F11CF886EF8219861A868FEF8C87FA827C
:103D0000E9829BE09B831C828E83512C580185E1C4
:103D1000A80EB11CBE016D5F7F4FCE0107960E94B9
:103D2000D41C482E882349F15C84652DC5010E946E
:103D3000021D8823D1F0C614D70490F0652DC5016B
:103D40000E942A1D652DC7010E942A1D6091AB04A7
:103D5000252D31E84FEF5FEF85EB91E00E94890759
:103D60008A858F5F8A87542CD5CFC814D904C0F3B5
:103D7000652DC7010E942A1DF3CF511007C0809105
:103D8000B6019091B701F80191A380A380E06196FC
:103D90000FB6F894DEBF0FBECDBFDF91CF911F915C
:103DA0000F91FF90EF90DF90CF90BF90AF909F90DA
:103DB0008F907F906F905F904F9008950C944F1E5E
:103DC000872F90E0982F8827860F911D2FEF280FBF
:103DD000283018F4815290E008958F5D94E408959E
:103DE000AF92BF92CF92DF92EF92FF920F931F9309
:103DF000CF93DF93FB01B180B7FC5BC0EB018C017B
:103E00006C01FAE0CF0ED11C6881C6010E94021D30
:103E1000A82E780185E1E80EF11C6881C7010E9497
:103E2000021DB1FE96C0B0FC94C0A11057C0811114
:103E30008BC08A819B81292F30E0322F2227482F87
:103E400050E04150504C240F351F2031310598F47B
:103E50006A817B81C8010E94E01E9B838A836881FE
:103E6000C6010E94131D8091B6019091B701F8011F
:103E700091A380A31BC0F8012085222339F0292FAC
:103E8000207C21F420E2280F283048F3F801218516
:103E9000222331F0943479F426ED280F2A32F8F2F7
:103EA000292F207C59F4805E883068F48881F801DD
:103EB00082A380E03EC0963499F7D1CF943459F470
:103EC0008A528A3298F3F80180A191A12081318130
:103ED000821B930BCDCF963449F3F5CF882331F372
:103EE0006881C6010E942A1D9881F80182A1981755
:103EF00029F06881C7010E942A1DD8CF6A817B8181
:103F0000C8010E94AB1D8823A1F3F801848195812B
:103F100097FF02C0808191812091B6013091B70155
:103F2000F80140A151A1241B350B2817390708F7C8
:103F300082E0DF91CF911F910F91FF90EF90DF9082
:103F4000CF90BF90AF9008956881C6010E942A1D4E
:103F5000D0CFA11003C0882309F4ABCF6881C7017B
:103F60000E94131DE5CF62EA74E084E494E00E94AD
:103F7000122784E690E00E94C90384E494E00E9442
:103F80003D2784E690E00E94C90380E00895FC018B
:103F9000872F90E0982F8827680F792F711D613146
:103FA00080EC7807E0F0623188EC780750F46151DA
:103FB000704C66A717A611AA80EE870F80AB81E030
:103FC0000895633180ED780750F46251784C66A70C
:103FD00017A68AE2870F80AB84E481ABF0CF80E044
:103FE00008958F929F92AF92BF92CF92DF92EF92FD
:103FF000FF920F931F93CF93DF9300D000D0CDB7E4
:10400000DEB78C01F62E23E5261708F469C0E62FEB
:10401000F0E0EE0FFF1FE455FB4FD080E1808FEF03
:10402000D8120FC0E8120DC0AF2DB0E0A554BE4F9E
:10403000E0910201F09103016F2D8C910995D82E2A
:10404000E92E6D2D7E2DC8010E94C71FB82E81114B
:1040500035C0EF2DF0E0E554FE4F8080C12CAA243E
:10406000AA94912CF8018281C81608F042C0F4E0AD
:10407000CF9EC0011124F80160817181680F791F02
:10408000AA8244E050E0CE0101960E94D52F89819A
:104090009A813B812C81F9122AC0482F082E000CEE
:1040A000550B4815590511F08F3F09F5F801D6A6B3
:1040B000E7A6C90190AB21ABBB24B3948B2D0F9025
:1040C0000F900F900F90DF91CF911F910F91FF9064
:1040D000EF90DF90CF90BF90AF909F908F9008951A
:1040E0001092540510925505E4E5F5E096CFC3947F
:1040F000B9CFD6A6E7A68FEF80AB81ABDFCFCF934A
:10410000DF93FC01EB019A01261B370BA4E6B0E01C
:104110000E94A32F26A130E050E040E00E947B2FB8
:104120008091B6019091B701BC016C1B7D0B81E0C1
:104130006217730708F080E0DF91CF910895292F6F
:10414000207C29F4805E883058F481E00CC09434DF
:1041500039F496ED980F81E09A3228F080E00895C6
:1041600081E09634D9F70895CF93DF93EC018881ED
:10417000681780F5882371F181508883E62FF0E07D
:10418000DF011196AC0FBD1FEE0FFF1F7196EC0FF4
:10419000FD1F962F981780F411962C9111972D934F
:1041A00018962C91189717962C9317972281338184
:1041B000219331939F5FEECF2FEF30E001C0220FAC
:1041C0006A95EAF789A1922F909598238695822384
:1041D000892B89A3DF91CF910895CF93DF9300D0EE
:1041E00000D01F92CDB7DEB7FC01348584A1982F93
:1041F000917080FD28C082E0248139838A836B839B
:104200007C832D8391110AC0872F90E0982F8827F7
:10421000680F792F711D64307105F0F460E0CF01F3
:1042200003960E94B42029813A814B815C816D8183
:1042300085EB91E00F900F900F900F900F90DF9112
:10424000CF910C94400881E0D7CF6D32710530F3E7
:104250006933710518F703C068327105B0F78489B6
:10426000958994A783A7DACFCF93DF93FC0173815D
:10427000DC011D9681E090E060E08717F0F452A920
:104280004D9124A130E0082E02C0359527950A945F
:10429000E2F720FD0DC0541721F080E0DF91CF91AF
:1042A00008952489358934AB23AB682F0196E5CF77
:1042B0005413FCCF8FEF82ABF0CF8091B601909179
:1042C000B70123A934A9821B930B25A92817190626
:1042D00009F068F48FEF82AB6623F9F2EF012396C1
:1042E000CE010E94B42060E0CE010E94B42081E0A3
:1042F000D5CF7F928F929F92AF92BF92CF92DF9253
:10430000EF92FF920F931F93CF93DF93EC019B816A
:10431000911110C0F12C8F2DDF91CF911F910F9132
:10432000FF90EF90DF90CF90BF90AF909F908F90D5
:104330007F9008959C848CA180FF13C0983041F435
:1043400060E070E0CE010E94ED20FF24F394E3CF03
:104350008AA99812F5CFCE010E9434218111DACFBB
:10436000EFCF692DCE010E94F11F882309F470C0A0
:10437000FDA0FF2009F46CC00EA51FA5C8010E9476
:104380009F20882E8091B6019091B7012BA53CA566
:10439000821B930B2AA52817190609F010F57B80BC
:1043A000A090B601B090B7016E0101E010E0E12CE1
:1043B000202F071508F065C08CA190E0002E02C0E8
:1043C000959587950A94E2F780FD12C0811040C050
:1043D000EE2009F454C07FEFC71AD70A0F5F1F4FB2
:1043E000E7CF8110DCCFB801CE010E94ED20D7CFFE
:1043F000F6019585FE013D9681E099122DC0EE20D3
:1044000019F08EA1811110C0882059F068A979A9EE
:104410009AAA8C899D899CAB8BABCE010E94ED2022
:104420007ACF6EA57FA5F4CFF801EE0FFF1FEC0F3A
:10443000FD1F44895589EE2DF0E0EE0FFF1FEC0FB4
:10444000FD1F64897589CE010E947F208111C3CF31
:104450006EA57FA577CF8F5F821708F0BCCF319113
:104460003913F9CF4C895D89B501641B750B39A5EA
:104470003617170609F078F768A979A9CECFE02E8C
:10448000AACF88E0781246CFE3CF0F931F93CF9344
:10449000DF93EC01FB0124818DA5922F981B191647
:1044A0002CF08B8181111CC080E025C02DA780815C
:1044B0008435D0F7818187FDF7CF8B018DA18111E4
:1044C0001FC062817381CE010E94C71F882361F3E0
:1044D0008EA59FA5D80113969C938E931297E4CF37
:1044E000022E000C330B8C81281B310987FD33957C
:1044F00037FDDACF82E0DF91CF911F910F910895C0
:104500002B81822F90E03481FE01E80FF91F348364
:10451000DB013C913487880F991FFE01E80FF91FDA
:104520008091B6019091B701958B848B11964C9137
:104530003CA181E090E0A0E0B0E0022E04C0880F32
:10454000991FAA1FBB1F0A94D2F740FF0CC041FD60
:104550000AC0832B8CA32F5F2B83CE010E9479216D
:104560008111FBCFC7CF80958323F4CF0F931F9387
:10457000CF93DF93EC012091B6013091B7018AA56A
:1045800090E04BA55CA5B901641B750B6817790712
:1045900038F0A90141505109481B590B5CA74BA7A2
:1045A0008B818823D9F08C899D89281B390B8FA199
:1045B00098A52817390768F00EA51FA5C8010E9405
:1045C0009F20B801811102C068A979A9CE010E947B
:1045D000ED20CE010E9479218111FBCF80E0DF9197
:1045E000CF911F910F910895CF93DF93CBEDD3E03F
:1045F000198218821A821B8288E0EBE4F1E0A7EEB0
:10460000B3E001900D928A95E1F781E08DA380E5FA
:104610008EA38AEF90E098A78FA382E389A78BE40B
:104620008AA780E091E09CA78BA78FEF8DA78EA72C
:104630008FA788AB89AB8AAB88EC8DABDF91CF912C
:104640000895FC0188EC90E09283818314821382A8
:104650008FEF8583168240915301509154016091F0
:104660005501709156014387548765877687808FFF
:1046700080912A0481112CC081EE80933204109223
:10468000330486E28093340488E0809335041092EA
:1046900037041092360495EE909338041092390442
:1046A00097E290933A0480933B0410923D04109259
:1046B0003C0410923E0410923F0410924004109269
:1046C0004104109243041092420481E080932A0432
:1046D00082E394E094838383089569EA74E084E438
:1046E00094E00E94122784E690E00E94C90384E4CB
:1046F00094E00E943D2784E690E00E94C90380E098
:104700000895DC0190E086E01396ED91FC911497FA
:10471000989FE00DF11D1124208121110FC03181DE
:1047200031110CC03281311109C03381311106C001
:1047300044815581452B11F48FEF0895261303C052
:104740002181271711F09F5FDFCF892F08950F93E5
:104750001F93CF93DF93CDB7DEB72A970FB6F894A8
:10476000DEBF0FBECDBF8C01DC0157968C9180FD62
:1047700049C082E0F801238597812E838F838FEFD4
:10478000888789879A87662329F1908D97FD22C0B3
:104790009081923079F46091AB04298391E09A83FF
:1047A0008B838C836D8331E04FEF5FEF85EB91E07E
:1047B0000E948907D80158968C9158971396ED91CD
:1047C000FC91B6E08B02E00DF11D112482819381F2
:1047D00099878887F80186818823F9F0815086833C
:1047E0003796D8011F9690E0981770F42181219395
:1047F0002481238312962D913C9113972D933D9301
:104800009F5FF2CF81E0B6CFD80157968C91579732
:1048100090E09595879557968C932E813F8148859A
:1048200059856A8585EB91E02A960FB6F894DEBF2C
:104830000FBECDBFDF91CF911F910F910C948907CF
:10484000CF93DF93EC018E81882329F060E0CE01C5
:104850000E94A723F8CFDF91CF910895FC018681B4
:104860008823F1F021813281808DA381B48196E08B
:104870008902A00DB11D112414968D919C91009771
:1048800009F09C018091B6019091B701478550894C
:10489000841B950B8217930718F0CF010E942024E8
:1048A00080E00895CF93DF93FC01EB012081822FFC
:1048B00090E03C81DF01A80FB91F11963C9311973E
:1048C000388115963C93880F991FDF01A80FB91FF7
:1048D0008091B6019091B7011A969C938E93199787
:1048E0009981818941E050E060E070E0022E04C0CF
:1048F000440F551F661F771F0A94D2F790FF09C017
:1049000091FD07C0482B418B2F5F2083DF91CF9112
:10491000089540954823F7CF0F931F93CF93DF93CC
:10492000EC01FB0184819D81282F291B12164CF07C
:104930009E8191111CC080E0DF91CF911F910F915A
:1049400008958D8320812435B0F7818187FDF3CFD1
:10495000382F327081FF1FC080FD1DC092819835B5
:1049600091F49381913DB9F4188281E0E5CF082E4E
:10497000000C990B2F81821B910927FD939597FDC0
:10498000DACF82E0D9CF993531F49381913D19F492
:1049900081E08883D1CF9881913069F28F019E8127
:1049A000992371F080FF09C0311107C08B858213F4
:1049B00023C061E0CE010E94A723CE010E942024E3
:1049C000F801818181FFB7CF80FDB5CF628173810E
:1049D000CE010E948123888F87FDADCF88818230F0
:1049E00069F4F8012081318142815381648185EB32
:1049F00091E00E94890702C09430F9F2B801CE011B
:104A000006960E945224BDCF81E194E00C942123AC
:104A1000CF93DF931F92CDB7DEB76983DC01ED91B1
:104A2000FC910280F381E02D41E050E0BE016F5F18
:104A30007F4F09950F90DF91CF910895CF93DF932A
:104A4000EC018C859D8597FF05C082E00E9474294A
:104A50009D878C878C859D85DF91CF91089583E01C
:104A60000E948B2990E0089583E00C94FA2BFC01BE
:104A70008485958597FD06C082E00E94242990E0F8
:104A80000196089582E00E94242990E00895FC0197
:104A90008485958597FD05C02FEF3FEF35872487E7
:104AA000089582E00C947429CF93DF93EC018091F8
:104AB0004301882331F083E00E94A52918161906C6
:104AC00034F081E090E09B838A8380E090E0DF9186
:104AD000CF910895EEEFFFE72591349181E02B3FD0
:104AE0003C4D09F080E00895FC0190819E5F908329
:104AF00042E450E064EB74E080E80C94562AFC0138
:104B000081819081913A61F4813209F083C047E05C
:104B100050E06CE371E080E00E94562A81E0089545
:104B2000913209F077C0833269F482819381B0E0D9
:104B3000A0E08093380190933901A0933A01B0939B
:104B40003B01ECCF803239F467E070E08CE391E018
:104B50000E947C2AE3CF823209F78281809343014D
:104B60000E946A25E0E0F8E0882311F0EEEFFAE019
:104B700080913C0190913D01A0913E01B0913F0197
:104B8000803B9440A105B105D9F48091430180FD9B
:104B900017C0EE3F8AE0F80771F587E797E7918342
:104BA0008083809160008093940488E19BE00FB63D
:104BB000F894A895809360000FBE90936000AECFEC
:104BC000808191818737974709F0A8CFA895809178
:104BD00060008861809360008091940480936000FD
:104BE000EE3F8AE0F80789F08091FE0A9091FF0A73
:104BF0009183808393CF808191818737980769F271
:104C00009093FF0A8093FE0AC8CF1092FF0A109279
:104C1000FE0A84CF80E008952FEF3FEFFC01358737
:104C200024870895E4E4F4E01382128288EE93E08E
:104C3000A0E0B0E084839583A683B7838BE791E0FF
:104C4000918380838FEF9FEF958784870895EF92FC
:104C5000FF920F931F93CF93DF937B01FC01C281DF
:104C6000D38110E000E0209791F0E881F981028083
:104C7000F381E02DB701CE01099597FD06C0080F1D
:104C8000191F0884D985C02DEECF0FEF1FEFC80183
:104C9000DF91CF911F910F91FF90EF9008950F93A7
:104CA0001F93CF93DF938B01FC01C281D3812097A7
:104CB00071F0E881F9810480F581E02DB801CE0121
:104CC0000995009731F40884D985C02DF0CF90E084
:104CD00080E0DF91CF911F910F9108950F931F9363
:104CE000CF93DF938B01FC01C281D381209771F0B8
:104CF000E881F9810680F781E02DB801CE010995A0
:104D0000080F111D0884D985C02DF0CFF80110823D
:104D1000DF91CF911F910F9108950F931F93CF9320
:104D2000DF938B01FC01C281D381209771F0E88170
:104D3000F9810190F081E02DB801CE010995811132
:104D400005C00884D985C02DF0CF80E0DF91CF91D8
:104D50001F910F910895CF93DF93FC01DB01218117
:104D600014968C911497820F9927991F08978CF5A8
:104D7000C281D381209731F573836283908112962B
:104D80009C93129713962C93139715968C911597C5
:104D9000890F808380E014969C9114978917E8F41A
:104DA0001696CD91DC911797C80FD11D9881C181BE
:104DB000D0E0CC5BDE4F988391819F5F91838F5FC2
:104DC000EACFEC01888599850097D9F7B987A8873C
:104DD000D5CF80E0DF91CF91089581E0FBCF809126
:104DE000950481110DC082E080939D0484E080933E
:104DF0009E041092A00410929F0481E08093950479
:104E00008DE994E00895FB0101900020E9F73197C6
:104E1000AF01461B570BDC01ED91FC910280F38141
:104E2000E02D0994EF92FF920F931F93CF93DF939E
:104E30008C017B01D0E0C0E0F701EC0FFD1F649115
:104E4000662361F0D801ED91FC910190F081E02D95
:104E5000C8010995892B11F02196EECFCE01DF9183
:104E6000CF911F910F91FF90EF900895DC01ED918C
:104E7000FC910190F081E02D099469E871E00C94B7
:104E800003270F931F93CF93DF93EC010E94122708
:104E90008C01CE010E943D27800F911FDF91CF91A1
:104EA0001F910F9108958F929F92AF92BF92EF92B0
:104EB000FF920F931F93CF93DF93CDB7DEB7A197E8
:104EC0000FB6F894DEBF0FBECDBF7C01FA01CB0157
:104ED00019A2223008F42AE08E010F5D1F4F822EA6
:104EE000912CB12CA12CBF01A50194010E947B2F14
:104EF000F901CA016A300CF5605DD8016E938D012D
:104F0000232B242B252B79F790E080E0109721F0BC
:104F1000BD01C7010E940327A1960FB6F894DEBF1A
:104F20000FBECDBFDF91CF911F910F91FF90EF90FA
:104F3000BF90AF909F908F900895695CDECF211550
:104F4000310541F4DC01ED91FC910190F081E02DFF
:104F5000642F09940C9453279A01462F50E070E077
:104F600060E00C949F279A01AB0170E060E00C9424
:104F70009F270F931F93CF93DF93EC010E945F0352
:104F8000688779878A879B87E881F9810484F5851A
:104F9000E02DCE01099597FF15C00E945F0308859B
:104FA00019852A853B85601B710B820B930B0C8145
:104FB0001D812E813F81601771078207930720F3BF
:104FC0008FEF9FEFDF91CF911F910F910895FF9287
:104FD0000F931F93CF93DF93EC018B01F42ECE013F
:104FE0000E94B92797FD1DC08D329105D1F09C011B
:104FF000205331092A303105A0F0FF2019F08E32FC
:10500000910579F00130110551F00230110589F454
:105010008D30910571F05CF40997029750F08FEF95
:105020009FEFDF91CF911F910F91FF90089580978F
:10503000B1F7E881F9810284F385E02DCE0109956D
:10504000CECFBF92CF92DF92EF92FF920F931F933A
:10505000CF93DF938C01C42F40E00E94E727FC012F
:10506000C12CD12C760197FD3EC0B12C0C2E000C2A
:10507000DD0BCE17DF07D9F0ED32F10509F43FC0A3
:10508000CF01C0970A9798F4AAE0B0E0A701960173
:105090000E94B22F6F01FF0FEE08FF08C60ED71E49
:1050A000E81EF91E80E3C81AD108E108F108D8010A
:1050B000ED91FC910284F385E02DC8010995C801AA
:1050C0000E94B927FC01C0970A9798F2CE17DF0714
:1050D00081F2BB2041F0F094E094D094C094C11CC4
:1050E000D11CE11CF11CC701B601DF91CF911F91CA
:1050F0000F91FF90EF90DF90CF90BF900895BB2469
:10510000B394D5CF4091A4045091A5042091A2045A
:105110003091A30442175307B4F49091E8009570BE
:10512000E1F39091E80092FD19C08093F100809125
:10513000A4049091A50401968F739927892B19F4E3
:105140008EEF8093E8008091A4049091A5040196CD
:105150009093A5048093A40481E0089580E00895CD
:10516000EF92FF920F931F93CF93DF93F82E192F97
:10517000E62E042F81E0860F880F0E94822883E0AC
:105180000E948228CF2DD12FEC0EFD2EF11CCE15C2
:10519000DF05B9F007FF13C0FE0184910E94822849
:1051A000182F80E00E948228812321968111EFCF61
:1051B000DF91CF911F910F91FF90EF90089588811B
:1051C000EDCF81E0F5CF8091D70081608093D7004B
:1051D00080EA8093D80089B5806189BD89B58260F5
:1051E00089BD09B400FEFDCF61E070E080E090E091
:1051F0000E9490038091D8008F7C80618093D800BA
:105200008091E000807F8093E0000895CF93DF934A
:105210001F92CDB7DEB71982CE0101960E94742588
:105220000E94EF26BE016F5F7F4F0E942726898173
:105230000F90DF91CF9108952FB7FC012083F89450
:1052400067706093E9000895CF93DF931F92CDB705
:10525000DEB7682FCE0101960E941C298091F200D2
:1052600099819FBF0F90DF91CF910895EF92FF92A8
:105270000F931F93CF93DF931F92CDB7DEB790911B
:10528000A804992371F157FD2CC08A017B01682F76
:10529000CE0101960E941C298091F20090E008172F
:1052A00019070CF4C801282FF70144E6215030F00B
:1052B0004093A9043091F1003193F8CF009739F071
:1052C0002091F200211103C02BE62093E8002981F0
:1052D0002FBF0F90DF91CF911F910F91FF90EF9013
:1052E00008958FEF9FEFF5CFCF93DF931F92CDB748
:1052F000DEB741E050E0BE016F5F7F4F0E9436296C
:10530000019731F4898190E00F90DF91CF9108955A
:105310008FEF9FEFF9CFCF93DF931F92CDB7DEB71B
:10532000682FCE0101960E941C299091E800892FD8
:10533000807295FF04C09091F20080E4891B9981EE
:105340009FBF0F90DF91CF9108955F926F927F92F0
:105350008F929F92AF92BF92CF92DF92EF92FF9285
:105360000F931F93CF93DF931F92CDB7DEB7982E85
:105370006B01B42E052F8091A804811113C08FEF0B
:105380009FEF0F90DF91CF911F910F91FF90EF90C2
:10539000DF90CF90BF90AF909F908F907F906F9055
:1053A0005F9008958091A60480FF05C08091E00081
:1053B00082608093E000EB2CF02EA12C8AEF882EE7
:1053C000892D8072682E892D8074582E9AE3792E4B
:1053D000E114F10419F4AA2009F457C0892D0E94A0
:1053E0008B29182F81110AC08A94882041F261E02C
:1053F00070E080E090E00E949003EACF8E151F04D9
:1054000011F00CF01E2D692DCE0101960E941C2971
:105410008091E80085FD03C089818FBFD9CF812F9E
:1054200090E0E81AF90A662029F01150A0F01092D5
:10543000F100FBCFF60197FC0AC0115050F021910A
:105440002093F100FACF24912093F100319611506E
:10545000D0F7C80ED91EAA2021F07092E800A12C26
:10546000DBCF8091E80085FD08C07092E800AA2497
:10547000A394E114F10481F2F2CFE114F10461F696
:10548000552051F27092E800C7CF84E68093AA04B9
:105490008B2D902F76CF1092E9001092A5041092D8
:1054A000A4049093A3048093A2040895DF92EF9242
:1054B000FF920F931F93CF93DF93D82E8A01EB01B6
:1054C0007B01E40EF51ECE15DF0559F0D7FE12C0A4
:1054D000FE0184910E94822821968111F4CF0FEF62
:1054E0001FEFC801DF91CF911F910F91FF90EF90B7
:1054F000DF9008958881EECFCF93DF93EC019B017D
:10550000B4E6ABEF21153105F1F0A90121343105E5
:1055100014F040E450E08091E80082FFFCCF942F2B
:10552000FB01E21BF30BEC0FFD1F915028F0809163
:10553000F10080833196F9CFB093A904A093E800DD
:10554000241B350BDFCFCB01DF91CF9108951F9244
:105550000F920FB60F921124CF92DF92FF920F930A
:105560001F932F933F934F935F936F937F938F93EB
:105570009F93AF93BF93EF93FF93CF93DF93CDB7F9
:10558000DEB76C97DEBFCDBF1092E9008091E800D6
:1055900083FF2FC089E0FE017596FE2E0F2F8150EC
:1055A00029F09091F10090833196F9CF84E68093B1
:1055B000A90482EF8093E8008D8987FF38C090911D
:1055C000E80090FFFCCF982F907609F000C19E89EB
:1055D0004F89588D2F89188D911130C0803859F519
:1055E0008091A7048093F1001092F1008EEF8093D8
:1055F000E8006C960FB6F894DEBF0FBECDBFDF910A
:10560000CF91FF91EF91BF91AF919F918F917F913A
:105610006F915F914F913F912F911F910F91FF904B
:10562000DF90CF900F900FBE0F901F9018959EEFB8
:105630009093E800C8CF1092F100D6CF913059F482
:105640008111D4CF4130510589F68091A7048D7F17
:105650008093A704CBCF933049F48111C7CF413059
:10566000510521F68091A7048260F2CF953041F474
:105670008091E80080FFFCCF20682093E300B6CF44
:10568000963009F076C0CB8CDC8C123039F590E086
:1056900080E00E944B2A0E9406291F8299E099838C
:1056A0001A8391E09E8390EA98879AEF99872091D8
:1056B000A4043091A504275F3F4F3C832B838D8347
:1056C000C6010E944B2A49E050E0BE016F5F7F4F48
:1056D00080E00E94562A0E94062988CFC6010E94B7
:1056E0004B2A0E94EF266F2D702F0E944F260097A5
:1056F00031F00CF07BCF81E28093EB007ACF113058
:1057000061F11330C1F78F89882381F1823049F428
:1057100040E86AE083E195E00E94B028882359F3CD
:1057200065CF813029F440E86AE088E095E0F4CF65
:10573000833009F70E94EF268E010F5F1F4FB801DB
:105740000E946E26F80101900020E9F73197BF0111
:10575000601B710B40E0C801DFCF66EF74E0FB0116
:10576000449150E080E80E94562A40CF6EE175E0F7
:10577000F6CF973009F4BFCF983021F481E08093C1
:10578000F10034CF993009F031CF837009F0B3CFF5
:10579000E5E4F1E081E031E096E32191222371F02C
:1057A0008093E9003093EB00DF0111972C91209357
:1057B000EC009093ED008F5F873079F78EE7809350
:1057C000EA001092EA008F898093A8040FCF8B8D96
:1057D0009C8D0E944B2A898D811105C08F2D902FA1
:1057E0000E947F259BCF0E94EF266F2D702F0E9475
:1057F0008D2694CF8093E9008091F200882319F0E0
:105800008AE38093E80008951F920F920FB60F92DB
:1058100011242F933F934F935F936F937F938F93B5
:105820009F93AF93BF93CF93EF93FF93C091E1000A
:105830008091E100837F8093E100C3FF0FC010924D
:10584000E90081E08093EB001092EC0082E380930A
:10585000ED001092A80488E08093F000C2FF15C00C
:1058600083E00E94FA2B8091AA04882329F080917A
:10587000AA0481508093AA048091A904882329F066
:105880008091A90481508093A904C4FF23C0809112
:10589000E2008E7E81608093E2008091E1008F7E45
:1058A0008093E1008091A6048E7E80618093A6049F
:1058B000FF91EF91CF91BF91AF919F918F917F9188
:1058C0006F915F914F913F912F910F900FBE0F906D
:1058D0001F901895C0FFECCF8091E2008E7E806112
:1058E0008093E2008091E1008E7E8093E1008091C0
:1058F000A6048E7E8160DACF1092A8041092A704CD
:105900001092A6040E94E328E1EEF0E080818E7EF2
:1059100080838DE08093E200559A209A08958091CB
:10592000E0008D7F8093E0008091E00081FD11C058
:105930008091A60480FF0DC08091A70481FF09C05B
:105940000E94E3288091E00082608093E00081E083
:10595000089580E008950895109254051092550519
:105960000895CF93DF93CDB7DEB769970FB6F8945C
:10597000DEBF0FBECDBFFC01DB018C918F5F8C932E
:105980009E012D5F3F4F8DE0D9011D928A95E9F769
:1059900029E0298384E08A8391E09D8383E08E83DC
:1059A0002A8721E22B879C879D879F8722E2288B6D
:1059B00027E02B8B25E02C8B8E8B20E430E0388F7A
:1059C0002F8B998F82818B8395858685998B8A8B86
:1059D000838180688D8B49E150E0BE016F5F7F4F0E
:1059E00080E00E94562A69960FB6F894DEBF0FBE7B
:1059F000CDBFDF91CF910895EF92FF920F931F9348
:105A0000CF93DF93FB0120812138A1F5238122323E
:105A100089F5DC0112964C912481358142171306D9
:105A200049F5EC0181E00E94662F0B851C85F12C65
:105A3000E12C0115110589F0F8014481558162813D
:105A4000738180E80E94562A8F3F980761F0E80E24
:105A5000F91ED8010D911C91ECCF81E08F8780E079
:105A60000E94662FC701DF91CF911F910F91FF9088
:105A7000EF90089590E080E0F6CF0F931F93CF93BF
:105A8000DF9300D01F92CDB7DEB7FC01DB0122818E
:105A900014968D919C9115972817190659F4119613
:105AA0008C9111979C91913A39F4982F9D7F81E0C8
:105AB000913051F080E008C09132E1F78B3061F411
:105AC00012968C91878781E00F900F900F90DF9155
:105AD000CF911F910F9108958A3021F413968C91E4
