:100000000C943B030C9463030C9463030C94630300
:100010000C9463030C9463030C9463030C946303C8
:100020000C9463030C9463030C945E2C0C94012BCE
:100030000C9463030C9463030C9463030C946303A8
:100040000C9463030C9463030C9463030C94630398
:100050000C94A50A0C9463030C9463030C94790329
:100060000C9463030C9463030C9463030C94630378
:100070000C9463030C9463030C9463030C94630368
:100080000C9463030C9463030C9463030C94630358
:100090000C9463030C9463030C9463030C94630348
:1000A0000C9463030C9463030C9463032E004C00C4
:1000B0002A00E10047C900001E00140004001D00D2
:1000C00034004D001F001A0016001B00E1022A0038
:1000D000200008000700060050002C002100150039
:1000E000090019004F004A00220017000A0005000D
:1000F000000076C2500001440000E30B0000E30062
:100100004F0001440000E2090000E20023001C004F
:100110000B00110000003AC0240018000D00100070
:1001200052004B0025000C000E0036005100280044
:10013000260012000F0037002F002B0027001300AD
:1001400045CA380030004E002D00310045C3E5009F
:100150002B4400002900000000000000FFFF000009
:100160003A001E0820082208000000003B001F087B
:1001700021082308000000003C002F0826082F005B
:10018000000000003D00300827083000000000009B
:100190003E00310835003508000000000000FFFF78
:1001A00000000000000000000000FFFF0000000051
:1001B000000000003F005200510024080000000031
:1001C0004000240021001E00000000004100250026
:1001D00022001F00370000004200260023002000FC
:1001E0002700000043002508000031002E00000019
:1001F0004400450000000000FFFF00000000000078
:1002000000000000000000000000000000000000EE
:10021000000000000000000004500000000000008A
:10022000000001500250000041500000000000009A
:1002300008500000425000000000000000000000D4
:1002400000000000000000000000000000000000AE
:10025000000000000000000000000000000000009E
:10026000000000000000000000000000000000008E
:10027000E9480000000000000000B648EA4800001D
:10028000000000000000B548E24800000000000047
:10029000FFFF00000000000000000000CD4800004B
:1002A00000000000302E31312E312B3239007665BE
:1002B0007273696F6E0076657273696F6E00050107
:1002C0000906A101050719E029E7150025017501B7
:1002D000950881029501750881019505750105084C
:1002E000190129059102950175039101950675087B
:1002F000150025FF0507190029FF8100C0050C091D
:1003000001A1018504150026FF0319002AFF0395AA
:100310000475108100C005010906A10185080507C3
:1003200019E029E7150025017501950881020508E6
:1003300019012908950875019102050775049501B1
:100340008101190429DD15002501750195D9810266
:10035000750395018101C005010980A1018505157D
:100360000026FF00190029FF950175088100C0745F
:10037000726967676572006D6170006D6163726FAD
:10038000732E006D6163726F732E6D61700D0A6D57
:100390006163726F732E7472696767657200447966
:1003A0006E616D69634D6163726F73006573636144
:1003B00070655F6F6E6573686F742E63616E6365E1
:1003C0006C5F6B6579006573636170655F6F6E6507
:1003D00073686F742E63616E63656C5F6B65790023
:1003E0004573636170654F6E6553686F7400656532
:1003F00070726F6D2E657261736500656570726FE6
:100400006D2E6672656500656570726F6D2E636F27
:100410006E74656E747300656570726F6D2E636FB8
:100420006E74656E74730D0A656570726F6D2E66FD
:100430007265650D0A656570726F6D2E6572617308
:1004400065002F006372630076657273696F6E00DA
:1004500076616C69643F0064656661756C744C61BB
:100460007965720073657474696E67732E007365C5
:100470007474696E67732E64656661756C744C6123
:100480007965720D0A73657474696E67732E76618F
:100490006C69643F0D0A73657474696E67732E76B8
:1004A000657273696F6E0D0A73657474696E677334
:1004B0002E63726300637573746F6D0064656661AB
:1004C000756C74006F6E6C79437573746F6D006B2F
:1004D00065796D61702E006B65796D61702E637545
:1004E00073746F6D0D0A6B65796D61702E6465664E
:1004F00061756C740D0A6B65796D61702E6F6E6C31
:1005000079437573746F6D00454550524F4D4B657F
:10051000796D61700066616C736500747275650059
:10052000706C7567696E73006465766963652E72B9
:10053000657365740068656C700D0A64657669633F
:10054000652E72657365740D0A706C7567696E73DC
:100550000068656C70000D0A2E004D6F7573654B59
:10056000657973004F6E6553686F740051756B65E4
:100570007973005370616365436164657400080BAF
:10058000000202020000090400000102020000054E
:10059000240010010524010101042402060524069B
:1005A00000010705810310004009040100020A0050
:1005B000000007050202400000070583024000001A
:1005C00012010002EF020140EDFE071300010102DB
:1005D00003014572676F446F7820455A0045726782
:1005E0006F446F7820455A0004030904050109028D
:1005F000A1018501050919012908150025019508A2
:100600007501810205010930093109381581257FFD
:10061000750895038106050C0A38021581257F753A
:100620000895018106C005010902A101050919010A
:100630002908150025019508750181020501093079
:10064000093116000026FF7F7510950281020938D6
:100650001581257F750895018106C000370A430F73
:10066000DC0FD0102F11F016141A55235E256C26BE
:10067000062DE12EB52F11241FBECFEFDAE0DEBF2D
:10068000CDBF11E0A0E0B1E0E8E3F1E602C00590E3
:100690000D92AC3AB107D9F725E0ACEAB1E001C060
:1006A0001D92A13BB207E1F713E0CBE3D3E004C016
:1006B0002197FE010E940430CE32D107C9F70E9473
:1006C00066030C949A300C94000008950E9438043C
:1006D0000E94650389EB94E00E94D62C0E94C70516
:1006E000C0E0D0E00E94E0052097E1F30E94000006
:1006F000F9CF1F920F920FB60F9211242F933F93B1
:100700008F939F93AF93BF938091AD019091AE0172
:10071000A091AF01B091B0013091AC0123E0230F63
:100720002D3758F50196A11DB11D2093AC01809382
:10073000AD019093AE01A093AF01B093B001809151
:10074000B1019091B201A091B301B091B4010196B1
:10075000A11DB11D8093B1019093B201A093B3018B
:10076000B093B401BF91AF919F918F913F912F9121
:100770000F900FBE0F901F90189526E8230F02963A
:10078000A11DB11DD2CF2FB7F8946091AD0170912A
:10079000AE018091AF019091B0012FBF08953FB796
:1007A000F8948091B1019091B201A091B301B09100
:1007B000B40126B5A89B05C02F3F19F00196A11DD5
:1007C000B11D3FBFBA2FA92F982F8827BC01CD019B
:1007D000620F711D811D911D42E0660F771F881FFA
:1007E000991F4A95D1F708958F929F92AF92BF9229
:1007F000CF92DF92EF92FF926B017C010E94CF03B8
:100800004B015C01C114D104E104F104E9F00E9440
:10081000052D0E94CF03681979098A099B09683E52
:1008200073408105910570F321E0C21AD108E108F7
:10083000F10888EE880E83E0981EA11CB11CC1143B
:10084000D104E104F10429F7FF90EF90DF90CF90FD
:10085000BF90AF909F908F9008958230910538F0AF
:10086000880F991F880F991F05970197F1F7089531
:10087000789484B5826084BD84B5816084BD85B57B
:10088000826085BD85B5816085BDEEE6F0E0808142
:1008900081608083E1E8F0E0108280818260808363
:1008A000808181608083E0E8F0E0808181608083E6
:1008B000E1E9F0E0808182608083808181608083D3
:1008C000E0E9F0E0808181608083E1ECF0E080810C
:1008D0008460808380818260808380818160808366
:1008E000E3ECF0E0808181608083E0ECF0E08081E7
:1008F00082608083E2ECF0E0808181608083EAE7BF
:10090000F0E0808184608083808182608083808148
:1009100081608083808180688083089508958AE063
:10092000E7E5F1E0DB0101900D928A95E1F78AE0BD
:1009300008958AEB93E00E948A1885EF93E00E9465
:1009400017208BE294E00E94CA2383E191E00E9489
:10095000A51E8CEA93E00E94F81487E593E00E94BC
:10096000DB1280EE93E00E946B1A80E0089580EB2A
:1009700093E00E94EB158AEB93E00E9480188CEACA
:1009800093E00E94B81480EE93E00E947F1A80E00A
:10099000089580EB93E00E94E81680E00895CF93DD
:1009A000DF93EC01BC0185EF93E00E94A622811148
:1009B00007C0BE018BE294E0DF91CF910C94E62456
:1009C000DF91CF910895CF93DF93EC01BC0183E1D8
:1009D00091E00E945A1F811115C0BE0186E091E08E
:1009E0000E94601581110EC0BE0187E593E00E9450
:1009F000B812811107C0BE0180EE93E0DF91CF9164
:100A00000C94F51ADF91CF910895BC0180EE93E02C
:100A10000C94AF1A0F931F93CF938C01BC018AEBF8
:100A200093E00E942B19C82F81114BC0B8018FEBA6
:100A300093E00E94E719C82F811143C0B8018EEAE4
:100A400093E00E940617C82F81113BC0B8018FEABE
:100A500093E00E948817C82F811133C0B8018CEA37
:100A600093E00E940C15C82F81112BC0B80187E5B7
:100A700093E00E940813C82F811123C046EB52E077
:100A8000B8018FEB93E00E94D21981111AC06EEA6F
:100A900072E0C8010E944530892B99F464EA72E043
:100AA0008CE594E00E946C2784E690E00E942D047F
:100AB00060E28CE594E00E94902784E690E00E943A
:100AC0002D048C2FCF911F910F91089580E00895F0
:100AD000BC018CE993E00C947514CF93DF93EC0187
:100AE000BC0183E191E00E94481FBE0180EE93E0CB
:100AF0000E94B11B80E0DF91CF9108958FEB93E0CE
:100B00000E94171A85EF93E00E9417238BE294E06E
:100B10000E94842483E191E00E94B91E80EE93E05C
:100B20000E94691B80E00895CF93C0E040E06C2FE5
:100B30008EE292E00E94340CCF5FC430B9F7C1E07E
:100B400041E06C2F8EE292E00E94340C2FEF80E7A0
:100B500092E0215080409040E1F700C00000CF5F5C
:100B6000C43071F7C1E040E06C2F8EE292E00E9449
:100B7000340C2FEF80E792E0215080409040E1F765
:100B800000C00000CF5FC43071F7CF91089580910D
:100B90006201909163010E94A20685E00E94A9185B
:100BA00081E080932B0460E071E087E593E00E9490
:100BB000EF120E9494058091B4038F770C9447093B
:100BC00080916201909163010C94C00681EC92E0E7
:100BD0000E94870E811104C081EC92E00C94250FD5
:100BE00080E093E00E94C01082EE92E00C94A10F8E
:100BF00081EC92E00E94870E811104C081EC92E0AA
:100C00000C948A0E80E093E00E940C1082EE92E039
:100C10000C94B40FCF93C82F81EC92E00E94870E02
:100C20006C2F811105C081EC92E0CF910C94C60E1F
:100C300080E093E0CF910C947010CF93C82F83FF86
:100C400003C081EE0E940A06C0FF03C080EE0E942E
:100C50000A06C1FF03C082EE0E940A06C2FF03C05B
:100C600086EE0E940A06C4FF04C083EECF910C9466
:100C70000A06CF910895CF93C82F892F0E941D0691
:100C80008C2FCF910C940A06CF93C82F81EC92E061
:100C90000E94870E6C2F811105C081EC92E0CF91EC
:100CA0000C94ED0E80E093E0CF910C949710FC0132
:100CB0009081DB018C91981305C081E02181119610
:100CC0009C91291380E008951F93CF93DF9300D068
:100CD00000D0CDB7DEB7182F843568F5E82FF0E0E7
:100CE000EE0FFF1FEC53FB4F808191819C838B8320
:100CF0008FEF89838A83BE016F5F7F4FCE0103969A
:100D00000E945706882369F0A12FB0E0A554BE4F7A
:100D1000E0910201F0910301612F8C9109958B8381
:100D20009C838B819C810F900F900F900F90DF918F
:100D3000CF911F91089510926C0510926D05ECE60D
:100D4000F5E0D2CF8EE292E00E944F0A40E855E2F1
:100D500060E070E08CE594E00E9466260E948E04BC
:100D60000E94B704E4ECF4E085E59FEF815021F0A8
:100D7000908391833296FACF8AEB91E00C944509E7
:100D80000E94C3036093B6017093B7018093B801CA
:100D90009093B9010E94C9048EE292E00E94230C54
:100DA0000C947E051F93CF93DF93C62F172F862FAA
:100DB000972F0E940505823009F1812F807C61F414
:100DC00080E28C0F883008F010E08C2F912FDF919B
:100DD000CF911F910C943B06812F887C883471F44D
:100DE000612F70E0762F66276C0F711D737082EE95
:100DF00092E0DF91CF911F910C948C0FDF91CF91F6
:100E00001F9108958F929F92BF92CF92DF92EF929F
:100E1000FF920F931F93CF93DF9300D000D000D0A9
:100E2000CDB7DEB77C016B010E94E60510E000E063
:100E3000BB24BA940435110599F1F60190819017FD
:100E400029F1043530F5F801EE0FFF1FEC53FB4F8D
:100E5000808091809E828D82BB82BC82BE016D5F4C
:100E60007F4FCE0105960E94570681110FC019824F
:100E70001A82BE016F5F7F4FCE0105960E94570612
:100E8000811104C0B401C7010E94D2060F5F1F4F39
:100E9000D1CF10926C0510926D05ECE6F5E0D8CF3D
:100EA00026960FB6F894DEBF0FBECDBFDF91CF916F
:100EB0001F910F91FF90EF90DF90CF90BF909F9088
:100EC0008F900895EF92FF920F931F93CF93DF932C
:100ED0008C01EB01898181FF43C080FD41C08B8182
:100EE000807CF1F5888180930101FA8081EC92E0A9
:100EF0000E94870E6F2D81112EC081EC92E00E941E
:100F0000360F882301F1FB80EA80F3FE03C081EEF7
:100F10000E944406F0FE03C080EE0E944406F1FEEB
:100F200003C082EE0E944406F2FE03C086EE0E94D9
:100F30004406F4FE03C083EE0E9444068E2D0E94F8
:100F400044060E94F8058B81882379F00E941D06D3
:100F50000E94F8050AC080E093E00E945A10D1CFA9
:100F6000E09101018881E81317C0898181FF07C0E2
:100F700080FD05C06A817B81C8010E94D206CE0136
:100F80000E9468058230E9F0DF91CF911F910F91A7
:100F9000FF90EF900C94F805E43560F4F0E0EE0F6C
:100FA000FF1FEC53FB4F8181982F907CF1F60E943C
:100FB0001D06DBCF10926C0510926D05ECE6F5E096
:100FC000F2CFDF91CF911F910F91FF90EF90089595
:100FD000FF920F931F93CF93DF93CDB7DEB72D977B
:100FE0000FB6F894DEBF0FBECDBF8C0129873A87BC
:100FF0004B875C876D87243548F430FF61C031FD35
:101000005FC089850E9464069C878B87CE01099604
:101010000E94E304823009F447C0E985E43568F4AE
:101020009A85F0E0EE0FFF1FEC53FB4F90FF55C089
:1010300091FD53C09FEF90839183811135C01F8232
:101040001886BE01695F7F4FCE010B960E9457063E
:1010500081112AC01D821E82BE016B5F7F4FCE01AF
:101060000B960E94570681111FC0FF24FA94FB8241
:10107000FC82BE016D5F7F4FCE010B960E9457062A
:10108000811112C0F982FA82BE016F5F7F4FCE01DB
:101090000B960E945706811107C08C85843409F590
:1010A000CE0109960E94D8092D960FB6F894DEBF9E
:1010B0000FBECDBFDF91CF911F910F91FF9008958B
:1010C0008FEF89838A83BE016F5F7F4FCE010B96BE
:1010D0000E945706811195CF99CF9C852B8520833F
:1010E000ABCF8F7C8134B9F48A851B8581FF0AC020
:1010F00080FD08C0612F88E493E00E9417111093CF
:101100003302D2CF809133028113CECF88E493E0B3
:101110000E941511C9CFBE01675F7F4FC8010E94B1
:101120000207BE01675F7F4FC8010E946207CE01C0
:1011300009960E946D05B8CFEF92FF920F931F930F
:10114000CF93DF9300D000D000D01F92CDB7DEB791
:10115000022F2B833C834D835E836F83243508F0FD
:1011600042C07C01832F817031FF22C081113BC0BE
:101170008FEF89838A83BE016F5F7F4FCE01059613
:101180000E945706882329F0802F0E9464069E83C0
:101190008D83CE0103960E94CF04811124C02B8140
:1011A0003C814D815E816F81C7010E94E8071BC0B1
:1011B0008823C9F010E0000F111F0C531B4FF801DA
:1011C000808191819E838D8319821A82BE016F5F17
:1011D0007F4FCE0105960E9457068823D1F28FEFEC
:1011E000F8018083818327960FB6F894DEBF0FBE87
:1011F000CDBFDF91CF911F910F91FF90EF90089598
:1012000070E094E5899F600D711D1124660F771FB2
:10121000FB01E455FF4F8491FB01E355FF4F94918F
:101220000895EF92FF920F931F93CF93DF93EBEB11
:10123000F1E084E5DF011D928A95E9F77F0110E076
:101240001435E1F0C0910401D0E0C15FDD4FB2E0A0
:10125000CF30DB0771F00A91E0910201F0910301B8
:10126000612F802F09958F3F11F49F3F81F3F70184
:1012700000831F5FFFEFEF1AFF0AE2CFDF91CF91EC
:101280001F910F91FF90EF9008950C941109909188
:101290000001891708F080E091E0909304018093A9
:1012A0000F020E9411090C9466054091040150E060
:1012B00090E0682F70E0292F092E000C330B2417C3
:1012C000350764F4215F3D4FF9012081022E000CA7
:1012D000330B2617370721F09F5FEDCF80E008958D
:1012E00081E00895CF93909100018917A0F4C82F51
:1012F0000E94550981110FC0E091040181E08E0F19
:1013000080930401F0E0E15FFD4FC0830E9411096A
:10131000CF910C946605CF910895CF93DF93D82F8A
:101320000E945509882381F1C0910401C23028F43C
:1013300080E0DF91CF910C944709EFE0F2E090E07C
:1013400080E02D2F30E04191042E000C550BBC01A4
:101350006F5F7F4F4217530799F44C2F50E0481BA3
:10136000590B615F7D4F815F9D4F0E947230C1506C
:10137000C09304010E941109DF91CF910C9466057E
:10138000CB016C1700F3F6CFDF91CF910895E09178
:101390000401F0E0E25FFD4F80818F5F0C947209E1
:1013A000E0910401F0E0E25FFD4F80810C948D0933
:1013B000CF93DF93FC01C2819181292F2270C43524
:1013C00058F0222309F450C090FD4EC08CEA8C0FD7
:1013D000DF91CF910C944709CA32C8F1D6EDDC0FEA
:1013E000D13251F0D23281F4222351F090FD08C065
:1013F000DF91CF910C94C7092223D1F390FDF8CF50
:10140000DF91CF910C94D009211110C0A4ECB4E06D
:1014100085E58150B9F09C91C91306C011962C91B5
:1014200011979381291701F11296F3CF90FDEECF1A
:101430008D2F0E945509811117C08D2FDF91CF91FB
:101440000C9472098D2FDF91CF910C948D0922237A
:1014500059F090FD09C08C2F0E945509882311F086
:101460008C2FF1CF8C2FEACFDF91CF910895EEE250
:10147000F2E0158285E0858780E28687089581EC19
:1014800092E00E942C0F80E093E00E94C61082EE52
:1014900092E00E94DA0F88E493E00C941311EF922B
:1014A000FF920F931F93CF93DF937C010FB6F894B5
:1014B000A895809160008861809360001092600020
:1014C0000FBE64E670E080E090E00E94F40300E864
:1014D00010E089EAF8018083C1E8D0E089E08883E0
:1014E00024982C983F988AB18F7C8AB96E98479A35
:1014F0008BB180638BB9769AC7010E960E94890CD6
:101500008FE090E0909389008093880090938B0007
:1015100080938A0090938D0080938C0080E1888373
:10152000F801108280E295E3909387008093860013
:1015300081E1888381E080936F00DF91CF911F91DB
:101540000F91FF90EF900C943F0A1F920F920FB6ED
:101550000F9211248F9381E0809305018F910F905A
:101560000FBE0F901F9018958F929F92AF92BF92CF
:10157000CF92DF92EF92FF920F931F93CF93DF935F
:101580006C01109205015C018EE0A80EB11CC50132
:101590000E94290DE601AB964601EDE18E0E911CED
:1015A000F12CE12CABC08150888312E002E020E0F6
:1015B00090E08981882321F081508983122F092F9F
:1015C0008A818111C2C01460012F8B818111C3C037
:1015D0001860012F8C818111B5C01061012F8D81A0
:1015E0008111ADC01062012FB701C5010E94E90C45
:1015F000F4019081109519238023812B982790FF67
:1016000003C0F6012585288391FF03C0F6012585D7
:10161000298392FF03C0F60125852A8393FF03C027
:10162000F60125852B8394FF03C0F60125852C83C5
:1016300095FF03C0F60195859D83F40181934F01C9
:10164000B701695F7F4F8AA5882309F473C0815071
:101650008AA712E002E020E090E08BA5882321F029
:1016600081508BA7122F092F8CA5811160C01460A7
:10167000012F8DA5811158C01860012F8EA58111F1
:1016800050C01061012F8FA5811148C01062012F39
:10169000C5010E94E90CF40196811095192380235D
:1016A000812B982790FF03C0F60125852AA791FF7B
:1016B00003C0F60125852BA792FF03C0F6012585FF
:1016C0002CA793FF03C0F60125852DA794FF03C027
:1016D000F60125852EA795FF03C0F60195859FA7E6
:1016E000F4018683B701C5010E94CF0CFFEFEF1A0A
:1016F000FF0A269687E0E816F10481F1B701C501DB
:101700000E94A60CB701C5010E94CF0C88818111EF
:101710004ACF13E003E021E091E04BCF81508FA747
:10172000B7CF81508EA7AFCF81508DA7A7CF815063
:101730008CA79FCF13E003E021E091E08ECF815092
:101740008D8352CF81508C834ACF81508A838B8185
:10175000882309F43DCF81508B833CCFDF91CF911B
:101760001F910F91FF90EF90DF90CF90BF90AF90BF
:101770009F908F900895CF92DF92EF92FF920F93F8
:101780001F93CF93DF9300D000D01F92CDB7DEB769
:101790000F967C01D12CCC24CA9410E000E0F70114
:1017A00026851BC03230A1F46091C3046F5F609343
:1017B000C3042D2D200F29833A83CB82CC826D83E5
:1017C0004FEF5FEF85EB91E00E949C08F7012685C3
:1017D0000F5F1F4F0630110501F1F701808190E086
:1017E000002E02C0959587950A94E2F7382F317044
:1017F000822F90E0002E02C0959587950A94E2F71B
:10180000880F991F8270382B8111CCCF30FDCCCF3F
:101810000F5F1F4F0630110501F7F70121937F017C
:10182000F6E0DF0E84E5D812B8CF0F900F900F903E
:101830000F900F90DF91CF911F910F91FF90EF903C
:10184000DF90CF900895CF93DF93EC018091050155
:10185000882329F010920501CE010E94B40ACE011E
:10186000DF91CF910C94BB0B6C5F81E090E001C0E5
:10187000880F6A95EAF794B1442331F0982B94B914
:1018800095B1892B85B908958095982394B995B120
:10189000892385B90895CF930E94680D68EE73E09F
:1018A00080E090E00E94F40380E40E946E0DC82F57
:1018B00081112AC080E00E94980DC82F811124C098
:1018C00080E00E94980DC82F81111EC08FE30E94F6
:1018D000980DC82F811118C00E94900D80E40E94BD
:1018E0006E0DC82F811110C08CE00E94980DC82F7A
:1018F00081110AC080E00E94980DC82F811104C098
:101900008FE30E94980DC82F0E94900D8C2FCF91CD
:101910000895CF93DF93EC010E944B0C888380B332
:101920008C7080BB81B3836F81BB84B18F6084B9BD
:1019300085B18F6085B98AB18C608AB98BB18C60B2
:101940008BB93E9A469ADF91CF9108951F93CF931A
:10195000DF93FC012081222321F0DF91CF911F91A1
:101960000895162FEC0180E40E946E0D8883882371
:1019700029F0DF91CF911F910C94900D82E10E948C
:10198000980D88838111F5CF81E090E001C0880F28
:101990001A95EAF780950E94980D8883EACFFB019B
:1019A000EC59FE4F8081E82FF0E0F595E795F5952D
:1019B000E795F595E795F595E79592A18F7021E06C
:1019C00030E001C0220F8A95EAF7892F822782A38F
:1019D00008950F931F93CF936730710554F4FC0162
:1019E000C081CC23A1F0C0E08C2FCF911F910F912B
:1019F00008958FB1CFB1C695C695CC738370C82BAF
:101A0000C095CF738C2FCF911F910F9108958C01AA
:101A100080E40E946E0DF8018083882339F00E94D3
:101A2000900D8C2FCF911F910F91089583E10E940B
:101A3000980DF80180838111F2CF81E40E946E0D30
:101A4000F80180838111EBCF0E94A90DC82FC095AA
:101A5000E6CF0F931F93CF93DF93EC018091AD02FC
:101A600081110DC00E94C3036093B5027093B6024A
:101A70008093B7029093B80281E08093AD02888191
:101A8000882309F10E94C3030091B5021091B602A8
:101A90002091B7023091B802601B710B820B930B3F
:101AA000683873418105910570F0CE010E944B0C9E
:101AB00088830E94C3036093B5027093B60280933B
:101AC000B7029093B802DF91CF911F910F910895C3
:101AD0001092B9008AE08093B800089594EA909338
:101AE000BC009091BC0097FFFCCF9091B900987F0B
:101AF000983021F0903111F081E008958093BB007F
:101B000084E88093BC008091BC0087FFFCCF80916B
:101B1000B900887F883111F0803471F780E0089532
:101B200084E98093BC008091BC0084FDFCCF0895C3
:101B30008093BB0084E88093BC008091BC0087FF49
:101B4000FCCF9091B900987F81E0983209F480E051
:101B5000089584E88093BC008091BC0087FFFCCF8F
:101B60008091BB000895FC0182818F5BFB01808323
:101B700081E00895CF93DF93CDB7DEB769970FB6B5
:101B8000F894DEBF0FBECDBFFC01DB019C919F5FCF
:101B90009C939E012D5F3F4F81E1D9011D928A9553
:101BA000E9F729E0298384E08A8391E09D8383E03B
:101BB0008E839F8398872A8721E22B879C879D8726
:101BC0009F8722E2288B2FE3298B27E02B8B25E0B0
:101BD0002C8B8E8B20E430E0388F2F8B998F828175
:101BE0008B83838180688D8B49E150E0BE016F5FFC
:101BF0007F4F80E00E94B02A69960FB6F894DEBF4E
:101C00000FBECDBFDF91CF910895FC01DB018C9118
:101C10008138A9F413968C911397823281F4228132
:101C200014968D919C912817190649F48285848F0A
:101C30004FE350E06EEB72E080E80C94B02A90E045
:101C400080E00895FC01DB01228114968D919C9126
:101C500015972817190681F511968C9111979C916B
:101C6000913A69F4813029F0833029F4848D80938E
:101C7000F10081E008958230F9F4858DF8CF91323A
:101C8000D9F48B3021F412968C91848FF2CF8A3064
:101C900011F4158EEECF893079F4CF0116962D917F
:101CA0003C91179713964C91423041F461E070E0FB
:101CB0004E962130310551F080E008954130E1F732
:101CC00028303105C9F768E070E00B960E94D62AEB
:101CD000D0CFCF93DF93EC0181E08C838D839E0185
:101CE000255E3F4F3F832E83198618862FE631E00D
:101CF000398328836A876C8F8D8F1E8E81EC8B8F42
:101D00000E944927BE01DF91CF910C940527FC0169
:101D1000848D0895EF92FF920F931F93CF93DF93DB
:101D20008C01EC012B967C0183E1E80EF11C48E06C
:101D300050E0BE01C7010E945C30892B21F1F801FF
:101D4000838148E050E0BE0180640E94FF298C013D
:101D5000E091E002F091E102309731F09C0148E01F
:101D600050E0BE0182E0099588E0FE01D7010190B4
:101D70000D928A95E1F7C801DF91CF911F910F91E4
:101D8000FF90EF9008950FEF1FEFF5CFFC0180E279
:101D9000860F883070F4605E770B21E030E001C080
:101DA000220F6A95EAF78385822B838781E090E092
:101DB0000895DF011D9690E080E02D912617B1F384
:101DC000211104C0E80FF91F6587F0CF0196863016
:101DD000910599F790E080E00895CF93DF9320E29A
:101DE000260F283090F4605E770B21E030E001C0D0
:101DF000220F6A95EAF72095FC0133852323238778
:101E000081E090E0DF91CF910895DC011D969C0167
:101E10002D5E3F4FFD014191461303C0EF01219715
:101E20001882E217F307B9F720E03D91332349F018
:101E3000EC01C20FD11D4D853D87ED0121974883EF
:101E40002F5FAE17BF0789F7DBCF0B9628E0FC01A9
:101E500011922A95E9F70895CF93DF93EC010E9440
:101E6000250FCE01DF91CF910C948A0EFC013D9697
:101E700043962191261729F0E817F907D1F780E05A
:101E8000089581E008952091B9023091BA024091FD
:101E9000BB025091BC026091BD027091BE02809164
:101EA000BF029091C002A1E00E9424302093B902A9
:101EB0003093BA024093BB025093BC026093BD02C0
:101EC0007093BE028093BF029093C0020E94303094
:101ED00029F461E081EC92E00C94690E0895809100
:101EE000F202811113C01092FB021092FA028DEFE0
:101EF00092E09093FD028093FC0289E190E0909340
:101F0000FF028093FE0281E08093F2020E946D2E18
:101F10006AEF72E00C94DA2DFC0130E020E0419190
:101F20005191452B41F4220F331F280F391FF9011E
:101F30007183608308952F5F3F4F2430310579F717
:101F4000089528E0FC0111922A95E9F70895CF93AE
:101F5000DF93EC010E946D2E28E030E0AE0164E0DA
:101F6000DF91CF910C942A2E0F931F93CF93DF9381
:101F7000EC018C01085F1F4F48E050E0BC01C80134
:101F80000E945C30892B51F0CE010E94A70F88E09F
:101F9000FE01D80101900D928A95E1F7DF91CF9172
:101FA0001F910F91089528E0FC0111922A95E9F7FD
:101FB0000C94B40F0C94D30F82EE92E00C946F0F3C
:101FC00080913A03811113C010924303109242038F
:101FD00086E193E0909345038093440381E490E08D
:101FE000909347038093460381E080933A030E94D5
:101FF0006D2E62E473E00C94DA2DCF93DF93EC0145
:102000000E946D2EAE01435E5F4F2DE130E068E02F
:10201000DF91CF910C942A2EEF92FF920F931F9392
:10202000CF93DF93EC01F8808D8D8E010F5F1F4FF2
:102030008F15D9F0F801AE01435E5F4F20E0858D2A
:1020400030813196932F9095982319F08323848FB4
:1020500021E0E417F50799F7222319F0CE010E9439
:10206000FD0FFD8ECE010E94FD0F7E018EE1E80E78
:10207000F11C4CE150E0B801C7010E945C30892B93
:1020800081F08CE1F801D70101900D928A95E1F77A
:10209000CE01DF91CF911F910F91FF90EF900C94A3
:1020A000FD0F8FEF9FEFDF91CF911F910F91FF9069
:1020B000EF9008956E3D90F4E62FE695E695E6954F
:1020C000E80FF92FF11D677021E030E001C0220F09
:1020D0006A95EAF79181922381E009F480E00895FE
:1020E0006E3DA0F4E62FE695E695E695E80FF92F0C
:1020F000F11D677021E030E001C0220F6A95EAF718
:102100008181822B818381E090E00895605E683058
:1021100058F441E050E001C0440F6A95EAF7FC0131
:102120002081242B2083EFCF90E080E008956E3D46
:10213000A8F4E62FE695E695E695E80FF92FF11D50
:10214000677021E030E001C0220F6A95EAF7209520
:1021500081812823218381E090E00895605E6830CA
:1021600060F421E030E001C0220F6A95EAF7209583
:10217000FC01308123232083EECF90E080E008959E
:102180002DE1FC0111922A95E9F70895CF93DF9391
:10219000EC010E94C010CE01DF91CF910C94FD0F95
:1021A00080E093E00C94E00F80914903811113C00B
:1021B000109252031092510387E593E090935403D9
:1021C0008093530388E190E09093560380935503E6
:1021D00081E0809349030E946D2E61E573E00C94C9
:1021E000DA2D0F931F93CF93DF93EB018A010E94A7
:1021F0006D2E9801AE0165E0DF91CF911F910F9197
:102200000C942A2ECF93DF931F92CDB7DEB719829D
:1022100041E050E0BE016F5F7F4F0E94F1100F90D0
:10222000DF91CF9108950C9402110C940211CF9379
:10223000DF931F92CDB7DEB76983633841F489EB32
:1022400094E00E94E92C0F90DF91CF91089541E036
:1022500050E0BE016F5F7F4F0E94F110F4CF88E421
:1022600093E00C94D4100C9484308F929F92AF9290
:10227000BF92CF92DF92EF92FF920F931F93CF9373
:10228000DF938C01FC01E080F18015821482C28012
:10229000D380CE0CDF1C4701B12C8C149D0408F0B8
:1022A0004BC0E4012196C4010E9433118E3008F026
:1022B00043C0E82FF0E0E15AFE4E0C9404308E113A
:1022C0006D116D117111711171116D116D116D1112
:1022D0006F116F116F1174118311E40122964E0179
:1022E000DCCFE4012396FBCF4E01CE010E943311D7
:1022F000A82E2296C40101960E943311A110F4CF9A
:102300008111F2CFECCF2C2F9D2F2196822F0E948E
:1023100033112C2F9D2F8111F8CFE1CFB394EB2DEA
:10232000F0E03296EE0FFF1FE00FF11FCE018E1985
:102330009F0991838083D3CF8B2DDF91CF911F9104
:102340000F91FF90EF90DF90CF90BF90AF909F9054
:102350008F9008958F929F92AF92BF92CF92DF920B
:10236000EF92FF920F931F93CF93DF93FC01EC5BEF
:10237000FF4F2081621708F0DFC07C01E62FF0E0FC
:102380003296EE0FFF1FEE0DFF1DD7010D911C9130
:1023900080819181080F191FD12CF70180819181D3
:1023A00022813381820F931F0817190708F0C4C0D8
:1023B000E8012196C8010E94331181508D3008F048
:1023C000BBC0E82FF0E0E951FE4E0C94043013122C
:1023D00022122E123F12501261126D1279121A122D
:1023E0001A121A12F41185128D2C912CB12CA12CD9
:1023F000CE010E943311C82E8E010E5F1F4FCE01F9
:1024000001960E943311811102C0CC2091F0682FF7
:102410007C2D8CE993E00E945014C501B4010E9408
:10242000F403E801E5CF0E5F1F4FCE010E94331188
:10243000D82EE8016D2D70E090E080E00E94F4035A
:102440008E01ABCF0E5F1F4FCE010E943311682F5C
:1024500070E090E080E00E94F403EBCFCE010E9498
:102460003311C82EE8012396C80102960E94331149
:10247000682F7C2D8CE993E00E94AC13DBCFCE015A
:102480000E943311C82EE8012396C80102960E94CB
:102490003311682F7C2D8CE993E00E94E713CACF9B
:1024A000CE010E943311C82EE8012396C80102967E
:1024B0000E943311682F7C2D8CE993E00E94501408
:1024C000B9CF0E5F1F4FCE010E943311682F70E00D
:1024D0008CE993E00E94AC13ACCF0E5F1F4FCE018E
:1024E0000E943311682F70E08CE993E00E94E7139B
:1024F000A0CF0E5F1F4FCE010E943311682F70E0F6
:102500008CE993E00E94501494CFCE018D2C912C35
:10251000B12CA12C21960E943311882309F48ACF73
:10252000682F70E08CE993E00E945014C501B4015B
:102530000E94F403CE01EECFDF91CF911F910F9156
:10254000FF90EF90DF90CF90BF90AF909F908F90D3
:102550000895292F30E0322F222790E08C55914D9D
:10256000280F391F81E02032310508F080E00895FE
:102570000F931F93CF93DF938C01EB018A819B8193
:102580000E94A9128823A9F0898181FF0DC080FDD6
:102590000BC06A816C55C8010E94AA1181E0DF91CD
:1025A000CF911F910F9108958CE993E00E940F1431
:1025B000F5CF80E0F4CF6EE973E08CE594E00E9403
:1025C0006C2784E690E00E942D048CE594E00E9444
:1025D000972784E690E00E942D0480E008950F93F1
:1025E0001F93CF93DF93EC018B0180EB93E00E946C
:1025F0003916998388831B830A83CE010E94351183
:10260000CC5BDF4F8883DF91CF911F910F910895AD
:10261000BF92CF92DF92EF92FF920F931F93CF93CF
:10262000DF93EC018B0143E853E08FEB93E00E94D2
:10263000D219811186C047E050E06BE773E0C80112
:102640000E944E30892B09F07CC0095F1F4F67E75D
:1026500073E0C8010E944530892B09F05FC08CE50A
:1026600094E00E947825F12CE12C8A30910511F03C
:10267000019621F58A819B81E816F90608F04EC083
:10268000888199818E0D9F1D0E9433114AE050E090
:10269000682F8CE594E00E94062884E690E00E9472
:1026A0002D0460E28CE594E00E94902784E690E09F
:1026B0000E942D048FEFE81AF80ADCCF8CE594E035
:1026C0000E9478258A30910511F1019601F18A81E5
:1026D0009B81E816F906D8F441E070E060E08CE5F3
:1026E00094E00E947B28B62E67018FEFC81AD80AA3
:1026F00088819981E80EF91EC7010E948430B816BE
:1027000021F06B2DC7010E948C307601D7CFCE010E
:102710000E943511FE01EC5BFF4F80836FE673E092
:10272000C8010E944530892B51F441E070E060E01F
:102730008CE594E00E947B28CE010E94AA1181E0E2
:1027400001C080E0DF91CF911F910F91FF90EF903A
:10275000DF90CF90BF900895EF92FF920F931F9359
:10276000CF93DF9300D000D01F92CDB7DEB78C019E
:10277000F62EE72E6091C3048FEF898382E88A8367
:10278000FB827C836D832FEF32E84F2D572F85EB33
:1027900091E00E94E807C8014096F801E817F907A0
:1027A00041F02081211111C0218121110EC0F08240
:1027B000E1820F900F900F900F900F90DF91CF91CB
:1027C0001F910F91FF90EF9008953296E7CFCF932E
:1027D000DF9300D000D01F92CDB7DEB7AB019C01D4
:1027E000205F3F4FFC012E173F0751F0808184137B
:1027F00005C08181851302C0108211823296F3CF09
:102800006091C3042FEF31E885EB91E00F900F90BA
:102810000F900F900F90DF91CF910C94E807CF921B
:10282000DF92EF92FF920F931F93CF93DF9300D02D
:1028300000D01F92CDB7DEB77C0120E1E20EF11C83
:102840008C01DD24DA9481E8C82EE016F106D1F07F
:10285000F80140815181411102C0552381F06091FE
:10286000C304D982CA824B835C836D832FEF31E826
:1028700085EB91E00E94E807F801108211820E5F5B
:102880001F4FE3CF0F900F900F900F900F90DF919D
:10289000CF911F910F91FF90EF90DF90CF9008950F
:1028A0000F931F93CF93DF9300D000D01F92CDB72B
:1028B000DEB78B016091C3042FEF32E8A80185EBEE
:1028C00091E00E94E8076091C3042FEF31E8A8016E
:1028D00085EB91E00F900F900F900F900F90DF918C
:1028E000CF911F910F910C94E8070F931F93CF93F3
:1028F000DF938C01005F1F4FEC010C171D0771F077
:102900006881798189819881911102C0882321F0A1
:1029100085EB91E00E94D2062296EFCF80E0DF9116
:10292000CF911F910F910895FF920F931F93CF9313
:10293000DF93EC018B01FB01F0800E948430F816DC
:1029400021F06F2DCE010E948C30F801F18021968C
:10295000CE010E948430F81621F06F2DCE010E9426
:102960008C30C801DF91CF911F910F91FF90089596
:10297000CF92DF92EF92FF920F931F93CF93DF934B
:102980007C0162E070E080EB93E00E943916EC017C
:10299000F701918380838C016C01F2E0CF0ED11C92
:1029A0000C151D0540F4C8010E9484308F3F41F48E
:1029B0000F5F1F4FF5CF66E071E0CE010E949414C7
:1029C000F701C081D181CE010E948430809306013D
:1029D000CE0101960E9484308093070180E0DF9150
:1029E000CF911F910F91FF90EF90DF90CF900895BE
:1029F00060EE73E08CE594E00E946C2784E690E042
:102A00000E942D048CE594E00E94972784E690E0D4
:102A10000E942D0480E008950F931F93CF93DF93BE
:102A2000EC018B0146EC53E08FEB93E00E94D2194E
:102A3000811144C06CEA73E0C8010E944530892BC3
:102A4000E9F58CE594E00E9478258A309105C9F07B
:102A50000196B9F041E070E060E08CE594E00E94FE
:102A60007B28609306017093070166E071E088811E
:102A700099810E94941481E0DF91CF911F910F9171
:102A800008956091070170E0762F66278091060116
:102A9000680F711D4AE050E08CE594E00E940D281B
:102AA00084E690E00E942D0460E28CE594E00E94B0
:102AB000902784E690E00E942D04D7CF80E0DCCF01
:102AC000CF93DF93DC01EB019A818C91981305C0C1
:102AD0002B8111968C91281749F09E3721F080E0C8
:102AE000DF91CF9108958B81813DC9F7898181FF65
:102AF000F6CF80FDF4CF87FDF2CF83E191E00E9415
:102B0000B31D882361F361E083E191E00E94171E09
:102B10001A821B8281E0E4CF84E690E00C942D04BD
:102B20004AE050E0682F8CE594E00E9406280E945D
:102B30008C1560E28CE594E00E9490270C948C1533
:102B4000FF920F931F93CF93DF93EC01F62E088132
:102B50001981C8010E948430F81621F06F2DC80138
:102B60000E948C30CE01DF91CF911F910F91FF9089
:102B70000895F89481E08093E00080E28093D8008B
:102B8000E9ECF0E010828FE19EE40197F1F700C0DC
:102B900000001DBA109268001CBC10BE1FBA109233
:102BA0007A0010926E0010926F00109271001092D5
:102BB00072001082ECEBF0E0108214B817B81AB86B
:102BC0001DB810BA108215B818B81BB81EB811BAC3
:102BD0000C94003F0895AF92BF92CF92DF92EF9294
:102BE000FF920F931F93CF93DF9300D0CDB7DEB743
:102BF0008C016C0184E0C80ED11C5601F12CE12C33
:102C0000C7010E948430F50181935F01FFEFEF1A45
:102C1000FF0A84E0E816F10499F7F80185818F3FF7
:102C2000D1F48481982F9F779F3711F487FD148208
:102C300081E0F801858310E000E01A830983F60142
:102C400061916F01CE0101960E94A0150F5F1F4F89
:102C50000430110591F780E00F900F90DF91CF9134
:102C60001F910F91FF90EF90DF90CF90BF90AF90AA
:102C700008950F931F93CF93DF9300D0CDB7DEB7A6
:102C80007A836983FC01238110E000E021110FC0E9
:102C900000811181CB01800F911F9183808342E0DD
:102CA000BE016F5F7F4F88EB93E00E942818C80138
:102CB0000F900F90DF91CF911F910F910895CF92B8
:102CC000DF92EF92FF920F931F93CF93DF9300D089
:102CD000CDB7DEB77C016C0184E0C80ED11C10E0DA
:102CE00000E01A830983F60161916F01CE0101961C
:102CF0000E94A0150F5F1F4F0430110591F781E06E
:102D0000F70182830F900F90DF91CF911F910F9168
:102D1000FF90EF90DF90CF9008951F93CF93DF93B4
:102D2000EC01162F80910001681748F4862F0E944D
:102D300047098C818078912F9F77892B8C831E3750
:102D400020F08C8180788E678C83CE010E945F1684
:102D50008C818F77DF91CF911F910895FC01948131
:102D600060FB97F99483892F8F778F3719F49078C8
:102D70009E679483CF010C945F16CF93DF93EC0191
:102D800081E08B8360E188EB93E00E940F188D81D6
:102D9000813021F01A82DF91CF9108952E813F81F9
:102DA0008091B8039091B9032F3F320769F49F8354
:102DB0008E83CE010E945F168C818F778E3758F7F5
:102DC000DF91CF910C9447092817390721F7F4CFE9
:102DD000FC012381211102C00E94BD1680E00895EC
:102DE00084E090E09093B1038093B00308958CE564
:102DF00094E00E9478259C0181E02A30310529F079
:102E00002F3F3F4F11F080E0089508950F931F93D7
:102E1000CF93DF9300D0CDB7DEB78B0147E154E00D
:102E20008FEB93E00E94D219811135C067E074E006
:102E3000C8010E944530892BF1F40E94F71610E07A
:102E400000E0811149C00E94F71681113DC041E0A8
:102E500070E060E08CE594E00E947B281A8309838F
:102E6000CE0101960E94A0150F5F1F4F011584E04F
:102E7000180749F729C06BEF73E0C8010E9445307D
:102E8000892B59F06EEE73E0C8010E94453010E0C6
:102E900000E0892B69F180E018C08091B003909127
:102EA000B10360E074E0681B790B4AE050E08CE508
:102EB00094E00E940D280E948C1560E28CE594E05D
:102EC0000E9490270E948C1581E00F900F90DF9157
:102ED000CF911F910F910895C8010E9484300E94E4
:102EE00090150F5F1F4F011584E01807A9F7ECCF6D
:102EF0001A8309836FEFCE0101960E94A0150F5F20
:102F00001F4F011584E0180799F70E94B915DCCF0F
:102F1000CF93DF93EB014EE654E08FEB93E00E94FA
:102F2000D21981117AC049E050E064E674E0CE0124
:102F30000E944E30892B09F070C0299667E574E035
:102F4000CE010E944530892B81F40E94F716811131
:102F500060C041E070E060E08CE594E00E947B2876
:102F600080EB93E00E948D1640C060E574E0CE01D6
:102F70000E944530892BE9F168E474E0CE010E949B
:102F80004530892B71F164E474E0CE010E94453034
:102F9000892B09F042C08091B303D0E0C0E08823C0
:102FA00021F0C091B603D091B7036091B80370913E
:102FB000B9034AE050E08CE594E00E940D280E949D
:102FC0008C1562E474E08CE594E00E946C270E940A
:102FD0008C154AE050E0BE018CE594E00E940D287B
:102FE00015C08091B5030E94901581E0DF91CF91CB
:102FF00008956091B2038FEB93E00E94091A0E943A
:103000008C1560E28CE594E00E9490270E948C155C
:10301000ECCF8091B4038F77E6CF80E0E7CFFC015F
:10302000208131812170332781E0861770F440813F
:1030300051815695479551834083220F331F41702C
:103040005527242B352B8F5FF0CF318320830895B4
:10305000DC01FB01415000F181912D913C911197D0
:1030600068E070E051E0982F952399F4932F991F11
:103070009927991F220F331F992319F095E02927CB
:103080003058550F6150710971F711963C932E938A
:10309000E1CF932F9095EBCF089584E690E00C94C8
:1030A0002D041F93CF93DF939091BC03891730F0C9
:1030B00080E090E0DF91CF911F910895C62FD0E07E
:1030C00094E5899FC00DD11D1124CC0FDD1F6091A7
:1030D000BD037091BE03C60FD71FCE010E9484307E
:1030E000182FCE0101960E948430912FE3CF90914A
:1030F000BB03891710F40C940009891B0C94511818
:1031000080EB93E00E94EB15809100018093BB035C
:1031100080E0089568E075E08CE594E00E946C27FB
:103120000E944D188CE594E00E9497270E944D184C
:1031300080E008958093BC0398EA899FB001112430
:1031400080EB93E00E9439169093BE038093BD03F9
:103150000895809300019091B40321E538E197FD33
:1031600007C09091BB03980F9093000127E738E1C7
:1031700030930301209302010C949A18FF920F934D
:103180001F93CF93DF9300D0CDB7DEB7F62E672F16
:103190008C01000F111F8091BD039091BE03800F21
:1031A000911F9A838983CE0101960E94A015809178
:1031B000BD039091BE030196800F911F9A8389836E
:1031C0006F2DCE0101960E94A0150F900F90DF91F8
:1031D000CF911F910F91FF900895FF920F931F932E
:1031E000CF93DF93F82E8B01C0E0CF15F9F0D0E03C
:1031F0006D2F8C2FF8010995692F70E0762F6627C7
:10320000680F711D4AE050E08CE594E00E940D28A3
:103210000E944D1860E28CE594E00E9490270E9485
:103220004D18DF5FD43521F7CF5FDFCFDF91CF912E
:103230001F910F91FF9008958CE594E00E947825EE
:103240009C0181E02A30310529F02F3F3F4F11F0DA
:1032500080E008950895FF920F931F93CF93DF931B
:103260001F92CDB7DEB78B0147ED54E08FEB93E0B3
:103270000E94D21981118EC047E050E06FEC74E0DB
:10328000C8010E944E30892B09F084C0095F1F4F8E
:1032900064EC74E0C8010E944530892BE1F50E947E
:1032A0001C198823B1F06091B40367FB662760F9AD
:1032B0004AE050E08CE594E00E9406280E944D18F8
:1032C00060E28CE594E00E9490270E944D1881E016
:1032D00062C041E070E060E08CE594E00E947B28F1
:1032E000162F698380EB93E00E94AE169091BC0389
:1032F00090930001112339F081E598E19093030147
:1033000080930201E4CF8091BB03890F8093000179
:1033100087E798E1F3CF6CEB74E0C8010E94453079
:10332000892B39F460E079E08091BB030E94ED18AD
:10333000CECF65EB74E0C8010E944530892B51F572
:103340000E941C1910E000E094E5F92E882329F072
:1033500061E578E18091BC03E9CF0E941C198111DD
:10336000B6CF8091BC038F9DC001112408171907A7
:1033700008F0ADCF41E070E060E08CE594E00E94A1
:103380007B28272F3327722FC8010E94BE180F5F9A
:103390001F4FE3CF80E00F90DF91CF911F910F91EE
:1033A000FF900895CF93DF93CB01EA0161E575E0CB
:1033B0000E944530892B49F4BE018CE594E00E94BF
:1033C0009B2781E0DF91CF91089580E0FBCFCF93E1
:1033D000DF93EB0145E355E00E94D219811117C03C
:1033E00068E275E0CE010E944530892B31F40E94DD
:1033F000B91581E0DF91CF91089560E275E0CE01CB
:103400000E944530892B19F40E949904F2CF80E084
:10341000F1CF611106C065E175E08CE594E00C9494
:103420006C276BE175E0F9CF1092DF030895CF931D
:10343000DF93EC018CE594E00E948E258CE594E00E
:103440000E949125892B09F442C08CE594E00E94EA
:1034500078250A9799F18CE594E00E94A1258032A5
:103460009105E1F4CE010E940A058CE594E00E94EA
:103470009125892B31F08CE594E00E94A1250A97D3
:10348000A1F766E575E08CE594E00E949B2718A201
:1034900080E2FE0111928A95E9F719C0E8A191E056
:1034A0009E0F98A3EC0FFD2FF11D80839F3130F408
:1034B0008CE594E00E949125892B39F68CE594E007
:1034C0000E9478250A9771F288A18F3158F680E022
:1034D000DF91CF9108956AE575E08CE594E00E9454
:1034E0006C2784E690E00E942D048CE594E00E9415
:1034F000972784E690E00E942D0480E00895CF9302
:10350000DF9300D000D000D0CDB7DEB789E895E0DA
:103510000E94DF2EEDE9F5E0108A868597852485E7
:10352000358519823B832A839D838C831E82028486
:10353000F385E02D0190F081E02D46E050E0BE01E2
:103540006F5F7F4F87EA95E0099580E026960FB67A
:10355000F894DEBF0FBECDBFDF91CF910895FC017F
:10356000703579F4862F8076803429F49085862F03
:103570008F7B892B8087862F807729F48781682B22
:10358000678380E008958031E1F780E1689FB001B2
:103590001124F4CFCF93DF93EC0189E895E00E94EA
:1035A000A22E688589E895E00E94A82E89E895E01A
:1035B000DF91CF910C94BA2EFB01928196FB2227CA
:1035C00020F980E090FD82E0822B20E091FD24E054
:1035D000822B20E092FD28E0822B93FD04C090E036
:1035E000892B0C94271C90E1FBCFFB012381203514
:1035F00059F4DC0117961C9217972281322F3076EE
:10360000303421F418961C9280E0089525FFFCCFF9
:10361000218121FFF9CF20FDF7CF0E94DC1AF4CFE2
:103620002091B6013091B701FC013183208396814E
:10363000892F8F7019F41092EB0308958091100177
:10364000819592FF80E093FF03C020911001820FCB
:1036500060911001619590FF60E091FF03C090912F
:103660001001690F0E94C91C89E895E00C94BA2EDC
:103670000F932091B6013091B701FC01358324836B
:10368000868190E024E0959587952A95E1F700974B
:10369000F1F000910A01019582FF00E083FF03C071
:1036A00020910A01020F20910A0180FF20E081FF92
:1036B00003C080910A01281B40E060E089E895E0A2
:1036C0000E949A2E89E895E00F910C94BA2E0F91E2
:1036D0000895CF93DF93EC018091B6019091B701EB
:1036E0002A813B81AC01421B530B9A0140910B0193
:1036F00050910C012417350780F09B838A83209119
:10370000EB0330910D014FEF50E0431B510924179B
:1037100015061CF4230F2093EB0328813981821BAB
:10372000930B20910E0130910F018217930718F02F
:10373000CE010E94101B8091B6019091B7012C819F
:103740003D81821B930B2091080130910901821762
:10375000930718F0CE010E94381B80E0DF91CF91D3
:1037600008950F931F93CF93DF93FB01238120359F
:10377000C9F48B01EC0182818076803419F4CE018A
:103780000E94CA1A8F818E831F82F80182818077FE
:1037900079F48091B6019091B7019B838A83CE0121
:1037A0000E94101B80E0DF91CF911F910F9108952F
:1037B0008031C1F7CE010E94381BF4CFCF93DF9345
:1037C00000D000D000D0CDB7DEB736952795820F58
:1037D000931F56954795640F751FEDE9F5E09587A2
:1037E000848777876687208929839B838A837D8363
:1037F0006C831E820284F385E02D0190F081E02D20
:1038000046E050E0BE016F5F7F4F87EA95E0099583
:1038100026960FB6F894DEBF0FBECDBFDF91CF91D5
:1038200008951092EE031092ED031092F00310929F
:10383000EF038FEF9FE79093F4038093F30390934C
:10384000F2038093F10381E08093EC0308950F93DA
:103850001F93CF93C82F8091EC03811102C00E9467
:10386000111CC0FF06C01092EC03CF911F910F9165
:103870000895E09112010E2F10E08091F3039091D2
:10388000F403B8010E94BA2F9B017093F403609374
:10389000F3038091F1039091F203B8010E94BA2FD3
:1038A000AB017093F2036093F1036C2F6470E091AD
:1038B000EF03F091F0038091ED039091EE037C2FE4
:1038C0007670763091F4820F931F9093EE0380937D
:1038D000ED03BA016E0F7F1F7093F0036093EF0347
:1038E000CF911F910F910C94DE1B662349F1D801F3
:1038F0001197A49FB001A59F700DB49F700D112466
:10390000E60FF71FF093F003E093EF03C4FF1DC031
:1039100001501109029FB001039F700D129F700D9D
:103920001124860F971F9093EE038093ED0360910F
:10393000EF037091F0038091ED039091EE03D0CFEF
:10394000C1FDE4CFE40FF51FDDCFC3FDF0CF820F43
:10395000931FE9CF482F50E087FD0AC0889FC00120
:103960001124880F892F881F990B91958F5F0895D7
:1039700020E031E0241B350B229FC001239F900DD6
:10398000900D1124880F892F881F990B9195809590
:103990000895EF92FF920F931F93CF93DF93082F19
:1039A000162FC0911101D0E0F12CE12C8823D1F029
:1039B0008091EB030E94AA1C2091EA03382F030395
:1039C000C0011124820F911D27FD9A957E01C81711
:1039D000D90744F0EE24FF24EC1AFD0AE816F90694
:1039E0000CF47C01112309F449C08091EB030E947F
:1039F000AA1C2091E903382F1303C0011124820F60
:103A0000911D27FD9A95C817D9073CF0D195C1950E
:103A1000D109C817D9070CF4EC011092EC03AE01E0
:103A2000D7FF02C0415F5F4F94E0559547959A9547
:103A3000E1F7B701F7FE02C0615F7F4F84E0759543
:103A400067958A95E1F700E020E089E895E00E941B
:103A50009A2E20E130E0C701B9010E94CE2F809359
:103A6000EA03CE01B9010E94CE2F8093E903DF91D2
:103A7000CF911F910F91FF90EF900895D0E0C0E09B
:103A8000CCCFFC018281DB019C91891730F5A081AC
:103A9000B181A80FB11D2C9130E0938102C0359502
:103AA00027959A95E2F724834481442391F0242FAB
:103AB00030E0938140FF07C0880F880F880F890F7F
:103AC000858381E008953595279524839F5F9383AF
:103AD000EBCF8F5F82831382D5CF80E00895262FAE
:103AE000269526952695820F911DFC01808190E0F8
:103AF000677002C0959587956A95E2F78170089581
:103B0000E62FE695E695E695E80FF92FF11D67702B
:103B100081E090E0A0E0B0E004C0880F991FAA1FE8
:103B2000BB1F6A95D2F72081822B80830895E62FF0
:103B3000E695E695E695E80FF92FF11D862F87703B
:103B400041E050E060E070E004C0440F551F661F84
:103B5000771F8A95D2F74095509560957095808132
:103B6000482340830895EF92FF920F931F93CF93C2
:103B7000DF93CDB7DEB72C970FB6F894DEBF0FBE3C
:103B8000CDBF8C010A9698878F8319861A86FF24E9
:103B9000FA94FC869A8389838BE0E82EEB821C8260
:103BA000FE82BE016D5F7F4FCE0107960E94411DD0
:103BB000811113C00B5E1F4F18870F8319861A8659
:103BC000FC861A830983EB821C82FE82BE016D5F34
:103BD0007F4FCE0107960E94411D2C960FB6F89498
:103BE000DEBF0FBECDBFDF91CF911F910F91FF9030
:103BF000EF900895272F207C69F4605E683098F478
:103C0000FC018681978102C0969587956A95E2F7B7
:103C100081700895743439F426ED260F2A3218F491
:103C20006252603168F381E008950C94FA1DAF92FE
:103C3000BF92DF92EF92FF920F931F93CF93DF9388
:103C4000CDB7DEB761970FB6F894DEBF0FBECDBF1C
:103C50008C010A967C01662381F1580195E1A90E39
:103C6000B11CB886AF8219861A868FEF8C87BA820C
:103C7000A9829BE09B831C828E83BE016D5F7F4F78
:103C8000CE0107960E94411D8823B9F0DC846D2D7A
:103C9000C5010E94971D6D2DC7010E94971D60915F
:103CA000C3042D2D31E84FEF5FEF85EB91E00E94CB
:103CB000E8078A858F5F8A87E0CFF886EF821986CA
:103CC0001A868FEF8C87FA82E9829BE09B831C82A5
:103CD0008E830B5E1F4FBE016D5F7F4FCE01079637
:103CE0000E94411D882309F1DC846D2DC8010E94CA
:103CF0006F1D6D2D8823A9F0C8010E94971D6D2DA1
:103D0000C7010E94971D6091C3042D2D31E84FEF2C
:103D10005FEF85EB91E00E94E8078A858F5F8A87D5
:103D2000DACFC7010E94971DF8CF61960FB6F894BD
:103D3000DEBF0FBECDBFDF91CF911F910F91FF90DE
:103D4000EF90DF90BF90AF90089564E675E08CE54A
:103D500094E00E946C2784E690E00E942D048CE59C
:103D600094E00E94972784E690E00E942D0480E072
:103D700008954F925F926F927F928F929F92AF922F
:103D8000BF92CF92DF92EF92FF920F931F93CF9348
:103D9000DF93CDB7DEB761970FB6F894DEBF0FBEE5
:103DA000CDBF8C01FC0160807180C090B601D090C5
:103DB000B70180A191A1C81AD90A828093807801A5
:103DC000FAE0EF0EF11CF886EF8219861A868FEF63
:103DD0008C87FA82E9829BE09B831C828E83512C24
:103DE000580185E1A80EB11CBE016D5F7F4FCE0169
:103DF00007960E94411D482E882349F15C84652D59
:103E0000C5010E946F1D8823D1F0C614D70490F01D
:103E1000652DC5010E94971D652DC7010E94971D44
:103E20006091C304252D31E84FEF5FEF85EB91E002
:103E30000E94E8078A858F5F8A87542CD5CFC814E3
:103E4000D904C0F3652DC7010E94971DF3CF51100F
:103E500007C08091B6019091B701F80191A380A3AA
:103E600080E061960FB6F894DEBF0FBECDBFDF9144
:103E7000CF911F910F91FF90EF90DF90CF90BF9067
:103E8000AF909F908F907F906F905F904F9008952C
:103E90000C94B91E872F90E0982F8827860F911DCC
:103EA0002FEF280F283018F4815290E008958F5D8D
:103EB00094E40895AF92BF92CF92DF92EF92FF9277
:103EC0000F931F93CF93DF93FB01B180B7FC5BC0CF
:103ED000EB018C016C01FAE0CF0ED11C6881C601A8
:103EE0000E946F1DA82E780185E1E80EF11C688103
:103EF000C7010E946F1DB1FE90C0B0FC8EC0A11022
:103F000051C0811185C08A819B81292F30E0322FD9
:103F10002227482F50E04150504C240F351F2031AC
:103F2000310598F46A817B81C8010E944A1F9B83F6
:103F30008A836881C6010E94801D8091B60190919C
:103F4000B701F80191A380A31BC0F80120852223AB
:103F500039F0292F207C21F420E2280F283048F363
:103F6000F8012185222331F0943421F426ED280F25
:103F70002A32F8F2292F207C41F4805E883050F4F8
:103F80008881F80182A380E038C0943419F48A5201
:103F90008A32B0F3F80180A191A120813181821B86
:103FA000930BD0CF882361F36881C6010E94971DCF
:103FB0009881F80182A1981729F06881C7010E94B1
:103FC000971DDECF6A817B81C8010E94151E882360
:103FD000A1F3F8018481958197FF02C080819181CE
:103FE0002091B6013091B701F80140A151A1241BE5
:103FF000350B2817390708F782E0DF91CF911F9121
:104000000F91FF90EF90DF90CF90BF90AF90089509
:104010006881C6010E94971DD0CFA11003C08823DC
:1040200009F4B1CF6881C7010E94801DE5CF6CE61D
:1040300075E08CE594E00E946C2784E690E00E9495
:104040002D048CE594E00E94972784E690E00E947E
:104050002D0480E00895FC01872F90E0982F882799
:10406000680F792F711D613180EC7807E0F06231C3
:1040700088EC780750F46151704C66A717A611AA16
:1040800080EE870F80AB81E00895633180ED780783
:1040900050F46251784C66A717A68AE2870F80AB6E
:1040A00084E481ABF0CF80E008958F929F92AF922D
:1040B000BF92CF92DF92EF92FF920F931F93CF9315
:1040C000DF9300D000D0CDB7DEB78C01F62E23E50C
:1040D000261708F469C0E62FF0E0EE0FFF1FEC533F
:1040E000FB4FD080E1808FEFD8120FC0E8120DC0D7
:1040F000AF2DB0E0A554BE4FE0910201F091030155
:104100006F2D8C910995D82EE92E6D2D7E2DC8012D
:104110000E942B20B82E811135C0EF2DF0E0E55420
:10412000FE4F8080C12CAA24AA94912CF801828190
:10413000C81608F042C0F4E0CF9EC0011124F80177
:1041400060817181680F791FAA8244E050E0CE013E
:1041500001960E943C3089819A813B812C81F91221
:104160002AC0482F082E000C550B4815590511F090
:104170008F3F09F5F801D6A6E7A6C90190AB21ABA0
:10418000BB24B3948B2D0F900F900F900F90DF9165
:10419000CF911F910F91FF90EF90DF90CF90BF9044
:1041A000AF909F908F90089510926C0510926D05BE
:1041B000ECE6F5E096CFC394B9CFD6A6E7A68FEF8D
:1041C00080AB81ABDFCFCF93DF93FC01EB019A0192
:1041D000261B370BA4E6B0E00E940A3026A130E08F
:1041E00050E040E00E94E22F8091B6019091B7012B
:1041F000BC016C1B7D0B81E06217730708F080E047
:10420000DF91CF910895292F207C39F490E2980F07
:1042100081E0983048F080E007C09434E1F796EDF3
:10422000980F81E09A32B8F70895CF93DF93EC01AD
:104230008881681780F5882371F181508883E62F83
:10424000F0E0DF011196AC0FBD1FEE0FFF1F71965E
:10425000EC0FFD1F962F981780F411962C91119753
:104260002D9318962C91189717962C9317972281B7
:104270003381219331939F5FEECF2FEF30E001C068
:10428000220F6A95EAF789A1922F90959823869537
:104290008223892B89A3DF91CF910895CF93DF9358
:1042A00000D000D01F92CDB7DEB7FC01348584A1C9
:1042B000982F917080FD28C082E0248139838A8301
:1042C0006B837C832D8391110AC0872F90E0982FF8
:1042D0008827680F792F711D64307105F0F460E054
:1042E000CF0103960E94152129813A814B815C817F
:1042F0006D8185EB91E00F900F900F900F900F90D4
:10430000DF91CF910C949C0881E0D7CF6D3271057D
:1043100030F36933710518F703C068327105B0F7DF
:104320008489958994A783A7DACFCF93DF93FC0183
:104330007381DC011D9681E090E060E08717F0F466
:1043400052A94D9124A130E0082E02C03595279541
:104350000A94E2F720FD0DC0541721F080E0DF91B0
:10436000CF9108952489358934AB23AB682F01960A
:10437000E5CF5413FCCF8FEF82ABF0CF8091B60125
:104380009091B70123A934A9821B930B25A9281763
:10439000190609F068F48FEF82AB6623F9F2EF019A
:1043A0002396CE010E94152160E0CE010E941521C6
:1043B00081E0D5CF7F928F929F92AF92BF92CF92A2
:1043C000DF92EF92FF920F931F93CF93DF93EC0155
:1043D0009B81911110C0F12C8F2DDF91CF911F91F6
:1043E0000F91FF90EF90DF90CF90BF90AF909F9094
:1043F0008F907F9008959C848CA180FF13C098308B
:1044000041F460E070E0CE010E944E21FF24F3945D
:10441000E3CF8AA99812F5CFCE010E949521811190
:10442000DACFEFCF692DCE010E945520882309F401
:1044300070C0FDA0FF2009F46CC00EA51FA5C80127
:104440000E940321882E8091B6019091B7012BA57F
:104450003CA5821B930B2AA52817190609F010F515
:104460007B80A090B601B090B7016E0101E010E032
:10447000E12C202F071508F065C08CA190E0002EDC
:1044800002C0959587950A94E2F780FD12C08110CD
:1044900040C0EE2009F454C07FEFC71AD70A0F5F5F
:1044A0001F4FE7CF8110DCCFB801CE010E944E2113
:1044B000D7CFF6019585FE013D9681E099122DC07A
:1044C000EE2019F08EA1811110C0882059F068A942
:1044D00079A99AAA8C899D899CAB8BABCE010E944D
:1044E0004E217ACF6EA57FA5F4CFF801EE0FFF1F06
:1044F000EC0FFD1F44895589EE2DF0E0EE0FFF1FF4
:10450000EC0FFD1F64897589CE010E94E3208111A3
:10451000C3CF6EA57FA577CF8F5F821708F0BCCF82
:1045200031913913F9CF4C895D89B501641B750B45
:1045300039A53617170609F078F768A979A9CECFFB
:10454000E02EAACF88E0781246CFE3CF0F931F93D7
:10455000CF93DF93EC01FB0124818DA5922F981B53
:1045600019162CF08B8181111CC080E025C02DA76D
:1045700080818435D0F7818187FDF7CF8B018DA1B4
:1045800081111FC062817381CE010E942B2088237C
:1045900061F38EA59FA5D80113969C938E931297D5
:1045A000E4CF022E000C330B8C81281B310987FDD0
:1045B000339537FDDACF82E0DF91CF911F910F91D4
:1045C00008952B81822F90E03481FE01E80FF91FBE
:1045D0003483DB013C913487880F991FFE01E80F7B
:1045E000F91F8091B6019091B701958B848B11963C
:1045F0004C913CA181E090E0A0E0B0E0022E04C02C
:10460000880F991FAA1FBB1F0A94D2F740FF0CC046
:1046100041FD0AC0832B8CA32F5F2B83CE010E9408
:10462000DA218111FBCFC7CF80958323F4CF0F937D
:104630001F93CF93DF93EC012091B6013091B70126
:104640008AA590E04BA55CA5B901641B750B6817A2
:10465000790738F0A90141505109481B590B5CA753
:104660004BA78B818823D9F08C899D89281B390B16
:104670008FA198A52817390768F00EA51FA5C801B6
:104680000E940321B801811102C068A979A9CE0155
:104690000E944E21CE010E94DA218111FBCF80E0E1
:1046A000DF91CF911F910F910895CF93DF93C5EFC5
:1046B000D3E0198218821A821B8288E0EBE4F1E0D1
:1046C000A1E0B4E001900D928A95E1F781E08DA31D
:1046D00080E58EA38AEF90E098A78FA382E389A755
:1046E0008BE48AA780E091E09CA78BA78FEF8DA732
:1046F0008EA78FA788AB89AB8AAB88EC8DABDF9197
:10470000CF910895FC018FEF818312824091530174
:104710005091540160915501709156014783508723
:1047200061877287848B8091400481112CC081EE57
:10473000809348041092490486E280934A0488E0FA
:1047400080934B0410924D0410924C0495EE90937C
:104750004E0410924F0497E29093500480935104BA
:104760001092530410925204109254041092550463
:104770001092560410925704109259041092580443
:1047800081E08093400488E494E090935B048093FC
:104790005A04089563E775E08CE594E00E946C2765
:1047A00084E690E00E942D048CE594E00E94972717
:1047B00084E690E00E942D0480E0089580E026E0E9
:1047C000E0915A04F0915B04829FE00DF11D1124E9
:1047D000908191110FC0318131110CC032813111A2
:1047E00009C03381311106C044815581452B11F434
:1047F0008FEF0895961303C09181971711F08F5F83
:10480000DFCF08950F931F93CF93DF93CDB7DEB71C
:104810002A970FB6F894DEBF0FBECDBF8C01FC0106
:10482000838980FD48C082E0F801278193812E832F
:104830008F838FEF888789879A87662321F19489F0
:1048400097FD21C09081923079F46091C30429834F
:1048500091E09A838B838C836D8331E04FEF5FEF20
:1048600085EB91E00E94E807F8018489E0915A0401
:10487000F0915B0496E08902E00DF11D1124828124
:10488000938199878887F80182818823E1F081509C
:1048900082833396D8011B9690E0981770F421819B
:1048A00021932481238312962D913C9113972D936C
:1048B0003D939F5FF2CF81E0B7CFF801838990E00D
:1048C00095958795838B2E813F81488559856A858B
:1048D00085EB91E02A960FB6F894DEBF0FBECDBFF0
:1048E000DF91CF911F910F910C949C08CF93DF9390
:1048F000EC018A81882329F060E0CE010E94022425
:10490000F8CFDF91CF910895FC018281882311F1C6
:1049100020913601309137018489A0915A04B091D9
:104920005B0496E08902A00DB11D112414968D91AF
:104930009C91009709F09C018091B6019091B7017C
:1049400043855485841B950B8217930718F0CF017C
:104950000E94762480E00895CF93DF93FC01EB0161
:104960002081822F90E03C81DF01A80FB91F1196B2
:104970003C931197388115963C93880F991FDF015E
:10498000A80FB91F8091B6019091B7011A969C9318
:104990008E9319979981818941E050E060E070E041
:1049A000022E04C0440F551F661F771F0A94D2F7CA
:1049B00090FF09C091FD07C0482B418B2F5F2083DA
:1049C000DF91CF91089540954823F7CF0F931F9320
:1049D000CF93DF93EC01FB0184819981282F291B60
:1049E00012164CF09A8191111CC080E0DF91CF919A
:1049F0001F910F910895898320812435B0F781811B
:104A000087FDF3CF382F327081FF1FC080FD1DC09E
:104A10009281983591F49381913DB9F4188281E0A7
:104A2000E5CF082E000C990B2B81821B910927FDE5
:104A3000939597FDDACF82E0D9CF993531F4938100
:104A4000913D19F481E08883D1CF9881913069F24A
:104A50008F019A81992371F080FF09C0311107C03D
:104A60008F81821323C061E0CE010E940224CE0117
:104A70000E947624F801818181FFB7CF80FDB5CFF8
:104A800062817381CE010E94DE238C8B87FDADCFC6
:104A90008881823069F4F80120813181428153811B
:104AA000648185EB91E00E94E80702C09430F9F23E
:104AB000B801CE0102960E94AC24BDCF8BE294E0F7
:104AC0000C948223CF93DF931F92CDB7DEB7698317
:104AD000DC01ED91FC910280F381E02D41E050E09A
:104AE000BE016F5F7F4F09950F90DF91CF910895C1
:104AF000CF93DF93EC018C859D8597FF05C082E005
:104B00000E94CE299D878C878C859D85DF91CF91D2
:104B1000089583E00E94E52990E0089583E00C94D5
:104B2000542CFC018485958597FD06C082E00E9487
:104B30007E2990E00196089582E00E947E2990E00F
:104B40000895FC018485958597FD05C02FEF3FEF03
:104B500035872487089582E00C94CE29CF93DF9384
:104B6000EC0180914301882331F083E00E94FF290A
:104B70001816190634F081E090E09B838A8380E068
:104B800090E0DF91CF910895EEEFFFE7259134910A
:104B900081E02B3F3C4D09F080E00895FC019081BD
:104BA0009E5F908342E450E06EE775E080E80C94ED
:104BB000B02AFC0181819081913A61F4813209F03F
:104BC00083C047E050E06CE371E080E00E94B02ACF
:104BD00081E00895913209F077C0833269F48281CF
:104BE0009381B0E0A0E08093380190933901A093C5
:104BF0003A01B0933B01ECCF803239F467E070E0CA
:104C00008CE391E00E94D62AE3CF823209F78281B9
:104C1000809343010E94C425E0E0F8E0882311F06E
:104C2000EEEFFAE080913C0190913D01A0913E01B0
:104C3000B0913F01803B9440A105B105D9F480912A
:104C4000430180FD17C0EE3F8AE0F80771F587E762
:104C500097E791838083809160008093AC0488E122
:104C60009BE00FB6F894A895809360000FBE9093D8
:104C70006000AECF808191818737974709F0A8CF38
:104C8000A895809160008861809360008091AC0459
:104C900080936000EE3F8AE0F80789F08091FE0A79
:104CA0009091FF0A9183808393CF80819181873790
:104CB000980769F29093FF0A8093FE0AC8CF10927A
:104CC000FF0A1092FE0A84CF80E008952FEF3FEF95
:104CD000FC01358724870895ECE5F4E01382128205
:104CE00088EE93E0A0E0B0E084839583A683B78349
:104CF0008BE791E0918380838FEF9FEF9587848787
:104D00000895EF92FF920F931F93CF93DF937B0150
:104D1000FC01C281D38110E000E0209791F0E8818E
:104D2000F9810280F381E02DB701CE01099597FD4D
:104D300006C0080F191F0884D985C02DEECF0FEFCC
:104D40001FEFC801DF91CF911F910F91FF90EF905E
:104D500008950F931F93CF93DF938B01FC01C281C2
:104D6000D381209771F0E881F9810480F581E02DED
:104D7000B801CE010995009731F40884D985C02D7A
:104D8000F0CF90E080E0DF91CF911F910F910895D7
:104D90000F931F93CF93DF938B01FC01C281D381CB
:104DA000209771F0E881F9810680F781E02DB80144
:104DB000CE010995080F111D0884D985C02DF0CFAB
:104DC000F8011082DF91CF911F910F9108950F93F9
:104DD0001F93CF93DF938B01FC01C281D381209776
:104DE00071F0E881F9810190F081E02DB801CE01E8
:104DF0000995811105C00884D985C02DF0CF80E0C8
:104E0000DF91CF911F910F910895CF93DF93FC0114
:104E1000DB01218114968C911497820F9927991F99
:104E200008978CF5C281D381209731F57383628313
:104E3000908112969C93129713962C931397159624
:104E40008C911597890F808380E014969C9114971C
:104E50008917E8F41696CD91DC911797C80FD11DEC
:104E60009881C181D0E0CC5BDE4F988391819F5FB8
:104E700091838F5FEACFEC01888599850097D9F7F8
:104E8000B987A887D5CF80E0DF91CF91089581E0E1
:104E9000FBCF8091AD0481110DC082E08093B504F9
:104EA00084E08093B6041092B8041092B70481E0B5
:104EB0008093AD0485EB94E00895FB010190002000
:104EC000E9F73197AF01461B570BDC01ED91FC91DF
:104ED0000280F381E02D0994EF92FF920F931F93CC
:104EE000CF93DF938C017B01D0E0C0E0F701EC0FA2
:104EF000FD1F6491662361F0D801ED91FC91019052
:104F0000F081E02DC8010995892B11F02196EECF93
:104F1000CE01DF91CF911F910F91FF90EF900895F7
:104F2000DC01ED91FC910190F081E02D099469E89C
:104F300071E00C945D270F931F93CF93DF93EC01E7
:104F40000E946C278C01CE010E949727800F911F31
:104F5000DF91CF911F910F9108958F929F92AF9201
:104F6000BF92EF92FF920F931F93CF93DF93CDB732
:104F7000DEB7A1970FB6F894DEBF0FBECDBF7C01A0
:104F8000FA01CB0119A2223008F42AE08E010F5D4C
:104F90001F4F822E912CB12CA12CBF01A501940191
:104FA0000E94E22FF901CA016A300CF5605DD80158
:104FB0006E938D01232B242B252B79F790E080E035
:104FC000109721F0BD01C7010E945D27A1960FB681
:104FD000F894DEBF0FBECDBFDF91CF911F910F912F
:104FE000FF90EF90BF90AF909F908F900895695C75
:104FF000DECF2115310541F4DC01ED91FC910190EA
:10500000F081E02D642F09940C94AD279A01462F6E
:1050100050E070E060E00C94F9279A01AB0170E079
:1050200060E00C94F9270F931F93CF93DF93EC016B
:105030000E94C303688779878A879B87E881F98103
:105040000484F585E02DCE01099597FF15C00E94D7
:10505000C303088519852A853B85601B710B820B6C
:10506000930B0C811D812E813F8160177107820790
:10507000930720F38FEF9FEFDF91CF911F910F9157
:105080000895FF920F931F93CF93DF93EC018B0151
:10509000F42ECE010E94132897FD1DC08D3291057C
:1050A000D1F09C01205331092A303105A0F0FF20B6
:1050B00019F08E32910579F00130110551F002306E
:1050C000110589F48D30910571F05CF40997029710
:1050D00050F08FEF9FEFDF91CF911F910F91FF90D5
:1050E00008958097B1F7E881F9810284F385E02D76
:1050F000CE010995CECFBF92CF92DF92EF92FF9271
:105100000F931F93CF93DF938C01C42F40E00E9435
:105110004128FC01C12CD12C760197FD3EC0B12C59
:105120000C2E000CDD0BCE17DF07D9F0ED32F105A8
:1051300009F43FC0CF01C0970A9798F4AAE0B0E005
:10514000A70196010E9419306F01FF0FEE08FF08BA
:10515000C60ED71EE81EF91E80E3C81AD108E10862
:10516000F108D801ED91FC910284F385E02DC8018E
:105170000995C8010E941328FC01C0970A9798F26C
:10518000CE17DF0781F2BB2041F0F094E094D09479
:10519000C094C11CD11CE11CF11CC701B601DF91F8
:1051A000CF911F910F91FF90EF90DF90CF90BF9024
:1051B0000895BB24B394D5CF4091BC045091BD0455
:1051C0002091BA043091BB0442175307B4F4909174
:1051D000E8009570E1F39091E80092FD19C080938A
:1051E000F1008091BC049091BD0401968F739927C2
:1051F000892B19F48EEF8093E8008091BC04909184
:10520000BD0401969093BD048093BC0481E0089591
:1052100080E00895EF92FF920F931F93CF93DF9357
:10522000F82E192FE62E042F81E0860F880F0E949A
:10523000DC2883E00E94DC28CF2DD12FEC0EFD2E40
:10524000F11CCE15DF05B9F007FF13C0FE018491F4
:105250000E94DC28182F80E00E94DC288123219600
:105260008111EFCFDF91CF911F910F91FF90EF90C0
:1052700008958881EDCF81E0F5CF8091D7008160DE
:105280008093D70080EA8093D80089B5806189BD7A
:1052900089B5826089BD09B400FEFDCF61E070E090
:1052A00080E090E00E94F4038091D8008F7C8061C0
:1052B0008093D8008091E000807F8093E000089583
:1052C000CF93DF931F92CDB7DEB71982CE0101963F
:1052D0000E94CE250E944927BE016F5F7F4F0E942A
:1052E000812689810F90DF91CF9108952FB7FC011E
:1052F0002083F89467706093E9000895CF93DF935B
:105300001F92CDB7DEB7682FCE0101960E94762995
:105310008091F20099819FBF0F90DF91CF91089506
:10532000EF92FF920F931F93CF93DF931F92CDB70E
:10533000DEB79091C004992371F157FD2CC08A010A
:105340007B01682FCE0101960E9476298091F200A0
:1053500090E0081719070CF4C801282FF70144E65C
:10536000215030F04093C1043091F1003193F8CFD7
:10537000009739F02091F200211103C02BE6209311
:10538000E80029812FBF0F90DF91CF911F910F91DE
:10539000FF90EF9008958FEF9FEFF5CFCF93DF93BE
:1053A0001F92CDB7DEB741E050E0BE016F5F7F4F87
:1053B0000E949029019731F4898190E00F90DF914C
:1053C000CF9108958FEF9FEFF9CFCF93DF931F9287
:1053D000CDB7DEB7682FCE0101960E947629909155
:1053E000E800892F807295FF04C09091F20080E45C
:1053F000891B99819FBF0F90DF91CF9108955F9294
:105400006F927F928F929F92AF92BF92CF92DF92D4
:10541000EF92FF920F931F93CF93DF931F92CDB71D
:10542000DEB7982E6B01B42E052F8091C004811138
:1054300013C08FEF9FEF0F90DF91CF911F910F91CE
:10544000FF90EF90DF90CF90BF90AF909F908F90A4
:105450007F906F905F9008958091BE0480FF05C09B
:105460008091E00082608093E000EB2CF02EA12C74
:105470008AEF882E892D8072682E892D8074582E8F
:105480009AE3792EE114F10419F4AA2009F457C023
:10549000892D0E94E529182F81110AC08A9488203D
:1054A00041F261E070E080E090E00E94F403EACF16
:1054B0008E151F0411F00CF01E2D692DCE010196E2
:1054C0000E9476298091E80085FD03C089818FBF05
:1054D000D9CF812F90E0E81AF90A662029F01150FF
:1054E000A0F01092F100FBCFF60197FC0AC011501A
:1054F00050F021912093F100FACF24912093F100F4
:1055000031961150D0F7C80ED91EAA2021F0709202
:10551000E800A12CDBCF8091E80085FD08C07092E7
:10552000E800AA24A394E114F10481F2F2CFE1147B
:10553000F10461F6552051F27092E800C7CF84E67D
:105540008093C2048B2D902F76CF1092E900109299
:10555000BD041092BC049093BB048093BA040895D8
:10556000DF92EF92FF920F931F93CF93DF93D82E8A
:105570008A01EB017B01E40EF51ECE15DF0559F023
:10558000D7FE12C0FE0184910E94DC282196811171
:10559000F4CF0FEF1FEFC801DF91CF911F910F9153
:1055A000FF90EF90DF9008958881EECFCF93DF9347
:1055B000EC019B01B4E6ABEF21153105F1F0A90137
:1055C0002134310514F040E450E08091E80082FF7E
:1055D000FCCF942FFB01E21BF30BEC0FFD1F91504E
:1055E00028F08091F10080833196F9CFB093C10407
:1055F000A093E800241B350BDFCFCB01DF91CF91C7
:1056000008951F920F920FB60F921124CF92DF923E
:10561000FF920F931F932F933F934F935F936F933B
:105620007F938F939F93AF93BF93EF93FF93CF930A
:10563000DF93CDB7DEB76C97DEBFCDBF1092E90028
:105640008091E80083FF2FC089E0FE017596FE2E51
:105650000F2F815029F09091F10090833196F9CF6E
:1056600084E68093C10482EF8093E8008D8987FFF0
:1056700038C09091E80090FFFCCF982F907609F009
:1056800000C19E894F89588D2F89188D911130C086
:10569000803859F58091BF048093F1001092F10099
:1056A0008EEF8093E8006C960FB6F894DEBF0FBEC5
:1056B000CDBFDF91CF91FF91EF91BF91AF919F91BE
:1056C0008F917F916F915F914F913F912F911F919A
:1056D0000F91FF90DF90CF900F900FBE0F901F9013
:1056E00018959EEF9093E800C8CF1092F100D6CFA6
:1056F000913059F48111D4CF4130510589F6809110
:10570000BF048D7F8093BF04CBCF933049F48111C8
:10571000C7CF4130510521F68091BF048260F2CF9E
:10572000953041F48091E80080FFFCCF2068209301
:10573000E300B6CF963009F076C0CB8CDC8C12300B
:1057400039F590E080E00E94A52A0E9460291F821E
:1057500099E099831A8391E09E8390EA98879AEF63
:1057600099872091BC043091BD04275F3F4F3C8353
:105770002B838D83C6010E94A52A49E050E0BE011B
:105780006F5F7F4F80E00E94B02A0E94602988CF1F
:10579000C6010E94A52A0E9449276F2D702F0E94E2
:1057A000A926009731F00CF07BCF81E28093EB00CB
:1057B0007ACF113061F11330C1F78F89882381F1DD
:1057C000823049F440E86AE08DED95E00E940A29B4
:1057D000882359F365CF813029F440E86AE082EDEF
:1057E00095E0F4CF833009F70E9449278E010F5FBF
:1057F0001F4FB8010E94C826F80101900020E9F768
:105800003197BF01601B710B40E0C801DFCF60EC36
:1058100075E0FB01449150E080E80E94B02A40CF3F
:1058200068EE75E0F6CF973009F4BFCF983021F4D9
:1058300081E08093F10034CF993009F031CF83704B
:1058400009F0B3CFE5E4F1E081E031E096E32191A6
:10585000222371F08093E9003093EB00DF01119770
:105860002C912093EC009093ED008F5F873079F7B7
:105870008EE78093EA001092EA008F898093C0043B
:105880000FCF8B8D9C8D0E94A52A898D811105C01B
:105890008F2D902F0E94D9259BCF0E9449276F2DD5
:1058A000702F0E94E72694CF8093E9008091F20048
:1058B000882319F08AE38093E80008951F920F92DD
:1058C0000FB60F9211242F933F934F935F936F93D3
:1058D0007F938F939F93AF93BF93CF93EF93FF9358
:1058E000C091E1008091E100837F8093E100C3FFDC
:1058F0000FC01092E90081E08093EB001092EC0061
:1059000082E38093ED001092C00488E08093F00061
:10591000C2FF15C083E00E94542C8091C2048823EA
:1059200029F08091C20481508093C2048091C10407
:10593000882329F08091C10481508093C104C4FF61
:1059400023C08091E2008E7E81608093E20080918E
:10595000E1008F7E8093E1008091BE048E7E8061A5
:105960008093BE04FF91EF91CF91BF91AF919F9132
:105970008F917F916F915F914F913F912F910F90F8
:105980000FBE0F901F901895C0FFECCF8091E200E2
:105990008E7E80618093E2008091E1008E7E809314
:1059A000E1008091BE048E7E8160DACF1092C00447
:1059B0001092BF041092BE040E943D29E1EEF0E077
:1059C00080818E7E80838DE08093E200559A209ABC
:1059D00008958091E0008D7F8093E0008091E00049
:1059E00081FD11C08091BE0480FF0DC08091BF0475
:1059F00081FF09C00E943D298091E0008260809370
:105A0000E00081E0089580E00895089510926C050B
:105A100010926D050895CF93DF93CDB7DEB76997E8
:105A20000FB6F894DEBF0FBECDBFFC01DB018C9139
:105A30008F5F8C939E012D5F3F4F8DE0D9011D92AA
:105A40008A95E9F729E0298384E08A8391E09D83A0
:105A500083E08E832A8721E22B879C879D879F87FF
:105A600022E2288B27E02B8B25E02C8B8E8B20E4E9
:105A700030E0388F2F8B998F82818B839585868537
:105A8000998B8A8B838180688D8B49E150E0BE01C0
:105A90006F5F7F4F80E00E94B02A69960FB6F8943E
:105AA000DEBF0FBECDBFDF91CF910895EF92FF9281
:105AB0000F931F93CF93DF93FB0120812138A1F532
:105AC0002381223289F5DC0112964C9124813581A3
:105AD0004217130649F5EC0181E00E94B92F0B85AE
