:100000000C94F0020C9418030C9418030C9418032D
:100010000C9418030C9418030C9418030C941803F4
:100020000C9418030C9418030C942C280C94CF26D1
:100030000C9418030C9418030C9418030C941803D4
:100040000C9418030C9418030C9418030C941803C4
:100050000C9456090C9418030C9418030C94262045
:100060000C9418030C9418030C9418030C941803A4
:100070000C9418030C9418030C9418030C94180394
:100080000C9418030C9418030C9418030C94180384
:100090000C9418030C9418030C9418030C94180374
:1000A0000C9418030C9418030C9418032E004C00A5
:1000B0002A00E10047C900001E00140004001D00D2
:1000C00034004D001F001A0016001B00E1022A0038
:1000D000200008000700060050002C002100150039
:1000E000090019004F004A00220017000A0005000D
:1000F000000076C2500001440000E30B0000E30062
:100100004F0001440000E2090000E20023001C004F
:100110000B00110000003AC0240018000D00100070
:1001200052004B0025000C000E0036005100280044
:10013000260012000F0037002F002B0027001300AD
:1001400045CA380030004E002D00310045C3E5009F
:100150002B4400002900000000000000FFFF000009
:100160003A001E0820082208000000003B001F087B
:1001700021082308000000003C002F0826082F005B
:10018000000000003D00300827083000000000009B
:100190003E00310835003508000000000000FFFF78
:1001A00000000000000000000000FFFF0000000051
:1001B000000000003F005200510024080000000031
:1001C0004000240021001E00000000004100250026
:1001D00022001F00370000004200260023002000FC
:1001E0002700000043002508000031002E00000019
:1001F0004400450000000000FFFF00000000000078
:1002000000000000000000000000000000000000EE
:10021000000000000000000004500000000000008A
:10022000000001500250000041500000000000009A
:1002300008500000425000000000000000000000D4
:1002400000000000000000000000000000000000AE
:10025000000000000000000000000000000000009E
:10026000000000000000000000000000000000008E
:10027000E9480000000000000000B648EA4800001D
:10028000000000000000B548E24800000000000047
:10029000FFFF00000000000000000000CD4800004B
:1002A0000000000005010906A101050719E029E782
:1002B00015002501750195088102950175088101D8
:1002C0009505750105081901290591029501750328
:1002D000910195067508150025FF0507190029FFEE
:1002E0008100C0050C0901A1018504150026FF034A
:1002F00019002AFF03950475108100C00501090645
:10030000A1018508050719E029E7150025017501F8
:1003100095088102050819012908950875019102BF
:100320000507750495018101190429DD15002501D2
:10033000750195D98102750395018101C0050109F7
:1003400080A1018505150026FF00190029FF9501F0
:1003500075088100C0656570726F6D2E6672656587
:1003600000656570726F6D2E636F6E74656E747369
:1003700000656570726F6D2E636F6E74656E747359
:100380000A656570726F6D2E66726565002F006379
:1003900072630076657273696F6E0076616C696472
:1003A0003F0064656661756C744C617965720073B9
:1003B000657474696E67732E0073657474696E6713
:1003C000732E64656661756C744C617965720A732D
:1003D000657474696E67732E76616C69643F0A7325
:1003E000657474696E67732E76657273696F6E0AD1
:1003F00073657474696E67732E63726300637573DB
:10040000746F6D0064656661756C74006F6E6C79F5
:10041000437573746F6D006B65796D61702E006B41
:1004200065796D61702E637573746F6D0A6B657994
:100430006D61702E64656661756C740A6B65796DAB
:1004400061702E6F6E6C79437573746F6D004545E6
:1004500050524F4D4B65796D61700066616C7365EC
:10046000007472756500706C7567696E73006865FD
:100470006C700A706C7567696E730068656C7000EB
:100480000D0A2E004D6F7573654B657973006573AA
:10049000636170655F6F6E6573686F742E63616E04
:1004A00063656C5F6B6579006573636170655F6F31
:1004B0006E6573686F742E63616E63656C5F6B65E8
:1004C00079004573636170654F6E6553686F7400A2
:1004D0004F6E6553686F740051756B657973005387
:1004E00070616365436164657400080B0002020279
:1004F00000000904000001020200000524001001B0
:100500000524010101042402060524060001070553
:10051000810310004009040100020A0000000705E1
:1005200002024000000705830240000012010002A1
:10053000EF020140EDFE07130001010203014572C5
:10054000676F446F7820455A004572676F446F7833
:1005500020455A000403090405010902A10185018F
:100560000509190129081500250195087501810261
:1005700005010930093109381581257F7508950372
:100580008106050C0A38021581257F7508950181C1
:1005900006C005010902A101050919012908150074
:1005A0002501950875018102050109300931160000
:1005B0000026FF7F75109502810209381581257F7D
:1005C000750895018106C000F208020BFE0D970E1A
:1005D0008B0FEA0F4712181E22203A22D3288F2BA6
:1005E00011241FBECFEFDAE0DEBFCDBF11E0A0E0E7
:1005F000B1E0EEEEF8E502C005900D92AE39B1071C
:10060000D9F725E0AEE9B1E001C01D92AE36B207E0
:10061000E1F712E0C0EFD2E004C02197FE010E9492
:10062000112CC43ED107C9F70E941B030C94752CF2
:100630000C94000008950E94DA200E941A038BE6B1
:1006400094E00E94A4280E942104C0E0D0E00E940F
:100650002F042097E1F30E940000F9CF08958AE06B
:10066000E9E4F1E0DB0101900D928A95E1F78AE07F
:10067000089588E493E00E94861280EA93E00E9445
:10068000DF1A86ED93E00E948A1E85E893E00E94BF
:10069000F8188EE693E00E94501481E893E00C94E1
:1006A00096178FE393E00E94131088E493E00E9472
:1006B0007B128EE693E00E945E1481E893E00C9436
:1006C0005D178FE393E00E941C1190E080E0089595
:1006D00090E080E00895CF93DF93EC01BC0180EAC5
:1006E00093E00E94641D009739F4BE0186ED93E00B
:1006F000DF91CF910C94A11FDF91CF910895CF93FB
:10070000DF93EC01BC0185E893E00E941719009784
:1007100071F4BE018EE693E00E949715009739F4BC
:10072000BE0184E893E0DF91CF910C94EC17DF9148
:10073000CF91089590E080E00895CF93DF93EC018E
:10074000BC0188E493E00E9410130097E1F4BE011D
:100750008DE493E00E94D0130097A9F4BE018DE3CD
:1007600093E00E949E11009771F4BE018EE393E026
:100770000E942511009739F4BE0181E893E0DF91D2
:10078000CF910C94A417DF91CF91089590E080E071
:10079000089590E080E0089590E080E00895BC0125
:1007A00085E893E00E94DD1A90E080E008958DE4F2
:1007B00093E00E94061480EA93E00E94D71D86ED24
:1007C00093E00E943D1F85E893E00E944F1A8EE659
:1007D00093E00E948F1490E080E00895CF93C0E0F2
:1007E00040E06C2F87E192E00E94EB0ACF5FC430BB
:1007F000B9F7C1E041E06C2F87E192E00E94EB0A7B
:100800002FEF80E792E0215080409040E1F700C058
:100810000000CF5FC43071F7C1E040E06C2F87E18A
:1008200092E00E94EB0A2FEF80E792E02150804097
:100830009040E1F700C00000CF5FC43071F7CF9166
:10084000089580915401909155010E94F10485E032
:100850000E94A11281E0809302040C94EE03809127
:100860005401909155010C940F0589EA92E00E9481
:10087000420D811104C089EA92E00C94450D86EE88
:1008800092E00E94C70E88EC92E00C946F0E89EA09
:1008900092E00E94420D811104C089EA92E00C941A
:1008A000E00D86EE92E00E947B0F88EC92E00C94C3
:1008B0005C0ECF93C82F89EA92E00E94420D6C2F04
:1008C000811105C089EA92E0CF910C94810D86EEEA
:1008D00092E0CF910C942B0FCF93C82F83FF03C0CE
:1008E00081EE0E945904C0FF03C080EE0E945904AB
:1008F000C1FF03C082EE0E945904C2FF03C086EE0E
:100900000E945904C4FF04C083EECF910C94590493
:10091000CF910895CF93C82F892F0E946C048C2FFC
:10092000CF910C945904CF93C82F89EA92E00E948A
:10093000420D6C2F811105C089EA92E0CF910C9491
:10094000A80D86EE92E0CF910C94520FFC0190819D
:10095000DB018C91981305C081E0218111969C9157
:10096000291380E008951F93CF93DF9300D000D028
:10097000CDB7DEB7182F843568F5E82FF0E0EE0F1D
:10098000FF1FEA58FB4F808191819C838B838FEFFF
:1009900089838A83BE016F5F7F4FCE0103960E94D9
:1009A000A604882369F0A12FB0E0AC55BE4FE091BA
:1009B0000201F0910301612F8C9109958B839C8337
:1009C0008B819C810F900F900F900F90DF91CF91B2
:1009D0001F91089510921E0510921F05EEE1F5E09B
:1009E000D2CF40E855E260E070E08EE094E00E94F3
:1009F00034220E942E030E94510387E192E00E945C
:100A00000509E6E7F4E085E59FEF815021F090834A
:100A100091833296FACF83EA91E00C9400080E9409
:100A2000702060939F017093A0018093A101909327
:100A3000A2010E9461030E94C9030E94350487E15C
:100A400092E00E94DA0A0C94D7031F93CF93DF93AE
:100A5000C62F172F862F972F0E949A03029709F10E
:100A6000812F807C61F480E28C0F883008F010E0E8
:100A70008C2F912FDF91CF911F910C948A04812F9D
:100A8000887C883471F4612F70E0762F66276C0FB4
:100A9000711D737088EC92E0DF91CF911F910C94DF
:100AA000470EDF91CF911F910895AF92BF92CF92E1
:100AB000DF92EF92FF920F931F93CF93DF9300D0BB
:100AC00000D000D0CDB7DEB75C016B010E944704B7
:100AD00010E000E0EE24EA94F02E0435110509F44C
:100AE0005FC0F6018081801709F445C0F3E5F01777
:100AF00008F444C0F801EE0FFF1FEA58FB4F808155
:100B000091819E838D83EB82EC82BE016D5F7F4F6E
:100B1000CE0105960E94A60481112DC019821A8269
:100B2000BE016F5F7F4FCE0105960E94A604811122
:100B300022C043E06F2DCE0105960E946803029704
:100B4000D1F0F60180818F1111C0818181FF1DC01C
:100B500080FD1BC0F3E5FF1548F08E81F801EE0F14
:100B6000FF1FEA58FB4F9D81908381836D817E81B9
:100B7000C5010E9425050F5F1F4FAECF10921E05C5
:100B800010921F05EEE1F5E0BACF83E58F1570F303
:100B9000F801EE0FFF1FEA58FB4FE082E182E6CF3B
:100BA00026960FB6F894DEBF0FBECDBFDF91CF9172
:100BB0001F910F91FF90EF90DF90CF90BF90AF907B
:100BC0000895EF92FF920F931F93CF93DF938C01C1
:100BD000EB01898181FF43C080FD41C08B81807C16
:100BE000F1F5888180930101FA8089EA92E00E9400
:100BF000420D6F2D81112EC089EA92E00E94F10D05
:100C0000882301F1FB80EA80F3FE03C081EE0E949D
:100C10009304F0FE03C080EE0E949304F1FE03C033
:100C200082EE0E949304F2FE03C086EE0E949304BB
:100C3000F4FE03C083EE0E9493048E2D0E94930461
:100C40000E9435048B81882379F00E946C040E94F5
:100C500035040AC086EE92E00E94150FD1CFE091D4
:100C600001018881E81319C0898181FF07C080FDD7
:100C700005C06A817B81C8010E9425050E94C903C5
:100C8000CE010E94CC030297E9F0DF91CF911F9132
:100C90000F91FF90EF900C943504E43560F4F0E090
:100CA000EE0FFF1FEA58FB4F8181982F907CE1F6F1
:100CB0000E946C04D9CF10921E0510921F05EEE120
:100CC000F5E0F2CFDF91CF911F910F91FF90EF9060
:100CD0000895EF92FF921F93CF93DF93CDB7DEB7C6
:100CE0002D970FB6F894DEBF0FBECDBF7C012987CC
:100CF0003A874B875C876D87243548F430FF61C0A5
:100D000031FD5FC089850E94B3049C878B87CE012B
:100D100009960E947F038230910509F446C0E98557
:100D2000E43568F42A85F0E0EE0FFF1FEA58FB4F28
:100D300020FF54C021FD52C02FEF20832183892B37
:100D4000A1F51F821886BE01695F7F4FCE010B9609
:100D50000E94A604811129C01D821E82BE016B5F04
:100D60007F4FCE010B960E94A60481111EC01FEF7B
:100D70001B831C83BE016D5F7F4FCE010B960E94CB
:100D8000A604811112C019831A83BE016F5F7F4FC1
:100D9000CE010B960E94A604811107C08C85843475
:100DA00009F5CE0109960E9493082D960FB6F89486
:100DB000DEBF0FBECDBFDF91CF911F91FF90EF90AF
:100DC00008958FEF89838A83BE016F5F7F4FCE01C5
:100DD0000B960E94A604811195CF99CF2C853B8557
:100DE0003083ACCF8F7C8134B9F48A851B8581FF39
:100DF0000AC080FD08C0612F8EE293E00E94D20FEE
:100E000010931C02D2CF80911C028113CECF8EE2B0
:100E100093E00E94D00FC9CFBE01675F7F4FC7012B
:100E20000E9455054A856985CE010B960E9468038C
:100E30008230910509F4B9CF892B09F0B6CF1F8212
:100E40001886BE01695F7F4FCE010B960E94A604F3
:100E50008111ABCF1D821E82BE016B5F7F4FCE0121
:100E60000B960E94A6048111A0CF1FEF1B831C8349
:100E7000BE016D5F7F4FCE010B960E94A6048111CB
:100E800094CF19831A83BE016F5F7F4FCE010B96FB
:100E90000E94A604811189CFBE01675F7F4FC70101
:100EA0000E94E105CE0109960E94CF037ECFEF920A
:100EB000FF920F931F93CF93DF9300D000D000D009
:100EC0001F92CDB7DEB7022F2B833C834D835E8309
:100ED0006F83243508F042C07C01832F817031FF7D
:100EE00022C081113BC08FEF89838A83BE016F5F6F
:100EF0007F4FCE0105960E94A604882329F0802FFB
:100F00000E94B3049E838D83CE0103960E946B03DF
:100F1000892B21F52B813C814D815E816F81C70139
:100F20000E9469061BC08823C9F010E0000F111F42
:100F30000A581B4FF801808191819E838D8319820D
:100F40001A82BE016F5F7F4FCE0105960E94A604F4
:100F50008823D1F28FEFF8018083818327960FB623
:100F6000F894DEBF0FBECDBFDF91CF911F910F91DF
:100F7000FF90EF90089570E094E5899F600D711DDA
:100F80001124660F771FFB01E455FF4F8491FB018D
:100F9000E355FF4F94910895EF92FF920F931F93A3
:100FA000CF93DF93E4EAF1E084E5DF011D928A95B7
:100FB000E9F77F0110E01435E1F0C0910401D0E0C1
:100FC000C850DE4FB1E0C83FDB0771F00A91E091F5
:100FD0000201F0910301612F802F09958F3F11F4D9
:100FE0009F3F81F3F70100831F5FFFEFEF1AFF0AB6
:100FF000E2CFDF91CF911F910F91FF90EF90089575
:101000000C94CC0790910001891708F080E091E0E2
:10101000909304018093F8010E94CC070C94C603BE
:101020004091040150E090E0682F70E0292F092ED4
:10103000000C330B2417350764F428503E4FF90198
:101040002081022E000C330B2617370721F09F5FFB
:10105000EDCF80E0089581E00895CF939091000155
:101060008917A0F4C82F0E94100881110FC0E091C9
:10107000040181E08E0F80930401F0E0E850FE4F00
:10108000C0830E94CC07CF910C94C603CF910895E2
:10109000CF93DF93D82F0E941008882381F1C0914D
:1010A0000401C23028F480E0DF91CF910C94020853
:1010B000E8EFF1E090E080E02D2F30E04191042E48
:1010C000000C550BBC016F5F7F4F4217530799F41B
:1010D0004C2F50E0481B590B68507E4F88509E4F54
:1010E0000E944D2CC150C09304010E94CC07DF9197
:1010F000CF910C94C603CB016C1700F3F6CFDF91B0
:10110000CF910895E0910401F0E0E950FE4F808115
:101110008F5F0C942D08E0910401F0E0E950FE4F40
:1011200080810C944808CF93DF93FC01C2819181A8
:10113000292F2270C43558F0222309F450C090FDA5
:101140004EC08CEA8C0FDF91CF910C940208CA320A
:10115000C8F1D6EDDC0FD13251F0D23281F4222326
:1011600051F090FD08C0DF91CF910C9482082223AA
:10117000D1F390FDF8CFDF91CF910C948B08211122
:1011800010C0A6E7B4E085E58150B9F09C91C91381
:1011900006C011962C9111979381291701F112968F
:1011A000F3CF90FDEECF8D2F0E941008811117C054
:1011B0008D2FDF91CF910C942D088D2FDF91CF9142
:1011C0000C944808222359F090FD09C08C2F0E94EE
:1011D0001008882311F08C2FF1CF8C2FEACFDF91EC
:1011E000CF91089510921C02089589EA92E00E941E
:1011F000E70D86EE92E00E94810F88EC92E00E945B
:10120000950E8EE293E00C94CE0F0F931F93CF9325
:10121000DF930FB6F894A895809160008861809361
:101220006000109260000FBE64E670E080E090E025
:101230000E94A12000E810E089EAF8018083C1E85B
:10124000D0E089E0888324982C983F988AB18F7CDD
:101250008AB96E98479A8BB180638BB9769A84E984
:1012600092E00E94440B8FE090E09093890080937D
:10127000880090938B0080938A0090938D008093D8
:101280008C0080E18883F801108280E295E39093DE
:1012900087008093860081E1888381E080936F00DE
:1012A000DF91CF911F910F910C94F5081F920F922F
:1012B0000FB60F9211248F9381E0809305018F91D7
:1012C0000F900FBE0F901F901895CF92DF92EF9264
:1012D000FF920F931F93CF93DF931092050184E940
:1012E00092E00E94E40BC4E2D2E088E7C82E82E0DC
:1012F000D82EF12CE12CAEC08150888312E002E0A0
:1013000020E090E08981882321F081508983122F89
:10131000092F8A818111C7C01460012F8B8181112F
:10132000C8C01860012F8C818111BAC01061012FD3
:101330008D818111B2C01062012FB70184E992E062
:101340000E94A40BF6019081109519238023812B14
:10135000982790FF03C020910601288391FF03C0C6
:1013600020910601298392FF03C0209106012A8360
:1013700093FF03C0209106012B8394FF03C02091AB
:1013800006012C8395FF03C0909106019D83F60111
:1013900081936F01B701695F7F4F8AA5882309F4A4
:1013A00077C081508AA712E002E020E090E08BA590
:1013B000882321F081508BA7122F092F8CA5811132
:1013C00064C01460012F8DA581115CC01860012FCD
:1013D0008EA5811154C01061012F8FA581114CC0C1
:1013E0001062012F84E992E00E94A40BF60196811D
:1013F000109519238023812B982790FF03C02091FB
:1014000006012AA791FF03C0209106012BA792FF96
:1014100003C0209106012CA793FF03C02091060171
:101420002DA794FF03C0209106012EA795FF03C0AE
:10143000909106019FA7F6018683B70184E992E0A7
:101440000E948A0BFFEFEF1AFF0A269687E0E81644
:10145000F10491F1B70184E992E00E94610BB701B8
:1014600084E992E00E948A0B8881811145CF13E0C4
:1014700003E021E091E046CF81508FA7B3CF8150A8
:101480008EA7ABCF81508DA7A3CF81508CA79BCFC8
:1014900013E003E021E091E08ACF81508D834DCFAE
:1014A00081508C8345CF81508A838B81882309F4B6
:1014B00038CF81508B8337CFDF91CF911F910F9120
:1014C000FF90EF90DF90CF9008959F92AF92BF92E0
:1014D000CF92DF92EF92FF920F931F93CF93DF9300
:1014E00000D000D01F92CDB7DEB756E8E52E52E00F
:1014F000F52E68E7C62E62E0D62E74E9A72E72E0BC
:10150000B72E912C10E000E0F601208116C0323099
:1015100079F4609175046F5F60937504292D200F35
:101520004FEF5FEF8EE991E00E945707F6012081AF
:101530000F5F1F4F0630110501F1F701808190E028
:10154000002E02C0959587950A94E2F7382F3170E6
:10155000822F90E0002E02C0959587950A94E2F7BD
:10156000880F991F8270382B8111D1CF30FDD1CFD8
:101570000F5F1F4F0630110501F7F70121937F011F
:10158000F6E09F0E8FEFC81AD80AAE14BF0409F018
:10159000B9CF0F900F900F900F900F90DF91CF91D8
:1015A0001F910F91FF90EF90DF90CF90BF90AF9081
:1015B0009F900895CF93DF93EC01809105018823DC
:1015C00029F010920501CE010E946509CE01DF913C
:1015D000CF910C94650A6C5F81E090E001C0880FA8
:1015E0006A95EAF794B1442331F0982B94B995B1F8
:1015F000892B85B908958095982394B995B189234D
:1016000085B9089580E2809394020895CF930E9453
:10161000230C68EE73E080E090E00E94A12080E45B
:101620000E94290CC82F81112AC080E00E94530C0F
:10163000C82F811124C080E00E94530CC82F811153
:101640001EC08FE30E94530CC82F811118C00E9446
:101650004B0C80E40E94290CC82F811110C08CE033
:101660000E94530CC82F81110AC080E00E94530CC5
:10167000C82F811104C08FE30E94530CC82F0E9411
:101680004B0C8C2FCF910895CF93DF93EC010E94E8
:10169000060B888380B38C7080BB81B3836F81BB62
:1016A00084B18F6084B985B18F6085B98AB18C604F
:1016B0008AB98BB18C608BB93E9A469ADF91CF91F3
:1016C00008951F93CF93DF93FC012081222321F003
:1016D000DF91CF911F910895162FEC0180E40E94B5
:1016E000290C8883882329F0DF91CF911F910C94D6
:1016F0004B0C82E10E94530C88838111F5CF81E06D
:1017000090E001C0880F1A95EAF780950E94530C6B
:101710008883EACFFB01EA5AFE4F8081E82FF0E090
:10172000F595E795F595E795F595E795F595E795A1
:1017300092A18F7021E030E001C0220F8A95EAF774
:10174000892F822782A308950F931F93CF93673029
:10175000710554F4FC01C081CC23A1F0C0E08C2FB2
:10176000CF911F910F9108958FB1CFB1C695C695B6
:10177000CC738370C82BC095CF738C2FCF911F91E2
:101780000F9108958C0180E40E94290CF801808358
:10179000882339F00E944B0C8C2FCF911F910F9111
:1017A000089583E10E94530CF80180838111F2CFE8
:1017B00081E40E94290CF80180838111EBCF0E9403
:1017C000640CC82FC095E6CF0F931F93CF93DF9380
:1017D000EC018091950281110DC00E9470206093F0
:1017E0009D0270939E0280939F029093A00281E0DD
:1017F000809395028881882309F10E9470200091CE
:101800009D0210919E0220919F023091A002601BC8
:10181000710B820B930B683873418105910570F051
:10182000CE010E94060B88830E94702060939D0267
:1018300070939E0280939F029093A002DF91CF91BC
:101840001F910F9108951092B9008AE08093B8001B
:10185000089594EA9093BC009091BC0097FFFCCF50
:101860009091B900987F983021F0903111F081E08B
:1018700008958093BB0084E88093BC008091BC00F5
:1018800087FFFCCF8091B900887F883111F08034C8
:1018900071F780E0089584E98093BC008091BC00DA
:1018A00084FDFCCF08958093BB0084E88093BC0046
:1018B0008091BC0087FFFCCF9091B900987F81E0B8
:1018C000983209F480E0089584E88093BC00809108
:1018D000BC0087FFFCCF8091BB000895FC01828192
:1018E0008F5BFB01808381E00895CF93DF93CDB7B9
:1018F000DEB769970FB6F894DEBF0FBECDBFFC010F
:10190000DB019C919F5F9C939E012D5F3F4F81E186
:10191000D9011D928A95E9F729E0298384E08A8319
:1019200091E09D8383E08E839F8398872A8721E2BD
:101930002B879C879D879F8722E2288B2FE3298B0B
:1019400027E02B8B25E02C8B8E8B20E430E0388F2A
:101950002F8B998F82818B83838180688D8B49E166
:1019600050E0BE016F5F7F4F80E00E947E26699647
:101970000FB6F894DEBF0FBECDBFDF91CF910895B3
:10198000FC01DB018C918138A9F413968C9113979B
:10199000823281F4228114968D919C912817190628
:1019A00049F48285848F4FE350E064EA72E080E876
:1019B0000C947E2690E080E00895FC01DB012281FA
:1019C00014968D919C9115972817190681F51196FB
:1019D0008C9111979C91913A69F4813029F0833070
:1019E00029F4848D8093F10081E008958230F9F428
:1019F000858DF8CF9132D9F48B3021F412968C91E9
:101A0000848FF2CF8A3011F4158EEECF893079F4BD
:101A1000CF0116962D913C91179713964C91423019
:101A200041F461E070E04E962130310551F080E0E4
:101A300008954130E1F728303105C9F768E070E0DA
:101A40000B960E94A426D0CFCF93DF93EC0181E0C8
:101A50008C838D839E01255E3F4F3F832E831986A5
:101A6000188621E631E0398328838A876C8F8D8F31
:101A70001E8E81EC8B8F0E941723BE01DF91CF91C8
:101A80000C94D322FC01848D0895EF92FF920F9362
:101A90001F93CF93DF938C01EC012B967C0183E1A4
:101AA000E80EF11C48E050E0BE01C7010E94372C4F
:101AB000892B21F1F801838148E050E0BE01806468
:101AC0000E94CD258C01E0913B05F0913C053097BB
:101AD00031F09C0148E050E0BE0182E0099588E0C9
:101AE000FE01D70101900D928A95E1F7C801DF91BF
:101AF000CF911F910F91FF90EF9008950FEF1FEF7F
:101B0000F5CFFC0180E2860F883070F4605E770BC1
:101B100021E030E001C0220F6A95EAF78385822B2D
:101B2000838781E090E00895DF011D9690E080E0DA
:101B30002D912617B1F3211104C0E80FF91F658715
:101B4000F0CF01968630910599F790E080E00895F6
:101B5000CF93DF9320E2260F283090F4605E770B5E
:101B600021E030E001C0220F6A95EAF72095FC01E0
:101B700033852323238781E090E0DF91CF9108957F
:101B8000DC011D969C012D5E3F4FFD0141914613E6
:101B900003C0EF0121971882E217F307B9F720E09D
:101BA0003D91332349F0EC01C20FD11D4D853D8796
:101BB000ED01219748832F5FAE17BF0789F7DBCF71
:101BC0000B9628E0FC0111922A95E9F70895CF932E
:101BD000DF93EC010E94E00DCE01DF91CF910C94D8
:101BE000450DFC013D9643962191261729F0E817F3
:101BF000F907D1F780E0089581E008952091A102CE
:101C00003091A2024091A3025091A4026091A502DA
:101C10007091A6028091A7029091A802A1E00E9473
:101C2000F92B2093A1023093A2024093A302509378
:101C3000A4026093A5027093A6028093A7029093DA
:101C4000A8020E94052C29F461E089EA92E00C9434
:101C5000240D08958091D802811113C01092E102E1
:101C60001092E00283EE92E09093E3028093E2020E
:101C700089E190E09093E5028093E40281E0809313
:101C8000D8020E943A2A60EE72E00C94A729FC0167
:101C900030E020E041915191452B41F4220F331F58
:101CA000280F391FF9017183608308952F5F3F4F1B
:101CB0002430310579F7089528E0FC0111922A9526
:101CC000E9F70895CF93DF93EC010E943A2A28E0C8
:101CD00030E0AE0164E0DF91CF910C94F7290F93CF
:101CE0001F93CF93DF93EC018C01085F1F4F48E0F7
:101CF00050E0BC01C8010E94372C892B51F0CE0165
:101D00000E94620E88E0FE01D80101900D928A9532
:101D1000E1F7DF91CF911F910F91089528E0FC0129
:101D200011922A95E9F70C946F0E0C948E0E88ECA4
:101D300092E00C942A0E80912003811113C010921E
:101D40002903109228038CEF92E090932B03809349
:101D50002A0381E490E090932D0380932C0381E08B
:101D6000809320030E943A2A68E273E00C94A7292A
:101D7000CF93DF93EC010E943A2AAE01435E5F4F9E
:101D80002DE130E068E0DF91CF910C94F729EF92DC
:101D9000FF920F931F93CF93DF93EC01F8808D8D0B
:101DA0008E010F5F1F4F8F15D9F0F801AE01435E12
:101DB0005F4F20E0858D30813196932F9095982349
:101DC00019F08323848F21E0E417F50799F7222384
:101DD00019F0CE010E94B80EFD8ECE010E94B80E01
:101DE0007E018EE1E80EF11C4CE150E0B801C70124
:101DF0000E94372C892B81F08CE1F801D7010190EA
:101E00000D928A95E1F7CE01DF91CF911F910F914D
:101E1000FF90EF900C94B80E8FEF9FEFDF91CF9172
:101E20001F910F91FF90EF9008956E3D90F4E62F73
:101E3000E695E695E695E80FF92FF11D677021E02C
:101E400030E001C0220F6A95EAF79181922381E088
:101E500009F480E008956E3DA0F4E62FE695E6953E
:101E6000E695E80FF92FF11D677021E030E001C021
:101E7000220F6A95EAF78181822B818381E090E0CD
:101E80000895605E683058F441E050E001C0440FAE
:101E90006A95EAF7FC012081242B2083EFCF90E0A4
:101EA00080E008956E3DA8F4E62FE695E695E69568
:101EB000E80FF92FF11D677021E030E001C0220F1B
:101EC0006A95EAF7209581812823218381E090E0BB
:101ED0000895605E683060F421E030E001C0220FB8
:101EE0006A95EAF72095FC01308123232083EECF09
:101EF00090E080E008952DE1FC0111922A95E9F728
:101F00000895CF93DF93EC010E947B0FCE01DF9108
:101F1000CF910C94B80E86EE92E00C949B0E8091BB
:101F20002F03811113C010923803109237038DE3F1
:101F300093E090933A038093390388E190E0909383
:101F40003C0380933B0381E080932F030E943A2A55
:101F500067E373E00C94A7290F931F93CF93DF934C
:101F6000EB018A010E943A2A9801AE0165E0DF91F7
:101F7000CF911F910F910C94F729CF93DF931F926C
:101F8000CDB7DEB7198241E050E0BE016F5F7F4FF1
:101F90000E94AC0F0F90DF91CF9108950C94BD0F6C
:101FA0000C94BD0FCF93DF931F92CDB7DEB769833B
:101FB000633841F48BE694E00E94B7280F90DF91DC
:101FC000CF91089541E050E0BE016F5F7F4F0E94C6
:101FD000AC0FF4CF8EE293E00C948F0F4AE050E008
:101FE000682F8EE094E00E94D42360E28EE094E0BB
:101FF0000C945E23FF920F931F93CF93DF93EC011A
:10200000F62E08811981C8010E945F2CF81621F074
:102010006F2DC8010E94672CCE01DF91CF911F91D7
:102020000F91FF900895EF92FF920F931F93CF931C
:10203000DF9300D0CDB7DEB790E080E00E945F2C48
:10204000182F8093420381E090E00E945F2C082FBC
:102050008093430382E090E00E945F2C80934403CE
:1020600083E090E00E945F2C809345030F3FF1F4E2
:10207000812F8F778F3719F417FD1092420381E07B
:102080008093430382E4E82E83E0F82E10E000E022
:102090001A830983F70161917F01CE0101960E94A5
:1020A000FA0F0F5F1F4F0430110591F790E080E0A9
:1020B0000F900F90DF91CF911F910F91FF90EF90B4
:1020C000089580914003882329F0809144039091E2
:1020D0004503089590E080E008950F931F93CF93F8
:1020E000DF9300D0CDB7DEB79A8389838091400318
:1020F00010E000E0811114C0009107011091080167
:1021000089819A81800F911F909308018093070124
:1021100042E0BE016F5F7F4F86E493E00E9422128F
:10212000C8010F900F90DF91CF911F910F910895EB
:10213000EF92FF920F931F93CF93DF9300D0CDB711
:10214000DEB782E4E82E83E0F82E10E000E01A8388
:102150000983F70161917F01CE0101960E94FA0F78
:102160000F5F1F4F0430110591F781E08093410309
:102170000F900F90DF91CF911F910F91FF90EF90F3
:102180000895CF93C82F80910001C81758F48C2F61
:102190000E9402088091420380789C2F9F77892BB0
:1021A00080934203CE3730F08091420380788E676F
:1021B000809342030E949810809142038F77CF91C1
:1021C00008959091420380FB97F990934203892FE1
:1021D0008F778F3721F490789E67909342030C9409
:1021E000981081E08093400360E186E493E00E94D0
:1021F000091280914303813019F010924103089530
:102200002091440330914503809146039091470308
:102210002F3F320769F490934503809344030E9453
:102220009810809142038F778E3728F40C9402081F
:1022300028173907B1F3089580914003811102C036
:102240000E94F11090E080E00895CF93DF93EB01BE
:1022500049EB53E08DE493E00E94BB1381116BC006
:1022600049E050E06FEA73E0CE010E94292C892BEF
:1022700009F061C0299662EA73E0CE010E94202C29
:10228000892B59F48EE094E00E9446210A9709F0C8
:1022900047C0809142038F7736C06BE973E0CE016F
:1022A0000E94202C892B91F163E973E0CE010E94FA
:1022B000202C892B31F16FE873E0CE010E94202C95
:1022C000892BC9F50E946110EC0160914603709161
:1022D00047034AE050E08EE094E00E94DB236DE883
:1022E00073E08EE094E00E943A234AE050E0BE01A1
:1022F0008EE094E00E94DB2381E090E0DF91CF91BB
:102300000895809143030E94EE0FF6CF8091410320
:102310000E94EA1360E28EE094E00E945E23ECCF1C
:1023200041E070E060E08EE094E00E944924862F56
:102330000E94C110E1CF90E080E0E0CF0F931F93A7
:10234000CF93DF9300D0CDB7DEB78B0141E753E0E9
:102350008DE493E00E94BB13811158C061E673E0E5
:10236000C8010E94202C892B11F58EE094E00E9478
:10237000462110E000E00A97E9F18EE094E00E9427
:1023800046210A9771F141E070E060E08EE094E050
:102390000E9449241A830983CE0101960E94FA0FF4
:1023A0000F5F1F4F011584E0180739F71AC065E564
:1023B00073E0C8010E94202C892B41F58091070110
:1023C0009091080160E074E0681B790B4AE050E0EE
:1023D0008EE094E00E94DB2360E28EE094E00E94B5
:1023E0005E2381E090E00F900F90DF91CF911F91DD
:1023F0000F910895C8010E945F2C0E94EE0F0F5F9D
:102400001F4F011584E01807A9F7EBCF90E080E09B
:10241000EACFFC01208131812170332781E08617CA
:1024200070F4408151815695479551834083220F26
:10243000331F41705527242B352B8F5FF0CF31830D
:1024400020830895DC01FB01415000F181912D9121
:102450003C91119768E070E051E0982F952399F432
:10246000932F991F9927991F220F331F992319F032
:1024700095E029273058550F6150710971F7119671
:102480003C932E93E1CF932F9095EBCF089510922C
:1024900047031092460308951F93CF93DF939091C3
:1024A0004A03891730F080E090E0DF91CF911F91CF
:1024B0000895C62FD0E094E5899FC00DD11D112449
:1024C000CC0FDD1F60914B0370914C03C60FD71FDB
:1024D000CE010E945F2C182FCE0101960E945F2C26
:1024E000912FE3CF90914903891710F40C94BB0707
:1024F000891B0C944C128FE393E00E94131080917F
:1025000000018093490390E080E008956EE474E058
:102510008EE094E00E943A236AE08EE094E00E940C
:102520005E2390E080E0089580934A0328EA829F2A
:10253000C00111240E946D1090934C0380934B03B3
:10254000089580930001909142032CE432E197FDBD
:1025500007C090914903980F9093000122E732E160
:1025600030930301209302010C949412FF920F9375
:102570001F93CF93DF9300D0CDB7DEB7F62E672F32
:102580008C01000F111F80914B0390914C03800F21
:10259000911F9A838983CE0101960E94FA0F809140
:1025A0004B0390914C030196800F911F9A8389836E
:1025B0006F2DCE0101960E94FA0F0F900F90DF91C0
:1025C000CF911F910F91FF900895FF920F931F934A
:1025D000CF93DF93F82E8B01C0E0CF15D9F0D0E078
:1025E0006D2F8C2FF8010995692F70E0762F6627E3
:1025F000680F711D4AE050E08EE094E00E94DB23FA
:1026000060E28EE094E00E945E23DF5FD43541F704
:10261000CF5FE3CFDF91CF911F910F91FF9008958E
:10262000FF920F931F93CF93DF931F92CDB7DEB727
:102630008B014FE154E08DE493E00E94BB138111C4
:1026400091C047E050E067E174E0C8010E94292C86
:10265000892B09F087C0095F1F4F6CE074E0C80147
:102660000E94202C892BD1F58EE094E00E94462117
:102670000A9799F46091420367FB662760F94AE084
:1026800050E08EE094E00E94D42360E28EE094E07B
:102690000E945E2381E090E067C041E070E060E06E
:1026A0008EE094E00E944924162F6983862F0E94B1
:1026B000E11090914A0390930001112339F08CE4CA
:1026C00092E19093030180930201E4CF809149034A
:1026D000890F8093000182E792E1F3CF64E074E018
:1026E000C8010E94202C892B39F46BEB77E0809194
:1026F00049030E94E512CECF6DEF73E0C8010E943E
:10270000202C892B79F58EE094E00E9446210A97CF
:1027100029F46CE472E180914A03EBCF10E000E011
:1027200094E5F92E8EE094E00E9446210A9709F480
:10273000B1CF80914A038F9DC0011124081719075A
:1027400008F0A8CF41E070E060E08EE094E00E94E5
:102750004924272F3327722FC8010E94B6120F5F1A
:102760001F4FE0CF90E080E00F90DF91CF911F915D
:102770000F91FF900895CF93DF93CB01EA016BE7B0
:1027800074E00E94202C892B49F4BE018EE094E075
:102790000E94692381E0DF91CF91089580E0FBCF13
:1027A000CF93DF93EB014EE654E00E94BB138111FF
:1027B0000EC066E674E0CE010E94202C892B39F40D
:1027C0000E94390381E090E0DF91CF91089590E07D
:1027D00080E0FACF6BE574E0882311F061E674E0E5
:1027E0008EE094E00C943A238EE094E00E945F2106
:1027F000892B59F08EE094E00E9446210A9729F037
:102800008EE094E00E946F21F5CF08950F931F93FF
:10281000CF938EE094E00E945F21892BB9F10EE402
:1028200013E0C0E08EE094E00E946F21CF5FF801DA
:1028300081938F018EE094E00E9446210A9739F03F
:10284000F80131978081803211F0C03259F78C2F16
:1028500090E0FC01E35BFC4F20812032E9F4108220
:102860008EE493E00E949D0360E874E08EE094E0C3
:102870000E9469230E94F4138EE094E00E94462196
:102880000A9721F48EE094E00E946F2190E080E0AE
:10289000CF911F910F910895825B9C4FFC01DFCF78
:1028A00064E874E08EE094E00E943A236AE08EE0EF
:1028B00094E00E945E2390E080E00895CF93DF9340
:1028C00000D000D000D0CDB7DEB78DE395E00E94F8
:1028D0009A2AEAE5F5E0108A86859785248535856C
:1028E00019823B832A839D838C831E820284F38515
:1028F000E02D0190F081E02D46E050E0BE016F5FD9
:102900007F4F84E695E0099590E080E026960FB62B
:10291000F894DEBF0FBECDBFDF91CF9108950F9326
:1029200080919F019091A0012091710330917203D9
:10293000AC01421B530B9A0140910C0150910D01C7
:102940002417350790F090937203809371032091C0
:10295000770330910E014FEF50E0431B51092417CC
:1029600015061CF4230F20937703209173033091F5
:102970007403AC01421B530B9A0140910F0150911B
:10298000100124173507C0F09093740380937303EC
:10299000E6E7F4E085E590E0815051F02081318157
:1029A000303521F4322F307709F4922B3296F4CF60
:1029B00091112BC01092770380919F019091A001FB
:1029C00020916F0330917003AC01421B530B9A01AD
:1029D0004091090150910A012417350708F44FC0AE
:1029E0009093700380936F03E6E7F4E095E580E051
:1029F000915031F120813181303529F4322F3077F7
:102A0000303109F4822B3296F3CF809111018195F8
:102A100092FF80E093FF03C020911101820F60912B
:102A20001101619590FF60E091FF03C09091110149
:102A3000690F0E94C8168DE395E00E94682ABCCFFA
:102A40008823E9F000910B01019582FF00E083FFEC
:102A500003C090910B01090F20910B0180FF20E032
:102A600081FF03C080910B01281B40E060E08DE3F3
:102A700095E00E94482A8DE395E00E94682A90E044
:102A800080E00F910895CF93DF93EB018DE395E004
:102A90000E94502A90E080E060E084359105E1F0EA
:102AA0003881831781F0843580F4FC01EE0FFF1F1D
:102AB000EA58FB4F2181203531F42081322F3076C6
:102AC000303409F4622B0196E8CF10921E05109263
:102AD0001F05EEE1F5E0EECF898181FF04C080FDA6
:102AE00002C08A81682B6F7B8DE395E00E94562A95
:102AF0008DE395E0DF91CF910C94682AFB019281E0
:102B000096FB222720F980E090FD82E0822B20E0D6
:102B100091FD24E0822B20E092FD28E0822B93FDA2
:102B200004C090E0892B0C94261690E1FBCFFB01AA
:102B30002381203509F03EC09C019281892F807647
:102B4000803431F4C9010E94431581E090E008957A
:102B500095FF09C0818181FFF8CF80FDF6CFC901C3
:102B60000E947E15F2CF9077A1F480919F01909101
:102B7000A00120910F0130911001AC01421B530BB9
:102B80005093740340937303909372038093710383
:102B9000DCCF9031D1F680919F019091A0012091DE
:102BA000090130910A01821B930B9093700380936B
:102BB0006F03CBCF90E080E00895CF93DF9300D0F8
:102BC00000D000D0CDB7DEB736952795820F931F82
:102BD00056954795640F751FEAE5F5E0958784875C
:102BE00077876687208929839B838A837D836C838B
:102BF0001E820284F385E02D0190F081E02D46E0F5
:102C000050E0BE016F5F7F4F84E695E00995269600
:102C10000FB6F894DEBF0FBECDBFDF91CF91089500
:102C200010927A031092790310927C0310927B0326
:102C30008FEF9FE79093800380937F0390937E03B1
:102C400080937D0381E08093780308950F931F9311
:102C5000CF93C82F80917803811102C00E94101673
:102C6000C0FF06C010927803CF911F910F91089575
:102C7000E09114010E2F10E080917F03909180036A
:102C8000B8010E94952B9B017093800360937F0392
:102C900080917D0390917E03B8010E94952BAB013A
:102CA00070937E0360937D036C2F6470E0917B03CF
:102CB000F0917C038091790390917A037C2F767058
:102CC000763091F4820F931F90937A038093790367
:102CD000BA016E0F7F1F70937C0360937B03CF91CB
:102CE0001F910F910C94DD15662349F1D8011197BE
:102CF000A49FB001A59F700DB49F700D1124E60F25
:102D0000F71FF0937C03E0937B03C4FF1DC00150C9
:102D10001109029FB001039F700D129F700D1124C5
:102D2000860F971F90937A038093790360917B03BA
:102D300070917C038091790390917A03D0CFC1FD8B
:102D4000E4CFE40FF51FDDCFC3FDF0CF820F931F5B
:102D5000E9CF482F50E087FD0AC0889FC0011124A9
:102D6000880F892F881F990B91958F5F089520E018
:102D700031E0241B350B229FC001239F900D900D45
:102D80001124880F892F881F990B9195809508959C
:102D9000EF92FF920F931F93CF93DF93082F162F7D
:102DA000C0911301D0E0F12CE12C8823D1F0809167
:102DB00077030E94A91620917603382F0303C001E0
:102DC0001124820F911D27FD9A957E01C817D907FE
:102DD00044F0EE24FF24EC1AFD0AE816F9060CF480
:102DE0007C01112309F442C0809177030E94A91647
:102DF00020917503382F1303C0011124820F911DF8
:102E000027FD9A95C817D9073CF0D195C195D109EE
:102E1000C817D9070CF4EC01109278032091120125
:102E200030E0CE01B9010E94A92B462FC701B9019C
:102E30000E94A92B00E020E08DE395E00E94482A43
:102E40002091120130E0C701B9010E94A92B8093A3
:102E50007603CE01B9010E94A92B80937503DF91FF
:102E6000CF911F910F91FF90EF900895D0E0C0E0B7
:102E7000D3CFFF920F931F93CF93DF93EC018B017E
:102E8000FB01F0800E945F2CF81621F06F2DCE011F
:102E90000E94672CF801F1802196CE010E945F2CE0
:102EA000F81621F06F2DCE010E94672CC801DF912A
:102EB000CF911F910F91FF9008950F931F93CF9380
:102EC000DF9300D0CDB7DEB782E090E00E946D10B6
:102ED0008C0190938303809382030E945F2C8983EB
:102EE000C80101960E945F2C8A8389819A8101968C
:102EF00029F465E171E0C8010E943917009182034D
:102F000010918303C8010E945F2C80931501C801B2
:102F100001960E945F2C8093160190E080E00F9054
:102F20000F90DF91CF911F910F91089562EC74E0A3
:102F30008EE094E00E943A236AE08EE094E00E94E2
:102F40005E2390E080E00895CF93DF93EB0148EAA1
:102F500054E08DE493E00E94BB1381113AC06EE807
:102F600074E0CE010E94202C892B99F58EE094E02C
:102F70000E9446210A9709F56091160170E0762FAC
:102F8000662780911501680F711D4AE050E08EE0C0
:102F900094E00E94DB2360E28EE094E00E945E23D6
:102FA00065E171E080918203909183030E9439175B
:102FB00081E090E0DF91CF91089541E070E060E022
:102FC0008EE094E00E9449246093150170931601ED
:102FD000E7CF90E080E0EECFCF93DF93EB018A81E3
:102FE00090911501891305C02B8190911601291725
:102FF00051F08E3729F090E080E0DF91CF91089575
:103000008B81813DC1F7898181FFF5CF80FDF3CFB1
:1030100087FDF1CF0E949718882369F381E00E9411
:10302000EE191A821B8281E090E0E7CFFC018281D9
:10303000DB019C91891730F5A081B181A80FB11DEA
:103040002C9130E0938102C0359527959A95E2F74F
:1030500024834481442391F0242F30E0938140FF66
:1030600007C0880F880F880F890F858381E0089536
:103070003595279524839F5F9383EBCF8F5F828362
:103080001382D5CF80E00895262F26952695269584
:10309000820F911DFC01808190E0677002C09595C0
:1030A00087956A95E2F781700895E62FE695E69593
:1030B000E695E80FF92FF11D677081E090E0A0E040
:1030C000B0E004C0880F991FAA1FBB1F6A95D2F7F2
:1030D0002081822B80830895E62FE695E695E6957C
:1030E000E80FF92FF11D862F877041E050E060E076
:1030F00070E004C0440F551F661F771F8A95D2F7F2
:10310000409550956095709580814823408308953F
:10311000292F30E0322F222790E08150904C280F49
:10312000391F81E02031310508F080E008950F93C8
:103130001F93CF93DF93CDB7DEB72C970FB6F894DC
:10314000DEBF0FBECDBF83E993E098878F831986DA
:103150001A861FEF1C879A8389830BE00B831C82DE
:103160001E83BE016D5F7F4FCE0107960E94161829
:10317000811113C088E893E098878F8319861A8697
:103180001C879A8389830B831C821E83BE016D5F1B
:103190007F4FCE0107960E9416182C960FB6F89412
:1031A000DEBF0FBECDBFDF91CF911F910F9108956C
:1031B000292F207C79F420E2280F2830A8F4809170
:1031C00018019091190102C0969587952A95E2F70A
:1031D00081700895943441F496ED980F9A3220F45A
:1031E0002EED280F203158F381E008950C94D81863
:1031F00060ED74E08EE094E00E943A236AE08EE095
:1032000094E00E945E2390E080E00895292F30E052
:10321000322F2227820F932F911D2FEF280F283056
:1032200018F4815290E008958F5D94E408950F930F
:103230001F93CF93DF93FB01118117FD34C0EB0186
:10324000608183E993E00E944418082F688188E830
:1032500093E00E94441811FF91C010FD8FC001112E
:1032600051C0811185C00A811B81C8010E94881844
:1032700081111CC08B8190919F0391112AC0909164
:103280009E03992331F0843421F49A819A529A3220
:1032900090F0982F907C29F58A81805E883038F5EF
:1032A00088818093170190E080E05DC0C8010E9492
:1032B00006199B838A83688183E993E00E945518ED
:1032C00080919F019091A001909387038093860342
:1032D000E7CF982F907C99F69A81905E983058F3BA
:1032E000CECF843421F48A818A528A32C8F2809106
:1032F0008603909187032091240130912501821B40
:10330000930BE2CF882361F2688183E993E00E9406
:103310006C18988180911701981731F0688188E8BE
:1033200093E00E946C18BCCF8A819B810E94F618A2
:103330008823A1F3809120019091210197FF04C07F
:10334000809124019091250120919F013091A0014D
:103350004091860350918703241B350B28173907AA
:10336000E8F682E090E0DF91CF911F910F910895F0
:10337000688183E993E00E946C18D0CF011103C0EB
:10338000882309F490CF688188E893E00E9455185B
:10339000E8CF1F93CF93DF9300D000D01F92CDB71B
:1033A000DEB7182F682F88E893E00E946C18612F11
:1033B00083E993E00E946C1860917504212F31E835
:1033C0004FEF5FEF8EE991E00F900F900F900F900D
:1033D0000F90DF91CF911F910C9469061F93CF93AB
:1033E000DF93CDB7DEB72C970FB6F894DEBF0FBED4
:1033F000CDBF8823F1F028E833E038872F83198682
:103400001A868FEF8C873A8329839BE09B831C82EB
:103410008E83BE016D5F7F4FCE0107960E94161806
:10342000882339F08C850E94C9198A858F5F8A8725
:10343000F0CF23E933E038872F8319861A868FEF80
:103440008C873A8329839BE09B831C828E83BE01F9
:103450006D5F7F4FCE0107960E9416188823A9F052
:103460001C85612F88E893E00E944418882339F076
:10347000812F0E94C9198A858F5F8A87E8CF612FC3
:1034800083E993E00E946C18F6CF2C960FB6F8945F
:10349000DEBF0FBECDBFDF91CF911F910895AF92D8
:1034A000BF92CF92DF92EF92FF920F931F93CF9331
:1034B000DF93CDB7DEB72C970FB6F894DEBF0FBE03
:1034C000CDBFC0902401D090250100919F011091A3
:1034D000A0018091860390918703081B190BA0908F
:1034E0002201B090230123E933E038872F83198626
:1034F0001A868FEF8C873A8329839BE09B831C82FB
:103500008E83F12CBE016D5F7F4FCE0107960E9426
:103510001618E82E8823E1F0FC846F2D88E893E0EC
:103520000E944418882359F00C151D0518F08F2DA2
:103530000E94C9198A858F5F8A87FE2CE3CF0A15FE
:103540001B05C0F36F2D83E993E00E946C18F2CF46
:10355000F11008C080919F019091A0019093870382
:103560008093860380911E0190911F019093250105
:103570008093240180911C0190911D01909323015F
:103580008093220180911A0190911B019093210157
:103590008093200190E080E02C960FB6F894DEBF77
:1035A0000FBECDBFDF91CF911F910F91FF90EF9094
:1035B000DF90CF90BF90AF9008950C944F1A68EDB4
:1035C00074E08EE094E00E943A236AE08EE094E09A
:1035D0000E945E2390E080E00895FC01872F90E038
:1035E000982F8827680F792F711D613180EC78073B
:1035F000E0F0623188EC780750F46151704C66A7B6
:1036000017A611AA80EE870F80AB81E00895633181
:1036100080ED780750F46251784C66A717A68AE2CD
:10362000870F80AB84E481ABF0CF80E008958F9268
:103630009F92AF92BF92CF92DF92EF92FF920F9341
:103640001F93CF93DF9300D000D0CDB7DEB78C01AE
:10365000F62E23E5261708F469C0E62FF0E0EE0FFA
:10366000FF1FEA58FB4FD080E1808FEFD8120FC0C8
:10367000E8120DC0AF2DB0E0AC55BE4FE091020195
:10368000F09103016F2D8C910995D82EE92E6D2DA7
:103690007E2DC8010E94ED1AB82E811135C0EF2D84
:1036A000F0E0EC55FE4F8080C12CAA24AA94912C06
:1036B000F8018281C81608F042C0F4E0CF9EC00134
:1036C0001124F80160817181680F791FAA8244E09A
:1036D00050E0CE0101960E94172C89819A813B818E
:1036E0002C81F9122AC0482F082E000C550B4815C2
:1036F000590511F08F3F09F5F801D6A6E7A6C901D3
:1037000090AB21ABBB24B3948B2D0F900F900F90F7
:103710000F90DF91CF911F910F91FF90EF90DF906D
:10372000CF90BF90AF909F908F90089510921E05FC
:1037300010921F05EEE1F5E096CFC394B9CFD6A65F
:10374000E7A68FEF80AB81ABDFCFCF93DF93FC0198
:10375000EB019A01261B370BA4E6B0E00E94DF2B99
:1037600026A130E050E040E00E94BD2B80919F01F7
:103770009091A001BC016C1B7D0B81E06217730767
:1037800008F080E0DF91CF910895292F207C39F453
:1037900090E2980F81E0983048F080E007C09434C0
:1037A000E1F796ED980F81E09A32B8F70895CF933C
:1037B000DF93EC01888181508883E62FF0E0DF0100
:1037C0001196AC0FBD1FEE0FFF1F7196EC0FFD1F82
:1037D000962F981780F411962C9111972D93189687
:1037E0002C91189717962C93179722813381219348
:1037F00031939F5FEECF2FEF30E001C0220F6A952B
:10380000EAF799A1892F8695822320952923282BD1
:1038100029A3DF91CF910895CF93DF9300D000D0FB
:103820001F92CDB7DEB7FC01348584A1982F91702B
:1038300080FD28C082E0248139838A836B837C8366
:103840002D8391110AC0872F90E0982F8827680F49
:10385000792F711D64307105F0F460E0CF0103969B
:103860000E94D71B29813A814B815C816D818EE951
:1038700091E00F900F900F900F900F90DF91CF91EC
:103880000C94570781E0D7CF6D32710530F369335F
:10389000710518F703C068327105B0F784899589FE
:1038A00094A783A7DACFCF93DF93FC017381DC0168
:1038B0001D9681E090E060E08717F0F452A94D91E9
:1038C00024A130E0082E02C0359527950A94E2F72E
:1038D00020FD0DC0541721F080E0DF91CF910895B5
:1038E0002489358934AB23AB682F0196E5CF541377
:1038F000FCCF8FEF82ABF0CF80919F019091A00120
:1039000023A934A9821B930B25A92817190609F0AE
:1039100068F48FEF82AB6623F9F2EF012396CE01B4
:103920000E94D71B60E0CE010E94D71B81E0D5CF5B
:103930007F928F929F92AF92BF92CF92DF92EF923F
:10394000FF920F931F93CF93DF93EC019B81911113
:1039500010C0F12C8F2DDF91CF911F910F91FF900F
:10396000EF90DF90CF90BF90AF909F908F907F901F
:1039700008959C848CA180FF13C0983041F460E0CE
:1039800070E0CE010E940C1CFF24F394E3CF8AA9BF
:103990009812F5CFCE010E94531C8111DACFEFCFE0
:1039A000692DCE010E94171B882309F470C0FDA069
:1039B000FF2009F46CC00EA51FA5C8010E94C51BFD
:1039C000882E80919F019091A0012BA53CA5821B80
:1039D000930B2AA52817190609F010F57B80A090F3
:1039E0009F01B090A0016E0101E010E0E12C202FBA
:1039F000071508F065C08CA190E0002E02C09595D7
:103A000087950A94E2F780FD12C0811040C0EE2035
:103A100009F454C07FEFC71AD70A0F5F1F4FE7CFD3
:103A20008110DCCFB801CE010E940C1CD7CFF6016B
:103A30009585FE013D9681E099122DC0EE2019F08A
:103A40008EA1811110C0882059F068A979A99AAA7D
:103A50008C899D899CAB8BABCE010E940C1C7ACFCC
:103A60006EA57FA5F4CFF801EE0FFF1FEC0FFD1F31
:103A700044895589EE2DF0E0EE0FFF1FEC0FFD1F7E
:103A800064897589CE010E94A51B8111C3CF6EA5E3
:103A90007FA577CF8F5F821708F0BCCF31913913A4
:103AA000F9CF4C895D89B501641B750B39A53617B3
:103AB000170609F078F768A979A9CECFE02EAACF2A
:103AC00088E0781246CFE3CF0F931F93CF93DF9315
:103AD000EC01FB0124818DA5922F981B191634F05F
:103AE0008B8181111DC090E080E026C02DA78081D0
:103AF0008435C8F7818187FDF6CF8B018DA18111B7
:103B000020C062817381CE010E94ED1A882359F38F
:103B10008EA59FA5D80113969C938E931297E3CF01
:103B2000022E000C330B8C81281B310987FD339545
:103B300037FDD9CF82E090E0DF91CF911F910F91B7
:103B400008952B81822F90E03481FE01E80FF91F48
:103B50003483DB013C913487880F991FFE01E80F05
:103B6000F91F80919F019091A001958B848B1196F4
:103B70004C913CA181E090E0A0E0B0E0022E04C0B6
:103B8000880F991FAA1FBB1F0A94D2F740FF0CC0D1
:103B900041FD0AC0832B8CA32F5F2B83CE010E9493
:103BA000981C8111FBCFC6CF80958323F4CF0F9350
:103BB0001F93CF93DF93EC0180919F019091A0011F
:103BC0002AA530E04BA55CA5BC01641B750B6217F0
:103BD000730728F00197821B930B9CA78BA78B81FF
:103BE0008823F9F0CE010E94981C8111FBCF8091AF
:103BF0009F019091A0012C893D89821B930B2FA1DD
:103C000038A58217930768F00EA51FA5C8010E946A
:103C1000C51BB801811102C068A979A9CE010E9413
:103C20000C1C90E080E0DF91CF911F910F910895DF
:103C3000CF93DF93C0EAD3E0198218821A821B82E5
:103C400088E0EDE3F1E0ACEAB3E001900D928A95F3
:103C5000E1F781E08DA380E58EA38AEF90E098A73D
:103C60008FA382E389A78BE48AA780E091E09CA7D9
:103C70008BA78FEF8DA78EA78FA788AB89AB8AAB59
:103C800088EC8DABDF91CF910895FC0110824091BB
:103C9000450150914601609147017091480145836B
:103CA0005683678370878091E80381112CC081EE71
:103CB0008093F0031092F10386E28093F20388E090
:103CC0008093F3031092F5031092F40395EE909312
:103CD000F6031092F70397E29093F8038093F903A9
:103CE0001092FB031092FA031092FC031092FD0352
:103CF0001092FE031092FF03109201041092000430
:103D000081E08093E80380EF93E090930404809334
:103D1000030408956FED74E08EE094E00E943A236E
:103D20006AE08EE094E00E945E2390E080E00895D7
:103D300080E026E0E0910304F0910404829FE00D0E
:103D4000F11D1124908191110FC0318131110CC0EE
:103D50003281311109C03381311106C0448155814E
:103D6000452B11F48FEF0895961303C09181971797
:103D700011F08F5FDFCF08950F931F93CF93DF93E1
:103D8000CDB7DEB72A970FB6F894DEBF0FBECDBF12
:103D90008C01FC01818980FD47C082E0F80125810A
:103DA00091812E838F838FEF888789879A876623F7
:103DB00031F19091270197FD22C090910204923039
:103DC00079F460917504298391E09A838B838C83C5
:103DD0006D8331E04FEF5FEF8EE991E00E9469065D
:103DE00080912701E0910304F091040496E0890298
:103DF000E00DF11D11248281938199878887F80154
:103E0000808181508193D801199690E0981770F4C1
:103E1000218121932481238312962D913C91139724
:103E20002D933D939F5FF2CF81E0B8CFF801818958
:103E300090E095958795818B2E813F8148855985A6
:103E40006A858EE991E02A960FB6F894DEBF0FBE20
:103E5000CDBFDF91CF911F910F910C945707CF9356
:103E6000DF93EC018881882329F060E0CE010E9475
:103E7000BC1EF8CFDF91CF910895FC012081222351
:103E800019F1409128015091290120912701E091D9
:103E90000304F091040436E02302E00DF11D112427
:103EA000248135812115310509F0A90120919F0157
:103EB0003091A001FC0161857285261B370B241708
:103EC000350710F00E942F1F90E080E00895CF93F7
:103ED000DF93FC01EB012081822F90E03C81DF0128
:103EE000A80FB91F11963C931197388115963C93F2
:103EF000880F991FDF01A80FB91F80919F01909132
:103F0000A0011A969C938E9319979981818941E01B
:103F100050E060E070E0022E04C0440F551F661FA1
:103F2000771F0A94D2F790FF09C091FD07C0482B74
:103F3000418B2F5F2083DF91CF91089540954823D7
:103F4000F7CFFF920F931F93CF93DF93FC01EB0109
:103F50002C8180912601922F981B19165CF080818C
:103F6000811121C090E080E0DF91CF911F910F91EE
:103F7000FF900895209326012881243598F7998190
:103F800097FDF0CF392F327091FF23C090FD21C0F3
:103F90008A818835A9F48B81813DD9F4109202047D
:103FA00081E090E0E1CF022E000C330B8181281BD1
:103FB000310987FD339537FDD5CF82E090E0D4CF2E
:103FC000893539F48B81813D21F481E080930204AD
:103FD000E7CF80910204813029F28F01808188230C
:103FE00071F090FF09C0311107C09581921323C071
:103FF00061E0CF010E94BC1EC8010E942F1FF98002
:10400000F1FEB0CFF0FCAECF6A817B81C8010E9487
:10401000981E8093270187FDA5CF809102048230EE
:1040200061F428813F2D4A815B816C818EE991E0AA
:104030000E94690602C08430F9F2BE01C8010E94E4
:10404000671FBBCF86ED93E00C94451E1F920F9225
:104050000FB60F9211242F933F938F939F93AF939B
:10406000BF938091060490910704A0910804B09139
:1040700009043091050423E0230F2D3758F50196EC
:10408000A11DB11D2093050480930604909307049D
:10409000A0930804B093090480910A0490910B0442
:1040A000A0910C04B0910D040196A11DB11D809347
:1040B0000A0490930B04A0930C04B0930D04BF91D9
:1040C000AF919F918F913F912F910F900FBE0F90C5
:1040D0001F90189526E8230F0296A11DB11DD2CF7F
:1040E0002FB7F8946091060470910704809108043A
:1040F000909109042FBF08953FB7F89480910A0466
:1041000090910B04A0910C04B0910D0426B5A89BCE
:1041100005C02F3F19F00196A11DB11D3FBFBA2F59
:10412000A92F982F8827BC01CD01620F711D811D19
:10413000911D42E0660F771F881F991F4A95D1F79E
:1041400008958F929F92AF92BF92CF92DF92EF929B
:10415000FF926B017C010E947C204B015C01C11429
:10416000D104E104F104E9F00E94942B0E947C2028
:10417000681979098A099B09683E73408105910590
:1041800070F321E0C21AD108E108F10888EE880E28
:1041900083E0981EA11CB11CC114D104E104F104F8
:1041A00029F7FF90EF90DF90CF90BF90AF909F9056
:1041B0008F900895789484B5826084BD84B58160C1
:1041C00084BD85B5826085BD85B5816085BDEEE61F
:1041D000F0E0808181608083E1E8F0E010828081FE
:1041E00082608083808181608083E0E8F0E080816C
:1041F00081608083E1E9F0E080818260808380815A
:1042000081608083E0E9F0E0808181608083E1EC7F
:10421000F0E08081846080838081826080838081FF
:1042200081608083E3ECF0E0808181608083E0EC5A
:10423000F0E0808182608083E2ECF0E08081816048
:104240008083EAE7F0E080818460808380818260FF
:1042500080838081816080838081806880830895ED
:10426000CF93DF931F92CDB7DEB76983DC01ED9169
:10427000FC910280F381E02D41E050E0BE016F5FD0
:104280007F4F09950F90DF91CF910895CF93DF93E2
:10429000EC018C859D8597FF05C082E00E949C25DE
:1042A0009D878C878C859D85DF91CF91089583E0D4
:1042B0000E94B32590E0089583E00C942228FC012D
:1042C0008485958597FD06C082E00E944C2590E08C
:1042D0000196089582E00E944C2590E00895FC012B
:1042E0008485958597FD05C02FEF3FEF358724879F
:1042F000089582E00C949C25CF93DF93EC0180918C
:104300003501882331F083E00E94CD251816190667
:1043100034F081E090E09B838A8380E090E0DF913D
:10432000CF910895EEEFFFE72591349181E02B3F87
:104330003C4D09F080E00895FC0190819E5F9083E0
:1043400042E450E06AEE74E080E80C947E26FC01C2
:1043500081819081913A61F4813209F083C047E014
:1043600050E06EE271E080E00E947E2681E00895D8
:10437000913209F077C0833269F482819381B0E091
:10438000A0E080932A0190932B01A0932C01B0937D
:104390002D01ECCF803239F467E070E08EE291E0DD
:1043A0000E94A426E3CF823209F7828180933501EF
:1043B0000E949221E0E0F8E0882311F0EEEFFAE0AD
:1043C00080912E0190912F01A0913001B091310187
:1043D000803B9440A105B105D9F48091350180FD61
:1043E00017C0EE3F8AE0F80771F587E797E79183FA
:1043F00080838091600080935E0488E19BE00FB62B
:10440000F894A895809360000FBE90936000AECFA3
:10441000808191818737974709F0A8CFA89580912F
:10442000600088618093600080915E0480936000EA
:10443000EE3F8AE0F80789F08091FE0A9091FF0A2A
:104440009183808393CF808191818737980769F228
:104450009093FF0A8093FE0AC8CF1092FF0A109231
:10446000FE0A84CF80E008952FEF3FEFFC013587EF
:1044700024870895EEE0F4E01382128288EE93E040
:10448000A0E0B0E084839583A683B7838DE691E0B6
:10449000918380838FEF9FEF958784870895EF92B4
:1044A000FF920F931F93CF93DF937B01FC01C28197
:1044B000D38110E000E0209791F0E881F98102803B
:1044C000F381E02DB701CE01099597FD06C0080FD5
:1044D000191F0884D985C02DEECF0FEF1FEFC8013B
:1044E000DF91CF911F910F91FF90EF9008950F935F
:1044F0001F93CF93DF938B01FC01C281D38120975F
:1045000071F0E881F9810480F581E02DB801CE01D8
:104510000995009731F40884D985C02DF0CF90E03B
:1045200080E0DF91CF911F910F9108950F931F931A
:10453000CF93DF938B01FC01C281D381209771F06F
:10454000E881F9810680F781E02DB801CE01099557
:10455000080F111D0884D985C02DF0CFF8011082F5
:10456000DF91CF911F910F9108950F931F93CF93D8
:10457000DF938B01FC01C281D381209771F0E88128
:10458000F9810190F081E02DB801CE0109958111EA
:1045900005C00884D985C02DF0CF80E0DF91CF9190
:1045A0001F910F910895CF93DF93FC01DB012181CF
:1045B00014968C911497820F9927991F08978CF560
:1045C000C281D381209731F57383628390811296E3
:1045D0009C93129713962C93139715968C9115977D
:1045E000890F808380E014969C9114978917E8F4D2
:1045F0001696CD91DC911797C80FD11D9881C18176
:10460000D0E0CA5CDE4F988391819F5F91838F5F7A
:10461000EACFEC01888599850097D9F7B987A887F3
:10462000D5CF80E0DF91CF91089581E0FBCF8091DD
:104630005F0481110DC082E08093670484E0809361
:10464000680410926A041092690481E080935F0408
:1046500087E694E00895FB0101900020E9F7319787
:10466000AF01461B570BDC01ED91FC910280F381F9
:10467000E02D0994EF92FF920F931F93CF93DF9356
:104680008C017B01D0E0C0E0F701EC0FFD1F6491CD
:10469000662361F0D801ED91FC910190F081E02D4D
:1046A000C8010995892B11F02196EECFCE01DF913B
:1046B000CF911F910F91FF90EF900895DC01ED9144
:1046C000FC910190F081E02D09946BE771E00C946E
:1046D0002B230F931F93CF93DF93EC010E943A2378
:1046E0008C01CE010E946523800F911FDF91CF9135
:1046F0001F910F9108958F929F92AF92BF92EF9268
:10470000FF920F931F93CF93DF93CDB7DEB7A1979F
:104710000FB6F894DEBF0FBECDBF7C01FA01CB010E
:1047200019A2223008F42AE08E010F5D1F4F822E5D
:10473000912CB12CA12CBF01A50194010E94BD2B8D
:10474000F901CA016A300CF5605DD8016E938D01E4
:10475000232B242B252B79F790E080E0109721F074
:10476000BD01C7010E942B23A1960FB6F894DEBFAE
:104770000FBECDBFDF91CF911F910F91FF90EF90B2
:10478000BF90AF909F908F900895695CDECF211508
:10479000310541F4DC01ED91FC910190F081E02DB7
:1047A000642F09940C947B239A01462F50E070E00B
:1047B00060E00C94C7239A01AB0170E060E00C94B8
:1047C000C7230F931F93CF93DF93EC010E947020B8
:1047D000688779878A879B87E881F9810484F585D2
:1047E000E02DCE01099597FF15C00E947020088525
:1047F00019852A853B85601B710B820B930B0C81FD
:104800001D812E813F81601771078207930720F376
:104810008FEF9FEFDF91CF911F910F910895FF923E
:104820000F931F93CF93DF93EC018B01F42ECE01F6
:104830000E94E12397FD1DC08D329105D1F09C01AE
:10484000205331092A303105A0F0FF2019F08E32B3
:10485000910579F00130110551F00230110589F40C
:104860008D30910571F05CF40997029750F08FEF4D
:104870009FEFDF91CF911F910F91FF900895809747
:10488000B1F7E881F9810284F385E02DCE01099525
:10489000CECFBF92CF92DF92EF92FF920F931F93F2
:1048A000CF93DF938C01C42F40E00E940F24FC01C2
:1048B000C12CD12C760197FD3EC0B12C0C2E000CE2
:1048C000DD0BCE17DF07D9F0ED32F10509F43FC05B
:1048D000CF01C0970A9798F4AAE0B0E0A70196012B
:1048E0000E94EE2B6F01FF0FEE08FF08C60ED71EC9
:1048F000E81EF91E80E3C81AD108E108F108D801C2
:10490000ED91FC910284F385E02DC8010995C80161
:104910000E94E123FC01C0970A9798F2CE17DF07A7
:1049200081F2BB2041F0F094E094D094C094C11C7B
:10493000D11CE11CF11CC701B601DF91CF911F9181
:104940000F91FF90EF90DF90CF90BF900895BB2420
:10495000B394D5CF40916E0450916F0420916C04B4
:1049600030916D0442175307B4F49091E8009570AC
:10497000E1F39091E80092FD19C08093F1008091DD
:104980006E0490916F0401968F739927892B19F407
:104990008EEF8093E80080916E0490916F040196F1
:1049A00090936F0480936E0481E0089580E00895F1
:1049B000EF92FF920F931F93CF93DF93F82E192F4F
:1049C000E62E042F81E0860F880F0E94AA2483E040
:1049D0000E94AA24CF2DD12FEC0EFD2EF11CCE1556
:1049E000DF05B9F007FF13C0FE0184910E94AA24DD
:1049F000182F80E00E94AA24812321968111EFCFF5
:104A0000DF91CF911F910F91FF90EF9008958881D2
:104A1000EDCF81E0F5CF8091D70081608093D70002
:104A200080EA8093D80089B5806189BD89B58260AC
:104A300089BD09B400FEFDCF61E070E080E090E048
:104A40000E94A1208091D8008F7C80618093D80043
:104A50008091E000807F8093E0000895CF93DF9302
:104A60001F92CDB7DEB71982CE0101960E949C211C
:104A70000E941723BE016F5F7F4F0E944F228981E2
:104A80000F90DF91CF9108952FB7FC012083F89408
:104A900067706093E9000895CF93DF931F92CDB7BD
:104AA000DEB7682FCE0101960E9444258091F20066
:104AB00099819FBF0F90DF91CF910895EF92FF9260
:104AC0000F931F93CF93DF931F92CDB7DEB79091D3
:104AD0007204992371F157FD2CC08A017B01682F64
:104AE000CE0101960E9444258091F20090E00817C3
:104AF00019070CF4C801282FF70144E6215030F0C3
:104B0000409373043091F1003193F8CF009739F05E
:104B10002091F200211103C02BE62093E8002981A7
:104B20002FBF0F90DF91CF911F910F91FF90EF90CA
:104B300008958FEF9FEFF5CFCF93DF931F92CDB7FF
:104B4000DEB741E050E0BE016F5F7F4F0E945E25FF
:104B5000019731F4898190E00F90DF91CF91089512
:104B60008FEF9FEFF9CFCF93DF931F92CDB7DEB7D3
:104B7000682FCE0101960E9444259091E800892F6C
:104B8000807295FF04C09091F20080E4891B9981A6
:104B90009FBF0F90DF91CF9108955F926F927F92A8
:104BA0008F929F92AF92BF92CF92DF92EF92FF923D
:104BB0000F931F93CF93DF931F92CDB7DEB7982E3D
:104BC0006B01B42E052F80917204811113C08FEFF9
:104BD0009FEF0F90DF91CF911F910F91FF90EF907A
:104BE000DF90CF90BF90AF909F908F907F906F900D
:104BF0005F9008958091700480FF05C08091E0006F
:104C000082608093E000EB2CF02EA12C8AEF882E9E
:104C1000892D8072682E892D8074582E9AE3792E02
:104C2000E114F10419F4AA2009F457C0892D0E9457
:104C3000B325182F81110AC08A94882041F261E0BF
:104C400070E080E090E00E94A120EACF8E151F0462
:104C500011F00CF01E2D692DCE0101960E94442505
:104C60008091E80085FD03C089818FBFD9CF812F56
:104C700090E0E81AF90A662029F01150A0F010928D
:104C8000F100FBCFF60197FC0AC0115050F02191C2
:104C90002093F100FACF24912093F1003196115026
:104CA000D0F7C80ED91EAA2021F07092E800A12CDE
:104CB000DBCF8091E80085FD08C07092E800AA244F
:104CC000A394E114F10481F2F2CFE114F10461F64E
:104CD000552051F27092E800C7CF84E680937404A7
:104CE0008B2D902F76CF1092E90010926F041092C6
:104CF0006E0490936D0480936C040895DF92EF929C
:104D0000FF920F931F93CF93DF93D82E8A01EB016D
:104D10007B01E40EF51ECE15DF0559F0D7FE12C05B
:104D2000FE0184910E94AA2421968111F4CF0FEFF5
:104D30001FEFC801DF91CF911F910F91FF90EF906E
:104D4000DF9008958881EECFCF93DF93EC019B0134
:104D5000B4E6ABEF21153105F1F0A901213431059D
:104D600014F040E450E08091E80082FFFCCF942FE3
:104D7000FB01E21BF30BEC0FFD1F915028F080911B
:104D8000F10080833196F9CFB0937304A093E800CB
:104D9000241B350BDFCFCB01DF91CF9108951F92FC
:104DA0000F920FB60F921124CF92DF92FF920F93C2
:104DB0001F932F933F934F935F936F937F938F93A3
:104DC0009F93AF93BF93EF93FF93CF93DF93CDB7B1
:104DD000DEB76C97DEBFCDBF1092E9008091E8008E
:104DE00083FF2FC089E0FE017596FE2E0F2F8150A4
:104DF00029F09091F10090833196F9CF84E6809369
:104E0000730482EF8093E8008D8987FF38C090910A
:104E1000E80090FFFCCF982F907609F000C19E89A2
:104E20004F89588D2F89188D911130C0803859F5D0
:104E3000809171048093F1001092F1008EEF8093C5
:104E4000E8006C960FB6F894DEBF0FBECDBFDF91C1
:104E5000CF91FF91EF91BF91AF919F918F917F91F2
:104E60006F915F914F913F912F911F910F91FF9003
:104E7000DF90CF900F900FBE0F901F9018959EEF70
:104E80009093E800C8CF1092F100D6CF913059F43A
:104E90008111D4CF4130510589F6809171048D7F05
:104EA00080937104CBCF933049F48111C7CF413047
:104EB000510521F6809171048260F2CF953041F462
:104EC0008091E80080FFFCCF20682093E300B6CFFC
:104ED000963009F076C0CB8CDC8C123039F590E03E
:104EE00080E00E9473260E942E251F8299E09983FC
:104EF0001A8391E09E8390EA98879AEF9987209190
:104F00006E0430916F04275F3F4F3C832B838D836A
:104F1000C6010E94732649E050E0BE016F5F7F4FDB
:104F200080E00E947E260E942E2588CFC6010E9426
:104F300073260E9417236F2D702F0E9477220097EF
:104F400031F00CF07BCF81E28093EB007ACF11300F
:104F500061F11330C1F78F89882381F1823049F4E0
:104F600040E86AE089E495E00E94D824882359F358
:104F700065CF813029F440E86AE08EE395E0F4CF14
:104F8000833009F70E9417238E010F5F1F4FB8016E
:104F90000E949622F80101900020E9F73197BF01A5
:104FA000601B710B40E0C801DFCF6CE275E0FB01D4
:104FB000449150E080E80E947E2640CF64E575E091
:104FC000F6CF973009F4BFCF983021F481E0809379
:104FD000F10034CF993009F031CF837009F0B3CFAD
:104FE000E7E3F1E081E031E096E32191222371F0E3
:104FF0008093E9003093EB00DF0111972C9120930F
:10500000EC009093ED008F5F873079F78EE7809307
:10501000EA001092EA008F89809372040FCF8B8D83
:105020009C8D0E947326898D811105C08F2D902F34
:105030000E94A7219BCF0E9417236F2D702F0E94E3
:10504000B52294CF8093E9008091F200882319F073
:105050008AE38093E80008951F920F920FB60F9293
:1050600011242F933F934F935F936F937F938F936D
:105070009F93AF93BF93CF93EF93FF93C091E100C2
:105080008091E100837F8093E100C3FF0FC0109205
:10509000E90081E08093EB001092EC0082E38093C2
:1050A000ED001092720488E08093F000C2FF15C0FA
:1050B00083E00E94222880917404882329F0809143
:1050C000740481508093740480917304882329F0C0
:1050D00080917304815080937304C4FF23C0809136
:1050E000E2008E7E81608093E2008091E1008F7EFD
:1050F0008093E100809170048E7E806180937004C3
:10510000FF91EF91CF91BF91AF919F918F917F913F
:105110006F915F914F913F912F910F900FBE0F9024
:105120001F901895C0FFECCF8091E2008E7E8061C9
:105130008093E2008091E1008E7E8093E100809177
:1051400070048E7E8160DACF109272041092710426
:10515000109270040E940B25E1EEF0E080818E7EBB
:1051600080838DE08093E200559A209A0895809183
:10517000E0008D7F8093E0008091E00081FD11C010
:105180008091700480FF0DC08091710481FF09C07F
:105190000E940B258091E00082608093E00081E016
:1051A000089580E0089510921E0510921F0508953D
:1051B000CF93DF93CDB7DEB769970FB6F894DEBF14
:1051C0000FBECDBFFC01DB018C918F5F8C939E01E4
:1051D0002D5F3F4F8DE0D9011D928A95E9F729E0B7
:1051E000298384E08A8391E09D8383E08E832A87EC
:1051F00021E22B879C879D879F8722E2288B27E0CF
:105200002B8B25E02C8B8E8B20E430E0388F2F8B7E
:10521000998F82818B8395858685998B8A8B8381F3
:1052200080688D8B49E150E0BE016F5F7F4F80E069
:105230000E947E2669960FB6F894DEBF0FBECDBFE2
:10524000DF91CF910895EF92FF920F931F93CF9329
:10525000DF93FB0120812138A1F52381223289F5DA
:10526000DC0112964C91248135814217130649F5D1
:10527000EC0181E00E94932B0B851C85F12CE12C25
:105280000115110589F0F80144815581628173810E
:1052900080E80E947E268F3F980761F0E80EF91E95
:1052A000D8010D911C91ECCF81E08F8780E00E94A6
:1052B000932BC701DF91CF911F910F91FF90EF903A
:1052C000089590E080E0F6CFCF93DF93EC01DB010F
:1052D0002A8114968D919C9115972817190659F4D7
:1052E00011968C9111979C91913A39F4982F9D7F4A
:1052F00081E0913051F080E008C09132E1F78B30CD
:1053000039F412968C918F8781E0DF91CF910895C7
:105310008A3021F413968C91888BF6CF893059F717
:1053200016968D919C918230910539F462E070E07F
:10533000CE0141960E94A426DECF0197E1F661E0FE
:1053400070E0CE0142960E94A426198AD4CFFC01B7
:10535000A385B485109771F47487638785859685D6
:10536000DB0114962D913C91820F931F96878587C0
:105370000895DC018D919C9111970097D1F76D9361
:105380007C93ECCFAF92BF92CF92DF92EF92FF92DD
:105390000F931F93CF93DF931F92CDB7DEB77C019E
:1053A00069836A01590141E050E0BE016F5F7F4FA0
:1053B000FC0183810E94CD258C0197FD0BC0F70174
:1053C0008381A501B60180640E94CD25080F191FB5
:1053D00097FD8C01C8010F90DF91CF911F910F9124
:1053E000FF90EF90DF90CF90BF90AF900895CF9255
:1053F000DF92EF92FF921F93CF93DF93162F7A01E4
:1054000069010E94C229EC01E0913B05F0913C0545
:10541000309729F09C01A601B701812F0995CE0193
:10542000DF91CF911F91FF90EF90DF90CF90089583
:10543000CF93DF93EC0181E08C838D839E01265F07
:105440003F4F3F832E831986188622E831E0398347
:1054500028831C861B861E861D868F87888B198A4B
:105460001A8A81EC8A870E941723BE01DF91CF91AF
:105470000C94D32280912005811107C088E295E029
:105480000E94182A81E08093200588E295E0089523
:105490000F93FC0161834283238304830F9108955A
:1054A00025E0FC0111922A95E9F70895FC0190810D
:1054B000692B60830895CF93DF93EC010E943A2A11
:1054C00025E030E0AE0161E0DF91CF910C94F72947
:1054D0000F931F93CF93DF93EC018C010B5F1F4F52
:1054E00045E050E0BC01C8010E94372C892B49F4EB
:1054F00045E050E067E475E0CE010E94372C892B2F
:1055000051F0CE010E945B2A85E0FE01D801019096
:105510000D928A95E1F7DF91CF911F910F91089538
:10552000CF93DF93EC010E94502ACE01DF91CF91FF
:105530000C94682ACF93DF93EC0180914C05811184
:1055400013C0109255051092540588E595E090938C
:105550005705809356058AE390E090935905809310
:10556000580581E080934C050E943A2A64E575E075
:105570000E94A729CE01DF91CF910C94902ACF935E
:10558000DF93CDB7DEB769970FB6F894DEBF0FBED5
:10559000CDBFFC01DB019C919F5F9C939E012D5F21
:1055A0003F4F81E1D9011D928A95E9F729E02983CE
:1055B00084E08A8391E09D8383E08E832A8721E2C1
:1055C0002B879C879D879F8722E2288B25E3298B49
:1055D00027E02B8B25E02C8B8E8B20E430E0388F5E
:1055E0002F8B998F82818B83838180688D8B49E19A
:1055F00050E0BE016F5F7F4F80E00E947E2669967B
:105600000FB6F894DEBF0FBECDBFDF91CF910895E6
:105610000F931F93CF93DF93EB018A01FC018381EA
:1056200080640E94CD25E0913B05F0913C053097C8
:1056300049F09C01A801BE0187E0DF91CF911F9145
:105640000F910994DF91CF911F910F9108950A97BF
:105650000C94082BDC01FB0112962C91129784818B
:1056600095812817190641F491818081813A31F49E
:105670009D7F81E0913009F080E008958132E1F76B
:105680009B3029F4828152968C9381E008959A3060
:1056900099F7828153968C93F8CFFB0120812138B2
:1056A000B1F42381223299F4DC0112964C911297C5
:1056B000248135814217130651F421E052962C9330
:1056C00045E350E062E975E080E80C947E2690E0C6
:1056D00080E00895CF93DF93EC0181E08C838D838C
:1056E0009E012F5E3F4F3F832E83198618861D86AD
:1056F0001C861F861E86188A2EE831E0398328838F
:105700002CE931E03B872A878A8B8B8B81EC898B54
:105710000E941723BE01DF91CF910C94D3228AE51A
:1057200095E00C946A2B08950895AA1BBB1B51E1C8
:1057300007C0AA1FBB1FA617B70710F0A61BB70B01
:10574000881F991F5A95A9F780959095BC01CD01A6
:10575000089597FB072E16F4009407D077FD09D023
:105760000E94952B07FC05D03EF4909581959F4FA4
:105770000895709561957F4F0895A1E21A2EAA1B96
:10578000BB1BFD010DC0AA1FBB1FEE1FFF1FA217F1
:10579000B307E407F50720F0A21BB30BE40BF50BEE
:1057A000661F771F881F991F1A9469F76095709577
:1057B000809590959B01AC01BD01CF010895A29FFA
:1057C000B001B39FC001A39F700D811D1124911DD5
:1057D000B29F700D811D1124911D08950E94DF2B31
:1057E000A59F900DB49F900DA49F800D911D112435
:1057F00008950024A7FD00942A0F301D401D501D60
:10580000601D701D801D901D08950024A7FD00944B
:105810002A17300540055005600570058005900584
:105820000895EE0FFF1F0590F491E02D0994FB0100
:10583000DC0102C005900D9241505040D8F7089508
:10584000FB01DC018D91059080190110D9F3990BB2
:105850000895FB01DC014150504030F08D910590DE
:10586000801919F40020B9F7881B990B0895FB01E2
:10587000DC0104C08D910190801921F44150504009
:10588000C8F7881B990B0895FB01DC0102C0019049
:105890000D9241505040D8F708956817790768F481
:1058A000FB01DC01E40FF51FA40FB51F02C002903D
:1058B0000E9241505040D8F708950C94442CF99919
:1058C000FECF92BD81BDF89A992780B50895262F05
:1058D000F999FECF1FBA92BD81BD20BD0FB6F894D5
:0E58E000FA9AF99A0FBE01960895F894FFCF38
:1058EE0003FFBB0701010504003200014000010166
:1058FE000001107F022900FFFFFFFFFFFA00C4091D
:10590E00FFFFFA00C409FFFFC800FFFFFFFF00E121
:10591E0000000000000000C18081000000FFFFFFBA
:10592E00FFFFFFFFFFFFFFFFFF4572676F446F78BA
:10593E002D455A009E01303132339293660000009D
:10594E0000DD0C750CC00C6E0C0000000030217CCC
:10595E002157215C215F216F2146210D0A00000095
:10596E0000006429D82823292F03000000002A2BC9
:0E597E00BF2A4D2B6E0C082BF6FF0000272BC6
:00000001FF
