:100000000C943F020C9467020C9467020C946702F4
:100010000C9467020C9467020C9467020C946702BC
:100020000C9467020C9467020C94DB230C947E22E0
:100030000C9467020C9467020C9467020C9467029C
:100040000C9467020C9467020C9467020C9467028C
:100050000C944C080C9467020C9467020C94D51B0A
:100060000C9467020C9467020C9467020C9467026C
:100070000C9467020C9467020C9467020C9467025C
:100080000C9467020C9467020C9467020C9467024C
:100090000C9467020C9467020C9467020C9467023C
:1000A0000C9467020C9467020C94670214001A0007
:1000B000080015001700000000001C0018000C00CC
:1000C0001200130004001600070009000A000000D7
:1000D00000000B000D000E000F0033001D001B0080
:1000E000060019000500350031001100100036002F
:1000F0003700380029002B00E300E1002A00E0006F
:10010000E2002C002B442D00340028001E081F089C
:10011000520021082208000000004B0024002500A6
:1001200026002A002608500051004F002708000032
:1001300000004E00210022002300FFFF2F003000AE
:1001400020082F0830082308240825081E001F0057
:1001500020002E0802444900E300E1004C00E000CA
:10016000E2002C00FFFF370027002E0049004A0064
:1001700052004D004B0000000000520040004100C2
:10018000420043004C00500051004F004E00000060
:10019000000051003D003E003F0044000000E95CCB
:1001A00000000000FFFFFFFFFFFF00003A003B00E0
:1001B0003C0045000060EA5CFFFFFFFFFFFFFFFF20
:1001C000FFFFFFFF006046004700CD586375737462
:1001D0006F6D0064656661756C74006F6E6C794359
:1001E0007573746F6D006B65796D61702E006B6552
:1001F000796D61702E637573746F6D0A6B65796DBF
:1002000061702E64656661756C740A6B65796D61E9
:10021000702E6F6E6C79437573746F6D00656570C9
:10022000726F6D2E6672656500656570726F6D2EFA
:10023000636F6E74656E747300656570726F6D2E9A
:10024000636F6E74656E74730A656570726F6D2E80
:1002500066726565002F006372630076657273696C
:100260006F6E0076616C69643F0064656661756CF1
:10027000744C617965720073657474696E67732E6E
:100280000073657474696E67732E64656661756C5E
:10029000744C617965720A73657474696E67732E44
:1002A00076616C69643F0A73657474696E67732E56
:1002B00076657273696F6E0A73657474696E6773BD
:1002C0002E6372630066616C7365007472756500FD
:1002D00068656C700068656C70000D0A2E00050181
:1002E0000906A101050719E029E715002501750197
:1002F000950881029501750881019505750105082C
:10030000190129059102950175039101950675085A
:10031000150025FF0507190029FF8100C0050C09FC
:1003200001A1018504150026FF0319002AFF03958A
:100330000475108100C005010906A10185080507A3
:1003400019E029E7150025017501950881020508C6
:100350001901290895087501910205077504950191
:100360008101190429DD15002501750195D9810246
:10037000750395018101C005010902A101850105EF
:100380000919012908150025019508750181020543
:10039000010930093109381581257F7508950381D8
:1003A00006050C0A38021581257F7508950181061E
:1003B000C005010980A1018505150026FF0019006F
:1003C00029FF950175088100C005010902A10105F9
:1003D00009190129081500250195087501810205F3
:1003E000010930093116000026FF7F751095028142
:1003F0000209381581257F750895018106C0080B13
:1004000000020202000009040000010202000005CF
:10041000240010010524010101042402060524061C
:1004200000010705810310004009040100020A00D1
:10043000000007050202400000070583024000009B
:1004400012010002EF020140091203230001010220
:1004500003014B6579626F617264696F0041747268
:1004600065757300040309041211981358159A1541
:100470003A17C1183219201AFD1AD11BE91D11248F
:100480001FBECFEFDAE0DEBFCDBF11E0A0E0B1E0EC
:10049000E2E1F0E502C005900D92A039B107D9F76D
:1004A00024E0A0E9B1E001C01D92A53AB207E1F74E
:1004B00012E0CFE3D2E004C02197FE010E94A427FE
:1004C000C433D107C9F70E946A020C9407280C9420
:1004D000000008950E94891C0E9469028EE794E042
:1004E0000E9453240E943203C0E0D0E00E943D03EA
:1004F0002097E1F30E940000F9CF089586E0E5E33C
:10050000F1E0DB0101900D928A95E1F786E0089514
:1005100089E792E00E94E10982E792E00E94A30845
:100520008BEB92E00E94F70E90E080E0089589E75F
:1005300092E00E94EA0A90E080E008950F931F93F2
:10054000CF93DF93EC01162F042F242F462FBC01ED
:1005500083EC92E00E940710019731F1202F412F88
:10056000BE0180E193E00E9414140197E9F0202F6E
:10057000412FBE018BEB92E00E94260E0197A1F065
:10058000202F412FBE0181EA92E00E94590C019771
:1005900059F0202F412FBE018AEE92E0DF91CF91DA
:1005A0001F910F910C94CD1281E090E0DF91CF91DB
:1005B0001F910F910895CF93DF93EC01BC0182E767
:1005C00092E00E942A09019729F481E090E0DF91EE
:1005D000CF910895BE0180E892E00E94EC0B019754
:1005E000A1F3BE0187E792E00E946C0B019769F3CB
:1005F000BE0188E792E00E94F30A31E020E0019713
:1006000009F030E0832F922FE2CF90E080E0089550
:1006100080E892E00E940F0C83EC92E00E94670F4A
:100620008BEB92E00E94CE0D81EA92E00E946B0D6E
:100630008AEE92E00C94461383EC92E00E947F0FC6
:100640008BEB92E00E94C10D81EA92E00E94770C50
:1006500090E080E00895811102C00E945A0790E066
:1006600080E0089580913C0190913D010E949505A4
:100670000E9410148AE00C94BB0880913C01909178
:100680003D010C949B0683E593E00E94B11880E93C
:1006900093E00E94161A82E793E00E94301985EFDA
:1006A00093E00C94E11AEEE3F1E050E040E070E0FA
:1006B00060E000009191A92FB0E084E0B595A79586
:1006C0008A95E1F790962C9130E09F7002C03595A5
:1006D00027959A95E2F72095309521703327042EBF
:1006E00002C0220F331F0A94E2F7622B732B4F5F75
:1006F0005F4F4C305105E9F6CB010895EF92FF9220
:100700001F93CF93DF93CAE6D2E072E6E72E72E042
:10071000F72E1BE028813981F70180819181482FD4
:10072000440F4270522F5170452B09F016C1AC0195
:1007300056954795440F427021FB552750F9452B9C
:1007400009F0FFC0AC015695479556954795440F63
:10075000427022FB552750F9452B09F0E6C0AC0149
:10076000569547955695479556954795440F42702F
:1007700023FB552750F9452B09F0CBC0AC0152950E
:1007800042954F7045275F704527440F427024FB08
:10079000552750F9452B09F0B0C0AC015695479547
:1007A000529542954F7045275F704527440F427020
:1007B00025FB552750F9452B09F093C0AC010024C7
:1007C000440F551F001C440F551F001C452F502D72
:1007D000440F427026FB552750F9452B09F075C090
:1007E000AC01440F452F441F550B5195440F4270E7
:1007F00027FB222720F9422B09F05CC0492F440F28
:100800004270232F2170422B09F049C031FB22276F
:1008100020F9492F4270422BB9F5492F4695427075
:1008200032FB222720F9422B21F5292F26952695E8
:10083000227033FB442740F9422B79F48993999332
:10084000F2E0EF0EF11C145F1B3309F063CFDF9170
:10085000CF911F91FF90EF900895612F80E090E07D
:100860000E944A08F701819191917F0189939993A0
:10087000EACF6FEF610F80E090E00E944A08398173
:10088000F70180819181D1CF6EEF610F80E090E020
:100890000E944A083981F70180819181BECF6DEFB6
:1008A000610F80E090E00E944A083981F701808161
:1008B0009181ACCF6CEF610F80E090E00E944A081C
:1008C0003981F7018081918199CF6BEF610F80E0D1
:1008D00090E00E944A0828813981F7018081918146
:1008E0007FCF6AEF610F80E090E00E944A08288184
:1008F0003981F7018081918161CF69EF610F80E0DB
:1009000090E00E944A0828813981F7018081918115
:1009100044CF68EF610F80E090E00E944A08288190
:100920003981F7018081918129CF67EF610F80E0E4
:1009300090E00E944A0828813981F70180819181E5
:100940000ECF66EF610F80E090E00E944A08288198
:100950003981F70180819181F5CE65EF610F80E0EB
:1009600090E00E944A0828813981F70180819181B5
:10097000DECECF93C82F83E593E00E940C186C2F36
:10098000811105C083E593E0CF910C944B1880E969
:1009900093E0CF910C94C0191F93CF93DF93EC0198
:1009A0001D818C81182313FF03C081EE0E94B904BE
:1009B00010FF03C080EE0E94B90411FF03C082EE55
:1009C0000E94B90412FF03C086EE0E94B90414FF0E
:1009D00003C083EE0E94B90483E593E00E940C18E3
:1009E0006E81811117C0662371F083E593E00E9448
:1009F000721883E593E00E940F186E8183E593E0FF
:100A00000E944B181E8283E593E0DF91CF911F91E6
:100A10000C940F18662371F080E993E00E94E719A7
:100A200080E993E00E9460196E8180E993E00E9462
:100A3000C0191E8280E993E00E94601982E793E06A
:100A4000DF91CF911F910C940A19FC011682158237
:100A500083E593E00E940C18811104C083E593E0C4
:100A60000C94AA1880E993E00E94101A82E793E0A0
:100A70000C94F718CF930FB6F894A8958091600066
:100A8000886180936000109260000FBEAEE3B1E019
:100A90004AE451E061E070E08D91E82FF0E024E05D
:100AA000F595E7952A95E1F7C1A18F709B0101C0EB
:100AB000220F8A95EAF7922F90959C2391A382A109
:100AC000822B82A34A175B0739F7AAE4B1E04EE410
:100AD00051E061E070E08D91E82FF0E094E0F59551
:100AE000E7959A95E1F791A18F709B0101C0220FC4
:100AF0008A95EAF7922B91A382A1822B82A34A17AF
:100B00005B0749F780E1809381001092800080E2CA
:100B100095E3909387008093860081E18093810024
:100B200081E080936F00CF910895CF9340E855E224
:100B300060E070E081E294E00E94E31D0E947D028B
:100B40000E9488020E9443038EE493E00E943A05CB
:100B50000E942A07C0E08C2F0E94D006CF5FC033CE
:100B6000D1F7CF9108953F924F925F926F927F920B
:100B70008F929F92AF92BF92CF92DF92EF92FF92AD
:100B80000F931F93CF93DF93CAE2D2E022E6822E27
:100B900022E0922E3AE4A32E31E0B32E4AE5442E11
:100BA00042E0542E66246394712C63E0362E8881D3
:100BB00003E010E021E0882329F08150888302E0DF
:100BC00010E020E090E08981882321F08150898322
:100BD000022F192F8A818111ABC004608B81811192
:100BE000A4C008608C8181119DC000618D8181113C
:100BF00096C000628E8181118FC000648F81811147
:100C000088C000688885811181C011608985811143
:100C10007AC012608A85811173C014608B8581113E
:100C20006CC01860F50181915F01E82EF12CF594FC
:100C3000E794F594E794F594E794F594E794F70135
:100C400092A18F70630101C0CC0C8A95EAF7892FBD
:100C50008C2582A30E945303F401208131818227D5
:100C600093270823192302271327F70182A1C826F7
:100C7000C2A2F401208131812027312720FD388252
:100C800021FD398222FD3A8223FD3B8224FD3C82F4
:100C900025FD3D8226FD3E8227FD3F8230FD3886C0
:100CA00031FD398632FD3A8633FF1DC03B86F401A3
:100CB000019311934F012C96F2E0CA35DF0709F03A
:100CC00076CFDF91CF911F910F91FF90EF90DF9042
:100CD000CF90BF90AF909F908F907F906F905F90DC
:100CE0004F903F900895F401019311934F012C967A
:100CF0004C165D0609F05BCFE4CF81508B8792CF15
:100D000081508A878BCF8150898784CF8150888793
:100D10007DCF81508F8376CF81508E836FCF81506E
:100D20008D8368CF81508C8361CF81508B835ACF64
:100D300081508A8353CF0E941F1C6093910170934E
:100D4000920180939301909394010E949702809165
:100D50004E03882331F010924E038EE493E00E94FC
:100D6000B3050E947E030E94080385E493E00E947D
:100D7000CC0485E493E00E9425050C941C0370E0EC
:100D800090E3899F600D711D1124660F771FFB0191
:100D9000E455FF4F8491FB01E355FF4F9491089573
:100DA000CF93DF93282F30E0E901CC0FDD1FCB5329
:100DB000DE4F2B563E4FE0910101F0910201682F6A
:100DC000D9018C91099599838883DF91CF910895FA
:100DD000CF92DF92EF92FF92C0902602D09027022E
:100DE000E0902802F090290280910001815090E06B
:100DF000282F0097A1F0B701A601082E04C0769510
:100E00006795579547950A94D2F7019740FFF0CF21
:100E100020932502FF90EF90DF90CF9008951092DD
:100E20002502F8CF0F931F9340912602509127027D
:100E300060912802709129028A019B0104C03695B5
:100E40002795179507958A95D2F7C80181701F914C
:100E50000F9108950F931F93CF93DF93E5E9F1E08E
:100E600080E3DF011D928A95E9F78F01D0E0D0334E
:100E7000E1F0C09125021C1694F48C2F0E941207F9
:100E8000882389F0E0910101F09102016D2F8C2FF0
:100E900009958F3F11F49F3F31F0F801C083DF5F68
:100EA0000F5F1F4FE4CFC150E6CFDF91CF911F916D
:100EB0000F910895282F80910001281708F020E055
:100EC00081E090E0A0E0B0E004C0880F991FAA1F65
:100ED000BB1F2A95D2F78093260290932702A093F6
:100EE0002802B09329020E94E8060E942A070C9467
:100EF00005030F931F930091260210912702209162
:100F0000280230912902B901A801082E04C0769563
:100F10006795579547950A94D2F740FF28C041E05E
:100F200050E060E070E0082E04C0440F551F661FBB
:100F3000771F0A94D2F7409550956095709540239D
:100F40005123622373234093260250932702609318
:100F500028027093290290912502981302C00E94E2
:100F6000E8060E942A071F910F910C9405031F9118
:100F70000F910895CF9390910001891780F5C82FA4
:100F80000E94120781112BC081E090E0A0E0B0E048
:100F90000C2E04C0880F991FAA1FBB1F0A94D2F7FA
:100FA00040912602509127026091280270912902F7
:100FB000842B952BA62BB72B809326029093270288
:100FC000A0932802B0932902809125028C1710F477
:100FD0000E94E8060E942A07CF910C940503CF9146
:100FE0000895809125028F5F0C94BA0780912502A5
:100FF0000C947907CF93962F9270843540F0992303
:10100000E1F160FD3AC08455CF910C945A07C82F86
:101010008A3230F1CA52C13251F0C23281F4617069
:10102000992349F1611129C0CF910C94F1076170A6
:10103000992329F1611121C0CF910C94F6079923CE
:1010400049F08C2F0E941207811117C08C2FCF916D
:101050000C94BA0760FF11C08C2FCF910C947907C4
:10106000992359F060FD09C00E941207882371F38B
:10107000CC2361F3F1CF6111DFCFCF9108956623C7
:10108000E1F3D2CF943429F4642F0E94FA0780E070
:1010900090E008950C94E7241F920F920FB60F92E0
:1010A00011248F9381E080934E038F910F900FBE98
:1010B0000F901F9018951F93CF93DF939091740218
:1010C000891730F080E090E0DF91CF911F91089573
:1010D000C62FD0E090E3899FC00DD11D1124CC0F05
:1010E000DD1F6091750270917602C60FD71FCE0189
:1010F0000E94F127182FCE0101960E94F127912F0F
:10110000E3CF90917302891710F40C94BF06891BEA
:101110000C945B08FF920F931F93CF93DF93EC0126
:10112000F62E08811981C8010E94F127F81621F0D6
:101130006F2DC8010E94F927CE01DF91CF911F9139
:101140000F91FF90089589E792E00E94E109809154
:1011500000018093730290E080E008958093740210
:1011600020E6829FC00111240E943B0A90937602E0
:101170008093750208958093000190917C022BE585
:1011800038E097FD07C090917302980F909300018B
:1011900021E838E030930201209301010C94AE085D
:1011A000FF920F931F93CF93DF9300D0CDB7DEB79D
:1011B000F62E672F8C01000F111F80917502909100
:1011C0007602800F911F9A838983CE0101960E9437
:1011D0008A0880917502909176020196800F911F86
:1011E0009A8389836F2DCE0101960E948A080F9001
:1011F0000F90DF91CF911F910F91FF900895FF9273
:101200000F931F93CF93DF93F82E8B01C0E0CF1580
:10121000D9F0D0E06D2F8C2FF8010995692F70E07F
:10122000762F6627680F711D4AE050E081E294E056
:101230000E948A1F60E281E294E00E940D1FDF5F3E
:10124000D03341F7CF5FE3CFDF91CF911F910F9163
:10125000FF900895FF920F931F93CF93DF931F92F8
:10126000CDB7DEB78B014EEE51E080E892E00E94F0
:10127000D70B811191C047E050E066EE71E0C801E4
:101280000E94D627892B09F087C0095F1F4F6BED9D
:1012900071E0C8010E94CD27892BD1F581E294E04D
:1012A0000E94F51C0A9799F460917C0267FB6627FF
:1012B00060F94AE050E081E294E00E94831F60E21E
:1012C00081E294E00E940D1F81E090E067C041E060
:1012D00070E060E081E294E00E94F81F162F6983BD
:1012E000862F0E94AF0A90917402909300011123FF
:1012F00039F08BE598E09093020180930101E4CFEF
:1013000080917302890F8093000181E898E0F3CF08
:1013100063ED71E0C8010E94CD27892B39F46FEB92
:1013200076E0809173020E94FF08CECF6CEC71E0F2
:10133000C8010E94CD27892B79F581E294E00E94B3
:10134000F51C0A9729F46BE578E080917402EBCFE5
:1013500010E000E090E3F92E81E294E00E94F51C99
:101360000A9709F4B1CF809174028F9DC0011124B6
:101370000817190708F0A8CF41E070E060E081E2AB
:1013800094E00E94F81F272F3327722FC8010E9474
:10139000D0080F5F1F4FE0CF90E080E00F90DF910B
:1013A000CF911F910F91FF9008954AE050E0682F70
:1013B00081E294E00E94831F60E281E294E00C9459
:1013C0000D1FEF92FF920F931F93CF93DF9300D0E7
:1013D000CDB7DEB790E080E00E94F127182F809310
:1013E0007C0281E090E00E94F127082F80937D022B
:1013F00082E090E00E94F12780937E0283E090E0FB
:101400000E94F12780937F020F3FF1F4812F8F77A5
:101410008F3719F417FD10927C0281E080937D02D2
:101420008CE7E82E82E0F82E10E000E01A830983B2
:10143000F70161917F01CE0101960E948A080F5F3A
:101440001F4F0430110591F790E080E00F900F904E
:10145000DF91CF911F910F91FF90EF9008958091B0
:101460007A02882329F080917E0290917F0208956C
:1014700090E080E008950F931F93CF93DF9300D007
:10148000CDB7DEB79A83898380917A0210E000E0BD
:10149000811114C0009103011091040189819A8186
:1014A000800F911F909304018093030142E0BE01DD
:1014B0006F5F7F4F87E393E00E947515C8010F901F
:1014C0000F90DF91CF911F910F910895EF92FF92AE
:1014D0000F931F93CF93DF9300D0CDB7DEB78CE788
:1014E000E82E82E0F82E10E000E01A830983F7016D
:1014F00061917F01CE0101960E948A080F5F1F4F04
:101500000430110591F781E080937B020F900F90DA
:10151000DF91CF911F910F91FF90EF900895CF939E
:10152000C82F80910001C81758F48C2F0E945A07C9
:1015300080917C0280789C2F9F77892B80937C02FE
:10154000CE3730F080917C0280788E6780937C0269
:101550000E94660A80917C028F77CF9108959091C6
:101560007C0280FB97F990937C02892F8F778F37CD
:1015700021F490789E6790937C020C94660A81E037
:1015800080937A0260E187E393E00E945C1580918A
:101590007D02813019F010927B02089520917E0225
:1015A00030917F0280913703909138032F3F3207AB
:1015B00069F490937F0280937E020E94660A809174
:1015C0007C028F778E3728F40C945A072817390736
:1015D000B1F3089580917A02811102C00E94BF0A7E
:1015E00090E080E00895CF93DF93EB0141E852E073
:1015F00080E892E00E94D70B81116BC049E050E077
:1016000067E772E0CE010E94D627892B09F061C0FE
:1016100029966AE672E0CE010E94CD27892B59F403
:1016200081E294E00E94F51C0A9709F047C080917E
:101630007C028F7736C063E672E0CE010E94CD2730
:10164000892B91F16BE572E0CE010E94CD27892BA9
:1016500031F167E572E0CE010E94CD27892BC9F5F3
:101660000E942F0AEC0160913703709138034AE021
:1016700050E081E294E00E948A1F65E572E081E219
:1016800094E00E94E91E4AE050E0BE0181E294E04D
:101690000E948A1F81E090E0DF91CF9108958091B0
:1016A0007D020E94D509F6CF80917B020E94F30B48
:1016B00060E281E294E00E940D1FECCF41E070E017
:1016C00060E081E294E00E94F81F862F0E948F0A5A
:1016D000E1CF90E080E0E0CF0F931F93CF93DF93B3
:1016E00000D0CDB7DEB78B0149E352E080E892E04D
:1016F0000E94D70B811158C069E272E0C8010E94B4
:10170000CD27892B11F581E294E00E94F51C10E0B1
:1017100000E00A97E9F181E294E00E94F51C0A9743
:1017200071F141E070E060E081E294E00E94F81F16
:101730001A830983CE0101960E948A080F5F1F4F0A
:10174000011584E0180739F71AC06DE172E0C8018D
:101750000E94CD27892B41F58091030190910401CE
:1017600060E074E0681B790B4AE050E081E294E0AD
:101770000E948A1F60E281E294E00E940D1F81E0D6
:1017800090E00F900F90DF91CF911F910F910895EE
:10179000C8010E94F1270E94D5090F5F1F4F011554
:1017A00084E01807A9F7EBCF90E080E0EACFCF9371
:1017B000DF93CB01EA0165ED72E00E94CD27892B12
:1017C00049F4BE0181E294E00E94181F81E0DF919C
:1017D000CF91089580E0FBCF40ED52E00E94D70BFF
:1017E00090E080E0089565EC72E0882311F06BECE6
:1017F00072E081E294E00C94E91E81E294E00E94A0
:101800000E1D892B59F081E294E00E94F51C0A9785
:1018100029F081E294E00E941E1DF5CF08950F93F8
:101820001F93CF9381E294E00E940E1D892BB9F1A2
:1018300001E812E0C0E081E294E00E941E1DCF5F4B
:10184000F80181938F0181E294E00E94F51C0A97D0
:1018500039F0F80131978081803211F0C03259F7A8
:101860008C2F90E0FC01E058FD4F20812032E9F4FC
:10187000108281E892E00E94DB026AED72E081E270
:1018800094E00E94181F0E94FD0B81E294E00E94E8
:10189000F51C0A9721F481E294E00E941E1D90E05D
:1018A00080E0CF911F910F9108958F579D4FFC01BC
:1018B000DFCFFB0181818036B9F48091A2028830AC
:1018C00080F49081682F70E0FB01EE0FFF1FE60FA0
:1018D000F71FED55FD4F9083418322838F5F8093E7
:1018E000A20281E090E0089590E080E008951092D7
:1018F000A20290E080E00895CF93C42F462F406865
:101900006FEF0E94E724C11109C085E493E00E94B3
:10191000CC0488ED93E0CF910C944B1ACF910895AD
:101920000F931F93CF93DF93EC01062F142F61FFCA
:1019300003C062E00E947C0C00FF09C0412F61E0FF
:10194000CE01DF91CF911F910F910C947C0CDF9110
:10195000CF911F910F910895362F642FFC01849130
:10196000422F932F0C94900C8F929F92AF92BF9224
:10197000EF92FF920F931F93CF93DF93CB010097CA
:1019800009F49EC0F12CE12CEC012196FC0124917C
:10199000EFEFE20FED3008F093C0F0E0EE52F34FBE
:1019A0000C94A4271F0D240D300D3A0D410D480D48
:1019B000520D580D0C0D5E0D160DDF0CF70C8E2C14
:1019C000912CB12CA12CFE010491319622961491F8
:1019D00040E063E0812F902F0E94900CC501B4017C
:1019E0000E94501C0111EFCF1111EDCF17C08E2CAA
:1019F000912CB12CA12C2196FE013197149140E03D
:101A000063E0812F90E00E94900CC501B4010E9418
:101A1000501C1111F0CF02C0FF24F3946E2D70E022
:101A200090E080E00E94501CCE01AECF85E493E0B0
:101A30000E94CC0488ED93E00E944B1AEFCF0296EF
:101A4000FE01E490EC01EACF8C010E5F1F4FFE0116
:101A5000649170E090E080E00E94501CE801DECFCD
:101A6000FE016491EC0123962F2D42E002960E9424
:101A7000AC0CD4CFFE016491EC0123962F2D41E0F4
:101A8000F5CFFE016491EC01239620E043E0EECF18
:101A90008C010E5F1F4F2F2D42E060E0CE010E94AF
:101AA000AC0CDCCF8C010E5F1F4F2F2D41E0F5CF2A
:101AB0008C010E5F1F4F20E043E0EFCFF12CAECF43
:101AC000DF91CF911F910F91FF90EF90BF90AF905A
:101AD0009F908F900895CF93C0E08091A202C81785
:101AE000B8F48C2F90E0FC01EE0FFF1FE80FF91FF8
:101AF000ED55FD4F818180930501628180810E94B7
:101B00002B03BC0181EA92E00E94B40CCF5FE5CFC9
:101B100090E080E0CF9108950F9320919101309152
:101B200092014091BC025091BD02B901641B750B3A
:101B3000AB01609106017091070164177507F8F415
:101B40003093BD022093BC0200E02091080180FD8B
:101B500010C020910801219500E081FD0AC000918C
:101B60000801019582FD04C083FF09C000910801AE
:101B700020E040E060E088ED93E00E94241A0F919D
:101B8000089588ED93E00E944B1A88ED93E00E943F
:101B90002C1A1092C20290E080E008959091C20247
:101BA000911105C010923B0390E080E008952091D0
:101BB0009101309192014091C0025091C102B9014E
:101BC000641B750BAB0160910C0170910D016417E2
:101BD000750750F73093C1022093C0024091BE02B6
:101BE0005091BF02B901641B750BAB0160910901F3
:101BF00070910A016417750790F480913B0360911E
:101C00000B014FEF50E0461B5109841715061CF4D9
:101C1000860F80933B033093BF022093BE026091F6
:101C20000E01619590FF60E091FF03C080910E016D
:101C3000680F80910E01819592FF80E093FF03C0B1
:101C400090910E01890F0E949316AECF0F931F93B0
:101C5000CF93DF93CDB7DEB72A970FB6F894DEBFE8
:101C60000FBECDBFFB018181803509F07DC0608151
:101C7000962F9072822F8270362F307466FF10C0BC
:101C8000911110C0162F1F7B2170811126C071F198
:101C9000612F88ED93E00E94371A0E94E81526C054
:101CA000992339F1882311F120FD20C091E03111F1
:101CB00001C090E082E060FF80E0892B94E061FF4A
:101CC00090E0892B98E062FF90E0892B90E163FF20
:101CD00090E0892B0E94F11509C0211102C00E94D9
:101CE000EB15612F88ED93E00E94321A81E090E0BD
:101CF0003DC02170882309F444C0211116C0809191
:101D00009101909192019093C1028093C0029093AF
:101D1000BF028093BE022091060130910701821B11
:101D2000930B9093BD028093BC02808184FF03C01B
:101D30000E948C0DDBCF9091C202892B8093C2024E
:101D4000D5CF84FF08C080E091E02CC084FF07C09D
:101D500081E090E027C080E090E031E024C080E0A6
:101D600090E030E051E020C090E080E02A960FB68D
:101D7000F894DEBF0FBECDBFDF91CF911F910F91C1
:101D80000895222309F4B2CF60958091C20268239E
:101D90006093C2028081982F937099F6982F9C705F
:101DA000A9F680E030E050E025E0E8EDF3E0DE0168
:101DB000119601900D922A95E1F725E0FE013196EA
:101DC000DE01169601900D922A95E1F76F81488504
:101DD00029850A85511160E0311140E0911120E020
:101DE000811100E088ED93E00E94241A7FCFCF9309
:101DF000DF9300D000D000D0CDB7DEB788ED93E000
:101E00000E947D1AE4E0F4E0108A86859785248597
:101E1000358519823B832A839D838C831E820284AD
:101E2000F385E02D0190F081E02D46E050E0BE0109
:101E30006F5F7F4F8EE094E0099590E080E02696FA
:101E40000FB6F894DEBF0FBECDBFDF91CF910895DE
:101E500020919101309192018091E8029091E902E4
:101E6000281B390B81E04091130150911401421756
:101E7000530708F080E00895292F30E0322F222701
:101E8000F901E80FF11DEE0FFF1FEA53FD478081B6
:101E900082FB882780F90895883038F4805290E0DA
:101EA000462F40686FEF0C94E7248E5D94E4F8CFE2
:101EB00062E00C944C0FE82FF0E0EE0FFF1FE853A8
:101EC000FD4F90819E7F908361E00C944C0FCF93E7
:101ED000DF93D0E0C0E0FE01EE0FFF1FE853FD4F9F
:101EE000808180FF03C08C2F0E94580F2196C8303C
:101EF000D10589F790E080E0DF91CF910895FF92BE
:101F00000F931F93CF93DF9390E080E0FC01EE0FDF
:101F1000FF1FE853FD4F208120FD3FC00196803117
:101F20009105A1F7D0E0C0E090E08091C502882340
:101F3000B9F08E01000F111F08531D4FF801808169
:101F400083FF20C0F090C402FF2051F0877F808380
:101F50008C2F0E945B0FF80180818D7F80839F2DE5
:101F60002196C031D10509F7992321F01092C502BD
:101F70001092C40290E080E0DF91CF911F910F9109
:101F8000FF900895182F117080FFEACF81FDE8CFF0
:101F90008C2F0E945B0F912FE3CF0E94280F882384
:101FA00009F281E08093C5021092C402BBCFFF9278
:101FB0000F931F93CF93DF93D0E0C0E08E01000F0B
:101FC000111FF801E853FD4F808180FBFF24F0F8DA
:101FD00080FF04C00E94280F882391F0F801E85385
:101FE000FD4F808181FBFF24F0F881FD09C083FB58
:101FF000FF24F0F883FD04C02196C031D105F1F62D
:102000008F2DDF91CF911F910F91FF9008958F92A7
:102010009F92AF92BF92DF92EF92FF920F931F9326
:10202000CF93DF9327FDD2C0D22FD42E8B01DB01BB
:102030001196EC9011978E2D90E0982F8827EC90B8
:10204000E80EF92EF11CCFEFCE0D0E94D70FB1E0B4
:10205000EB1AB0ECFB0A811121C0E0E1EE16F104AD
:1020600008F0B4C08D2F8270D0FFBBC0811108C0B2
:10207000D0E0CC0FDD1FC853DD4F88818D7F888372
:1020800081E090E0DF91CF911F910F91FF90EF9051
:10209000DF90BF90AF909F908F9008959D2F92708A
:1020A000B0E1EB16F10408F07AC0EC2EF12CEE0C46
:1020B000FF1CF701E853FD4F808183FF13C0992374
:1020C000F9F2D0FDDDCFD8012D913C913093C702BC
:1020D0002093C602877F80838C2F0E945B0F109213
:1020E000C502CECFD0FD3AC0992351F282608083E1
:1020F0009091C602F80180818090910190909201A8
:10210000981343C09091C702818198133EC0A0806C
:10211000B180C5010E943C0F8823B9F180910F0165
:10212000909110018F3F980721F4809113019091B5
:1021300014012091E8023091E902821A930A88156D
:10214000990508F49DCFF701E853FD4F8081886021
:102150008083B092C702A092C60292CF911190CF15
:102160008D7F808380919101909192012091E8026E
:102170003091E902821B930B2091110130911201E1
:102180002817390708F07CCFA7CF9092E9028092F8
:10219000E802F701E853FD4FD182808136C09923D0
:1021A000A9F0F801808191819093C7028093C602C3
:1021B0004181242F30E0322F22278081820F932FFC
:1021C000911D803E910528F4443439F490E080E07C
:1021D00059CF883E9105C0F7F9CF81E08093C502C1
:1021E000F5CF882309F44CCF809191019091920111
:1021F0009093E9028093E802EC2FF0E0EE0FFF1FCE
:10220000E853FD4FD1828081826081608083D80154
:102210008D919C919093C7028093C6028C2F0E944F
:10222000580F2ECF90E080E0FC01EE0FFF1FE85327
:10223000FD4F208124602083019680319105A1F714
:102240000895EF92FF920F931F93CF93DF93EC01CA
:102250008B016C812C8D42E020FD41E09B819150EF
:102260009B83DE011496FE013C9630E0391750F452
:1022700011968C9111978D93E280F380E192F19207
:102280003F5FF4CF30E0359527952C8F81E089A30F
:10229000C8010E94E72419A2DF91CF911F910F91ED
:1022A000FF90EF900895FC01872F90E0982F8827EA
:1022B000680F792F711D613180EC7807E0F0623191
:1022C00088EC780750F46151704C62A313A215A2F8
:1022D00080EE870F84A381E00895633180ED780755
:1022E00050F46251784C62A313A28AE2870F84A350
:1022F00084E485A3F0CF80E008958F929F92AF92FF
:10230000BF92CF92DF92EF92FF920F931F93CF93E2
:10231000DF9300D000D0CDB7DEB78C01C62E862F5C
:1023200090E09C012B563E4F7901E0910101F09124
:102330000201D9018C9109955C01BC01C8010E9480
:102340005311D82E811138C0F7018080F12CEE2472
:10235000EA94912CD80112968C91F81608F040C09E
:10236000B4E0FB9EC0011124F80160817181680F07
:10237000791FEA8244E050E0CE0101960E94C42712
:1023800089819A813B812C81C91228C0482F082E4F
:10239000000C550B4815590511F08F3FF9F4D80181
:1023A0009396BC92AE929297C90194969C939497FF
:1023B00095962C93DD24D3948D2D0F900F900F9034
:1023C0000F90DF91CF911F910F91FF90EF90DF90D1
:1023D000CF90BF90AF909F908F900895F394BACF15
:1023E000F801B3A2A2A28FEF84A385A3E5CFCF9378
:1023F000DF93FC01EB019A01261B370BA4E6B0E04A
:102400000E94AA27268D30E050E040E00E948227FB
:102410008091910190919201BC016C1B7D0B81E038
:102420002617370708F480E0DF91CF910895FC016B
:10243000349690E0941729F08191861721F09F5FE0
:10244000F9CF80E0089581E00895292F207C31F4B0
:10245000805E91E0883038F090E005C09434E1F778
:1024600091E08A32C8F3892F08957F928F929F92CC
:10247000AF92BF92CF92DF92EF92FF920F931F9392
:10248000CF93DF93FC012381222309F475C0EC0173
:10249000848D60E070E080FD6CC08480682DCF0189
:1024A0000E947D11AAA0BBA0882309F461C01D8DE4
:1024B000112309F45DC0C5010E942512782E9B806E
:1024C0006E01EE24E394F12C00E02E2DE91408F0C7
:1024D0005FC08C8D90E00E2C02C0959587950A9474
:1024E000E2F780FD0CC0711043C0002309F44EC018
:1024F000FFEFCF1ADF0A8FEFE81AF80AE6CFF601EE
:102500009581FE01359681E0891238C0002319F0CB
:102510008E8D811119C0772019F06CA17DA102C0A8
:102520006AA17BA1CE010E942111812FDF91CF9161
:102530001F910F91FF90EF90DF90CF90BF90AF90E1
:102540009F908F907F900895F701EE0FFF1FEC0F83
:10255000FD1F44855585E02FF0E0EE0FFF1FEC0FC7
:10256000FD1F64857585CE010E94F7118111C0CFD2
:10257000B501CE010E94211111E0D7CF821708F0DA
:10258000B7CF3191931749F28F5FF8CF0E2DB0CFAF
:10259000E8E010E09E12C9CFEBCF0F931F93CF93CB
:1025A000DF934033C0F427FD16C0FC0131A1311187
:1025B00012C08B01EC01858D811110C0FB0160817F
:1025C0007181CE010E945311882329F08AA19BA119
:1025D000F8019183808390E080E01FC0A22FA1705A
:1025E000B22FB27021FF1EC0AA23F1F05B81FE0161
:1025F000349690E080E0851770F7282F319101968E
:102600004313F9CF8C8D90E002C0959587952A955C
:10261000E2F78095909581709927DF91CF911F9176
:102620000F910895AA2311F38B81282F30E0FE012A
:10263000E20FF31F4483220F331FFE01E20FF31F4B
:1026400020919101309192013587248741E050E03B
:1026500060E070E0082E04C0440F551F661F771F0E
:102660000A94D2F79C8DAA2371F0B1110CC0942B5F
:102670009C8F8F5F8B83883019F4CE010E943512B6
:1026800081E090E0CACF40959423F2CFFF920F9360
:102690001F93CF93DF93EC0110E0FF24F3948B8121
:1026A0001817F8F48C8D90E0E12FF0E0012E02C0B5
:1026B000959587950A94E2F780FF11C0EC0FFD1FF6
:1026C0000481412F602FCE010E941712811107C093
:1026D000F9A243E0602F90E00E94E72419A21F5F57
:1026E000DECFCE010E94351281111AC08091910176
:1026F000909192012C853D85821B930B2F8D38A1E3
:102700002817390768F40AA11BA1C8010E942512E5
:10271000B801811102C06CA17DA1CE010E942111DE
:1027200090E080E0DF91CF911F910F91FF9008958D
:10273000CF93DF93CAEED2E0198218821A821B82ED
:1027400088E0EDE2F1E0AEEEB2E001900D928A9504
:10275000E1F781E08D8F80E58E8F8AEF90E098A37E
:102760008F8F19A28FEF8AA38BA38CA38DA3DF91E8
:10277000CF910895FC019081DB018C91981305C0E5
:1027800081E0218111969C91291380E00895809128
:10279000110381113EC010921F0310922103109269
:1027A000200381EE8093190310921A0386E280932E
:1027B0001B0388E080931C0310921E0310921D03DC
:1027C0001092280310922A031092290395EE9093F9
:1027D00022031092230397E290932403809325030E
:1027E00010922703109226031092310310923303A4
:1027F0001092320310922B0310922C0310922D038F
:1028000010922E031092300310922F0381E08093D8
:10281000110389E193E09093360380933503089583
:1028200081E08093340308954F925F926F927F927C
:102830008F929F92AF92BF92CF92DF92EF92FF92D0
:102840000F931F93CF93DF9300D000D0CDB7DEB7A7
:102850006B01B42E022FFB01818190E0982F882715
:10286000208130E02855314D820F931F029728F4C4
:1028700001FD0AC081E090E0B7C080913403882355
:1028800011F190E080E0B0C000FDF4CF88E58983CD
:1028900081ED8A83BE016F5F7F4FC6010E94BA132C
:1028A000882319F010923403E5CF89E58983BE01AE
:1028B0006F5F7F4FC6010E94BA138823D9F281E06F
:1028C00080933403D7CF07FDDCCF19821A82BE0173
:1028D0006F5F7F4FC6010E94BA13182F8111D1CFAD
:1028E000F02FF1707F2E802F8270682E01FF4FC075
:1028F000FF2309F44FC0512CA12C412C09E01B826D
:102900001C82E0903503F09036034701A09E800CB6
:10291000911C1124BE016D5F7F4FC4010E94BA1348
:10292000882309F49BC019821A82BE016F5F7F4F12
:10293000C40102960E94BA13882309F48FC0F401DF
:1029400084819581892B09F089C0112309F499CFDD
:10295000409E80011124F701E00FF11F2481358191
:102960002115310521F42091150130911601809136
:1029700091019091920147815085841B950B2817F6
:10298000390708F07DC01682108617827ACFF111C0
:10299000B2CF77CF00E089E0982E882483941B8201
:1029A0001C82099D50011124E0903503F0903603FC
:1029B000EA0CFB1CBE016D5F7F4FC7010E94BA137A
:1029C000882339F119821A82BE016F5F7F4FC701D8
:1029D00002960E94BA138823E1F0F7018481958161
:1029E000892BB9F4812F90E00F900F900F900F90EA
:1029F000DF91CF911F910F91FF90EF90DF90CF90DB
:102A0000BF90AF909F908F907F906F905F904F900E
:102A10000895B701C6010E94BA13F701882351F047
:102A200086822091910130919201308727830F5F38
:102A3000182FB5CF8681882331F042E86FEF80816F
:102A400091810E94E724E0913503F0913603EA0D6D
:102A5000FB1D168210861782812FE9CFF401F680C4
:102A6000F1100CC0F12EB601C4010E94BA138111FD
:102A700001C0852DA394582E1F2D41CF4A2CF3CF92
:102A8000552009F4FECE772009F4F4CE6110F2CE81
:102A900042E86B2D828193810E94E724E091350307
:102AA000F0913603E00FF11F168210861782E2CEF6
:102AB00080E193E00C94C713FC01208131812170E7
:102AC000332781E0861770F44081518156954795F0
:102AD00051834083220F331F41705527242B352B00
:102AE0008F5FF0CF318320830895DC01FB014150DB
:102AF00000F181912D913C91119768E070E051E0D7
:102B0000982F952399F4932F991F9927991F220F96
:102B1000331F992319F095E029273058550F61503C
:102B2000710971F711963C932E93E1CF932F9095F5
:102B3000EBCF089510923803109237030895CF9386
:102B4000DF9300D000D000D0CDB7DEB73695279503
:102B5000820F931F56954795640F751FE4E0F4E0CC
:102B60009587848777876687208929839B838A83D3
:102B70007D836C831E820284F385E02D0190F081B9
:102B8000E02D46E050E0BE016F5F7F4F8EE094E0A5
:102B9000099526960FB6F894DEBF0FBECDBFDF9124
:102BA000CF91089510923E0310923D03109240037E
:102BB00010923F038FEF9FE790934403809343036A
:102BC000909342038093410381E080933C030895F6
:102BD00010923C03089580913C0381110C94D2150E
:102BE00008950F931F93CF93C82F80913C038111B9
:102BF00002C00E94D215C0FF06C010923C03CF91C4
:102C00001F910F910895E09119010E2F10E080910E
:102C1000430390914403B8010E945A279B0170938B
:102C20004403609343038091410390914203B801B0
:102C30000E945A27AB0170934203609341036C2FAB
:102C40006470E0913F03F091400380913D039091C7
:102C50003E037C2F7670763091F4820F931F909311
:102C60003E0380933D03BA016E0F7F1F70934003B4
:102C700060933F03CF911F910F910C949F15662392
:102C800049F1D8011197A49FB001A59F700DB49F81
:102C9000700D1124E60FF71FF0934003E0933F03FC
:102CA000C4FF1DC001501109029FB001039F700DA8
:102CB000129F700D1124860F971F90933E038093EF
:102CC0003D0360913F037091400380913D039091DB
:102CD0003E03D0CFC1FDE4CFE40FF51FDDCFC3FD30
:102CE000F0CF820F931FE9CF482F50E087FD0AC035
:102CF000889FC0011124880F892F881F990B9195F7
:102D00008F5F089520E031E0241B350B229FC00126
:102D1000239F900D900D1124880F892F881F990BE8
:102D2000919580950895EF92FF920F931F93CF9303
:102D3000DF93182F062F80911801C82FD0E01123A0
:102D400009F492C0662389F123E6829FC001112411
:102D50006CE870E00E946E276115710509F0EB01C7
:102D6000212F012E000C330B43E61402C001112465
:102D70006CE870E00E946E276115710509F09B01F7
:102D8000122F202F002E000C330B43E60402C0014B
:102D900011246CE870E00E946E276115710509F03E
:102DA0009B01022F112309F45FC080913B030E9415
:102DB000741620913A03382F1303C0011124820F97
:102DC000911D27FD9A957E01C817D90744F0EE247E
:102DD000FF24EC1AFD0AE816F9060CF47C01002326
:102DE00009F445C080913B030E9474162091390379
:102DF000482F0403C0011124820F911D27FD9A95CD
:102E0000C817D9073CF0D195C195D109C817D90782
:102E10000CF4EC0110923C032091170130E0CE013C
:102E2000B9010E946E27462FC701B9010E946E2783
:102E300000E020E088ED93E00E94241A2091170121
:102E400030E0C701B9010E946E2780933A03CE019A
:102E5000B9010E946E2780933903DF91CF911F91B2
:102E60000F91FF90EF900895F12CE12CB8CFD0E0B6
:102E7000C0E0D0CFE5E4F3E0148215821682089515
:102E8000FC0182818F5BFB01808381E00895CF93F9
:102E9000DF93CDB7DEB769970FB6F894DEBF0FBEEC
:102EA000CDBFFC01DB019C919F5F9C939E012D5F38
:102EB0003F4F81E1D9011D928A95E9F729E02983E5
:102EC00084E08A8391E09D8383E08E839F8398874B
:102ED0002A8721E22B879C879D879F8722E2288B68
:102EE0002FE3298B27E02B8B25E02C8B8E8B20E486
:102EF00030E0388F2F8B998F82818B83838180681C
:102F00008D8B49E150E0BE016F5F7F4F80E00E94F2
:102F10002D2269960FB6F894DEBF0FBECDBFDF91AC
:102F2000CF910895FC01DB018C918138A9F41396AF
:102F30008C911397823281F4228114968D919C9109
:102F40002817190649F48285848F4FE350E06EED0F
:102F500072E080E80C942D2290E080E00895FC015E
:102F6000DB01228114968D919C91159728171906E3
:102F700081F511968C9111979C91913A69F4813069
:102F800029F0833029F4848D8093F10081E0089545
:102F90008230F9F4858DF8CF9132D9F48B3021F459
:102FA00012968C91848FF2CF8A3011F4158EEECF69
:102FB000893079F4CF0116962D913C91179713968D
:102FC0004C91423041F461E070E04E962130310581
:102FD00051F080E008954130E1F728303105C9F71C
:102FE00068E070E00B960E945322D0CFFC0181E094
:102FF000848385839F01255E3F4F37832683118617
:10300000108622E531E0318320838287848F858F8B
:10301000168E81EC838F0895FC01848D0895EF92C4
:10302000FF920F931F93CF93DF938C01EC012B96AC
:103030007C0183E1E80EF11C48E050E0BE01C701CD
:103040000E94E427892B21F1F801838148E050E0B8
:10305000BE0180640E947C218C01E091A304F09168
:10306000A404309731F09C0148E050E0BE0182E0BA
:10307000099588E0FE01D70101900D928A95E1F74C
:10308000C801DF91CF911F910F91FF90EF900895AC
:103090000FEF1FEFF5CFFC0180E2860F883070F450
:1030A000605E770B21E030E001C0220F6A95EAF7FD
:1030B0008385822B838781E090E00895DF011D9650
:1030C00090E080E02D912617B1F3211104C0E80FA4
:1030D000F91F6587F0CF01968630910599F790E04A
:1030E00080E00895CF93DF9320E2260F283090F4FC
:1030F000605E770B21E030E001C0220F6A95EAF7AD
:103100002095FC0133852323238781E090E0DF9124
:10311000CF910895DC011D969C012D5E3F4FFD016E
:103120004191461303C0EF0121971882E217F3077C
:10313000B9F720E03D91332349F0EC01C20FD11DD6
:103140004D853D87ED01219748832F5FAE17BF075F
:1031500089F7DBCF0B9628E0FC0111922A95E9F75D
:103160000895CF93DF93EC010E94C61EBE010E941A
:10317000821ECE010E94AA18CE01DF91CF910C943D
:103180000F1883E593E00C94F61780918203811168
:1031900013C010928B0310928A038DE193E09093F9
:1031A0008D0380938C0389E190E090938F0380934B
:1031B0008E0381E0809382030E943E276AE873E0D9
:1031C0000C94AB26FC0130E020E041915191452B5D
:1031D00041F4220F331F280F391FF90171836083D7
:1031E00008952F5F3F4F2430310579F7089528E087
:1031F000FC0111922A95E9F70895CF93DF93EC0132
:103200000E943E2728E030E0AE0164E0DF91CF91DC
:103210000C94FB260F931F93CF93DF93EC018C014B
:10322000085F1F4F48E050E0BC01C8010E94E4273E
:10323000892B51F0CE010E94FD1888E0FE01D801D3
:1032400001900D928A95E1F7DF91CF911F910F9137
:10325000089528E0FC0111922A95E9F70C940A19C7
:103260000C94291982E793E00C94C5188091CA0345
:10327000811113C01092D3031092D20386E393E01E
:103280009093D5038093D40381E490E09093D70387
:103290008093D60381E08093CA030E943E2762EDAB
:1032A00073E00C94AB26CF93DF93EC010E943E2792
:1032B0002DE130E0AE0168E0DF91CF910C94FB2668
:1032C000EF92FF920F931F93CF93DF93EC017C015A
:1032D0008DE1E80EF11C4DE150E0BE01C7010E94F6
:1032E000E427892B09F449C00D8D1881802F809522
:1032F000812349F14CE150E0BE016F5F7F4FCE0169
:103300004E960E94E427892BF1F01D8F0E943E27E4
:103310002DE130E0A70168E00E94FB260D8FCE0171
:103320000E945319181619063CF42DE1FE01D7012D
:1033300001900D922A95E1F7DF91CF911F910F91A6
:10334000FF90EF900895812F8095802341F34CE109
:1033500050E0BE016F5F7F4FCE014E960E94E42782
:10336000892BE9F208830E943E272DE130E0AE016F
:1033700068E00E94FB261883D2CF8FEF9FEFDCCF4F
:103380006E3DA0F4E62FE695E695E695E80FF92F59
:10339000F11D677021E030E001C0220F6A95EAF765
:1033A0008181822B818381E090E00895605E6830A6
:1033B00058F441E050E001C0440F6A95EAF7FC017F
:1033C0002081242B2083EFCF90E080E008956E3D94
:1033D000A8F4E62FE695E695E695E80FF92FF11D9E
:1033E000677021E030E001C0220F6A95EAF720956E
:1033F00081812823218381E090E00895605E683018
:1034000060F421E030E001C0220F6A95EAF72095D0
:10341000FC01308123232083EECF90E080E00895EB
:103420002DE1FC0111922A95E9F70895CF93DF93DE
:10343000EC010E94101ACE01DF91CF910C94531928
:1034400080E993E00C9436190F93FC016183428369
:10345000238304830F91089525E0FC0111922A959E
:10346000E9F70895FC019081692B60830895FC01C0
:10347000962F90956081692360830895CF93DF93A1
:10348000EC010E943E2725E030E0AE0161E0DF91D3
:10349000CF910C94FB260F931F93CF93DF93EC01F6
:1034A0008C010B5F1F4F45E050E0BC01C8010E943A
:1034B000E427892B49F445E050E062EE73E0CE0149
:1034C0000E94E427892B51F0CE010E943E1A85E02C
:1034D000FE01D80101900D928A95E1F7DF91CF911D
:1034E0001F910F910895CF93DF93EC010E942C1A46
:1034F000CE01DF91CF910C944B1ACF93DF93EC0167
:103500008091E703811113C01092F0031092EF0332
:1035100087E793E09093F2038093F1038AE390E0CE
:103520009093F4038093F30381E08093E7030E9478
:103530003E276FEE73E00E94AB26CE01DF91CF9164
:103540000C94731A8091F603811113C01092FF033B
:103550001092FE0381EB93E09093010480930004AA
:1035600088E190E0909303048093020481E08093CB
:10357000F6030E943E276EEF73E00C94AB260F9388
:103580001F93CF93DF93EB018A010E943E2798019E
:10359000AE0165E0DF91CF911F910F910C94FB2656
:1035A000CF93DF931F92CDB7DEB7198241E050E091
:1035B000BE016F5F7F4F0E94BF1A0F90DF91CF91C6
:1035C00008950C94D01A0C94D01ACF93DF931F92C5
:1035D000CDB7DEB76983633841F48EE794E00E948B
:1035E00066240F90DF91CF91089541E050E0BE0135
:1035F0006F5F7F4F0E94BF1AF4CF85EF93E00C946A
:10360000A21ACF93DF93CDB7DEB769970FB6F894C0
:10361000DEBF0FBECDBFFC01DB019C919F5F9C9381
:103620009E012D5F3F4F81E1D9011D928A95E9F7F7
:1036300029E0298384E08A8391E09D8383E08E835F
:103640002A8721E22B879C879D879F8722E2288BF0
:1036500025E3298B27E02B8B25E02C8B8E8B20E418
:1036600030E0388F2F8B998F82818B8383818068A4
:103670008D8B49E150E0BE016F5F7F4F80E00E947B
:103680002D2269960FB6F894DEBF0FBECDBFDF9135
:10369000CF9108950F931F93CF93DF93EB018A018E
:1036A000FC01838180640E947C21E091A304F0915D
:1036B000A404309749F09C01A801BE0187E0DF9186
:1036C000CF911F910F910994DF91CF911F910F918D
:1036D00008950A970C944A1BDC01FB0112962C9169
:1036E0001297848195812817190641F49181808170
:1036F000813A31F49D7F81E0913009F080E00895B6
:103700008132E1F79B3029F4828152968C9381E0DB
:1037100008959A3099F7828153968C93F8CFFB01E4
:1037200020812138B1F42381223299F4DC011296F0
:103730004C911297248135814217130651F421E0F0
:1037400052962C9345E350E069EC73E080E80C94CA
:103750002D2290E080E00895CF93DF93EC0181E08B
:103760008C838D839E012F5E3F4F3F832E8319866E
:1037700018861D861C861F861E86188A2EE531E057
:10378000398328832CE631E03B872A878A8B8B8B11
:1037900081EC898B0E94C61EBE01DF91CF910C94F3
:1037A000821E84E094E00C94AC1B1F920F920FB623
:1037B0000F9211242F933F938F939F93AF93BF93B7
:1037C0008091190490911A04A0911B04B0911C04DB
:1037D0003091180423E0230F2D3758F50196A11DD1
:1037E000B11D209318048093190490931A04A09398
:1037F0001B04B0931C0480911D0490911E04A091A1
:103800001F04B09120040196A11DB11D80931D04D9
:1038100090931E04A0931F04B0932004BF91AF9116
:103820009F918F913F912F910F900FBE0F901F90FE
:10383000189526E8230F0296A11DB11DD2CF2FB7F0
:10384000F8946091190470911A0480911B0490916E
:103850001C042FBF08953FB7F89480911D049091E8
:103860001E04A0911F04B091200426B5A89B05C09A
:103870002F3F19F00196A11DB11D3FBFBA2FA92FEF
:10388000982F8827BC01CD01620F711D811D911DEC
:1038900042E0660F771F881F991F4A95D1F7089558
:1038A0008F929F92AF92BF92CF92DF92EF92FF9250
:1038B0006B017C010E942B1C4B015C01C114D104E3
:1038C000E104F104E9F00E944D270E942B1C6819C5
:1038D00079098A099B09683E73408105910570F357
:1038E00021E0C21AD108E108F10888EE880E83E0D1
:1038F000981EA11CB11CC114D104E104F10429F7E4
:10390000FF90EF90DF90CF90BF90AF909F908F90FF
:103910000895789484B5826084BD84B5816084BD47
:1039200085B5826085BD85B5816085BDEEE6F0E038
:10393000808181608083E1E8F0E010828081826094
:103940008083808181608083E0E8F0E08081816015
:103950008083E1E9F0E08081826080838081816002
:103960008083E0E9F0E0808181608083E1ECF0E039
:103970008081846080838081826080838081816097
:103980008083E3ECF0E0808181608083E0ECF0E014
:10399000808182608083E2ECF0E0808181608083BE
:1039A000EAE7F0E0808184608083808182608083A8
:1039B0008081816080838081806880830895CF9337
:1039C000DF931F92CDB7DEB76983DC01ED91FC91E7
:1039D0000280F381E02D41E050E0BE016F5F7F4F38
:1039E00009950F90DF91CF910895CF93DF93EC016C
:1039F0008C859D8597FF05C082E00E944B219D87A5
:103A00008C878C859D85DF91CF91089583E00E94FE
:103A1000622190E0089583E00C94D123FC01848519
:103A2000958597FD06C082E00E94FB2090E00196FC
:103A3000089582E00E94FB2090E00895FC018485B7
:103A4000958597FD05C02FEF3FEF358724870895B3
:103A500082E00C944B21CF93DF93EC018091250100
:103A6000882331F083E00E947C211816190634F077
:103A700081E090E09B838A8380E090E0DF91CF91AA
:103A80000895EEEFFFE72591349181E02B3F3C4D07
:103A900009F080E00895FC0190819E5F908342E4EC
:103AA00050E06EEF73E080E80C942D22FC018181E0
:103AB0009081913A61F4813209F083C047E050E08F
:103AC0006EE171E080E00E942D2281E00895913244
:103AD00009F077C0833269F482819381B0E0A0E07D
:103AE00080931A0190931B01A0931C01B0931D01B8
:103AF000ECCF803239F467E070E08EE191E00E9413
:103B00005322E3CF823209F78281809325010E94FC
:103B1000411DE0E0F8E0882311F0EEEFFAE080913B
:103B20001E0190911F01A0912001B0912101803BC5
:103B30009440A105B105D9F48091250180FD17C0FD
:103B4000EE3F8AE0F80771F587E797E79183808376
:103B5000809160008093710488E19BE00FB6F89437
:103B6000A895809360000FBE90936000AECF8081D7
:103B700091818737974709F0A8CFA8958091600079
:103B80008861809360008091710480936000EE3FB3
:103B90008AE0F80789F08091FE0A9091FF0A9183EC
:103BA000808393CF808191818737980769F29093C2
:103BB000FF0A8093FE0AC8CF1092FF0A1092FE0AF5
:103BC00084CF80E008952FEF3FEFFC0135872487F5
:103BD0000895E1E2F4E01382128288EE93E0A0E01F
:103BE000B0E084839583A683B78382E791E09183D5
:103BF00080838FEF9FEF958784870895EF92FF92E0
:103C00000F931F93CF93DF937B01FC01C281D3817C
:103C100010E000E0209791F0E881F9810280F381C3
:103C2000E02DB701CE01099597FD06C0080F191FB9
:103C30000884D985C02DEECF0FEF1FEFC801DF91AB
:103C4000CF911F910F91FF90EF9008950F931F93C5
:103C5000CF93DF938B01FC01C281D381209771F058
:103C6000E881F9810480F581E02DB801CE01099544
:103C7000009731F40884D985C02DF0CF90E080E022
:103C8000DF91CF911F910F9108950F931F93CF93C1
:103C9000DF938B01FC01C281D381209771F0E88111
:103CA000F9810680F781E02DB801CE010995080F52
:103CB000111D0884D985C02DF0CFF8011082DF9145
:103CC000CF911F910F9108950F931F93CF93DF937F
:103CD0008B01FC01C281D381209771F0E881F981C9
:103CE0000190F081E02DB801CE010995811105C048
:103CF0000884D985C02DF0CF80E0DF91CF911F914E
:103D00000F910895CF93DF93FC01DB01218114967D
:103D10008C911497820F9927991F08978CF5C2816F
:103D2000D381209731F573836283908112969C939F
:103D3000129713962C93139715968C911597890FBC
:103D4000808380E014969C9114978917E8F4169666
:103D5000CD91DC911797C80FD11D9881C181D0E01A
:103D6000CA5DDE4F988391819F5F91838F5FEACF19
:103D7000EC01888599850097D9F7B987A887D5CFB1
:103D800080E0DF91CF91089581E0FBCF80917204B4
:103D900081110DC082E080937A0484E080937B04DB
:103DA00010927D0410927C0481E0809372048AE773
:103DB00094E00895FB0101900020E9F73197AF01ED
:103DC000461B570BDC01ED91FC910280F381E02D45
:103DD0000994EF92FF920F931F93CF93DF938C017F
:103DE0007B01D0E0C0E0F701EC0FFD1F649166237A
:103DF00061F0D801ED91FC910190F081E02DC801B6
:103E00000995892B11F02196EECFCE01DF91CF914C
:103E10001F910F91FF90EF900895DC01ED91FC91BF
:103E20000190F081E02D099460E871E00C94DA1EB5
:103E30000F931F93CF93DF93EC010E94E91E8C0137
:103E4000CE010E94141F800F911FDF91CF911F910F
:103E50000F9108958F929F92AF92BF92EF92FF922F
:103E60000F931F93CF93DF93CDB7DEB7A1970FB614
:103E7000F894DEBF0FBECDBF7C01FA01CB0119A2C1
:103E8000223008F42AE08E010F5D1F4F822E912C04
:103E9000B12CA12CBF01A50194010E948227F90138
:103EA000CA016A300CF5605DD8016E938D01232B39
:103EB000242B252B79F790E080E0109721F0BD01AD
:103EC000C7010E94DA1EA1960FB6F894DEBF0FBE9E
:103ED000CDBFDF91CF911F910F91FF90EF90BF90D9
:103EE000AF909F908F900895695CDECF21153105CA
:103EF00041F4DC01ED91FC910190F081E02D642F03
:103F000009940C942A1F9A01462F50E070E060E05B
:103F10000C94761F9A01AB0170E060E00C94761F60
:103F20000F931F93CF93DF93EC010E941F1C6887B0
:103F300079878A879B87E881F9810484F585E02D5C
:103F4000CE01099597FF15C00E941F1C0885198591
:103F50002A853B85601B710B820B930B0C811D81A5
:103F60002E813F81601771078207930720F38FEF3F
:103F70009FEFDF91CF911F910F910895FF920F93C3
:103F80001F93CF93DF93EC018B01F42ECE010E949F
:103F9000901F97FD1DC08D329105D1F09C012053DB
:103FA00031092A303105A0F0FF2019F08E32910539
:103FB00079F00130110551F00230110589F48D308E
:103FC000910571F05CF40997029750F08FEF9FEF25
:103FD000DF91CF911F910F91FF9008958097B1F7D6
:103FE000E881F9810284F385E02DCE010995CECFD9
:103FF000BF92CF92DF92EF92FF920F931F93CF93D6
:10400000DF938C01C42F40E00E94BE1FFC01C12C35
:10401000D12C760197FD3EC0B12C0C2E000CDD0B8F
:10402000CE17DF07D9F0ED32F10509F43FC0CF011B
:10403000C0970A9798F4AAE0B0E0A70196010E9401
:10404000B9276F01FF0FEE08FF08C60ED71EE81E46
:10405000F91E80E3C81AD108E108F108D801ED91F2
:10406000FC910284F385E02DC8010995C8010E94E6
:10407000901FFC01C0970A9798F2CE17DF0781F2D4
:10408000BB2041F0F094E094D094C094C11CD11CAA
:10409000E11CF11CC701B601DF91CF911F910F9177
:1040A000FF90EF90DF90CF90BF900895BB24B39422
:1040B000D5CF409181045091820420917F043091AA
:1040C000800442175307B4F49091E8009570E1F32F
:1040D0009091E80092FD19C08093F10080918104D5
:1040E0009091820401968F739927892B19F48EEF92
:1040F0008093E800809181049091820401969093CE
:1041000082048093810481E0089580E00895EF9215
:10411000FF920F931F93CF93DF93F82E192FE62E64
:10412000042F81E0860F880F0E94592083E00E94AF
:104130005920CF2DD12FEC0EFD2EF11CCE15DF0511
:10414000B9F007FF13C0FE0184910E945920182F77
:1041500080E00E945920812321968111EFCFDF91C9
:10416000CF911F910F91FF90EF9008958881EDCF2F
:1041700081E0F5CF8091D70081608093D70080EAFD
:104180008093D80089B5806189BD89B5826089BD79
:1041900009B400FEFDCF61E070E080E090E00E9495
:1041A000501C8091D8008F7C80618093D8008091D2
:1041B000E000807F8093E0000895CF93DF931F920B
:1041C000CDB7DEB71982CE0101960E944B1D0E9429
:1041D000C61EBE016F5F7F4F0E94FE1D89810F903A
:1041E000DF91CF9108952FB7FC012083F894677079
:1041F0006093E9000895CF93DF931F92CDB7DEB7A8
:10420000682FCE0101960E94F3208091F2009981DF
:104210009FBF0F90DF91CF910895EF92FF920F9380
:104220001F93CF93DF931F92CDB7DEB79091850494
:10423000992371F157FD2CC08A017B01682FCE01B3
:1042400001960E94F3208091F20090E00817190770
:104250000CF4C801282FF70144E6215030F04093B8
:1042600086043091F1003193F8CF009739F0209116
:10427000F200211103C02BE62093E80029812FBF13
:104280000F90DF91CF911F910F91FF90EF900895C4
:104290008FEF9FEFF5CFCF93DF931F92CDB7DEB7B0
:1042A00041E050E0BE016F5F7F4F0E940D210197FA
:1042B00031F4898190E00F90DF91CF9108958FEFD5
:1042C0009FEFF9CFCF93DF931F92CDB7DEB7682F63
:1042D000CE0101960E94F3209091E800892F807210
:1042E00095FF04C09091F20080E4891B99819FBFE3
:1042F0000F90DF91CF9108955F926F927F928F928E
:104300009F92AF92BF92CF92DF92EF92FF920F9364
:104310001F93CF93DF931F92CDB7DEB7982E6B011B
:10432000B42E052F80918504811113C08FEF9FEF6C
:104330000F90DF91CF911F910F91FF90EF90DF9041
:10434000CF90BF90AF909F908F907F906F905F9035
:1043500008958091830480FF05C08091E000826011
:104360008093E000EB2CF02EA12C8AEF882E892D73
:104370008072682E892D8074582E9AE3792EE1146C
:10438000F10419F4AA2009F457C0892D0E94622172
:10439000182F81110AC08A94882041F261E070E0F0
:1043A00080E090E00E94501CEACF8E151F0411F0AF
:1043B0000CF01E2D692DCE0101960E94F3208091F4
:1043C000E80085FD03C089818FBFD9CF812F90E0A0
:1043D000E81AF90A662029F01150A0F01092F100B5
:1043E000FBCFF60197FC0AC0115050F021912093A9
:1043F000F100FACF24912093F10031961150D0F7BB
:10440000C80ED91EAA2021F07092E800A12CDBCFA3
:104410008091E80085FD08C07092E800AA24A3946A
:10442000E114F10481F2F2CFE114F10461F65520B8
:1044300051F27092E800C7CF84E6809387048B2DF9
:10444000902F76CF1092E90010928204109281048E
:104450009093800480937F040895DF92EF92FF92FF
:104460000F931F93CF93DF93D82E8A01EB017B012B
:10447000E40EF51ECE15DF0559F0D7FE12C0FE0181
:1044800084910E94592021968111F4CF0FEF1FEFE4
:10449000C801DF91CF911F910F91FF90EF90DF90B6
:1044A00008958881EECFCF93DF93EC019B01B4E6B2
:1044B000ABEF21153105F1F0A9012134310514F0DC
:1044C00040E450E08091E80082FFFCCF942FFB0194
:1044D000E21BF30BEC0FFD1F915028F08091F100CF
:1044E00080833196F9CFB0938604A093E800241B13
:1044F000350BDFCFCB01DF91CF9108951F920F9243
:104500000FB60F921124CF92DF92FF920F931F9359
:104510002F933F934F935F936F937F938F939F93CB
:10452000AF93BF93EF93FF93CF93DF93CDB7DEB7F6
:104530006C97DEBFCDBF1092E9008091E80083FF49
:104540002FC089E0FE017596FE2E0F2F815029F0B5
:104550009091F10090833196F9CF84E680938604A0
:1045600082EF8093E8008D8987FF38C09091E80042
:1045700090FFFCCF982F907609F000C19E894F895B
:10458000588D2F89188D911130C0803859F5809140
:1045900084048093F1001092F1008EEF8093E80084
:1045A0006C960FB6F894DEBF0FBECDBFDF91CF91F2
:1045B000FF91EF91BF91AF919F918F917F916F91FB
:1045C0005F914F913F912F911F910F91FF90DF903D
:1045D000CF900F900FBE0F901F9018959EEF909365
:1045E000E800C8CF1092F100D6CF913059F4811174
:1045F000D4CF4130510589F6809184048D7F80931A
:104600008404CBCF933049F48111C7CF4130510599
:1046100021F6809184048260F2CF953041F480913C
:10462000E80080FFFCCF20682093E300B6CF9630EF
:1046300009F076C0CB8CDC8C123039F590E080E04C
:104640000E9422220E94DD201F8299E099831A8312
:1046500091E09E8390EA98879CE09987209181045D
:1046600030918204275F3F4F3C832B838D83C601AB
:104670000E94222249E050E0BE016F5F7F4F80E040
:104680000E942D220E94DD2088CFC6010E94222296
:104690000E94C61E6F2D702F0E94261E009731F0BB
:1046A0000CF07BCF81E28093EB007ACF113061F187
:1046B0001330C1F78F89882381F1823049F440E8B3
:1046C00066E08DE594E00E948720882359F365CF4A
:1046D000813029F440E86AE082E594E0F4CF833049
:1046E00009F70E94C61E8E010F5F1F4FB8010E947E
:1046F000451EF80101900020E9F73197BF01601BCA
:10470000710B40E0C801DFCF60E474E0FB0144912D
:1047100050E080E80E942D2240CF64E674E0F6CF9E
:10472000973009F4BFCF983021F481E08093F100F5
:1047300034CF993009F031CF837009F0B3CFE7E27D
:10474000F1E081E031E096E32191222371F0809342
:10475000E9003093EB00DF0111972C912093EC00DE
:104760009093ED008F5F873079F78EE78093EA00B2
:104770001092EA008F89809385040FCF8B8D9C8DDA
:104780000E942222898D811105C08F2D902F0E94B9
:10479000561D9BCF0E94C61E6F2D702F0E94641E57
:1047A00094CF8093E9008091F200882319F08AE386
:1047B0008093E80008951F920F920FB60F92112474
:1047C0002F933F934F935F936F937F938F939F9319
:1047D000AF93BF93CF93EF93FF93C091E10080918C
:1047E000E100837F8093E100C3FF0FC01092E900D6
:1047F00081E08093EB001092EC0082E38093ED0067
:104800001092850488E08093F000C2FF15C083E019
:104810000E94D12380918704882329F08091870406
:1048200081508093870480918604882329F08091A9
:104830008604815080938604C4FF23C08091E200E7
:104840008E7E81608093E2008091E1008F7E809374
:10485000E100809183048E7E806180938304FF91C8
:10486000EF91CF91BF91AF919F918F917F916F9178
:104870005F914F913F912F910F900FBE0F901F901E
:104880001895C0FFECCF8091E2008E7E806180930E
:10489000E2008091E1008E7E8093E10080918304AC
:1048A0008E7E8160DACF109285041092840410927B
:1048B00083040E94BA20E1EEF0E080818E7E808346
:1048C0008DE08093E200559A209A08958091E0004F
:1048D0008D7F8093E0008091E00081FD11C0809188
:1048E000830480FF0DC08091840481FF09C00E9471
:1048F000BA208091E00082608093E00081E008951A
:1049000080E00895CF93C82F83E593E00E940C18B0
:104910006C2F811105C083E593E0CF910C94721840
:1049200080E993E0CF910C94E719CF93C82F83E5EA
:1049300093E00E940C186C2F811105C083E593E071
:10494000CF910C944B1880E993E0CF910C94C0194F
:10495000CF93DF93FC01D62FC72F972F907C442352
:1049600071F08681811101C0148284818C2B848333
:10497000911104C080E28D0F883018F0D683911118
:1049800022C080E28D0F8830F0F4C3FF03C081EEB7
:104990000E949524C0FF03C080EE0E949524C1FFB1
:1049A00003C082EE0E949524C2FF03C086EE0E94DF
:1049B0009524C4FF03C083EE0E9495248D2FDF91C0
:1049C000CF910C9495248581C82BC583F7CFFF9296
:1049D0000F931F93CF93DF9300D0CDB7DEB79A83A9
:1049E0008983162F042F603308F04DC0842F827006
:1049F000F82E41FF0BC040FD09C08981811176C0AE
:104A00009A81911173C0812F0E94D006812F6CE092
:104A10000E944E27492FE82FF0E0EE0FFF1FE65AC5
:104A2000FD4F20813181C901042E02C096958795E2
:104A30000A94E2F780FF17C000FF50C0F1104EC08B
:104A400081E090E0A0E0B0E004C0880F991FAA1FA9
:104A5000BB1F4A95D2F780959095A095B09582237B
:104A6000932391838083898181110DC08A81811173
:104A70000AC0E12FF0E0EE0FFF1FEB53FE4F8181E4
:104A8000908199838A83402F612FCE0101960E94E5
:104A90009E02892B19F5402F612F89819A810E94EE
:104AA000420889839A83F82E811102C09923B1F0BC
:104AB00069817A811A8116FF33C017FD0FC013FF79
:104AC00021C001FF0BC0612F70E0762F66276F0DAC
:104AD000711D737082E793E00E94E2180F900F90AF
:104AE000DF91CF911F910F91FF90089506FD8BCF1D
:104AF0009A81E12FF0E0EE0FFF1FEB53FE4F808312
:104B0000918384CF10FFEACF802F817001FF4CC0CA
:104B10008111E4CF6F2D85EF93E00E94E51ADECF7F
:104B2000802F817001FF08C041E0811140E085E4E1
:104B300093E00E94A824D2CF882381F207FFCECF32
:104B400080914903812780934903812F807C21F440
:104B500080E28F0D883058F080914B03F81202C02C
:104B600010924B0380914A03812780934A0313FFDD
:104B700003C081EE0E94822410FF03C080EE0E94D9
:104B8000822411FF03C082EE0E94822412FF03C020
:104B900086EE0E94822414FF03C083EE0E948224CA
:104BA0008F2D0E9482249ACF882309F497CF85EF16
:104BB00093E00E94E31A92CFCF93DF93CDB7DEB795
:104BC00069970FB6F894DEBF0FBECDBFFC01DB01C5
:104BD0008C918F5F8C939E012D5F3F4F8DE0D901AB
:104BE0001D928A95E9F729E0298384E08A8391E080
:104BF0009D8383E08E832A8721E22B879C879D8774
:104C00009F8722E2288B27E02B8B25E02C8B8E8B35
:104C100020E430E0388F2F8B998F82818B839585AC
:104C20008685998B8A8B838180688D8B49E150E0E2
:104C3000BE016F5F7F4F80E00E942D2269960FB604
:104C4000F894DEBF0FBECDBFDF91CF910895EF92F4
:104C5000FF920F931F93CF93DF93FB0120812138A5
:104C6000A1F52381223289F5DC0112964C91248131
:104C700035814217130649F5EC0181E00E944C276B
:104C80000B851C85F12CE12C0115110589F0F8012B
:104C9000448155816281738180E80E942D228F3F7B
:104CA000980761F0E80EF91ED8010D911C91ECCF28
:104CB00081E08F8780E00E944C27C701DF91CF9170
:104CC0001F910F91FF90EF90089590E080E0F6CF54
:104CD000CF93DF93EC01DB012A8114968D919C9197
:104CE00015972817190659F411968C9111979C91D4
:104CF000913A39F4982F9D7F81E0913051F080E016
:104D000008C09132E1F78B3039F412968C918F877D
:104D100081E0DF91CF9108958A3021F412968C9131
:104D2000888BF6CF893059F716968D919C918230F9
:104D3000910539F462E070E0CE0141960E94532261
:104D4000DECF0197E1F661E070E0CE0142960E946D
:104D50005322198AD4CFFC01A385B485109771F42E
:104D60007487638785859685DB0114962D913C9128
:104D7000820F931F968785870895DC018D919C9102
:104D800011970097D1F76D937C93ECCFAF92BF92C0
:104D9000CF92DF92EF92FF920F931F93CF93DF9307
:104DA0001F92CDB7DEB77C0169836A01590141E0EA
:104DB00050E0BE016F5F7F4FFC0183810E947C2128
:104DC0008C0197FD0BC0F7018381A501B6018064BA
:104DD0000E947C21080F191F97FD8C01C8010F90BC
:104DE000DF91CF911F910F91FF90EF90DF90CF90C7
:104DF000BF90AF900895CF92DF92EF92FF921F93F2
:104E0000CF93DF93162F7A0169010E94C626EC0129
:104E1000E091A304F091A404309729F09C01A6012D
:104E2000B701812F0995CE01DF91CF911F91FF909E
:104E3000EF90DF90CF900895CF93DF93EC0181E066
:104E40008C838D839E01265F3F4F3F832E8319867F
:104E5000188627E831E0398328831C861B861E8646
:104E60001D868F87888B198A1A8A81EC8A870E940F
:104E7000C61EBE01DF91CF910C94821E80918804E2
:104E8000811107C080E994E00E941C2781E0809393
:104E9000880480E994E0089508950895991B79E0C5
:104EA00004C0991F961708F0961B881F7A95C9F7BA
:104EB00080950895AA1BBB1B51E107C0AA1FBB1F09
:104EC000A617B70710F0A61BB70B881F991F5A9596
:104ED000A9F780959095BC01CD01089597FB072E09
:104EE00016F4009407D077FD09D00E945A2707FCDA
:104EF00005D03EF4909581959F4F089570956195EA
:104F00007F4F0895A1E21A2EAA1BBB1BFD010DC005
:104F1000AA1FBB1FEE1FFF1FA217B307E407F50769
:104F200020F0A21BB30BE40BF50B661F771F881F45
:104F3000991F1A9469F760957095809590959B01DB
:104F4000AC01BD01CF010895EE0FFF1F0590F49154
:104F5000E02D0994A29FB001B39FC001A39F700DE3
:104F6000811D1124911DB29F700D811D1124911D71
:104F700008950E94AA27A59F900DB49F900DA49F0D
:104F8000800D911D11240895FB01DC0102C00590E4
:104F90000D9241505040D8F70895FB01DC018D91EE
:104FA000059080190110D9F3990B0895FB01DC01DC
:104FB0004150504030F08D910590801919F4002037
:104FC000B9F7881B990B0895FB01DC0104C08D9192
:104FD0000190801921F441505040C8F7881B990B6B
:104FE0000895F999FECF92BD81BDF89A992780B5B1
:104FF0000895262FF999FECF1FBA92BD81BD20BD1D
:105000000FB6F894FA9AF99A0FBE01960895F8949B
:02501000FFCFD0
:1050120003BF060400FF320001400001010001FF4E
:10502200FFFA00C409E803107F02FFFFFFFF00E15F
:1050320000000000000000C18081000000FFFFFFAF
:10504200FFFFFFFFFF617472657573009001F7C285
:1050520067663635979694959392F6F5F4F10000CB
:105062000000AF17471792174017000000006C1B93
:10507200011B8F1B40174A1BF6FF0000691B000033
:105082000000DF1C2B1D061D0B1D0E1D1E1DF51C19
:105092000D0A00000000006826DC2527267E02009B
:00000001FF
