:100000000C94C3020C94EB020C94EB020C94EB02E4
:100010000C94EB020C94EB020C94EB020C94EB02AC
:100020000C94EB020C94EB020C94A02E0C94432D38
:100030000C94EB020C94EB020C94EB020C94EB028C
:100040000C94EB020C94EB020C94EB020C94EB027C
:100050000C94710C0C94EB020C94EB020C940103C5
:100060000C94EB020C94EB020C94EB020C94EB025C
:100070000C94EB020C94EB020C94EB020C94EB024C
:100080000C94EB020C94EB020C94EB020C94EB023C
:100090000C94EB020C94EB020C94EB020C94EB022C
:1000A0000C94EB020C94EB020C94EB026C6F63610A
:1000B0006C6C79206275696C74206F6E204F63746C
:1000C00020203320323032322061742030383A34EC
:1000D000363A3532004B6579626F617264696F2020
:1000E000417472657573202D204B616C6569646F76
:1000F00073636F7065200014001A00080015001764
:1001000000000000001C0018000C00120013000486
:10011000001600070009000A00000000000B000D97
:10012000000E000F0033001D001B00060019000523
:10013000003500310011001000360037003800296A
:10014000002B00E300E1002A00E000E2002C002B7D
:10015000442D00340028001E081F085200210822E8
:1001600008000000004B002400250026002A00267D
:1001700008500051004F002708000000004E0021E9
:100180000022002300FFFF2F00300020082F08303E
:10019000082308240825081E001F0020002E08023E
:1001A000444900E300E1004C00E000E2002C00FFC5
:1001B000FF370027002E0049004A0052004D004B37
:1001C0000000000000520040004100420043004C8B
:1001D00000500051004F004E000000000051003D53
:1001E000003E003F0044000160E94800000000FFBD
:1001F000FFFFFFFFFF00003A003B003C00450054BA
:1002000044EA48FFFFFFFFFFFFFFFFFFFFFFFF5430
:100210004446004700CD48302E39302E332B34363B
:100220000076657273696F6E0005010906A101050C
:100230000719E029E7150025017501950881029548
:1002400001750881019505750105081901290591B8
:100250000295017503910195067508150025FF05A6
:1002600007190029FF8100C0050C0901A1018504BF
:10027000150026FF0319002AFF039504751081005D
:10028000C005010906A1018508050719E029E71540
:1002900000250175019508810205081901290895B5
:1002A000087501910205077504950181011904295A
:1002B000DD15002501750195D98102750395018130
:1002C00001C005010980A1018505150026FF00195F
:1002D0000029FF950175088100C0656570726F6D1A
:1002E0002E657261736500656570726F6D2E667242
:1002F000656500656570726F6D2E636F6E74656EF7
:100300007473002F0073657474696E67732E637263
:10031000630073657474696E67732E7665727369B2
:100320006F6E0073657474696E67732E76616C69A5
:10033000643F0073657474696E67732E64656661EB
:10034000756C744C61796572006B65796D61702EA6
:100350006F6E6C79437573746F6D006B65796D6149
:10036000702E64656661756C74006B65796D617083
:100370002E637573746F6D00454550524F4D4B653C
:10038000796D6170006573636170655F6F6E657331
:10039000686F742E63616E63656C5F6B6579004591
:1003A00073636170654F6E6553686F740068656C48
:1003B000700066616C7365007472756500706C75B1
:1003C00067696E73006465766963652E726573652F
:1003D000740068656C70000D0A2E004D6163726FC9
:1003E00073001E083408200821082208240834005D
:1003F0002608270825082E0836002D00370038006B
:1004000027003308330036082E00370838081F0845
:100410002F003100300023082D0835002F08310847
:10042000300835084D6F7573654B657973004F6EF5
:100430006553686F740051756B6579730053706113
:1004400063654361646574006D6163726F732E74DC
:10045000726967676572006D6163726F732E6D619B
:10046000700044796E616D69634D6163726F7300F2
:1004700073697A653D006B65796D61702E6C617989
:1004800065724E616D6573004C617965724E616D88
:10049000657300080B00020202000009040000015D
:1004A00002020000052400100105240101010424BA
:1004B0000206052406000107058103100040090417
:1004C0000100020A000000070502024000000705C3
:1004D000830240000012010002EF020140091203F2
:1004E000230001010203014B6579626F6172646947
:1004F0006F004174726575730004030904050109F6
:1005000002A1018501050919012908150025019598
:100510000875018102050109300931093815812565
:100520007F750895038106050C0A38021581257F21
:10053000750895018106C005010902A10105091987
:100540000129081500250195087501810205010999
:1005500030093116000026FF7F75109502810209CF
:10056000381581257F750895018106C0420C1B0E48
:10057000AC0E970FF50F2B11D115422152230828ED
:10058000482F2B31FF3111241FBECFEFDAE0DEBF41
:10059000CDBF11E0A0E0B1E0E0EBF5E602C00590D0
:1005A0000D92A43AB107D9F724E0A4EAB1E001C062
:1005B0001D92AE3EB207E1F712E0C3ECD2E004C0F8
:1005C0002197FE010E944E32C63BD107C9F70E9417
:1005D000EE020C94D6320C94000008950E94C003E1
:1005E0000E94ED028EE394E00E94182F0E94FA040C
:1005F000C0E0D0E00E9417052097E1F30E940000C0
:10060000F9CF1F920F920FB60F9211242F933F93A1
:100610008F939F93AF93BF938091A5019091A60173
:10062000A091A701B091A8013091A40123E0230F6C
:100630002D3758F50196A11DB11D2093A40180937B
:10064000A5019093A601A093A701B093A801809162
:10065000A9019091AA01A091AB01B091AC010196C2
:10066000A11DB11D8093A9019093AA01A093AB0194
:10067000B093AC01BF91AF919F918F913F912F911A
:100680000F900FBE0F901F90189526E8230F02962B
:10069000A11DB11DD2CF2FB7F8946091A501709123
:1006A000A6018091A7019091A8012FBF08953FB79F
:1006B000F8948091A9019091AA01A091AB01B09109
:1006C000AC0126B5A89B05C02F3F19F00196A11DCE
:1006D000B11D3FBFBA2FA92F982F8827BC01CD018C
:1006E000620F711D811D911D42E0660F771F881FEB
:1006F000991F4A95D1F708958F929F92AF92BF921A
:10070000CF92DF92EF92FF926B017C010E94570320
:100710004B015C01C114D104E104F104E9F00E9431
:10072000472F0E945703681979098A099B09683E77
:1007300073408105910570F321E0C21AD108E108E8
:10074000F10888EE880E83E0981EA11CB11CC1142C
:10075000D104E104F10429F7FF90EF90DF90CF90EE
:10076000BF90AF909F908F9008958230910538F0A0
:10077000880F991F880F991F05970197F1F7089522
:10078000789484B5826084BD84B5816084BD85B56C
:10079000826085BD85B5816085BDEEE6F0E0808133
:1007A00081608083E1E8F0E0108280818260808354
:1007B000808181608083E0E8F0E0808181608083D7
:1007C000E1E9F0E0808182608083808181608083C4
:1007D000E0E9F0E0808181608083E1ECF0E08081FD
:1007E0008460808380818260808380818160808357
:1007F000E3ECF0E0808181608083E0ECF0E08081D8
:1008000082608083E2ECF0E0808181608083EAE7AF
:10081000F0E0808184608083808182608083808139
:10082000816080838081806880830895089586E058
:10083000EAE4F1E0DB0101900D928A95E1F786E0B0
:10084000089581EE92E00E940A138FE293E00E94E5
:10085000041E85E693E00E94BB2182E191E00E94A4
:10086000921C89E093E00E94861788E993E00E9439
:1008700002258AE193E00E94821886EE92E00E94AF
:10088000C7148DED93E00C94D12587ED92E00E9482
:10089000261081EE92E00E9400138AE193E00E940C
:1008A000961886EE92E00E94871480E0089587ED06
:1008B00092E00E94231180E00895CF93DF93EC0132
:1008C000BC018FE293E00E949320811107C0BE011A
:1008D00085E693E0DF91CF910C94DA22DF91CF91FE
:1008E0000895CF93DF93EC01BC0185E091E00E9475
:1008F000391581111CC0BE0182E191E00E94471DA3
:10090000811115C0BE0189E093E00E944E1781114C
:100910000EC0BE0188E993E00E94DF24811107C068
:10092000BE018AE193E0DF91CF910C94E218DF9150
:10093000CF910895BC018AE193E00C949C1880E06B
:100940000895CF93DF93EC01BC018AE093E00E940D
:100950006318811107C0BE018AE093E0DF91CF9157
:100960000C946318DF91CF910895CF93DF93EC013E
:10097000BC0182E191E00E94351DBE018AE193E055
:100980000E949E1980E0DF91CF91089588EE92E059
:100990000E94D4158FE293E00E94042185E693E043
:1009A0000E947C2282E191E00E94A61C8AE193E0F1
:1009B0000E94561980E00895FB01918191FF06C0C5
:1009C00090FD04C0882329F0813039F090E080E068
:1009D000089580E00E94520BF9CF65ED70E089E048
:1009E00093E00E942F176CEA70E089E093E00E9488
:1009F0002F17ECCF80915101909152010E943E0A35
:100A000081E08093650389E00E94291360E370E030
:100A100088E993E00E9412256FE370E08DED93E08A
:100A20000E94E1258091DB028F770C94520B80911C
:100A30005101909152010C94F10A0F931F93CF939F
:100A4000DF93EC016881798181EE92E00E94AB1323
:100A500081115EC06881798188EE92E00E947B15E9
:100A6000811156C06881798185ED92E00E94E21182
:100A700081114EC06881798186ED92E00E9441111A
:100A8000811146C06881798188E993E00E942B2515
:100A900081113EC06881798186EE92E00E94DB146C
:100AA000811136C008811981B80188EE92E00E9458
:100AB00070158823A1F061E272E081EE93E00E945C
:100AC000372984E690E00E94B503688179818DED35
:100AD00093E0DF91CF911F910F910C94F42541E2A7
:100AE00052E0B80188EE92E00E94C715882369F3AE
:100AF00067E172E081EE93E00E94082984E690E0CD
:100B00000E94B50360E281EE93E00E942C29D9CFC8
:100B1000DF91CF911F910F910895CF93DF9300D074
:100B2000CDB7DEB79A838983CE0101960E941D0559
:100B30000F900F90DF91CF9108958FE392E00E9484
:100B4000680D8EE792E00E94CD0E80E692E00E9452
:100B5000640E86EC92E00C94B80FE3E5F1E050E00F
:100B600040E070E060E000009191A92FB0E084E0E7
:100B7000B595A7958A95E1F790962C9130E09F70F6
:100B800002C0359527959A95E2F72095309521700A
:100B90003327042E02C0220F331F0A94E2F7622B80
:100BA000732B4F5F5F4F4C305105E9F6CB01089531
:100BB0001F93CF93DF93CFE0D2E010E028813981FB
:100BC0008A819B81482F440F4270522F5170452BD0
:100BD00009F005C1AC0156954795440F427021FBC1
:100BE000552750F9452B09F0EFC0AC0156954795B4
:100BF00056954795440F427022FB552750F9452BD7
:100C000009F0D7C0AC01569547955695479556952E
:100C10004795440F427023FB552750F9452B09F0A7
:100C2000BDC0AC01529542954F7045275F70452776
:100C3000440F427024FB552750F9452B09F0A3C0FF
:100C4000AC0156954795529542954F7045275F7078
:100C50004527440F427025FB552750F9452B09F0D5
:100C600087C0AC010024440F551F001C440F551FC2
:100C7000001C452F502D440F427026FB552750F97C
:100C8000452B09F06AC0AC01440F452F441F550B9A
:100C90005195440F427027FB222720F9422B09F07F
:100CA00052C0492F440F4270232F2170422B09F06C
:100CB00040C031FB222720F9492F4270422B79F5A1
:100CC000492F4695427032FB222720F9422BE9F446
:100CD000292F26952695227033FB442740F9422B75
:100CE00059F4998388832A96145F103309F066CFEC
:100CF000DF91CF911F9108956BE0610F80E090E04C
:100D00000E94450C8A819B81ECCF6AE0610F80E0F4
:100D100090E00E94450C39818A819B81D9CF69E09E
:100D2000610F80E090E00E94450C39818A819B81AF
:100D3000C7CF68E0610F80E090E00E94450C3981E8
:100D40008A819B81B6CF67E0610F80E090E00E94CE
:100D5000450C39818A819B81A4CF66E0610F80E0D8
:100D600090E00E94450C288139818A819B818BCF3C
:100D700065E0610F80E090E00E94450C2881398198
:100D80008A819B816ECF64E0610F80E090E00E94D9
:100D9000450C288139818A819B8152CF63E0610FA4
:100DA00080E090E00E94450C288139818A819B81F6
:100DB00038CF62E0610F80E090E00E94450C28810E
:100DC00039818A819B811ECF61E0610F80E090E0D4
:100DD0000E94450C288139818A819B8106CF612F31
:100DE00080E090E00E94450C288139818A819B81B6
:100DF000F1CE8FE392E00E94690D811104C08FE370
:100E000092E00C946C0D8EE792E00E94DD0E80E67D
:100E100092E00C948D0E8FE392E00E94690D811197
:100E200004C08FE392E00C94070E8EE792E00E94DC
:100E3000910F80E692E00C947A0ECF93C82F8FE347
:100E400092E00E94690D6C2F811105C08FE392E042
:100E5000CF910C94CF0D8EE792E0CF910C94680F58
:100E6000CF93C82F8FE392E00E94690D6C2F811100
:100E700005C08FE392E0CF910C94A80D8EE792E02D
:100E8000CF910C94410FCF93C82F83FF03C081EE05
:100E90000E943007C0FF03C080EE0E943007C1FFF0
:100EA00003C082EE0E943007C2FF03C086EE0E949C
:100EB0003007C4FF04C083EECF910C943007CF916C
:100EC0000895CF93C82F892F0E9443078C2FCF916D
:100ED0000C943007FC019081DB018C91981305C0C4
:100EE00081E0218111969C91291380E008951F9340
:100EF000CF93DF9300D000D0CDB7DEB7182F80336B
:100F000068F5E82FF0E0EE0FFF1FE75BFB4F8081F5
:100F100091819C838B838FEF89838A83BE016F5F6E
:100F20007F4FCE0103960E946A07882369F0A12FA4
:100F3000B0E0AD54BE4FE0910201F0910301612F8A
:100F40008C9109958B839C838B819C810F900F9052
:100F50000F900F90DF91CF911F9108951092A904E7
:100F60001092AA04E9EAF4E0D2CF1F93CF93DF9363
:100F7000C62F172F862F972F0E949A04823009F1CF
:100F8000812F807C61F480E28C0F883008F010E0C3
:100F90008C2F912FDF91CF911F910C946107812F9E
:100FA000887C883471F4612F70E0762F66276C0F8F
:100FB000711D737080E692E0DF91CF911F910C94C8
:100FC000650EDF91CF911F9108958F929F92BF92EE
:100FD000CF92DF92EF92FF920F931F93CF93DF9305
:100FE00000D000D000D0CDB7DEB77C016B010E94ED
:100FF0000B0710E000E0BB24BA940033110599F10F
:10100000F6019081901729F1003330F5F801EE0FC9
:10101000FF1FE75BFB4F808091809E828D82BB82A9
:10102000BC82BE016D5F7F4FCE0105960E946A07AC
:1010300081110FC019821A82BE016F5F7F4FCE01EE
:1010400005960E946A07811104C0B401C7010E947D
:10105000B5070F5F1F4FD1CF1092A9041092AA04B9
:10106000E9EAF4E0D8CF26960FB6F894DEBF0FBEBB
:10107000CDBFDF91CF911F910F91FF90EF90DF9047
:10108000CF90BF909F908F900895EF92FF920F9313
:101090001F93CF93DF938C01EB01898181FF43C0C4
:1010A00080FD41C08B81807CF1F5888180930101B6
:1010B000FA808FE392E00E94690D6F2D81112EC09E
:1010C0008FE392E00E940E0E882301F1FB80EA80FC
:1010D000F3FE03C081EE0E941D07F0FE03C080EE08
:1010E0000E941D07F1FE03C082EE0E941D07F2FE62
:1010F00003C086EE0E941D07F4FE03C083EE0E942B
:101100001D078E2D0E941D070E94F9068B818823E2
:1011100079F00E9443070E94F9060AC08EE792E028
:101120000E942B0FD1CFE09101018881E81317C0F5
:10113000898181FF07C080FD05C06A817B81C8016C
:101140000E94B507CE010E94A1048230E9F0DF9130
:10115000CF911F910F91FF90EF900C94F906E0331F
:1011600060F4F0E0EE0FFF1FE75BFB4F8181982FEB
:10117000907CF1F60E944307DBCF1092A9041092F5
:10118000AA04E9EAF4E0F2CFDF91CF911F910F9129
:10119000FF90EF900895FF920F931F93CF93DF93EB
:1011A000CDB7DEB72D970FB6F894DEBF0FBECDBF1B
:1011B0008C0129873A874B875C876D87203348F4F9
:1011C00030FF61C031FD5FC089850E9477079C8731
:1011D0008B87CE0109960E947104823009F447C0C2
:1011E000E985E03368F49A85F0E0EE0FFF1FE75BD6
:1011F000FB4F90FF55C091FD53C09FEF90839183AB
:10120000811135C01F821886BE01695F7F4FCE01F4
:101210000B960E946A0781112AC01D821E82BE01A0
:101220006B5F7F4FCE010B960E946A0781111FC032
:10123000FF24FA94FB82FC82BE016D5F7F4FCE01DA
:101240000B960E946A07811112C0F982FA82BE01D0
:101250006F5F7F4FCE010B960E946A07811107C016
:101260008C85843409F5CE0109960E94E30B2D96F6
:101270000FB6F894DEBF0FBECDBFDF91CF911F91A7
:101280000F91FF9008958FEF89838A83BE016F5F6E
:101290007F4FCE010B960E946A07811195CF99CF9F
:1012A0009C852B852083ABCF8F7C8134B9F48A85D4
:1012B0001B8581FF0AC080FD08C0612F86EC92E08B
:1012C0000E94DD0F10930702D2CF80910702811395
:1012D000CECF86EC92E00E94DB0FC9CFBE01675FE4
:1012E0007F4FC8010E94E507BE01675F7F4FC801BD
:1012F0000E944508CE0109960E94B504B8CFEF922E
:10130000FF920F931F93CF93DF9300D000D000D0B4
:101310001F92CDB7DEB7022F2B833C834D835E83B4
:101320006F83203308F042C07C01832F817031FF2E
:1013300022C081113BC08FEF89838A83BE016F5F1A
:101340007F4FCE0105960E946A07882329F0802FDF
:101350000E9477079E838D83CE0103960E945D04D1
:10136000811124C02B813C814D815E816F81C70139
:101370000E94CB081BC08823C9F010E0000F111F8A
:10138000075B1B4FF801808191819E838D831982B9
:101390001A82BE016F5F7F4FCE0105960E946A07D9
:1013A0008823D1F28FEFF8018083818327960FB6CF
:1013B000F894DEBF0FBECDBFDF91CF911F910F918B
:1013C000FF90EF900895CF930FB6F894A895809171
:1013D0006000886180936000109260000FBEA3E5FA
:1013E000B1E04FE551E061E070E08D91E82FF0E071
:1013F00024E0F595E7952A95E1F7C1A18F709B014F
:1014000001C0220F8A95EAF7922F90959C2391A311
:1014100082A1822B82A34A175B0739F7AFE5B1E0BF
:1014200043E651E061E070E08D91E82FF0E094E058
:10143000F595E7959A95E1F791A18F709B0101C011
:10144000220F8A95EAF7922B91A382A1822B82A385
:101450004A175B0749F780E1809381001092800072
:1014600080EE9EE2909387008093860081E18093D6
:10147000810081E080936F00CF9108950E949D05C7
:101480008AE092E00E94E30940E855E260E070E003
:1014900081EE93E00E9402280E9416040E944504F7
:1014A000E9E4F4E081E39FEF815021F090839183A0
:1014B0003296FACF82EB91E00C94500B6F927F92B0
:1014C0008F929F92AF92BF92CF92DF92EF92FF9254
:1014D0000F931F93CF93DF932FE5E22E21E0F22E9F
:1014E000CFE0D2E033E6632E31E0732E912C812CD5
:1014F000AA24A394B12CF70181917F01082F10E059
:1015000015950795159507951595079515950795C3
:10151000F80192A18F70650101C0CC0C8A95EAF7A1
:10152000892F8C2582A30E94AD05F80122A1C22635
:10153000C2A248855985842795276C817D812E819B
:101540003F8126273727282339233F832E83FB011A
:10155000E095F095E823F923FD83EC838623972318
:101560002095309582239323482759275987488708
:10157000882A992A8114910401F18091170290918F
:10158000180290931202809311028091210290918F
:10159000220290931C0280931B0280912B02909157
:1015A0002C0290932602809325028091350290911F
:1015B00036029093300280932F022A966E147F0495
:1015C00009F099CFDF91CF911F910F91FF90EF908C
:1015D000DF90CF90BF90AF909F908F907F906F9053
:1015E00008950E944B036093AE017093AF01809306
:1015F000B0019093B1010E94570480910A028823A0
:1016000031F010920A028AE092E00E945E0A0E9483
:10161000D8050C94C60470E090E3899F600D711D9D
:101620001124660F771FFB01E950FF4F8491FB01E6
:10163000E850FF4F94910895EF92FF920F931F93FC
:10164000CF93DF93E3EBF1E080E3DF011D928A9516
:10165000E9F77F0110E01033E1F0C0910401D0E020
:10166000CD51DE4FB1E0C33EDB0771F00A91E0914E
:101670000201F0910301612F802F09958F3F11F432
:101680009F3F81F3F70100831F5FFFEFEF1AFF0A0F
:10169000E2CFDF91CF911F910F91FF90EF900895CE
:1016A0000C941C0B90910001891708F080E091E0E8
:1016B000909304018093E3010E941C0B0C949F04FF
:1016C0004091040150E090E0682F70E0292F092E2E
:1016D000000C330B2417350764F42D513E4FF901EC
:1016E0002081022E000C330B2617370721F09F5F55
:1016F000EDCF80E0089581E00895CF9390910001AF
:101700008917A0F4C82F0E94600B81110FC0E091CF
:10171000040181E08E0F80930401F0E0ED51FE4F53
:10172000C0830E941C0BCF910C949F04CF9108950D
:10173000CF93DF93D82F0E94600B882381F1C09153
:101740000401C23028F480E0DF91CF910C94520B59
:10175000E3EEF1E090E080E02D2F30E04191042EA7
:10176000000C550BBC016F5F7F4F4217530799F474
:101770004C2F50E0481B590B6D517E4F8D519E4FA1
:101780000E94AE32C150C09304010E941C0BDF9135
:10179000CF910C949F04CB016C1700F3F6CFDF912F
:1017A000CF910895E0910401F0E0EE51FE4F808169
:1017B0008F5F0C947D0BE0910401F0E0EE51FE4F41
:1017C00080810C94980BCF93DF93FC01C2819181AF
:1017D000292F2270C43558F0222309F450C090FDFF
:1017E0004EC08CEA8C0FDF91CF910C94520BCA3211
:1017F000C8F1D6EDDC0FD13251F0D23281F4222380
:1018000051F090FD08C0DF91CF910C94D20B2223B0
:10181000D1F390FDF8CFDF91CF910C94DB0B211128
:1018200010C0A9E4B4E081E38150B9F09C91C913E0
:1018300006C011962C9111979381291701F11296E8
:10184000F3CF90FDEECF8D2F0E94600B811117C05A
:101850008D2FDF91CF910C947D0B8D2FDF91CF9148
:101860000C94980B222359F090FD09C08C2F0E94F4
:10187000600B882311F08C2FF1CF8C2FEACFDF91F2
:10188000CF910895109207020895CF93DF9300D06F
:1018900000D01F92CDB7DEB7262F342F842F817052
:1018A00041FF15C0811115C08091480461E0680FA7
:1018B000609348044FEF5FEF8DEA91E00F900F9037
:1018C0000F900F900F90DF91CF910C947F098111B1
:1018D000EBCF0F900F900F900F900F90DF91CF9163
:1018E00008951F920F920FB60F9211248F9381E0EB
:1018F00080930A028F910F900FBE0F901F90189542
:10190000FC0182818F5BFB01808381E00895CF938E
:10191000DF93CDB7DEB769970FB6F894DEBF0FBE81
:10192000CDBFFC01DB019C919F5F9C939E012D5FCD
:101930003F4F81E1D9011D928A95E9F729E029837A
:1019400084E08A8391E09D8383E08E839F839887E0
:101950002A8721E22B879C879D879F8722E2288BFD
:101960002FE3298B27E02B8B25E02C8B8E8B20E41B
:1019700030E0388F2F8B998F82818B8383818068B1
:101980008D8B49E150E0BE016F5F7F4F80E00E9488
:10199000F22C69960FB6F894DEBF0FBECDBFDF9173
:1019A000CF910895FC01DB018C918138A9F4139645
:1019B0008C911397823281F4228114968D919C919F
:1019C0002817190649F48285848F4FE350E069E2B5
:1019D00072E080E80C94F22C90E080E008950F9380
:1019E0001F93CF93DF9300D0CDB7DEB7FC01DB01AF
:1019F000228114968D919C9115972817190609F04C
:101A000047C011968C9111979C91913A99F481302D
:101A100029F0833059F4848D8093F10081E00F9098
:101A20000F90DF91CF911F910F910895823081F532
:101A3000858DF2CF913261F58B3021F412968C9125
:101A4000848FECCF8A3011F4158EE8CF893001F500
:101A50008F0116968D919C91179713962C91223099
:101A600061F40197A9F461E070E0CE0101960E9453
:101A7000182D8981F801868FD1CF213049F408973C
:101A800039F468E070E0CF010B960E94182DC6CFA4
:101A900080E0C5CFCF93DF93EC0181E08C838D8311
:101AA0009E01255E3F4F3F832E831986188627E6C9
:101AB00031E0398328836A876C8F8D8F1E8E81EC8D
:101AC0008B8F0E94E528BE01DF91CF910C94A12855
:101AD0000895FC01848D0895EF92FF920F931F9358
:101AE000CF93DF938C01EC012B967C0183E1E80E10
:101AF000F11C48E050E0BE01C7010E949832892BDA
:101B000021F1F801838148E050E0BE0180640E9429
:101B1000412C8C01E0915E02F0915F02309731F030
:101B20009C0148E050E0BE0182E0099588E0FE019A
:101B3000D70101900D928A95E1F7C801DF91CF910D
:101B40001F910F91FF90EF9008950FEF1FEFF5CFCA
:101B5000FC0180E2860F883070F4605E770B21E034
:101B600030E001C0220F6A95EAF78385822B8387D4
:101B700081E090E00895DF011D9690E080E02D91D6
:101B80002617B1F3211104C0E80FF91F6587F0CFC4
:101B900001968630910599F790E080E00895CF9303
:101BA000DF9320E2260F283090F4605E770B21E06F
:101BB00030E001C0220F6A95EAF72095FC013385D9
:101BC0002323238781E090E0DF91CF910895DC010A
:101BD0001D969C012D5E3F4FFD014191461303C0B0
:101BE000EF0121971882E217F307B9F720E03D9142
:101BF000332349F0EC01C20FD11D4D853D87ED0126
:101C0000219748832F5FAE17BF0789F7DBCF0B966D
:101C100028E0FC0111922A95E9F70895FC013D9610
:101C200043962191261729F0E817F907D1F780E0AC
:101C3000089581E008952091370230913802409153
:101C4000390250913A0260913B0270913C028091BE
:101C50003D0290913E02A1E00E946E322093370235
:101C6000309338024093390250933A0260933B021A
:101C700070933C0280933D0290933E020E947A3220
:101C800029F461E08FE392E00C944A0D089580916D
:101C90007002811113C0109279021092780288E6C6
:101CA00092E090937B0280937A0289E190E0909396
:101CB0007D0280937C0281E0809370020E94C2309A
:101CC00068E772E00C942F300895FC0130E020E0CA
:101CD00041915191452B41F4220F331F280F391F99
:101CE000F9017183608308952F5F3F4F24303105E0
:101CF00079F7089528E0FC0111922A95E9F70895F3
:101D0000CF93DF93EC010E94C23028E030E0AE01B7
:101D100064E0DF91CF910C947F300F931F93CF93AA
:101D2000DF93EC018C01085F1F4F48E050E0BC01DD
:101D3000C8010E949832892B51F0CE010E94800E7A
:101D400088E0FE01D80101900D928A95E1F7DF91BC
:101D5000CF911F910F91089580E692E00C94470E69
:101D60008091B802811113C01092C1021092C0027A
:101D700081E892E09093C3028093C20281E490E0F4
:101D80009093C5028093C40281E08093B8020E94C0
:101D9000C23060EC72E00C942F300895CF93DF9343
:101DA000EC010E94C230AE01435E5F4F2DE130E096
:101DB00068E0DF91CF910C947F30EF92FF920F9308
:101DC0001F93CF93DF93EC01F8808D8D8E010F5F11
:101DD0001F4F8F15D9F0F801AE01435E5F4F20E031
:101DE000858D30813196932F9095982319F0832318
:101DF000848F21E0E417F50799F7222319F0CE012B
:101E00000E94CE0EFD8ECE010E94CE0E7E018EE18E
:101E1000E80EF11C4CE150E0B801C7010E94983275
:101E2000892B81F08CE1F801D70101900D928A9500
:101E3000E1F7CE01DF91CF911F910F91FF90EF90CD
:101E40000C94CE0E8FEF9FEFDF91CF911F910F91EA
:101E5000FF90EF9008956E3D90F4E62FE695E6959D
:101E6000E695E80FF92FF11D677021E030E001C021
:101E7000220F6A95EAF79181922381E009F480E0CC
:101E800008956E3DA0F4E62FE695E695E695E80FF9
:101E9000F92FF11D677021E030E001C0220F6A9533
:101EA000EAF78181822B818381E090E00895605E72
:101EB000683058F441E050E001C0440F6A95EAF7F9
:101EC000FC012081242B2083EFCF90E080E0089557
:101ED0006E3DA8F4E62FE695E695E695E80FF92F16
:101EE000F11D677021E030E001C0220F6A95EAF72A
:101EF000209581812823218381E090E00895605E10
:101F0000683060F421E030E001C0220F6A95EAF702
:101F10002095FC01308123232083EECF90E080E0E8
:101F200008952DE1FC0111922A95E9F708958EE7B5
:101F300092E00C94B00E8091C702811113C01092F0
:101F4000D0021092CF0282EC92E09093D202809362
:101F5000D10288E190E09093D4028093D30281E093
:101F60008093C7020E94C2306FEC72E00C942F3055
:101F700008950F931F93CF93DF93EB018A010E9483
:101F8000C2309801AE0165E0DF91CF911F910F91B2
:101F90000C947F30CF93DF931F92CDB7DEB71982B9
:101FA00041E050E0BE016F5F7F4F0E94B90F0F907C
:101FB000DF91CF9108950C94CA0FCF93DF931F92B6
:101FC000CDB7DEB76983633841F48EE394E00E94B5
:101FD0002B2F0F90DF91CF91089541E050E0BE018B
:101FE0006F5F7F4F0E94B90FF4CF86EC92E00C94A4
:101FF0009B0F84E690E00C94B5034AE050E0682F14
:1020000081EE93E00E94F1290E94F90F60E281EED7
:1020100093E00E942C290C94F90FFF920F931F93C9
:10202000CF93DF93EC01F62E08811981C8010E943D
:10203000C032F81621F06F2DC8010E94C832CE01BF
:10204000DF91CF911F910F91FF900895AF92BF92B2
:10205000CF92DF92EF92FF920F931F93CF93DF9374
:1020600000D0CDB7DEB78C016C0184E0C80ED11C66
:102070005601F12CE12CC7010E94C032F501819379
:102080005F01FFEFEF1AFF0A84E0E816F10499F709
:10209000F80185818F3FD1F48481982F9F779F37F6
:1020A00011F487FD148281E0F801858310E000E0DF
:1020B0001A830983F60161916F01CE0101960E9496
:1020C0000D100F5F1F4F0430110591F780E00F9046
:1020D0000F90DF91CF911F910F91FF90EF90DF90C4
:1020E000CF90BF90AF9008950F931F93CF93DF933E
:1020F00000D0CDB7DEB77A836983FC01238110E07D
:1021000000E021110FC000811181CB01800F911FD0
:102110009183808342E0BE016F5F7F4F8FED92E03D
:102120000E94A812C8010F900F90DF91CF911F91CC
:102130000F910895CF92DF92EF92FF920F931F932A
:10214000CF93DF9300D0CDB7DEB77C016C0184E084
:10215000C80ED11C10E000E01A830983F6016191DA
:102160006F01CE0101960E940D100F5F1F4F0430CA
:10217000110591F781E0F70182830F900F90DF91B5
:10218000CF911F910F91FF90EF90DF90CF90089526
:102190001F93CF93DF93EC01162F809100016817F6
:1021A00048F4862F0E94520B8C818078912F9F7764
:1021B000892B8C831E3720F08C8180788E678C83EE
:1021C000CE010E949A108C818F77DF91CF911F9161
:1021D0000895FC01948160FB97F99483892F8F7790
:1021E0008F3719F490789E679483CF010C949A10DE
:1021F000CF93DF93EC0181E08B8360E18FED92E080
:102200000E948F128D81813021F01A82DF91CF914F
:1022100008952E813F818091DF029091E0022F3F4F
:10222000320769F49F838E83CE010E949A108C81BD
:102230008F778E3758F7DF91CF910C94520B281778
:10224000390721F7F4CFFC012381211102C00E943C
:10225000F81080E0089584E090E09093D802809395
:10226000D702089581EE93E00E9414279C0181E03B
:102270002A30310529F02F3F3F4F11F080E00895BB
:102280000895CF93DF93EB0188EE92E00E947015E2
:10229000882311F163E373E081EE93E00E94372914
:1022A0000E94F90F63E273E081EE93E00E94372908
:1022B0000E94F90F62E173E081EE93E00E943729FA
:1022C0000E94F90F65E073E081EE93E00E943729E8
:1022D0000E94F90F80E05FC043E353E0BE0188EE47
:1022E00092E00E94C715882381F00E94321181116B
:1022F00065C041E070E060E081EE93E00E94942AC6
:1023000087ED92E00E94C81045C043E253E0BE0151
:1023100088EE92E00E94C715811140C042E153E06F
:10232000BE0188EE92E00E94C71581112FC045E0E2
:1023300053E0BE0188EE92E00E94C715882351F257
:102340008091DA02D0E0C0E0882321F0C091DD0264
:10235000D091DE026091DF027091E0024AE050E02D
:1023600081EE93E00E94F8290E94F90F63E073E088
:1023700081EE93E00E9408290E94F90F4AE050E0A4
:10238000BE0181EE93E00E94F82915C08091DC0225
:102390000E94FD0F81E0DF91CF9108956091D902F5
:1023A00088EE92E00E9465150E94F90F60E281EECE
:1023B00093E00E942C290E94F90FECCF8091DB0260
:1023C0008F77E6CF0F931F93CF93DF9300D0CDB7D6
:1023D000DEB78B0188EE92E00E947015882301F130
:1023E00063EF72E081EE93E00E9437290E94F90FBB
:1023F00067EE72E081EE93E00E9437290E94F90FA8
:102400006AED72E081EE93E00E9437290E94F90F95
:1024100080E00F900F90DF91CF911F910F91089561
:1024200043EF52E0B80188EE92E00E94C71588237E
:10243000F1F00E94321110E000E0811164C00E94AE
:10244000321181115EC041E070E060E081EE93E006
:102450000E94942A1A830983CE0101960E940D10CE
:102460000F5F1F4F011584E0180749F74AC047EE78
:1024700052E0B80188EE92E00E94C71581112AC08F
:102480004AED52E0B80188EE92E00E94C715882319
:1024900009F4BFCF10E000E01A8309836FEFCE018B
:1024A00001960E940D100F5F1F4F011584E0180761
:1024B00099F787E797E7909301088093000888E1F0
:1024C0009BE00FB6F894A895809360000FBE9093A0
:1024D0006000FFCF8091D7029091D80260E074E055
:1024E000681B790B4AE050E081EE93E00E94F829E6
:1024F0000E94F90F60E281EE93E00E942C290E9475
:10250000F90F81E086CFC8010E94C0320E94FD0F02
:102510000F5F1F4F011584E01807A9F7F2CFFC01E8
:10252000208131812170332781E0861770F440814A
:1025300051815695479551834083220F331F417037
:102540005527242B352B8F5FF0CF318320830895BF
:10255000DC01FB01415000F181912D913C911197DB
:1025600068E070E051E0982F952399F4932F991F1C
:102570009927991F220F331F992319F095E02927D6
:102580003058550F6150710971F711963C932E9395
:10259000E1CF932F9095EBCF089584E690E00C94D3
:1025A000B5031F93CF93DF939091E302891730F027
:1025B00080E090E0DF91CF911F910895C62FD0E089
:1025C00090E3899FC00DD11D1124CC0FDD1F6091B8
:1025D000E4027091E502C60FD71FCE010E94C032FF
:1025E000182FCE0101960E94C032912FE3CF909117
:1025F000E202891710F40C940B0B891B0C94D11276
:1026000087ED92E00E942610809100018093E20203
:1026100080E0089568E773E081EE93E00E94082966
:102620000E94CD1281EE93E00E9433290E94CD12C8
:1026300080E008958093E30290E6899FB001112421
:1026400087ED92E00E9474109093E5028093E4027B
:102650000895809300019091DB0221ED32E197FD16
:1026600007C09091E202980F9093000127EF32E1AA
:1026700030930301209302010C941A13FF920F93DD
:102680001F93CF93DF9300D0CDB7DEB7F62E672F21
:102690008C01000F111F8091E4029091E502800FE0
:1026A000911F9A838983CE0101960E940D1080911B
:1026B000E4029091E5020196800F911F9A8389832D
:1026C0006F2DCE0101960E940D100F900F90DF919B
:1026D000CF911F910F91FF900895FF920F931F9339
:1026E000CF93DF93F82E8B01C0E0CF15F9F0D0E047
:1026F0006D2F8C2FF8010995692F70E0762F6627D2
:10270000680F711D4AE050E081EE93E00E94F829C5
:102710000E94CD1260E281EE93E00E942C290E947B
:10272000CD12DF5FD03321F7CF5FDFCFDF91CF91C5
:102730001F910F91FF90089581EE93E00E9414275E
:102740009C0181E02A30310529F02F3F3F4F11F0E5
:1027500080E008950895FF920F931F93CF93DF9326
:102760001F92CDB7DEB78B0188EE92E00E94701504
:10277000882301F16AE673E081EE93E00E94372935
:102780000E94CD126BE573E081EE93E00E94372941
:102790000E94CD1269E473E081EE93E00E94372934
:1027A0000E94CD1280E00F90DF91CF911F910F9189
:1027B000FF90089549E453E0B80188EE92E00E944A
:1027C000C7158823E1F10E949C138823B1F0609122
:1027D000DB0267FB662760F94AE050E081EE93E098
:1027E0000E94F1290E94CD1260E281EE93E00E94E6
:1027F0002C290E94CD1281E0D6CF41E070E060E04C
:1028000081EE93E00E94942A162F698387ED92E06F
:102810000E94E9109091E30290930001112339F096
:1028200081ED92E19093030180930201E4CF8091C6
:10283000E202890F8093000187EF92E1F3CF4BE52D
:1028400053E0B80188EE92E00E94C715882339F062
:102850006BE07BE08091E2020E946D13CCCF4AE6F0
:1028600053E0B80188EE92E00E94C715882309F46E
:1028700099CF0E949C1310E000E090E3F92E88238A
:1028800029F061ED72E18091E302E6CF0E949C1392
:102890008111B1CF8091E3028F9DC00111240817EF
:1028A000190708F0A8CF41E070E060E081EE93E006
:1028B0000E94942A272F3327722FC8010E943E13AB
:1028C0000F5F1F4FE3CFFF920F931F93CF93DF93C1
:1028D000EC018B01FB01F0800E94C032F81621F060
:1028E0006F2DCE010E94C832F801F1802196CE01F1
:1028F0000E94C032F81621F06F2DCE010E94C8321E
:10290000C801DF91CF911F910F91FF900895CF9251
:10291000DF92EF92FF920F931F93CF93DF937C018F
:1029200062E070E087ED92E00E947410EC01F70124
:10293000918380838C016C01F2E0CF0ED11C0C15C9
:102940001D0540F4C8010E94C0328F3F41F40F5F63
:102950001F4FF5CF65E071E0CE010E946314F701CF
:10296000C081D181CE010E94C03280930501CE0189
:1029700001960E94C0328093060180E0DF91CF91E2
:102980001F910F91FF90EF90DF90CF9008956FE926
:1029900073E081EE93E00E94082984E690E00E94B3
:1029A000B50381EE93E00E94332984E690E00E9413
:1029B000B50380E008950F931F93CF93DF93EC014D
:1029C0008B0188EE92E00E947015882361F065E823
:1029D00073E081EE93E00E94372984E690E00E9444
:1029E000B50380E024C045E853E0B80188EE92E0EA
:1029F0000E94C7158823A9F381EE93E00E94142753
:102A00008A309105C9F00196B9F041E070E060E0CC
:102A100081EE93E00E94942A609305017093060171
:102A200065E071E0888199810E94631481E0DF9103
:102A3000CF911F910F9108956091060170E0762F5C
:102A4000662780910501680F711D4AE050E081EE14
:102A500093E00E94F82984E690E00E94B50360E2CA
:102A600081EE93E00E942C2984E690E00E94B50359
:102A7000D7CFCF93DF93DC01EB019A818C91981330
:102A800005C02B8111968C91281749F09E3721F0B3
:102A900080E0DF91CF9108958B81813DC9F78981D5
:102AA00081FFF6CF80FDF4CF87FDF2CF82E191E088
:102AB0000E94A01B882361F361E082E191E00E9403
:102AC000041C1A821B8281E0E4CF611106C062EB14
:102AD00073E081EE93E00C94082968EB73E0F9CF82
:102AE000CB016DEA73E00E948F3221E0892B09F05F
:102AF00020E0822F0895CF93DF93EB010E947015A1
:102B0000882301F162ED73E081EE93E00E943729A2
:102B100084E690E00E94B50365EC73E081EE93E0FB
:102B20000E94372984E690E00E94B5036DEB73E0C4
:102B300081EE93E00E94372984E690E00E94B5037D
:102B400080E022C065EC73E0CE010E948F32892BB9
:102B500089F487E797E7909301088093000888E15C
:102B60009BE00FB6F894A895809360000FBE9093F9
:102B70006000FFCF6DEB73E0CE010E948F32892B96
:102B8000F9F60E94210481E0DF91CF910895CB01F5
:102B9000BA010E948F3221E0892B09F020E0822FB8
:102BA0000895109208030895CF93DF93EC0181EE0E
:102BB00093E00E942A2781EE93E00E942D27892B23
:102BC00009F442C081EE93E00E9414270A9799F11C
:102BD00081EE93E00E943D2780329105E1F4CE0121
:102BE0000E948D0581EE93E00E942D27892B31F004
:102BF00081EE93E00E943D270A97A1F767ED73E00D
:102C000081EE93E00E94372918A280E2FE01119222
:102C10008A95E9F719C0E8A191E09E0F98A3EC0FFF
:102C2000FD2FF11D80839F3130F481EE93E00E94EF
:102C30002D27892B39F681EE93E00E9414270A97FD
:102C400071F288A18F3158F680E0DF91CF9108951D
:102C5000FC0184913196949108958F929F92AF9246
:102C6000BF92FF920F931F93CF93DF93EB012097B7
:102C700009F4A4C0F12C8E010F5F1F4FFE01849157
:102C8000EFEFE80FED3008F099C0F0E0E65BF94EA9
:102C90000C944E32871693169C16A916B616C316B8
:102CA000CC16D5168B168B168B16571672168F2CC4
:102CB000912CB12CA12CB801F80184916F5F7F4F4A
:102CC0000E5F1F4FFB016491611102C0882319F14F
:102CD000782F8AE093E00E943E18C501B4010E945B
:102CE0007C03E9CF8F2C912CB12CA12C0F5F1F4FAF
:102CF000F80131976491662371F070E08AE093E007
:102D00000E943E18C501B4010E947C03EFCF2296B9
:102D1000F801F4908E016F2D70E090E080E00E9449
:102D20007C03E801A8CF2296F801649170E090E05E
:102D300080E00E947C03EECFF80174918E010D5F5C
:102D40001F4FFE01329664918AE093E00E949A1729
:102D5000E2CFF80174918E010D5F1F4FFE01329694
:102D600064918AE093E00E94D517D5CFF801749161
:102D70008E010D5F1F4FFE01329664918AE093E051
:102D80000E943E18C8CF2296F801649170E08AE054
:102D900093E00E949A17BECF2296F801649170E0EA
:102DA0008AE093E00E94D517B5CF2296F80164918E
:102DB00070E08AE093E00E943E18ACCFDF91CF91A3
:102DC0001F910F91FF90BF90AF909F908F900895AB
:102DD000862F90E06134E0F46A33B0F5603269F137
:102DE00070F46A3039F130F482E2683050F590E0E6
:102DF00080E008956B31D9F790E089E2089561335E
:102E0000F8F4880F991F80569C4F0E942816089549
:102E1000613638F46B35E8F0880F991F865A9C4F5D
:102E2000F4CF6B37D0F06F3710F7880F991F8A5D9A
:102E30009C4FEBCF90E088E2089590E08CE20895FB
:102E40008DEE860F90E00895880F991F82579C4F52
:102E5000DCCF83EC860F98E0089583EAF2CF0F93DE
:102E60001F93CF93DF938C01EB01FE0164916623E6
:102E700071F0C8010E94E816811102C0992329F05F
:102E8000BC018AE093E00E943E182196EECF90E0CC
:102E900080E0DF91CF911F910F9108950F931F93C1
:102EA000CF93DF93EB012B8130E0322F22274A8131
:102EB00050E0BA017056260F371F2F3F310509F039
:102EC000F8F48C01BE01842F0E94DC04BC01C8010F
:102ED0000E942D16898180FF02C081FF0DC08A816A
:102EE00090E090562B8130E0322F2227820F931FE3
:102EF0008F3F910529F020F08AE093E00E94FD17B2
:102F000080E0DF91CF911F910F9108956BED73E0F9
:102F100081EE93E00E94082984E690E00E94B503C8
:102F200081EE93E00E94332984E690E00E94B5038D
:102F300080E00895EF92FF920F931F93CF93DF935A
:102F400000D000D01F92CDB7DEB78C01F62EE72E51
:102F5000609148048FEF898382E88A83FB827C83B7
:102F60006D832FEF32E84F2D572F8DEA91E00E94AD
:102F7000CB08C8014096F801E817F90741F0208115
:102F8000211111C0218121110EC0F082E1820F9028
:102F90000F900F900F900F90DF91CF911F910F9195
:102FA000FF90EF9008953296E7CFCF93DF9300D054
:102FB00000D01F92CDB7DEB7AB019C01205F3F4F21
:102FC000FC012E173F0751F08081841305C08181D9
:102FD000851302C0108211823296F3CF60914804AB
:102FE0002FEF31E88DEA91E00F900F900F900F9046
:102FF0000F90DF91CF910C94CB08CF92DF92EF929C
:10300000FF920F931F93CF93DF9300D000D01F92B6
:10301000CDB7DEB77C0120E1E20EF11C8C01DD248E
:10302000DA9481E8C82EE016F106D1F0F80140816B
:103030005181411102C0552381F060914804D98229
:10304000CA824B835C836D832FEF31E88DEA91E078
:103050000E94CB08F801108211820E5F1F4FE3CF50
:103060000F900F900F900F900F90DF91CF911F91C5
:103070000F91FF90EF90DF90CF9008950F931F93E3
:10308000CF93DF9300D000D01F92CDB7DEB78B0176
:10309000609148042FEF32E8A8018DEA91E00E9488
:1030A000CB08609148042FEF31E8A8018DEA91E048
:1030B0000F900F900F900F900F90DF91CF911F9175
:1030C0000F910C94CB080F931F93CF93DF938C0138
:1030D000005F1F4FEC010C171D0771F068817981AB
:1030E00089819881911102C0882321F08DEA91E0B5
:1030F0000E94B5072296EFCF80E0DF91CF911F911C
:103100000F91089564E274E081EE93E00E94082933
:1031100084E690E00E94B50381EE93E00E9433299B
:1031200084E690E00E94B50380E0089586EC94E088
:103130000E94EF3080E00895FC01703579F4862F0D
:103140008076803429F49085862F8F7B892B808729
:10315000862F807729F48781682B678380E0089524
:103160008031E1F780E1689FB0011124F4CFCF9363
:10317000DF93EC0186EC94E00E94F830688586ECE1
:1031800094E00E94FE3086EC94E0DF91CF910C94A5
:103190001031FB01928196FB222720F980E090FDFF
:1031A00082E0822B20E091FD24E0822B20E092FD42
:1031B00028E0822B93FD04C090E0892B0C94141A14
:1031C00090E1FBCFFB012381203559F4DC011796F8
:1031D0001C9217972281322F3076303421F41896C2
:1031E0001C9280E0089525FFFCCF218121FFF9CFBB
:1031F00020FDF7CF0E94C918F4CF2091AE01309185
:10320000AF01FC01318320839681892F8F7019F4DF
:1032100010922503089580910F01819592FF80E01F
:1032200093FF03C020910F01820F60910F01619500
:1032300090FF60E091FF03C090910F01690F0E9421
:10324000B61A86EC94E00C9410310F932091AE01E5
:103250003091AF01FC0135832483868190E024E026
:10326000959587952A95E1F70097F1F0009109016E
:10327000019582FF00E083FF03C020910901020F46
:103280002091090180FF20E081FF03C080910901A6
:10329000281B40E060E086EC94E00E94F03086EC71
:1032A00094E00F910C9410310F910895CF93DF9318
:1032B000EC018091AE019091AF012A813B81AC017C
:1032C000421B530B9A0140910A0150910B012417A4
:1032D000350780F09B838A832091250330910C0170
:1032E0004FEF50E0431B5109241715061CF4230F20
:1032F0002093250328813981821B930B20910D0196
:1033000030910E018217930718F0CE010E94FD182C
:103310008091AE019091AF012C813D81821B930B76
:1033200020910701309108018217930718F0CE0110
:103330000E94251980E0DF91CF9108950F931F938C
:10334000CF93DF93FB0123812035C9F48B01EC017E
:1033500082818076803419F4CE010E94B7188F8163
:103360008E831F82F8018281807779F48091AE018B
:103370009091AF019B838A83CE010E94FD1880E06B
:10338000DF91CF911F910F9108958031C1F7CE0148
:103390000E942519F4CFCF93DF9300D000D000D046
:1033A000CDB7DEB736952795820F931F5695479573
:1033B000640F751FEAEDF4E0958784877787668749
:1033C000208929839B838A837D836C831E82028468
:1033D000F385E02D0190F081E02D46E050E0BE0144
:1033E0006F5F7F4F84EE94E0099526960FB6F894B0
:1033F000DEBF0FBECDBFDF91CF910895109228039D
:103400001092270310922A03109229038FEF9FE74F
:1034100090932E0380932D0390932C0380932B0382
:1034200081E08093260308950F931F93CF93C82FB5
:1034300080912603811102C00E94FE19C0FF06C0C0
:1034400010922603CF911F910F910895E0911101E1
:103450000E2F10E080912D0390912E03B8010E9451
:1034600004329B0170932E0360932D0380912B03F4
:1034700090912C03B8010E940432AB0170932C038D
:1034800060932B036C2F6470E0912903F0912A0361
:1034900080912703909128037C2F7670763091F4E9
:1034A000820F931F9093280380932703BA016E0F16
:1034B0007F1F70932A0360932903CF911F910F916F
:1034C0000C94CB19662349F1D8011197A49FB00140
:1034D000A59F700DB49F700D1124E60FF71FF09398
:1034E0002A03E0932903C4FF1DC001501109029F64
:1034F000B001039F700D129F700D1124860F971F4E
:1035000090932803809327036091290370912A03E5
:103510008091270390912803D0CFC1FDE4CFE40F21
:10352000F51FDDCFC3FDF0CF820F931FE9CF482FEA
:1035300050E087FD0AC0889FC0011124880F892FA1
:10354000881F990B91958F5F089520E031E0241B2F
:10355000350B229FC001239F900D900D1124880FE1
:10356000892F881F990B919580950895EF92FF926E
:103570000F931F93CF93DF93082F162FC091100145
:10358000D0E0F12CE12C8823D1F0809125030E941A
:10359000971A20912403382F0303C0011124820FAE
:1035A000911D27FD9A957E01C817D90744F0EE2496
:1035B000FF24EC1AFD0AE816F9060CF47C0111232D
:1035C00009F449C0809125030E94971A2091230392
:1035D000382F1303C0011124820F911D27FD9A95E6
:1035E000C817D9073CF0D195C195D109C817D9079B
:1035F0000CF4EC0110922603AE01D7FF02C0415F2C
:103600005F4F94E0559547959A95E1F7B701F7FE1E
:1036100002C0615F7F4F84E0759567958A95E1F7F9
:1036200000E020E086EC94E00E94F03020E130E001
:10363000C701B9010E94183280932403CE01B90159
:103640000E94183280932303DF91CF911F910F9135
:10365000FF90EF900895D0E0C0E0CCCFFC018281D4
:10366000DB019C91891730F5A081B181A80FB11DB4
:103670002C9130E0938102C0359527959A95E2F719
:1036800024834481442391F0242F30E0938140FF30
:1036900007C0880F880F880F890F858381E0089500
:1036A0003595279524839F5F9383EBCF8F5F82832C
:1036B0001382D5CF80E00895262F2695269526954E
:1036C000820F911DFC01808190E0677002C095958A
:1036D00087956A95E2F781700895E62FE695E6955D
:1036E000E695E80FF92FF11D677081E090E0A0E00A
:1036F000B0E004C0880F991FAA1FBB1F6A95D2F7BC
:103700002081822B80830895E62FE695E695E69545
:10371000E80FF92FF11D862F877041E050E060E03F
:1037200070E004C0440F551F661F771F8A95D2F7BB
:103730004095509560957095808148234083089509
:10374000EF92FF920F931F93CF93DF93CDB7DEB726
:103750002C970FB6F894DEBF0FBECDBF8C010A9632
:1037600098878F8319861A86FF24FA94FC869A8399
:10377000898386E0E82EEB821C82FE82BE016D5FAB
:103780007F4FCE0107960E942E1B811113C0005F50
:103790001F4F18870F8319861A86FC861A830983A0
:1037A000EB821C82FE82BE016D5F7F4FCE010796C9
:1037B0000E942E1B2C960FB6F894DEBF0FBECDBF15
:1037C000DF91CF911F910F91FF90EF900895272FD8
:1037D000207C69F4605E683098F4FC0186819781F2
:1037E00002C0969587956A95E2F7817008957434C2
:1037F00039F426ED260F2A3218F46252603168F34C
:1038000081E008950C94E71BAF92BF92DF92EF9294
:10381000FF920F931F93CF93DF93CDB7DEB76197DE
:103820000FB6F894DEBF0FBECDBF8C010A967C01A7
:10383000662381F1580190E1A90EB11CB886AF82D0
:1038400019861A868FEF8C87BA82A98296E09B83AD
:103850001C828E83BE016D5F7F4FCE0107960E9452
:103860002E1B8823B9F0DC846D2DC5010E94841BBA
:103870006D2DC7010E94841B609148042D2D31E8F5
:103880004FEF5FEF8DEA91E00E94CB088A858F5F52
:103890008A87E0CFF886EF8219861A868FEF8C87A9
:1038A000FA82E98296E09B831C828E83005F1F4F21
:1038B000BE016D5F7F4FCE0107960E942E1B8823AD
:1038C00009F1DC846D2DC8010E945C1B6D2D8823DD
:1038D000A9F0C8010E94841B6D2DC7010E94841BA2
:1038E000609148042D2D31E84FEF5FEF8DEA91E0B4
:1038F0000E94CB088A858F5F8A87DACFC7010E9432
:10390000841BF8CF61960FB6F894DEBF0FBECDBF13
:10391000DF91CF911F910F91FF90EF90DF90BF90BB
:10392000AF9008956EE274E081EE93E00E94082962
:1039300084E690E00E94B50381EE93E00E94332973
:1039400084E690E00E94B50380E008954F925F9274
:103950006F927F928F929F92AF92BF92CF92DF929F
:10396000EF92FF920F931F93CF93DF93CDB7DEB704
:1039700061970FB6F894DEBF0FBECDBF8C01FC017E
:1039800060807180C090AE01D090AF018689978928
:10399000C81AD90A828093807801FAE0EF0EF11CF0
:1039A000F886EF8219861A868FEF8C87FA82E98271
:1039B00096E09B831C828E83512C580180E1A80ED7
:1039C000B11CBE016D5F7F4FCE0107960E942E1B7A
:1039D000482E882349F15C84652DC5010E945C1B3B
:1039E0008823D1F0C614D70490F0652DC5010E943C
:1039F000841B652DC7010E94841B60914804252DFE
:103A000031E84FEF5FEF8DEA91E00E94CB088A85A5
:103A10008F5F8A87542CD5CFC814D904C0F3652D85
:103A2000C7010E94841BF3CF511007C08091AE01E3
:103A30009091AF01F801978B868B80E061960FB66D
:103A4000F894DEBF0FBECDBFDF91CF911F910F91D4
:103A5000FF90EF90DF90CF90BF90AF909F908F90AE
:103A60007F906F905F904F9008950C94A61C872FC5
:103A700090E0982F8827860F911D2FEF280F283070
:103A800018F4815290E008958F5D94E40895AF9208
:103A9000BF92CF92DF92EF92FF920F931F93CF933B
:103AA000DF93FB01B180B7FC5BC0EB018C016C01C3
:103AB000FAE0CF0ED11C6881C6010E945C1BA82EC3
:103AC000780180E1E80EF11C6881C7010E945C1B4F
:103AD000B1FE90C0B0FC8EC0A11051C0811185C054
:103AE0008A819B81292F30E0322F2227482F50E0F6
:103AF0004150504C240F351F2031310598F46A8114
:103B00007B81C8010E94371D9B838A836881C6011F
:103B10000E946D1B8091AE019091AF01F801978BCF
:103B2000868B1BC0F8012085222339F0292F207CA9
:103B300021F420E2280F283048F3F80121852223C0
:103B400031F0943421F426ED280F2A32F8F2292F8F
:103B5000207C41F4805E883050F48881F801808FA9
:103B600080E038C0943419F48A528A32B0F3F801F4
:103B70008689978920813181821B930BD0CF88233E
:103B800061F36881C6010E94841B9881F801808DD1
:103B9000981729F06881C7010E94841BDECF6A81D3
:103BA0007B81C8010E94021C8823A1F3F801848153
:103BB000958197FF02C0808191812091AE01309163
:103BC000AF01F80146895789241B350B281739079F
:103BD00008F782E0DF91CF911F910F91FF90EF9056
:103BE000DF90CF90BF90AF9008956881C6010E948A
:103BF000841BD0CFA11003C0882309F4B1CF688102
:103C0000C7010E946D1BE5CF66E374E081EE93E08F
:103C10000E94082984E690E00E94B50381EE93E0BB
:103C20000E94332984E690E00E94B50380E0089565
:103C3000FC01872F90E0982F8827680F792F711D3E
:103C4000613180EC7807E0F0623188EC780750F45D
:103C50006151704C66A717A611AA80EE870F80AB42
:103C600081E00895633180ED780750F46251784C1B
:103C700066A717A68AE2870F80AB84E481ABF0CFFA
:103C800080E008958F929F92AF92BF92CF92DF9281
:103C9000EF92FF920F931F93CF93DF9300D000D04A
:103CA000CDB7DEB78C01F62E2FE2261708F469C0D7
:103CB000E62FF0E0EE0FFF1FE75BFB4FD080E180C7
:103CC0008FEFD8120FC0E8120DC0AF2DB0E0AD5489
:103CD000BE4FE0910201F09103016F2D8C91099587
:103CE000D82EE92E6D2D7E2DC8010E94181EB82EEB
:103CF000811135C0EF2DF0E0ED54FE4F8080C12CD6
:103D0000AA24AA94912CF8018281C81608F042C016
:103D1000F4E0CF9EC0011124F80160817181680F29
:103D2000791FAA8244E050E0CE0101960E948632BB
:103D300089819A813B812C81F9122AC0482F082E53
:103D4000000C550B4815590511F08F3F09F5F80186
:103D5000D6A6E7A6C90190AB21ABBB24B3948B2DAB
:103D60000F900F900F900F90DF91CF911F910F91B7
:103D7000FF90EF90DF90CF90BF90AF909F908F908B
:103D800008951092A9041092AA04E9EAF4E096CFEB
:103D9000C394B9CFD6A6E7A68FEF80AB81ABDFCFB8
:103DA000CF93DF93FC01EB019A01261B370BA4E6AE
:103DB000B0E00E94543226A130E050E040E00E9482
:103DC0002C328091AE019091AF01BC016C1B7D0B38
:103DD00081E06217730708F080E0DF91CF910895CA
:103DE000292F207C39F490E2980F81E0983048F038
:103DF00080E007C09434E1F796ED980F81E09A32A5
:103E0000B8F70895CF93DF93EC018881681780F5A8
:103E1000882371F181508883E62FF0E0DF0111964D
:103E2000AC0FBD1FEE0FFF1F7196EC0FFD1F962FFD
:103E3000981780F411962C9111972D9318962C9128
:103E4000189717962C9317972281338121933193DA
:103E50009F5FEECF2FEF30E001C0220F6A95EAF7A7
:103E600089A1922F9095982386958223892B89A3E7
:103E7000DF91CF910895CF93DF9300D000D01F92B0
:103E8000CDB7DEB7FC01348584A1982F917080FDF9
:103E900028C082E0248139838A836B837C832D83CD
:103EA00091110AC0872F90E0982F8827680F792FEB
:103EB000711D64307105F0F460E0CF0103960E943B
:103EC000021F29813A814B815C816D818DEA91E0ED
:103ED0000F900F900F900F900F90DF91CF910C9457
:103EE0007F0981E0D7CF6D32710530F369337105F9
:103EF00018F703C068327105B0F78489958994A7D3
:103F000083A7DACFCF93DF93FC017381DC011D9689
:103F100081E090E060E08717F0F452A94D9124A170
:103F200030E0082E02C0359527950A94E2F720FD6F
:103F30000DC0541721F080E0DF91CF9108952489BE
:103F4000358934AB23AB682F0196E5CF5413FCCFF2
:103F50008FEF82ABF0CF8091AE019091AF0123A99A
:103F600034A9821B930B25A92817190609F068F4B8
:103F70008FEF82AB6623F9F2EF012396CE010E9408
:103F8000021F60E0CE010E94021F81E0D5CF7F9228
:103F90008F929F92AF92BF92CF92DF92EF92FF9259
:103FA0000F931F93CF93DF93EC019B81911110C06E
:103FB000F12C8F2DDF91CF911F910F91FF90EF90FA
:103FC000DF90CF90BF90AF909F908F907F9008959B
:103FD0009C848CA180FF13C0983041F460E070E0B5
:103FE000CE010E943B1FFF24F394E3CF8AA99812CD
:103FF000F5CFCE010E94821F8111DACFEFCF692D5C
:10400000CE010E94421E882309F470C0FDA0FF204B
:1040100009F46CC00EA51FA5C8010E94F01E882ED1
:104020008091AE019091AF012BA53CA5821B930B13
:104030002AA52817190609F010F57B80A090AE017B
:10404000B090AF016E0101E010E0E12C202F0715C8
:1040500008F065C08CA190E0002E02C09595879570
:104060000A94E2F780FD12C0811040C0EE2009F4EE
:1040700054C07FEFC71AD70A0F5F1F4FE7CF8110D9
:10408000DCCFB801CE010E943B1FD7CFF60195854A
:10409000FE013D9681E099122DC0EE2019F08EA10F
:1040A000811110C0882059F068A979A99AAA8C8931
:1040B0009D899CAB8BABCE010E943B1F7ACF6EA536
:1040C0007FA5F4CFF801EE0FFF1FEC0FFD1F448911
:1040D0005589EE2DF0E0EE0FFF1FEC0FFD1F6489F8
:1040E0007589CE010E94D01E8111C3CF6EA57FA518
:1040F00077CF8F5F821708F0BCCF31913913F9CF9A
:104100004C895D89B501641B750B39A536171706F7
:1041100009F078F768A979A9CECFE02EAACF88E078
:10412000781246CFE3CF0F931F93CF93DF93EC0129
:10413000FB0124818DA5922F981B19162CF08B81E1
:1041400081111CC080E025C02DA780818033D0F76D
:10415000818187FDF7CF8B018DA181111FC0628105
:104160007381CE010E94181E882361F38EA59FA53E
:10417000D80113969C938E931297E4CF022E000CD5
:10418000330B8C81281B310987FD339537FDDACF3E
:1041900082E0DF91CF911F910F9108952B81822FA3
:1041A00090E03481FE01E80FF91F3483DB013C917C
:1041B0003487880F991FFE01E80FF91F8091AE0127
:1041C0009091AF01958B848B11964C913CA181E02D
:1041D00090E0A0E0B0E0022E04C0880F991FAA1F53
:1041E000BB1F0A94D2F740FF0CC041FD0AC0832BCD
:1041F0008CA32F5F2B83CE010E94C71F8111FBCFA1
:10420000C7CF80958323F4CF0F931F93CF93DF9372
:10421000EC012091AE013091AF018AA590E04BA551
:104220005CA5B901641B750B6817790738F0A90103
:1042300041505109481B590B5CA74BA78B81882320
:10424000D9F08C899D89281B390B8FA198A5281737
:10425000390768F00EA51FA5C8010E94F01EB8011D
:10426000811102C068A979A9CE010E943B1FCE012D
:104270000E94C71F8111FBCF80E0DF91CF911F917A
:104280000F910895CF93DF93CFE2D3E01982188284
:104290001A821B8288E0EEE3F1E0ABE3B3E0019029
:1042A0000D928A95E1F781E08DA380E58EA38AEFD8
:1042B00090E098A78FA382E389A78BE48AA780E088
:1042C00091E09CA78BA78FEF8DA78EA78FA788ABB8
:1042D00089AB8AAB88EC8DABDF91CF910895FC015F
:1042E00088EC90E092838183148213828FEF858320
:1042F00016824091460150914701609148017091AA
:1043000049014387548765877687808F80917E0334
:1043100081112CC081EE809386031092870386E280
:104320008093880388E08093890310928B03109216
:104330008A0395EE90938C0310928D0397E29093ED
:104340008E0380938F03109291031092900310922A
:10435000920310929303109294031092950310927B
:1043600097031092960381E080937E0386E893E0A2
:104370009483838308956DE374E081EE93E00E945B
:10438000082984E690E00E94B50381EE93E00E9444
:10439000332984E690E00E94B50380E00895DC01B3
:1043A00090E086E01396ED91FC911497989FE00DB4
:1043B000F11D1124208121110FC0318131110CC058
:1043C0003281311109C03381311106C044815581D8
:1043D000452B11F48FEF0895261303C02181271771
:1043E00011F09F5FDFCF892F08950F931F93CF9315
:1043F000DF93CDB7DEB72A970FB6F894DEBF0FBEB6
:10440000CDBF8C01DC0157968C9180FD49C082E0C4
:10441000F801238597812E838F838FEF8887898783
:104420009A87662329F1908D97FD22C09081923062
:1044300079F460914804298391E09A838B838C837B
:104440006D8331E04FEF5FEF8DEA91E00E94CB0882
:10445000D80158968C9158971396ED91FC91B6E03F
:104460008B02E00DF11D1124828193819987888749
:10447000F80186818823F9F0815086833796D80128
:104480001F9690E0981770F4218121932481238353
:1044900012962D913C9113972D933D939F5FF2CFF0
:1044A00081E0B6CFD80157968C91579790E09595BB
:1044B000879557968C932E813F81488559856A85CB
:1044C0008DEA91E02A960FB6F894DEBF0FBECDBFFD
:1044D000DF91CF911F910F910C94CB08CF93DF9375
:1044E000EC018E81882329F060E0CE010E94F52145
:1044F000F8CFDF91CF910895FC0186818823F1F0F8
:1045000021813281808DA381B48196E08902A00D42
:10451000B11D112414968D919C91009709F09C0176
:104520008091AE019091AF0147855089841B950B16
:104530008217930718F0CF010E946E2280E0089541
:10454000CF93DF93FC01EB012081822F90E03C812F
:10455000DF01A80FB91F11963C931197388115966A
:104560003C93880F991FDF01A80FB91F8091AE01FE
:104570009091AF011A969C938E9319979981818996
:1045800041E050E060E070E0022E04C0440F551F8F
:10459000661F771F0A94D2F790FF09C091FD07C0EC
:1045A000482B418B2F5F2083DF91CF910895409559
:1045B0004823F7CF0F931F93CF93DF93EC01FB01B9
:1045C00084819D81282F291B12164CF09E81911108
:1045D0001CC080E0DF91CF911F910F9108958D83D2
:1045E00020812033B0F7818187FDF3CF382F3270DF
:1045F00081FF1FC080FD1DC09281983591F4938189
:10460000913DB9F4188281E0E5CF082E000C990B9A
:104610002F81821B910927FD939597FDDACF82E0C8
:10462000D9CF993531F49381913D19F481E0888394
:10463000D1CF9881913069F28F019E81992371F0D9
:1046400080FF09C0311107C08B85821323C061E050
:10465000CE010E94F521CE010E946E22F8018181D7
:1046600081FFB7CF80FDB5CF62817381CE010E94FB
:10467000CF21888F87FDADCF8881823069F4F80122
:10468000208131814281538164818DEA91E00E94D1
:10469000CB0802C09430F9F2B801CE0106960E9410
:1046A000A022BDCF85E693E00C946F2184E690E0D4
:1046B0000C94B5030C94C0328F929F92AF92BF922C
:1046C000CF92DF92EF92FF920F931F93CF93DF93DE
:1046D0008C01FC01E080F18015821482C280D380BD
:1046E000CE0CDF1C4701B12C8C149D0408F04BC08C
:1046F000E4012196C4010E945A238E3008F043C081
:10470000E82FF0E0EA57FC4D0C944E32B523942389
:1047100094239823982398239423942394239623D3
:10472000962396239B23AA23E40122964E01DCCFF5
:10473000E4012396FBCF4E01CE010E945A23A82EFE
:104740002296C40101960E945A23A110F4CF811130
:10475000F2CFECCF2C2F9D2F2196822F0E945A232F
:104760002C2F9D2F8111F8CFE1CFB394EB2DF0E0EA
:104770003296EE0FFF1FE00FF11FCE018E199F0939
:1047800091838083D3CF8B2DDF91CF911F910F9198
:10479000FF90EF90DF90CF90BF90AF909F908F9061
:1047A00008958F929F92AF92BF92CF92DF92EF9235
:1047B000FF920F931F93CF93DF93FC01EC5BFF4FAE
:1047C0002081621708F0DFC07C01E62FF0E032960E
:1047D000EE0FFF1FEE0DFF1DD7010D911C91808183
:1047E0009181080F191FD12CF701808191812281BD
:1047F0003381820F931F0817190708F0C4C0E8011E
:104800002196C8010E945A2381508D3008F0BBC008
:10481000E82FF0E0E25FFB4D0C944E323A2449243D
:1048200055246624772488249424A02441244124F8
:1048300041241B24AC248D2C912CB12CA12CCE0115
:104840000E945A23C82E8E010E5F1F4FCE01019683
:104850000E945A23811102C0CC2091F0682F7C2D38
:104860008AE093E00E943E18C501B4010E947C03D7
:10487000E801E5CF0E5F1F4FCE010E945A23D82ECC
:10488000E8016D2D70E090E080E00E947C038E01D5
:10489000ABCF0E5F1F4FCE010E945A23682F70E0EE
:1048A00090E080E00E947C03EBCFCE010E945A236F
:1048B000C82EE8012396C80102960E945A23682F49
:1048C0007C2D8AE093E00E949A17DBCFCE010E94F4
:1048D0005A23C82EE8012396C80102960E945A2343
:1048E000682F7C2D8AE093E00E94D517CACFCE01B5
:1048F0000E945A23C82EE8012396C80102960E94FE
:104900005A23682F7C2D8AE093E00E943E18B9CF8D
:104910000E5F1F4FCE010E945A23682F70E08AE07D
:1049200093E00E949A17ACCF0E5F1F4FCE010E94FA
:104930005A23682F70E08AE093E00E94D517A0CF39
:104940000E5F1F4FCE010E945A23682F70E08AE04D
:1049500093E00E943E1894CFCE018D2C912CB12C67
:10496000A12C21960E945A23882309F48ACF682F0C
:1049700070E08AE093E00E943E18C501B4010E94F5
:104980007C03CE01EECFDF91CF911F910F91FF906D
:10499000EF90DF90CF90BF90AF909F908F90089551
:1049A000292F30E0322F222790E08C55914D280F8F
:1049B000391F81E02032310508F080E008950F931F
:1049C0001F93CF93DF938C01EB018A819B810E941F
:1049D000D0248823A9F0898181FF0DC080FD0BC000
:1049E0006A816C55C8010E94D12381E0DF91CF918B
:1049F0001F910F9108958AE093E00E94FD17F5CF73
:104A000080E0F4CF62E674E081EE93E00E94082932
:104A10000E94562381EE93E00E9433290E94562380
:104A200080E008950F931F93CF93DF93EC018B01E8
:104A300087ED92E00E947410998388831B830A8318
:104A4000CE010E945C23CC5BDF4F8883DF91CF9146
:104A50001F910F910895CF92DF92FF920F931F93B2
:104A6000CF93DF93EC018B0188EE92E00E947015EA
:104A7000882391F067E574E081EE93E00E94372986
:104A80000E94562368E474E081EE93E00E94372987
:104A90000E94562380E064C047E554E0B80188EEE8
:104AA00092E00E94C715882309F462C081EE93E06A
:104AB0000E94142710E000E08A30910511F0019661
:104AC000F9F48A819B810817190708F048C088818A
:104AD0009981800F911F0E945A234AE050E0682F6D
:104AE00081EE93E00E94F1290E94562360E281EE5C
:104AF00093E00E942C290E9456230F5F1F4FE1CFA5
:104B000081EE93E00E9414278A30910511F10196FD
:104B100001F18A819B8108171907D8F441E070E000
:104B200060E081EE93E00E94942AF62E68018FEFF8
:104B3000C81AD80A88819981080F191FC8010E94D4
:104B4000C032F81621F06F2DC8010E94C8328601CC
:104B5000D7CFCE010E945C23CC5BDF4F888381E0FE
:104B6000DF91CF911F910F91FF90DF90CF9008952B
:104B700048E454E0B80188EE92E00E94C71588230B
:104B800009F488CF41E070E060E081EE93E00E949C
:104B9000942ACE010E94D123E2CF84E690E00C94C7
:104BA000B50368E874E081EE93E00E9408290E9452
:104BB000CD2581EE93E00E9433290E94CD2580E02F
:104BC00008950F931F93CF93DF93EC018B0187ED33
:104BD00092E00E947410998388831B830A83DF917B
:104BE000CF911F910F9108957F928F929F92AF92D4
:104BF000BF92CF92DF92EF92FF920F931F93CF93CA
:104C0000DF9300D000D0CDB7DEB77C018B0188EEFA
:104C100092E00E9470158823D9F066E774E081EE77
:104C200093E00E9437290E94CD2580E00F900F90DD
:104C30000F900F90DF91CF911F910F91FF90EF9008
:104C4000DF90CF90BF90AF909F908F907F9008950E
:104C500046E754E0B80188EE92E00E94C715882329
:104C600021F381EE93E00E94142710E000E08A30E7
:104C7000910519F0019609F071C0F70182809380C7
:104C80000815190508F046C05801FFEFAF1ABF0A12
:104C9000F70180819181800F911F0E94C032C82E40
:104CA0008FEF8C0D8E3FB0F54AE050E06C2D81EE19
:104CB00093E00E94F1290E94CD2560E281EE93E00D
:104CC0000E942C290E94CD25D12C4501FFEF8F1A7F
:104CD0009F0AF701808191818A0D9B1D0E94C0323D
:104CE000682F81EE93E00E942C290E94CD2581E05F
:104CF0008D0D54018C110CC00E5F1F4F0D0D111D39
:104D00006AE081EE93E00E942C290E94CD25B5CF68
:104D1000D82EDBCF4AE050E070E060E081EE93E017
:104D20000E94DD290E94CD2560E281EE93E00E9481
:104D30002C290E94CD2560E774E081EE93E00E946B
:104D400008290E94CD254AE050E0B40181EE93E0AD
:104D50000E94F8290E94CD2581E068CFF701828169
:104D6000938108171907C0F741E070E060E081EE19
:104D700093E00E94942AD62E41E050E0BE016C5F81
:104D80007F4F81EE93E00E94F52A5801FFEFAF1AA2
:104D9000BF0AF70180819181800F911F9A838983D7
:104DA0006D2DCE0101960E940D1077247A947D0C12
:104DB000FDEFF71588F2C12C41E050E0BE016D5FB8
:104DC0007F4F81EE93E00E94F52A6B8145012FEF22
:104DD000821A920AF70180819181A80EB91EBA82C7
:104DE000A982CE0101960E940D10C3945401CD14E6
:104DF00018F30E5F1F4F070D111DB0CFCF93DF9338
:104E00001F92CDB7DEB76983DC01ED91FC91028082
:104E1000F381E02D41E050E0BE016F5F7F4F0995C7
:104E20000F90DF91CF910895CF93DF93EC018C85A4
:104E30009D8597FF05C082E00E94102C9D878C877E
:104E40008C859D85DF91CF91089583E00E94272C6A
:104E500090E0089583E00C94962EFC01848595855E
:104E600097FD06C082E00E94C02B90E00196089555
:104E700082E00E94C02B90E00895FC018485958516
:104E800097FD05C02FEF3FEF35872487089582E017
:104E90000C94102CCF93DF93EC0180913601882382
:104EA00031F083E00E94412C1816190634F081E09D
:104EB00090E09B838A8380E090E0DF91CF9108951A
:104EC000EEEFFFE72591349181E02B3F3C4D09F057
:104ED00080E00895FC0190819E5F908342E450E061
:104EE00063E974E080E80C94F22CFC0181819081EC
:104EF000913A61F4813209F083C047E050E06FE2FB
:104F000071E080E00E94F22C81E00895913209F076
:104F100077C0833269F482819381B0E0A0E080930E
:104F20002B0190932C01A0932D01B0932E01ECCF77
:104F3000803239F467E070E08FE291E00E94182D32
:104F4000E3CF823209F78281809336010E94602785
:104F5000E0E0F8E0882311F0EEEFFAE080912F0115
:104F600090913001A0913101B0913201803B944089
:104F7000A105B105D9F48091360180FD17C0EE3F3F
:104F80008AE0F80771F587E797E79183808380913E
:104F900060008093310488E19BE00FB6F894A895F7
:104FA000809360000FBE90936000AECF80819181AE
:104FB0008737974709F0A8CFA8958091600088614E
:104FC000809360008091310480936000EE3F8AE01E
:104FD000F80789F08091FE0A9091FF0A91838083FF
:104FE00093CF808191818737980769F29093FF0A68
:104FF0008093FE0AC8CF1092FF0A1092FE0A84CF57
:1050000080E008952FEF3FEFFC0135872487089556
:10501000E1EEF3E01382128288EE93E0A0E0B0E0CC
:1050200084839583A683B78383E791E0918380830C
:105030008FEF9FEF958784870895EF92FF920F93EC
:105040001F93CF93DF937B01FC01C281D38110E0DA
:1050500000E0209791F0E881F9810280F381E02D52
:10506000B701CE01099597FD06C0080F191F0884E6
:10507000D985C02DEECF0FEF1FEFC801DF91CF9183
:105080001F910F91FF90EF9008950F931F93CF936F
:10509000DF938B01FC01C281D381209771F0E881FD
:1050A000F9810480F581E02DB801CE0109950097C2
:1050B00031F40884D985C02DF0CF90E080E0DF91F5
:1050C000CF911F910F9108950F931F93CF93DF936B
:1050D0008B01FC01C281D381209771F0E881F981B5
:1050E0000680F781E02DB801CE010995080F111D4A
:1050F0000884D985C02DF0CFF8011082DF91CF91BF
:105100001F910F9108950F931F93CF93DF938B01FE
:10511000FC01C281D381209771F0E881F98101906F
:10512000F081E02DB801CE010995811105C00884F8
:10513000D985C02DF0CF80E0DF91CF911F910F91E5
:105140000895CF93DF93FC01DB01218114968C91AC
:105150001497820F9927991F08978CF5C281D381E4
:10516000209731F573836283908112969C931297F6
:1051700013962C93139715968C911597890F80830E
:1051800080E014969C9114978917E8F41696CD91B7
:10519000DC911797C80FD11D9881C181D0E0C95CFF
:1051A000DE4F988391819F5F91838F5FEACFEC01FF
:1051B000888599850097D9F7B987A887D5CF80E0EA
:1051C000DF91CF91089581E0FBCF8091320481116E
:1051D0000DC082E080933A0484E080933B041092F7
:1051E0003D0410923C0481E0809332048AE394E011
:1051F0000895FB0101900020E9F73197AF01461BAC
:10520000570BDC01ED91FC910280F381E02D0994B4
:10521000EF92FF920F931F93CF93DF938C017B014B
:10522000D0E0C0E0F701EC0FFD1F6491662361F050
:10523000D801ED91FC910190F081E02DC801099514
:10524000892B11F02196EECFCE01DF91CF911F91E6
:105250000F91FF90EF900895DC01ED91FC9101908A
:10526000F081E02D099461E871E00C94F9280F9326
:105270001F93CF93DF93EC010E9408298C01CE018C
:105280000E943329800F911FDF91CF911F910F91C1
:1052900008958F929F92AF92BF92EF92FF920F93D9
:1052A0001F93CF93DF93CDB7DEB7A1970FB6F894D6
:1052B000DEBF0FBECDBF7C01FA01CB0119A22230A7
:1052C00008F42AE08E010F5D1F4F822E912CB12C25
:1052D000A12CBF01A50194010E942C32F901CA0141
:1052E0006A300CF5605DD8016E938D01232B242B61
:1052F000252B79F790E080E0109721F0BD01C701E0
:105300000E94F928A1960FB6F894DEBF0FBECDBF5C
:10531000DF91CF911F910F91FF90EF90BF90AF90D1
:105320009F908F900895695CDECFCF92DF92EF92CD
:10533000FF920F931F93CF93DF932115310581F4D3
:10534000DC01ED91FC910190F081E02D642FDF9163
:10535000CF911F910F91FF90EF90DF90CF90099424
:105360002A30310501F52AE077FF1DC06A017B0173
:10537000EC016DE20E942C298C0144275527BA01CB
:105380004C195D096E097F092AE0CE010E94492966
:10539000800F911FDF91CF911F910F91FF90EF90A0
:1053A000DF90CF900895DF91CF911F910F91FF90E3
:1053B000EF90DF90CF900C9449299A01AB01770FC1
:1053C000660B770B0C9495292115310541F4DC010E
:1053D000ED91FC910190F081E02D642F09940C94E3
:1053E00049299A01462F50E070E060E00C94E429CE
:1053F0009A01AB0170E060E00C94E4290F931F93D5
:10540000CF93DF93EC010E944B03688779878A87EB
:105410009B87E881F9810284F385E02DCE0109950F
:1054200097FF15C00E944B03088519852A853B8587
:10543000601B710B820B930B0C811D812E813F81B0
:10544000601771078207930720F38FEF9FEFDF91BB
:10545000CF911F910F9108950F931F93CF93DF93D7
:10546000EC010E944B03688779878A879B87E881D4
:10547000F9810484F585E02DCE01099597FF15C0CB
:105480000E944B03088519852A853B85601B710B9B
:10549000820B930B0C811D812E813F816017710758
:1054A0008207930720F38FEF9FEFDF91CF911F913A
:1054B0000F910895FF920F931F93CF93DF93EC0109
:1054C0008B01F42ECE010E942C2A97FD1DC08D3237
:1054D0009105D1F09C01205331092A303105A0F00B
:1054E000FF2019F08E32910579F00130110551F04D
:1054F0000230110589F48D30910571F05CF4099743
:10550000029750F08FEF9FEFDF91CF911F910F9196
:10551000FF9008958097B1F7E881F9810284F385BF
:10552000E02DCE010995CECFBF92CF92DF92EF92C0
:10553000FF920F931F93CF93DF938C01C42F40E012
:105540000E945A2AFC01C12CD12C760197FD3EC045
:10555000B12C0C2E000CDD0BCE17DF07D9F0ED328D
:10556000F10509F43FC0CF01C0970A9798F4AAE06B
:10557000B0E0A70196010E9463326F01FF0FEE08B1
:10558000FF08C60ED71EE81EF91E80E3C81AD10810
:10559000E108F108D801ED91FC910284F385E02D3A
:1055A000C8010995C8010E942C2AFC01C0970A97DE
:1055B00098F2CE17DF0781F2BB2041F0F094E0941F
:1055C000D094C094C11CD11CE11CF11CC701B601D0
:1055D000DF91CF911F910F91FF90EF90DF90CF90CF
:1055E000BF900895BB24B394D5CFAF92BF92CF9212
:1055F000DF92EF92FF920F931F93CF93DF935C01A3
:105600007B018B01040F151FEB016E01CE18DF0823
:10561000C017D10739F0C5010E94FE2997FD02C0CD
:105620008993F3CFC601DF91CF911F910F91FF9026
:10563000EF90DF90CF90BF90AF90089540914104DC
:105640005091420420913F04309140044217530787
:10565000B4F49091E8009570E1F39091E80092FD28
:1056600019C08093F1008091410490914204019609
:105670008F739927892B19F48EEF8093E80080911E
:105680004104909142040196909342048093410416
:1056900081E0089580E00895EF92FF920F931F93A9
:1056A000CF93DF93F82E192FE62E042F81E0860F7B
:1056B000880F0E941E2B83E00E941E2BCF2DD12F1E
:1056C000EC0EFD2EF11CCE15DF05B9F007FF13C05F
:1056D000FE0184910E941E2B182F80E00E941E2B39
:1056E000812321968111EFCFDF91CF911F910F91EF
:1056F000FF90EF9008958881EDCF81E0F5CF809104
:10570000D70081608093D70080EA8093D80089B564
:10571000806189BD89B5826089BD09B400FEFDCF75
:1057200061E070E080E090E00E947C038091D8000E
:105730008F7C80618093D8008091E000807F80938F
:10574000E0000895CF93DF931F92CDB7DEB71982A3
:10575000CE0101960E946A270E94E528BE016F5F74
:105760007F4F0E941D2889810F90DF91CF9108956E
:105770002FB7FC012083F89467706093E9000895C7
:10578000CF93DF931F92CDB7DEB7682FCE0101967E
:105790000E94B82B8091F20099819FBF0F90DF91FA
:1057A000CF910895EF92FF920F931F93CF93DF93C2
:1057B0001F92CDB7DEB790914504992371F157FD43
:1057C0002CC08A017B01682FCE0101960E94B82B64
:1057D0008091F20090E0081719070CF4C801282FF7
:1057E000F70144E6215030F0409346043091F10037
:1057F0003193F8CF009739F02091F200211103C0C6
:105800002BE62093E80029812FBF0F90DF91CF91E5
:105810001F910F91FF90EF9008958FEF9FEFF5CFBD
:10582000CF93DF931F92CDB7DEB741E050E0BE01CA
:105830006F5F7F4F0E94D22B019731F4898190E0F6
:105840000F90DF91CF9108958FEF9FEFF9CFCF9316
:10585000DF931F92CDB7DEB7682FCE0101960E946D
:10586000B82B9091E800892F807295FF04C0909129
:10587000F20080E4891B99819FBF0F90DF91CF9147
:1058800008955F926F927F928F929F92AF92BF9294
:10589000CF92DF92EF92FF920F931F93CF93DF93FC
:1058A0001F92CDB7DEB7982E6B01B42E052F8091D5
:1058B0004504811113C08FEF9FEF0F90DF91CF91BF
:1058C0001F910F91FF90EF90DF90CF90BF90AF901E
:1058D0009F908F907F906F905F9008958091430488
:1058E00080FF05C08091E00082608093E000EB2C97
:1058F000F02EA12C8AEF882E892D8072682E892D9A
:105900008074582E9AE3792EE114F10419F4AA2038
:1059100009F457C0892D0E94272C182F81110AC025
:105920008A94882041F261E070E080E090E00E947B
:105930007C03EACF8E151F0411F00CF01E2D692D8B
:10594000CE0101960E94B82B8091E80085FD03C02E
:1059500089818FBFD9CF812F90E0E81AF90A66209C
:1059600029F01150A0F01092F100FBCFF60197FC46
:105970000AC0115050F021912093F100FACF2491E8
:105980002093F10031961150D0F7C80ED91EAA20ED
:1059900021F07092E800A12CDBCF8091E80085FD1A
:1059A00008C07092E800AA24A394E114F10481F2E3
:1059B000F2CFE114F10461F6552051F27092E80043
:1059C000C7CF84E6809347048B2D902F76CF10921B
:1059D000E900109242041092410490934004809395
:1059E0003F040895DF92EF92FF920F931F93CF939E
:1059F000DF93D82E8A01EB017B01E40EF51ECE1554
:105A0000DF0559F0D7FE12C0FE0184910E941E2BC3
:105A100021968111F4CF0FEF1FEFC801DF91CF91D5
:105A20001F910F91FF90EF90DF9008958881EECF46
:105A3000CF93DF93EC019B01B4E6ABEF2115310569
:105A4000F1F0A9012134310514F040E450E08091D7
:105A5000E80082FFFCCF942FFB01E21BF30BEC0F5D
:105A6000FD1F915028F08091F10080833196F9CF8D
:105A7000B0934604A093E800241B350BDFCFCB0185
:105A8000DF91CF9108951F920F920FB60F921124BC
:105A9000CF92DF92FF920F931F932F933F934F93D9
:105AA0005F936F937F938F939F93AF93BF93EF9386
:105AB000FF93CF93DF93CDB7DEB76C97DEBFCDBF3B
:105AC0001092E9008091E80083FF2FC089E0FE0179
:105AD0007596FE2E0F2F815029F09091F100908342
