:100000000C94A8030C94D0030C94D0030C94D0034C
:100010000C94D0030C94D0030C94D0030C94D00314
:100020000C94D0030C94D0030C94022C0C94A52AAD
:100030000C94D0030C94D0030C94D0030C94D003F4
:100040000C94D0030C94D0030C94D0030C94D003E4
:100050000C94D0030C94D0030C94D0030C94AD23D7
:100060000C94D0030C94D0030C94D0030C94D003C4
:100070000C94D0030C94D0030C94D0030C94D003B4
:100080000C94D0030C94D0030C94D0030C94D003A4
:100090000C94532E0C94D0030C94D0030C94D003E6
:1000A0000C94D0030C94D0030C94D0030FC2040022
:1000B000009404E6039204F80390040A0478021EF4
:1000C0000475021E0472021E046F021E046C021EDE
:1000D0000469021E0466021E048E042804C1045A28
:1000E00004750445043B04330400410437273800F9
:1000F00000003F043701070000006C6F63616C6C07
:1001000079206275696C74004B6579626F61726405
:10011000696F204D6F64656C203031202D204B615C
:100120006C6569646F73636F70652000FFFF1E006C
:100130001F002000210022000043E000E4000160D5
:100140002300240025002600270001443500140068
:100150001A000800150017002B002A002C002800A8
:100160001C0018000C00120013002E004B000400AD
:100170001600070009000A002900E300E200E6007B
:100180000B000D000E000F00330034004E001D0068
:100190001B000600190005002C44E100E5002C447A
:1001A000110010003600370038002D00FFFFFFFF60
:1001B000FFFFFFFFFFFFFFFFFFFFFFFFFFFF0060ED
:1001C000FFFF2400250026005600FFFFFFFFFFFF72
:1001D000FFFFFFFFFFFFFFFFFFFFFFFFFFFFFFFF2F
:1001E000FFFF2100220023005700FFFFFFFFFFFF5A
:1001F000FFFFFFFFFFFFFFFFFFFFFFFFFFFFFFFF0F
:10020000FFFF1E001F0020002E00FFFFFFFFFFFF6B
:10021000FFFFFFFFFFFFFFFFFFFFFFFFFFFFFFFFEE
:10022000FFFF27003700550054002800FFFF3A0069
:100230003B003C003D003E003900FFFFFFFFB65889
:100240003F00400041004200430044002B00FFFFFC
:100250000150FFFF4250605029504C002800CD58FB
:10026000B5582F0830082F00300045004A000450D0
:1002700002500850415025502A50FFFFFFFF6500F3
:100280005000510052004F00FFFFFFFF4D0046009D
:100290004900FFFF44502650FFFFFFFFFFFFFFFF15
:1002A000E24CEA5CE95CFFFF3100310803040B0C0F
:1002B00013141A1B24252B2C33343B3C02050A0D46
:1002C0001215191C23262A2D32353A3D0106090E36
:1002D0001116181D2227292E3136393E0007080F26
:1002E00010171F1E2120282F3037383F636F6C6F87
:1002F000726D61702E6D617000637573746F6D0047
:1003000064656661756C74006F6E6C7943757374A7
:100310006F6D006B65796D61702E006B65796D6135
:10032000702E637573746F6D0A6B65796D61702ED5
:1003300064656661756C740A6B65796D61702E6FAA
:100340006E6C79437573746F6D00656570726F6D57
:100350002E6672656500656570726F6D2E636F6ED7
:1003600074656E747300656570726F6D2E636F6E69
:1003700074656E74730A656570726F6D2E66726552
:1003800065002F006372630076657273696F6E009B
:1003900076616C69643F0064656661756C744C617C
:1003A0007965720073657474696E67732E00736586
:1003B0007474696E67732E64656661756C744C61E4
:1003C0007965720A73657474696E67732E76616CF1
:1003D00069643F0A73657474696E67732E7665721B
:1003E00073696F6E0A73657474696E67732E6372D6
:1003F000630066616C736500747275650068656C96
:10040000700068656C70000D0A2E009F9FDFFB1F57
:10041000F197793FF11F1717F9F9996FF68F69393D
:10042000D311F1FD9BB99D9FF99F1F9FFD9FD73F62
:10043000FC6F6699F99969D9DF6996F966CFF35629
:10044000F496B4CFF8F9881FFE16FF8F24D7EB9FE0
:100450008F966970616C65747465001E083408209D
:100460000821082208240834002608270825082E19
:100470000836002D003700380027003308330036D7
:10048000082E00370838081F082F003100300023DD
:10049000082D0835002F08310830083508050109F6
:1004A00006A101050719E029E71500250175019549
:1004B00008810295017508810195057501050819E6
:1004C000012905910295017503910195067508159D
:1004D0000025FF0507190029FF8100C0050C09014F
:1004E000A1018504150026FF0319002AFF039504C6
:1004F00075108100C005010906A1018508050719CD
:10050000E029E71500250175019508810205081904
:100510000129089508750191020507750495018167
:1005200001190429DD15002501750195D981027590
:100530000395018101C005010902A1018501050999
:100540001901290815002501950875018102050189
:100550000930093109381581257F75089503810611
:10056000050C0A38021581257F750895018106C0A2
:1005700005010980A1018505150026FF0019002944
:10058000FF950175088100C005010902A101050957
:100590001901290815002501950875018102050139
:1005A0000930093116000026FF7F7510950281027F
:1005B00009381581257F750895018106C000000066
:1005C000000000000000000000000000000000002B
:1005D0000000000000000000000101010101010114
:1005E00001010101010102020202020202020303EF
:1005F00003030303030404040404050505050606B8
:100600000606070707070808080909090A0A0A0B66
:100610000B0B0C0C0D0D0D0E0E0F0F1010111112F7
:1006200012131314141515161617181819191A1B66
:100630001B1C1D1D1E1F20202122232324252627AD
:100640002728292A2B2C2D2E2F30313232333436C5
:100650003738393A3B3C3D3E3F40424344454648AB
:10066000494A4B4D4E4F515253555657595A5C5D5E
:100670005F606263656668696B6D6E7072737577D3
:10068000787A7C7E7F81838587898A8C8E9092940C
:1006900096989A9C9EA0A2A4A7A9ABADAFB1B4B600
:1006A000B8BABDBFC1C4C6C8CBCDD0D2D5D7DADCAD
:1006B000DFE1E4E7E9ECEFF1F4F7F9FCFF080B0008
:1006C00002020201000904000001020200000524E8
:1006D000001001052401010104240206052406007E
:1006E000010705810310004009040100020A00000F
:1006F00000070502024000000705830240000012C7
:10070000010002EF0201400912012300010102036E
:10071000014B6579626F617264696F004D6F64654A
:100720006C2030310004030904003706B20A160BAE
:1007300064137D14FA145715E1159D1ABD1BD11BC6
:10074000451ECF1F40202E210B22DF22C125BC0ACF
:1007500011241FBECFEFDAE0DEBFCDBF12E0A0E074
:10076000B1E0ECE8F2E602C005900D92A631B107C7
:10077000D9F726E0A6E1B2E001C01D92A935B20783
:10078000E1F713E0C7EAD3E004C02197FE010E941D
:10079000B430C539D107C9F70E94D3030C9439315D
:1007A0000C94000008950E9461240E94D2038BE003
:1007B00096E00E947A2C0E947F05C0E0D0E00E9463
:1007C000BA052097E1F30E940000F9CFFC01892BC4
:1007D00069F083E991E0918380837383628315825A
:1007E000148281E0868317828FEF8087CF0108957E
:1007F000FC01892B69F081EA91E091838083738306
:1008000062831582148281E0868317828FEF80874E
:10081000CF010895FC01892B79F085E891E091835F
:10082000808373836283148281E085838091860252
:100830009091870297838683CF010895009739F0BE
:100840002FEA31E0FC0131832083738362830895B2
:10085000009741F027E731E0FC0131832083738367
:10086000628314820895009739F025E531E0FC0198
:100870003183208373836283FB01408308950C944A
:10088000EA0F8EEB94E00C94411AFF920F931F93A2
:10089000CF93DF93EC018B01F42E009711F00E94AF
:1008A0003913F801F082CE01DF91CF911F910F91A2
:1008B000FF900895FF920F931F93CF93DF93EC0166
:1008C0008B01F42E009711F00E94491BF801F08271
:1008D000CE01DF91CF911F910F91FF900895CF939B
:1008E000C82F80EE94E00E94171F6C2F811105C065
:1008F00080EE94E0CF910C94591F8DE195E0CF915B
:100900000C94CE20089586E0E7E4F1E0DB0101904D
:100910000D928A95E1F786E00895009719F0029705
:1009200019F008950C944F140C9433140C948D0406
:1009300087E494E00E949E0C80E494E00E94630BA4
:100940008AE894E00E94AC1484E894E00E943E148B
:100950008BEB94E00E94B81983EB94E00E94871916
:1009600090E080E0089587E494E00E94A70D80E77E
:1009700094E00E94F80F90E080E0089590E080E01D
:1009800008950F931F93CF93DF93EC01162F042F3D
:10099000242F462FBC0184E894E00E94591401974B
:1009A00039F481E090E0DF91CF911F910F9108958C
:1009B000202F412FBE0181EC94E00E94531B019730
:1009C00081F3202F412FBE0185E794E00E94491357
:1009D000019739F3202F412FBE0186E994E00E9450
:1009E00053160197F1F2202F412FBE0183EB94E0C3
:1009F0000E94B61831E020E0019709F030E0832F23
:100A0000922FD1CFCF93DF93EC01BC0180E494E02F
:100A10000E94EA0B019729F481E090E0DF91CF91E9
:100A20000895BE018EE494E00E94A90E0197A1F3FF
:100A3000BE0186E494E00E94B00D019769F3BE0107
:100A400085E494E00E94290E019731F3BE0182E70C
:100A500094E00E9481110197F9F2BE018BE394E0CA
:100A60000E94070B31E020E0019709F030E0832F6E
:100A7000922FD4CF8BE394E00E94F80A90E080E0BC
:100A8000089590E080E008958EE494E00E94CC0EFA
:100A900084E894E00E947B1386E994E00E94921718
:100AA00083EB94E00E945E1880EB94E00E94B31701
:100AB00090E080E008958AE894E00E94B1148BEB06
:100AC00094E00E94201A86E994E00E94711683EB5C
:100AD00094E00E94511890E080E00895ECEAF0E084
:100AE000849108959B0194E0899FB001112463557E
:100AF0007F4F44E050E0C9010C94F6300895CF9345
:100B000080914F01909150010E947506C1E0C09301
:100B1000BD0410920701109208018FEF8093090124
:100B200066E984E994E00E94D81566E982E994E0D8
:100B30000E94DE1587E30E94210F80911602811129
:100B400006C08EE192E00E945E13C09316028EE111
:100B500092E090937A048093790482EC94E00E946E
:100B6000051685E00E947B0B65E08BE394E0CF9156
:100B70000C94E80A80914F01909150010C94F50675
:100B8000CF93DF93FC01D62FC72F972F907C442360
:100B900071F08681811101C0148284818C2B848341
:100BA000911104C080E28D0F883018F0D683911126
:100BB00022C080E28D0F8830F0F4C3FF03C081EEC5
:100BC0000E946F04C0FF03C080EE0E946F04C1FF4B
:100BD00003C082EE0E946F04C2FF03C086EE0E9433
:100BE0006F04C4FF03C083EE0E946F048D2FDF915A
:100BF000CF910C946F048581C82BC583F7CF8823D0
:100C000029F08130A1F090E080E0089561FFFBCFF2
:100C100060FDF9CF68E071E086E994E00E94AE16CD
:100C20006AEF70E086E994E00E94AE16ECCF9091F6
:100C30007B02911102C080937B0261FFE4CF40E010
:100C400060FD0CC00E94F72324E230E040E050E059
:100C50000E9492306C5F6093830241E06091830256
:100C60007091840282ED94E00E94C005CCCFE8E749
:100C7000F2E020EA208311821282E5E7F2E08CE8BC
:100C8000808396E491831282E2E7F2E082E8808337
:100C900034E631831282EFE6F2E010822183128281
:100CA000ECE6F2E0108291838283E9E6F2E01082C2
:100CB00011829AEA9283E6E6F2E08083118288E765
:100CC00082830895CF93C82F80EE94E00E94171F6F
:100CD0006C2F811105C080EE94E0CF910C94591FC8
:100CE0008DE195E0CF910C94CE20CF9340E855E272
:100CF00060E070E08EEA95E00E94BB250E948204CD
:100D00000E94980482ED94E00E94A30A0E947B074F
:100D1000C0E08C2F0E942107CF5FC034D1F7CF9164
:100D200008951F93CF93DF93EC011D818C811823CD
:100D300013FF03C081EE0E94620610FF03C080EE25
:100D40000E94620611FF03C082EE0E94620612FF3B
:100D500003C086EE0E94620614FF03C083EE0E9469
:100D6000620680EE94E00E94171F6E81811117C009
:100D7000662371F080EE94E00E94801F80EE94E084
:100D80000E941D1F6E8180EE94E00E94591F1E82FA
:100D900080EE94E0DF91CF911F910C941D1F66238C
:100DA00071F08DE195E00E94F5208DE195E00E94C3
:100DB0006E206E818DE195E00E94CE201E828DE135
:100DC00095E00E946E208FEF94E0DF91CF911F910C
:100DD0000C941820FC01168215828DE195E00E948A
:100DE0001E218FEF94E00C9405200E94F72360935E
:100DF00086027093870280938802909389020E94F2
:100E0000B3040E94FD090E94440582ED94E00E9413
:100E1000910682ED94E00E94EA060C945B0520E4C2
:100E2000829FC0011124680F792F711D660F771FF3
:100E3000FB01E45DFE4F8491FB01E35DFE4F949165
:100E40000895CF93DF93282F30E0E901CC0FDD1F09
:100E5000C653DD4F26573D4FE0910101F09102014D
:100E6000682FD9018C91099599838883DF91CF915F
:100E70000895CF92DF92EF92FF92C0904B03D090F3
:100E80004C03E0904D03F0904E038091000181509F
:100E900090E0282F0097A1F0B701A601082E04C00A
:100EA00076956795579547950A94D2F7019740FF35
:100EB000F0CF20934A03FF90EF90DF90CF900895FA
:100EC00010924A03F8CF0F931F9340914B03509118
:100ED0004C0360914D0370914E038A019B0104C045
:100EE00036952795179507958A95D2F7C801817091
:100EF0001F910F9108950F931F93CF93DF93EAE80B
:100F0000F2E080E4DF011D928A95E9F78F01D0E0DD
:100F1000D034E1F0C0914A031C1694F48C2F0E9447
:100F20006307882389F0E0910101F09102016D2FA0
:100F30008C2F09958F3F11F49F3F31F0F801C0834A
:100F4000DF5F0F5F1F4FE4CFC150E6CFDF91CF913E
:100F50001F910F910895282F80910001281708F004
:100F600020E081E090E0A0E0B0E004C0880F991F8D
:100F7000AA1FBB1F2A95D2F780934B0390934C0373
:100F8000A0934D03B0934E030E9439070E947B0744
:100F90000C943A050F931F9300914B0310914C034F
:100FA00020914D0330914E03B901A801082E04C0D1
:100FB00076956795579547950A94D2F740FF28C0D4
:100FC00041E050E060E070E0082E04C0440F551F7F
:100FD000661F771F0A94D2F74095509560957095DB
:100FE000402351236223732340934B0350934C03BC
:100FF00060934D0370934E0390914A03981302C07F
:101000000E9439070E947B071F910F910C943A05AB
:101010001F910F910895CF9390910001891780F54A
:10102000C82F0E94630781112BC081E090E0A0E0EF
:10103000B0E00C2E04C0880F991FAA1FBB1F0A9492
:10104000D2F740914B0350914C0360914D03709146
:101050004E03842B952BA62BB72B80934B03909399
:101060004C03A0934D03B0934E0380914A038C1719
:1010700010F40E9439070E947B07CF910C943A0527
:10108000CF91089580914A038F5F0C940B08809153
:101090004A030C94CA07CF93962F9270843540F080
:1010A0009923E1F160FD3AC08455CF910C94AB07D0
:1010B000C82F8A3230F1CA52C13251F0C23281F4A3
:1010C0006170992349F1611129C0CF910C944208B4
:1010D0006170992329F1611121C0CF910C944708C7
:1010E000992349F08C2F0E946307811117C08C2F20
:1010F000CF910C940B0860FF11C08C2FCF910C94F2
:10110000CA07992359F060FD09C00E94630788232C
:1011100071F3CC2361F3F1CF6111DFCFCF9108954B
:101120006623E1F3D2CF943429F4642F0E944B0854
:1011300080E090E0089580EE94E00E94BF1F8DE172
:1011400095E00E9424218FEF94E00E943E2082E8E7
:1011500095E00C94EF216E9A769824982C98089537
:10116000803420F060E070E080E00895282F30E0C7
:10117000803258F4F901EE0FFF1FE20FF31FEF5218
:10118000FC4F608171818281089520523109F901FB
:10119000EE0FFF1FE20FF31FE959FC4FF2CF0F9341
:1011A0001F93CF93DF93C82F8A01D62F8032F8F494
:1011B0000E94B008D81319C081E0171303C00613AA
:1011C00001C080E090910301892B8093030123E00B
:1011D000C29FF0011124EF52FC4F00831183D28390
:1011E000DF91CF911F910F91089581E0EBCF803473
:1011F000B8F70E94B008D81317C081E0171303C0D6
:10120000061301C080E090910301892B80930301B4
:101210002C2F2052330BC901F901EE0FFF1FE80FED
:10122000F91FE959FC4FD9CF81E0EDCF809103013F
:10123000882311F181ED93E00E949B2387E693E0E0
:101240000E949B2381ED93E00E949B2387E693E01D
:101250000E949B2381ED93E00E949B2387E693E00D
:101260000E949B2381ED93E00E949B2387E693E0FD
:101270000E949B231092030108953F9A479A089574
:101280000FB6F894A8958091600088618093600003
:10129000109260000FBE64E670E080E090E00E9473
:1012A00028240C943D098091630390916403A091DC
:1012B0006503B091660380935B0390935C03A093F6
:1012C0005D03B0935E0380915F0390916003A091F2
:1012D0006103B09162038093570390935803A093E6
:1012E0005903B0935A0381ED93E00E941B23882396
:1012F00061F081ED93E00E944E236093630370934D
:101300006403809365039093660387E693E00E94ED
:101310001B23882361F087E693E00E944E236093AD
:101320005F03709360038093610390936203089559
:10133000FF920F931F93CF93DF93F42E641302C099
:101340006623E1F08295807F182F120F00E0C62FF0
:10135000D0E0AE01440F551F42708F2D8170482B95
:1013600031F0612F601B80E090E00E94BC2CF6946D
:101370000F5FD595C7956C2F083049F7DF91CF9156
:101380001F910F91FF900895AF92BF92CF92DF927D
:10139000EF92FF920F931F93CF938BE5A82E83E0DC
:1013A000B82E93E6C92E93E0D92E27E5E22E23E04E
:1013B000F22E0FE513E0C0E0F50141915F01F60167
:1013C00061916F0127E08C2F0E949809F7014191EC
:1013D0007F01F80161918F012FE08C2F0E94980905
:1013E000CF5FC43049F7CF911F910F91FF90EF90DD
:1013F000DF90CF90BF90AF9008950E9453090C9456
:10140000C4098034A8F4E82FE295EF70F0E0982F3B
:10141000977020E830E002C0359527959A95E2F75D
:10142000209583FF06C0E15BFC4F80812823208349
:101430000895ED5AFC4FF9CF8034D0F4282F22952F
:101440002F7030E0982F977040E850E002C055951B
:1014500047959A95E2F783FF0DC0215B3C4FF90158
:101460008081282F30E02423352381E0232B09F4C9
:1014700080E008952D5A3C4FF2CFCF93C82F682FAC
:1014800081ED93E00E9400236C2F87E693E0CF91DB
:101490000C940023282F2F7082958F7090E0422F9C
:1014A00050E0283080F48D599C4FFC01808190E001
:1014B00027E030E0241B350B02C0959587952A95CF
:1014C000E2F781700895815A9C4FFC01808190E081
:1014D0002FE030E0EFCF282F2F7082958F7090E0B3
:1014E000422F50E0283080F4855A9C4FFC018081C7
:1014F00090E027E030E0241B350B02C095958795DE
:101500002A95E2F781700895895A9C4FFC018081E9
:1015100090E02FE030E0EFCF6091630370916403BF
:1015200080916503909166030E94BA30282F6091E4
:101530005F037091600380916103909162030E9448
:10154000BA30820F08950E94AB080E949B080E9447
:1015500040098CE08093B80008955D9A289A82E053
:101560000C943D0A60E081ED93E00E94E42263E088
:1015700087E693E00C94E42287E693E00E94E3225E
:1015800081ED93E00C94E3220895089560914A035D
:1015900060933C0480913D04861730F080913E04B6
:1015A00090913F040C9440110895462F60913C04A3
:1015B00090913D04961730F080913E0490913F0445
:1015C0000C945E1108956295607F640F0C94D50AA7
:1015D00080913E0490913F04892B49F4862F6093BB
:1015E0003D040E94E01090933F0480933E040895D0
:1015F000FC01908180910E01981306C080918704B0
:10160000909188040E94C60A90E080E008950F93AC
:1016100020913E0430913F0400913D044CEE52E095
:1016200082E794E00E940B120F9108958FEF809350
:101630003B0408951F93CF93DF9390914204891741
:1016400030F080E090E0DF91CF911F910895C62F98
:1016500020E4829FC0011124C80FD92FD11DCC0FC7
:10166000DD1F6091430470914404C60FD71FCE0163
:101670000E942331182FCE0101960E942331912F11
:10168000E2CF90914104891710F40C940F07891B45
:101690000C941A0BFF920F931F93CF93DF93EC01DF
:1016A000F62E08811981C8010E942331F81621F015
:1016B0006F2DC8010E942B31CE01DF91CF911F9178
:1016C0000F91FF90089587E494E00E949E0C809112
:1016D00000018093410490E080E0089580934204EB
:1016E00020E8829FC00111240E94F80C90934404CA
:1016F0008093430408958093000190914A042AE165
:101700003BE097FD07C090914104980F9093000132
:1017100021E43BE030930201209301010C946E0B15
:10172000FF920F931F93CF93DF9300D0CDB7DEB717
:10173000F62E672F8C01000F111F809143049091AA
:101740004404800F911F9A838983CE0101960E94E1
:101750004A0B80914304909144040196800F911F9D
:101760009A8389836F2DCE0101960E944A0B0F90B8
:101770000F90DF91CF911F910F91FF900895FF92ED
:101780000F931F93CF93DF93F82E8B01C0E0CF15FB
:10179000D9F0D0E06D2F8C2FF8010995692F70E0FA
:1017A000762F6627680F711D4AE050E08EEA95E0BB
:1017B0000E94B12760E28EEA95E00E94E526DF5F95
:1017C000D03441F7CF5FE3CFDF91CF911F910F91DD
:1017D000FF9008950F931F93CF93DF931F92CDB780
:1017E000DEB78B014BE153E08EE494E00E94940E4F
:1017F000811190C047E050E063E173E0C8010E94AE
:101800000831892B09F086C0095F1F4F68E073E03B
:10181000C8010E94FF30892BD1F58EEA95E00E9425
:10182000CD240A9799F460914A0467FB662760F912
:101830004AE050E08EEA95E00E94AA2760E28EEA34
:1018400095E00E94E52681E090E066C041E070E00E
:1018500060E08EEA95E00E941F28162F6983862F8C
:101860000E946C0D9091420490930001112339F075
:101870008AE19BE09093020180930101E4CF809183
:101880004104890F8093000181E49BE0F3CF60E085
:1018900073E0C8010E94FF30892B39F46FE077E0D4
:1018A000809141040E94BF0BCECF69EF72E0C80166
:1018B0000E94FF30892B71F58EEA95E00E94CD24BD
:1018C00010E000E00A9729F46AE17BE0809142048D
:1018D000E9CF8EEA95E00E94CD240A9709F4B3CFB0
:1018E0008091420420E4829FC00111240817190747
:1018F00008F0A9CF41E070E060E08EEA95E00E9438
:101900001F28272F3327722FC8010E94900B0F5FCB
:101910001F4FDFCF90E080E00F90DF91CF911F91BC
:101920000F9108954AE050E0682F8EEA95E00E94FA
:10193000AA2760E28EEA95E00C94E526EF92FF92EA
:101940000F931F93CF93DF9300D0CDB7DEB790E016
:1019500080E00E942331182F80934A0481E090E0B8
:101960000E942331082F80934B0482E090E00E9474
:10197000233180934C0483E090E00E9423318093D4
:101980004D040F3FF1F4812F8F778F3719F417FD36
:1019900010924A0481E080934B048AE4E82E84E0AC
:1019A000F82E10E000E01A830983F70161917F01AE
:1019B000CE0101960E944A0B0F5F1F4F04301105A4
:1019C00091F790E080E00F900F90DF91CF911F9101
:1019D0000F91FF90EF90089580914804882329F09B
:1019E00080914C0490914D04089590E080E008951A
:1019F0000F931F93CF93DF9300D0CDB7DEB79A83B9
:101A000089838091480410E000E0811114C00091A6
:101A100004011091050189819A81800F911F909393
:101A200005018093040142E0BE016F5F7F4F8FEBA1
:101A300094E00E94781AC8010F900F90DF91CF9127
:101A40001F910F910895EF92FF920F931F93CF93E1
:101A5000DF9300D0CDB7DEB78AE4E82E84E0F82E1D
:101A600010E000E01A830983F70161917F01CE0144
:101A700001960E944A0B0F5F1F4F0430110591F72A
:101A800081E0809349040F900F90DF91CF911F91D7
:101A90000F91FF90EF900895CF93C82F8091000190
:101AA000C81758F48C2F0E94AB0780914A048078A5
:101AB0009C2F9F77892B80934A04CE3730F08091FA
:101AC0004A0480788E6780934A040E94230D809197
:101AD0004A048F77CF91089590914A0480FB97F93B
:101AE00090934A04892F8F778F3721F490789E67DF
:101AF00090934A040C94230D81E08093480460E1A4
:101B00008FEB94E00E945F1A80914B04813019F0B2
:101B100010924904089520914C0430914D04809115
:101B2000BF049091C0042F3F320769F490934D0495
:101B300080934C040E94230D80914A048F778E3746
:101B400028F40C94AB0728173907B1F30895809156
:101B50004804811102C00E947C0D90E080E008954D
:101B6000CF93DF93EB014EEA53E08EE494E00E94C2
:101B7000940E81116BC049E050E064EA73E0CE013D
:101B80000E940831892B09F061C0299667E973E04A
:101B9000CE010E94FF30892B59F48EEA95E00E9415
:101BA000CD240A9709F047C080914A048F7736C048
:101BB00060E973E0CE010E94FF30892B91F168E863
:101BC00073E0CE010E94FF30892B31F164E873E0AD
:101BD000CE010E94FF30892BC9F50E94EC0CEC016C
:101BE0006091BF047091C0044AE050E08EEA95E035
:101BF0000E94B12762E873E08EEA95E00E94C12658
:101C00004AE050E0BE018EEA95E00E94B12781E0F3
:101C100090E0DF91CF91089580914B040E94920C47
:101C2000F6CF809149040E94B00E60E28EEA95E002
:101C30000E94E526ECCF41E070E060E08EEA95E09E
:101C40000E941F28862F0E944C0DE1CF90E080E07B
:101C5000E0CF0F931F93CF93DF9300D0CDB7DEB7C4
:101C60008B0146E653E08EE494E00E94940E8111CD
:101C700058C066E573E0C8010E94FF30892B11F55A
:101C80008EEA95E00E94CD2410E000E00A97E9F189
:101C90008EEA95E00E94CD240A9771F141E070E050
:101CA00060E08EEA95E00E941F281A830983CE0126
:101CB00001960E944A0B0F5F1F4F011584E0180721
:101CC00039F71AC06AE473E0C8010E94FF30892B1B
:101CD00041F5809104019091050160E074E0681B7A
:101CE000790B4AE050E08EEA95E00E94B12760E26D
:101CF0008EEA95E00E94E52681E090E00F900F903B
:101D0000DF91CF911F910F910895C8010E94233157
:101D10000E94920C0F5F1F4F011584E01807A9F76E
:101D2000EBCF90E080E0EACFCF93DF93CB01EA01E5
:101D300062E074E00E94FF30892B49F4BE018EEA14
:101D400095E00E94F02681E0DF91CF91089580E038
:101D5000FBCF4DEF53E00E94940E90E080E0089599
:101D600062EF73E0882311F068EF73E08EEA95E08C
:101D70000C94C1268EEA95E00E94E624892B59F046
:101D80008EEA95E00E94CD240A9729F08EEA95E02C
:101D90000E94F624F5CF08950F931F93CF938EEAF8
:101DA00095E00E94E624892BB9F10FE414E0C0E02D
:101DB0008EEA95E00E94F624CF5FF80181938F01AF
:101DC0008EEA95E00E94CD240A9739F0F801319708
:101DD0008081803211F0C03259F78C2F90E0FC01E5
:101DE000E25BFB4F20812032E9F410828FE494E023
:101DF0000E94020567E074E08EEA95E00E94F026FA
:101E00000E94BA0E8EEA95E00E94CD240A9721F432
:101E10008EEA95E00E94F62490E080E0CF911F9139
:101E20000F910895815B9B4FFC01DFCF803438F424
:101E3000E82FF0E0E455FD4F84910C94CF088FEF2C
:101E4000FCCF80936F0408950E94530980916F0422
:101E500081500E944A0A8823B9F380916F0481500F
:101E60000E946B0A8111F0CF08950E94B7130E945F
:101E700075130C94240FCF93DF93609141017091FF
:101E80004201809143010E94350F69EC70E080E0CF
:101E90000E94350F60E079EC80E00E94350F60E031
:101EA00070E089EC0E94350F84E994E00E940A14E6
:101EB00065E084E994E00E94DB15CCE2D1E08091FA
:101EC000870490918804DC01ED91FC910480F581F8
:101ED000E02D09950E947513219789F7DF91CF9125
:101EE0000895CF93DF93CDB7DEB7C054D1090FB6B5
:101EF000F894DEBF0FBECDBFCE0101966C0180E429
:101F0000F60111928A95E9F76090440170904501BD
:101F1000809046010E94530910E000E0F02E00344A
:101F2000110509F454C0802F0E944A0A8823A1F0A9
:101F3000802F0E946B0A81110FC0F601E00FF11F84
:101F4000808182608083883720F1F601E00FF11FE5
:101F500080818370808309C0F601E00FF11F8081CA
:101F6000982F969596959E31B8F08F2D0E944A0A2B
:101F7000811118C0F601E00FF11F808180FF1BC0A6
:101F800040E050E069EC8F2D0E94160F0F5F1F4F4D
:101F9000C5CF81608083D9CF9F5F990F990F8370E0
:101FA000892BD8CF8F2D0E946B0A40E059EC8823F3
:101FB00009F360E0E8CF682DA30181FFE4CF8F2D06
:101FC0000E944A0A8111E2CF49EC50E0F2CF0E9410
:101FD0007513A0CF82ED94E00E94EA0682ED94E0B2
:101FE0000E9491060E94AD0A0E943B0F0E94710F51
:101FF000809106019091100690FF13C081110BC0D3
:102000008091710481110AC081E08093710490E095
:1020100080E00E94960490E080E0089581E090E0E6
:10202000F8CF81111092060180917104882399F3F1
:102030001092710482E090E0ECCF6F927F928F92C9
:10204000BF92CF92DF92EF92FF920F931F93CF93A5
:10205000DF936C01062F3901842EF12CE12C10E066
:10206000D0E0C0E0B02EB10ECE018E0D9F1D9601C6
:1020700002C0369527958A95E2F720FF06C0682DA5
:10208000A3018C2F8B0D0E946A132196C430D105B9
:1020900059F7105F34E0E30EF11C103409F7DF91BB
:1020A000CF911F910F91FF90EF90DF90CF90BF9055
:1020B0008F907F906F900C947513CF92DF92EF9278
:1020C000E42E492F50E0542F4427480F511D44302F
:1020D000510590F04832510578F48450E82FF0E033
:1020E000EE0FFF1FE55FFB4F859194914E2DEF9012
:1020F000DF90CF900C941D10EF90DF90CF9008955B
:102100002091070130910801409109010C945D1064
:10211000DC01461B70E060E0FB0190E09D010E2EAB
:1021200002C0369527950A94E2F7491303C0822F1F
:10213000817008959F5F3196943081F76C5F7F4F77
:1021400040516031710541F780E00895292F30E05A
:10215000322F2227280F311D2430310570F028320C
:10216000310558F48450E82FF0E0EE0FFF1FE55FD3
:10217000FB4F859194910C94881080E008954AE07B
:1021800050E0682F8EEA95E00E94AA2760E28EEA6E
:1021900095E00C94E52680910C01882381F060E0A5
:1021A00070E080E00E94B7138091870490918804CA
:1021B000DC01ED91FC910280F381E02D09940895FA
:1021C000CF93C82F8091730490917404892B41F4AC
:1021D00080E390E00E94F80C909374048093730461
:1021E00020E2C29FC0011124CF910C94F80CCF9330
:1021F000DF93EB019B0136952795820F931F0E9479
:102200002331C0FF04C08F70DF91CF910895829574
:10221000FACFEF92FF920F931F93CF93DF9300D0EB
:102220001F92CDB7DEB7009173041091740493E050
:10223000899F000D111D1124C8010E942331F82E21
:10224000C80101960E942331E82EC80102960E941F
:10225000233180958B83E094EA82F094F98269813E
:102260007A818B810F900F900F90DF91CF911F910A
:102270000F91FF90EF9008950E94F7100C940911B0
:102280000F931F93CF93DF9320E2629F800111246D
:10229000080F191FD0E0C0E0BE01C8010E943C1128
:1022A000AB01682F8C2F0E9468132196C034D10592
:1022B00099F7DF91CF911F910F910895CF93C42F7C
:1022C00020E2629FB0011124860F971F6FEF403408
:1022D00028F4E42FF0E0E455FD4F649170E00E9493
:1022E0003C11AB01682F8C2FCF910C946A138EEAAE
:1022F00095E00E94CD2421E00A9709F020E0822F8A
:102300000895CF92DF92EF92FF920F931F93CF9396
:10231000DF9300D0CDB7DEB78B0143E554E08EE408
:1023200094E00E94940E811169C063E574E0C801D5
:102330000E94FF30892B09F061C00E947711882329
:10234000A1F010E0812F0E940911062FF72E0E94A4
:10235000BF108F2D0E94BF10802F0E94BF101F5FE3
:10236000103181F781E090E04BC0F12CE12C0E940C
:102370007711811140C041E070E060E08EEA95E0A5
:102380000E941F28D62E41E070E060E08EEA95E0C2
:102390000E941F28C62E41E070E060E08EEA95E0C2
:1023A0000E941F2800917304109174040E0D1F1DCC
:1023B0001A8309836095CE0101960E944A0BC801D9
:1023C00001969A8389836C2D6095CE0101960E94B7
:1023D0004A0B0E5F1F4F1A8309836D2D6095CE0146
:1023E00001960E944A0B83E0E80EF11C80E3E81698
:1023F000F10409F0BCCF0E94CB10B4CF90E080E094
:102400000F900F90DF91CF911F910F91FF90EF9060
:10241000DF90CF9008958F929F92AF92BF92CF920C
:10242000DF92EF92FF920F931F93CF93DF9300D031
:10243000CDB7DEB77B014A0159018EE494E00E94DA
:10244000940E81115CC0B401C7010E94FF30892B3A
:1024500009F055C080E2089F600111240E947711A5
:10246000F12CE12C882301F1EC14FD0409F444C0A3
:10247000C7018A0D9B1D0E942331082F10E0829511
:102480008F700E94BF10B8016F704AE050E08EEA72
:1024900095E00E94962760E28EEA95E00E94E5268C
:1024A0008FEFE81AF80AE0CF0E947711811122C05D
:1024B000EC14FD04F9F041E070E060E08EEA95E094
:1024C0000E941F28162F41E070E060E08EEA95E040
:1024D0000E941F28C7018A0D9B1D9A83898312952C
:1024E000107F610FCE0101960E944A0B8FEFE81A10
:1024F000F80ADACF0E94CB1081E090E002C090E0B1
:1025000080E00F900F90DF91CF911F910F91FF907E
:10251000EF90DF90CF90BF90AF909F908F900895F5
:1025200008950895DC01ED91FC910680F781E02D7E
:102530006295607F640F09940F931F93CF93DF938D
:10254000EB01A881A0950A2F10E0F80186E0F5952F
:10255000E7958A95E1F7E0959801D9010E94C2308C
:102560009B01AC010E945A304E2F491B50E02DEDCB
:102570002003C001219F900D112483E2890F6FEF8A
:1025800070E090E00E94D81B9B01482F8881843026
:1025900040F41882842FB901DF91CF911F910F91E0
:1025A000089584508883F6CFCF92DF92FF920F93E5
:1025B0001F93CF93DF931F92CDB7DEB7209179049D
:1025C00030917A04232B09F44BC02091860230917C
:1025D0008702DC0114964D915C91241B350B4091D0
:1025E0000A0150910B0142175307D0F58C016C0181
:1025F000B6E0CB0ED11CF12CF601808189838823B3
:1026000099F08091790490917A04DC01ED91FC912C
:102610000190F081E02DBE016F5F7F4F0995AB0106
:10262000682F8F2D0E946A138981F60181936F01B3
:10263000811109C04091760450917704609178042B
:102640008F2D0E946A13F394F0E4FF12D5CF80918E
:10265000860290918702D80115969C938E931497C9
:102660000F90DF91CF911F910F91FF90DF90CF904E
:102670000895FC0183E691E09183808373836283F4
:1026800015821482369680E4DF011D928A95E9F75F
:102690000895403480F4FC01908180910E019813DC
:1026A0000AC021FF08C0E0918704F0918804E40F7C
:1026B000F11D8FEF868390E080E0089521E731E0FF
:1026C000FC013183208308958FEF80937504089572
:1026D0000C94CF08803438F4E82FF0E0E455FD4F37
:1026E00084910C94CF088FEFFCCF80910C01811165
:1026F0000C941609089580910C01882349F180916A
:102700008602909187022091850430918604821B75
:10271000930B20910D0128171906D0F40E94751310
:1027200080910D012091850430918604820F932FB2
:10273000911D9093860480938504809187049091E5
:102740008804DC01ED91FC910480F581E02D099570
:1027500090E080E0089580917B04811105C0109283
:10276000830481E080937B0483E894E00895CF9212
:10277000DF92EF92CF936B01E82E0E94AB13C0E083
:102780006E2DA6018C2F0E946813CF5FC034C1F755
:10279000CF91EF90DF90CF90089560E070E080E0FF
:1027A0000E94B7138091870490918804DC01ED9119
:1027B000FC910280F381E02D09949091890489179E
:1027C00078F480930E010E94151E909388048093E4
:1027D000870480910C0181110E94CD130C94410556
:1027E000089580910E018F5F80930E01909189046E
:1027F000891708F080E00C94DD1380910E0181119F
:1028000002C080918904815080930E0180910E0155
:102810000C94DD13EF92FF921F93CF93DF9300D0C0
:1028200000D0CDB7DEB77C0110E080918904181785
:1028300070F4BE016F5F7F4F812F0E947205898106
:102840009A81E816F90669F4812F0E94DD130F9032
:102850000F900F900F90DF91CF911F91FF90EF900D
:1028600008951F5FE2CF81E080930C010E94CD1399
:102870000C941609762F642F0C94B71360E070E067
:1028800080E00E94B7130E947E0580910E018F3F69
:1028900019F480E00E94DD1390E080E0089560E08C
:1028A00070E080E00E94B7130E94160910920C019C
:1028B0000895FB0181818334E9F421FF07C020FDE5
:1028C00005C08081811105C00E94F11381E090E074
:1028D0000895813049F08230C9F780910C01882336
:1028E00031F00E944F14F2CF0E94FD13EFCF0E94EF
:1028F0003314ECCF90E080E008950E946E05809341
:10290000890408950F931F93CF93809114010AE8CF
:1029100012E0C0E0803448F48093150181E0809398
:102920008D0416C0CF5FC034C9F3E0910101F0916E
:1029300002016C2FD8018D918D0109952091120112
:102940002813F0CF809113018913ECCFC0931501A8
:10295000CF911F910F9108950E94821490E080E022
:10296000089580918D04811121C0809186029091FB
:10297000870220918B0430918C04821B930B209151
:102980000F01309110012817390798F481E08093E6
:102990008D04609115018091870490918804DC0179
:1029A000ED91FC910680F781E02D099590E080E0A3
:1029B000089540E06FEF809111010E944A1CAB0125
:1029C000682F809115010E946A13F0CFFC012481C9
:1029D00030918602321B333360F02E5C24830280F8
:1029E000F381E02D40E0618180810E944A1C0C94BB
:1029F000B7130895EEE8F4E08AEA80838FEF8183CD
:102A000008951F93CF93DF93EC01EA81FB812E8120
:102A10003F81418150E08091860290918702821B24
:102A2000930B4817590708F03EC0240F351F3F830A
:102A30002E838C812D819081182F299F10191124AC
:102A400040E050E060E00E9468130E94AB13103435
:102A500030F440E050E060E0812F0E9468138C81E8
:102A60009D81890F8C830E94AB138C819D81190FEE
:102A7000803430F0292F21952D83891B8C8310E41D
:102A800040E050E06FEF8C810E9468130E94AB130E
:102A9000103448F44FEF50E060E0812FDF91CF9188
:102AA0001F910C946813DF91CF911F910895E0E975
:102AB000F4E085E0808386E981830895CF93DF93F6
:102AC000EC01EA81FB8190812F8180918602821B3B
:102AD000981700F5920F9F83418150E0688570E060
:102AE0008C819D810E94D81B9B01482F8E816C8117
:102AF0007D81860F972F911D8F3F910540F49D8317
:102B00008C83842FB901DF91CF910C94B7138F5F21
:102B10009109F5CFDF91CF9108951F93CF93DF9364
:102B2000EC01EA81FB8180812F8190918602921BCA
:102B30008917B8F5820F8F8380917B04811105C0BE
:102B40001092830481E080937B0410E02C813D810E
:102B50001034F1F0912F9695969540E1949FC00125
:102B60001124820F931F8F3F910518F08F5F9109F9
:102B7000FACFEA81FB81418150E0688570E00E94D4
:102B8000D81BAB01682F812F0E9468131F5FDECF17
:102B90008E81820F932F911D8F3F910530F49D837D
:102BA0008C83DF91CF911F9108958F5F9109F7CFAB
:102BB000FC0161830895FC0160830895FC01618339
:102BC0000895E4E9F4E098E2908382E38183E2E906
:102BD000F4E0908381830895DC011296ED91FC91DD
:102BE0004281618180810C943A14262FDC01129677
:102BF000ED91FC91428151816081822F0C946A1386
:102C00006295607F640F0C94F5150C940A14FC0116
:102C10008491319694910895862F90E06134E0F488
:102C20006A33B0F5603269F170F46A3039F130F42A
:102C300082E2683050F590E080E008956B31D9F77A
:102C400090E089E208956133F8F4880F991F875E58
:102C50009B4F0E9407160895613638F46B35E8F0F3
:102C6000880F991F8D529C4FF4CF6B37D0F06F3780
:102C700010F7880F991F81569C4FEBCF90E088E2A8
:102C8000089590E08CE208958DEE860F90E008950F
:102C9000880F991F895F9B4FDCCF83EC860F98E0EC
:102CA000089583EAF2CFFB0181818036B9F48091E7
:102CB0009704883080F49081682F70E0FB01EE0F5C
:102CC000FF1FE60FF71FE856FB4F908341832283D7
:102CD0008F5F8093970481E090E0089590E080E01A
:102CE00008951092970490E080E00895CF93C42F48
:102CF000462F40686FEF0E94BC2CC11109C082EDC5
:102D000094E00E94910685E695E0CF910C945921BC
:102D1000CF9108950F931F93CF93DF93EC01062F6C
:102D2000142F61FF03C062E00E94761600FF09C005
:102D3000412F61E0CE01DF91CF911F910F910C9453
:102D40007616DF91CF911F910F910895362F642F42
:102D5000FC018491422F932F0C948A16EF92FF92DC
:102D60000F931F93CF93DF937C018B01F801649144
:102D70006623C1F0C7010E940C16D82FC92F8111FC
:102D800002C0992361F040E062E08D2F9C2F0E94E9
:102D9000761640E061E08D2F9C2F0E9476160F5F23
:102DA0001F4FE4CF90E080E0DF91CF911F910F9112
:102DB000FF90EF9008958F929F92AF92BF92EF9203
:102DC000FF920F931F93CF93DF93CB01009709F4EA
:102DD0009EC0F12CE12CEC012196FC012491EFEF37
:102DE000E20FED3008F093C0F0E0E750F94E0C949C
:102DF000B43046174B175717611768176F177917B5
:102E00007F17331785173D1706171E178E2C912C29
:102E1000B12CA12CFE01049131962296149140E030
:102E200063E0812F902F0E948A16C501B4010E9491
:102E300028240111EFCF1111EDCF17C08E2C912C4A
:102E4000B12CA12C2196FE013197149140E063E052
:102E5000812F90E00E948A16C501B4010E942824A7
:102E60001111F0CF02C0FF24F3946E2D70E090E0BA
:102E700080E00E942824CE01AECF82ED94E00E9433
:102E8000910685E695E00E945921EFCF0296FE015A
:102E9000E490EC01EACF8C010E5F1F4FFE016491BC
:102EA00070E090E080E00E942824E801DECFFE017F
:102EB0006491EC0123962F2D42E002960E94A61603
:102EC000D4CFFE016491EC0123962F2D41E0F5CF84
:102ED000FE016491EC01239620E043E0EECF8C01EB
:102EE0000E5F1F4F2F2D42E060E0CE010E94A6161C
:102EF000DCCF8C010E5F1F4F2F2D41E0F5CF8C01F1
:102F00000E5F1F4F20E043E0EFCFF12CAECFDF91FB
:102F1000CF911F910F91FF90EF90BF90AF909F9036
:102F20008F900895CF93C0E080919704C817B8F4AC
:102F30008C2F90E0FC01EE0FFF1FE80FF91FE85601
:102F4000FB4F818180931601628180810E94FF0581
:102F5000BC0186E994E00E94DB16CF5FE5CF90E0EC
:102F600080E0CF910895AF92BF92CF92DF92EF921F
:102F7000FF920F931F93CF93DF9310E000914E01C8
:102F8000101708F04CC088E0189FE0011124F12CC4
:102F9000E12CFE01E451FF4F6F01AE2CF601EE0D66
:102FA000FF1D84918823C1F181500E944A0AB82EE6
:102FB000882349F0FFEFEF1AFF0A85E0E816F104D5
:102FC00061F785E0A82E0E948C0AA81223C0BB20BE
:102FD00009F180918602909187022091B10430918D
:102FE000B204821B930B209117013091180128170E
:102FF000390780F4FE01E651FF4F25913491812F6E
:10300000F901099580918602909187029093B2040C
:103010008093B1041F5FB4CFBB24B394D4CF90E0AE
:1030200080E0DF91CF911F910F91FF90EF90DF90A3
:10303000CF90BF90AF9008950F932091860230916A
:1030400087024091B4045091B504B901641B750B1B
:10305000AB016091190170911A0164177507F8F4BA
:103060003093B5042093B40400E020911B0180FD4F
:1030700010C020911B01219500E081FD0AC0009144
:103080001B01019582FD04C083FF09C000911B0153
:1030900020E040E060E085E695E00E9432210F915B
:1030A000089585E695E00E94592185E695E00E9405
:1030B0003A211092BA0490E080E008959091BA0409
:1030C000911105C01092C60490E080E0089520910F
:1030D0008602309187024091B8045091B904B90139
:1030E000641B750BAB0160911F0170912001641787
:1030F000750750F73093B9042093B8044091B60493
:103100005091B704B901641B750BAB0160911C01B0
:1031100070911D016417750790F48091C604609149
:103120001E014FEF50E0461B5109841715061CF491
:10313000860F8093C6043093B7042093B604609141
:103140002101619590FF60E091FF03C08091210112
:10315000680F80912101819592FF80E093FF03C069
:1031600090912101890F0E946E1DAECF0F931F9386
:10317000CF93DF93CDB7DEB72A970FB6F894DEBFB3
:103180000FBECDBFFB018181803509F07DC060811C
:10319000962F9072822F8270362F307466FF10C087
:1031A000911110C0162F1F7B2170811126C071F163
:1031B000612F85E695E00E9445210E94C31C26C030
:1031C000992339F1882311F120FD20C091E03111BC
:1031D00001C090E082E060FF80E0892B94E061FF15
:1031E00090E0892B98E062FF90E0892B90E163FFEB
:1031F00090E0892B0E94CC1C09C0211102C00E94C2
:10320000C61C612F85E695E00E94402181E090E098
:103210003DC02170882309F444C0211116C080915B
:103220008602909187029093B9048093B80490939A
:10323000B7048093B6042091190130911A01821BC2
:10324000930B9093B5048093B404808184FF03C0F2
:103250000E941C18DBCF9091BA04892B8093BA048A
:10326000D5CF84FF08C080E091E02CC084FF07C068
:1032700081E090E027C080E090E031E024C080E071
:1032800090E030E051E020C090E080E02A960FB658
:10329000F894DEBF0FBECDBFDF91CF911F910F918C
:1032A0000895222309F4B2CF60958091BA0468236F
:1032B0006093BA048081982F937099F6982F9C7030
:1032C000A9F680E030E050E025E0E5E6F5E0DE013B
:1032D000119601900D922A95E1F725E0FE013196B5
:1032E000DE01169601900D922A95E1F76F814885CF
:1032F00029850A85511160E0311140E0911120E0EB
:10330000811100E085E695E00E9432217FCFCF93C6
:10331000DF9300D000D000D0CDB7DEB785E695E0D2
:103320000E948B21E1E9F5E0108A86859785248546
:10333000358519823B832A839D838C831E82028478
:10334000F385E02D0190F081E02D46E050E0BE01D4
:103350006F5F7F4F8BE995E0099590E080E02696BE
:103360000FB6F894DEBF0FBECDBFDF91CF910895A9
:1033700090E080E00895FF920F931F93CF93DF9327
:1033800080910E010E94DD130AE812E0C0E0E09196
:103390000101F09102016C2FD8018D918D010995E9
:1033A000F82ED92FE0910101F09102016C2F80914C
:1033B000BD0409952091BD042F1104C0D43411F42B
:1033C000C09322018F1521F1809187049091880488
:1033D000DC01ED91FC910680F781E02D6C2F0995C1
:1033E000CF5FC034A1F680912201803418F540E00F
:1033F0006FEF809123010E944A1CAB01682F8091DE
:103400002201DF91CF911F910F91FF900C946A13CD
:10341000D913DACF811102C0DD23B1F2D111D4CF9B
:103420004091240150912501609126018C2F0E942A
:103430006A13D6CFDF91CF911F910F91FF9008951E
:10344000CF93DF93EC018091BD040E9463079091BC
:10345000BC0481110DC0992331F080910E010E94AE
:10346000DD131092BC0490E080E0DF91CF910895CD
:10347000911103C081E08093BC04CE010E94BB196E
:10348000F2CF80EE94E00E94171F61E0811160E0AE
:103490008091E00081608093E0006093EA0480EE18
:1034A00094E00E941A1F68EE73E080E090E00E94B2
:1034B00028248091E0008E7F8093E0000895FC0135
:1034C000208131812170332781E0861770F440819B
:1034D00051815695479551834083220F331F417088
:1034E0005527242B352B8F5FF0CF31832083089510
:1034F000DC01FB01415000F181912D913C9111972C
:1035000068E070E051E0982F952399F4932F991F6C
:103510009927991F220F331F992319F095E0292726
:103520003058550F6150710971F711963C932E93E5
:10353000E1CF932F9095EBCF08951092C004109295
:10354000BF040895CF93DF93FC01D62F8681978126
:1035500040912701509128012091860230918702E5
:103560006F706830B8F462817381261B370BC1E03D
:103570004217530708F0C0E062E04D2F0E94A610EA
:10358000811115C040E050E060E08D2FDF91CF91B8
:103590000C946A138085918564817581261B370B95
:1035A000C1E04217530708F0C0E06AE0E6CFC1115E
:1035B000E9CFDF91CF9108956295607F640F0C94FD
:1035C000A21AFC019081DB018C91981305C091E057
:1035D000218111968C91281390E081E0892708952C
:1035E00020E030E040E00C945D100F931F93CF93E8
:1035F000DF9300D0CDB7DEB78C0119821A82BE01ED
:103600006F5F7F4F06960E94E11A8823C1F0809178
:10361000860290918702F80122813381821B930BED
:1036200020912701309128012817390740F462E0E2
:10363000868197810E94F01AF801168217821982FA
:103640001A82BE016F5F7F4FC80108960E94E11A7F
:103650008823C1F08091860290918702F80124812D
:103660003581821B930B2091270130912801281767
:10367000390740F46AE0808591850E94F01AF801CC
:10368000108611860F900F90DF91CF911F910F91AF
:103690000895FC018DEB91E091838083168217825F
:1036A000108611860895FF920F931F93CF93DF9397
:1036B00000D0CDB7DEB7FB01DC019C9180910E01FB
:1036C000981340C027FD3EC0818190E0982F882745
:1036D0003081830F911D84309105A0F1889790F57A
:1036E00021FF30C0A0918704B091880416968D9177
:1036F0009C9117979A838983809186029091870283
:103700004F7020813181483038F517963C932E93C5
:10371000169713969C938E93129792E0F92E8F0131
:10372000BF01CE0101960E94E11A882329F06F2D76
:1037300089819A810E94F01A6F2DF8018081918110
:103740000E94801090E080E00F900F90DF91CF9169
:103750001F910F91FF90089518964D915C911997C4
:103760005A83498319963C932E93189715969C93E8
:103770008E9314978AE0F82ED2CF8FEF8093C104F6
:10378000089560E070E080E00C94B713862F40E06D
:1037900050E060E00C946A136295607F640F0C94B3
:1037A000C61B8BEC91E09093C3048093C2040895F0
:1037B0000F931F93CF93DF93FB01742F309739F44E
:1037C000642F842FDF91CF911F910F91089566E0B0
:1037D000689F9001699F300D1124E901DD27CE9F7C
:1037E000D001CF9FB00DDE9FB00D1124AB2FBB27B2
:1037F0008FEF90E08C010A1B1B0B049FD001059FEB
:10380000B00D149FB00D11248C010C1B1D0B0E9FCD
:10381000E0010F9FD00D1E9FD00D1124CD2FDD276D
:103820008C010C1B1D0B049FE001059FD00D149F04
:10383000D00D11248E1B9F0B849FF001859FF00DEE
:10384000949FF00D11246F2F232F33272230310541
:10385000F1F060F421153105B9F08B2F21303105DD
:1038600009F4B0CF842F7F2F6B2FACCF8F2F642F15
:103870007B2F2330310509F4A5CF8D2F7F2F2430E6
:10388000310509F49FCFEECF842F7D2F9BCF8F2F53
:103890006D2F98CF90E1499FA001112420918602BD
:1038A00030918702420F531FA4E056954795AA9581
:1038B000E1F7942F47FD9095990F999FF0011124FE
:1038C000EF2FFF27AF01440F551F4E0F5F1F9E9F25
:1038D00090019F9F300D1124232F3327220F331F78
:1038E000421B530B56954795405B50E070E090E0CB
:1038F0000C94D81BCF93DF9300D000D000D0CDB76D
:10390000DEB736952795820F931F56954795640F1E
:10391000751FE1E9F5E095878487778766872089B9
:1039200029839B838A837D836C831E820284F38533
:10393000E02D0190F081E02D46E050E0BE016F5F88
:103940007F4F8BE995E0099526960FB6F894DEBF78
:103950000FBECDBFDF91CF9108951092C904109290
:10396000C8041092CB041092CA048FEF9FE7909383
:10397000CF048093CE049093CD048093CC0481E057
:103980008093C70408951092C70408958091C704D6
:1039900081110C94AD1C08950F931F93CF93C82FE2
:1039A0008091C704811102C00E94AD1CC0FF06C0F7
:1039B0001092C704CF911F910F910895E0912B01B0
:1039C0000E2F10E08091CE049091CF04B8010E9498
:1039D0006A309B017093CF046093CE048091CC0435
:1039E0009091CD04B8010E946A30AB017093CD0470
:1039F0006093CC046C2F6470E091CA04F091CB0406
:103A00008091C8049091C9047C2F7670763091F42F
:103A1000820F931F9093C9048093C804BA016E0F5C
:103A20007F1F7093CB046093CA04CF911F910F91B5
:103A30000C947A1C662349F1D8011197A49FB00118
:103A4000A59F700DB49F700D1124E60FF71FF09322
:103A5000CB04E093CA04C4FF1DC001501109029FAA
:103A6000B001039F700D129F700D1124860F971FD8
:103A70009093C9048093C8046091CA047091CB04E8
:103A80008091C8049091C904D0CFC1FDE4CFE40F68
:103A9000F51FDDCFC3FDF0CF820F931FE9CF482F75
:103AA00050E087FD0AC0889FC0011124880F892F2C
:103AB000881F990B91958F5F089520E031E0241BBA
:103AC000350B229FC001239F900D900D1124880F6C
:103AD000892F881F990B919580950895EF92FF92F9
:103AE0000F931F93CF93DF93182F062F80912A01F6
:103AF000C82FD0E0112309F492C0662389F123E690
:103B0000829FC00111246CE870E00E947E30611534
:103B1000710509F0EB01212F012E000C330B43E658
:103B20001402C00111246CE870E00E947E3061151F
:103B3000710509F09B01122F202F002E000C330B72
:103B400043E60402C00111246CE870E00E947E305C
:103B50006115710509F09B01022F112309F45FC063
:103B60008091C6040E944F1D2091C504382F130375
:103B7000C0011124820F911D27FD9A957E01C8175F
:103B8000D90744F0EE24FF24EC1AFD0AE816F906E2
:103B90000CF47C01002309F445C08091C6040E9406
:103BA0004F1D2091C404482F0403C0011124820F2B
:103BB000911D27FD9A95C817D9073CF0D195C1955D
:103BC000D109C817D9070CF4EC011092C704209151
:103BD000290130E0CE01B9010E947E30462FC70195
:103BE000B9010E947E3000E020E085E695E00E9469
:103BF00032212091290130E0C701B9010E947E30B5
:103C00008093C504CE01B9010E947E308093C40424
:103C1000DF91CF911F910F91FF90EF900895F12CBC
:103C2000E12CB8CFD0E0C0E0D0CF1F93CF93DF938B
:103C300000D000D0CDB7DEB790912C0198130CC006
:103C40008091D0049091D1040F900F900F900F901D
:103C5000DF91CF911F910895182F80932C01BE0101
:103C60006F5F7F4F0E947205EB81FC8189819A8191
:103C7000309731F069817A81412F80E292E0099595
:103C80009093D1048093D004DBCFE2EDF4E0148272
:103C9000158216820895FC0182818F5BFB0180836F
:103CA00081E00895CF93DF93CDB7DEB769970FB664
:103CB000F894DEBF0FBECDBFFC01DB019C919F5F7E
:103CC0009C939E012D5F3F4F81E1D9011D928A9502
:103CD000E9F729E0298384E08A8391E09D8383E0EA
:103CE0008E839F8398872A8721E22B879C879D87D5
:103CF0009F8722E2288B2FE3298B27E02B8B25E05F
:103D00002C8B8E8B20E430E0388F2F8B998F828123
:103D10008B83838180688D8B49E150E0BE016F5FAA
:103D20007F4F80E00E94542A69960FB6F894DEBF58
:103D30000FBECDBFDF91CF910895FC01DB018C91C7
:103D40008138A9F413968C911397823281F42281E1
:103D500014968D919C912817190649F48285848FB9
:103D60004FE350E06DE974E080E80C94542A90E051
:103D700080E00895FC01DB01228114968D919C91D5
:103D800015972817190681F511968C9111979C911A
:103D9000913A69F4813029F0833029F4848D80933D
:103DA000F10081E008958230F9F4858DF8CF9132E9
:103DB000D9F48B3021F412968C91848FF2CF8A3013
:103DC00011F4158EEECF893079F4CF0116962D912E
:103DD0003C91179713964C91423041F461E070E0AA
:103DE0004E962130310551F080E008954130E1F7E1
:103DF00028303105C9F768E070E00B960E947A2AF6
:103E0000D0CFFC0181E0848385839F01255E3F4FF5
:103E1000378326831186108629ED31E03183208394
:103E20008287848F858F168E81EC838F0895FC01A5
:103E3000848D0895FC01648F0895EF92FF920F9393
:103E40001F93CF93DF938C01EC012B967C0183E1D0
:103E5000E80EF11C48E050E0BE01C7010E94163197
:103E6000892B21F1F801838148E050E0BE01806494
:103E70000E94A3298C01E0915706F09158063097D3
:103E800031F09C0148E050E0BE0182E0099588E0F5
:103E9000FE01D70101900D928A95E1F7C801DF91EB
:103EA000CF911F910F91FF90EF9008950FEF1FEFAB
:103EB000F5CFFC0180E2860F883070F4605E770BEE
:103EC00021E030E001C0220F6A95EAF78385822B5A
:103ED000838781E090E00895DF011D9690E080E007
:103EE0002D912617B1F3211104C0E80FF91F658742
:103EF000F0CF01968630910599F790E080E0089523
:103F0000CF93DF9320E2260F283090F4605E770B8A
:103F100021E030E001C0220F6A95EAF72095FC010C
:103F200033852323238781E090E0DF91CF910895AB
:103F3000DC011D969C012D5E3F4FFD014191461312
:103F400003C0EF0121971882E217F307B9F720E0C9
:103F50003D91332349F0EC01C20FD11D4D853D87C2
:103F6000ED01219748832F5FAE17BF0789F7DBCF9D
:103F70000B9628E0FC0111922A95E9F70895CF935A
:103F8000DF93EC010E949E26BE010E945A26CE01BC
:103F90000E94B81FCE01DF91CF910C941D1F80EEBF
:103FA00094E00C94011F80910F05811113C01092B1
:103FB0001805109217058CED94E090931A058093E4
:103FC000190589E190E090931C0580931B0581E021
:103FD00080930F050E944A3067E175E00C94B72F7B
:103FE000FC0130E020E041915191452B41F4220F3A
:103FF000331F280F391FF9017183608308952F5FE4
:104000003F4F2430310579F7089528E0FC011192E3
:104010002A95E9F70895CF93DF93EC010E944A3087
:1040200028E030E0AE0164E0DF91CF910C940730DE
:104030000F931F93CF93DF93EC018C01085F1F4F09
:1040400048E050E0BC01C8010E941631892B51F0B4
:10405000CE010E940B2088E0FE01D80101900D9254
:104060008A95E1F7DF91CF911F910F91089528E094
:10407000FC0111922A95E9F70C9418200C94372032
:104080008FEF94E00C94D31F80915705811113C0DA
:104090001092600510925F0585EF94E090936205A1
:1040A0008093610581E490E09093640580936305BB
:1040B00081E0809357050E944A306FE575E00C94CB
:1040C000B72FCF93DF93EC010E944A302DE130E00F
:1040D000AE0168E0DF91CF910C940730EF92FF9230
:1040E0000F931F93CF93DF93EC017C018DE1E80EDA
:1040F000F11C4DE150E0BE01C7010E941631892B31
:1041000009F449C00D8D1881802F8095812349F1D4
:104110004CE150E0BE016F5F7F4FCE014E960E9492
:104120001631892BF1F01D8F0E944A302DE130E0CD
:10413000A70168E00E9407300D8FCE010E94612028
:10414000181619063CF42DE1FE01D70101900D92DD
:104150002A95E1F7DF91CF911F910F91FF90EF909A
:104160000895812F8095802341F34CE150E0BE01FA
:104170006F5F7F4FCE014E960E941631892BE9F278
:1041800008830E944A302DE130E0AE0168E00E94D1
:1041900007301883D2CF8FEF9FEFDCCF6E3DA0F4B6
:1041A000E62FE695E695E695E80FF92FF11D677085
:1041B00021E030E001C0220F6A95EAF78181822B6D
:1041C000818381E090E00895605E683058F441E0BA
:1041D00050E001C0440F6A95EAF7FC012081242BCE
:1041E0002083EFCF90E080E008956E3DA8F4E62FA5
:1041F000E695E695E695E80FF92FF11D677021E049
:1042000030E001C0220F6A95EAF7209581812823CA
:10421000218381E090E00895605E683060F421E0E1
:1042200030E001C0220F6A95EAF72095FC01308149
:1042300023232083EECF90E080E008952DE1FC0160
:1042400011922A95E9F70895CF93DF93EC010E942C
:104250001E21CE01DF91CF910C9461208DE195E07C
:104260000C9444200F93FC016183428323830483D5
:104270000F91089525E0FC0111922A95E9F7089520
:10428000FC019081692B60830895FC01962F909525
:104290006081692360830895CF93DF93EC010E94CE
:1042A0004A3025E030E0AE0161E0DF91CF910C941F
:1042B00007300F931F93CF93DF93EC018C010B5FBB
:1042C0001F4F45E050E0BC01C8010E941631892B08
:1042D00049F445E050E06FE675E0CE010E941631EA
:1042E000892B51F0CE010E944C2185E0FE01D801BE
:1042F00001900D928A95E1F7DF91CF911F910F9177
:104300000895CF93DF93EC010E943A21CE01DF9113
:10431000CF910C945921CF93DF93EC0180917405D8
:10432000811113C010927D0510927C0586E395E003
:1043300090937F0580937E058AE390E090938105BA
:104340008093800581E0809374050E944A306CE779
:1043500075E00E94B72FCE01DF91CF910C9481219F
:1043600080918305811113C010928C0510928B05EA
:1043700080E795E090938E0580938D0588E190E02D
:104380009093900580938F0581E0809383050E9430
:104390004A306BE875E00C94B72F0F931F93CF93BF
:1043A000DF93EB018A010E944A309801AE0165E07B
:1043B000DF91CF911F910F910C940730CF93DF9332
:1043C0001F92CDB7DEB7198241E050E0BE016F5FAA
:1043D0007F4F0E94CD210F90DF91CF9108950C94D3
:1043E000DE210C94DE21CF93DF931F92CDB7DEB791
:1043F0006983633841F48BE096E00E948D2C0F9026
:10440000DF91CF91089541E050E0BE016F5F7F4F93
:104410000E94CD21F4CF82E895E00C94B021CF9397
:10442000DF93CDB7DEB769970FB6F894DEBF0FBE46
:10443000CDBFFC01DB019C919F5F9C939E012D5F92
:104440003F4F81E1D9011D928A95E9F729E029833F
:1044500084E08A8391E09D8383E08E832A8721E232
:104460002B879C879D879F8722E2288B25E3298BBA
:1044700027E02B8B25E02C8B8E8B20E430E0388FCF
:104480002F8B998F82818B83838180688D8B49E10B
:1044900050E0BE016F5F7F4F80E00E94542A699612
:1044A0000FB6F894DEBF0FBECDBFDF91CF91089558
:1044B0000F931F93CF93DF93EB018A01FC0183815C
:1044C00080640E94A329E0915706F0915806309726
:1044D00049F09C01A801BE0187E0DF91CF911F91B7
:1044E0000F910994DF91CF911F910F9108950A9731
:1044F0000C945822DC01FB0112962C9112978481B6
:1045000095812817190641F491818081813A31F40F
:104510009D7F81E0913009F080E008958132E1F7DC
:104520009B3029F4828152968C9381E008959A30D1
:1045300099F7828153968C93F8CFFB012081213823
:10454000B1F42381223299F4DC0112964C91129736
:10455000248135814217130651F421E052962C93A1
:1045600045E350E068E875E080E80C94542A90E058
:1045700080E00895CF93DF93EC0181E08C838D83FD
:104580009E012F5E3F4F3F832E83198618861D861E
:104590001C861F861E86188A25EE31E03983288303
:1045A00023EF31E03B872A878A8B8B8B81EC898BC9
:1045B0000E949E26BE01DF91CF910C945A2681E97C
:1045C00095E00C94BA220895FC01E05AFF4F108246
:1045D000399610823697262F30E0318320838F5909
:1045E0009F4F686570E0FC017183608380912D01AD
:1045F0009FEF980F90932D0181110C94902D0895A9
:104600000F93CF93DF9300D0CDB7DEB722E029839D
:104610006A838F599F4F00E021E042E0BE016F5F47
:104620007F4FFC0180810E94F02D0F900F90DF9151
:10463000CF910F9108950F931F93CF93DF9300D0E5
:1046400000D01F92CDB7DEB78C01FC01EF59FF4FB0
:1046500021E045E0BE016F5F7F4F80810E94A82D61
:1046600089818130C9F4F801EB59FF4F8A81808339
:1046700031968B81808331968C81808331968D81B8
:10468000808381E00F900F900F900F900F90DF913B
:10469000CF911F910F91089580E0F4CF8B599F4FD8
:1046A000FC01608171818281938108950F93CF9382
:1046B000DF93CDB7DEB769970FB6F894DEBF0FBEB4
:1046C000CDBF20E8260F2983FC01E05AFF4F40812F
:1046D000DE01129628E1629FB001112430E020E053
:1046E000F901E60FF71FE80FF91FE0814E1708F5F3
:1046F000E41BF0E0E354FA4FE491ED932F5F3F4F5A
:104700002831310569F78F599F4F00E021E049E1D9
:10471000BE016F5F7F4FFC0180810E94F02D699682
:104720000FB6F894DEBF0FBECDBFDF91CF910F91D2
:104730000895E0E0DECFCF93DF93EC01C759DF4F60
:10474000688121E0260F28830E94562388818430C7
:1047500009F41882DF91CF9108951F920F920FB63E
:104760000F9211242F933F938F939F93AF93BF93F7
:104770008091A6059091A705A091A805B091A905E3
:104780003091A50523E0230F2D3758F50196A11D83
:10479000B11D2093A5058093A6059093A705A0932E
:1047A000A805B093A9058091AA059091AB05A091A9
:1047B000AC05B091AD050196A11DB11D8093AA0570
:1047C0009093AB05A093AC05B093AD05BF91AF91AD
:1047D0009F918F913F912F910F900FBE0F901F903F
:1047E000189526E8230F0296A11DB11DD2CF2FB731
:1047F000F8946091A6057091A7058091A805909105
:10480000A9052FBF08953FB7F8948091AA0590910C
:10481000AB05A091AC05B091AD0526B5A89B05C030
:104820002F3F19F00196A11DB11D3FBFBA2FA92F2F
:10483000982F8827BC01CD01620F711D811D911D2C
:1048400042E0660F771F881F991F4A95D1F7089598
:104850008F929F92AF92BF92CF92DF92EF92FF9290
:104860006B017C010E9403244B015C01C114D10443
:10487000E104F104E9F00E9459300E940324681910
:1048800079098A099B09683E73408105910570F397
:1048900021E0C21AD108E108F10888EE880E83E011
:1048A000981EA11CB11CC114D104E104F10429F724
:1048B000FF90EF90DF90CF90BF90AF909F908F9040
:1048C0000895789484B5826084BD84B5816084BD88
:1048D00085B5826085BD85B5816085BDEEE6F0E079
:1048E000808181608083E1E8F0E0108280818260D5
:1048F0008083808181608083E0E8F0E08081816056
:104900008083E1E9F0E08081826080838081816042
:104910008083E0E9F0E0808181608083E1ECF0E079
:1049200080818460808380818260808380818160D7
:104930008083E3ECF0E0808181608083E0ECF0E054
:10494000808182608083E2ECF0E0808181608083FE
:10495000EAE7F0E0808184608083808182608083E8
:104960008081816080838081806880830895CF9377
:10497000DF931F92CDB7DEB76983DC01ED91FC9127
:104980000280F381E02D41E050E0BE016F5F7F4F78
:1049900009950F90DF91CF910895CF93DF93EC01AC
:1049A0008C859D8597FF05C082E00E9472299D87B6
:1049B0008C878C859D85DF91CF91089583E00E943F
:1049C000892990E0089583E00C94F82BFC018485FC
:1049D000958597FD06C082E00E94222990E001960D
:1049E000089582E00E94222990E00895FC018485C8
:1049F000958597FD05C02FEF3FEF358724870895F4
:104A000082E00C947229CF93DF93EC0180913901FD
:104A1000882331F083E00E94A3291816190634F088
:104A200081E090E09B838A8380E090E0DF91CF91EA
:104A30000895EEEFFFE72591349181E02B3F3C4D47
:104A400009F080E00895FC0190819E5F908342E42C
:104A500050E06DEB76E080E80C94542AFC018181F3
:104A60009081913A61F4813209F083C047E050E0CF
:104A700062E371E080E00E94542A81E0089591325F
:104A800009F077C0833269F482819381B0E0A0E0BD
:104A900080932E0190932F01A0933001B0933101A8
:104AA000ECCF803239F467E070E082E391E00E945D
:104AB0007A2AE3CF823209F78281809339010E94FA
:104AC0001925E0E0F8E0882311F0EEEFFAE080919C
:104AD000320190913301A0913401B0913501803BB6
:104AE0009440A105B105D9F48091390180FD17C02A
:104AF000EE3F8AE0F80771F587E797E791838083B7
:104B0000809160008093FE0588E19BE00FB6F894E9
:104B1000A895809360000FBE90936000AECF808117
:104B200091818737974709F0A8CFA89580916000B9
:104B30008861809360008091FE0580936000EE3F65
:104B40008AE0F80789F08091FE0A9091FF0A91832C
:104B5000808393CF808191818737980769F2909302
:104B6000FF0A8093FE0AC8CF1092FF0A1092FE0A35
:104B700084CF80E008952FEF3FEFFC013587248735
:104B80000895EEEAF5E01382128288EE93E0A0E049
:104B9000B0E084839583A683B78389EF91E0918306
:104BA00080838FEF9FEF958784870895EF92FF9220
:104BB0000F931F93CF93DF937B01FC01C281D381BD
:104BC00010E000E0209791F0E881F9810280F38104
:104BD000E02DB701CE01099597FD06C0080F191FFA
:104BE0000884D985C02DEECF0FEF1FEFC801DF91EC
:104BF000CF911F910F91FF90EF9008950F931F9306
:104C0000CF93DF938B01FC01C281D381209771F098
:104C1000E881F9810480F581E02DB801CE01099584
:104C2000009731F40884D985C02DF0CF90E080E062
:104C3000DF91CF911F910F9108950F931F93CF9301
:104C4000DF938B01FC01C281D381209771F0E88151
:104C5000F9810680F781E02DB801CE010995080F92
:104C6000111D0884D985C02DF0CFF8011082DF9185
:104C7000CF911F910F9108950F931F93CF93DF93BF
:104C80008B01FC01C281D381209771F0E881F98109
:104C90000190F081E02DB801CE010995811105C088
:104CA0000884D985C02DF0CF80E0DF91CF911F918E
:104CB0000F910895CF93DF93FC01DB0121811496BE
:104CC0008C911497820F9927991F08978CF5C281B0
:104CD000D381209731F573836283908112969C93E0
:104CE000129713962C93139715968C911597890FFD
:104CF000808380E014969C9114978917E8F41696A7
:104D0000CD91DC911797C80FD11D9881C181D0E05A
:104D1000C65CDE4F988391819F5F91838F5FEACF5E
:104D2000EC01888599850097D9F7B987A887D5CFF1
:104D300080E0DF91CF91089581E0FBCF8091FF0566
:104D400081110DC082E08093070684E080930806FD
:104D500010920A061092090681E08093FF0587E011
:104D600096E00895FB0101900020E9F73197AF012B
:104D7000461B570BDC01ED91FC910280F381E02D85
:104D80000994EF92FF920F931F93CF93DF938C01BF
:104D90007B01D0E0C0E0F701EC0FFD1F64916623BA
:104DA00061F0D801ED91FC910190F081E02DC801F6
:104DB0000995892B11F02196EECFCE01DF91CF918D
:104DC0001F910F91FF90EF900895DC01ED91FC9100
:104DD0000190F081E02D099467E072E00C94B22616
:104DE0000F931F93CF93DF93EC010E94C1268C0198
:104DF000CE010E94EC26800F911FDF91CF911F9171
:104E00000F9108958F929F92AF92BF92EF92FF926F
:104E10000F931F93CF93DF93CDB7DEB7A1970FB654
:104E2000F894DEBF0FBECDBF7C01FA01CB0119A201
:104E3000223008F42AE08E010F5D1F4F822E912C44
:104E4000B12CA12CBF01A50194010E949230F9015F
:104E5000CA016A300CF5605DD8016E938D01232B79
:104E6000242B252B79F790E080E0109721F0BD01ED
:104E7000C7010E94B226A1960FB6F894DEBF0FBEFE
:104E8000CDBFDF91CF911F910F91FF90EF90BF9019
:104E9000AF909F908F900895695CDECFCF92DF92A4
:104EA000EF92FF920F931F93CF93DF93211531055C
:104EB00081F4DC01ED91FC910190F081E02D642FF3
:104EC000DF91CF911F910F91FF90EF90DF90CF90E6
:104ED00009942A30310501F52AE077FF1DC06A01E7
:104EE0007B01EC016DE20E94E5268C0144275527E9
:104EF000BA014C195D096E097F092AE0CE010E94B2
:104F00000227800F911FDF91CF911F910F91FF908A
:104F1000EF90DF90CF900895DF91CF911F910F9187
:104F2000FF90EF90DF90CF900C9402279A01AB0195
:104F3000770F660B770B0C944E272115310541F442
:104F4000DC01ED91FC910190F081E02D642F09943A
:104F50000C9402279A01462F50E070E060E00C9418
:104F60009D279A01AB0170E060E00C949D270F93A0
:104F70001F93CF93DF93EC010E94F7236887798713
:104F80008A879B87E881F9810484F585E02DCE012D
:104F9000099597FF15C00E94F723088519852A8572
:104FA0003B85601B710B820B930B0C811D812E8145
:104FB0003F81601771078207930720F38FEF9FEF00
:104FC000DF91CF911F910F910895FF920F931F933F
:104FD000CF93DF93EC018B01F42ECE010E94B72713
:104FE00097FD1DC08D329105D1F09C0120533109F0
:104FF0002A303105A0F0FF2019F08E32910579F0AA
:105000000130110551F00230110589F48D30910500
:1050100071F05CF40997029750F08FEF9FEFDF91EA
:10502000CF911F910F91FF9008958097B1F7E8817C
:10503000F9810284F385E02DCE010995CECFBF9290
:10504000CF92DF92EF92FF920F931F93CF93DF9354
:105050008C01C42F40E00E94E527FC01C12CD12C1B
:10506000760197FD3EC0B12C0C2E000CDD0BCE1747
:10507000DF07D9F0ED32F10509F43FC0CF01C09749
:105080000A9798F4AAE0B0E0A70196010E94D130F7
:105090006F01FF0FEE08FF08C60ED71EE81EF91EAF
:1050A00080E3C81AD108E108F108D801ED91FC911C
:1050B0000284F385E02DC8010995C8010E94B72735
:1050C000FC01C0970A9798F2CE17DF0781F2BB2048
:1050D00041F0F094E094D094C094C11CD11CE11C28
:1050E000F11CC701B601DF91CF911F910F91FF9085
:1050F000EF90DF90CF90BF900895BB24B394D5CFAD
:1051000040910E0650910F0620910C0630910D062D
:1051100042175307B4F49091E8009570E1F3909131
:10512000E80092FD19C08093F10080910E069091E5
:105130000F0601968F739927892B19F48EEF8093B0
:10514000E80080910E0690910F06019690930F064D
:1051500080930E0681E0089580E00895EF92FF921B
:105160000F931F93CF93DF93F82E192FE62E042F62
:1051700081E0860F880F0E94802883E00E948028AB
:10518000CF2DD12FEC0EFD2EF11CCE15DF05B9F081
:1051900007FF13C0FE0184910E948028182F80E031
:1051A0000E948028812321968111EFCFDF91CF913A
:1051B0001F910F91FF90EF9008958881EDCF81E0CE
:1051C000F5CF8091D70081608093D70080EA8093EB
:1051D000D80089B5806189BD89B5826089BD09B46F
:1051E00000FEFDCF61E070E080E090E00E942824A6
:1051F0008091D8008F7C80618093D8008091E000FE
:10520000807F8093E0000895CF93DF931F92CDB706
:10521000DEB71982CE0101960E9423250E949E26A8
:10522000BE016F5F7F4F0E94D62589810F90DF916D
:10523000CF9108952FB7FC012083F8946770609395
:10524000E9000895CF93DF931F92CDB7DEB7682FA3
:10525000CE0101960E941A298091F20099819FBF88
:105260000F90DF91CF910895EF92FF920F931F93CC
:10527000CF93DF931F92CDB7DEB79091120699239B
:1052800071F157FD2CC08A017B01682FCE01019678
:105290000E941A298091F20090E0081719070CF477
:1052A000C801282FF70144E6215030F0409313063F
:1052B0003091F1003193F8CF009739F02091F2004E
:1052C000211103C02BE62093E80029812FBF0F9006
:1052D000DF91CF911F910F91FF90EF9008958FEF85
:1052E0009FEFF5CFCF93DF931F92CDB7DEB741E0AD
:1052F00050E0BE016F5F7F4F0E943429019731F467
:10530000898190E00F90DF91CF9108958FEF9FEF0B
:10531000F9CFCF93DF931F92CDB7DEB7682FCE01C1
:1053200001960E941A299091E800892F807295FFBA
:1053300004C09091F20080E4891B99819FBF0F9077
:10534000DF91CF9108955F926F927F928F929F929B
:10535000AF92BF92CF92DF92EF92FF920F931F9383
:10536000CF93DF931F92CDB7DEB7982E6B01B42E8B
:10537000052F80911206811113C08FEF9FEF0F90C0
:10538000DF91CF911F910F91FF90EF90DF90CF9021
:10539000BF90AF909F908F907F906F905F90089597
:1053A0008091100680FF05C08091E00082608093AC
:1053B000E000EB2CF02EA12C8AEF882E892D807234
:1053C000682E892D8074582E9AE3792EE114F10409
:1053D00019F4AA2009F457C0892D0E948929182F91
:1053E00081110AC08A94882041F261E070E080E077
:1053F00090E00E942824EACF8E151F0411F00CF0D3
:105400001E2D692DCE0101960E941A298091E80077
:1054100085FD03C089818FBFD9CF812F90E0E81A25
:10542000F90A662029F01150A0F01092F100FBCF8C
:10543000F60197FC0AC0115050F021912093F10021
:10544000FACF24912093F10031961150D0F7C80E75
:10545000D91EAA2021F07092E800A12CDBCF809108
:10546000E80085FD08C07092E800AA24A394E11426
:10547000F10481F2F2CFE114F10461F6552051F20A
:105480007092E800C7CF84E6809314068B2D902F8E
:1054900076CF1092E90010920F0610920E069093AC
:1054A0000D0680930C060895DF92EF92FF920F9302
:1054B0001F93CF93DF93D82E8A01EB017B01E40E7B
:1054C000F51ECE15DF0559F0D7FE12C0FE018491FE
:1054D0000E94802821968111F4CF0FEF1FEFC801A1
:1054E000DF91CF911F910F91FF90EF90DF90089582
:1054F0008881EECFCF93DF93EC019B01B4E6ABEF55
:1055000021153105F1F0A9012134310514F040E4F1
:1055100050E08091E80082FFFCCF942FFB01E21B5A
:10552000F30BEC0FFD1F915028F08091F100808368
:105530003196F9CFB0931306A093E800241B350BE6
:10554000DFCFCB01DF91CF9108951F920F920FB65D
:105550000F921124CF92DF92FF920F931F932F93FC
:105560003F934F935F936F937F938F939F93AF93EB
:10557000BF93EF93FF93CF93DF93CDB7DEB76C97D5
:10558000DEBFCDBF1092E9008091E80083FF2FC0FD
:1055900089E0FE017596FE2E0F2F815029F0909123
:1055A000F10090833196F9CF84E68093130682EF61
:1055B0008093E8008D8987FF38C09091E80090FFC4
:1055C000FCCF982F907609F000C19E894F89588DA5
:1055D0002F89188D911130C0803859F580911106AE
:1055E0008093F1001092F1008EEF8093E8006C96AA
:1055F0000FB6F894DEBF0FBECDBFDF91CF91FF9104
:10560000EF91BF91AF919F918F917F916F915F913A
:105610004F913F912F911F910F91FF90DF90CF906D
:105620000F900FBE0F901F9018959EEF9093E8007B
:10563000C8CF1092F100D6CF913059F48111D4CF58
:105640004130510589F6809111068D7F80931106B6
:10565000CBCF933049F48111C7CF4130510521F6AA
:10566000809111068260F2CF953041F48091E8007C
:1056700080FFFCCF20682093E300B6CF963009F07E
:1056800076C0CB8CDC8C123039F590E080E00E9443
:10569000492A0E9404291F8299E099831A8391E084
:1056A0009E8390EA98879AEF998720910E06309111
:1056B0000F06275F3F4F3C832B838D83C6010E94DB
:1056C000492A49E050E0BE016F5F7F4F80E00E94B1
:1056D000542A0E94042988CFC6010E94492A0E94A8
:1056E0009E266F2D702F0E94FE25009731F00CF042
:1056F0007BCF81E28093EB007ACF113061F11330E0
:10570000C1F78F89882381F1823049F440E868E04D
:105710008CE197E00E94AE28882359F365CF813051
:1057200029F440E86AE081E197E0F4CF833009F79B
:105730000E949E268E010F5F1F4FB8010E941D26FA
:10574000F80101900020E9F73197BF01601B710B50
:1057500040E0C801DFCF6FEF76E0FB01449150E0FD
:1057600080E80E94542A40CF65E277E0F6CF973078
:1057700009F4BFCF983021F481E08093F10034CF59
:10578000993009F031CF837009F0B3CFEBE3F1E04A
:1057900081E031E096E32191222371F08093E900CA
:1057A0003093EB00DF0111972C912093EC00909344
:1057B000ED008F5F873079F78EE78093EA001092D3
:1057C000EA008F89809312060FCF8B8D9C8D0E94EB
:1057D000492A898D811105C08F2D902F0E942E2579
:1057E0009BCF0E949E266F2D702F0E943C2694CF47
:1057F0008093E9008091F200882319F08AE3809376
:10580000E80008951F920F920FB60F9211242F9364
:105810003F934F935F936F937F938F939F93AF9338
:10582000BF93CF93EF93FF93C091E1008091E1008C
:10583000837F8093E100C3FF0FC01092E90081E0F5
:105840008093EB001092EC0082E38093ED001092C5
:10585000120688E08093F000C2FF15C083E00E942A
:10586000F82B80911406882329F08091140681502A
:105870008093140680911306882329F080911306E3
:10588000815080931306C4FF23C08091E2008E7E76
:1058900081608093E2008091E1008F7E8093E1003F
:1058A000809110068E7E806180931006FF91EF91AB
:1058B000CF91BF91AF919F918F917F916F915F91A8
:1058C0004F913F912F910F900FBE0F901F90189501
:1058D000C0FFECCF8091E2008E7E80618093E20079
:1058E0008091E1008E7E8093E100809110068E7E93
:1058F0008160DACF109212061092110610921006F3
:105900000E94E128E1EEF0E080818E7E80838DE0D0
:105910008093E200559A209A08958091E0008D7F4F
:105920008093E0008091E00081FD11C0809110061D
:1059300080FF0DC08091110681FF09C00E94E128FF
:105940008091E00082608093E00081E0089580E033
:105950000895CF93C82F80EE94E00E94171F6C2FFC
:10596000811105C080EE94E0CF910C94801F8DE1F1
:1059700095E0CF910C94F520FF920F931F93CF9356
:10598000DF9300D0CDB7DEB79A838983062F142F1B
:10599000603460F5842F8270F82E41FF0BC040FD0B
:1059A00009C0898181115CC09A81911159C0802FF1
:1059B0000E942107802F0E941C0A882339F010FFC3
:1059C00047C0F11045C0802F0E94010A89818111D2
:1059D0000DC08A8181110AC0E02FF0E0EE0FFF1F99
:1059E000E653FD4F8181908199838A83412F602FF7
:1059F000CE0101960E94C104892B51F5212F402F21
:105A00004F70602F62956F70CE0101960E94BE04A8
:105A1000892BF1F4412F602F89819A810E9493088C
:105A200089839A83F82E811102C0992389F06981B4
:105A30007A810A8106FF30C007FD0AC003FF1CC03F
:105A400011FF06C06F2D70E08FEF94E00E94F01FF1
:105A50000F900F90DF91CF911F910F91FF900895BC
:105A600016FDA5CF9A81E02FF0E0EE0FFF1FE65361
:105A7000FD4F808391839ECF00FFEACF11FDE8CFD9
:105A800010FFE6CF6F2D82E895E00E94F32182E8B7
:105A900095E00E94F121DCCF812F817011FF08C0B9
:105AA00041E0811140E082ED94E00E94C005D0CF3A
:105AB000882371F217FFCCCF8091D6048027809382
:105AC000D604802F807C21F480E28F0D883058F03E
:105AD0008091D804F81202C01092D8048091D704A3
