:100000000C94F7030C941F040C941F040C941F040D
:100010000C941F040C941F040C941F040C941F04D4
:100020000C941F040C941F040C9414310C94B72FDF
:100030000C941F040C941F040C941F040C941F04B4
:100040000C941F040C941F040C941F040C941F04A4
:100050000C941F040C941F040C941F040C9435047E
:100060000C941F040C941F040C941F040C941F0484
:100070000C941F040C941F040C941F040C941F0474
:100080000C941F040C941F040C941F040C941F0464
:100090000C9426330C941F040C941F040C941F041E
:1000A0000C941F040C941F040C941F040D8D02006B
:1000B0000028014A0526015C0524016E051602820E
:1000C0000513028205100282050D0282050A0282D2
:1000D00005070282050402820522018C052A019788
:1000E0000500A505372738000000A30537010700E4
:1000F00000006C6F63616C6C79206275696C7420B0
:100100006F6E204A756C20323820323032322061D6
:10011000742030373A32313A3133004B6579626FAF
:10012000617264696F204D6F64656C203031202DE1
:10013000204B616C6569646F73636F70652000FFAD
:10014000FF1E001F002000210022000043E000E409
:10015000000160230024002500260027000144350B
:100160000014001A000800150017002B002A002CAC
:100170000028001C0018000C00120013002E004B79
:100180000004001600070009000A002900E300E24D
:1001900000E6000B000D000E000F00330034004E8F
:1001A000001D001B000600190005002C44E100E5BD
:1001B000002C44110010003600370038002D00FFDD
:1001C000FFFFFFFFFFFFFFFFFFFFFFFFFFFFFFFF3F
:1001D000FF0060FFFF2400250026005600FFFFFF00
:1001E000FFFFFFFFFFFFFFFFFFFFFFFFFFFFFFFF1F
:1001F000FFFFFFFFFF2100220023005700FFFFFF4A
:10020000FFFFFFFFFFFFFFFFFFFFFFFFFFFFFFFFFE
:10021000FFFFFFFFFF1E001F0020002E00FFFFFF5B
:10022000FFFFFFFFFFFFFFFFFFFFFFFFFFFFFFFFDE
:10023000FFFFFFFFFF27003700550054002800FF95
:10024000FF3A003B003C003D003E003900FFFFFF4D
:10025000FFB6483F00400041004200430044002BED
:1002600000FFFF0150FFFF4250605029504C002812
:1002700000CD48B5482F0830082F00300045004A0F
:1002800000045002500850415025502A50FFFFFFF3
:10029000FF65005000510052004F00FFFFFFFF4D6F
:1002A0000046004900FFFF44502650FFFFFFFFFFBC
:1002B000FFFFFFE248EA48E948FFFF31003108301C
:1002C0002E31312E302B32370076657273696F6EA6
:1002D0000076657273696F6E0003040B0C13141AB9
:1002E0001B24252B2C33343B3C02050A0D12151917
:1002F0001C23262A2D32353A3D0106090E11161807
:100300001D2227292E3136393E0007080F10171FEE
:100310001E2120282F3037383F0000000000000049
:1003200000000000000000000000000000000000CD
:1003300000000000000101010101010101010101B2
:100340000101020202020202020203030303030389
:10035000030404040404050505050606060607074C
:1003600007070808080909090A0A0A0B0B0B0C0CF5
:100370000D0D0D0E0E0F0F1010111112121313147C
:10038000141515161617181819191A1B1B1C1D1DE4
:100390001E1F202021222323242526272728292A1F
:1003A0002B2C2D2E2F303132323334363738393A28
:1003B0003B3C3D3E3F40424344454648494A4B4D05
:1003C0004E4F515253555657595A5C5D5F606263A8
:1003D000656668696B6D6E7072737577787A7C7E0E
:1003E0007F81838587898A8C8E90929496989A9C37
:1003F0009EA0A2A4A7A9ABADAFB1B4B6B8BABDBF19
:10040000C1C4C6C8CBCDD0D2D5D7DADCDFE1E4E7B2
:10041000E9ECEFF1F4F7F9FCFF05010906A101058C
:100420000719E029E7150025017501950881029556
:1004300001750881019505750105081901290591C6
:100440000295017503910195067508150025FF05B4
:1004500007190029FF8100C0050C0901A1018504CD
:10046000150026FF0319002AFF039504751081006B
:10047000C005010906A1018508050719E029E7154E
:1004800000250175019508810205081901290895C3
:100490000875019102050775049501810119042968
:1004A000DD15002501750195D9810275039501813E
:1004B00001C005010980A1018505150026FF00196D
:1004C0000029FF950175088100C0656570726F6D28
:1004D0002E657261736500656570726F6D2E667250
:1004E000656500656570726F6D2E636F6E74656E05
:1004F000747300656570726F6D2E636F6E74656ED8
:1005000074730A656570726F6D2E667265650A6533
:100510006570726F6D2E6572617365002F00637276
:10052000630076657273696F6E0076616C69643F13
:100530000064656661756C744C6179657200736501
:100540007474696E67732E0073657474696E677373
:100550002E64656661756C744C617965720A7365A9
:100560007474696E67732E76616C69643F0A736593
:100570007474696E67732E76657273696F6E0A7331
:10058000657474696E67732E637263006375737448
:100590006F6D0064656661756C74006F6E6C794395
:1005A0007573746F6D006B65796D61702E006B658E
:1005B000796D61702E637573746F6D0A6B65796DFB
:1005C00061702E64656661756C740A6B65796D6126
:1005D000702E6F6E6C79437573746F6D0045455066
:1005E000524F4D4B65796D61700066616C736500AB
:1005F0007472756500706C7567696E7300646576FA
:100600006963652E72657365740068656C700A6451
:1006100065766963652E72657365740A706C7567BB
:10062000696E730068656C70000D0A2E004D6F7561
:1006300073654B657973004D6163726F73001E08BB
:100640003408200821082208240834002608270836
:1006500025082E0836002D00370038002700330803
:10066000330036082E00370838081F082F003100E5
:10067000300023082D0835002F08310830083508D0
:1006800074726967676572006D6170006D61637295
:100690006F732E006D6163726F732E6D61700A6DE2
:1006A0006163726F732E7472696767657200447953
:1006B0006E616D69634D6163726F730070616C652B
:1006C00074746500636F6C6F726D61702E6D617014
:1006D00000436F6C6F726D61704566666563740090
:1006E0004D61676963436F6D626F0051756B65792A
:1006F0007300080B0002020200000904000001025E
:100700000200000524001001052401010104240257
:1007100006052406000107058103100040090401B5
:1007200000020A00000007050202400000070583DE
:100730000240000012010002EF02014009120123F1
:100740000001010203014B6579626F617264696F98
:10075000004D6F64656C203031000403090405010D
:100760000902A101850105091901290815002501C2
:100770009508750181020501093009310938158193
:10078000257F750895038106050C0A380215812519
:100790007F750895018106C005010902A1010509BF
:1007A0001901290815002501950875018102050127
:1007B0000930093116000026FF7F7510950281026D
:1007C00009381581257F750895018106C0006807E5
:1007D000160D280D610D6B0FD1116A125E13BD133A
:1007E000F31432187E29D32ABC3191356536112491
:1007F0001FBECFEFDAE0DEBFCDBF11E0A0E0B1E079
:10080000ECEDFEE602C005900D92A23FB107D9F7CC
:1008100026E0A2EFB1E001C01D92A935B207E1F7D1
:1008200013E0C7EFD3E004C02197FE010E94B43665
:10083000C73ED107C9F70E9422040C946C370C9470
:10084000000008950E94F4040E94210482E695E0CD
:100850000E948C310E94B006C0E0D0E00E94DD060C
:100860002097E1F30E940000F9CF1F920F920FB67C
:100870000F9211242F933F938F939F93AF93BF9326
:100880008091F3019091F401A091F501B091F601EE
:100890003091F20123E0230F2D3758F50196A11D69
:1008A000B11D2093F2018093F3019093F401A09382
:1008B000F501B093F6018091F7019091F801A091B4
:1008C000F901B091FA010196A11DB11D8093F701C4
:1008D0009093F801A093F901B093FA01BF91AF9101
:1008E0009F918F913F912F910F900FBE0F901F906E
:1008F000189526E8230F0296A11DB11DD2CF2FB760
:10090000F8946091F3017091F4018091F501909158
:10091000F6012FBF08953FB7F8948091F7019091A9
:10092000F801A091F901B091FA0126B5A89B05C084
:100930002F3F19F00196A11DB11D3FBFBA2FA92F5E
:10094000982F8827BC01CD01620F711D811D911D5B
:1009500042E0660F771F881F991F4A95D1F70895C7
:100960008F929F92AF92BF92CF92DF92EF92FF92BF
:100970006B017C010E948B044B015C01C114D1040A
:10098000E104F104E9F00E94BB310E948B04681974
:1009900079098A099B09683E73408105910570F3C6
:1009A00021E0C21AD108E108F10888EE880E83E040
:1009B000981EA11CB11CC114D104E104F10429F753
:1009C000FF90EF90DF90CF90BF90AF909F908F906F
:1009D00008958230910538F0880F991F880F991F6C
:1009E00005970197F1F70895789484B5826084BDE6
:1009F00084B5816084BD85B5826085BD85B5816023
:100A000085BDEEE6F0E0808181608083E1E8F0E082
:100A10001082808182608083808181608083E0E8B1
:100A2000F0E0808181608083E1E9F0E08081826094
:100A30008083808181608083E0E9F0E08081816053
:100A40008083E1ECF0E0808184608083808182603B
:100A50008083808181608083E3ECF0E0808181602D
:100A60008083E0ECF0E0808182608083E2ECF0E063
:100A7000808181608083EAE7F0E080818460808308
:100A800080818260808380818160808380818068B2
:100A900080830895FC01892B69F08DE991E09183B1
:100AA0008083738362831582148281E08683178238
:100AB0008FEF8087CF010895FC01892B69F089EAC7
:100AC00091E091838083738362831582148281E035
:100AD000868317828FEF8087CF010895FC01892BD1
:100AE00079F081E991E0918380837383628314823A
:100AF00081E0858380911A0290911B0297838683FF
:100B0000CF010895009739F029E731E0FC013183E6
:100B10002083738362830895009741F025E831E0D4
:100B2000FC013183208373836283148208950097CC
:100B300039F025EB31E0FC0131832083738362833C
:100B4000FB01408308950C94912584E095E00C947A
:100B5000AB29089586E0E3E5F1E0DB0101900D9219
:100B60008A95E1F786E00895CF93DF93EB01882320
:100B700039F08130B9F090E080E0DF91CF910895B5
:100B8000898181FFF8CF80FDF6CF6BE171E087E6C8
:100B900094E00E94801C62EF70E087E694E00E947F
:100BA000801CE9CF898181FFE6CF80FDE4CF0E94E0
:100BB0007F0424E230E040E050E00E9492366C5F17
:100BC0006A831B82D8CF009719F0029719F0089515
:100BD0000C94D10C0C94B60C0C94E3058CE294E0CC
:100BE0000E949C168AE291E00E94662487E694E0C7
:100BF0000E94D71C88E794E00E947C1F82E594E065
:100C00000E94A2188EEC94E00E943F268CE291E0B4
:100C10000E94BF2580E0089582E294E00E94EE13D6
:100C20008CE294E00E94921680EC94E00E940421F1
:100C300087E892E00E94C10C8DEB94E00E944E2068
:100C400082E594E00E94B71880E0089582E294E083
:100C50000E94EB148CEC94E00E949B2580E00895A8
:100C6000BC018EEC94E00C94CF28CF93DF93EC0181
:100C7000BC0187E892E00E94DB0C811115C0BE0127
:100C800087E694E00E949F1C81110EC0BE0188E798
:100C900094E00E94591F811107C0BE0182E594E0D3
:100CA000DF91CF910C942D19DF91CF910895BC0164
:100CB00082E594E00C94E7188AE291E00E947B249C
:100CC00080E0089580E0089580E00895CF93DF9359
:100CD000EC01BC0188E694E00E94B51D811107C0BB
:100CE000BE0188E694E0DF91CF910C94B51DDF91B1
:100CF000CF910895BC0182E594E00E94E91980E05B
:100D0000089581E394E00E94351880EC94E00E94FD
:100D1000082187E892E00E94F90B8DEB94E00E9495
:100D2000BA2082E594E00E94A1198EEC94E00E9422
:100D300040298CE291E00E94D42580E00895ECEAFD
:100D4000F0E0849108959B0194E0899FB001112403
:100D500063557F4F44E050E0C9010C940E3708956D
:100D600080915B0190915C010E944F0881E080932B
:100D7000BF0466E988E291E00E94382266E986E2D3
:100D800091E00E943B2287E30E94C7248DE892E015
:100D90000E942F0D85E00E94BC1665E08AE291E07A
:100DA0000E94562460E870E088E794E00E94911F5A
:100DB000809126048F770C94F30A80915B019091C7
:100DC0005C010C946D080F931F93CF938C01FC0171
:100DD000608171818CE294E00E943E17C82F8111DE
:100DE00062C0F8016081718181E394E00E94F7178D
:100DF000C82F811158C0F8016081718181E294E0AF
:100E00000E949915C82F81114EC0F801608171812F
:100E100080E294E00E940915C82F811144C0F801B6
:100E20006081718184EC94E00E945423C82F811169
:100E30003AC0F801608171818AE291E00E948924C0
:100E4000C82F811130C0F8016081718188E794E07A
:100E50000E94AA1FC82F811126C0F80100811181AC
:100E600041ED52E0B80181E394E00E94E217811164
:100E70001AC069EC72E0C8010E941737892B99F4F7
:100E80006FEB72E085E095E00E94D32B84E690E062
:100E90000E94E90460E285E095E00E94F72B84E679
:100EA00090E00E94E9048C2FCF911F910F9108953B
:100EB000CF93DF9300D0CDB7DEB79A838983CE017D
:100EC00001960E94E3060F900F90DF91CF91089555
:100ED000E6E1F2E020EA208311821282E3E1F2E00F
:100EE0008CE8808396E491831282E0E1F2E082E86C
:100EF000808334E631831282EDE0F2E010822183B8
:100F00001282EAE0F2E0108291838283E7E0F2E06D
:100F1000108211829AEA9283E4E0F2E080831182E7
:100F200088E7828308958AE893E00E941211811174
:100F300004C08AE893E00C94B31189EC93E00E941A
:100F40004E138BEA93E00C942F128AE893E00E94F0
:100F50001211811104C08AE893E00C94181189ECF5
:100F600093E00E949A128BEA93E00C944212CF9382
:100F7000C82F8AE893E00E9412116C2F811105C0DE
:100F80008AE893E0CF910C94541189EC93E0CF91CF
:100F90000C94FE12CF93C82F83FF03C081EE0E94F2
:100FA000B707C0FF03C080EE0E94B707C1FF03C0B0
:100FB00082EE0E94B707C2FF03C086EE0E94B70709
:100FC000C4FF04C083EECF910C94B707CF9108956E
:100FD000CF93C82F892F0E94CA078C2FCF910C94D2
:100FE000B707CF93C82F8AE893E00E9412116C2FA5
:100FF000811105C08AE893E0CF910C947B1189ECB4
:1010000093E0CF910C942513FC019081DB018C912E
:10101000981305C081E0218111969C91291380E0ED
:1010200008951F93CF93DF9300D000D0CDB7DEB7E4
:10103000182F803468F5E82FF0E0EE0FFF1FE3591A
:10104000FA4F808191819C838B838FEF89838A8380
:10105000BE016F5F7F4FCE0103960E940408882374
:1010600069F0A12FB0E0A15EBD4FE0910201F091C7
:101070000301612F8C9109958B839C838B819C81CB
:101080000F900F900F900F90DF91CF911F910895C7
:101090001092ED051092EE05EDEEF5E0D2CF81E96C
:1010A00092E00E945C0F40E855E260E070E085E06D
:1010B00095E00E94CD2A0E94A9050E940C06EDE64B
:1010C000F5E081E49FEF815021F090839183329687
:1010D000FACF8EE192E00C94F10A0E947F046093B3
:1010E0001A0270931B0280931C0290931D020E94AF
:1010F00026060E94F20E0C9481061F93CF93DF9375
:10110000C62F172F862F972F0E945706823009F17E
:10111000812F807C61F480E28C0F883008F010E031
:101120008C2F912FDF91CF911F910C94E807812F85
:10113000887C883471F4612F70E0762F66276C0FFD
:10114000711D73708BEA93E0DF91CF911F910C9426
:101150001A12DF91CF911F9108958F929F92BF92A3
:10116000CF92DF92EF92FF920F931F93CF93DF9373
:1011700000D000D000D0CDB7DEB77C016B010E945B
:10118000930710E000E0BB24BA940034110599F1F4
:10119000F6019081901729F1003430F5F801EE0F37
:1011A000FF1FE359FA4F808091809E828D82BB821F
:1011B000BC82BE016D5F7F4FCE0105960E94040880
:1011C00081110FC019821A82BE016F5F7F4FCE015D
:1011D00005960E940408811104C0B401C7010E9451
:1011E0007D080F5F1F4FD1CF1092ED051092EE05D5
:1011F000EDEEF5E0D8CF26960FB6F894DEBF0FBE21
:10120000CDBFDF91CF911F910F91FF90EF90DF90B5
:10121000CF90BF909F908F900895EF92FF920F9381
:101220001F93CF93DF938C01EB01898181FF43C032
:1012300080FD41C08B81807CF1F588818093010124
:10124000FA808AE893E00E9412116F2D81112EC05E
:101250008AE893E00E94C411882301F1FB80EA80B0
:10126000F3FE03C081EE0E94F107F0FE03C080EEA2
:101270000E94F107F1FE03C082EE0E94F107F2FE28
:1012800003C086EE0E94F107F4FE03C083EE0E94C5
:10129000F1078E2D0E94F1070E94A5078B818823FC
:1012A00079F00E94CA070E94A5070AC089EC93E062
:1012B0000E94E812D1CFE09101018881E81317C0A4
:1012C000898181FF07C080FD05C06A817B81C801DB
:1012D0000E947D08CE010E9466068230E9F0DF910F
:1012E000CF911F910F91FF90EF900C94A507E034E0
:1012F00060F4F0E0EE0FFF1FE359FA4F8181982F61
:10130000907CF1F60E94CA07DBCF1092ED05109297
:10131000EE05EDEEF5E0F2CFDF91CF911F910F9149
:10132000FF90EF900895FF920F931F93CF93DF9359
:10133000CDB7DEB72D970FB6F894DEBF0FBECDBF89
:101340008C0129873A874B875C876D87203448F466
:1013500030FF61C031FD5FC089850E9411089C8704
:101360008B87CE0109960E943506823009F447C06A
:10137000E985E03468F49A85F0E0EE0FFF1FE35949
:10138000FA4F90FF55C091FD53C09FEF908391831A
:10139000811135C01F821886BE01695F7F4FCE0163
:1013A0000B960E94040881112AC01D821E82BE0174
:1013B0006B5F7F4FCE010B960E94040881111FC006
:1013C000FF24FA94FB82FC82BE016D5F7F4FCE0149
:1013D0000B960E940408811112C0F982FA82BE01A4
:1013E0006F5F7F4FCE010B960E940408811107C0EA
:1013F0008C85843409F5CE0109960E94840B2D96C4
:101400000FB6F894DEBF0FBECDBFDF91CF911F9115
:101410000F91FF9008958FEF89838A83BE016F5FDC
:101420007F4FCE010B960E940408811195CF99CF72
:101430009C852B852083ABCF8F7C8134B9F48A8542
:101440001B8581FF0AC080FD08C0612F81E194E007
:101450000E94A51310939602D2CF80919602811319
:10146000CECF81E194E00E94A313C9CFBE01675F94
:101470007F4FC8010E94AD08BE01675F7F4FC80162
:101480000E940D09CE0109960E947A06B8CFEF920C
:10149000FF920F931F93CF93DF9300D000D000D023
:1014A0001F92CDB7DEB7022F2B833C834D835E8323
:1014B0006F83203408F042C07C01832F817031FF9C
:1014C00022C081113BC08FEF89838A83BE016F5F89
:1014D0007F4FCE0105960E940408882329F0802FB3
:1014E0000E9411089E838D83CE0103960E943006D0
:1014F000811124C02B813C814D815E816F81C701A8
:101500000E9493091BC08823C9F010E0000F111F2F
:1015100003591A4FF801808191819E838D8319822E
:101520001A82BE016F5F7F4FCE0105960E940408AC
:101530008823D1F28FEFF8018083818327960FB63D
:10154000F894DEBF0FBECDBFDF91CF911F910F91F9
:10155000FF90EF90089520E4829FC0011124680F4E
:10156000792F711D660F771FFB01E15CFE4F84919F
:10157000FB01E05CFE4F94910895EF92FF920F9370
:101580001F93CF93DF93EFE1F2E080E4DF011D9240
:101590008A95E9F77F0110E01034E1F0C091040171
:1015A000D0E0C15ADD4FB2E0CF35DB0771F00A91D0
:1015B000E0910201F0910301612F802F09958F3F87
:1015C00011F49F3F81F3F70100831F5FFFEFEF1AD4
:1015D000FF0AE2CFDF91CF911F910F91FF90EF9023
:1015E00008950C94BD0A90910001891708F080E0DD
:1015F00091E09093040180935F020E94BD0A0C94D5
:101600005C064091040150E090E0682F70E0292FC3
:10161000092E000C330B2417350764F4215A3D4F73
:10162000F9012081022E000C330B2617370721F019
:101630009F5FEDCF80E0089581E00895CF93909172
:1016400000018917A0F4C82F0E94010B81110FC05F
:10165000E091040181E08E0F80930401F0E0E15AF3
:10166000FD4FC0830E94BD0ACF910C945C06CF91C0
:101670000895CF93DF93D82F0E94010B882381F127
:10168000C0910401C23028F480E0DF91CF910C9426
:10169000F30AEFE5F2E090E080E02D2F30E0419199
:1016A000042E000C550BBC016F5F7F4F4217530790
:1016B00099F44C2F50E0481B590B615A7D4F815AC9
:1016C0009D4F0E944437C150C09304010E94BD0A3F
:1016D000DF91CF910C945C06CB016C1700F3F6CF31
:1016E000DF91CF910895E0910401F0E0E25AFD4FBF
:1016F00080818F5F0C941E0BE0910401F0E0E25AB0
:10170000FD4F80810C94390BCF93DF93FC01C28194
:101710009181292F2270C43558F0222309F450C03A
:1017200090FD4EC08CEA8C0FDF91CF910C94F30AA0
:10173000CA32C8F1D6EDDC0FD13251F0D23281F489
:10174000222351F090FD08C0DF91CF910C94730BD0
:101750002223D1F390FDF8CFDF91CF910C947C0B35
:10176000211110C0ADE6B5E081E48150B9F09C9143
:10177000C91306C011962C9111979381291701F175
:101780001296F3CF90FDEECF8D2F0E94010B8111A9
:1017900017C08D2FDF91CF910C941E0B8D2FDF91F1
:1017A000CF910C94390B222359F090FD09C08C2F56
:1017B0000E94010B882311F08C2FF1CF8C2FEACFE0
:1017C000DF91CF9108950C94C40D803438F4E82F44
:1017D000F0E0E752FD4F84910C94C40D8FEFFCCFE5
:1017E00080910601882321F00E9464060C940B0E60
:1017F000089580910601882361F180911A029091E9
:101800001B022091880230918902821B930B209148
:1018100005012817190609F0E0F40E94F00B8091E9
:1018200005012091880230918902820F932F911D2A
:10183000909389028093880280918A0290918B0212
:10184000009739F0DC01ED91FC910480F581E02DE9
:10185000099580E0089580917E02811105C0109263
:10186000860281E080937E0286E892E00895CF921E
:10187000DF92EF92CF936B01E82E0E942B0CC0E019
:101880006E2DA6018C2F0E94E30BCF5FC034C1F7F1
:10189000CF91EF90DF90CF90089560E070E080E00E
:1018A0000E94370C80918A0290918B02009739F048
:1018B000DC01ED91FC910280F381E02D0994089503
:1018C00090918C02891778F4809307010E94310D62
:1018D00090938B0280938A028091060181110E946D
:1018E0004D0C0C9462060895809107018F5F8093E0
:1018F000070190918C02891708F080E00C94600C2D
:1019000080910701811102C080918C0281508093E7
:101910000701809107010C94600CEF92FF921F93D6
:10192000CF93DF9300D000D0CDB7DEB77C0110E0BD
:1019300080918C02181770F4BE016F5F7F4F812F6A
:101940000E94A30689819A81E816F90669F4812F1D
:101950000E94600C0F900F900F900F90DF91CF912D
:101960001F91FF90EF9008951F5FE2CF81E0809379
:1019700006010E944D0C0C940B0E762F642F0C94D4
:10198000370C60E070E080E00E94370C0E94AF06E8
:10199000809107018F3F19F480E00E94600C80E085
:1019A000089560E070E080E00E94370C0E940B0E0A
:1019B000109206010895FB018381833451F58181E2
:1019C00081FF2DC080FD2BC08281EDE6F5E091E422
:1019D000823048F0823019F5809106018823B1F0F9
:1019E0000E94D10C1CC09150E1F03181232F207C4A
:1019F00059F4208140E2420F483030F4213E59F042
:101A0000253E49F033FD07C03296EDCF0E94B60C5B
:101A100006C080E00895811106C00E94800C81E01C
:101A200008958111FACF0E94740CF9CF0E949F068D
:101A300080938C0208950895089560E070E080E03E
:101A40000C94370C862F40E050E060E00C94E50BDE
:101A500081E691E090938E0280938D0208950C941C
:101A60008D0C1F93CF93DF9300D000D0CDB7DEB79E
:101A70009091080198130CC080918F029091900270
:101A80000F900F900F900F90DF91CF911F910895BD
:101A9000182F80930801BE016F5F7F4F0E94A3063D
:101AA000EB81FC8189819A81309731F069817A815B
:101AB000412F8BEF91E009959093900280938F02D4
:101AC000DBCF1092960208958AE893E00E94BA1143
:101AD00089EC93E00E9454138BEA93E00E94681211
:101AE00081E194E00C94A113CF93DF9300D000D058
:101AF0001F92CDB7DEB7262F342F842F817041FF80
:101B000015C0811115C080916C0561E0680F60936C
:101B10006C054FEF5FEF89E192E00F900F900F900F
:101B20000F900F90DF91CF910C94470A8111EBCF6A
:101B30000F900F900F900F900F90DF91CF9108951D
:101B40006E9A769824982C980895803420F060E05E
:101B500070E080E00895282F30E0803258F4F901D9
:101B6000EE0FFF1FE20FF31FE85EFC4F60817181F3
:101B70008281089520523109F901EE0FFF1FE20F13
:101B8000F31FE255FD4FF2CF0F931F93CF93DF93D7
:101B9000C82F8A01D62F8032F8F40E94A50DD813E1
:101BA00019C081E0171303C0061301C080E09091B3
:101BB0000901892B8093090123E0C29FF0011124C0
:101BC000E85EFC4F00831183D283DF91CF911F9198
:101BD0000F91089581E0EBCF8034B8F70E94A50DF6
:101BE000D81317C081E0171303C0061301C080E0AB
:101BF00090910901892B809309012C2F2052330BDE
:101C0000C901F901EE0FFF1FE80FF91FE255FD4F63
:101C1000D9CF81E0EDCF80910901882311F188E1CE
:101C200093E00E942C108EEA92E00E942C1088E132
:101C300093E00E942C108EEA92E00E942C1088E122
:101C400093E00E942C108EEA92E00E942C1088E112
:101C500093E00E942C108EEA92E00E942C101092C9
:101C6000090108953F9A479A08950FB6F894A895E8
:101C700080916000886180936000109260000FBEC8
:101C800064E670E080E090E00E94B0040C94320EB4
:101C90008091AA029091AB02A091AC02B091AD02EA
:101CA0008093A2029093A302A093A402B093A502F2
:101CB0008091A6029091A702A091A802B091A902DA
:101CC00080939E0290939F02A093A002B093A102E2
:101CD00088E193E00E94AC0F882361F088E193E0F3
:101CE0000E94DF0F6093AA027093AB028093AC0254
:101CF0009093AD028EEA92E00E94AC0F882361F0CF
:101D00008EEA92E00E94DF0F6093A6027093A70212
:101D10008093A8029093A9020895FF920F931F93B6
:101D2000CF93DF93F42E641302C06623E1F0829513
:101D3000807F182F120F00E0C62FD0E0AE01440FB5
:101D4000551F42708F2D8170482B31F0612F601B21
:101D500080E090E00E94740DF6940F5FD595C795D2
:101D60006C2F083049F7DF91CF911F910F91FF90B1
:101D70000895AF92BF92CF92DF92EF92FF920F93AE
:101D80001F93CF9382EAA82E82E0B82E9AEAC92E3A
:101D900092E0D92E2EE9E22E22E0F22E06EA12E09F
:101DA000C0E0F50141915F01F60161916F0127E00B
:101DB0008C2F0E948D0EF70141917F01F8016191F6
:101DC0008F012FE08C2F0E948D0ECF5FC43049F71A
:101DD000CF911F910F91FF90EF90DF90CF90BF9028
:101DE000AF9008950E94480E0C94B90ECF93C82F5F
:101DF000682F88E193E00E94910F6C2F8EEA92E0A9
:101E0000CF910C94910F282F2F7082958F7090E0B6
:101E1000422F50E0283080F486559D4FFC01808190
:101E200090E027E030E0241B350B02C095958795A4
:101E30002A95E2F7817008958A559D4FFC018081B3
:101E400090E02FE030E0EFCF282F2F7082958F7039
:101E500090E0422F50E0283080F48E559D4FFC01D9
:101E6000808190E027E030E0241B350B02C095957F
:101E700087952A95E2F78170089582569D4FFC015F
:101E8000808190E02FE030E0EFCF6091AA02709166
:101E9000AB028091AC029091AD020E94BA36282F1D
:101EA0006091A6027091A7028091A8029091A90268
:101EB0000E94BA36820F08950E94A00D0E94640D00
:101EC0000E94350E8CE08093B80008955D9A289AA0
:101ED00082E00C94F60E60E088E193E00E94750FBA
:101EE00063E08EEA92E00C94750FFC01E05AFF4F1C
:101EF0001082399610823697262F30E03183208366
:101F00008F599F4F686570E0FC01718360838091F9
:101F10000A019FEF980F90930A0181110C9463328C
:101F200008950F93CF93DF9300D0CDB7DEB722E0B3
:101F300029836A838F599F4F00E021E042E0BE0170
:101F40006F5F7F4FFC0180810E94C3320F900F9022
:101F5000DF91CF910F9108950F931F93CF93DF934C
:101F600000D000D01F92CDB7DEB78C01FC01EF5935
:101F7000FF4F21E045E0BE016F5F7F4F80810E94EF
:101F80007B3289818130C9F4F801EB59FF4F8A8196
:101F9000808331968B81808331968C8180833196CA
:101FA0008D81808381E00F900F900F900F900F90A4
:101FB000DF91CF911F910F91089580E0F4CF8B595D
:101FC0009F4FFC01608171818281938108950F93FD
:101FD000CF93DF93CDB7DEB769970FB6F894DEBF26
:101FE0000FBECDBF20E8260F2983FC01E05AFF4F2A
:101FF0004081DE01129628E1629FB001112430E099
:1020000020E0F901E60FF71FE80FF91FE0814E17F6
:1020100008F5E41BF0E0E75EFC4FE491ED932F5FE1
:102020003F4F2831310569F78F599F4F00E021E07C
:1020300049E1BE016F5F7F4FFC0180810E94C33286
:1020400069960FB6F894DEBF0FBECDBFDF91CF917A
:102050000F910895E0E0DECFCF93DF93EC01C759F5
:10206000DF4F688121E0260F28830E94E70F8881D7
:10207000843009F41882DF91CF910895FC018281A8
:102080008F5BFB01808381E00895CF93DF93CDB711
:10209000DEB769970FB6F894DEBF0FBECDBFFC0167
:1020A000DB019C919F5F9C939E012D5F3F4F81E1DF
:1020B000D9011D928A95E9F729E0298384E08A8372
:1020C00091E09D8383E08E839F8398872A8721E216
:1020D0002B879C879D879F8722E2288B2FE3298B64
:1020E00027E02B8B25E02C8B8E8B20E430E0388F83
:1020F0002F8B998F82818B83838180688D8B49E1BF
:1021000050E0BE016F5F7F4F80E00E94662F6996AE
:102110000FB6F894DEBF0FBECDBFDF91CF9108950B
:10212000FC01DB018C918138A9F413968C911397F3
:10213000823281F4228114968D919C912817190680
:1021400049F48285848F4FE350E069E174E080E8D0
:102150000C94662F90E080E00895FC01DB01228161
:1021600014968D919C9115972817190681F5119653
:102170008C9111979C91913A69F4813029F08330C8
:1021800029F4848D8093F10081E008958230F9F480
:10219000858DF8CF9132D9F48B3021F412968C9141
:1021A000848FF2CF8A3011F4158EEECF893079F416
:1021B000CF0116962D913C91179713964C91423072
:1021C00041F461E070E04E962130310551F080E03D
:1021D00008954130E1F728303105C9F768E070E033
:1021E0000B960E948C2FD0CFCF93DF93EC0181E030
:1021F0008C838D839E01255E3F4F3F832E831986FE
:1022000018862DE631E0398328836A876C8F8D8F9D
:102210001E8E81EC8B8F0E94B02BBE01DF91CF917F
:102220000C946C2BFC01848D0895FC01648F08953F
:10223000EF92FF920F931F93CF93DF938C01EC01EA
:102240002B967C0183E1E80EF11C48E050E0BE01D2
:10225000C7010E942E37892B21F1F801838148E0C4
:1022600050E0BE0180640E94B52E8C01E091A9036C
:10227000F091AA03309731F09C0148E050E0BE0194
:1022800082E0099588E0FE01D70101900D928A95C0
:10229000E1F7C801DF91CF911F910F91FF90EF906F
:1022A00008950FEF1FEFF5CFFC0180E2860F883015
:1022B00070F4605E770B21E030E001C0220F6A9578
:1022C000EAF78385822B838781E090E00895DF0120
:1022D0001D9690E080E02D912617B1F3211104C0E6
:1022E000E80FF91F6587F0CF01968630910599F7C1
:1022F00090E080E00895CF93DF9320E2260F28300E
:1023000090F4605E770B21E030E001C0220F6A9507
:10231000EAF72095FC0133852323238781E090E0B1
:10232000DF91CF910895DC011D969C012D5E3F4FFA
:10233000FD014191461303C0EF0121971882E21776
:10234000F307B9F720E03D91332349F0EC01C20FC8
:10235000D11D4D853D87ED01219748832F5FAE1735
:10236000BF0789F7DBCF0B9628E0FC0111922A9575
:10237000E9F70895CF93DF93EC010E94B311CE01EA
:10238000DF91CF910C941811FC013D964396219159
:10239000261729F0E817F907D1F780E0089581E0C2
:1023A00008952091820330918303409184035091DA
:1023B00085036091860370918703809188039091D3
:1023C0008903A1E00E94DC362093820330938303CB
:1023D000409384035093850360938603709387032F
:1023E00080938803909389030E94E83629F461E082
:1023F0008AE893E00C94F41008958091BB03811156
:1024000013C01092C4031092C30388E594E0909324
:10241000C6038093C50389E190E09093C80380933D
:10242000C70381E08093BB030E941D3563EC73E01A
:102430000C948A34FC0130E020E041915191452B0D
:1024400041F4220F331F280F391FF9017183608374
:1024500008952F5F3F4F2430310579F7089528E024
:10246000FC0111922A95E9F70895CF93DF93EC01CF
:102470000E941D3528E030E0AE0164E0DF91CF918D
:102480000C94DA340F931F93CF93DF93EC018C01FC
:10249000085F1F4F48E050E0BC01C8010E942E3782
:1024A000892B51F0CE010E94351288E0FE01D8013F
:1024B00001900D928A95E1F7DF91CF911F910F91D5
:1024C000089528E0FC0111922A95E9F70C94421234
:1024D0000C9461128BEA93E00C94FD11809103043B
:1024E000811113C010920C0410920B0481E794E048
:1024F00090930E0480930D0481E490E09093100477
:1025000080930F0481E0809303040E941D356BE0EB
:1025100074E00C948A34CF93DF93EC010E941D3554
:10252000AE01435E5F4F2DE130E068E0DF91CF9177
:102530000C94DA34EF92FF920F931F93CF93DF93B3
:10254000EC01F8808D8D8E010F5F1F4F8F15D9F034
:10255000F801AE01435E5F4F20E0858D30813196FA
:10256000932F9095982319F08323848F21E0E4170B
:10257000F50799F7222319F0CE010E948B12FD8EE8
:10258000CE010E948B127E018EE1E80EF11C4CE11F
:1025900050E0B801C7010E942E37892B81F08CE1F1
:1025A000F801D70101900D928A95E1F7CE01DF91F4
:1025B000CF911F910F91FF90EF900C948B128FEFA2
:1025C0009FEFDF91CF911F910F91FF90EF900895B2
:1025D0006E3D90F4E62FE695E695E695E80FF92F27
:1025E000F11D677021E030E001C0220F6A95EAF723
:1025F0009181922381E009F480E008956E3DA0F47A
:10260000E62FE695E695E695E80FF92FF11D677040
:1026100021E030E001C0220F6A95EAF78181822B28
:10262000818381E090E00895605E683058F441E075
:1026300050E001C0440F6A95EAF7FC012081242B89
:102640002083EFCF90E080E008956E3DA8F4E62F60
:10265000E695E695E695E80FF92FF11D677021E004
:1026600030E001C0220F6A95EAF720958181282386
:10267000218381E090E00895605E683060F421E09D
:1026800030E001C0220F6A95EAF72095FC01308105
:1026900023232083EECF90E080E008952DE1FC011C
:1026A00011922A95E9F70895CF93DF93EC010E94E8
:1026B0004E13CE01DF91CF910C948B1289EC93E0F5
:1026C0000C946E1280911204811113C010921B049D
:1026D00010921A0482EB94E090931D0480931C04E2
:1026E00088E190E090931F0480931E0481E0809322
:1026F00012040E941D356AE174E00C948A340F9331
:102700001F93CF93DF93EB018A010E941D3598013F
:10271000AE0165E0DF91CF911F910F910C94DA34F7
:10272000CF93DF931F92CDB7DEB7198241E050E01F
:10273000BE016F5F7F4F0E947F130F90DF91CF919B
:1027400008950C9490130C949013CF93DF931F92E1
:10275000CDB7DEB76983633841F482E695E00E9425
:102760009F310F90DF91CF91089541E050E0BE017D
:102770006F5F7F4F0E947F13F4CF81E194E00C9450
:10278000621384E690E00C94E9044AE050E0682F7C
:1027900085E095E00E94BC2C0E94C11360E285E0B8
:1027A00095E00E94F72B0C94C113FF920F931F9397
:1027B000CF93DF93EC01F62E08811981C8010E94A6
:1027C0005637F81621F06F2DC8010E945E37CE01F2
:1027D000DF91CF911F910F91FF900895AF92BF921B
:1027E000CF92DF92EF92FF920F931F93CF93DF93DD
:1027F00000D0CDB7DEB78C016C0184E0C80ED11CCF
:102800005601F12CE12CC7010E945637F501819346
:102810005F01FFEFEF1AFF0A84E0E816F10499F771
:10282000F80185818F3FD1F48481982F9F779F375E
:1028300011F487FD148281E0F801858310E000E047
:102840001A830983F60161916F01CE0101960E94FE
:10285000D5130F5F1F4F0430110591F780E00F90E3
:102860000F90DF91CF911F910F91FF90EF90DF902C
:10287000CF90BF90AF9008950F931F93CF93DF93A6
:1028800000D0CDB7DEB77A836983FC01238110E0E5
:1028900000E021110FC000811181CB01800F911F39
:1028A0009183808342E0BE016F5F7F4F8AE294E0B4
:1028B0000E943916C8010F900F90DF91CF911F91A0
:1028C0000F910895CF92DF92EF92FF920F931F9393
:1028D000CF93DF9300D0CDB7DEB77C016C0184E0ED
:1028E000C80ED11C10E000E01A830983F601619143
:1028F0006F01CE0101960E94D5130F5F1F4F043068
:10290000110591F781E0F70182830F900F90DF911D
:10291000CF911F910F91FF90EF90DF90CF9008958E
:102920001F93CF93DF93EC01162F8091000168175E
:1029300048F4862F0E94F30A8C818078912F9F772C
:10294000892B8C831E3720F08C8180788E678C8356
:10295000CE010E9462148C818F77DF91CF911F91FD
:102960000895FC01948160FB97F99483892F8F77F8
:102970008F3719F490789E679483CF010C9462147A
:10298000CF93DF93EC0181E08B8360E18AE294E0F6
:102990000E9420168D81813021F01A82DF91CF9123
:1029A00008952E813F8180912A0490912B042F3F1E
:1029B000320769F49F838E83CE010E9462148C815A
:1029C0008F778E3758F7DF91CF910C94F30A281741
:1029D000390721F7F4CFFC012381211102C00E94A5
:1029E000C01480E0089584E090E0909323048093E5
:1029F0002204089585E095E00E94DF299C0181E092
:102A00002A30310529F02F3F3F4F11F080E0089523
:102A100008950F931F93CF93DF9300D0CDB7DEB708
:102A20008B0143EF54E081E394E00E94E2178111AF
:102A300033C063EE74E0C8010E941737892BF1F4AC
:102A40000E94FA1410E000E0811147C00E94FA14BD
:102A500081113BC041E070E060E085E095E00E94BC
:102A6000312D1A830983CE0101960E94D5130F5F81
:102A70001F4F011584E0180749F727C067ED74E080
:102A8000C8010E941737892B49F06AEC74E0C8012D
:102A90000E941737892B69F180E018C080912204C9
:102AA0009091230460E074E0681B790B4AE050E0E9
:102AB00085E095E00E94C32C0E94C11360E285E08E
:102AC00095E00E94F72B0E94C11381E00F900F90B8
:102AD000DF91CF911F910F910895C8010E94563741
:102AE0000E94C5130F5F1F4F011584E01807A9F757
:102AF000ECCF10E000E01A8309836FEFCE0101965E
:102B00000E94D5130F5F1F4F011584E0180799F736
:102B100087E797E7909301088093000888E19BE09E
:102B20000FB6F894A895809360000FBE9093600054
:102B3000FFCFCF93DF93EB0148E455E081E394E0CE
:102B40000E94E21781117AC049E050E06EE375E01F
:102B5000CE010E942037892B09F070C0299661E3CD
:102B600075E0CE010E941737892B81F40E94FA1478
:102B7000811160C041E070E060E085E095E00E9476
:102B8000312D82E294E00E94901440C06AE275E028
:102B9000CE010E941737892BE9F162E275E0CE0180
:102BA0000E941737892B71F16EE175E0CE010E940A
:102BB0001737892B09F042C080912504D0E0C0E08E
:102BC000882321F0C0912804D091290460912A041F
:102BD00070912B044AE050E085E095E00E94C32C00
:102BE0000E94C1136CE175E085E095E00E94D32B53
:102BF0000E94C1134AE050E0BE0185E095E00E94CA
:102C0000C32C15C0809127040E94C51381E0DF9179
:102C1000CF9108956091240481E394E00E942718E5
:102C20000E94C11360E285E095E00E94F72B0E94AC
:102C3000C113ECCF809126048F77E6CF80E0E7CFF9
:102C4000FC01208131812170332781E0861770F4E7
:102C5000408151815695479551834083220F331F00
:102C600041705527242B352B8F5FF0CF3183208384
:102C70000895DC01FB01415000F181912D913C91BF
:102C8000119768E070E051E0982F952399F4932F05
:102C9000991F9927991F220F331F992319F095E047
:102CA00029273058550F6150710971F711963C93DF
:102CB0002E93E1CF932F9095EBCF089584E690E08B
:102CC0000C94E9041F93CF93DF9390912E048917FE
:102CD00030F080E090E0DF91CF911F910895C62FF2
:102CE00020E4829FC0011124C80FD92FD11DCC0F21
:102CF000DD1F60912F0470913004C60FD71FCE01E5
:102D00000E945637182FCE0101960E945637912FF8
:102D1000E2CF90912D04891710F40C94AB0A891B13
:102D20000C94621682E294E00E94EE1380910001FE
:102D300080932D0480E008956DED75E085E095E0C9
:102D40000E94D32B0E945E166AE085E095E00E9407
:102D5000F72B0E945E1680E0089580932E0490E881
:102D6000899FB001112482E294E00E943C14909368
:102D7000300480932F0408958093000190912604DD
:102D800022E636E197FD07C090912D04980F9093AD
:102D9000000129E836E130930301209302010C94ED
:102DA000AD16FF920F931F93CF93DF9300D0CDB753
:102DB000DEB7F62E672F8C01000F111F80912F04B4
:102DC00090913004800F911F9A838983CE010196E0
:102DD0000E94D51380912F04909130040196800FAA
:102DE000911F9A8389836F2DCE0101960E94D5137E
:102DF0000F900F90DF91CF911F910F91FF90089549
:102E0000FF920F931F93CF93DF93F82E8B01C0E0B7
:102E1000CF15F9F0D0E06D2F8C2FF8010995692FAF
:102E200070E0762F6627680F711D4AE050E085E05C
:102E300095E00E94C32C0E945E1660E285E095E05A
:102E40000E94F72B0E945E16DF5FD03421F7CF5F20
:102E5000DFCFDF91CF911F910F91FF90089585E013
:102E600095E00E94DF299C0181E02A30310529F09C
:102E70002F3F3F4F11F080E0089508950F931F9367
:102E8000CF93DF931F92CDB7DEB78B014EEA55E0AB
:102E900081E394E00E94E21781118DC047E050E089
:102EA00066EA75E0C8010E942037892B09F083C0CB
:102EB000095F1F4F6BE975E0C8010E941737892B26
:102EC000E1F50E942F178823B1F06091260467FB7B
:102ED000662760F94AE050E085E095E00E94BC2C4E
:102EE0000E945E1660E285E095E00E94F72B0E944A
:102EF0005E1681E061C041E070E060E085E095E051
:102F00000E94312D162F698382E294E00E94B11451
:102F100090912E0490930001112339F082E696E1FE
:102F20009093030180930201E4CF80912D04890FD7
:102F30008093000189E896E1F3CF63E975E0C80169
:102F40000E941737892B39F46BEA7AE080912D04BF
:102F50000E940017CECF6CE875E0C8010E941737B9
:102F6000892B49F50E942F1710E000E0882329F0F3
:102F700062E676E180912E04EBCF0E942F1781113B
:102F8000B8CF80912E0420E4829FC001112408173D
:102F9000190708F0AECF41E070E060E085E095E011
:102FA0000E94312D272F3327722FC8010E94D1167E
:102FB0000F5F1F4FE2CF80E00F90DF91CF911F9105
:102FC0000F910895CF93DF93CB01EA0164E276E09D
:102FD0000E941737892B49F4BE0185E095E00E94D5
:102FE000022C81E0DF91CF91089580E0FBCFCF9359
:102FF000DF93EB014AE056E00E94E217811125C001
:103000006DEF75E0CE010E941737892B89F487E7B1
:1030100097E7909301088093000888E19BE00FB642
:10302000F894A895809360000FBE90936000FFCF46
:1030300065EF75E0CE010E941737892B31F40E94AD
:10304000EE0581E0DF91CF91089580E0FBCF611123
:1030500006C06AEE75E085E095E00C94D32B60EF36
:1030600075E0F9CF109251040895CF93DF93EC01EE
:1030700085E095E00E94F52985E095E00E94F82919
:10308000892B09F45BC085E095E00E94082AE8A13D
:1030900091E09E0F98A3EC0FFD2FF11D8083FE01A0
:1030A000E90FF11D31978081803271F0903260F428
:1030B00085E095E00E94F829892B31F085E095E0C4
:1030C0000E94DF290A97F9F68881811107C018A2AA
:1030D00080E2FE0111928A95E9F730C0E8A1EC0F79
:1030E000FD2FF11D319780818032F9F4E8A1E15084
:1030F000FF0BEC0FFD1F8081803209F41082CE019E
:103100000E94580785E095E00E94F829892B31F04C
:1031100085E095E00E94082A8A30A1F769E276E00E
:1031200085E095E00E94022CD2CF85E095E00E94D8
:10313000DF290A97D9F288A18032C0F680E0DF91BA
:10314000CF9108956DE276E085E095E00E94D32B63
:1031500084E690E00E94E9046AE085E095E00E9440
:10316000F72B84E690E00E94E90480E00895CF9375
:10317000DF9300D000D000D0CDB7DEB781E396E07A
:103180000E948F35E5E4F6E0108A868597852485D0
:10319000358519823B832A839D838C831E8202841A
:1031A000F385E02D0190F081E02D46E050E0BE0176
:1031B0006F5F7F4F8FE496E0099580E026960FB60B
:1031C000F894DEBF0FBECDBFDF91CF910895FC0113
:1031D000703579F4862F8076803429F49085862F97
:1031E0008F7B892B8087862F807729F48781682BB6
:1031F000678380E008958031E1F780E1689FB00146
:103200001124F4CFCF93DF93EC0181E396E00E9489
:103210005235688581E396E00E94583581E396E057
:10322000DF91CF910C946A35FB01928196FB2227A6
:1032300020F980E090FD82E0822B20E091FD24E0E7
:10324000822B20E092FD28E0822B93FD04C090E0C9
:10325000892B0C945F1A90E1FBCFFB012381203571
:1032600059F4DC0117961C9217972281322F307681
:10327000303421F418961C9280E0089525FFFCCF8D
:10328000218121FFF9CF20FDF7CF0E941419F4CF3F
:1032900020911A0230911B02FC0131832083968118
:1032A000892F8F7019F410925D0408958091130195
:1032B000819592FF80E093FF03C020911301820F5C
:1032C00060911301619590FF60E091FF03C09091C0
:1032D0001301690F0E94011B81E396E00C946A358B
:1032E0000F9320911A0230911B02FC013583248335
:1032F000868190E024E0959587952A95E1F70097DF
:10330000F1F000910D01019582FF00E083FF03C001
:1033100020910D01020F20910D0180FF20E081FF1F
:1033200003C080910D01281B40E060E081E396E03E
:103330000E944A3581E396E00F910C946A350F9113
:103340000895CF93DF93EC0180911A0290911B02B4
:103350002A813B81AC01421B530B9A0140910E0123
:1033600050910F012417350780F09B838A832091A9
:103370005D04309110014FEF50E0431B51092417B9
:1033800015061CF4230F20935D0428813981821BCC
:10339000930B20911101309112018217930718F0BD
:1033A000CE010E94481980911A0290911B022C8133
:1033B0003D81821B930B20910B0130910C018217F0
:1033C000930718F0CE010E94701980E0DF91CF9131
:1033D00008950F931F93CF93DF93FB012381203533
:1033E000C9F48B01EC0182818076803419F4CE011E
:1033F0000E9402198F818E831F82F801828180775B
:1034000079F480911A0290911B029B838A83CE01EA
:103410000E94481980E0DF91CF911F910F9108958C
:103420008031C1F7CE010E947019F4CFCF93DF93A2
:1034300000D000D000D0CDB7DEB736952795820FEB
:10344000931F56954795640F751FE5E4F6E0958741
:10345000848777876687208929839B838A837D83F6
:103460006C831E820284F385E02D0190F081E02DB3
:1034700046E050E0BE016F5F7F4F8FE496E0099514
:1034800026960FB6F894DEBF0FBECDBFDF91CF9169
:1034900008951092600410925F04109262041092DA
:1034A00061048FEF9FE79093660480936504909387
:1034B00064048093630481E080935E0408950F9315
:1034C0001F93CF93C82F80915E04811102C00E9488
:1034D000491AC0FF06C010925E04CF911F910F9150
:1034E0000895E09115010E2F10E0809165049091F0
:1034F0006604B8010E946A369B017093660460936B
:1035000065048091630490916404B8010E946A3656
:10351000AB0170936404609363046C2F6470E0915A
:103520006104F091620480915F04909160047C2FAB
:103530007670763091F4820F931F9093600480939D
:103540005F04BA016E0F7F1F709362046093610481
:10355000CF911F910F910C94161A662349F1D8014F
:103560001197A49FB001A59F700DB49F700D1124F9
:10357000E60FF71FF0936204E0936104C4FF1DC0DF
:1035800001501109029FB001039F700D129F700D31
:103590001124860F971F9093600480935F046091BD
:1035A00061047091620480915F0490916004D0CFB7
:1035B000C1FDE4CFE40FF51FDDCFC3FDF0CF820FD7
:1035C000931FE9CF482F50E087FD0AC0889FC001B4
:1035D0001124880F892F881F990B91958F5F08956B
:1035E00020E031E0241B350B229FC001239F900D6A
:1035F000900D1124880F892F881F990B9195809524
:103600000895EF92FF920F931F93CF93DF93082FAC
:10361000162FC0911401D0E0F12CE12C8823D1F0B9
:1036200080915D040E94E21A20915C04382F03030C
:10363000C0011124820F911D27FD9A957E01C817A4
:10364000D90744F0EE24FF24EC1AFD0AE816F90627
:103650000CF47C01112309F449C080915D040E949F
:10366000E21A20915B04382F1303C0011124820F4A
:10367000911D27FD9A95C817D9073CF0D195C195A2
:10368000D109C817D9070CF4EC0110925E04AE0101
:10369000D7FF02C0415F5F4F94E0559547959A95DB
:1036A000E1F7B701F7FE02C0615F7F4F84E07595D7
:1036B00067958A95E1F700E020E081E396E00E94BB
:1036C0004A3520E130E0C701B9010E947E3680937F
:1036D0005C04CE01B9010E947E3680935B04DF91C9
:1036E000CF911F910F91FF90EF900895D0E0C0E02F
:1036F000CCCFFC0184913196949108958F929F9242
:10370000AF92BF92FF920F931F93CF93DF93EB0182
:10371000209709F4A4C0F12C8E010F5F1F4FFE010A
:103720008491EFEFE80FED3008F099C0F0E0E55636
:10373000F44E0C94B436D81BE41BED1BFA1B071C8B
:10374000141C1D1C261CDC1BDC1BDC1BA81BC31B48
:103750008F2C912CB12CA12CB801F80184916F5FB2
:103760007F4F0E5F1F4FFB016491611102C08823E0
:1037700019F1782F88E694E00E94901DC501B401EC
:103780000E94B004E9CF8F2C912CB12CA12C0F5F9B
:103790001F4FF80131976491662371F070E088E65D
:1037A00094E00E94901DC501B4010E94B004EFCFC7
:1037B0002296F801F4908E016F2D70E090E080E089
:1037C0000E94B004E801A8CF2296F801649170E04D
:1037D00090E080E00E94B004EECFF80174918E0179
:1037E0000D5F1F4FFE013296649188E694E00E94BF
:1037F000EC1CE2CFF80174918E010D5F1F4FFE01AA
:103800003296649188E694E00E94271DD5CFF80196
:1038100074918E010D5F1F4FFE013296649188E610
:1038200094E00E94901DC8CF2296F801649170E048
:1038300088E694E00E94EC1CBECF2296F8016491C9
:1038400070E088E694E00E94271DB5CF2296F8012B
:10385000649170E088E694E00E94901DACCFDF9107
:10386000CF911F910F91FF90BF90AF909F908F903D
:103870000895862F90E06134E0F46A33B0F5603249
:1038800069F170F46A3039F130F482E2683050F551
:1038900090E080E008956B31D9F790E089E20895D7
:1038A0006133F8F4880F991F84509A4F0E94791B56
:1038B0000895613638F46B35E8F0880F991F8A5403
:1038C0009A4FF4CF6B37D0F06F3710F7880F991FEE
:1038D0008E579A4FEBCF90E088E2089590E08CE20B
:1038E00008958DEE860F90E00895880F991F8651F8
:1038F0009A4FDCCF83EC860F98E0089583EAF2CFED
:103900000F931F93CF93DF938C01EB01FE01649122
:10391000662371F0C8010E94391C811102C09923ED
:1039200029F0BC0188E694E00E94901D2196EECF1C
:1039300090E080E0DF91CF911F910F9108950F9358
:103940001F93CF93DF93EB012B8130E0322F22279F
:103950004A8150E0BA017056260F371F2F3F3105BC
:1039600009F0F8F48C01BE01842F0E94B405BC015B
:10397000C8010E947E1B898180FF02C081FF0DC0AB
:103980008A8190E090562B8130E0322F2227820FDF
:10399000931F8F3F910529F020F088E694E00E9464
:1039A0004F1D80E0DF91CF911F910F91089567E344
:1039B00076E085E095E00E94D32B84E690E00E94BB
:1039C000E9046AE085E095E00E94F72B84E690E048
:1039D0000E94E90480E00895EF92FF920F931F93F5
:1039E000CF93DF9300D000D01F92CDB7DEB78C010C
:1039F000F62EE72E60916C058FEF898382E88A832B
:103A0000FB827C836D832FEF32E84F2D572F89E1A6
:103A100092E00E949309C8014096F801E817F9075F
:103A200041F02081211111C0218121110EC0F082AD
:103A3000E1820F900F900F900F900F90DF91CF9138
:103A40001F910F91FF90EF9008953296E7CFCF939B
:103A5000DF9300D000D01F92CDB7DEB7AB019C0141
:103A6000205F3F4FFC012E173F0751F080818413E8
:103A700005C08181851302C0108211823296F3CF76
:103A800060916C052FEF31E889E192E00F900F9083
:103A90000F900F900F90DF91CF910C949309CF92DC
:103AA000DF92EF92FF920F931F93CF93DF9300D09B
:103AB00000D01F92CDB7DEB77C0120E1E20EF11CF1
:103AC0008C01DD24DA9481E8C82EE016F106D1F0ED
:103AD000F80140815181411102C0552381F060916C
:103AE0006C05D982CA824B835C836D832FEF31E8EA
:103AF00089E192E00E949309F801108211820E5F21
:103B00001F4FE3CF0F900F900F900F900F90DF910A
:103B1000CF911F910F91FF90EF90DF90CF9008957C
:103B20000F931F93CF93DF9300D000D01F92CDB798
:103B3000DEB78B0160916C052FEF32E8A80189E1B7
:103B400092E00E94930960916C052FEF31E8A80183
:103B500089E192E00F900F900F900F900F90DF91FE
:103B6000CF911F910F910C9493090F931F93CF93B3
:103B7000DF938C01005F1F4FEC010C171D0771F0E4
:103B80006881798189819881911102C0882321F00F
:103B900089E192E00E947D082296EFCF80E0DF91DC
:103BA000CF911F910F9108950C9456378F929F9249
:103BB000AF92BF92CF92DF92EF92FF920F931F933B
:103BC000CF93DF938C01FC01E080F1801582148299
:103BD000C280D380CE0CDF1C4701B12C8C149D0415
:103BE00008F04BC0E4012196C4010E94D41D8E3020
:103BF00008F043C0E82FF0E0E050F24E0C94B436E9
:103C00002F1E0E1E0E1E121E121E121E0E1E0E1E27
:103C10000E1E101E101E101E151E241EE4012296DC
:103C20004E01DCCFE4012396FBCF4E01CE010E9472
:103C3000D41DA82E2296C40101960E94D41DA11065
:103C4000F4CF8111F2CFECCF2C2F9D2F2196822F14
:103C50000E94D41D2C2F9D2F8111F8CFE1CFB3945A
:103C6000EB2DF0E03296EE0FFF1FE00FF11FCE01BB
:103C70008E199F0991838083D3CF8B2DDF91CF91B4
:103C80001F910F91FF90EF90DF90CF90BF90AF907A
:103C90009F908F9008958F929F92AF92BF92CF92F4
:103CA000DF92EF92FF920F931F93CF93DF93FC016C
:103CB000EC5BFF4F2081621708F0DFC07C01E62F2C
:103CC000F0E03296EE0FFF1FEE0DFF1DD7010D91B4
:103CD0001C9180819181080F191FD12CF7018081DF
:103CE000918122813381820F931F0817190708F0F1
:103CF000C4C0E8012196C8010E94D41D81508D30B6
:103D000008F0BBC0E82FF0E0E857F14E0C94B43651
:103D1000B41EC31ECF1EE01EF11E021F0E1F1A1F6F
:103D2000BB1EBB1EBB1E951E261F8D2C912CB12CBD
:103D3000A12CCE010E94D41DC82E8E010E5F1F4FF4
:103D4000CE0101960E94D41D811102C0CC2091F0B9
:103D5000682F7C2D88E694E00E94901DC501B40177
:103D60000E94B004E801E5CF0E5F1F4FCE010E9414
:103D7000D41DD82EE8016D2D70E090E080E00E9407
:103D8000B0048E01ABCF0E5F1F4FCE010E94D41D39
:103D9000682F70E090E080E00E94B004EBCFCE018D
:103DA0000E94D41DC82EE8012396C80102960E94E5
:103DB000D41D682F7C2D88E694E00E94EC1CDBCF9C
:103DC000CE010E94D41DC82EE8012396C801029698
:103DD0000E94D41D682F7C2D88E694E00E94271D48
:103DE000CACFCE010E94D41DC82EE8012396C80177
:103DF00002960E94D41D682F7C2D88E694E00E94D4
:103E0000901DB9CF0E5F1F4FCE010E94D41D682FA9
:103E100070E088E694E00E94EC1CACCF0E5F1F4F70
:103E2000CE010E94D41D682F70E088E694E00E94C5
:103E3000271DA0CF0E5F1F4FCE010E94D41D682FFB
:103E400070E088E694E00E94901D94CFCE018D2C06
:103E5000912CB12CA12C21960E94D41D882309F409
:103E60008ACF682F70E088E694E00E94901DC5011B
:103E7000B4010E94B004CE01EECFDF91CF911F912B
:103E80000F91FF90EF90DF90CF90BF90AF909F90F9
:103E90008F900895292F30E0322F222790E08C5503
:103EA000914D280F391F81E02032310508F080E064
:103EB00008950F931F93CF93DF938C01EB018A81B9
:103EC0009B810E944A1F8823A9F0898181FF0DC030
:103ED00080FD0BC06A816C55C8010E944B1E81E0B9
:103EE000DF91CF911F910F91089588E694E00E9491
:103EF0004F1DF5CF80E0F4CF6EEA76E085E095E0E7
:103F00000E94D32B84E690E00E94E9046AE085E0F9
:103F100095E00E94F72B84E690E00E94E90480E09F
:103F200008950F931F93CF93DF93EC018B0182E2EF
:103F300094E00E943C14998388831B830A83CE01FA
:103F40000E94D61DCC5BDF4F8883DF91CF911F91FC
:103F50000F910895BF92CF92DF92EF92FF920F934D
:103F60001F93CF93DF93EC018B0144E956E081E38B
:103F700094E00E94E217811186C047E050E06CE8AF
:103F800076E0C8010E942037892B09F07CC0095FC8
:103F90001F4F68E876E0C8010E941737892B09F0A7
:103FA0005FC085E095E00E94DF29F12CE12C8A308A
:103FB000910511F0019621F58A819B81E816F90699
:103FC00008F04EC0888199818E0D9F1D0E94D41DDE
:103FD0004AE050E0682F85E095E00E94BC2C84E622
:103FE00090E00E94E90460E285E095E00E94F72BF2
:103FF00084E690E00E94E9048FEFE81AF80ADCCF2B
:1040000085E095E00E94DF298A30910511F1019643
:1040100001F18A819B81E816F906D8F441E070E04D
:1040200060E085E095E00E94312DB62E67018FEFAC
:10403000C81AD80A88819981E80EF91EC7010E9422
:104040005637B81621F06B2DC7010E945E377601F6
:10405000D7CFCE010E94D61DFE01EC5BFF4F8083BF
:1040600060E876E0C8010E941737892B51F441E0DF
:1040700070E060E085E095E00E94312DCE010E9465
:104080004B1E81E001C080E0DF91CF911F910F9125
:10409000FF90EF90DF90CF90BF90089580E008955B
:1040A000EF92FF921F93CF93DF93809107010E94BD
:1040B000600C8FE1E82E82E0F82EC0E0E091020172
:1040C000F09103016C2FD7018D917D010995182F77
:1040D000D92FE0910201F09103016C2F8091BF0470
:1040E00009952091BF04211304C0D43411F4C09366
:1040F00016011817F1F080918A0290918B020097B7
:1041000051F5CF5FC034D1F680911601803460F54F
:1041100040E06FEF809117010E943332AB01682FAE
:1041200080911601DF91CF911F91FF90EF900C9439
:10413000E50BD913E0CF111102C0DD23E1F2D1115B
:10414000DACF409118015091190160911A018C2F1A
:104150000E94E50BD6CFDC01ED91FC910680F78142
:10416000E02D6C2F0995CDCFDF91CF911F91FF905E
:10417000EF900895CF93DF93EC018091BF040E94EC
:10418000010B9091BE0481110CC0992331F08091F4
:1041900007010E94600C1092BE0480E0DF91CF9175
:1041A0000895911103C081E08093BE04CE010E9466
:1041B0005020F3CF0F931F93CF93809120010FE1F5
:1041C00012E0C0E0803448F48093210181E08093C4
:1041D000C30416C0CF5FC034C9F3E0910201F0916F
:1041E00003016C2FD8018D918D01099520911E013D
:1041F0002813F0CF80911F018913ECCFC0932101C8
:10420000CF911F910F9108950E94DA2080E00895C8
:104210008091C304811123C080911A0290911B02E6
:104220002091C1043091C204821B930B20911B0189
:1042300030911C0182179307A0F081E08093C304A2
:104240006091210180918A0290918B02009739F050
:10425000DC01ED91FC910680F781E02D099580E06D
:10426000089540E06FEF80911D010E943332AB0151
:10427000682F809121010E94E50BF1CFDC0112969D
:10428000ED91FC914281618180810C94BD0C262FBF
:10429000DC011296ED91FC91428151816081822F67
:1042A0000C94E50B08950895FC01248130911A02C5
:1042B000321B323360F02E5C24830280F381E02DC8
:1042C00040E0618180810E9433320C94370C089564
:1042D0001F93CF93DF93EC01EA81FB812E813F8115
:1042E000418150E080911A0290911B02821B930B36
:1042F0008417950708F43EC0240F351F3F832E8393
:104300008C812D819081182F299F1019112440E054
:1043100050E060E00E94E30B0E942B0C103430F45C
:1043200040E050E060E0812F0E94E30B8C819D8192
:10433000890F8C830E942B0C8C819D81190F8034F6
:1043400030F0292F21952D83891B8C8310E440E0C8
:1043500050E06FEF8C810E94E30B0E942B0C103415
:1043600048F44FEF50E060E0812FDF91CF911F9133
:104370000C94E30BDF91CF911F910895CF93DF93BE
:10438000EC01EA81FB8190812F8180911A02821BCE
:10439000891700F1920F9F83418150E0688570E09A
:1043A0008C819D810E94C1319B01482F8E816C813F
:1043B0007D81860F972F911D8F3F910540F49D833E
:1043C0008C83842FB901DF91CF910C94370C8F5FD0
:1043D0009109F5CFDF91CF9108951F93CF93DF938C
:1043E000EC01EA81FB8180812F8190911A02921B5E
:1043F0009817B8F1820F8F8380917E02811105C0DA
:104400001092860281E080937E0210E02C813D8133
:104410001034F1F0912F9695969540E1949FC0014C
:104420001124820F931F8F3F910518F08F5F910920
:10443000FACFEA81FB81418150E0688570E00E94FB
:10444000C131AB01682F812F0E94E30B1F5FDECFCC
:104450008E81820F932F911D8F3F910530F49D83A4
:104460008C83DF91CF911F9108958F5F9109F7CFD2
:10447000FC0161830895FC01618308954AE050E0E6
:10448000682F85E095E00E94BC2C84E690E00E94B5
:10449000E90460E285E095E00E94F72B84E690E075
:1044A0000C94E90480910601882391F060E070E0AB
:1044B00080E00E94370C80918A0290918B020097D5
:1044C00039F0DC01ED91FC910280F381E02D09943B
:1044D0000895CF93C82F8091C5049091C604892B6D
:1044E00051F460E370E082E294E00E943C14909307
:1044F000C6048093C50480E2C89FB001112482E203
:1045000094E0CF910C943C14CF93DF93EB019B018B
:1045100036952795820F931F0E945637C0FF04C01F
:104520008F70DF91CF9108958295FACFEF92FF922D
:104530000F931F93CF93DF9300D01F92CDB7DEB7B9
:104540000091C5041091C60493E0899F000D111DD0
:104550001124C8010E945637F82EC80101960E9406
:104560005637E82EC80102960E94563780958B83F5
:10457000E094EA82F094F98269817A818B810F90CC
:104580000F900F90DF91CF911F910F91FF90EF90BF
:1045900008950E9484220C9496220F931F93CF9328
:1045A000DF9320E2629F80011124080F191FD0E0E1
:1045B000C0E0BE01C8010E94C922AB01682F8C2F48
:1045C0000E94E30B2196C034D10599F7DF91CF917A
:1045D0001F910F910895CF93C42F20E2629FB001E5
:1045E0001124860F971F6FEF403428F4E42FF0E07A
:1045F000E752FD4F649170E00E94C922AB01682F21
:104600008C2FCF910C94E50BEF92FF920F931F9399
:10461000CF93DF9300D000D01F92CDB7DEB74B838E
:104620005C836D83FD80F094EC80E0946B816095F9
:104630000091C5041091C60493E0899F000D111DDF
:1046400011241A830983CE0101960E94D513C80153
:1046500001969A8389836E2DCE0101960E94D5130F
:104660000E5F1F4F1A8309836F2DCE0101960E94A2
:10467000D5130F900F900F900F900F90DF91CF9167
:104680001F910F91FF90EF90089585E095E00E94B3
:10469000DF299C0181E02A30310529F02F3F3F4F6F
:1046A00011F080E0089508951F93CF93DF93EB01FD
:1046B0004CEB56E081E394E00E94E217811145C083
:1046C0006CEB76E0CE010E941737892BF1F50E9442
:1046D0004523C0E0882391F08C2F0E949622D62F8C
:1046E000172F0E943E22812F0E943E228D2F0E9472
:1046F0003E22CF5FC03181F781E028C00E94452370
:10470000811120C041E070E060E085E095E00E940A
:10471000312DD62F41E070E060E085E095E00E9409
:10472000312D162F41E070E060E085E095E00E94B9
:10473000312D462F512F6D2F8C2F0E940423CF5FD8
:10474000C031E1F60E945222D7CF80E0DF91CF91B5
:104750001F9108958F929F92AF92BF92CF92DF9256
:10476000EF92FF920F931F93CF93DF9300D0CDB7BB
:10477000DEB77B014A01590181E394E00E94E21710
:10478000811163C0B401C7010E941737892B09F05A
:104790005CC080E2089F600111240E944523F12C37
:1047A000E12C882341F1EC14FD0409F44CC0C7014D
:1047B0008A0D9B1D0E945637082F10E082958F703E
:1047C0000E943E22B8016F704AE050E085E095E01B
:1047D0000E94A82C84E690E00E94E90460E285E053
:1047E00095E00E94F72B84E690E00E94E9048FEFA9
:1047F000E81AF80AD8CF0E944523811122C0EC1490
:10480000FD04F9F041E070E060E085E095E00E9491
:10481000312D162F41E070E060E085E095E00E94C8
:10482000312DC7018A0D9B1D9A8389831295107FB4
:10483000610FCE0101960E94D5138FEFE81AF80A96
:10484000DACF0E94522281E001C080E00F900F90E9
:10485000DF91CF911F910F91FF90EF90DF90CF905C
:10486000BF90AF909F908F900895E0910401F0E089
:10487000E25AFD4F60816093C7048091C804861797
:1048800030F08091C9049091CA040C94CD2208950F
:10489000462F6091C7049091C804961730F080911C
:1048A000C9049091CA040C94EB2208958091C90424
:1048B0009091CA04892B49F4862F6093C8040E9402
:1048C00069229093CA048093C904089561ED76E04B
:1048D00085E095E00E94D32B84E690E00E94E904F5
:1048E0006AE085E095E00E94F72B84E690E00E9464
:1048F000E90480E00895FC019081809107019813FC
:1049000006C080918A0290918B020E94352480E03B
:1049100008950F932091C9043091CA040091C804EE
:1049200044EC56E084EC94E00E94AA230F91089591
:104930008AE893E00E941211811104C08AE893E092
:104940000C94181189EC93E00E949A128BEA93E080
:104950000C944212803438F4E82FF0E0E752FD4F17
:1049600084910C94C40D8FEFFCCF8AE893E00E94F1
:104970001211811104C08AE893E00C94B31189EC00
:1049800093E00E944E138BEA93E00C942F128093D5
:10499000CB0408950E94480E8091CB0481500E9460
:1049A000030F8823B9F38091CB0481500E94240F18
:1049B0008111F0CF08950E94370C0E94F00B0C94E7
:1049C000CA24CF92DF92EF92CF93DF93C09045013C
:1049D000D0904601E0904701DEEFC0E04FEF50E09D
:1049E0006FEF70E08C2F90E00E94C131CF5FCF3F1E
:1049F00009F4C0E00E94370C0E94F00BD15071F70F
:104A00008E2DB6010E94DB246FEF70E080E00E94E3
:104A1000DB2460E07FEF80E00E94DB2460E070E058
:104A20008FEFDF91CF91EF90DF90CF900C94DB244C
:104A3000CF93DF93CDB7DEB7C054D1090FB6F8944A
:104A4000DEBF0FBECDBFCE0101966C0180E4F60142
:104A500011928A95E9F76090480170904901809021
:104A60004A010E94480E10E000E0F02E00341105CB
:104A700009F454C0802F0E94030F8823A1F0802FD7
:104A80000E94240F81110FC0F601E00FF11F8081F9
:104A900082608083883720F1F601E00FF11F80816A
:104AA0008370808309C0F601E00FF11F8081982F89
:104AB000969596959E31B8F08F2D0E94030F811127
:104AC00018C0F601E00FF11F808180FF1BC040E09D
:104AD00050E069EC8F2D0E94AA240F5F1F4FC5CFB5
:104AE00081608083D9CF9F5F990F990F8370892B45
:104AF000D8CF8F2D0E94240F40E059EC882309F372
:104B000060E0E8CF682DA30181FFE4CF8F2D0E94E4
:104B1000030F8111E2CF49EC50E0F2CF0E94F00B7D
:104B2000A0CF0E94B5240E9498240E94660F0E9484
:104B3000E1240E94182580912B019091670590FF38
:104B400012C081110BC08091CD04811109C081E098
:104B50008093CD0490E080E00E94EC0580E0089511
:104B600081E090E0F9CF811110922B018091CD046A
:104B70008823A1F31092CD0482E090E0EDCF60EEA7
:104B800076E085E095E00E94D32B84E690E00E94D9
:104B9000E9046AE085E095E00E94F72B84E690E066
:104BA0000E94E90480E008958F929F92AF92BF9295
:104BB000CF92DF92EF92FF920F931F93CF93DF93E9
:104BC0006C0110E000915A01101708F04AC088E00B
:104BD000189FE0011124F12CE12CFE01EC51FF4F54
:104BE0005F018E2CF501EE0DFF1D84918823B1F13C
:104BF00081500E94030F982E882349F0FFEFEF1A8F
:104C0000FF0A85E0E816F10461F785E0882E0E942E
:104C1000450F881221C09920F9F080911A029091D5
:104C20001B02F60120813181821B930B2091300100
:104C3000309131018217930778F0FE01EE51FF4F5A
:104C400025913491812FF901099580911A02909153
:104C50001B02F601918380831F5FB6CF9924939442
:104C6000D6CF80E0DF91CF911F910F91FF90EF9011
:104C7000DF90CF90BF90AF909F908F9008956BEE94
:104C800076E085E095E00E94D32B84E690E00E94D8
:104C9000E9046AE085E095E00E94F72B84E690E065
:104CA0000E94E90480E00895FC01872F90E0982F8E
:104CB0008827680F792F711D613180EC7807E0F04B
:104CC000623188EC780750F46151704C66A717A6E2
:104CD00011AA80EE870F80AB81E00895633180EDEB
:104CE000780750F46251784C66A717A68AE2870FBE
:104CF00080AB84E481ABF0CF80E008958F929F92E7
:104D0000AF92BF92CF92DF92EF92FF920F931F93D9
:104D1000CF93DF9300D000D0CDB7DEB78C01F62E55
:104D20002FE3261708F469C0E62FF0E0EE0FFF1F0F
:104D3000E359FA4FD080E1808FEFD8120FC0E8120C
:104D40000DC0AF2DB0E0A15EBD4FE0910201F0912A
:104D500003016F2D8C910995D82EE92E6D2D7E2D96
:104D6000C8010E945426B82E811135C0EF2DF0E005
:104D7000E15EFD4F8080C12CAA24AA94912CF801F9
:104D80008281C81608F042C0F4E0CF9EC001112411
:104D9000F80160817181680F791FAA8244E050E0B8
:104DA000CE0101960E940E3789819A813B812C8128
:104DB000F9122AC0482F082E000C550B481559052A
:104DC00011F08F3F09F5F801D6A6E7A6C90190AB0F
:104DD00021ABBB24B3948B2D0F900F900F900F90AD
:104DE000DF91CF911F910F91FF90EF90DF90CF90C7
:104DF000BF90AF909F908F9008951092ED05109204
:104E0000EE05EDEEF5E096CFC394B9CFD6A6E7A6B2
:104E10008FEF80AB81ABDFCFCF93DF93FC01EB0152
:104E20009A01261B370BA4E6B0E00E94C23626A1E9
:104E300030E050E040E00E94923680911A0290915A
:104E40001B02BC016C1B7D0B81E06217730708F02D
:104E500080E0DF91CF910895292F207C39F490E2F2
:104E6000980F81E0983048F080E007C09434E1F773
:104E700096ED980F81E09A32B8F70895CF93DF93BB
:104E8000EC018881681780F5882371F1815088834F
:104E9000E62FF0E0DF011196AC0FBD1FEE0FFF1FF4
:104EA0007196EC0FFD1F962F981780F411962C9198
:104EB00011972D9318962C91189717962C93179756
:104EC00022813381219331939F5FEECF2FEF30E02A
:104ED00001C0220F6A95EAF789A1922F9095982335
:104EE00086958223892B89A3DF91CF910895CF9353
:104EF000DF9300D000D01F92CDB7DEB7FC01348520
:104F000084A1982F917080FD28C082E0248139838C
:104F10008A836B837C832D8391110AC0872F90E055
:104F2000982F8827680F792F711D64307105F0F470
:104F300060E0CF0103960E943E2729813A814B8190
:104F40005C816D8189E192E00F900F900F900F903E
:104F50000F90DF91CF910C94470A81E0D7CF6D324B
:104F6000710530F36933710518F703C068327105B4
:104F7000B0F78489958994A783A7DACFCF93DF937D
:104F8000FC017381DC011D9681E090E060E08717F1
:104F9000F0F452A94D9124A130E0082E02C03595BD
:104FA00027950A94E2F720FD0DC0541721F080E008
:104FB000DF91CF9108952489358934AB23AB682FD5
:104FC0000196E5CF5413FCCF8FEF82ABF0CF8091E9
:104FD0001A0290911B0223A934A9821B930B25A9C5
:104FE0002817190609F068F48FEF82AB6623F9F2EF
:104FF000EF012396CE010E943E2760E0CE010E9481
:105000003E2781E0D5CF7F928F929F92AF92BF9241
:10501000CF92DF92EF92FF920F931F93CF93DF9384
:10502000EC019B81911110C0F12C8F2DDF91CF915C
:105030001F910F91FF90EF90DF90CF90BF90AF90B6
:105040009F908F907F9008959C848CA180FF13C0C7
:10505000983041F460E070E0CE010E947727FF2491
:10506000F394E3CF8AA99812F5CFCE010E94BE2710
:105070008111DACFEFCF692DCE010E947E268823E1
:1050800009F470C0FDA0FF2009F46CC00EA51FA597
:10509000C8010E942C27882E80911A0290911B0231
:1050A0002BA53CA5821B930B2AA52817190609F0EE
:1050B00010F57B80A0901A02B0901B026E0101E0F7
:1050C00010E0E12C202F071508F065C08CA190E0BE
:1050D000002E02C0959587950A94E2F780FD12C0D4
:1050E000811040C0EE2009F454C07FEFC71AD70AE0
:1050F0000F5F1F4FE7CF8110DCCFB801CE010E94B8
:105100007727D7CFF6019585FE013D9681E099126C
:105110002DC0EE2019F08EA1811110C0882059F009
:1051200068A979A99AAA8C899D899CAB8BABCE0181
:105130000E9477277ACF6EA57FA5F4CFF801EE0FF6
:10514000FF1FEC0FFD1F44895589EE2DF0E0EE0F97
:10515000FF1FEC0FFD1F64897589CE010E940C278B
:105160008111C3CF6EA57FA577CF8F5F821708F01F
:10517000BCCF31913913F9CF4C895D89B501641BDE
:10518000750B39A53617170609F078F768A979A9BC
:10519000CECFE02EAACF88E0781246CFE3CF0F9390
:1051A0001F93CF93DF93EC01FB0124818DA5922FF8
:1051B000981B19162CF08B8181111CC080E025C032
:1051C0002DA780818034D0F7818187FDF7CF8B01B7
:1051D0008DA181111FC062817381CE010E9454266E
:1051E000882361F38EA59FA5D80113969C938E9377
:1051F0001297E4CF022E000C330B8C81281B31094F
:1052000087FD339537FDDACF82E0DF91CF911F9193
:105210000F9108952B81822F90E03481FE01E80FD9
:10522000F91F3483DB013C913487880F991FFE01FD
:10523000E80FF91F80911A0290911B02958B848BC5
:1052400011964C913CA181E090E0A0E0B0E0022EEC
:1052500004C0880F991FAA1FBB1F0A94D2F740FFF2
:105260000CC041FD0AC0832B8CA32F5F2B83CE0182
:105270000E9403288111FBCFC7CF80958323F4CFF1
:105280000F931F93CF93DF93EC0120911A0230917B
:105290001B028AA590E04BA55CA5B901641B750BA8
:1052A0006817790738F0A90141505109481B590B7B
:1052B0005CA74BA78B818823D9F08C899D89281BFB
:1052C000390B8FA198A52817390768F00EA51FA5DF
:1052D000C8010E942C27B801811102C068A979A9D0
:1052E000CE010E947727CE010E9403288111FBCFB7
:1052F00080E0DF91CF911F910F910895CF93DF93BD
:10530000CEECD4E0198218821A821B8288E0EBE48A
:10531000F1E0AAEDB4E001900D928A95E1F781E009
:105320008DA380E58EA38AEF90E098A78FA382E3F8
:1053300089A78BE48AA780E091E09CA78BA78FEFD9
:105340008DA78EA78FA788AB89AB8AAB88EC8DAB76
:10535000DF91CF9108958AE893E00E94121161E0F5
:10536000811160E08091E00081608093E0006093B3
:1053700094038AE893E00E94151168EE73E080E0E0
:1053800090E00E94B0048091E0008E7F8093E00066
:105390000895CF93DF931F92CDB7DEB76983DC0109
:1053A000ED91FC910280F381E02D41E050E0BE01DF
:1053B0006F5F7F4F09950F90DF91CF910895CF9345
:1053C000DF93EC018C859D8597FF05C082E00E94EC
:1053D000842E9D878C878C859D85DF91CF91089544
:1053E00083E00E949B2E90E0089583E00C940A31A4
:1053F000FC018485958597FD06C082E00E94342ECD
:1054000090E00196089582E00E94342E90E0089585
:10541000FC018485958597FD05C02FEF3FEF35870B
:105420002487089582E00C94842ECF93DF93EC01BF
:1054300080913D01882331F083E00E94B52E18163B
:10544000190634F081E090E09B838A8380E090E04D
:10545000DF91CF910895EEEFFFE72591349181E040
:105460002B3F3C4D09F080E00895FC0190819E5F48
:10547000908342E450E062EF76E080E80C94662F7F
:10548000FC0181819081913A61F4813209F083C0FD
:1054900047E050E066E371E080E00E94662F81E023
:1054A0000895913209F077C0833269F48281938143
:1054B000B0E0A0E08093320190933301A0933401D7
:1054C000B0933501ECCF803239F467E070E086E3C9
:1054D00091E00E948C2FE3CF823209F78281809382
:1054E0003D010E942B2AE0E0F8E0882311F0EEEF66
:1054F000FAE08091360190913701A0913801B09186
:105500003901803B9440A105B105D9F480913D015A
:1055100080FD17C0EE3F8AE0F80771F587E797E74F
:1055200091838083809160008093550588E19BE0A2
:105530000FB6F894A895809360000FBE909360001A
:10554000AECF808191818737974709F0A8CFA89582
:105550008091600088618093600080915505809300
:105560006000EE3F8AE0F80789F08091FE0A909192
:10557000FF0A9183808393CF808191818737980739
:1055800069F29093FF0A8093FE0AC8CF1092FF0A37
:105590001092FE0A84CF80E008952FEF3FEFFC01C8
:1055A000358724870895E5E0F5E01382128288EEBE
:1055B00093E0A0E0B0E084839583A683B78381EC79
:1055C00091E0918380838FEF9FEF95878487089583
:1055D000EF92FF920F931F93CF93DF937B01FC0118
:1055E000C281D38110E000E0209791F0E881F98139
:1055F0000280F381E02DB701CE01099597FD06C029
:10560000080F191F0884D985C02DEECF0FEF1FEFAB
:10561000C801DF91CF911F910F91FF90EF900895F6
:105620000F931F93CF93DF938B01FC01C281D38132
:10563000209771F0E881F9810480F581E02DB801AF
:10564000CE010995009731F40884D985C02DF0CF9B
:1056500090E080E0DF91CF911F910F9108950F931B
:105660001F93CF93DF938B01FC01C281D3812097DD
:1056700071F0E881F9810680F781E02DB801CE0153
:105680000995080F111D0884D985C02DF0CFF801A8
:105690001082DF91CF911F910F9108950F931F9367
:1056A000CF93DF938B01FC01C281D381209771F0EE
:1056B000E881F9810190F081E02DB801CE010995D2
:1056C000811105C00884D985C02DF0CF80E0DF911D
:1056D000CF911F910F910895CF93DF93FC01DB01D0
:1056E000218114968C911497820F9927991F0897FE
:1056F0008CF5C281D381209731F5738362839081C9
:1057000012969C93129713962C93139715968C913F
:105710001597890F808380E014969C9114978917C0
:10572000E8F41696CD91DC911797C80FD11D98819A
:10573000C181D0E0C25CDE4F988391819F5F9183ED
:105740008F5FEACFEC01888599850097D9F7B987F3
:10575000A887D5CF80E0DF91CF91089581E0FBCF7E
:105760008091560581110DC082E080935E0584E032
:1057700080935F05109261051092600581E080932F
:1057800056058EE595E00895FB0101900020E9F7AC
:105790003197AF01461B570BDC01ED91FC91028064
:1057A000F381E02D0994EF92FF920F931F93CF9313
:1057B000DF938C017B01D0E0C0E0F701EC0FFD1F0F
:1057C0006491662361F0D801ED91FC910190F08124
:1057D000E02DC8010995892B11F02196EECFCE015D
:1057E000DF91CF911F910F91FF90EF900895DC0111
:1057F000ED91FC910190F081E02D09946FEC71E046
:105800000C94C42B0F931F93CF93DF93EC010E9452
:10581000D32B8C01CE010E94FE2B800F911FDF91B4
:10582000CF911F910F9108958F929F92AF92BF9247
:10583000EF92FF920F931F93CF93DF93CDB7DEB715
:10584000A1970FB6F894DEBF0FBECDBF7C01FA0161
:10585000CB0119A2223008F42AE08E010F5D1F4F00
:10586000822E912CB12CA12CBF01A50194010E9484
:105870009236F901CA016A300CF5605DD8016E9369
:105880008D01232B242B252B79F790E080E01097B6
:1058900021F0BD01C7010E94C42BA1960FB6F89458
:1058A000DEBF0FBECDBFDF91CF911F910F91FF9053
:1058B000EF90BF90AF909F908F900895695CDECF7E
:1058C000CF92DF92EF92FF920F931F93CF93DF93CC
:1058D0002115310581F4DC01ED91FC910190F081FD
:1058E000E02D642FDF91CF911F910F91FF90EF90EA
:1058F000DF90CF9009942A30310501F52AE077FF37
:105900001DC06A017B01EC016DE20E94F72B8C0146
:1059100044275527BA014C195D096E097F092AE011
:10592000CE010E94142C800F911FDF91CF911F9107
:105930000F91FF90EF90DF90CF900895DF91CF917E
:105940001F910F91FF90EF90DF90CF900C94142C4B
:105950009A01AB01770F660B770B0C94602C211525
:10596000310541F4DC01ED91FC910190F081E02DD5
:10597000642F09940C94142C9A01462F50E070E087
:1059800060E00C94AF2C9A01AB0170E060E00C94E5
:10599000AF2C0F931F93CF93DF93EC010E947F04F2
:1059A000688779878A879B87E881F9810484F585F0
:1059B000E02DCE01099597FF15C00E947F04088550
:1059C00019852A853B85601B710B820B930B0C811B
:1059D0001D812E813F81601771078207930720F395
:1059E0008FEF9FEFDF91CF911F910F910895FF925D
:1059F0000F931F93CF93DF93EC018B01F42ECE0115
:105A00000E94C92C97FD1DC08D329105D1F09C01DB
:105A1000205331092A303105A0F0FF2019F08E32D1
:105A2000910579F00130110551F00230110589F42A
:105A30008D30910571F05CF40997029750F08FEF6B
:105A40009FEFDF91CF911F910F91FF900895809765
:105A5000B1F7E881F9810284F385E02DCE01099543
:105A6000CECFBF92CF92DF92EF92FF920F931F9310
:105A7000CF93DF938C01C42F40E00E94F72CFC01F0
:105A8000C12CD12C760197FD3EC0B12C0C2E000C00
:105A9000DD0BCE17DF07D9F0ED32F10509F43FC079
:105AA000CF01C0970A9798F4AAE0B0E0A701960149
:105AB0000E94D1366F01FF0FEE08FF08C60ED71EF9
:105AC000E81EF91E80E3C81AD108E108F108D801E0
:105AD000ED91FC910284F385E02DC8010995C80180
