:100000000C9471030C9499030C9499030C94990328
:100010000C9499030C9499030C9499030C949903F0
:100020000C9499030C9499030C9455300C94F82E6D
:100030000C9499030C9499030C9499030C949903D0
:100040000C9499030C9499030C9499030C949903C0
:100050000C9499030C9499030C9499030C94002824
:100060000C9499030C9499030C9499030C949903A0
:100070000C9499030C9499030C9499030C94990390
:100080000C9499030C9499030C9499030C94990380
:100090000C94A5320C9499030C9499030C94990335
:1000A0000C9499030C9499030C949903070D050083
:1000B000006C04AF036A04C1036804D3036604E759
:1000C000034F0402041404F20300FE033727380030
:1000D00000006C6F63616C6C79206275696C7400F0
:1000E0004B6579626F617264696F204D6F64656CF6
:1000F000203031202D204B616C6569646F73636F14
:1001000070652000FFFF1E001F002000210022005C
:100110000043E000E40001602300240025002600E5
:1001200027000144350014001A00080015001700CC
:100130002B002A002C0028001C0018000C001200C4
:1001400013002E004B0004001600070009000A00EF
:100150002900E300E200E6000B000D000E000F0096
:10016000330034004E001D001B000600190005007E
:100170002C44E100E5002C4411001000360037004B
:1001800038002D00FFFFFFFFFFFFFFFFFFFFFFFF16
:10019000FFFFFFFFFFFF0060FFFF24002500260098
:1001A0005600FFFFFFFFFFFFFFFFFFFFFFFFFFFF07
:1001B000FFFFFFFFFFFFFFFFFFFF210022002300E3
:1001C0005700FFFFFFFFFFFFFFFFFFFFFFFFFFFFE6
:1001D000FFFFFFFFFFFFFFFFFFFF1E001F002000CC
:1001E0002E00FFFFFFFFFFFFFFFFFFFFFFFFFFFFEF
:1001F000FFFFFFFFFFFFFFFFFFFF27003700550056
:1002000054002800FFFF3A003B003C003D003E0048
:100210003900FFFFFFFFB6583F0040004100420099
:10022000430044002B00FFFF0150FFFF425060508D
:1002300029504C002800CD58B5582F0830082F0001
:10024000300045004A0004500250085041502550EB
:100250002A50FFFFFFFF65005000510052004F0081
:10026000FFFFFFFF4D0046004900FFFF44502650AE
:10027000FFFFFFFFFFFFFFFFE24CEA5CE95CFFFFCF
:100280003100310803040B0C13141A1B24252B2CEA
:1002900033343B3C02050A0D1215191C23262A2D66
:1002A00032353A3D0106090E1116181D2227292E56
:1002B0003136393E0007080F10171F1E2120282F46
:1002C0003037383F636F6C6F726D61702E6D617087
:1002D00000637573746F6D0064656661756C74009E
:1002E0006F6E6C79437573746F6D006B65796D61BA
:1002F000702E006B65796D61702E637573746F6D10
:100300000A6B65796D61702E64656661756C740A3F
:100310006B65796D61702E6F6E6C79437573746F58
:100320006D00656570726F6D2E667265650065653E
:1003300070726F6D2E636F6E74656E747300656599
:1003400070726F6D2E636F6E74656E74730A65657F
:1003500070726F6D2E66726565002F0063726300A8
:1003600076657273696F6E0076616C69643F0064D4
:10037000656661756C744C6179657200736574743F
:10038000696E67732E0073657474696E67732E648B
:10039000656661756C744C617965720A7365747415
:1003A000696E67732E76616C69643F0A7365747455
:1003B000696E67732E76657273696F6E0A73657402
:1003C00074696E67732E6372630066616C73650097
:1003D000747275650068656C700068656C70000DFE
:1003E0000A2E0070616C65747465001E0834082064
:1003F0000821082208240834002608270825082E8A
:100400000836002D00370038002700330833003647
:10041000082E00370838081F082F0031003000234D
:10042000082D0835002F0831083008350805010966
:1004300006A101050719E029E715002501750195B9
:100440000881029501750881019505750105081956
:10045000012905910295017503910195067508150D
:100460000025FF0507190029FF8100C0050C0901BF
:10047000A1018504150026FF0319002AFF03950436
:1004800075108100C005010906A10185080507193D
:10049000E029E71500250175019508810205081975
:1004A00001290895087501910205077504950181D8
:1004B00001190429DD15002501750195D981027501
:1004C0000395018101C005010902A101850105090A
:1004D00019012908150025019508750181020501FA
:1004E0000930093109381581257F75089503810682
:1004F000050C0A38021581257F750895018106C013
:1005000005010980A1018505150026FF00190029B4
:10051000FF950175088100C005010902A1010509C7
:1005200019012908150025019508750181020501A9
:100530000930093116000026FF7F751095028102EF
:1005400009381581257F750895018106C0000000D6
:10055000000000000000000000000000000000009B
:100560000000000000000000000101010101010184
:10057000010101010101020202020202020203035F
:100580000303030303040404040405050505060628
:100590000606070707070808080909090A0A0A0BD7
:1005A0000B0B0C0C0D0D0D0E0E0F0F101011111268
:1005B00012131314141515161617181819191A1BD7
:1005C0001B1C1D1D1E1F202021222323242526271E
:1005D0002728292A2B2C2D2E2F3031323233343636
:1005E0003738393A3B3C3D3E3F404243444546481C
:1005F000494A4B4D4E4F515253555657595A5C5DCF
:100600005F606263656668696B6D6E707273757743
:10061000787A7C7E7F81838587898A8C8E9092947C
:1006200096989A9C9EA0A2A4A7A9ABADAFB1B4B670
:10063000B8BABDBFC1C4C6C8CBCDD0D2D5D7DADC1D
:10064000DFE1E4E7E9ECEFF1F4F7F9FCFF080B0078
:100650000202020000090400000102020000052459
:1006600000100105240101010424020605240600EE
:10067000010705810310004009040100020A00007F
:100680000007050202400000070583024000001237
:10069000010002EF020140091201230001010203DF
:1006A000014B6579626F617264696F004D6F6465BB
:1006B0006C203031000403090400450AA40A2B12FF
:1006C000DD13F6135314DA14401BC61DB11F11209D
:1006D000212095222E249F249C2579264D27142AFB
:1006E0004F0A11241FBECFEFDAE0DEBFCDBF12E00C
:1006F000A0E0B1E0E0E3FBE602C005900D92A4307B
:10070000B107D9F726E0A4E0B2E001C01D92A43AF7
:10071000B207E1F713E0C0E7D3E004C02197FE0180
:100720000E940635CD35D107C9F70E949C030C9471
:100730008B350C94000008950E94B4280E949B03FE
:1007400086E596E00E94CD300E94ED04C0E0D0E046
:100750000E9427052097E1F30E940000F9CFFC01D9
:10076000892B69F083EA91E09183808373836283AC
:100770001582148281E0868317828FEF8087CF01F4
:100780000895FC01892B69F08FEA91E091838083C1
:10079000738362831582148281E0868317828FEFD0
:1007A0008087CF010895FC01892B79F087E991E0DA
:1007B0009183808373836283148281E08583809137
:1007C0005F029091600297838683CF01089500971E
:1007D00041F02BE831E0FC01318320837383628395
:1007E00014820895009739F02DE631E0FC01318341
:1007F000208373836283FB01408308958AE095E040
:100800000C94B51FFF920F931F93CF93DF93EC01CE
:100810008B01F42E009711F00E940012F801F08273
:10082000CE01DF91CF911F910F91FF900895CF934B
:10083000C82F8BE295E00E9467236C2F811105C0C1
:100840008BE295E0CF910C94A92388E695E0CF91B7
:100850000C943C25089586E0EFE5F1E0DB01019082
:100860000D928A95E1F786E00895009719F00297B6
:1008700019F008950C9481130C9469130C943504A9
:1008800080E294E00E942C0C89E194E00E94F10A3D
:100890008EE594E00E9470138AE494E00E94D90EE1
:1008A00083E994E00E9498188BE894E00E9467180E
:1008B00090E080E0089580E294E00E94350D88E4A5
:1008C00094E00E94A40E90E080E00895CF93DF931F
:1008D000EC01BC0189E194E00E94780B019719F1C9
:1008E000BE0187E294E00E94370E0197E1F0BE015D
:1008F0008FE194E00E943E0D0197A9F0BE018EE1C8
:1009000094E00E94B70D019771F0BE0184E194E07C
:100910000E94950A019739F0BE018CE494E0DF91C2
:10092000CF910C94521081E090E0DF91CF91089527
:100930008AE494E00E94D90E84E194E00E94860A41
:1009400090E080E0089590E080E0089587E294E0F0
:100950000E945A0E8EE594E00E94C4128AE494E04C
:100960000E94170F86E994E00E9465198DEB94E0D0
:100970000E94741D8EE694E00E9472168BE894E04B
:100980000E943E1788E894E00E94931690E080E071
:10099000089586E994E00E947D1983E994E00E941D
:1009A00005198EE694E00E9451158BE894E00E94B0
:1009B000311790E080E00895ECEAF0E0849108952A
:1009C0009B0194E0899FB001112463557F4F44E05F
:1009D00050E0C9010C9448350895CF938091670188
:1009E000909168010E943106C1E0C0939504109275
:1009F0001E0110921F018FEF8093200166E98CE6A3
:100A000094E00E94D41466E98AE694E00E94D71428
:100A100080910402811106C08CE092E00E942512B0
:100A2000C09304028CE092E09093540480935304AA
:100A30008DE095E00E94E51485E00E94090B65E0D9
:100A400084E194E00E94760ACF910C94311E80914B
:100A50006701909168010C94BB06CF93DF93FC0172
:100A6000D62FC72F972F907C442371F08681811158
:100A700001C0148284818C2B8483911104C080E294
:100A80008D0F883018F0D683911122C080E28D0F2F
:100A90008830F0F4C3FF03C081EE0E941704C0FF4A
:100AA00003C080EE0E941704C1FF03C082EE0E94C3
:100AB0001704C2FF03C086EE0E941704C4FF03C0E0
:100AC00083EE0E9417048D2FDF91CF910C941704B1
:100AD0008581C82BC583F7CF882329F08130A1F009
:100AE00090E080E0089561FFFBCF60FDF9CF60EEFC
:100AF00070E08EE694E00E948E1562ED70E08EE666
:100B000094E00E948E15ECCF90915402911102C096
:100B10008093540261FFE4CF40E060FD0CC00E946E
:100B20004A2824E230E040E050E00E94E4346C5F68
:100B300060935C0241E060915C0270915D028DE126
:100B400095E00E942D05CCCFEF92FF920F931F935B
:100B5000CF93DF93EC018B017A01FA012081FB0135
:100B60004081BC018EE594E00E948B13019749F40B
:100B700081E090E0DF91CF911F910F91FF90EF9076
:100B80000895F7012081F8014081BE0186E994E0D3
:100B90000E94051A019761F3F7012081F801408155
:100BA000BE018DEB94E00E94FB1C019709F3F70155
:100BB0002081F8014081BE0183EE94E00E94351E41
:100BC0000197B1F2F7012081F8014081BE018FE465
:100BD00094E00E941012019759F2F7012081F80168
:100BE0004081BE018EE694E00E943315019709F41E
:100BF000BFCFF7012081F8014081BE018BE894E06E
:100C00000E94961731E020E0019709F030E0832F31
:100C1000922FB0CFCF93DF9300D0CDB7DEB76983EB
:100C20004A83AE014E5F5F4FBE016F5F7F4F0E94F0
:100C3000A4050F900F90DF91CF910895CF93C82F07
:100C40008BE295E00E9467236C2F811105C08BE237
:100C500095E0CF910C94A92388E695E0CF910C9470
:100C60003C25CF9340E855E260E070E089EF95E0E5
:100C70000E940E2A0E942A040E9440048DE195E001
:100C80000E943B0A0E944107C0E08C2F0E94E706A9
:100C9000CF5FC034D1F7CF9108951F93CF93DF93E7
:100CA000EC011D818C81182313FF03C081EE0E948B
:100CB0001E0610FF03C080EE0E941E0611FF03C037
:100CC00082EE0E941E0612FF03C086EE0E941E06E0
:100CD00014FF03C083EE0E941E068BE295E00E9483
:100CE00067236E81811117C0662371F08BE295E056
:100CF0000E94D0238BE295E00E946D236E818BE2EF
:100D000095E00E94A9231E828BE295E0DF91CF91AE
:100D10001F910C946D23662371F088E695E00E9484
:100D2000632588E695E00E94CD246E8188E695E0F3
:100D30000E943C251E8288E695E00E94CD248AE42C
:100D400095E0DF91CF911F910C947724FC011682DE
:100D500015828BE295E00E946723811104C08BE22B
:100D600095E00C94082488E695E00E948C258AE49E
:100D700095E00C9464240E944A2860935F0270936B
:100D8000600280936102909362020E945B040E9461
:100D9000C3090E94A6048DE195E00E944D068DE1F5
:100DA00095E00E94A6060C94C90420E4829FC0012D
:100DB0001124680F792F711D660F771FFB01EC5FFF
:100DC000FE4F8491FB01EB5FFE4F94910895CF930A
:100DD000DF93282F30E0E901CC0FDD1FCD55DD4F2B
:100DE0002D593D4FE0910101F0910201682FD90189
:100DF0008C91099599838883DF91CF910895CF9243
:100E0000DF92EF92FF92C0902403D0902503E090F0
:100E10002603F090270380910001815090E0282F55
:100E20000097A1F0B701A601082E04C0769567953A
:100E3000579547950A94D2F7019740FFF0CF20933A
:100E40002303FF90EF90DF90CF900895109223033B
:100E5000F8CF0F931F934091240350912503609185
:100E60002603709127038A019B0104C036952795BC
:100E7000179507958A95D2F7C80181701F910F9138
:100E800008950F931F93CF93DF93E3E6F2E080E49E
:100E9000DF011D928A95E9F78F01D0E0D034E1F0AF
:100EA000C09123031C1694F48C2F0E9429078823D9
:100EB00089F0E0910101F09102016D2F8C2F0995CD
:100EC0008F3F11F49F3F31F0F801C083DF5F0F5F68
:100ED0001F4FE4CFC150E6CFDF91CF911F910F910B
:100EE0000895282F80910001281708F020E081E064
:100EF00090E0A0E0B0E004C0880F991FAA1FBB1FBC
:100F00002A95D2F78093240390932503A093260378
:100F1000B09327030E94FF060E9441070C94980497
:100F20000F931F9300912403109125032091260312
:100F300030912703B901A801082E04C07695679562
:100F4000579547950A94D2F740FF28C041E050E0FA
:100F500060E070E0082E04C0440F551F661F771F25
:100F60000A94D2F74095509560957095402351238F
:100F70006223732340932403509325036093260335
:100F80007093270390912303981302C00E94FF06D9
:100F90000E9441071F910F910C9498041F910F918B
:100FA0000895CF9390910001891780F5C82F0E9472
:100FB000290781112BC081E090E0A0E0B0E00C2E69
:100FC00004C0880F991FAA1FBB1F0A94D2F7409133
:100FD0002403509125036091260370912703842BED
:100FE000952BA62BB72B8093240390932503A093D6
:100FF0002603B0932703809123038C1710F40E94DB
:10100000FF060E944107CF910C949804CF91089558
:10101000809123038F5F0C94D107809123030C945C
:101020009007CF93962F9270843540F09923E1F189
:1010300060FD3AC08455CF910C947107C82F8A3255
:1010400030F1CA52C13251F0C23281F46170992339
:1010500049F1611129C0CF910C940808617099235E
:1010600029F1611121C0CF910C940D08992349F009
:101070008C2F0E942907811117C08C2FCF910C94BF
:10108000D10760FF11C08C2FCF910C94900799234A
:1010900059F060FD09C00E942907882371F3CC2311
:1010A00061F3F1CF6111DFCFCF9108956623E1F3B2
:1010B000D2CF943429F4642F0E94110880E090E08C
:1010C00008958BE295E00E940F2488E695E00E9447
:1010D00092258AE495E00E949D248DEC95E00C9485
:1010E0005D266E9A769824982C980895803420F086
:1010F00060E070E080E00895282F30E0803258F4FE
:10110000F901EE0FFF1FE20FF31FE655FC4F608160
:1011100071818281089520523109F901EE0FFF1F7C
:10112000E20FF31FE05CFC4FF2CF0F931F93CF93BE
:10113000DF93C82F8A01D62F8032F8F40E947608F8
:10114000D81319C081E0171303C0061301C080E053
:1011500090910301892B8093030123E0C29FF0014A
:101160001124E655FC4F00831183D283DF91CF9188
:101170001F910F91089581E0EBCF8034B8F70E9462
:101180007608D81317C081E0171303C0061301C0F7
:1011900080E090910301892B809303012C2F205232
:1011A000330BC901F901EE0FFF1FE80FF91FE05CD7
:1011B000FC4FD9CF81E0EDCF80910301882311F15D
:1011C0008AEA93E00E94EE2780E493E00E94EE27F3
:1011D0008AEA93E00E94EE2780E493E00E94EE27E3
:1011E0008AEA93E00E94EE2780E493E00E94EE27D3
:1011F0008AEA93E00E94EE2780E493E00E94EE27C3
:101200001092030108953F9A479A08950FB6F894F3
:10121000A8958091600088618093600010926000C2
:101220000FBE64E670E080E090E00E947B280C94A2
:10123000030980913C0390913D03A0913E03B0913E
:101240003F038093340390933503A0933603B09308
:1012500037038091380390913903A0913A03B091FC
:101260003B038093300390933103A0933203B093F8
:1012700033038AEA93E00E946E27882361F08AEAAA
:1012800093E00E94A12760933C0370933D038093F9
:101290003E0390933F0380E493E00E946E278823EF
:1012A00061F080E493E00E94A1276093380370937B
:1012B000390380933A0390933B030895FF920F9371
:1012C0001F93CF93DF93F42E641302C06623E1F0E3
:1012D0008295807F182F120F00E0C62FD0E0AE015C
:1012E000440F551F42708F2D8170482B31F0612FB4
:1012F000601B80E090E00E940F31F6940F5FD5955F
:10130000C7956C2F083049F7DF91CF911F910F914E
:10131000FF900895AF92BF92CF92DF92EF92FF922B
:101320000F931F93CF9384E3A82E83E0B82E9CE302
:10133000C92E93E0D92E20E3E22E23E0F22E08E31B
:1013400013E0C0E0F50141915F01F60161916F0189
:1013500027E08C2F0E945E09F70141917F01F8017F
:1013600061918F012FE08C2F0E945E09CF5FC43006
:1013700049F7CF911F910F91FF90EF90DF90CF90A1
:10138000BF90AF9008950E9419090C948A09803487
:10139000A8F4E82FE295EF70F0E0982F977020E81E
:1013A00030E002C0359527959A95E2F7209583FFA6
:1013B00006C0E85DFC4F8081282320830895E45D0A
:1013C000FC4FF9CF8034D0F4282F22952F7030E0D5
:1013D000982F977040E850E002C0559547959A9530
:1013E000E2F783FF0DC0285D3C4FF9018081282F73
:1013F00030E02423352381E0232B09F480E0089595
:10140000245D3C4FF2CF282F2F7082958F7090E093
:10141000422F50E0283080F4845C9C4FFC01808196
:1014200090E027E030E0241B350B02C095958795AE
:101430002A95E2F781700895885C9C4FFC018081B9
:1014400090E02FE030E0EFCF60913C0370913D03DE
:1014500080913E0390913F030E940C35282F6091AC
:1014600038037091390380913A0390913B030E94B5
:101470000C35820F08950E9471080E9461080E9435
:1014800006098CE08093B800089560E08AEA93E052
:101490000E94522763E080E493E00C94522780E49A
:1014A00093E00E9451278AEA93E00C945127089513
:1014B00008956091230360931504809116048617A4
:1014C00030F080911704909118040C941110089535
:1014D000462F6091150490911604961730F0809174
:1014E0001704909118040C942F10089580911704FC
:1014F00090911804892B49F4862F609316040E945A
:10150000B10F90931804809317040895FC01908103
:1015100080912501981306C0809163049091640422
:101520000E94590A90E080E008950F9320911704DB
:10153000309118040091160444EC52E08CE494E0DD
:101540000E94DC100F9108958FEF8093140408958A
:101550001F93CF93DF9390911B04891730F080E0A5
:1015600090E0DF91CF911F910895C62F20E4829FD4
:10157000C0011124C80FD92FD11DCC0FDD1F6091E0
:101580001C0470911D04C60FD71FCE010E94753533
:10159000182FCE0101960E947535912FE2CF9091C0
:1015A0001A04891710F40C94D506891B0C94A80A08
:1015B000FF920F931F93CF93DF93EC01F62E0881D8
:1015C0001981C8010E947535F81621F06F2DC801E8
:1015D0000E947D35CE01DF91CF911F910F91FF9039
:1015E000089580E294E00E942C0C80910001809389
:1015F0001A0490E080E0089580931B0420E8829F05
:10160000C00111240E94860C90931D0480931C0439
:101610000895809300019091230428EA3AE097FD11
:1016200007C090911A04980F909300012FEC3AE0B4
:1016300030930201209301010C94FC0AFF920F9356
:101640001F93CF93DF9300D0CDB7DEB7F62E672F71
:101650008C01000F111F80911C0490911D04800FBC
:10166000911F9A838983CE0101960E94D80A8091A6
:101670001C0490911D040196800F911F9A83898309
:101680006F2DCE0101960E94D80A0F900F90DF9126
:10169000CF911F910F91FF900895FF920F931F9389
:1016A000CF93DF93F82E8B01C0E0CF15D9F0D0E0B7
:1016B0006D2F8C2FF8010995692F70E0762F662722
:1016C000680F711D4AE050E089EF95E00E94042CFC
:1016D00060E289EF95E00E94382BDF5FD03441F75C
:1016E000CF5FE3CFDF91CF911F910F91FF900895CE
:1016F0000F931F93CF93DF931F92CDB7DEB78B016C
:1017000043EF52E087E294E00E94220E811190C0E4
:1017100047E050E06BEE72E0C8010E945A35892B19
:1017200009F086C0095F1F4F60EE72E0C8010E9499
:101730005135892BD1F589EF95E00E9420290A9730
:1017400099F46091230467FB662760F94AE050E052
:1017500089EF95E00E94FD2B60E289EF95E00E9401
:10176000382B81E090E066C041E070E060E089EFF6
:1017700095E00E94722C162F6983862F0E94FA0C26
:1017800090911B0490930001112339F088EA9AE0AC
:101790009093020180930101E4CF80911A04890F94
:1017A000809300018FEC9AE0F3CF68ED72E0C801FE
:1017B0000E945135892B39F465ED76E080911A0449
:1017C0000E944D0BCECF61ED72E0C8010E945135F1
:1017D000892B71F589EF95E00E94202910E000E047
:1017E0000A9729F468EA7AE080911B04E9CF89EF2F
:1017F00095E00E9420290A9709F4B3CF80911B0439
:1018000020E4829FC00111240817190708F0A9CF0E
:1018100041E070E060E089EF95E00E94722C272F94
:101820003327722FC8010E941E0B0F5F1F4FDFCF9F
:1018300090E080E00F90DF91CF911F910F9108957C
:101840004AE050E0682F89EF95E00E94FD2B60E2AE
:1018500089EF95E00C94382BEF92FF920F931F9332
:10186000CF93DF9300D0CDB7DEB790E080E00E9449
:101870007535182F8093230481E090E00E94753520
:10188000082F8093240482E090E00E9475358093B5
:10189000250483E090E00E947535809326040F3F75
:1018A000F1F4812F8F778F3719F417FD10922304ED
:1018B00081E08093240483E2E82E84E0F82E10E097
:1018C00000E01A830983F70161917F01CE0101963F
:1018D0000E94D80A0F5F1F4F0430110591F790E066
:1018E00080E00F900F90DF91CF911F910F91FF90AB
:1018F000EF90089580912104882329F08091250498
:1019000090912604089590E080E008950F931F932E
:10191000CF93DF9300D0CDB7DEB79A8389838091D0
:10192000210410E000E0811114C000910401109125
:10193000050189819A81800F911F90930501809301
:10194000040142E0BE016F5F7F4F8BE095E00E9493
:10195000EC1FC8010F900F90DF91CF911F910F9155
:101960000895EF92FF920F931F93CF93DF9300D0D0
:10197000CDB7DEB783E2E82E84E0F82E10E000E079
:101980001A830983F70161917F01CE0101960E94BC
:10199000D80A0F5F1F4F0430110591F781E0809343
:1019A00022040F900F90DF91CF911F910F91FF9024
:1019B000EF900895CF93C82F80910001C81758F475
:1019C0008C2F0E9471078091230480789C2F9F7731
:1019D000892B80932304CE3730F0809123048078C4
:1019E0008E67809323040E94B10C809123048F772B
:1019F000CF9108959091230480FB97F9909323044D
:101A0000892F8F778F3721F490789E6790932304E6
:101A10000C94B10C81E08093210460E18BE095E0AF
:101A20000E94D31F80912404813019F01092220467
:101A30000895209125043091260480910B05909102
:101A40000C052F3F320769F49093260480932504F8
:101A50000E94B10C809123048F778E3728F40C9468
:101A6000710728173907B1F3089580912104811176
:101A700002C00E940A0D90E080E00895CF93DF93AA
:101A8000EB0146E853E087E294E00E94220E8111C8
:101A90006BC049E050E06CE773E0CE010E945A351C
:101AA000892B09F061C029966FE673E0CE010E9490
:101AB0005135892B59F489EF95E00E9420290A9726
:101AC00009F047C0809123048F7736C068E673E041
:101AD000CE010E945135892B91F160E673E0CE0171
:101AE0000E945135892B31F16CE573E0CE010E94E3
:101AF0005135892BC9F50E947A0CEC0160910B05D8
:101B000070910C054AE050E089EF95E00E94042CAA
:101B10006AE573E089EF95E00E94142B4AE050E0FB
:101B2000BE0189EF95E00E94042C81E090E0DF91F6
:101B3000CF910895809124040E94200CF6CF8091CB
:101B400022040E943E0E60E289EF95E00E94382B4D
:101B5000ECCF41E070E060E089EF95E00E94722CEC
:101B6000862F0E94DA0CE1CF90E080E0E0CF0F9367
:101B70001F93CF93DF9300D0CDB7DEB78B014EE339
:101B800053E087E294E00E94220E811158C06EE279
:101B900073E0C8010E945135892B11F589EF95E05A
:101BA0000E94202910E000E00A97E9F189EF95E012
:101BB0000E9420290A9771F141E070E060E089EF0E
:101BC00095E00E94722C1A830983CE0101960E942F
:101BD000D80A0F5F1F4F011584E0180739F71AC0A4
:101BE00062E273E0C8010E945135892B41F5809172
:101BF00004019091050160E074E0681B790B4AE0F4
:101C000050E089EF95E00E94042C60E289EF95E0B6
:101C10000E94382B81E090E00F900F90DF91CF91E0
:101C20001F910F910895C8010E9475350E94200CE4
:101C30000F5F1F4F011584E01807A9F7EBCF90E065
:101C400080E0EACFCF93DF93CB01EA016AED73E046
:101C50000E945135892B49F4BE0189EF95E00E941D
:101C6000432B81E0DF91CF91089580E0FBCF45EDDC
:101C700053E00E94220E90E080E008956AEC73E049
:101C8000882311F060ED73E089EF95E00C94142B3C
:101C900089EF95E00E943929892B59F089EF95E069
:101CA0000E9420290A9729F089EF95E00E9449298E
:101CB000F5CF08950F931F93CF9389EF95E00E947E
:101CC0003929892BB9F108E214E0C0E089EF95E0E9
:101CD0000E944929CF5FF80181938F0189EF95E038
:101CE0000E9420290A9739F0F801319780818032CB
:101CF00011F0C03259F78C2F90E0FC01E95DFB4FE9
:101D000020812032E9F4108288E294E00E94660487
:101D10006FED73E089EF95E00E94432B0E94480E1F
:101D200089EF95E00E9420290A9721F489EF95E038
:101D30000E94492990E080E0CF911F910F91089572
:101D4000885D9B4FFC01DFCF8091060190915B067F
:101D500090FF13C081110BC08091490481110AC00A
:101D600081E08093490490E080E00E943E0490E08E
:101D700080E0089581E090E0F8CF81111092060193
:101D800080914904882399F31092490482E090E0FD
:101D9000ECCFA0916304B0916404109749F0ED91E9
:101DA000FC9111970680F781E02D682FCD010994F1
:101DB00008951F93CF93DF9310924B04C3E6D2E0B4
:101DC00010E0E0910101F0910201612F89910995E4
:101DD000492F292F30E0322F2227820F932F911D78
:101DE0009C012150304C2031310598F4E0914B0496
:101DF00081E08E0F80934B04F0E0E25FFE4F108392
:101E00001F5F1034F1F690E080E0DF91CF911F91D9
:101E1000089520910D01222399F3803E910518F435
:101E2000443471F7E3CF883E910500F3F9CFFF9278
:101E30000F931F93CF93DF9320914B04211102C086
:101E40000E94D90E00E080914B04081708F05EC094
:101E5000C02FD0E0C25FDE4F6881A62FB0E0AD5941
:101E6000BD4FE0910101F09102018C910995182F6D
:101E7000F92E292F30E0322F2227210F311DA90101
:101E80004150504C40315105E0F49F2D0E94341BCD
:101E900040910701509108016091090181110CC026
:101EA000812F9F2D0E94101B882361F140910A0110
:101EB00050910B0160910C0188810E9451120F5FBB
:101EC000C2CF203E3105A0F0283E310588F48BE2D8
:101ED00095E00E946723612F811105C08BE295E098
:101EE0000E941F24E1CF88E695E00E942D25DCCFDB
:101EF00094E4F912E4CF1A3210F086ED810F0E94BB
:101F00002907D2CF88810E94C90ED9CF90E080E006
:101F1000DF91CF911F910F91FF9008954AE050E01B
:101F2000682F89EF95E00E94FD2B60E289EF95E034
:101F30000C94382B80912301882391F060E070E0AD
:101F400080E00E946E128091630490916404009777
:101F500039F0DC01ED91FC910280F381E02D0994D0
:101F60000895CF93C82F80914D0490914E04892BF2
:101F700041F480E390E00E94860C90934E0480939D
:101F80004D0420E2C29FC0011124CF910C94860C15
:101F9000CF93DF93EB019B0136952795820F931F1B
:101FA0000E947535C0FF04C08F70DF91CF910895F6
:101FB0008295FACFEF92FF920F931F93CF93DF9307
:101FC00000D01F92CDB7DEB700914D0410914E04A2
:101FD00093E0899F000D111D1124C8010E947535E1
:101FE000F82EC80101960E947535E82EC8010296A8
:101FF0000E94753580958B83E094EA82F094F98293
:1020000069817A818B810F900F900F90DF91CF9132
:102010001F910F91FF90EF9008950E94C80F0C94AC
:10202000DA0F0F931F93CF93DF9320E2629F80011B
:102030001124080F191FD0E0C0E0BE01C8010E94A2
:102040000D10AB01682F8C2F0E944F122196C034C7
:10205000D10599F7DF91CF911F910F910895CF93FB
:10206000C42F20E2629FB0011124860F971F6FEFEB
:10207000403428F4E42FF0E0EC57FD4F649170E019
:102080000E940D10AB01682F8C2FCF910C94511230
:1020900089EF95E00E94202921E00A9709F020E0CD
:1020A000822F0895CF92DF92EF92FF920F931F93AA
:1020B000CF93DF9300D0CDB7DEB78B0143EE53E073
:1020C00087E294E00E94220E811169C063EE73E002
:1020D000C8010E945135892B09F061C00E94481047
:1020E0008823A1F010E0812F0E94DA0F062FF72E2F
:1020F0000E948E0F8F2D0E948E0F802F0E948E0FB8
:102100001F5F103181F781E090E04BC0F12CE12C92
:102110000E944810811140C041E070E060E089EF0A
:1021200095E00E94722CD62E41E070E060E089EFCD
:1021300095E00E94722CC62E41E070E060E089EFCD
:1021400095E00E94722C00914D0410914E040E0DEA
:102150001F1D1A8309836095CE0101960E94D80A3B
:10216000C80101969A8389836C2D6095CE010196F2
:102170000E94D80A0E5F1F4F1A8309836D2D609548
:10218000CE0101960E94D80A83E0E80EF11C80E39C
:10219000E816F10409F0BCCF0E949A0FB4CF90E08A
:1021A00080E00F900F90DF91CF911F910F91FF90E2
:1021B000EF90DF90CF9008958F929F92AF92BF9251
:1021C000CF92DF92EF92FF920F931F93CF93DF9303
:1021D00000D0CDB7DEB77B014A01590187E294E018
:1021E0000E94220E81115CC0B401C7010E945135CA
:1021F000892B09F055C080E2089F600111240E94DC
:102200004810F12CE12C882301F1EC14FD0409F4B1
:1022100044C0C7018A0D9B1D0E947535082F10E030
:1022200082958F700E948E0FB8016F704AE050E067
:1022300089EF95E00E94E92B60E289EF95E00E942A
:10224000382B8FEFE81AF80AE0CF0E94481081116E
:1022500022C0EC14FD04F9F041E070E060E089EF89
:1022600095E00E94722C162F41E070E060E089EF4B
:1022700095E00E94722CC7018A0D9B1D9A83898369
:102280001295107F610FCE0101960E94D80A8FEF40
:10229000E81AF80ADACF0E949A0F81E090E002C0B3
:1022A00090E080E00F900F90DF91CF911F910F9100
:1022B000FF90EF90DF90CF90BF90AF909F908F9066
:1022C0000895089508950F931F93CF93DF93EB0123
:1022D000A881A0950A2F10E0F80186E0F595E79512
:1022E0008A95E1F7E0959801D9010E9414359B0188
:1022F000AC010E94AC344E2F491B50E02DED200361
:10230000C001219F900D112483E2890F6FEF70E0CF
:1023100090E00E9428209B01482F8881843040F45F
:102320001882842FB901DF91CF911F910F910895E9
:1023300084508883F6CFCF92DF92FF920F931F9342
:10234000CF93DF931F92CDB7DEB720915304309126
:102350005404232B09F44BC020915F02309160029A
:10236000DC0114964D915C91241B350B40912101A9
:102370005091220142175307D0F58C016C01B6E051
:10238000CB0ED11CF12CF60180818983882399F032
:102390008091530490915404DC01ED91FC910190E3
:1023A000F081E02DBE016F5F7F4F0995AB01682F73
:1023B0008F2D0E9451128981F60181936F01811145
:1023C00009C04091500450915104609152048F2DE6
:1023D0000E945112F394F0E4FF12D5CF80915F0276
:1023E00090916002D80115969C938E9314970F904C
:1023F000DF91CF911F910F91FF90DF90CF900895C3
:10240000FC0189E791E09183808373836283158265
:102410001482369680E4DF011D928A95E9F70895CB
:10242000403480F4FC0190818091250198130AC00A
:1024300021FF08C0E0916304F0916404E40FF11DF2
:102440008FEF868390E080E0089525E831E0FC017D
:102450003183208308958FEF80934F040895CF93A5
:10246000C82F8BE295E00E9467236C2F811105C075
:102470008BE295E0CF910C941F2488E695E0CF91F4
:102480000C942D25FC019081DB018C91981305C0E3
:1024900081E0218111969C91291380E008950C948C
:1024A0009508803438F4E82FF0E0EC57FD4F849124
:1024B0000C9495088FEFFCCF8091230181110C942F
:1024C000DC08089580915504811105C010925D04C7
:1024D00081E0809355048DE594E00895CF92DF92DA
:1024E000EF92CF936B01E82E0E946212C0E06E2D36
:1024F000A6018C2F0E944F12CF5FC034C1F7CF913D
:10250000EF90DF90CF90089560E070E080E00E944F
:102510006E128091630490916404009739F0DC019D
:10252000ED91FC910280F381E02D09940895909142
:102530006504891778F4809325010E9465229093A1
:102540006404809363048091230181110E948412AA
:102550000C94A3040895809125018F5F8093250139
:1025600090916504891708F080E00C94971280918F
:102570002501811102C0809165048150809325015D
:10258000809125010C9497121F93CF93DF9300D075
:1025900000D0CDB7DEB780912301882309F454C061
:1025A00019821A82BE016F5F7F4F8FE594E00E940F
:1025B000421281111EC081EE0E942F12182F81112C
:1025C00004C085EE0E942F12182F1B8283E48C8397
:1025D000BE016D5F7F4F8FE594E00E944212882319
:1025E000E9F111113BC00E94AB1210925F041092EE
:1025F00060042091240180915F02909160024091DB
:10260000610450916204841B950B28171906E0F4AD
:102610000E945C1280912401209161043091620437
:10262000820F932F911D9093620480936104809197
:10263000630490916404009739F0DC01ED91FC9102
:102640000480F581E02D099590E080E00F900F90D7
:102650000F900F90DF91CF911F91089581E08983B2
:1026600083E48A83BE016F5F7F4F8FE594E00E9411
:102670004212882311F01111B6CF0E94B712B5CFC4
:10268000EF92FF921F93CF93DF9300D000D0CDB78E
:10269000DEB77C0110E080916504181770F4BE016C
:1026A0006F5F7F4F812F0E94E00489819A81E81635
:1026B000F90669F4812F0E9497120F900F900F90E6
:1026C0000F90DF91CF911F91FF90EF9008951F5FC2
:1026D000E2CF81E0809323010E9484120C94DC08F5
:1026E00060E070E080E00E946E120E94EC04809135
:1026F00025018F3F19F480E00E94971290E080E05E
:10270000089560E070E080E00E946E120E94DC0894
:10271000109223010895FF920F931F93CF93DF939D
:1027200000D000D0CDB7DEB7FB01F180F3E490E03C
:1027300080E0FF1204C021FD0CC081E090E00F900A
:102740000F900F900F90DF91CF911F910F91FF90FD
:10275000089520FDF2CF8B011B82FC82BE016D5FCC
:102760007F4FC8010E944212882341F0F801808106
:1027700091819093600480935F04DFCF81E089832F
:10278000FA82BE016F5F7F4FC8010E944212811121
:10279000EDCF82E08983BE016F5F7F4FC8010E9449
:1027A0004212882351F280912301882319F00E945C
:1027B0008113C3CF0E946913C0CF0E94DC048093B1
:1027C00065040895FC01248130915F02321B33338C
:1027D00060F02E5C24830280F381E02D40E0618173
:1027E00080810E949A200C946E120895E6E6F4E02F
:1027F0008AEA80838FEF818308951F93CF93DF93BD
:10280000EC01EA81FB812E813F81418150E0809182
:102810005F0290916002821B930B4817590708F0E2
:102820003EC0240F351F3F832E838C812D819081E4
:10283000182F299F1019112440E050E060E00E94F9
:102840004F120E946212103430F440E050E060E019
:10285000812F0E944F128C819D81890F8C830E9451
:1028600062128C819D81190F803430F0292F2195BF
:102870002D83891B8C8310E440E050E06FEF8C8146
:102880000E944F120E946212103448F44FEF50E041
:1028900060E0812FDF91CF911F910C944F12DF9157
:1028A000CF911F910895E8E6F4E085E0808386E902
:1028B00081830895CF93DF93EC01EA81FB819081BE
:1028C0002F8180915F02821B981700F5920F9F83E2
:1028D000418150E0688570E08C819D810E942820B4
:1028E0009B01482F8E816C817D81860F972F911DD2
:1028F0008F3F910540F49D838C83842FB901DF9134
:10290000CF910C946E128F5F9109F5CFDF91CF912B
:1029100008951F93CF93DF93EC01EA81FB818081BF
:102920002F8190915F02921B8917B8F5820F8F83D8
:1029300080915504811105C010925D0481E080935F
:10294000550410E02C813D811034F1F0912F9695C3
:10295000969540E1949FC0011124820F931F8F3FF1
:10296000910518F08F5F9109FACFEA81FB814181CF
:1029700050E0688570E00E942820AB01682F812F0D
:102980000E944F121F5FDECF8E81820F932F911D09
:102990008F3F910530F49D838C83DF91CF911F9100
:1029A00008958F5F9109F7CFFC0161830895FC01C1
:1029B00061830895ECE6F4E098E2908382E38183FA
:1029C000EAE6F4E09083818308950C944013FC01BF
:1029D0008491319694910895862F90E06134E0F4CB
:1029E0006A33B0F5603269F170F46A3039F130F46D
:1029F00082E2683050F590E080E008956B31D9F7BD
:102A000090E089E208956133F8F4880F991F8755A3
:102A10009C4F0E94E7140895613638F46B35E8F056
:102A2000880F991F8D599C4FF4CF6B37D0F06F37BB
:102A300010F7880F991F815D9C4FEBCF90E088E2E3
:102A4000089590E08CE208958DEE860F90E0089551
:102A5000880F991F89569C4FDCCF83EC860F98E036
:102A6000089583EAF2CFFB0181818036B9F4809129
:102A70006F04883080F49081682F70E0FB01EE0FC6
:102A8000FF1FE60FF71FE059FB4F9083418322831E
:102A90008F5F80936F0481E090E0089590E080E084
:102AA000089510926F0490E080E00895CF93C42FB2
:102AB000462F40686FEF0E940F31C11109C08DE1B0
:102AC00095E00E944D0680EB95E0CF910C94C725D0
:102AD000CF9108950F931F93CF93DF93EC01062FAF
:102AE000142F61FF03C062E00E94561500FF09C069
:102AF000412F61E0CE01DF91CF911F910F910C9496
:102B00005615DF91CF911F910F910895362F642FA5
:102B1000FC018491422F932F0C946A15EF92FF923F
:102B20000F931F93CF93DF937C018B01F801649186
:102B30006623C1F0C7010E94EC14D82FC92F811160
:102B400002C0992361F040E062E08D2F9C2F0E942B
:102B5000561540E061E08D2F9C2F0E9456150F5FA7
:102B60001F4FE4CF90E080E0DF91CF911F910F9154
:102B7000FF90EF9008958F929F92AF92BF92EF9245
:102B8000FF920F931F93CF93DF93CB01009709F42C
:102B90009EC0F12CE12CEC012196FC012491EFEF79
:102BA000E20FED3008F093C0F0E0E752FA4E0C94DB
:102BB000063526162B163716411648164F16591687
:102BC0005F16131665161D16E615FE158E2C912C34
:102BD000B12CA12CFE01049131962296149140E073
:102BE00063E0812F902F0E946A15C501B4010E94F5
:102BF0007B280111EFCF1111EDCF17C08E2C912C36
:102C0000B12CA12C2196FE013197149140E063E094
:102C1000812F90E00E946A15C501B4010E947B28B3
:102C20001111F0CF02C0FF24F3946E2D70E090E0FC
:102C300080E00E947B28CE01AECF8DE195E00E941E
:102C40004D0680EB95E00E94C725EFCF0296FE016E
:102C5000E490EC01EACF8C010E5F1F4FFE016491FE
:102C600070E090E080E00E947B28E801DECFFE016A
:102C70006491EC0123962F2D42E002960E94861566
:102C8000D4CFFE016491EC0123962F2D41E0F5CFC6
:102C9000FE016491EC01239620E043E0EECF8C012D
:102CA0000E5F1F4F2F2D42E060E0CE010E9486157F
:102CB000DCCF8C010E5F1F4F2F2D41E0F5CF8C0133
:102CC0000E5F1F4F20E043E0EFCFF12CAECFDF913E
:102CD000CF911F910F91FF90EF90BF90AF909F9079
:102CE0008F900895CF93C0E080916F04C817B8F417
:102CF0008C2F90E0FC01EE0FFF1FE80FF91FE05949
:102D0000FB4F818180932601628180810E946C0546
:102D1000BC018EE694E00E94BB15CF5FE5CF90E04A
:102D200080E0CF910895AF92BF92CF92DF92EF9261
:102D3000FF920F931F93CF93DF9310E000916601F2
:102D4000101708F04CC088E0189FE0011124F12C06
:102D5000E12CFE01E453FF4F6F01AE2CF601EE0DA6
:102D6000FF1D84918823C1F181500E94030AB82E6F
:102D7000882349F0FFEFEF1AFF0A85E0E816F10417
:102D800061F785E0A82E0E94240AA81223C0BB2068
:102D900009F180915F029091600220918904309145
:102DA0008A04821B930B2091270130912801281758
:102DB000390780F4FE01E653FF4F25913491812FAE
:102DC000F901099580915F029091600290938A04C5
:102DD000809389041F5FB4CFBB24B394D4CF90E019
:102DE00080E0DF91CF911F910F91FF90EF90DF90E6
:102DF000CF90BF90AF9008950F9320915F023091D4
:102E0000600240918C0450918D04B901641B750BD4
:102E1000AB016091290170912A0164177507F8F4DC
:102E200030938D0420938C0400E020912B0180FDD1
:102E300010C020912B01219500E081FD0AC0009176
:102E40002B01019582FD04C083FF09C000912B0175
:102E500020E040E060E080EB95E00E94A0250F912B
:102E6000089580EB95E00E94C72580EB95E00E94D5
:102E7000A8251092920490E080E008959091920429
:102E8000911105C01092110590E080E00895209105
:102E90005F02309160024091900450919104B90119
:102EA000641B750BAB0160912F01709130016417A9
:102EB000750750F7309391042093900440918E044D
:102EC00050918F04B901641B750BAB0160912C010B
:102ED00070912D016417750790F480911105609130
:102EE0002E014FEF50E0461B5109841715061CF4C4
:102EF000860F8093110530938F0420938E04609188
:102F00003101619590FF60E091FF03C08091310134
:102F1000680F80913101819592FF80E093FF03C09B
:102F200090913101890F0E94BE21AECF0F931F9364
:102F3000CF93DF93CDB7DEB72A970FB6F894DEBFF5
:102F40000FBECDBFFB018181803509F07DC060815E
:102F5000962F9072822F8270362F307466FF10C0C9
:102F6000911110C0162F1F7B2170811126C071F1A5
:102F7000612F80EB95E00E94B3250E94132126C0AB
:102F8000992339F1882311F120FD20C091E03111FE
:102F900001C090E082E060FF80E0892B94E061FF57
:102FA00090E0892B98E062FF90E0892B90E163FF2D
:102FB00090E0892B0E941C2109C0211102C00E94AF
:102FC0001621612F80EB95E00E94AE2581E090E014
:102FD0003DC02170882309F444C0211116C080919E
:102FE0005F0290916002909391048093900490937B
:102FF0008F0480938E042091290130912A01821B35
:10300000930B90938D0480938C04808184FF03C084
:103010000E94FC16DBCF90919204892B809392043E
:10302000D5CF84FF08C080E091E02CC084FF07C0AA
:1030300081E090E027C080E090E031E024C080E0B3
:1030400090E030E051E020C090E080E02A960FB69A
:10305000F894DEBF0FBECDBFDF91CF911F910F91CE
:103060000895222309F4B2CF6095809192046823D9
:10307000609392048081982F937099F6982F9C709A
:10308000A9F680E030E050E025E0E0EBF5E0DE017D
:10309000119601900D922A95E1F725E0FE013196F7
:1030A000DE01169601900D922A95E1F76F81488511
:1030B00029850A85511160E0311140E0911120E02D
:1030C000811100E080EB95E00E94A0257FCFCF9397
:1030D000DF9300D000D000D0CDB7DEB780EB95E015
:1030E0000E94F925ECEDF5E0108A86859785248508
:1030F000358519823B832A839D838C831E820284BB
:10310000F385E02D0190F081E02D46E050E0BE0116
:103110006F5F7F4F86EE95E0099590E080E0269600
:103120000FB6F894DEBF0FBECDBFDF91CF910895EB
:1031300090E080E00895EF92FF921F93CF93DF938A
:10314000809125010E94971283E6E82E82E0F82EF6
:10315000C0E0E0910101F09102016C2FD7018D9147
:103160007D010995182FD92FE0910101F0910201FD
:103170006C2F80919504099520919504211304C02A
:10318000D43411F4C09332011817F1F08091630424
:1031900090916404009751F5CF5FC034D1F68091CF
:1031A0003201803460F540E06FEF809133010E947E
:1031B0009A20AB01682F80913201DF91CF911F914E
:1031C000FF90EF900C945112D913E0CF111102C06F
:1031D000DD23E1F2D111DACF409134015091350174
:1031E000609136018C2F0E945112D6CFDC01ED91F7
:1031F000FC910680F781E02D6C2F0995CDCFDF91F2
:10320000CF911F91FF90EF900895CF93DF93EC0142
:10321000809195040E9429079091940481110DC01A
:10322000992331F0809125010E9497121092940405
:1032300090E080E0DF91CF910895911103C081E08B
:1032400080939404CE010E949B18F2CF20915F02DC
:10325000309160028091BB049091BC04281B390B13
:1032600081E040913B0150913C014217530708F027
:1032700080E00895292F30E0322F2227F901E80F4E
:10328000F11DEE0FFF1FE756FB47808182FB882769
:1032900080F90895883038F4805290E0462F4068D5
:1032A0006FEF0C940F318E5D94E4F8CF62E00C94D4
:1032B0004A19E82FF0E0EE0FFF1FE556FB4F908113
:1032C0009E7F908361E00C944A19CF93DF93D0E006
:1032D000C0E0FE01EE0FFF1FE556FB4F808180FF2F
:1032E00003C08C2F0E9456192196C830D10589F74A
:1032F00090E080E0DF91CF910895FF920F931F93AC
:10330000CF93DF9390E080E0FC01EE0FFF1FE556C6
:10331000FB4F208120FD3FC0019680319105A1F730
:10332000D0E0C0E090E0809198048823B9F08E014D
:10333000000F111F05561B4FF801808183FF20C02D
:10334000F0909704FF2051F0877F80838C2F0E949C
:103350005919F80180818D7F80839F2D2196C0317E
:10336000D10509F7992321F010929804109297043F
:1033700090E080E0DF91CF911F910F91FF90089531
:10338000182F117080FFEACF81FDE8CF8C2F0E94AB
:103390005919912FE3CF0E942619882309F281E061
:1033A0008093980410929704BBCFFF920F931F93C2
:1033B000CF93DF93D0E0C0E08E01000F111FF80122
:1033C000E556FB4F808180FBFF24F0F880FF04C0AE
:1033D0000E942619882391F0F801E556FB4F808161
:1033E00081FBFF24F0F881FD09C083FBFF24F0F886
:1033F00083FD04C02196C031D105F1F68F2DDF91F8
:10340000CF911F910F91FF9008958F929F92AF924D
:10341000BF92DF92EF92FF920F931F93CF93DF93B0
:1034200027FDD2C0D22FD42E8B01DB011196EC9058
:1034300011978E2D90E0982F8827EC90E80EF92EAA
:10344000F11CCFEFCE0D0E94D519B1E0EB1AB0EC14
:10345000FB0A811121C0E0E1EE16F10408F0B4C0CE
:103460008D2F8270D0FFBBC0811108C0D0E0CC0F7F
:10347000DD1FC556DB4F88818D7F888381E090E01A
:10348000DF91CF911F910F91FF90EF90DF90BF9050
:10349000AF909F908F9008959D2F9270B0E1EB16A2
:1034A000F10408F07AC0EC2EF12CEE0CFF1CF701B1
:1034B000E556FB4F808183FF13C09923F9F2D0FDBD
:1034C000DDCFD8012D913C9130939A04209399043B
:1034D000877F80838C2F0E94591910929804CECF39
:1034E000D0FD3AC0992351F2826080839091990473
:1034F000F801808180905F0290906002981343C031
:1035000090919A04818198133EC0A080B180C5013A
:103510000E943A198823B9F18091370190913801BE
:103520008F3F980721F480913B0190913C012091BD
:10353000BB043091BC04821A930A8815990508F4DB
:103540009DCFF701E556FB4F808188608083B09264
:103550009A04A092990492CF911190CF8D7F80838D
:1035600080915F02909160022091BB043091BC0475
:10357000821B930B2091390130913A0128173907AA
:1035800008F07CCFA7CF9092BC048092BB04F701D7
:10359000E556FB4FD182808136C09923A9F0F8010E
:1035A0008081918190939A04809399044181242F82
:1035B00030E0322F22278081820F932F911D803E91
:1035C000910528F4443439F490E080E059CF883EE6
:1035D0009105C0F7F9CF81E080939804F5CF882357
:1035E00009F44CCF80915F02909160029093BC04EB
:1035F0008093BB04EC2FF0E0EE0FFF1FE556FB4F6E
:10360000D1828081826081608083D8018D919C917C
:1036100090939A04809399048C2F0E9456192ECF70
:103620001F93CF93DF938150C82FD0E0CC0FDD1FC5
:10363000FE01E556FB4F8081182F117080FF04C0FA
:103640000E942619882359F0C556DB4F888181FBDB
:10365000112710F981FD03C083FB112710F9812F79
:10366000DF91CF911F9108958150E82FF0E0EE0F88
:10367000FF1FE556FB4F808183FB882780F9089563
:1036800090E080E0FC01EE0FFF1FE556FB4F20812C
:1036900024602083019680319105A1F70895EF926F
:1036A000FF920F931F93CF93DF93EC018B016C81FB
:1036B0002C8D42E020FD41E09B8191509B83DE01F7
:1036C0001496FE013C9630E0391750F411968C9117
:1036D00011978D93E280F380E192F1923F5FF4CFF6
:1036E00030E0359527952C8F81E089A3C8010E9491
:1036F0000F3119A2DF91CF911F910F91FF90EF90A1
:103700000895FC01872F90E0982F8827680F792F64
:10371000711D613180EC7807E0F0623188EC780748
:1037200050F46151704C62A313A215A280EE870F72
:1037300084A381E00895633180ED780750F46251ED
:10374000784C62A313A28AE2870F84A384E485A342
:10375000F0CF80E008958F929F92AF92BF92CF9268
:10376000DF92EF92FF920F931F93CF93DF9300D0DE
:1037700000D0CDB7DEB78C01C62E862F90E09C011D
:103780002D593D4F7901E0910101F0910201D901DC
:103790008C9109955C01BC01C8010E94811BD82E47
:1037A000811138C0F7018080F12CEE24EA94912C2D
:1037B000D80112968C91F81608F040C0B4E0FB9E38
:1037C000C0011124F80160817181680F791FEA82BC
:1037D00044E050E0CE0101960E94483589819A81EB
:1037E0003B812C81C91228C0482F082E000C550B94
:1037F0004815590511F08F3FF9F4D8019396BC9202
:10380000AE929297C90194969C93949795962C9317
:10381000DD24D3948D2D0F900F900F900F90DF919A
:10382000CF911F910F91FF90EF90DF90CF90BF90BD
:10383000AF909F908F900895F394BACFF801B3A200
:10384000A2A28FEF84A385A3E5CFCF93DF93FC01E2
:10385000EB019A01261B370BA4E6B0E00E94143559
:10386000268D30E050E040E00E94E43480915F0219
:1038700090916002BC016C1B7D0B81E0261737071D
:1038800008F480E0DF91CF910895FC01349690E038
:10389000941729F08191861721F09F5FF9CF80E07E
:1038A000089581E00895292F207C31F4805E91E015
:1038B000883038F090E005C09434E1F791E08A3226
:1038C000C8F3892F08957F928F929F92AF92BF92F3
:1038D000CF92DF92EF92FF920F931F93CF93DF93DC
:1038E000FC012381222309F475C0EC01848D60E082
:1038F00070E080FD6CC08480682DCF010E94AB1BFE
:10390000AAA0BBA0882309F461C01D8D112309F46E
:103910005DC0C5010E94531C782E9B806E01EE2471
:10392000E394F12C00E02E2DE91408F05FC08C8D9B
:1039300090E00E2C02C0959587950A94E2F780FDE1
:103940000CC0711043C0002309F44EC0FFEFCF1A22
:10395000DF0A8FEFE81AF80AE6CFF6019581FE013B
:10396000359681E0891238C0002319F08E8D8111BF
:1039700019C0772019F06CA17DA102C06AA17BA1BA
:10398000CE010E944F1B812FDF91CF911F910F918C
:10399000FF90EF90DF90CF90BF90AF909F908F906F
:1039A0007F900895F701EE0FFF1FEC0FFD1F448578
:1039B0005585E02FF0E0EE0FFF1FEC0FFD1F648533
:1039C0007585CE010E94251C8111C0CFB501CE01A5
:1039D0000E944F1B11E0D7CF821708F0B7CF31916B
:1039E000931749F28F5FF8CF0E2DB0CFE8E010E0CB
:1039F0009E12C9CFEBCF0F931F93CF93DF93403429
:103A0000C0F427FD16C0FC0131A1311112C08B0199
:103A1000EC01858D811110C0FB0160817181CE01A7
:103A20000E94811B882329F08AA19BA1F801918320
:103A3000808390E080E01FC0A22FA170B22FB270EF
:103A400021FF1EC0AA23F1F05B81FE01349690E0B5
:103A500080E0851770F7282F319101964313F9CF35
:103A60008C8D90E002C0959587952A95E2F7809518
:103A7000909581709927DF91CF911F910F910895B3
:103A8000AA2311F38B81282F30E0FE01E20FF31FF0
:103A90004483220F331FFE01E20FF31F20915F02C8
:103AA000309160023587248741E050E060E070E0AB
:103AB000082E04C0440F551F661F771F0A94D2F7C3
:103AC0009C8DAA2371F0B1110CC0942B9C8F8F5F39
:103AD0008B83883019F4CE010E94631C81E090E052
:103AE000CACF40959423F2CFFF920F931F93CF93A9
:103AF000DF93EC0110E0FF24F3948B811817F8F4A6
:103B00008C8D90E0E12FF0E0012E02C09595879515
:103B10000A94E2F780FF11C0EC0FFD1F0481412FD2
:103B2000602FCE010E94451C811107C0F9A243E01D
:103B3000602F90E00E940F3119A21F5FDECFCE01EF
:103B40000E94631C81111AC080915F0290916002F3
:103B50002C853D85821B930B2F8D38A128173907A3
:103B600068F40AA11BA1C8010E94531CB80181116D
:103B700002C06CA17DA1CE010E944F1B90E080E0AD
:103B8000DF91CF911F910F91FF900895CF93DF9315
:103B9000CDEBD4E0198218821A821B8288E0E7E517
:103BA000F1E0A1ECB4E001900D928A95E1F781E09B
:103BB0008D8F80E58E8F8AEF90E098A38F8F19A26A
:103BC0008FEF8AA38BA38CA38DA3DF91CF91089550
:103BD0008091E40481113EC01092F2041092F4042A
:103BE0001092F30481EE8093EC041092ED0486E2CF
:103BF0008093EE0488E08093EF041092F104109219
:103C0000F0041092FB041092FD041092FC0495EE57
:103C10009093F5041092F60497E29093F704809342
:103C2000F8041092FA041092F9041092040510920C
:103C30000605109205051092FE041092FF041092E2
:103C4000000510920105109203051092020581E013
:103C50008093E4048CEE94E090930905809308052A
:103C6000089581E08093070508954F925F926F92C7
:103C70007F928F929F92AF92BF92CF92DF92EF92FC
:103C8000FF920F931F93CF93DF9300D000D0CDB757
:103C9000DEB76B01B42E022FFB01818190E0982FDB
:103CA0008827208130E02855314D820F931F0297DD
:103CB00028F401FD0AC081E090E0E0C08091070592
:103CC000882311F190E080E0D9C000FDF4CF88E5B1
:103CD000898381ED8A83BE016F5F7F4FC6010E9499
:103CE0004212882319F010920705E5CF89E58983F0
:103CF000BE016F5F7F4FC6010E9442128823D9F236
:103D000081E080930705D7CF07FDDCCF19821A82A7
:103D1000BE016F5F7F4FC6010E944212182F8111B2
:103D2000D1CFF02FF1707F2E802F8270682E01FF8F
:103D30004FC0FF2309F44FC0512CA12C412C09E0A6
:103D40001B821C82E0900805F09009054701A09EA7
:103D5000800C911C1124BE016D5F7F4FC4010E9435
:103D60004212882309F4D3C019821A82BE016F5F00
:103D70007F4FC40102960E944212882309F4C7C0F3
:103D8000F40184819581892B09F0C1C0112309F4C4
:103D900099CF409E80011124F701E00FF11F24818B
:103DA00035812115310521F420913D0130913E01ED
:103DB00080915F029091600247815085841B950B32
:103DC0002817390708F0B5C01682108617827ACFF7
:103DD000F111B2CF77CF00E099E0B92E1B821C829F
:103DE000E0900805F09009050B9DE00CF11C1124F2
:103DF000BE016D5F7F4FC7010E944212882309F404
:103E000052C019821A82BE016F5F7F4FC7010296AE
:103E10000E944212882309F446C0F70184819581EB
:103E2000892B09F040C0912C00E089E0882E77248E
:103E300073941B821C82089D50011124E090080598
:103E4000F0900905EA0CFB1CBE016D5F7F4FC701B6
:103E50000E9442128823A1F119821A82BE016F5F6B
:103E60007F4FC70102960E944212882349F1F70151
:103E700084819581892B21F5812F90E00F900F90FF
:103E80000F900F90DF91CF911F910F91FF90EF90C6
:103E9000DF90CF90BF90AF909F908F907F906F906A
:103EA0005F904F900895F7019680992039F0B60100
:103EB000C7010E944212882309F4B6CF0F5F8ECF4C
:103EC000B701C6010E944212882369F0911009C00F
:103ED000F701768220915F0230916002308727835C
:103EE000182F0F5FA6CFF7018681882331F042E8B3
:103EF0006FEF808191810E940F31E0910805F09170
:103F00000905EA0DFB1D168210861782EACFF4011F
:103F1000F680F1100CC0F12EB601C4010E944212CD
:103F2000811101C0852DA394582E1F2D09CF4A2C35
:103F3000F3CF552009F4C6CE772009F4BCCE61102A
:103F4000BACE42E86B2D828193810E940F31E091BD
:103F50000805F0910905E00FF11F168210861782FF
:103F6000AACE83EE94E00C94E81D8BE295E00E94CB
:103F7000672361E0811160E08091E00081608093BF
:103F8000E000609335058BE295E00E946A2368EEBD
:103F900073E080E090E00E947B288091E0008E7FBB
:103FA0008093E0000895FC01208131812170332746
:103FB00081E0861770F44081518156954795518371
:103FC0004083220F331F41705527242B352B8F5FE1
:103FD000F0CF318320830895DC01FB01415000F1D3
:103FE00081912D913C91119768E070E051E0982FFC
:103FF000952399F4932F991F9927991F220F331F07
:10400000992319F095E029273058550F615071090F
:1040100071F711963C932E93E1CF932F9095EBCFB0
:10402000089510920C0510920B05089560E070E061
:1040300080E00C946E12862F40E050E060E00C941B
:1040400051128BEB91E090930E0580930D0508952E
:104050000F931F93CF93DF93FB01742F309739F4A5
:10406000642F842FDF91CF911F910F91089566E007
:10407000689F9001699F300D1124E901DD27CE9FD3
:10408000D001CF9FB00DDE9FB00D1124AB2FBB2709
:104090008FEF90E08C010A1B1B0B049FD001059F42
:1040A000B00D149FB00D11248C010C1B1D0B0E9F25
:1040B000E0010F9FD00D1E9FD00D1124CD2FDD27C5
:1040C0008C010C1B1D0B049FE001059FD00D149F5C
:1040D000D00D11248E1B9F0B849FF001859FF00D46
:1040E000949FF00D11246F2F232F33272230310599
:1040F000F1F060F421153105B9F08B2F2130310535
:1041000009F4B0CF842F7F2F6B2FACCF8F2F642F6C
:104110007B2F2330310509F4A5CF8D2F7F2F24303D
:10412000310509F49FCFEECF842F7D2F9BCF8F2FAA
:104130006D2F98CF90E1499FA001112420915F023B
:1041400030916002420F531FA4E056954795AA95FF
:10415000E1F7942F47FD9095990F999FF001112455
:10416000EF2FFF27AF01440F551F4E0F5F1F9E9F7C
:1041700090019F9F300D1124232F3327220F331FCF
:10418000421B530B56954795405B50E070E090E022
:104190000C942820CF93DF9300D000D000D0CDB76F
:1041A000DEB736952795820F931F56954795640F76
:1041B000751FECEDF5E09587848777876687208902
:1041C00029839B838A837D836C831E820284F3858B
:1041D000E02D0190F081E02D46E050E0BE016F5FE0
:1041E0007F4F86EE95E0099526960FB6F894DEBFD0
:1041F0000FBECDBFDF91CF9108951092140510929C
:10420000130510921605109215058FEF9FE79093F6
:104210001A0580931905909318058093170581E07E
:104220008093120508951092120508958091120549
:1042300081110C94FD2008950F931F93CF93C82FE5
:1042400080911205811102C00E94FD20C0FF06C0AE
:1042500010921205CF911F910F910895E0914101A5
:104260000E2F10E08091190590911A05B8010E9457
:10427000BC349B0170931A05609319058091170552
:1042800090911805B8010E94BC34AB0170931805D9
:10429000609317056C2F6470E0911505F091160579
:1042A00080911305909114057C2F7670763091F4EF
:1042B000820F931F9093140580931305BA016E0F1C
:1042C0007F1F7093160560931505CF911F910F9175
:1042D0000C94CA20662349F1D8011197A49FB0011C
:1042E000A59F700DB49F700D1124E60FF71FF0937A
:1042F0001605E0931505C4FF1DC001501109029F6A
:10430000B001039F700D129F700D1124860F971F2F
:10431000909314058093130560911505709116050F
:104320008091130590911405D0CFC1FDE4CFE40F27
:10433000F51FDDCFC3FDF0CF820F931FE9CF482FCC
:1043400050E087FD0AC0889FC0011124880F892F83
:10435000881F990B91958F5F089520E031E0241B11
:10436000350B229FC001239F900D900D1124880FC3
:10437000892F881F990B919580950895EF92FF9250
:104380000F931F93CF93DF93182F062F8091400137
:10439000C82FD0E0112309F492C0662389F123E6E7
:1043A000829FC00111246CE870E00E94D034611536
:1043B000710509F0EB01212F012E000C330B43E6B0
:1043C0001402C00111246CE870E00E94D034611521
:1043D000710509F09B01122F202F002E000C330BCA
:1043E00043E60402C00111246CE870E00E94D0345E
:1043F0006115710509F09B01022F112309F45FC0BB
:10440000809111050E949F2120911005382F1303E0
:10441000C0011124820F911D27FD9A957E01C817B6
:10442000D90744F0EE24FF24EC1AFD0AE816F90639
:104430000CF47C01002309F445C0809111050E9411
:104440009F2120910F05482F0403C0011124820FE2
:10445000911D27FD9A95C817D9073CF0D195C195B4
:10446000D109C817D9070CF4EC011092120520915C
:104470003F0130E0CE01B9010E94D034462FC70180
:10448000B9010E94D03400E020E080EB95E00E946A
:10449000A02520913F0130E0C701B9010E94D0342E
:1044A00080931005CE01B9010E94D03480930F058E
:1044B000DF91CF911F910F91FF90EF900895F12C14
:1044C000E12CB8CFD0E0C0E0D0CF1F93CF93DF93E3
:1044D00000D000D0CDB7DEB79091420198130CC048
:1044E00080911B0590911C050F900F900F900F90DD
:1044F000DF91CF911F910895182F80934201BE0143
:104500006F5F7F4F0E94E004EB81FC8189819A817B
:10451000309731F069817A81412F8EE092E00995E0
:1045200090931C0580931B05DBCFEDE1F5E0148231
:10453000158216820895FC0182818F5BFB018083C6
:1045400081E00895CF93DF93CDB7DEB769970FB6BB
:10455000F894DEBF0FBECDBFFC01DB019C919F5FD5
:104560009C939E012D5F3F4F81E1D9011D928A9559
:10457000E9F729E0298384E08A8391E09D8383E041
:104580008E839F8398872A8721E22B879C879D872C
:104590009F8722E2288B2FE3298B27E02B8B25E0B6
:1045A0002C8B8E8B20E430E0388F2F8B998F82817B
:1045B0008B83838180688D8B49E150E0BE016F5F02
:1045C0007F4F80E00E94A72E69960FB6F894DEBF59
:1045D0000FBECDBFDF91CF910895FC01DB018C911F
:1045E0008138A9F413968C911397823281F4228139
:1045F00014968D919C912817190649F48285848F11
:104600004FE350E06DE274E080E80C94A72E90E058
:1046100080E00895FC01DB01228114968D919C912C
:1046200015972817190681F511968C9111979C9171
:10463000913A69F4813029F0833029F4848D809394
:10464000F10081E008958230F9F4858DF8CF913240
:10465000D9F48B3021F412968C91848FF2CF8A306A
:1046600011F4158EEECF893079F4CF0116962D9185
:104670003C91179713964C91423041F461E070E001
:104680004E962130310551F080E008954130E1F738
:1046900028303105C9F768E070E00B960E94CD2EF6
:1046A000D0CFFC0181E0848385839F01255E3F4F4D
:1046B000378326831186108627EC31E031832083EF
:1046C0008287848F858F168E81EC838F0895FC01FD
:1046D000848D0895FC01648F0895EF92FF920F93EB
:1046E0001F93CF93DF938C01EC012B967C0183E128
:1046F000E80EF11C48E050E0BE01C7010E94683599
:10470000892B21F1F801838148E050E0BE018064EB
:104710000E94F62D8C01E091A206F091A30630973D
:1047200031F09C0148E050E0BE0182E0099588E04C
:10473000FE01D70101900D928A95E1F7C801DF9142
:10474000CF911F910F91FF90EF9008950FEF1FEF02
:10475000F5CFFC0180E2860F883070F4605E770B45
:1047600021E030E001C0220F6A95EAF78385822BB1
:10477000838781E090E00895DF011D9690E080E05E
:104780002D912617B1F3211104C0E80FF91F658799
:10479000F0CF01968630910599F790E080E008957A
:1047A000CF93DF9320E2260F283090F4605E770BE2
:1047B00021E030E001C0220F6A95EAF72095FC0164
:1047C00033852323238781E090E0DF91CF91089503
:1047D000DC011D969C012D5E3F4FFD01419146136A
:1047E00003C0EF0121971882E217F307B9F720E021
:1047F0003D91332349F0EC01C20FD11D4D853D871A
:10480000ED01219748832F5FAE17BF0789F7DBCFF4
:104810000B9628E0FC0111922A95E9F70895CF93B1
:10482000DF93EC010E94F12ABE010E94AD2ACE0165
:104830000E940824CE01DF91CF910C946D23605E1D
:10484000683050F4FC01838590E002C0959587950F
:104850006A95E2F78170089580E008958BE295E013
:104860000C94512380915A05811113C01092630555
:10487000109262058CE694E0909365058093640540
:1048800089E190E0909367058093660581E08093CD
:104890005A050E949C3462E675E00C940934FC01D0
:1048A00030E020E041915191452B41F4220F331F1C
:1048B000280F391FF9017183608308952F5F3F4FDF
:1048C0002430310579F7089528E0FC0111922A95EA
:1048D000E9F70895CF93DF93EC010E949C3428E020
:1048E00030E0AE0164E0DF91CF910C9459340F9326
:1048F0001F93CF93DF93EC018C01085F1F4F48E0BB
:1049000050E0BC01C8010E946835892B51F0CE01EE
:104910000E946A2488E0FE01D80101900D928A95D8
:10492000E1F7DF91CF911F910F91089528E0FC01ED
:1049300011922A95E9F70C9477240C9496248AE432
:1049400095E00C9432248091A205811113C010923D
:10495000AB051092AA0585E894E09093AD0580938D
:10496000AC0581E490E09093AF058093AE0581E0C3
:104970008093A2050E949C346AEA75E00C94093485
:10498000CF93DF93EC010E949C342DE130E0AE0127
:1049900068E0DF91CF910C945934EF92FF920F931E
:1049A0001F93CF93DF93EC017C018DE1E80EF11CA6
:1049B0004DE150E0BE01C7010E946835892B09F422
:1049C00049C00D8D1881802F8095812349F14CE1DC
:1049D00050E0BE016F5F7F4FCE014E960E9468355A
:1049E000892BF1F01D8F0E949C342DE130E0A7014E
:1049F00068E00E9459340D8FCE010E94C024181621
:104A000019063CF42DE1FE01D70101900D922A9583
:104A1000E1F7DF91CF911F910F91FF90EF900895F3
:104A2000812F8095802341F34CE150E0BE016F5F00
:104A30007F4FCE014E960E946835892BE9F208839C
:104A40000E949C342DE130E0AE0168E00E945934B0
:104A50001883D2CF8FEF9FEFDCCF605E683050F4C9
:104A6000FC01808190E002C0959587956A95E2F7F8
:104A70008170089580E008956E3DA0F4E62FE695DC
:104A8000E695E695E80FF92FF11D677021E030E01B
:104A900001C0220F6A95EAF78181822B818381E030
:104AA00090E00895605E683058F441E050E001C045
:104AB000440F6A95EAF7FC012081242B2083EFCF75
:104AC00090E080E008956E3DA8F4E62FE695E69527
:104AD000E695E80FF92FF11D677021E030E001C085
:104AE000220F6A95EAF7209581812823218381E0AE
:104AF00090E00895605E683060F421E030E001C02D
:104B0000220F6A95EAF72095FC0130812323208348
:104B1000EECF90E080E008952DE1FC0111922A95FE
:104B2000E9F70895CF93DF93EC010E948C25CE0125
:104B3000DF91CF910C94C02488E695E00C94A324D7
:104B40000F93FC0161834283238304830F910895B3
:104B500025E0FC0111922A95E9F70895FC01908166
:104B6000692B60830895FC01962F909560816923DD
:104B700060830895CF93DF93EC010E949C3425E07D
:104B800030E0AE0161E0DF91CF910C9459340F9386
:104B90001F93CF93DF93EC018C010B5F1F4F45E018
:104BA00050E0BC01C8010E946835892B49F445E0FA
:104BB00050E06AEB75E0CE010E946835892B51F018
:104BC000CE010E94BA2585E0FE01D80101900D9228
:104BD0008A95E1F7DF91CF911F910F910895CF93BF
:104BE000DF93EC010E94A825CE01DF91CF910C94B8
:104BF000C725CF93DF93EC018091BF05811113C0CE
:104C00001092C8051092C70586EC94E09093CA05EF
:104C10008093C9058AE390E09093CC058093CB05FF
:104C200081E08093BF050E949C3467EC75E00E9490
:104C30000934CE01DF91CF910C94EF258091CE0500
:104C4000811113C01092D7051092D60580E095E02F
:104C50009093D9058093D80588E190E09093DB0587
:104C60008093DA0581E08093CE050E949C3466ED46
:104C700075E00C9409340F931F93CF93DF93EB01EE
:104C80008A010E949C349801AE0165E0DF91CF91CA
:104C90001F910F910C945934CF93DF931F92CDB78E
:104CA000DEB7198241E050E0BE016F5F7F4F0E9486
:104CB0003B260F90DF91CF9108950C944C260C94D5
:104CC0004C26CF93DF931F92CDB7DEB7698363384D
:104CD00041F486E596E00E94E0300F90DF91CF919D
:104CE000089541E050E0BE016F5F7F4F0E943B2678
:104CF000F4CF8DEC95E00C941E26CF93DF93CDB7C7
:104D0000DEB769970FB6F894DEBF0FBECDBFFC01CA
:104D1000DB019C919F5F9C939E012D5F3F4F81E142
:104D2000D9011D928A95E9F729E0298384E08A83D5
:104D300091E09D8383E08E832A8721E22B879C87E5
:104D40009D879F8722E2288B25E3298B27E02B8BE9
:104D500025E02C8B8E8B20E430E0388F2F8B998FC1
:104D600082818B83838180688D8B49E150E0BE0115
:104D70006F5F7F4F80E00E94A72E69960FB6F89470
:104D8000DEBF0FBECDBFDF91CF9108950F931F936C
:104D9000CF93DF93EB018A01FC01838180640E9441
:104DA000F62DE091A206F091A306309749F09C0100
:104DB000A801BE0187E0DF91CF911F910F91099467
:104DC000DF91CF911F910F9108950A970C94C626F9
:104DD000DC01FB0112962C91129784819581281792
:104DE000190641F491818081813A31F49D7F81E0FF
:104DF000913009F080E008958132E1F79B3029F489
:104E0000828152968C9381E008959A3099F782813D
:104E100053968C93F8CFFB0120812138B1F4238184
:104E2000223299F4DC0112964C911297248135813B
:104E30004217130651F421E052962C9345E350E0BB
:104E400068E175E080E80C94A72E90E080E008957A
:104E5000CF93DF93EC0181E08C838D839E012F5EE5
:104E60003F4F3F832E83198618861D861C861F861A
:104E70001E86188A23ED31E03983288321EE31E044
:104E80003B872A878A8B8B8B81EC898B0E94F12A46
:104E9000BE01DF91CF910C94AD2A8CED95E00C947E
:104EA00028270895FC01E05AFF4F1082399610829E
:104EB0003697262F30E0318320838F599F4F6865C6
:104EC00070E0FC0171836083809143019FEF980F34
:104ED0009093430181110C94E23108950F931F9335
:104EE000CF93DF9300D000D01F92CDB7DEB78C01F7
:104EF000FC01EF59FF4F21E045E0BE016F5F7F4F9E
:104F000080810E94FA3189818130C9F4F801EB591E
:104F1000FF4F8A81808331968B81808331968C818B
:104F2000808331968D81808381E00F900F900F9068
:104F30000F900F90DF91CF911F910F91089580E016
:104F4000F4CF8B599F4FFC016081718182819381E5
:104F500008950F93CF93DF93CDB7DEB769970FB660
:104F6000F894DEBF0FBECDBF20E8260F2983FC01D9
:104F7000E05AFF4F4081DE01129628E1629FB001A6
:104F8000112430E020E0F901E60FF71FE80FF91FC8
:104F9000E0814E1708F5E41BF0E0E35BFA4FE49183
:104FA000ED932F5F3F4F2831310569F78F599F4FA0
:104FB00000E021E049E1BE016F5F7F4FFC0180818D
:104FC0000E94423269960FB6F894DEBF0FBECDBF85
:104FD000DF91CF910F910895E0E0DECFCF93DF9383
:104FE000EC01C759DF4F688121E0260F28830E941A
:104FF000A9278881843009F41882DF91CF91089520
:105000001F920F920FB60F9211242F933F938F93FD
:105010009F93AF93BF938091F1059091F205A0917A
:10502000F305B091F4053091F00523E0230F2D37FF
:1050300058F50196A11DB11D2093F0058093F1054F
:105040009093F205A093F305B093F4058091F505D4
:105050009091F605A091F705B091F8050196A11D74
:10506000B11D8093F5059093F605A093F705B093D5
:10507000F805BF91AF919F918F913F912F910F9024
:105080000FBE0F901F90189526E8230F0296A11DC2
:10509000B11DD2CF2FB7F8946091F1057091F20550
:1050A0008091F3059091F4052FBF08953FB7F894D0
:1050B0008091F5059091F605A091F705B091F8055E
:1050C00026B5A89B05C02F3F19F00196A11DB11D63
:1050D0003FBFBA2FA92F982F8827BC01CD01620F9F
:1050E000711D811D911D42E0660F771F881F991F5A
:1050F0004A95D1F708958F929F92AF92BF92CF9227
:10510000DF92EF92FF926B017C010E9456284B01C7
:105110005C01C114D104E104F104E9F00E94AB3454
:105120000E945628681979098A099B09683E7340CC
:105130008105910570F321E0C21AD108E108F10858
:1051400088EE880E83E0981EA11CB11CC114D10406
:10515000E104F10429F7FF90EF90DF90CF90BF902A
:10516000AF909F908F900895789484B5826084BDAD
:1051700084B5816084BD85B5826085BD85B581605B
:1051800085BDEEE6F0E0808181608083E1E8F0E0BB
:105190001082808182608083808181608083E0E8EA
:1051A000F0E0808181608083E1E9F0E080818260CD
:1051B0008083808181608083E0E9F0E0808181608C
:1051C0008083E1ECF0E08081846080838081826074
:1051D0008083808181608083E3ECF0E08081816066
:1051E0008083E0ECF0E0808182608083E2ECF0E09C
:1051F000808181608083EAE7F0E080818460808341
:1052000080818260808380818160808380818068EA
:1052100080830895CF93DF931F92CDB7DEB7698364
:10522000DC01ED91FC910280F381E02D41E050E042
:10523000BE016F5F7F4F09950F90DF91CF91089569
:10524000CF93DF93EC018C859D8597FF05C082E0AD
:105250000E94C52D9D878C878C859D85DF91CF9180
:10526000089583E00E94DC2D90E0089583E00C9483
:105270004B30FC018485958597FD06C082E00E9435
:10528000752D90E00196089582E00E94752D90E0C2
:105290000895FC018485958597FD05C02FEF3FEFAC
:1052A00035872487089582E00C94C52DCF93DF9332
:1052B000EC0180914F01882331F083E00E94F62DAC
:1052C0001816190634F081E090E09B838A8380E011
:1052D00090E0DF91CF910895EEEFFFE725913491B3
:1052E00081E02B3F3C4D09F080E00895FC01908166
:1052F0009E5F908342E450E06DE476E080E80C9499
:10530000A72EFC0181819081913A61F4813209F0EC
:1053100083C047E050E068E471E080E00E94A72E7F
:1053200081E00895913209F077C0833269F4828177
:105330009381B0E0A0E08093440190934501A09355
:105340004601B0934701ECCF803239F467E070E05A
:1053500088E491E00E94CD2EE3CF823209F782816A
:1053600080934F010E946C29E0E0F8E0882311F05F
:10537000EEEFFAE08091480190914901A0914A0135
:10538000B0914B01803B9440A105B105D9F48091C7
:105390004F0180FD17C0EE3F8AE0F80771F587E7FF
:1053A00097E791838083809160008093490688E12C
:1053B0009BE00FB6F894A895809360000FBE909381
:1053C0006000AECF808191818737974709F0A8CFE1
:1053D000A895809160008861809360008091490663
:1053E00080936000EE3F8AE0F80789F08091FE0A22
:1053F0009091FF0A9183808393CF80819181873739
:10540000980769F29093FF0A8093FE0AC8CF109222
:10541000FF0A1092FE0A84CF80E008952FEF3FEF3D
:10542000FC01358724870895E9EFF5E013821282A5
:1054300088EE93E0A0E0B0E084839583A683B783F1
:1054400087EE91E0918380838FEF9FEF958784872C
:105450000895EF92FF920F931F93CF93DF937B01F9
:10546000FC01C281D38110E000E0209791F0E88137
:10547000F9810280F381E02DB701CE01099597FDF6
:1054800006C0080F191F0884D985C02DEECF0FEF75
:105490001FEFC801DF91CF911F910F91FF90EF9007
:1054A00008950F931F93CF93DF938B01FC01C2816B
:1054B000D381209771F0E881F9810480F581E02D96
:1054C000B801CE010995009731F40884D985C02D23
:1054D000F0CF90E080E0DF91CF911F910F91089580
:1054E0000F931F93CF93DF938B01FC01C281D38174
:1054F000209771F0E881F9810680F781E02DB801ED
:10550000CE010995080F111D0884D985C02DF0CF53
:10551000F8011082DF91CF911F910F9108950F93A1
:105520001F93CF93DF938B01FC01C281D38120971E
:1055300071F0E881F9810190F081E02DB801CE0190
:105540000995811105C00884D985C02DF0CF80E070
:10555000DF91CF911F910F910895CF93DF93FC01BD
:10556000DB01218114968C911497820F9927991F42
:1055700008978CF5C281D381209731F573836283BC
:10558000908112969C93129713962C9313971596CD
:105590008C911597890F808380E014969C911497C5
:1055A0008917E8F41696CD91DC911797C80FD11D95
:1055B0009881C181D0E0C05BDE4F988391819F5F6D
:1055C00091838F5FEACFEC01888599850097D9F7A1
:1055D000B987A887D5CF80E0DF91CF91089581E08A
:1055E000FBCF80914A0681110DC082E08093520664
:1055F00084E080935306109255061092540681E081
:1056000080934A0682E596E00895FB010190002010
:10561000E9F73197AF01461B570BDC01ED91FC9187
:105620000280F381E02D0994EF92FF920F931F9374
:10563000CF93DF938C017B01D0E0C0E0F701EC0F4A
:10564000FD1F6491662361F0D801ED91FC910190FA
:10565000F081E02DC8010995892B11F02196EECF3C
:10566000CE01DF91CF911F910F91FF90EF900895A0
:10567000DC01ED91FC910190F081E02D099465EF42
:1056800071E00C94052B0F931F93CF93DF93EC01E4
:105690000E94142B8C01CE010E943F2B800F911F82
:1056A000DF91CF911F910F9108958F929F92AF92AA
:1056B000BF92EF92FF920F931F93CF93DF93CDB7DB
:1056C000DEB7A1970FB6F894DEBF0FBECDBF7C0149
:1056D000FA01CB0119A2223008F42AE08E010F5DF5
:1056E0001F4F822E912CB12CA12CBF01A50194013A
:1056F0000E94E434F901CA016A300CF5605DD801FA
:105700006E938D01232B242B252B79F790E080E0DD
:10571000109721F0BD01C7010E94052BA1960FB67D
:10572000F894DEBF0FBECDBFDF91CF911F910F91D7
:10573000FF90EF90BF90AF909F908F900895695C1D
:10574000DECFCF92DF92EF92FF920F931F93CF9312
:10575000DF932115310581F4DC01ED91FC9101907D
:10576000F081E02D642FDF91CF911F910F91FF9079
:10577000EF90DF90CF9009942A30310501F52AE0AF
:1057800077FF1DC06A017B01EC016DE20E94382B9E
:105790008C0144275527BA014C195D096E097F0910
:1057A0002AE0CE010E94552B800F911FDF91CF91EF
:1057B0001F910F91FF90EF90DF90CF900895DF91B0
:1057C000CF911F910F91FF90EF90DF90CF900C94AD
:1057D000552B9A01AB01770F660B770B0C94A12B1D
:1057E0002115310541F4DC01ED91FC910190F0812E
:1057F000E02D642F09940C94552B9A01462F50E00C
:1058000070E060E00C94F02B9A01AB0170E060E076
:105810000C94F02B0F931F93CF93DF93EC010E9416
:105820004A28688779878A879B87E881F981048479
:10583000F585E02DCE01099597FF15C00E944A28F5
:10584000088519852A853B85601B710B820B930B9C
:105850000C811D812E813F8160177107820793079C
:1058600020F38FEF9FEFDF91CF911F910F9108955C
:10587000FF920F931F93CF93DF93EC018B01F42ED4
:10588000CE010E940A2C97FD1DC08D329105D1F0EA
:105890009C01205331092A303105A0F0FF2019F076
:1058A0008E32910579F00130110551F00230110569
:1058B00089F48D30910571F05CF40997029750F0EE
:1058C0008FEF9FEFDF91CF911F910F91FF90089580
:1058D0008097B1F7E881F9810284F385E02DCE014C
:1058E0000995CECFBF92CF92DF92EF92FF920F93A6
:1058F0001F93CF93DF938C01C42F40E00E94382C7C
:10590000FC01C12CD12C760197FD3EC0B12C0C2E90
:10591000000CDD0BCE17DF07D9F0ED32F10509F4ED
:105920003FC0CF01C0970A9798F4AAE0B0E0A70162
:1059300096010E9423356F01FF0FEE08FF08C60E87
:10594000D71EE81EF91E80E3C81AD108E108F10845
:10595000D801ED91FC910284F385E02DC8010995F1
:10596000C8010E940A2CFC01C0970A9798F2CE1732
:10597000DF0781F2BB2041F0F094E094D094C09412
:10598000C11CD11CE11CF11CC701B601DF91CF91F4
:105990001F910F91FF90EF90DF90CF90BF900895EF
:1059A000BB24B394D5CF4091590650915A0620910B
:1059B00057063091580642175307B4F49091E80007
:1059C0009570E1F39091E80092FD19C08093F10089
:1059D0008091590690915A0601968F739927892BC9
:1059E00019F48EEF8093E8008091590690915A0641
:1059F000019690935A068093590681E0089580E0BD
:105A00000895EF92FF920F931F93CF93DF93F82E99
:105A1000192FE62E042F81E0860F880F0E94D32CC9
:105A200083E00E94D32CCF2DD12FEC0EFD2EF11C44
:105A3000CE15DF05B9F007FF13C0FE0184910E9467
:105A4000D32C182F80E00E94D32C81232196811122
:105A5000EFCFDF91CF911F910F91FF90EF900895BD
:105A60008881EDCF81E0F5CF8091D7008160809370
:105A7000D70080EA8093D80089B5806189BD89B557
:105A8000826089BD09B400FEFDCF61E070E080E076
:105A900090E00E947B288091D8008F7C8061809369
:105AA000D8008091E000807F8093E0000895CF933C
:105AB000DF931F92CDB7DEB71982CE0101960E9407
:105AC00076290E94F12ABE016F5F7F4F0E94292A2A
:105AD00089810F90DF91CF9108952FB7FC0120832A
