:100000000C94C5030C94ED030C94ED030C94ED03D8
:100010000C94ED030C94ED030C94ED030C94ED03A0
:100020000C94ED030C94ED030C940D310C94B02F53
:100030000C94ED030C94ED030C94ED030C94ED0380
:100040000C94ED030C94ED030C94ED030C94ED0370
:100050000C94ED030C94ED030C94ED030C94B82870
:100060000C94ED030C94ED030C94ED030C94ED0350
:100070000C94ED030C94ED030C94ED030C94ED0340
:100080000C94ED030C94ED030C94ED030C94ED0330
:100090000C94EE320C94ED030C94ED030C94ED03F0
:1000A0000C94ED030C94ED030C94ED03035102004A
:1000B00000370403043E04150400210437273800E8
:1000C00000006C6F63616C6C79206275696C7420E0
:1000D0006F6E204E6F762031382032303231206101
:1000E000742032333A30383A3330004B6579626FDE
:1000F000617264696F204D6F64656C203031202D12
:10010000204B616C6569646F73636F70652000FFDD
:10011000FF1E001F002000210022000043E000E439
:10012000000160230024002500260027000144353B
:100130000014001A000800150017002B002A002CDC
:100140000028001C0018000C00120013002E004BA9
:100150000004001600070009000A002900E300E27D
:1001600000E6000B000D000E000F00330034004EBF
:10017000001D001B000600190005002C44E100E5ED
:10018000002C44110010003600370038002D00FF0D
:10019000FFFFFFFFFFFFFFFFFFFFFFFFFFFFFFFF6F
:1001A000FF0060FFFF2400250026005600FFFFFF30
:1001B000FFFFFFFFFFFFFFFFFFFFFFFFFFFFFFFF4F
:1001C000FFFFFFFFFF2100220023005700FFFFFF7A
:1001D000FFFFFFFFFFFFFFFFFFFFFFFFFFFFFFFF2F
:1001E000FFFFFFFFFF1E001F0020002E00FFFFFF8C
:1001F000FFFFFFFFFFFFFFFFFFFFFFFFFFFFFFFF0F
:10020000FFFFFFFFFF27003700550054002800FFC5
:10021000FF3A003B003C003D003E003900FFFFFF7D
:10022000FFB6483F00400041004200430044002B1D
:1002300000FFFF0150FFFF4250605029504C002842
:1002400000CD48B5482F0830082F00300045004A3F
:1002500000045002500850415025502A50FFFFFF23
:10026000FF65005000510052004F00FFFFFFFF4D9F
:100270000046004900FFFF44502650FFFFFFFFFFEC
:10028000FFFFFFE248EA48E948FFFF310031080379
:10029000040B0C13141A1B24252B2C33343B3C0267
:1002A000050A0D1215191C23262A2D32353A3D0157
:1002B00006090E1116181D2227292E3136393E0047
:1002C00007080F10171F1E2120282F3037383F0036
:1002D000000000000000000000000000000000001E
:1002E0000000000000000000000000010101010109
:1002F00001010101010101010202020202020202E6
:1003000003030303030303040404040405050505B0
:1003100006060606070707070808080909090A0A62
:100320000A0B0B0B0C0C0D0D0D0E0E0F0F101011F8
:10033000111212131314141515161617181819196B
:100340001A1B1B1C1D1D1E1F2020212223232425B8
:1003500026272728292A2B2C2D2E2F3031323233D5
:1003600034363738393A3B3C3D3E3F4042434445C2
:100370004648494A4B4D4E4F515253555657595A7C
:100380005C5D5F606263656668696B6D6E707273F9
:100390007577787A7C7E7F81838587898A8C8E9039
:1003A000929496989A9C9EA0A2A4A7A9ABADAFB137
:1003B000B4B6B8BABDBFC1C4C6C8CBCDD0D2D5D7EC
:1003C000DADCDFE1E4E7E9ECEFF1F4F7F9FCFF0553
:1003D000010906A101050719E029E71500250175A6
:1003E0000195088102950175088101950575010542
:1003F000081901290591029501750391019506756A
:1004000008150025FF0507190029FF8100C0050C0C
:100410000901A1018504150026FF0319002AFF0325
:10042000950475108100C005010906A10185080524
:100430000719E029E71500250175019508810205D6
:100440000819012908950875019102050775049599
:10045000018101190429DD15002501750195D98156
:1004600002750395018101C005010980A10185057F
:10047000150026FF00190029FF950175088100C0AD
:10048000656570726F6D2E66726565006565707268
:100490006F6D2E636F6E74656E7473006565707238
:1004A0006F6D2E636F6E74656E74730A656570721E
:1004B0006F6D2E66726565002F006372630076654E
:1004C0007273696F6E0076616C69643F0064656683
:1004D00061756C744C617965720073657474696ED2
:1004E00067732E0073657474696E67732E64656636
:1004F00061756C744C617965720A73657474696EA8
:1005000067732E76616C69643F0A73657474696EF3
:1005100067732E76657273696F6E0A73657474699A
:100520006E67732E63726300637573746F6D00641E
:10053000656661756C74006F6E6C79437573746F6A
:100540006D006B65796D61702E006B65796D617002
:100550002E637573746F6D0A6B65796D61702E64AF
:10056000656661756C740A6B65796D61702E6F6E6E
:100570006C79437573746F6D00454550524F4D4B08
:1005800065796D61700066616C7365007472756584
:1005900000706C7567696E730068656C700A706CCA
:1005A0007567696E730068656C70000D0A2E004DEA
:1005B0006F7573654B657973004D6163726F73007E
:1005C0001E083408200821082208240834002608C0
:1005D000270825082E0836002D0037003800270090
:1005E0003308330036082E00370838081F082F005C
:1005F0003100300023082D0835002F08310830085D
:100600003508636F6C6F726D61702E6D61700043A1
:100610006F6C6F726D6170456666656374007061C2
:100620006C65747465004D61676963436F6D626FDB
:10063000006573636170655F6F6E6573686F742EBC
:1006400063616E63656C5F6B657900657363617090
:10065000655F6F6E6573686F742E63616E63656C42
:100660005F6B6579004573636170654F6E655368B4
:100670006F74004F6E6553686F740051756B6579C8
:1006800073005370616365436164657400080B0017
:100690000202020000090400000102020000052419
:1006A00000100105240101010424020605240600AE
:1006B000010705810310004009040100020A00003F
:1006C00000070502024000000705830240000012F7
:1006D000010002EF0201400912012300010102039F
:1006E000014B6579626F617264696F004D6F64657B
:1006F0006C203031000403090405010902A10185C1
:1007000001050919012908150025019508750181C0
:100710000205010930093109381581257F750895D1
:10072000038106050C0A38021581257F750895019D
:100730008106C005010902A1010509190129081551
:10074000002501950875018102050109300931165E
:10075000000026FF7F75109502810209381581255A
:100760007F750895018106C0390B4D0B840B5B0D1D
:10077000A60F3F1033119211EF13621BAB1B0C1C21
:100780007F258927CC2AB4313A3611241FBECFEFFA
:10079000DAE0DEBFCDBF11E0A0E0B1E0E8EAFEE6BE
:1007A00002C005900D92AA3CB107D9F726E0AAEC49
:1007B000B1E001C01D92AB33B207E1F713E0C5EC25
:1007C000D3E004C02197FE010E949A36C43BD107B2
:1007D000C9F70E94F0030C9452370C94000008955E
:1007E0000E946C290E94EF0389E395E00E94853105
:1007F0000E947905C0E0D0E00E94AA052097E1F3AD
:100800000E940000F9CFFC01892B69F08AE791E092
:1008100091838083738362831582148281E086834F
:1008200017828FEF8087CF010895009739F02CE869
:1008300031E0FC013183208373836283FB014083B9
:1008400008958BE494E00C947F1E089586E0E4E51F
:10085000F1E0DB0101900D928A95E1F786E00895C1
:10086000CF93DF93EB01882339F08130B9F090E02A
:1008700080E0DF91CF910895898181FFF8CF80FDDD
:10088000F6CF6BEE70E086E294E00E948C1A62EC88
:1008900070E086E294E00E948C1AE9CF898181FFA2
:1008A000E6CF80FDE4CF0E94022924E230E040E060
:1008B00050E00E9478366C5F6A831B82D8CF009725
:1008C00019F0029719F008950C94ED0A0C94D50ACA
:1008D0000C945F048DEE93E00E942F1485E694E063
:1008E0000E9446228BE994E00E94F12580E594E085
:1008F0000E9472208EE394E00E94E01B86E294E066
:100900000E94011B83E194E00E94F61588E494E0C4
:100910000E94081E8CE494E00C94FA1E84EE93E08E
:100920000E94BB118DEE93E00E9424148BE492E0B0
:100930000E94DC0A83E194E00E9404168CE494E0B7
:100940000C94C11E84EE93E00E94C41286E494E0ED
:100950000E94E31D90E080E00895CF93DF93EC01C7
:10096000BC0185E694E00E94CB24009739F4BE01D7
:100970008BE994E0DF91CF910C940827DF91CF9120
:100980000895CF93DF93EC01BC018BE492E00E94C9
:10099000F70A009719F5BE0180E594E00E949120C6
:1009A0000097E1F4BE018AEC94E00E948D27009745
:1009B000A9F4BE0186E294E00E94AA1A009771F49D
:1009C000BE0183E194E00E943D17009739F4BE0117
:1009D0008FE494E0DF91CF910C94501FDF91CF9181
:1009E000089590E080E00895CF93DF93EC01BC017F
:1009F0008DEE93E00E94B914009751F5BE0182EF8D
:100A000093E00E947615009719F5BE0183EE93E0FE
:100A10000E94CD120097E1F4BE0182EE93E00E94A5
:100A200046130097A9F4BE018EE394E00E94FD1BDB
:100A3000009771F4BE0183E494E00E94D41C0097F7
:100A400039F4BE018CE494E0DF91CF910C94081F3F
:100A5000DF91CF9108958EE394E00E94EE1B90E029
:100A600080E0089590E080E008958AEC94E00E9490
:100A7000632890E080E00895BC0186E294E00C9445
:100A8000E21ABC0180E594E00E94442290E080E0FC
:100A9000089582EF93E00E94AC158BE492E00E94EF
:100AA000170A85E694E00E943E258BE994E00E94B7
:100AB000A42680E594E00E94CE2183E194E00E9488
:100AC000351688E494E00E94161E90E080E00895B8
:100AD000ECEAF0E0849108959B0194E0899FB001D5
:100AE000112463557F4F44E050E0C9010C94F43663
:100AF000089580915C0190915D010E946C0666E909
:100B000089E394E00E945C1B66E987E394E00E941D
:100B10005F1B8091CA01811107C082ED91E00E94A4
:100B2000A51B81E08093CA0182ED91E090933D0482
:100B300080933C0481E592E00E943E0B85E00E9498
:100B40004A1465E08EE394E00E94D01B81E080931C
:100B5000C704089580915C0190915D010C948A0610
:100B60008EE493E00E94E70E811104C08EE493E0CE
:100B70000C94880F8BE893E00E9423118DE693E09C
:100B80000C9404108EE493E00E94E70E811104C0DF
:100B90008EE493E00C94ED0E8BE893E00E946F10CE
:100BA0008DE693E00C941710CF93C82F8EE493E05A
:100BB0000E94E70E6C2F811105C08EE493E0CF9167
:100BC0000C94290F8BE893E0CF910C94D310CF9322
:100BD000C82F83FF03C081EE0E94D405C0FF03C06D
:100BE00080EE0E94D405C1FF03C082EE0E94D405AE
:100BF000C2FF03C086EE0E94D405C4FF04C083EE8A
:100C0000CF910C94D405CF910895CF93C82F892FFD
:100C10000E94E7058C2FCF910C94D405CF93C82F59
:100C20008EE493E00E94E70E6C2F811105C08EE4E4
:100C300093E0CF910C94500F8BE893E0CF910C94FC
:100C4000FA10FC019081DB018C91981305C081E0C2
:100C5000218111969C91291380E008951F93CF93D1
:100C6000DF9300D000D0CDB7DEB7182F803468F501
:100C7000E82FF0E0EE0FFF1FEC5BFA4F80819181CF
:100C80009C838B838FEF89838A83BE016F5F7F4F45
:100C9000CE0103960E942106882369F0A12FB0E0BF
:100CA000AD51BE4FE0910201F0910301612F8C9193
:100CB00009958B839C838B819C810F900F900F9063
:100CC0000F90DF91CF911F9108951092C40510925B
:100CD000C505E4ECF5E0D2CF40E855E260E070E015
:100CE0008CED94E00E94C62A0E9425040E948E0486
:100CF00085E592E00E94510DE4E4F5E081E49FEF88
:100D0000815021F0908391833296FACF82EE91E068
:100D10000C940F090E9402296093DE017093DF0199
:100D20008093E0019093E1010E94A2040E94150DBE
:100D30000C9449051F93CF93DF93C62F172F862F4F
:100D4000972F0E94F104029709F1812F807C61F4B2
:100D500080E28C0F883008F010E08C2F912FDF910B
:100D6000CF911F910C940506812F887C883471F4F3
:100D7000612F70E0762F66276C0F711D73708DE602
:100D800093E0DF91CF911F910C94EF0FDF91CF9102
:100D90001F9108958F929F92BF92CF92DF92EF9210
:100DA000FF920F931F93CF93DF9300D000D000D01A
:100DB000CDB7DEB77C016B010E94B00510E000E00A
:100DC000BB24BA940034110599F1F6019081901773
:100DD00029F1003430F5F801EE0FFF1FEC5BFA4FFC
:100DE000808091809E828D82BB82BC82BE016D5FBD
:100DF0007F4FCE0105960E94210681110FC01982F6
:100E00001A82BE016F5F7F4FCE0105960E942106B8
:100E1000811104C0B401C7010E949A060F5F1F4FE1
:100E2000D1CF1092C4051092C505E4ECF5E0D8CFFF
:100E300026960FB6F894DEBF0FBECDBFDF91CF91DF
:100E40001F910F91FF90EF90DF90CF90BF909F90F8
:100E50008F900895EF92FF920F931F93CF93DF939C
:100E60008C01EB01898181FF43C080FD41C08B81F2
:100E7000807CF1F5888180930101FA808EE493E013
:100E80000E94E70E6F2D81112EC08EE493E00E9428
:100E9000990F882301F1FB80EA80F3FE03C081EE05
:100EA0000E940E06F0FE03C080EE0E940E06F1FEC8
:100EB00003C082EE0E940E06F2FE03C086EE0E9480
:100EC0000E06F4FE03C083EE0E940E068E2D0E94D5
:100ED0000E060E94C2058B81882379F00E94E705E7
:100EE0000E94C2050AC08BE893E00E94BD10D1CFDA
:100EF000E09101018881E81317C0898181FF07C053
:100F000080FD05C06A817B81C8010E949A06CE01DE
:100F10000E943C050297E9F0DF91CF911F910F915C
:100F2000FF90EF900C94C205E03460F4F0E0EE0F17
:100F3000FF1FEC5BFA4F8181982F907CF1F60E94A5
:100F4000E705DBCF1092C4051092C505E4ECF5E08F
:100F5000F2CFDF91CF911F910F91FF90EF90089505
:100F6000FF920F931F93CF93DF93CDB7DEB72D97EB
:100F70000FB6F894DEBF0FBECDBF8C0129873A872C
:100F80004B875C876D87203448F430FF62C031FDA9
:100F900060C089850E942E069C878B87CE010996AA
:100FA0000E94C1048230910509F447C0E985E0340C
:100FB00068F42A85F0E0EE0FFF1FEC5BFA4F20FF8C
:100FC00055C021FD53C02FEF20832183892BA9F524
:100FD0001F821886BE01695F7F4FCE010B960E946B
:100FE000210681112AC01D821E82BE016B5F7F4FC8
:100FF000CE010B960E94210681111FC0FF24FA9496
:10100000FB82FC82BE016D5F7F4FCE010B960E947A
:101010002106811112C0F982FA82BE016F5F7F4FF3
:10102000CE010B960E942106811107C08C85843465
:1010300009F5CE0109960E94A2092D960FB6F894E3
:10104000DEBF0FBECDBFDF91CF911F910F91FF90FB
:1010500008958FEF89838A83BE016F5F7F4FCE0132
:101060000B960E942106811194CF98CF2C853B8549
:101070003083ABCF8F7C8134B9F48A851B8581FFA7
:101080000AC080FD08C0612F83ED93E00E947A11B1
:1010900010935A02D2CF80915A028113CECF83EDA2
:1010A00093E00E947811C9CFBE01675F7F4FC801EE
:1010B0000E94CA06BE01675F7F4FC8010E942A07CF
:1010C000CE0109960E944105B8CFEF92FF920F938F
:1010D0001F93CF93DF9300D000D000D01F92CDB7E5
:1010E000DEB7022F2B833C834D835E836F832034D6
:1010F00008F042C07C01832F817031FF22C0811132
:101100003BC08FEF89838A83BE016F5F7F4FCE0123
:1011100005960E942106882329F0802F0E942E0622
:101120009E838D83CE0103960E94AD04892B21F509
:101130002B813C814D815E816F81C7010E94B00788
:101140001BC08823C9F010E0000F111F0C5B1A4F61
:10115000F801808191819E838D8319821A82BE015C
:101160006F5F7F4FCE0105960E9421068823D1F242
:101170008FEFF8018083818327960FB6F894DEBF46
:101180000FBECDBFDF91CF911F910F91FF90EF90D8
:10119000089520E4829FC0011124680F792F711DEA
:1011A000660F771FFB01E15FFE4F8491FB01E05F5B
:1011B000FE4F94910895EF92FF920F931F93CF9358
:1011C000DF93E3EEF1E080E4DF011D928A95E9F719
:1011D0007F0110E01034E1F0C0910401D0E0CD5D5A
:1011E000DD4FB2E0C332DB0771F00A91E0910201FA
:1011F000F0910301612F802F09958F3F11F49F3FDC
:1012000081F3F70100831F5FFFEFEF1AFF0AE2CFC0
:10121000DF91CF911F910F91FF90EF9008950C9463
:10122000DB0890910001891708F080E091E090932D
:101230000401809323020E94DB080C942B0540914B
:10124000040150E090E0682F70E0292F092E000C77
:10125000330B2417350764F42D5D3D4FF9012081D0
:10126000022E000C330B2617370721F09F5FEDCFBE
:1012700080E0089581E00895CF939091000189174F
:10128000A0F4C82F0E941F0981110FC0E091040132
:1012900081E08E0F80930401F0E0ED5DFD4FC0838F
:1012A0000E94DB08CF910C942B05CF910895CF932A
:1012B000DF93D82F0E941F09882381F1C091040178
:1012C000C23028F480E0DF91CF910C941109E3E261
:1012D000F2E090E080E02D2F30E04191042E000CF0
:1012E000550BBC016F5F7F4F4217530799F44C2F8A
:1012F00050E0481B590B6D5D7D4F8D5D9D4F0E94E9
:101300002A37C150C09304010E94DB08DF91CF91BE
:101310000C942B05CB016C1700F3F6CFDF91CF9126
:101320000895E0910401F0E0EE5DFD4F80818F5F54
:101330000C943C09E0910401F0E0EE5DFD4F8081EA
:101340000C945709CF93DF93FC01C2819181292F1F
:101350002270C43558F0222309F450C090FD4EC0CD
:101360008CEA8C0FDF91CF910C941109CA32C8F12D
:10137000D6EDDC0FD13251F0D23281F4222351F07C
:1013800090FD08C0DF91CF910C9491092223D1F3F5
:1013900090FDF8CFDF91CF910C949A09211110C0E4
:1013A000A4E4B5E081E48150B9F09C91C91306C072
:1013B00011962C9111979381291701F11296F3CF71
:1013C00090FDEECF8D2F0E941F09811117C08D2F28
:1013D000DF91CF910C943C098D2FDF91CF910C942C
:1013E0005709222359F090FD09C08C2F0E941F0934
:1013F000882311F08C2FF1CF8C2FEACFDF91CF9182
:1014000008950C94E70B803438F4E82FF0E0E157AE
:10141000FD4F84910C94E70B8FEFFCCF8091060178
:10142000882321F00E9435050C942E0C089580919C
:101430000601882361F18091DE019091DF01209106
:101440004C0230914D02821B930B2091050128170D
:10145000190609F0E0F40E940E0A8091050120911E
:101460004C0230914D02820F932F911D90934D02AB
:1014700080934C0280914E0290914F02009739F078
:10148000DC01ED91FC910480F581E02D099590E05F
:1014900080E0089580914202811105C010924A02B5
:1014A00081E0809342028AE492E00895CF92DF9235
:1014B000EF92CF936B01E82E0E944A0AC0E06E2D96
:1014C000A6018C2F0E94010ACF5FC034C1F7CF91D3
:1014D000EF90DF90CF90089560E070E080E00E9490
:1014E000560A80914E0290914F02009739F0DC012C
:1014F000ED91FC910280F381E02D09940895909183
:101500005002891778F4809307010E94540B90933E
:101510004F0280934E028091060181110E946C0A55
:101520000C9432050895809107018F5F8093070125
:1015300090915002891708F080E00C947F0A809106
:101540000701811102C080915002815080930701F0
:10155000809107010C947F0AEF92FF921F93CF9323
:10156000DF9300D000D0CDB7DEB77C0110E08091D2
:101570005002181770F4BE016F5F7F4F812F0E94D9
:101580006C0589819A81E816F90669F4812F0E9419
:101590007F0A0F900F900F900F90DF91CF911F91C6
:1015A000FF90EF9008951F5FE2CF81E080930601E6
:1015B0000E946C0A0C942E0C60E070E080E00E94A7
:1015C000560A0E947805809107018F3F19F480E048
:1015D0000E947F0A90E080E0089560E070E080E083
:1015E0000E94560A0E942E0C109206010895FB01DB
:1015F00083818334D9F5818181FF2DC080FD2BC08B
:101600008281882359F0813049F0823021F5809120
:101610000601882341F10E94ED0A1DC0E4E4F5E0D3
:1016200021E4215081F090813181432F407C49F4A5
:1016300040E2490F483028F49B7F913E79F033FD1A
:101640000DC03296EECF90E021E0811120E092179C
:1016500039F00E94930A81E090E0089591E0F4CF80
:101660000E949F0AF8CF0E94D50AF5CF90E080E053
:1016700008950E9468058093500208950C94AC0A66
:101680000895089560E070E080E00C94560A862F7B
:1016900040E050E060E00C94030A82E691E0909311
:1016A00052028093510208951F93CF93DF9300D08D
:1016B00000D0CDB7DEB79091080198130CC080918F
:1016C0005302909154020F900F900F900F90DF9162
:1016D000CF911F910895182F80930801BE016F5F6D
:1016E0007F4F0E946C05EB81FC8189819A81309744
:1016F00031F069817A81412F84ED91E009959093D1
:10170000540280935302DBCF10925A0208958EE464
:1017100093E00E948F0F8BE893E00E9429118DE6E1
:1017200093E00E943D1083ED93E00C947611CF93EB
:10173000DF9300D000D01F92CDB7DEB7262F342F15
:10174000842F817041FF15C0811115C08091430520
:1017500061E0680F609343054FEF5FEF8DED91E01F
:101760000F900F900F900F900F90DF91CF910C94EE
:1017700065088111EBCF0F900F900F900F900F9095
:10178000DF91CF9108956E9A769824982C980895B9
:10179000803420F060E070E080E00895282F30E091
:1017A000803258F4F901EE0FFF1FE20FF31FE452ED
:1017B000FD4F608171818281089520523109F901C4
:1017C000EE0FFF1FE20FF31FEE58FD4FF2CF0F9306
:1017D0001F93CF93DF93C82F8A01D62F8032F8F45E
:1017E0000E94C80BD81319C081E0171303C0061359
:1017F00001C080E090910901892B8093090123E0C9
:10180000C29FF0011124E452FD4F00831183D28363
:10181000DF91CF911F910F91089581E0EBCF80343C
:10182000B8F70E94C80BD81317C081E0171303C084
:10183000061301C080E090910901892B8093090172
:101840002C2F2052330BC901F901EE0FFF1FE80FB7
:10185000F91FEE58FD4FD9CF81E0EDCF80910901FE
:10186000882311F18CED92E00E94010E82E792E054
:101870000E94010E8CED92E00E94010E82E792E040
:101880000E94010E8CED92E00E94010E82E792E030
:101890000E94010E8CED92E00E94010E82E792E020
:1018A0000E94010E1092090108953F9A479A0895E7
:1018B0000FB6F894A89580916000886180936000CD
:1018C000109260000FBE64E670E080E090E00E943D
:1018D00033290C94550C80916E0290916F02A09167
:1018E0007002B09171028093660290936702A09398
:1018F0006802B093690280916A0290916B02A09194
:101900006C02B0916D028093620290936302A09387
:101910006402B09365028CED92E00E94810D8823F1
:1019200061F08CED92E00E94B40D60936E027093B2
:101930006F02809370029093710282E792E00E949E
:10194000810D882361F082E792E00E94B40D6093DC
:101950006A0270936B0280936C0290936D020895FB
:10196000FF920F931F93CF93DF93F42E641302C063
:101970006623E1F08295807F182F120F00E0C62FBA
:10198000D0E0AE01440F551F42708F2D8170482B5F
:1019900031F0612F601B80E090E00E94970BF6947D
:1019A0000F5FD595C7956C2F083049F7DF91CF9120
:1019B0001F910F91FF900895AF92BF92CF92DF9247
:1019C000EF92FF920F931F93CF9386E6A82E82E0AB
:1019D000B82E9EE6C92E92E0D92E22E6E22E22E013
:1019E000F22E0AE612E0C0E0F50141915F01F60136
:1019F00061916F0127E08C2F0E94B00CF70141919B
:101A00007F01F80161918F012FE08C2F0E94B00CB3
:101A1000CF5FC43049F7CF911F910F91FF90EF90A6
:101A2000DF90CF90BF90AF9008950E946B0C0C9404
:101A3000DC0C282F2F7082958F7090E0422F50E0A1
:101A4000283080F482599D4FFC01808190E027E08E
:101A500030E0241B350B02C0959587952A95E2F757
:101A60008170089586599D4FFC01808190E02FE0A0
:101A700030E0EFCF60916E0270916F028091700242
:101A8000909171020E94A036282F60916A02709195
:101A90006B0280916C0290916D020E94A036820FC1
:101AA00008950E94C30B0E94870B0E94580C8CE083
:101AB0008093B800089560E08CED92E00E94650D7F
:101AC00063E082E792E00C94650DFC01E05AFF4F61
:101AD0001082399610823697262F30E0318320838A
:101AE0008F599F4F686570E0FC017183608380911E
:101AF0000A019FEF980F90930A0181110C942B32E9
:101B000008950F931F93CF93DF9300D000D01F92BF
:101B1000CDB7DEB78C01FC01EF59FF4F21E045E066
:101B2000BE016F5F7F4F80810E9443328981813087
:101B3000C9F4F801EB59FF4F8A81808331968B817C
:101B4000808331968C81808331968D81808381E082
:101B50000F900F900F900F900F90DF91CF911F91EA
:101B60000F91089580E0F4CF8B599F4FFC01608165
:101B700071818281938108950F93CF93DF93CDB7C5
:101B8000DEB769970FB6F894DEBF0FBECDBF20E871
:101B9000260F2983FC01E05AFF4F4081DE01129697
:101BA00028E1629FB001112430E020E0F901E60F46
:101BB000F71FE80FF91FE0814E1708F5E41BF0E06E
:101BC000E153FD4FE491ED932F5F3F4F28313105F5
:101BD00069F78F599F4F00E021E049E1BE016F5F37
:101BE0007F4FFC0180810E948B3269960FB6F8947A
:101BF000DEBF0FBECDBFDF91CF910F910895E0E022
:101C0000DECFCF93DF93EC01C759DF4F688121E02E
:101C1000260F28830E94BC0D8881843009F4188225
:101C2000DF91CF910895FC0182818F5BFB0180835E
:101C300081E00895CF93DF93CDB7DEB769970FB6F4
:101C4000F894DEBF0FBECDBFFC01DB019C919F5F0E
:101C50009C939E012D5F3F4F81E1D9011D928A9592
:101C6000E9F729E0298384E08A8391E09D8383E07A
:101C70008E839F8398872A8721E22B879C879D8765
:101C80009F8722E2288B2FE3298B27E02B8B25E0EF
:101C90002C8B8E8B20E430E0388F2F8B998F8281B4
:101CA0008B83838180688D8B49E150E0BE016F5F3B
:101CB0007F4F80E00E945F2F69960FB6F894DEBFD9
:101CC0000FBECDBFDF91CF910895FC01DB018C9158
:101CD0008138A9F413968C911397823281F4228172
:101CE00014968D919C912817190649F48285848F4A
:101CF0004FE350E06FEC73E080E80C945F2F90E0CE
:101D000080E00895FC01DB01228114968D919C9165
:101D100015972817190681F511968C9111979C91AA
:101D2000913A69F4813029F0833029F4848D8093CD
:101D3000F10081E008958230F9F4858DF8CF913279
:101D4000D9F48B3021F412968C91848FF2CF8A30A3
:101D500011F4158EEECF893079F4CF0116962D91BE
:101D60003C91179713964C91423041F461E070E03A
:101D70004E962130310551F080E008954130E1F771
:101D800028303105C9F768E070E00B960E94852F76
:101D9000D0CFCF93DF93EC0181E08C838D839E01C4
:101DA000255E3F4F3F832E83198618862EE631E04D
:101DB000398328838A876C8F8D8F1E8E81EC8B8F61
:101DC0000E94A92BBE01DF91CF910C94652BFC01E1
:101DD000848D0895FC01648F0895EF92FF920F9314
:101DE0001F93CF93DF938C01EC012B967C0183E151
:101DF000E80EF11C48E050E0BE01C7010E94143714
:101E0000892B21F1F801838148E050E0BE01806414
:101E10000E94AE2E8C01E0910806F09109063097E1
:101E200031F09C0148E050E0BE0182E0099588E075
:101E3000FE01D70101900D928A95E1F7C801DF916B
:101E4000CF911F910F91FF90EF9008950FEF1FEF2B
:101E5000F5CFFC0180E2860F883070F4605E770B6E
:101E600021E030E001C0220F6A95EAF78385822BDA
:101E7000838781E090E00895DF011D9690E080E087
:101E80002D912617B1F3211104C0E80FF91F6587C2
:101E9000F0CF01968630910599F790E080E00895A3
:101EA000CF93DF9320E2260F283090F4605E770B0B
:101EB00021E030E001C0220F6A95EAF72095FC018D
:101EC00033852323238781E090E0DF91CF9108952C
:101ED000DC011D969C012D5E3F4FFD014191461393
:101EE00003C0EF0121971882E217F307B9F720E04A
:101EF0003D91332349F0EC01C20FD11D4D853D8743
:101F0000ED01219748832F5FAE17BF0789F7DBCF1D
:101F10000B9628E0FC0111922A95E9F70895CF93DA
:101F2000DF93EC010E94880FCE01DF91CF910C94DA
:101F3000ED0EFC013D9643962191261729F0E817F6
:101F4000F907D1F780E0089581E0089520914603D4
:101F500030914703409148035091490360914A03EF
:101F600070914B0380914C0390914D03A1E00E942E
:101F7000C23620934603309347034093480350935F
:101F8000490360934A0370934B0380934C039093EF
:101F90004D030E94CE3629F461E08EE493E00C9468
:101FA000C90E089580917D03811113C0109286039C
:101FB000109285038EE094E09093880380938703CA
:101FC00089E190E090938A038093890381E0809374
:101FD0007D030E94E53465E873E00C945234FC0103
:101FE00030E020E041915191452B41F4220F331F05
:101FF000280F391FF9017183608308952F5F3F4FC8
:102000002430310579F7089528E0FC0111922A95D2
:10201000E9F70895CF93DF93EC010E94E53428E0BF
:1020200030E0AE0164E0DF91CF910C94A2340F93C5
:102030001F93CF93DF93EC018C01085F1F4F48E0A3
:1020400050E0BC01C8010E941437892B51F0CE0129
:102050000E940A1088E0FE01D80101900D928A9535
:10206000E1F7DF91CF911F910F91089528E0FC01D6
:1020700011922A95E9F70C9417100C9436108DE6FE
:1020800093E00C94D20F8091C503811113C010927C
:10209000CE031092CD0387E294E09093D003809317
:1020A000CF0381E490E09093D2038093D10381E049
:1020B0008093C5030E94E5346DEC73E00C945234B8
:1020C000CF93DF93EC010E94E534AE01435E5F4F96
:1020D0002DE130E068E0DF91CF910C94A234EF92D3
:1020E000FF920F931F93CF93DF93EC01F8808D8DB8
:1020F0008E010F5F1F4F8F15D9F0F801AE01435EBF
:102100005F4F20E0858D30813196932F90959823F5
:1021100019F08323848F21E0E417F50799F7222330
:1021200019F0CE010E946010FD8ECE010E94601059
:102130007E018EE1E80EF11C4CE150E0B801C701D0
:102140000E941437892B81F08CE1F801D7010190AE
:102150000D928A95E1F7CE01DF91CF911F910F91FA
:10216000FF90EF900C9460108FEF9FEFDF91CF9175
:102170001F910F91FF90EF9008956E3D90F4E62F20
:10218000E695E695E695E80FF92FF11D677021E0D9
:1021900030E001C0220F6A95EAF79181922381E035
:1021A00009F480E008956E3DA0F4E62FE695E695EB
:1021B000E695E80FF92FF11D677021E030E001C0CE
:1021C000220F6A95EAF78181822B818381E090E07A
:1021D0000895605E683058F441E050E001C0440F5B
:1021E0006A95EAF7FC012081242B2083EFCF90E051
:1021F00080E008956E3DA8F4E62FE695E695E69515
:10220000E80FF92FF11D677021E030E001C0220FC7
:102210006A95EAF7209581812823218381E090E067
:102220000895605E683060F421E030E001C0220F64
:102230006A95EAF72095FC01308123232083EECFB5
:1022400090E080E008952DE1FC0111922A95E9F7D4
:102250000895CF93DF93EC010E942311CE01DF910B
:10226000CF910C9460108BE893E00C944310809114
:10227000D403811113C01092DD031092DC0388E6B1
:1022800094E09093DF038093DE0388E190E09093E5
:10229000E1038093E00381E08093D4030E94E5345E
:1022A0006CED73E00C9452340F931F93CF93DF9334
:1022B000EB018A010E94E5349801AE0165E0DF91EF
:1022C000CF911F910F910C94A234CF93DF931F9263
:1022D000CDB7DEB7198241E050E0BE016F5F7F4F9E
:1022E0000E9454110F90DF91CF9108950C946511C5
:1022F0000C946511CF93DF931F92CDB7DEB769833E
:10230000633841F489E395E00E9498310F90DF91A2
:10231000CF91089541E050E0BE016F5F7F4F0E9472
:102320005411F4CF83ED93E00C9437114AE050E060
:10233000682F8CED94E00E94B52C60E28CED94E067
:102340000C94F02BFF920F931F93CF93DF93EC012C
:10235000F62E08811981C8010E943C37F81621F039
:102360006F2DC8010E944437CE01DF91CF911F919C
:102370000F91FF900895EF92FF920F931F93CF93C9
:10238000DF9300D0CDB7DEB790E080E00E943C370D
:10239000182F8093E70381E090E00E943C37082FDC
:1023A0008093E80382E090E00E943C378093E90349
:1023B00083E090E00E943C378093EA030F3FF1F402
:1023C000812F8F778F3719F417FD1092E70381E083
:1023D0008093E80387EEE82E83E0F82E10E000E01B
:1023E0001A830983F70161917F01CE0101960E9452
:1023F000A2110F5F1F4F0430110591F790E080E0AC
:102400000F900F90DF91CF911F910F91FF90EF9060
:1024100008958091E503882329F08091E903909144
:10242000EA03089590E080E008950F931F93CF93FF
:10243000DF9300D0CDB7DEB79A8389838091E5031F
:1024400010E000E0811114C000910B0110910C010B
:1024500089819A81800F911F90930C0180930B01C9
:1024600042E0BE016F5F7F4F8BEE93E00E94CA1384
:10247000C8010F900F90DF91CF911F910F91089598
:10248000EF92FF920F931F93CF93DF9300D0CDB7BE
:10249000DEB787EEE82E83E0F82E10E000E01A8326
:1024A0000983F70161917F01CE0101960E94A2117B
:1024B0000F5F1F4F0430110591F781E08093E60311
:1024C0000F900F90DF91CF911F910F91FF90EF90A0
:1024D0000895CF93C82F80910001C81758F48C2F0E
:1024E0000E9411098091E70380789C2F9F77892BA8
:1024F0008093E703CE3730F08091E70380788E67D2
:102500008093E7030E9440128091E7038F77CF9179
:1025100008959091E70380FB97F99093E703892F43
:102520008F778F3721F490789E679093E7030C9410
:10253000401281E08093E50360E18BEE93E00E941E
:10254000B1138091E803813019F01092E6030895E9
:102550002091E9033091EA038091EB039091EC0321
:102560002F3F320769F49093EA038093E9030E94B6
:1025700040128091E7038F778E3728F40C9411096D
:1025800028173907B1F308958091E503811102C03E
:102590000E94991290E080E00895CF93DF93EB01C1
:1025A00044EE54E082EF93E00E94611581116BC00C
:1025B00049E050E06AED74E0CE010E940637892BB5
:1025C00009F061C029966DEC74E0CE010E94FD36E1
:1025D000892B59F48CED94E00E94D8290A9709F0D0
:1025E00047C08091E7038F7736C066EC74E0CE0178
:1025F0000E94FD36892B91F16EEB74E0CE010E94B2
:10260000FD36892B31F16AEB74E0CE010E94FD3674
:10261000892BC9F50E940912EC016091EB037091BE
:10262000EC034AE050E08CED94E00E94BC2C68EB97
:1026300074E08CED94E00E94CC2B4AE050E0BE01A7
:102640008CED94E00E94BC2C81E090E0DF91CF9172
:1026500008958091E8030E949611F6CF8091E603D9
:102660000E94901560E28CED94E00E94F02BECCF7C
:1026700041E070E060E08CED94E00E942A2D862F0E
:102680000E946912E1CF90E080E0E0CF0F931F93AA
:10269000CF93DF9300D0CDB7DEB78B014CE954E088
:1026A00082EF93E00E946115811158C06CE874E0DC
:1026B000C8010E94FD36892B11F58CED94E00E9433
:1026C000D82910E000E00A97E9F18CED94E00E942F
:1026D000D8290A9771F141E070E060E08CED94E058
:1026E0000E942A2D1A830983CE0101960E94A2110D
:1026F0000F5F1F4F011584E0180739F71AC060E813
:1027000074E0C8010E94FD36892B41F580910B01D0
:1027100090910C0160E074E0681B790B4AE050E096
:102720008CED94E00E94BC2C60E28CED94E00E9461
:10273000F02B81E090E00F900F90DF91CF911F91EF
:102740000F910895C8010E943C370E9496110F5FB7
:102750001F4F011584E01807A9F7EBCF90E080E048
:10276000EACFFC01208131812170332781E0861777
:1027700070F4408151815695479551834083220FD3
:10278000331F41705527242B352B8F5FF0CF3183BA
:1027900020830895DC01FB01415000F181912D91CE
:1027A0003C91119768E070E051E0982F952399F4DF
:1027B000932F991F9927991F220F331F992319F0DF
:1027C00095E029273058550F6150710971F711961E
:1027D0003C932E93E1CF932F9095EBCF08951092D9
:1027E000EC031092EB0308951F93CF93DF93909126
:1027F000EF03891730F080E090E0DF91CF911F91D7
:102800000895C62F20E4829FC0011124C80FD92F3C
:10281000D11DCC0FDD1F6091F0037091F103C60F45
:10282000D71FCE010E943C37182FCE0101960E947F
:102830003C37912FE2CF9091EE03891710F40C945E
:10284000C908891B0C94F41384EE93E00E94BB1119
:10285000809100018093EE0390E080E0089569E7A5
:1028600075E08CED94E00E94CC2B6AE08CED94E056
:102870000E94F02B90E080E008958093EF0320E821
:10288000829FC00111240E9415129093F10380933E
:10289000F0030895809300019091E70324EF33E162
:1028A00097FD07C09091EE03980F909300012BE1E4
:1028B00034E130930301209302010C943D14FF9204
:1028C0000F931F93CF93DF9300D0CDB7DEB7F62ED3
:1028D000672F8C01000F111F8091F0039091F1037D
:1028E000800F911F9A838983CE0101960E94A211C5
:1028F0008091F0039091F1030196800F911F9A83CC
:1029000089836F2DCE0101960E94A2110F900F9026
:10291000DF91CF911F910F91FF900895FF920F9338
:102920001F93CF93DF93F82E8B01C0E0CF15D9F022
:10293000D0E06D2F8C2FF8010995692F70E0762F6C
:102940006627680F711D4AE050E08CED94E00E940C
:10295000BC2C60E28CED94E00E94F02BDF5FD03461
:1029600041F7CF5FE3CFDF91CF911F910F91FF90A0
:1029700008950F931F93CF93DF931F92CDB7DEB7C8
:102980008B014AE455E082EF93E00E9461158111CA
:1029900090C047E050E062E475E0C8010E9406374D
:1029A000892B09F086C0095F1F4F67E375E0C801F6
:1029B0000E94FD36892BD1F58CED94E00E94D82938
:1029C0000A9799F46091E70367FB662760F94AE08C
:1029D00050E08CED94E00E94B52C60E28CED94E028
:1029E0000E94F02B81E090E066C041E070E060E082
:1029F0008CED94E00E942A2D162F6983862F0E9469
:102A000089129091EF0390930001112339F084EF24
:102A100093E19093030180930201E4CF8091EE0350
:102A2000890F809300018BE194E1F3CF6FE275E0B1
:102A3000C8010E94FD36892B39F469EC78E0809159
:102A4000EE030E948E14CECF68E275E0C8010E94AA
:102A5000FD36892B71F58CED94E00E94D82910E0A9
:102A600000E00A9729F464EF73E18091EF03E9CF66
:102A70008CED94E00E94D8290A9709F4B3CF809195
:102A8000EF0320E4829FC00111240817190708F002
:102A9000A9CF41E070E060E08CED94E00E942A2D27
:102AA000272F3327722FC8010E945F140F5F1F4F1B
:102AB000DFCF90E080E00F90DF91CF911F910F91D9
:102AC0000895CF93DF93CB01EA0166EA75E00E9497
:102AD000FD36892B49F4BE018CED94E00E94FB2B5E
:102AE00081E0DF91CF91089580E0FBCFCF93DF931A
:102AF000EB0149E955E00E94611581110EC061E9C1
:102B000075E0CE010E94FD36892B39F40E946A04DB
:102B100081E090E0DF91CF91089590E080E0FACFDE
:102B200066E875E0882311F06CE875E08CED94E0C0
:102B30000C94CC2B8CED94E00E94F129892B59F058
:102B40008CED94E00E94D8290A9729F08CED94E04E
:102B50000E94012AF5CF08950F931F93CF938CED18
:102B600094E00E94F129892BB9F103EF13E0C0E052
:102B70008CED94E00E94012ACF5FF80181938F01D0
:102B80008CED94E00E94D8290A9739F0F80131972A
:102B90008081803211F0C03259F78C2F90E0FC0117
:102BA000EE50FC4F20812032E9F4108283EF93E055
:102BB0000E94F4046BEA75E08CED94E00E94FB2B1C
:102BC0000E949A158CED94E00E94D8290A9721F46E
:102BD0008CED94E00E94012A90E080E0CF911F915B
:102BE0000F9108958D509C4FFC01DFCF6FEA75E087
:102BF0008CED94E00E94CC2B6AE08CED94E00E9476
:102C0000F02B90E080E00895CF93DF9300D000D0C8
:102C100000D0CDB7DEB78AE096E00E944535E7E206
:102C2000F6E0108A868597852485358519823B8351
:102C30002A839D838C831E820284F385E02D01907C
:102C4000F081E02D46E050E0BE016F5F7F4F81E3F1
:102C500096E0099590E080E026960FB6F894DEBFE6
:102C60000FBECDBFDF91CF9108950F938091DE010C
:102C70009091DF012091160430911704AC01421BA2
:102C8000530B9A01409110015091110124173507FF
:102C900090F0909317048093160420911C043091B7
:102CA00012014FEF50E0431B5109241715061CF485
:102CB000230F20931C042091180430911904AC01B7
:102CC000421B530B9A014091130150911401241798
:102CD0003507C0F09093190480931804E4E4F5E0FC
:102CE00081E490E0815051F020813181303521F430
:102CF000322F307709F4922B3296F4CF91112BC0FA
:102D000010921C048091DE019091DF012091140447
:102D100030911504AC01421B530B9A0140910D01F7
:102D200050910E012417350708F44FC090931504F5
:102D300080931404E4E4F5E091E480E0915031F1F3
:102D400020813181303529F4322F3077303109F448
:102D5000822B3296F3CF80911501819592FF80E00E
:102D600093FF03C020911501820F609115016195B9
:102D700090FF60E091FF03C090911501690F0E94E0
:102D80006E188AE096E00E941335BCCF8823E9F0E4
:102D900000910F01019582FF00E083FF03C0909135
:102DA0000F01090F20910F0180FF20E081FF03C078
:102DB00080910F01281B40E060E08AE096E00E94CD
:102DC000F3348AE096E00E94133590E080E00F91A2
:102DD0000895CF93DF93EB018AE096E00E94FB34E5
:102DE00090E080E060E080349105E1F03881831765
:102DF00081F0803480F4FC01EE0FFF1FEC5BFA4F92
:102E00002181203531F42081322F3076303409F49D
:102E1000622B0196E8CF1092C4051092C505E4EC30
:102E2000F5E0EECF898181FF04C080FD02C08A8178
:102E3000682B6F7B8AE096E00E9401358AE096E07D
:102E4000DF91CF910C941335FB01928196FB2227E1
:102E500020F980E090FD82E0822B20E091FD24E0CB
:102E6000822B20E092FD28E0822B93FD04C090E0AD
:102E7000892B0C94CC1790E1FBCFFB0123812035EB
:102E800009F03EC09C019281892F8076803431F414
:102E9000C9010E94E91681E090E0089595FF09C0FC
:102EA000818181FFF8CF80FDF6CFC9010E942417F0
:102EB000F2CF9077A1F48091DE019091DF01209113
:102EC000130130911401AC01421B530B50931904B0
:102ED000409318049093170480931604DCCF90312C
:102EE000D1F68091DE019091DF0120910D013091AA
:102EF0000E01821B930B9093150480931404CBCF87
:102F000090E080E00895CF93DF9300D000D000D010
:102F1000CDB7DEB736952795820F931F5695479507
:102F2000640F751FE7E2F6E09587848777876687E9
:102F3000208929839B838A837D836C831E820284FC
:102F4000F385E02D0190F081E02D46E050E0BE01D8
:102F50006F5F7F4F81E396E0099526960FB6F89450
:102F6000DEBF0FBECDBFDF91CF91089510921F0439
:102F700010921E0410922104109220048FEF9FE7FC
:102F80009093250480932404909323048093220437
:102F900081E080931D0408950F931F93CF93C82F52
:102FA00080911D04811102C00E94B617C0FF06C0A7
:102FB00010921D04CF911F910F910895E091180177
:102FC0000E2F10E08091240490912504B8010E94F6
:102FD00050369B0170932504609324048091220451
:102FE00090912304B8010E945036AB0170932304E2
:102FF000609322046C2F6470E0912004F09121040E
:1030000080911E0490911F047C2F7670763091F48D
:10301000820F931F90931F0480931E04BA016E0FBA
:103020007F1F7093210460932004CF911F910F9113
:103030000C948317662349F1D8011197A49FB0011E
:10304000A59F700DB49F700D1124E60FF71FF0932C
:103050002104E0932004C4FF1DC001501109029F08
:10306000B001039F700D129F700D1124860F971FE2
:1030700090931F0480931E0460912004709121049A
:1030800080911E0490911F04D0CFC1FDE4CFE40FC6
:10309000F51FDDCFC3FDF0CF820F931FE9CF482F7F
:1030A00050E087FD0AC0889FC0011124880F892F36
:1030B000881F990B91958F5F089520E031E0241BC4
:1030C000350B229FC001239F900D900D1124880F76
:1030D000892F881F990B919580950895EF92FF9203
:1030E0000F931F93CF93DF93082F162FC0911701D3
:1030F000D0E0F12CE12C8823D1F080911C040E94B7
:103100004F1820911B04382F0303C0011124820F94
:10311000911D27FD9A957E01C817D90744F0EE242A
:10312000FF24EC1AFD0AE816F9060CF47C011123C1
:1031300009F442C080911C040E944F1820911A0487
:10314000382F1303C0011124820F911D27FD9A957A
:10315000C817D9073CF0D195C195D109C817D9072F
:103160000CF4EC0110921D042091160130E0CE0108
:10317000B9010E946436462FC701B9010E94643626
:1031800000E020E08AE096E00E94F33420911601EE
:1031900030E0C701B9010E94643680931B04CE0160
:1031A000B9010E94643680931A04DF91CF911F9178
:1031B0000F91FF90EF900895D0E0C0E0D3CFFC01D5
:1031C00084913196949108950F931F93CF93DF9339
:1031D00000D000D01F92CDB7DEB7162F072F609119
:1031E00043052FEF32E8412F572F8DED91E00E94DC
:1031F000B007E7E2F4E0808181110FC08181811185
:103200000CC0108301830F900F900F900F900F90C0
:10321000DF91CF911F910F910895329684E0E733AB
:10322000F80749F7F0CFCF93DF9300D000D01F927B
:10323000CDB7DEB7AB01E7E2F4E087E394E02081AD
:10324000421305C02181251302C0108211823296DB
:103250008E179F07A1F7609143052FEF31E88DEDA1
:1032600091E00F900F900F900F900F90DF91CF9102
:103270000C94B007EF92FF920F931F93CF93DF93BD
:1032800000D000D01F92CDB7DEB707E214E087E38D
:10329000E82E84E0F82EF80140815181411102C0EE
:1032A000552359F0609143052FEF31E88DED91E002
:1032B0000E94B007F801108211820E5F1F4FE016C6
:1032C000F10649F70F900F900F900F900F90DF913C
:1032D000CF911F910F91FF90EF9008950F931F933F
:1032E000CF93DF9300D000D01F92CDB7DEB78B0114
:1032F000609143052FEF32E8A8018DED91E00E9427
:10330000B007609143052FEF31E8A8018DED91E002
:103310000F900F900F900F900F90DF91CF911F9112
:103320000F910C94B0078F929F92AF92BF92DF9251
:10333000EF92FF920F931F93CF93DF937C01EB01EA
:10334000209709F496C0D12C8E010F5F1F4FFE010C
:103350008491EFEFE80FED3008F08BC0F0E0ED5412
:10336000F64E0C949A36E819F419FD19091A151A33
:10337000211A291A311AEC19EC19EC19C019D419AF
:103380008D2C912CB12CA12C0F5F1F4FF801319780
:103390006491662309F170E0C7010E946E19C501AE
:1033A000B4010E943329F0CF8D2C912CB12CA12C8B
:1033B0000F5F1F4FF80131976491662369F070E049
:1033C000C7010E946E19C501B4010E943329F0CFD4
:1033D0002296F801D4908E016D2D70E090E080E08F
:1033E0000E943329E801B0CF2296F801649170E081
:1033F00090E080E00E943329EECFF80174918E01B5
:103400000D5F1F4FFE0132966491C7010E94E418C0
:10341000E3CFF80174918E010D5F1F4FFE013296CC
:103420006491C7010E941319D7CFF80174918E01DE
:103430000D5F1F4FFE0132966491C7010E946E1905
:10344000CBCF2296F801649170E0C7010E94E41886
:10345000C2CF2296F801649170E0C7010E9413194F
:10346000BACF2296F801649170E0C7010E946E19EC
:10347000B2CFDF91CF911F910F91FF90EF90DF902E
:10348000BF90AF909F908F900895862F90E0613409
:10349000E0F46A33B0F5603269F170F46A3039F102
:1034A00030F482E2683050F590E080E008956B31AE
:1034B000D9F790E089E208956133F8F4880F991FF5
:1034C00082589A4F0E94DF180895613638F46B35A0
:1034D000E8F0880F991F885C9A4FF4CF6B37D0F0D3
:1034E0006F3710F7880F991F8C5F9A4FEBCF90E0E2
:1034F00088E2089590E08CE208958DEE860F90E0CA
:103500000895880F991F84599A4FDCCF83EC860F5A
:1035100098E0089583EAF2CF0F931F93CF93DF9340
:103520008C01EB01FE016491662369F0C8010E94E1
:10353000451A811102C0992321F0BC01C8010E94E3
:103540006E192196EFCF90E080E0DF91CF911F912F
:103550000F9108950F931F93CF93DF93EB012B816E
:1035600030E0322F22274A8150E0BA017056260FF0
:10357000371F2F3F310509F0F0F48C01BE01842F75
:103580000E943004BC01C8010E949319898180FF08
:1035900002C081FF0DC02B8130E0322F22278A81AB
:1035A00090E09056280F391F2F3F310521F018F079
:1035B000C8010E943A1990E080E0DF91CF911F91FD
:1035C0000F9108950F931F93CF93DF93C7E2D4E039
:1035D00007E314E06881798189819881911102C0A3
:1035E000882321F08DED91E00E949A0622960C1717
:1035F0001D0781F790E080E0DF91CF911F910F913F
:10360000089569EB75E08CED94E00E94CC2B6AE0A4
:103610008CED94E00E94F02B90E080E008950895F6
:1036200008951F93CF93DF93EC01EA81FB818081A2
:103630002F819091DE01921B9817B8F1820F8F8332
:1036400080914202811105C010924A0281E080936C
:10365000420210E02C813D811034F1F0912F9695BB
:10366000969540E1949FC0011124820F931F8F3FD4
:10367000910518F08F5F9109FACFEA81FB814181B2
:1036800050E0688570E00E94B931AB01682F812F4E
:103690000E94010A1F5FDECF8E81820F932F911D42
:1036A0008F3F910530F49D838C83DF91CF911F91E3
:1036B00008958F5F9109F7CFFC0161830895FC01A4
:1036C00061830895E9E3F4E098E2908382E38183E3
:1036D000E7E3F4E09083818308950F931F93CF93E2
:1036E000DF93EB01A881A0950A2F10E0F80186E096
:1036F000F595E7958A95E1F7E0959801D9010E9443
:10370000A8369B01AC010E9440364E2F491B50E069
:103710002DED2003C001219F900D112483E2890F1C
:103720006FEF70E090E00E94B9319B01482F8881D3
:10373000843040F41882842FB901DF91CF911F911A
:103740000F91089584508883F6CF26E831E0FC017C
:103750003183208308958FEF80933B040895E09197
:103760000401F0E0EE5DFD4F608160933F048091C5
:103770004004861730F080914104909142040C94EB
:10378000931C0895462F60913F0490914004961732
:1037900030F080914104909142040C94B11C089542
:1037A0008091410490914204892B49F4862F6093C3
:1037B00040040E94331C9093420480934104089576
:1037C0006FE076E08CED94E00E94CC2B6AE08CED0B
:1037D00094E00E94F02B90E080E00895FC0190813D
:1037E00080910701981306C080914E0290914F027C
:1037F0000E94AF1B90E080E008950F932091410458
:10380000309142040091400442E056E083E494E0A9
:103810000E945E1D0F9108958FEF80933E040895DE
:103820004AE050E0682F8CED94E00E94B52C60E2F5
:103830008CED94E00C94F02B80910601882391F09C
:1038400060E070E080E00E94560A80914E02909104
:103850004F02009739F0DC01ED91FC910280F38179
:10386000E02D09940895CF93C82F8091440490913E
:103870004504892B41F480E390E00E941512909357
:1038800045048093440420E2C29FC0011124CF91DB
:103890000C941512CF93DF93EB019B01369527957E
:1038A000820F931F0E943C37C0FF04C08F70DF91CE
:1038B000CF9108958295FACFEF92FF920F931F93C5
:1038C000CF93DF9300D01F92CDB7DEB700914404B1
:1038D0001091450493E0899F000D111D1124C8012A
:1038E0000E943C37F82EC80101960E943C37E82E12
:1038F000C80102960E943C3780958B83E094EA824F
:10390000F094F98269817A818B810F900F900F90EA
:10391000DF91CF911F910F91FF90EF9008950E943A
:103920004A1C0C945C1C0F931F93CF93DF9320E2EF
:10393000629F80011124080F191FD0E0C0E0BE0172
:10394000C8010E948F1CAB01682F8C2F0E94010AB6
:103950002196C034D10599F7DF91CF911F910F9136
:103960000895CF93C42F20E2629FB0011124860FE7
:10397000971F6FEF403428F4E42FF0E0E157FD4F3C
:10398000649170E00E948F1CAB01682F8C2FCF9147
:103990000C94030A8CED94E00E94D82921E00A9748
:1039A00009F020E0822F0895CF92DF92EF92FF92EC
:1039B0000F931F93CF93DF9300D0CDB7DEB78B016A
:1039C0004EE156E082EF93E00E946115811169C0DB
:1039D0006EE176E0C8010E94FD36892B09F061C0D6
:1039E0000E94CA1C8823A1F010E0812F0E945C1C59
:1039F000062FF72E0E94101C8F2D0E94101C802F66
:103A00000E94101C1F5F103181F781E090E04BC0D5
:103A1000F12CE12C0E94CA1C811140C041E070E0F1
:103A200060E08CED94E00E942A2DD62E41E070E0FB
:103A300060E08CED94E00E942A2DC62E41E070E0FB
:103A400060E08CED94E00E942A2D009144041091D6
:103A500045040E0D1F1D1A8309836095CE01019642
:103A60000E94A211C80101969A8389836C2D6095EA
:103A7000CE0101960E94A2110E5F1F4F1A83098387
:103A80006D2D6095CE0101960E94A21183E0E80E93
:103A9000F11C80E3E816F10409F0BCCF0E941C1C65
:103AA000B4CF90E080E00F900F90DF91CF911F9105
:103AB0000F91FF90EF90DF90CF9008958F929F929B
:103AC000AF92BF92CF92DF92EF92FF920F931F932C
:103AD000CF93DF9300D0CDB7DEB77B014A01590108
:103AE00082EF93E00E94611581115CC0B401C701AF
:103AF0000E94FD36892B09F055C080E2089F6001C5
:103B000011240E94CA1CF12CE12C882301F1EC1431
:103B1000FD0409F444C0C7018A0D9B1D0E943C3777
:103B2000082F10E082958F700E94101CB8016F70F2
:103B30004AE050E08CED94E00E94A12C60E28CED14
:103B400094E00E94F02B8FEFE81AF80AE0CF0E9471
:103B5000CA1C811122C0EC14FD04F9F041E070E0B0
:103B600060E08CED94E00E942A2D162F41E070E079
:103B700060E08CED94E00E942A2DC7018A0D9B1D08
:103B80009A8389831295107F610FCE0101960E945E
:103B9000A2118FEFE81AF80ADACF0E941C1C81E00C
:103BA00090E002C090E080E00F900F90DF91CF9105
:103BB0001F910F91FF90EF90DF90CF90BF90AF904B
:103BC0009F908F9008958091190190913E0590FFEC
:103BD00013C081110BC08091470481110AC081E09C
:103BE0008093470490E080E00E94680490E080E0C9
:103BF000089581E090E0F8CF811110921901809131
:103C00004704882399F31092470482E090E0ECCFB8
:103C100066E276E08CED94E00E94CC2B6AE08CEDBD
:103C200094E00E94F02B90E080E00895AF92BF9264
:103C3000CF92DF92EF92FF920F931F93CF93DF9378
:103C400010E000915B01101708F04CC088E0189F4D
:103C5000E0011124F12CE12CFE01E454FF4F6F012F
:103C6000AE2CF601EE0DFF1D84918823C1F1815029
:103C70000E94190DB82E882349F0FFEFEF1AFF0AB2
:103C800085E0E816F10461F785E0A82E0E943A0D60
:103C9000A81223C0BB2009F18091DE019091DF01C1
:103CA0002091490430914A04821B930B20911A0100
:103CB00030911B018217930780F0FE01E654FF4FFD
:103CC00025913491812FF90109958091DE01909120
:103CD000DF0190934A04809349041F5FB4CFBB2453
:103CE000B394D4CF90E080E0DF91CF911F910F91FA
:103CF000FF90EF90DF90CF90BF90AF9008958EE44B
:103D000093E00E94E70E61E0811160E08091E000A5
:103D100081608093E000609358038EE493E00E94FA
:103D2000EA0E68EE73E080E090E00E943329809113
:103D3000E0008E7F8093E0000895FF920F931F9321
:103D4000CF93DF93EC018B01FB01F0800E943C37A5
:103D5000F81621F06F2DCE010E944437F801F18052
:103D60002196CE010E943C37F81621F06F2DCE012E
:103D70000E944437C801DF91CF911F910F91FF90AE
:103D800008950F931F93CF93DF9300D0CDB7DEB785
:103D900082E090E00E9415128C0190934E04809373
:103DA0004D040E943C378983C80101960E943C372C
:103DB0008A8389819A81019629F46CE171E0C801B6
:103DC0000E949D1E00914D0410914E04C8010E9456
:103DD0003C3780931C01C80101960E943C378093B8
:103DE0001D0190E080E00F900F90DF91CF911F9127
:103DF0000F91089565E676E08CED94E00E94CC2B5F
:103E00006AE08CED94E00E94F02B90E080E0089551
:103E1000CF93DF93EB014BE456E082EF93E00E94F7
:103E2000611581113AC061E376E0CE010E94FD3652
:103E3000892B99F58CED94E00E94D8290A9709F511
:103E400060911D0170E0762F662780911C01680F3C
:103E5000711D4AE050E08CED94E00E94BC2C60E2C1
:103E60008CED94E00E94F02B6CE171E080914D04A8
:103E700090914E040E949D1E81E090E0DF91CF91D1
:103E8000089541E070E060E08CED94E00E942A2DFE
:103E900060931C0170931D01E7CF90E080E0EECFAE
:103EA000CF93DF93EB018A8190911C01891305C0A8
:103EB0002B8190911D01291751F08E3729F090E048
:103EC00080E0DF91CF9108958B81813DC1F7898199
:103ED00081FFF5CF80FDF3CF87FDF1CF0E94EC1F6E
:103EE000882369F381E00E946D211A821B8281E0A0
:103EF00090E0E7CFFC018281DB019C91891730F5CE
:103F0000A081B181A80FB11D2C9130E0938102C036
:103F1000359527959A95E2F724834481442391F0BF
:103F2000242F30E0938140FF07C0880F880F880F4F
:103F3000890F858381E008953595279524839F5FB8
:103F40009383EBCF8F5F82831382D5CF80E0089578
:103F5000262F269526952695820F911DFC0180819E
:103F600090E0677002C0959587956A95E2F7817039
:103F70000895E62FE695E695E695E80FF92FF11DF1
:103F8000677081E090E0A0E0B0E004C0880F991F66
:103F9000AA1FBB1F6A95D2F72081822B80830895C8
:103FA000E62FE695E695E695E80FF92FF11D862FA9
:103FB000877041E050E060E070E004C0440F551F9E
:103FC000661F771F8A95D2F740955095609570953A
:103FD00080814823408308950F931F93CF93DF93ED
:103FE000CDB7DEB72C970FB6F894DEBF0FBECDBFAE
:103FF0008BE594E098878F8319861A861FEF1C87BC
:104000009A83898308E00B831C821E83BE016D5F47
:104010007F4FCE0107960E947A1F811113C083E55E
:1040200094E098878F8319861A861C879A838983E0
:104030000B831C821E83BE016D5F7F4FCE010796EE
:104040000E947A1F2C960FB6F894DEBF0FBECDBF2C
:10405000DF91CF911F910F910895292F207C79F442
:1040600020E2280F2830A8F480911F0190912001B0
:1040700002C0969587952A95E2F781700895943449
:1040800041F496ED980F9A3220F42EED280F20314E
:1040900058F381E008950C942D20682F8BE594E06F
:1040A0000C94A81FCF93C82F682F83E594E00E943B
:1040B000A81F882339F06C2F8BE594E00E94A81F7D
:1040C00091E08927CF910895CF93C82F0E944D206A
:1040D000811106C06C2F83E594E0CF910C94A81F4A
:1040E000CF91089563E776E08CED94E00E94CC2BAD
:1040F0006AE08CED94E00E94F02B90E080E008955F
:10410000292F30E0322F2227820F932F911D2FEF7E
:10411000280F283018F4815290E008958F5D94E4C0
:1041200008950F931F93CF93DF93FB01118117FD28
:1041300055C0EB0160818BE594E00E94A81F082F19
:10414000688183E594E00E94A81F11FF96C010FDCE
:1041500094C0011156C081118AC08A819B81282F89
:1041600030E02150304C492F50E0542F4427240F89
:10417000351F20313105A0F48A819B810E94802067
:104180009B838A8368818BE594E00E94B91F8091AC
:10419000DE019091DF0190935204809351041BC083
:1041A00020916404222339F0292F207C21F420E27D
:1041B000280F283038F320916304222331F09434FF
:1041C00021F426ED280F2A32E8F2292F207C49F429
:1041D000805E883058F4888180931E0190E080E0F2
:1041E00041C0943419F48A528A32A8F38091510460
:1041F000909152042091250130912601821B930B4E
:10420000CACF882341F368818BE594E00E94D01FD8
:10421000988180911E01981731F0688183E594E0C0
:104220000E94D01FD8CF8A819B810E944B20882377
:10423000A1F3809121019091220197FF04C0809108
:104240002501909126012091DE013091DF014091FE
:10425000510450915204241B350B28173907E8F6F6
:1042600082E090E0DF91CF911F910F9108956881D6
:104270008BE594E00E94D01FD0CF011103C08823AA
:1042800009F4ACCF688183E594E00E94B91FE8CFC0
:104290001F93CF93DF9300D000D01F92CDB7DEB72E
:1042A000182F682F83E594E00E94D01F612F8BE5C3
:1042B00094E00E94D01F60914305212F31E84FEF19
:1042C0005FEF8DED91E00F900F900F900F900F909A
:1042D000DF91CF911F910C94B0071F93CF93DF9381
:1042E000CDB7DEB72C970FB6F894DEBF0FBECDBFAB
:1042F0008823F1F023E534E038872F8319861A8666
:104300008FEF8C873A83298398E09B831C828E836E
:10431000BE016D5F7F4FCE0107960E947A1F8823F2
:1043200039F08C850E9448218A858F5F8A87F0CF7B
:104330002BE534E038872F8319861A868FEF8C8718
:104340003A83298398E09B831C828E83BE016D5F34
:104350007F4FCE0107960E947A1F8823A9F01C8503
:10436000612F83E594E00E94A81F882339F0812FF4
:104370000E9448218A858F5F8A87E8CF612F8BE56D
:1043800094E00E94D01FF6CF2C960FB6F894DEBFB3
:104390000FBECDBFDF91CF911F910895AF92BF9215
:1043A000CF92DF92EF92FF920F931F93CF93DF9301
:1043B000CDB7DEB72C970FB6F894DEBF0FBECDBFDA
:1043C000C0902501D09026010091DE011091DF01FF
:1043D0008091510490915204081B190BA090230165
:1043E000B09024012BE534E038872F8319861A8694
:1043F0008FEF8C873A83298398E09B831C828E837E
:10440000F12CBE016D5F7F4FCE0107960E947A1F8F
:10441000E82E8823E1F0FC846F2D83E594E00E9470
:10442000A81F882359F00C151D0518F08F2D0E9428
:1044300048218A858F5F8A87FE2CE3CF0A151B05EA
:10444000C0F36F2D8BE594E00E94D01FF2CFF110E6
:1044500008C08091DE019091DF0190935204809317
:10446000510490E080E02C960FB6F894DEBF0FBEAA
:10447000CDBFDF91CF911F910F91FF90EF90DF9013
:10448000CF90BF90AF9008950C94CE216BE776E06B
:104490008CED94E00E94CC2B6AE08CED94E00E94BD
:1044A000F02B90E080E00895FC01872F90E0982F9A
:1044B0008827680F792F711D613180EC7807E0F053
:1044C000623188EC780750F46151704C66A717A6EA
:1044D00011AA80EE870F80AB81E00895633180EDF3
:1044E000780750F46251784C66A717A68AE2870FC6
:1044F00080AB84E481ABF0CF80E008958F929F92EF
:10450000AF92BF92CF92DF92EF92FF920F931F93E1
:10451000CF93DF9300D000D0CDB7DEB78C01F62E5D
:104520002FE3261708F469C0E62FF0E0EE0FFF1F17
:10453000EC5BFA4FD080E1808FEFD8120FC0E81209
:104540000DC0AF2DB0E0AD51BE4FE0910201F09132
:1045500003016F2D8C910995D82EE92E6D2D7E2D9E
:10456000C8010E945422B82E811135C0EF2DF0E011
:10457000ED51FE4F8080C12CAA24AA94912CF80101
:104580008281C81608F042C0F4E0CF9EC001112419
:10459000F80160817181680F791FAA8244E050E0C0
:1045A000CE0101960E94F43689819A813B812C814B
:1045B000F9122AC0482F082E000C550B4815590532
:1045C00011F08F3F09F5F801D6A6E7A6C90190AB17
:1045D00021ABBB24B3948B2D0F900F900F900F90B5
:1045E000DF91CF911F910F91FF90EF90DF90CF90CF
:1045F000BF90AF909F908F9008951092C405109235
:10460000C505E4ECF5E096CFC394B9CFD6A6E7A6EE
:104610008FEF80AB81ABDFCFCF93DF93FC01EB015A
:104620009A01261B370BA4E6B0E00E94A83626A10B
:1046300030E050E040E00E9478368091DE019091B9
:10464000DF01BC016C1B7D0B81E06217730708F072
:1046500080E0DF91CF910895292F207C39F490E2FA
:10466000980F81E0983048F080E007C09434E1F77B
:1046700096ED980F81E09A32B8F70895CF93DF93C3
:10468000EC01888181508883E62FF0E0DF011196EC
:10469000AC0FBD1FEE0FFF1F7196EC0FFD1F962F85
:1046A000981780F411962C9111972D9318962C91B0
:1046B000189717962C931797228133812193319362
:1046C0009F5FEECF2FEF30E001C0220F6A95EAF72F
:1046D00099A1892F8695822320952923282B29A308
:1046E000DF91CF910895CF93DF9300D000D01F9238
:1046F000CDB7DEB7FC01348584A1982F917080FD81
:1047000028C082E0248139838A836B837C832D8354
:1047100091110AC0872F90E0982F8827680F792F72
:10472000711D64307105F0F460E0CF0103960E94C2
:104730003E2329813A814B815C816D818DED91E031
:104740000F900F900F900F900F90DF91CF910C94DE
:10475000650881E0D7CF6D32710530F3693371059B
:1047600018F703C068327105B0F78489958994A75A
:1047700083A7DACFCF93DF93FC017381DC011D9611
:1047800081E090E060E08717F0F452A94D9124A1F8
:1047900030E0082E02C0359527950A94E2F720FDF7
:1047A0000DC0541721F080E0DF91CF910895248946
:1047B000358934AB23AB682F0196E5CF5413FCCF7A
:1047C0008FEF82ABF0CF8091DE019091DF0123A9C2
:1047D00034A9821B930B25A92817190609F068F440
:1047E0008FEF82AB6623F9F2EF012396CE010E9490
:1047F0003E2360E0CE010E943E2381E0D5CF7F9230
:104800008F929F92AF92BF92CF92DF92EF92FF92E0
:104810000F931F93CF93DF93EC019B81911110C0F5
:10482000F12C8F2DDF91CF911F910F91FF90EF9081
:10483000DF90CF90BF90AF909F908F907F90089522
:104840009C848CA180FF13C0983041F460E070E03C
:10485000CE010E947323FF24F394E3CF8AA9981218
:10486000F5CFCE010E94BA238111DACFEFCF692DA7
:10487000CE010E947E22882309F470C0FDA0FF2093
:1048800009F46CC00EA51FA5C8010E942C23882E18
:104890008091DE019091DF012BA53CA5821B930B3B
:1048A0002AA52817190609F010F57B80A090DE01D3
:1048B000B090DF016E0101E010E0E12C202F071520
:1048C00008F065C08CA190E0002E02C095958795F8
:1048D0000A94E2F780FD12C0811040C0EE2009F476
:1048E00054C07FEFC71AD70A0F5F1F4FE7CF811061
:1048F000DCCFB801CE010E947323D7CFF601958596
:10490000FE013D9681E099122DC0EE2019F08EA196
:10491000811110C0882059F068A979A99AAA8C89B8
:104920009D899CAB8BABCE010E9473237ACF6EA581
:104930007FA5F4CFF801EE0FFF1FEC0FFD1F448998
:104940005589EE2DF0E0EE0FFF1FEC0FFD1F64897F
:104950007589CE010E940C238111C3CF6EA57FA55E
:1049600077CF8F5F821708F0BCCF31913913F9CF21
:104970004C895D89B501641B750B39A5361717067F
:1049800009F078F768A979A9CECFE02EAACF88E000
:10499000781246CFE3CF0F931F93CF93DF93EC01B1
:1049A000FB0124818DA5922F981B191634F08B8161
:1049B00081111DC090E080E026C02DA78081803449
:1049C000C8F7818187FDF6CF8B018DA1811120C0B1
:1049D00062817381CE010E945422882359F38EA5EF
:1049E0009FA5D80113969C938E931297E3CF022E26
:1049F000000C330B8C81281B310987FD339537FD63
:104A0000D9CF82E090E0DF91CF911F910F9108956F
:104A10002B81822F90E03481FE01E80FF91F34834F
:104A2000DB013C913487880F991FFE01E80FF91FC5
:104A30008091DE019091DF01958B848B11964C91D2
:104A40003CA181E090E0A0E0B0E0022E04C0880F1D
:104A5000991FAA1FBB1F0A94D2F740FF0CC041FD4B
:104A60000AC0832B8CA32F5F2B83CE010E94FF23D0
:104A70008111FBCFC6CF80958323F4CF0F931F9373
:104A8000CF93DF93EC018091DE019091DF012AA5A5
:104A900030E04BA55CA5BC01641B750B6217730766
:104AA00028F00197821B930B9CA78BA78B818823EF
:104AB000F9F0CE010E94FF238111FBCF8091DE012E
:104AC0009091DF012C893D89821B930B2FA138A582
:104AD0008217930768F00EA51FA5C8010E942C231A
:104AE000B801811102C068A979A9CE010E9473237F
:104AF00090E080E0DF91CF911F910F910895CF93C7
:104B0000DF93C5E6D4E0198218821A821B8288E0FE
:104B1000E8E4F1E0A1E7B4E001900D928A95E1F7B5
:104B200081E08DA380E58EA38AEF90E098A78FA304
:104B300082E389A78BE48AA780E091E09CA78BA7FA
:104B40008FEF8DA78EA78FA788AB89AB8AAB88EC38
:104B50008DABDF91CF910895FC01108240915001FF
:104B600050915101609152017091530145835683D8
:104B7000678370878091AD0481112CC081EE809392
:104B8000B5041092B60486E28093B70488E080935F
:104B9000B8041092BA041092B90495EE9093BB0435
:104BA0001092BC0497E29093BD048093BE041092CF
:104BB000C0041092BF041092C1041092C20410925B
:104BC000C3041092C4041092C6041092C50481E07C
:104BD0008093AD0485EB94E09093C9048093C8045E
:104BE000089562E876E08CED94E00E94CC2B6AE0B8
:104BF0008CED94E00E94F02B90E080E0089580E03E
:104C000026E0E091C804F091C904829FE00DF11DF7
:104C10001124908191110FC0318131110CC032816A
:104C2000311109C03381311106C044815581452BB2
:104C300011F48FEF0895961303C09181971711F027
:104C40008F5FDFCF08950F931F93CF93DF93CDB77F
:104C5000DEB72A970FB6F894DEBF0FBECDBF8C012A
:104C6000FC01818980FD47C082E0F80125819181A6
:104C70002E838F838FEF888789879A87662331F108
:104C80009091280197FD22C09091C704923079F449
:104C900060914305298391E09A838B838C836D8394
:104CA00031E04FEF5FEF8DED91E00E94B007809112
:104CB0002801E091C804F091C90496E08902E00D52
:104CC000F11D11248281938199878887F801808161
:104CD00081508193D801199690E0981770F4218142
:104CE00021932481238312962D913C9113972D9328
:104CF0003D939F5FF2CF81E0B8CFF801818990E0CA
:104D000095958795818B2E813F81488559856A8548
:104D10008DED91E02A960FB6F894DEBF0FBECDBFA1
:104D2000DF91CF911F910F910C946508CF93DF9382
:104D3000EC018881882329F060E0CE010E942326BF
:104D4000F8CFDF91CF910895FC012081222319F142
:104D50004091290150912A0120912801E091C80435
:104D6000F091C90436E02302E00DF11D11242481E5
:104D700035812115310509F0A9012091DE0130911D
:104D8000DF01FC0161857285261B370B241735076F
:104D900010F00E94962690E080E00895CF93DF9374
:104DA000FC01EB012081822F90E03C81DF01A80F04
:104DB000B91F11963C931197388115963C93880F33
:104DC000991FDF01A80FB91F8091DE019091DF01CB
:104DD0001A969C938E9319979981818941E050E0AE
:104DE00060E070E0022E04C0440F551F661F771F5D
:104DF0000A94D2F790FF09C091FD07C0482B418B60
:104E00002F5F2083DF91CF91089540954823F7CFFE
:104E1000FF920F931F93CF93DF93FC01EB012C8143
:104E200080912701922F981B19165CF080818111C7
:104E300021C090E080E0DF91CF911F910F91FF9012
:104E40000895209327012881203498F7998197FDB0
:104E5000F0CF392F327091FF23C090FD21C08A819D
:104E60008835A9F48B81813DD9F41092C70481E083
:104E700090E0E1CF022E000C330B8181281B310919
:104E800087FD339537FDD5CF82E090E0D4CF8935CB
:104E900039F48B81813D21F481E08093C704E7CF11
:104EA0008091C704813029F28F018081882371F0BD
:104EB00090FF09C0311107C09581921323C061E0B2
:104EC000CF010E942326C8010E949626F980F1FE98
:104ED000B0CFF0FCAECF6A817B81C8010E94FF2574
:104EE0008093280187FDA5CF8091C704823061F4AB
:104EF00028813F2D4A815B816C818DED91E00E947C
:104F0000B00702C08430F9F2BE01C8010E94CE266B
:104F1000BBCF8BE994E00C94AC25CF92DF92EF925B
:104F2000FF92CF93DF93DB012C91203408F0C2C0B5
:104F3000EB01898181FF7FC080FD7DC08B812A814B
:104F4000982F907C09F053C090E2920F983008F0AF
:104F500055C08881E82FE695E695E695F0E0E553A3
:104F6000FB4F282F277081E090E0A0E0B0E004C064
:104F7000880F991FAA1FBB1F2A95D2F72081822B69
:104F800080838A818D3709F095C08B81813D09F03E
:104F900091C090E080E0C12CD12C7601C394282FE1
:104FA0008034910509F486C08034C9F1FC01EE0F0C
:104FB000FF1FEC5BFA4F408131814F3FB9F53F3F16
:104FC000A1F0E22FE695E695E695F0E0E553FB4F7C
:104FD0002770B701A60104C0440F551F661F771F35
:104FE0002A95D2F72081242B20830196D8CF8434B0
:104FF00029F496ED920F9A3208F4ABCF90E0982FF7
:10500000882730E02150304C820F931F409708F4DE
:10501000A0CF88810E94642081119BCFB2CF1092D3
:10502000C4051092C505E4ECF5E0C5CF4111C9CF28
:105030003111C7CFDACFE22FE695E695E695F0E09D
:10504000E553FB4F808190E0277002C095958795CE
:105050002A95E2F780FF2EC088810E94642081118A
:1050600029C02881E22FE695E695E695F0E0E55324
:10507000FB4F277081E090E0A0E0B0E004C0880F13
:10508000991FAA1FBB1F2A95D2F780959095A095CE
:10509000B095208182238083688180914E02909117
:1050A0004F02009739F0DC01ED91FC910680F78109
:1050B000E02D099590E080E0DF91CF91FF90EF9097
:1050C000DF90CF9008951F93CF93DF9380E0D0E0DF
:1050D000ED2FF0E0E553FB4FD83008F043C02191AD
:1050E00030E0082E02C0359527950A94E2F7222376
:1050F00059F1422F50E011E0180F20FF20C0CD2FB2
:10510000CC0FCC0FCC0FC80F8C2F0E944D208111DB
:105110001EC08C2F0E94522040912B0150912C01D7
:1051200060912D01811119C0809134018823C1F053
:105130004091310150913201609133010EC09A01CA
:1051400035952795812FD3CFDF5F80E0C5CF409184
:105150002E0150912F01609130018C2F0E94030A83
:10516000812FB6CF90E080E0DF91CF911F9108951D
:105170001F920F920FB60F9211242F933F938F938C
:105180009F93AF93BF938091D4049091D504A09145
:10519000D604B091D7043091D30423E0230F2D37E8
:1051A00058F50196A11DB11D2093D3048093D4041A
:1051B0009093D504A093D604B093D7048091D804DB
:1051C0009091D904A091DA04B091DB040196A11D5D
:1051D000B11D8093D8049093D904A093DA04B093BE
:1051E000DB04BF91AF919F918F913F912F910F90D1
:1051F0000FBE0F901F90189526E8230F0296A11D51
:10520000B11DD2CF2FB7F8946091D4047091D5041A
:105210008091D6049091D7042FBF08953FB7F8949A
:105220008091D8049091D904A091DA04B091DB0464
:1052300026B5A89B05C02F3F19F00196A11DB11DF1
:105240003FBFBA2FA92F982F8827BC01CD01620F2D
:10525000711D811D911D42E0660F771F881F991FE8
:105260004A95D1F708958F929F92AF92BF92CF92B5
:10527000DF92EF92FF926B017C010E940E294B019D
:105280005C01C114D104E104F104E9F00E943F364D
:105290000E940E29681979098A099B09683E7340A2
:1052A0008105910570F321E0C21AD108E108F108E7
:1052B00088EE880E83E0981EA11CB11CC114D10495
:1052C000E104F10429F7FF90EF90DF90CF90BF90B9
:1052D000AF909F908F900895789484B5826084BD3C
:1052E00084B5816084BD85B5826085BD85B58160EA
:1052F00085BDEEE6F0E0808181608083E1E8F0E04A
:105300001082808182608083808181608083E0E878
:10531000F0E0808181608083E1E9F0E0808182605B
:105320008083808181608083E0E9F0E0808181601A
:105330008083E1ECF0E08081846080838081826002
:105340008083808181608083E3ECF0E080818160F4
:105350008083E0ECF0E0808182608083E2ECF0E02A
:10536000808181608083EAE7F0E0808184608083CF
:105370008081826080838081816080838081806879
:1053800080830895CF93DF931F92CDB7DEB76983F3
:10539000DC01ED91FC910280F381E02D41E050E0D1
:1053A000BE016F5F7F4F09950F90DF91CF910895F8
:1053B000CF93DF93EC018C859D8597FF05C082E03C
:1053C0000E947D2E9D878C878C859D85DF91CF9156
:1053D000089583E00E94942E90E0089583E00C9459
:1053E0000331FC018485958597FD06C082E00E940B
:1053F0002D2E90E00196089582E00E942D2E90E0DF
:105400000895FC018485958597FD05C02FEF3FEF3A
:1054100035872487089582E00C947D2ECF93DF9307
:10542000EC0180914001882331F083E00E94AE2E90
:105430001816190634F081E090E09B838A8380E09F
:1054400090E0DF91CF910895EEEFFFE72591349141
:1054500081E02B3F3C4D09F080E00895FC019081F4
:105460009E5F908342E450E06DE876E080E80C9423
:105470005F2FFC0181819081913A61F4813209F0C2
:1054800083C047E050E069E371E080E00E945F2F55
:1054900081E00895913209F077C0833269F4828106
:1054A0009381B0E0A0E08093350190933601A09302
:1054B0003701B0933801ECCF803239F467E070E007
:1054C00089E391E00E94852FE3CF823209F7828140
:1054D000809340010E94242AE0E0F8E0882311F044
:1054E000EEEFFAE08091390190913A01A0913B01F1
:1054F000B0913C01803B9440A105B105D9F4809165
:10550000400180FD17C0EE3F8AE0F80771F587E79C
:1055100097E7918380838091600080932C0588E1D8
:105520009BE00FB6F894A895809360000FBE90930F
:105530006000AECF808191818737974709F0A8CF6F
:10554000A8958091600088618093600080912C050F
:1055500080936000EE3F8AE0F80789F08091FE0AB0
:105560009091FF0A9183808393CF808191818737C7
:10557000980769F29093FF0A8093FE0AC8CF1092B1
:10558000FF0A1092FE0A84CF80E008952FEF3FEFCC
:10559000FC01358724870895ECEDF4E01382128234
:1055A00088EE93E0A0E0B0E084839583A683B78380
:1055B00088E991E0918380838FEF9FEF95878487BF
:1055C0000895EF92FF920F931F93CF93DF937B0188
:1055D000FC01C281D38110E000E0209791F0E881C6
:1055E000F9810280F381E02DB701CE01099597FD85
:1055F00006C0080F191F0884D985C02DEECF0FEF04
:105600001FEFC801DF91CF911F910F91FF90EF9095
:1056100008950F931F93CF93DF938B01FC01C281F9
:10562000D381209771F0E881F9810480F581E02D24
:10563000B801CE010995009731F40884D985C02DB1
:10564000F0CF90E080E0DF91CF911F910F9108950E
:105650000F931F93CF93DF938B01FC01C281D38102
:10566000209771F0E881F9810680F781E02DB8017B
:10567000CE010995080F111D0884D985C02DF0CFE2
:10568000F8011082DF91CF911F910F9108950F9330
:105690001F93CF93DF938B01FC01C281D3812097AD
:1056A00071F0E881F9810190F081E02DB801CE011F
:1056B0000995811105C00884D985C02DF0CF80E0FF
:1056C000DF91CF911F910F910895CF93DF93FC014C
:1056D000DB01218114968C911497820F9927991FD1
:1056E00008978CF5C281D381209731F5738362834B
:1056F000908112969C93129713962C93139715965C
:105700008C911597890F808380E014969C91149753
:105710008917E8F41696CD91DC911797C80FD11D23
:105720009881C181D0E0CF5BDE4F988391819F5FEC
:1057300091838F5FEACFEC01888599850097D9F72F
:10574000B987A887D5CF80E0DF91CF91089581E018
:10575000FBCF80912D0581110DC082E0809335052E
:1057600084E080933605109238051092370581E069
:1057700080932D0585E395E00895FB0101900020BD
:10578000E9F73197AF01461B570BDC01ED91FC9116
:105790000280F381E02D0994EF92FF920F931F9303
:1057A000CF93DF938C017B01D0E0C0E0F701EC0FD9
:1057B000FD1F6491662361F0D801ED91FC91019089
:1057C000F081E02DC8010995892B11F02196EECFCB
:1057D000CE01DF91CF911F910F91FF90EF9008952F
:1057E000DC01ED91FC910190F081E02D099466EAD5
:1057F00071E00C94BD2B0F931F93CF93DF93EC01BB
:105800000E94CC2B8C01CE010E94F72B800F911FA0
:10581000DF91CF911F910F9108958F929F92AF9238
:10582000BF92EF92FF920F931F93CF93DF93CDB769
:10583000DEB7A1970FB6F894DEBF0FBECDBF7C01D7
:10584000FA01CB0119A2223008F42AE08E010F5D83
:105850001F4F822E912CB12CA12CBF01A5019401C8
:105860000E947836F901CA016A300CF5605DD801F2
:105870006E938D01232B242B252B79F790E080E06C
:10588000109721F0BD01C7010E94BD2BA1960FB654
:10589000F894DEBF0FBECDBFDF91CF911F910F9166
:1058A000FF90EF90BF90AF909F908F900895695CAC
:1058B000DECFCF92DF92EF92FF920F931F93CF93A1
:1058C000DF932115310581F4DC01ED91FC9101900C
:1058D000F081E02D642FDF91CF911F910F91FF9008
:1058E000EF90DF90CF9009942A30310501F52AE03E
:1058F00077FF1DC06A017B01EC016DE20E94F02B75
:105900008C0144275527BA014C195D096E097F099E
:105910002AE0CE010E940D2C800F911FDF91CF91C4
:105920001F910F91FF90EF90DF90CF900895DF913E
:10593000CF911F910F91FF90EF90DF90CF900C943B
:105940000D2C9A01AB01770F660B770B0C94592C39
:105950002115310541F4DC01ED91FC910190F081BC
:10596000E02D642F09940C940D2C9A01462F50E0E1
:1059700070E060E00C94A82C9A01AB0170E060E04C
:105980000C94A82C0F931F93CF93DF93EC010E94EC
:105990000229688779878A879B87E881F98104844F
:1059A000F585E02DCE01099597FF15C00E940229CB
:1059B000088519852A853B85601B710B820B930B2B
:1059C0000C811D812E813F8160177107820793072B
:1059D00020F38FEF9FEFDF91CF911F910F910895EB
:1059E000FF920F931F93CF93DF93EC018B01F42E63
:1059F000CE010E94C22C97FD1DC08D329105D1F0C1
:105A00009C01205331092A303105A0F0FF2019F004
:105A10008E32910579F00130110551F002301105F7
:105A200089F48D30910571F05CF40997029750F07C
:105A30008FEF9FEFDF91CF911F910F91FF9008950E
:105A40008097B1F7E881F9810284F385E02DCE01DA
:105A50000995CECFBF92CF92DF92EF92FF920F9334
:105A60001F93CF93DF938C01C42F40E00E94F02C52
:105A7000FC01C12CD12C760197FD3EC0B12C0C2E1F
:105A8000000CDD0BCE17DF07D9F0ED32F10509F47C
:105A90003FC0CF01C0970A9798F4AAE0B0E0A701F1
:105AA00096010E94B7366F01FF0FEE08FF08C60E81
:105AB000D71EE81EF91E80E3C81AD108E108F108D4
:105AC000D801ED91FC910284F385E02DC801099580
:105AD000C8010E94C22CFC01C0970A9798F2CE1709
